{
  "contractName": "NotificationHandler",
  "abi": [
    {
      "anonymous": false,
      "inputs": [
        {
          "components": [
            {
              "internalType": "string",
              "name": "dealerName",
              "type": "string"
            },
            {
              "internalType": "string",
              "name": "firstName",
              "type": "string"
            },
            {
              "internalType": "string",
              "name": "lastName",
              "type": "string"
            },
            {
              "internalType": "string",
              "name": "addr",
              "type": "string"
            },
            {
              "internalType": "string[2]",
              "name": "location",
              "type": "string[2]"
            },
            {
              "internalType": "string",
              "name": "phoneNo",
              "type": "string"
            },
            {
              "internalType": "string",
              "name": "bestSeller",
              "type": "string"
            },
            {
              "internalType": "string",
              "name": "promotion",
              "type": "string"
            },
            {
              "internalType": "string",
              "name": "otherServices",
              "type": "string"
            },
            {
              "internalType": "string[]",
              "name": "availableServices",
              "type": "string[]"
            },
            {
              "internalType": "string[][]",
              "name": "availableSubServices",
              "type": "string[][]"
            }
          ],
          "indexed": false,
          "internalType": "struct DealerContract.DealerInfo",
          "name": "info",
          "type": "tuple"
        },
        {
          "indexed": false,
          "internalType": "bytes32",
          "name": "id",
          "type": "bytes32"
        }
      ],
      "name": "CreateDealerApplication",
      "type": "event"
    },
    {
      "constant": false,
      "inputs": [
        {
          "internalType": "bytes32",
          "name": "dealerId",
          "type": "bytes32"
        },
        {
          "internalType": "bytes32",
          "name": "adr",
          "type": "bytes32"
        }
      ],
      "name": "addDealerEmployee",
      "outputs": [],
      "payable": false,
      "stateMutability": "nonpayable",
      "type": "function"
    },
    {
      "constant": false,
      "inputs": [
        {
          "internalType": "string",
          "name": "serviceName",
          "type": "string"
        }
      ],
      "name": "addService",
      "outputs": [],
      "payable": false,
      "stateMutability": "nonpayable",
      "type": "function"
    },
    {
      "constant": false,
      "inputs": [
        {
          "internalType": "string",
          "name": "serviceName",
          "type": "string"
        },
        {
          "internalType": "string",
          "name": "subServiceName",
          "type": "string"
        }
      ],
      "name": "addSubService",
      "outputs": [],
      "payable": false,
      "stateMutability": "nonpayable",
      "type": "function"
    },
    {
      "constant": false,
      "inputs": [
        {
          "internalType": "bytes32",
          "name": "adr",
          "type": "bytes32"
        }
      ],
      "name": "approveApplication",
      "outputs": [],
      "payable": false,
      "stateMutability": "nonpayable",
      "type": "function"
    },
    {
      "constant": false,
      "inputs": [
        {
          "components": [
            {
              "internalType": "bytes32",
              "name": "userId",
              "type": "bytes32"
            },
            {
              "internalType": "bytes32",
              "name": "dealerId",
              "type": "bytes32"
            },
            {
              "internalType": "string",
              "name": "carPlate",
              "type": "string"
            },
            {
              "internalType": "int256",
              "name": "time",
              "type": "int256"
            }
          ],
          "internalType": "struct AppointmentHandler.Appointment",
          "name": "appointment",
          "type": "tuple"
        }
      ],
      "name": "cancelAppointment",
      "outputs": [],
      "payable": false,
      "stateMutability": "nonpayable",
      "type": "function"
    },
    {
      "constant": false,
      "inputs": [
        {
          "components": [
            {
              "internalType": "bytes32",
              "name": "userId",
              "type": "bytes32"
            },
            {
              "internalType": "bytes32",
              "name": "dealerId",
              "type": "bytes32"
            },
            {
              "internalType": "string",
              "name": "carPlate",
              "type": "string"
            },
            {
              "internalType": "int256",
              "name": "time",
              "type": "int256"
            }
          ],
          "internalType": "struct AppointmentHandler.Appointment",
          "name": "appointment",
          "type": "tuple"
        }
      ],
      "name": "completeAppointment",
      "outputs": [],
      "payable": false,
      "stateMutability": "nonpayable",
      "type": "function"
    },
    {
      "constant": false,
      "inputs": [
        {
          "components": [
            {
              "internalType": "bytes32",
              "name": "userId",
              "type": "bytes32"
            },
            {
              "internalType": "bytes32",
              "name": "dealerId",
              "type": "bytes32"
            },
            {
              "internalType": "string",
              "name": "carPlate",
              "type": "string"
            },
            {
              "internalType": "int256",
              "name": "time",
              "type": "int256"
            }
          ],
          "internalType": "struct AppointmentHandler.Appointment",
          "name": "appointment",
          "type": "tuple"
        }
      ],
      "name": "createAppointment",
      "outputs": [],
      "payable": false,
      "stateMutability": "nonpayable",
      "type": "function"
    },
    {
      "constant": false,
      "inputs": [
        {
          "components": [
            {
              "internalType": "string",
              "name": "dealerName",
              "type": "string"
            },
            {
              "internalType": "string",
              "name": "firstName",
              "type": "string"
            },
            {
              "internalType": "string",
              "name": "lastName",
              "type": "string"
            },
            {
              "internalType": "string",
              "name": "addr",
              "type": "string"
            },
            {
              "internalType": "string[2]",
              "name": "location",
              "type": "string[2]"
            },
            {
              "internalType": "string",
              "name": "phoneNo",
              "type": "string"
            },
            {
              "internalType": "string",
              "name": "bestSeller",
              "type": "string"
            },
            {
              "internalType": "string",
              "name": "promotion",
              "type": "string"
            },
            {
              "internalType": "string",
              "name": "otherServices",
              "type": "string"
            },
            {
              "internalType": "string[]",
              "name": "availableServices",
              "type": "string[]"
            },
            {
              "internalType": "string[][]",
              "name": "availableSubServices",
              "type": "string[][]"
            }
          ],
          "internalType": "struct DealerContract.DealerInfo",
          "name": "info",
          "type": "tuple"
        },
        {
          "internalType": "bytes32",
          "name": "id",
          "type": "bytes32"
        }
      ],
      "name": "createDealerApplication",
      "outputs": [],
      "payable": false,
      "stateMutability": "nonpayable",
      "type": "function"
    },
    {
      "constant": false,
      "inputs": [
        {
          "internalType": "string",
          "name": "serviceName",
          "type": "string"
        }
      ],
      "name": "deleteService",
      "outputs": [],
      "payable": false,
      "stateMutability": "nonpayable",
      "type": "function"
    },
    {
      "constant": false,
      "inputs": [
        {
          "internalType": "string",
          "name": "serviceName",
          "type": "string"
        },
        {
          "internalType": "string",
          "name": "subServiceName",
          "type": "string"
        }
      ],
      "name": "deleteSubService",
      "outputs": [],
      "payable": false,
      "stateMutability": "nonpayable",
      "type": "function"
    },
    {
      "constant": false,
      "inputs": [
        {
          "internalType": "bytes32",
          "name": "userId",
          "type": "bytes32"
        },
        {
          "internalType": "string",
          "name": "noPlate",
          "type": "string"
        },
        {
          "components": [
            {
              "internalType": "string",
              "name": "brand",
              "type": "string"
            },
            {
              "internalType": "string",
              "name": "model",
              "type": "string"
            },
            {
              "internalType": "string",
              "name": "year",
              "type": "string"
            }
          ],
          "internalType": "struct UserContract.CarInfo",
          "name": "carInfo",
          "type": "tuple"
        }
      ],
      "name": "editCarDetails",
      "outputs": [],
      "payable": false,
      "stateMutability": "nonpayable",
      "type": "function"
    },
    {
      "constant": false,
      "inputs": [
        {
          "components": [
            {
              "internalType": "string",
              "name": "dealerName",
              "type": "string"
            },
            {
              "internalType": "string",
              "name": "firstName",
              "type": "string"
            },
            {
              "internalType": "string",
              "name": "lastName",
              "type": "string"
            },
            {
              "internalType": "string",
              "name": "addr",
              "type": "string"
            },
            {
              "internalType": "string[2]",
              "name": "location",
              "type": "string[2]"
            },
            {
              "internalType": "string",
              "name": "phoneNo",
              "type": "string"
            },
            {
              "internalType": "string",
              "name": "bestSeller",
              "type": "string"
            },
            {
              "internalType": "string",
              "name": "promotion",
              "type": "string"
            },
            {
              "internalType": "string",
              "name": "otherServices",
              "type": "string"
            },
            {
              "internalType": "string[]",
              "name": "availableServices",
              "type": "string[]"
            },
            {
              "internalType": "string[][]",
              "name": "availableSubServices",
              "type": "string[][]"
            }
          ],
          "internalType": "struct DealerContract.DealerInfo",
          "name": "info",
          "type": "tuple"
        },
        {
          "internalType": "bytes32",
          "name": "id",
          "type": "bytes32"
        }
      ],
      "name": "editDealerInfo",
      "outputs": [],
      "payable": false,
      "stateMutability": "nonpayable",
      "type": "function"
    },
    {
      "constant": false,
      "inputs": [
        {
          "internalType": "string",
          "name": "oldName",
          "type": "string"
        },
        {
          "internalType": "string",
          "name": "newName",
          "type": "string"
        }
      ],
      "name": "editServiceName",
      "outputs": [],
      "payable": false,
      "stateMutability": "nonpayable",
      "type": "function"
    },
    {
      "constant": false,
      "inputs": [
        {
          "internalType": "string",
          "name": "serviceName",
          "type": "string"
        },
        {
          "internalType": "string",
          "name": "oldName",
          "type": "string"
        },
        {
          "internalType": "string",
          "name": "newName",
          "type": "string"
        }
      ],
      "name": "editSubServiceName",
      "outputs": [],
      "payable": false,
      "stateMutability": "nonpayable",
      "type": "function"
    },
    {
      "constant": false,
      "inputs": [
        {
          "internalType": "bytes32",
          "name": "userId",
          "type": "bytes32"
        },
        {
          "components": [
            {
              "internalType": "string",
              "name": "firstName",
              "type": "string"
            },
            {
              "internalType": "string",
              "name": "lastName",
              "type": "string"
            },
            {
              "internalType": "string",
              "name": "adr",
              "type": "string"
            },
            {
              "internalType": "string",
              "name": "phNo",
              "type": "string"
            },
            {
              "internalType": "string",
              "name": "email",
              "type": "string"
            }
          ],
          "internalType": "struct UserContract.UserInfo",
          "name": "info",
          "type": "tuple"
        }
      ],
      "name": "editUserInfo",
      "outputs": [],
      "payable": false,
      "stateMutability": "nonpayable",
      "type": "function"
    },
    {
      "constant": true,
      "inputs": [],
      "name": "getAllDealerApplications",
      "outputs": [
        {
          "internalType": "bytes32[]",
          "name": "",
          "type": "bytes32[]"
        }
      ],
      "payable": false,
      "stateMutability": "view",
      "type": "function"
    },
    {
      "constant": true,
      "inputs": [],
      "name": "getAllUsers",
      "outputs": [
        {
          "internalType": "bytes32[]",
          "name": "",
          "type": "bytes32[]"
        }
      ],
      "payable": false,
      "stateMutability": "view",
      "type": "function"
    },
    {
      "constant": true,
      "inputs": [
        {
          "internalType": "bytes32",
          "name": "dealerId",
          "type": "bytes32"
        }
      ],
      "name": "getAppointmentHistory",
      "outputs": [
        {
          "components": [
            {
              "internalType": "bytes32",
              "name": "userId",
              "type": "bytes32"
            },
            {
              "internalType": "bytes32",
              "name": "dealerId",
              "type": "bytes32"
            },
            {
              "internalType": "string",
              "name": "carPlate",
              "type": "string"
            },
            {
              "internalType": "int256",
              "name": "time",
              "type": "int256"
            }
          ],
          "internalType": "struct AppointmentHandler.Appointment[]",
          "name": "",
          "type": "tuple[]"
        }
      ],
      "payable": false,
      "stateMutability": "view",
      "type": "function"
    },
    {
      "constant": true,
      "inputs": [
        {
          "internalType": "string",
          "name": "noPlate",
          "type": "string"
        }
      ],
      "name": "getCarDetails",
      "outputs": [
        {
          "components": [
            {
              "internalType": "string",
              "name": "brand",
              "type": "string"
            },
            {
              "internalType": "string",
              "name": "model",
              "type": "string"
            },
            {
              "internalType": "string",
              "name": "year",
              "type": "string"
            }
          ],
          "internalType": "struct UserContract.CarInfo",
          "name": "",
          "type": "tuple"
        }
      ],
      "payable": false,
      "stateMutability": "view",
      "type": "function"
    },
    {
      "constant": true,
      "inputs": [
        {
          "internalType": "bytes32",
          "name": "userId",
          "type": "bytes32"
        }
      ],
      "name": "getCarPlates",
      "outputs": [
        {
          "internalType": "string[]",
          "name": "",
          "type": "string[]"
        }
      ],
      "payable": false,
      "stateMutability": "view",
      "type": "function"
    },
    {
      "constant": true,
      "inputs": [
        {
          "internalType": "bytes32",
          "name": "userId",
          "type": "bytes32"
        }
      ],
      "name": "getCars",
      "outputs": [
        {
          "components": [
            {
              "internalType": "string",
              "name": "brand",
              "type": "string"
            },
            {
              "internalType": "string",
              "name": "model",
              "type": "string"
            },
            {
              "internalType": "string",
              "name": "year",
              "type": "string"
            }
          ],
          "internalType": "struct UserContract.CarInfo[]",
          "name": "",
          "type": "tuple[]"
        }
      ],
      "payable": false,
      "stateMutability": "view",
      "type": "function"
    },
    {
      "constant": true,
      "inputs": [
        {
          "internalType": "bytes32",
          "name": "id",
          "type": "bytes32"
        }
      ],
      "name": "getDealerInfo",
      "outputs": [
        {
          "components": [
            {
              "internalType": "string",
              "name": "dealerName",
              "type": "string"
            },
            {
              "internalType": "string",
              "name": "firstName",
              "type": "string"
            },
            {
              "internalType": "string",
              "name": "lastName",
              "type": "string"
            },
            {
              "internalType": "string",
              "name": "addr",
              "type": "string"
            },
            {
              "internalType": "string[2]",
              "name": "location",
              "type": "string[2]"
            },
            {
              "internalType": "string",
              "name": "phoneNo",
              "type": "string"
            },
            {
              "internalType": "string",
              "name": "bestSeller",
              "type": "string"
            },
            {
              "internalType": "string",
              "name": "promotion",
              "type": "string"
            },
            {
              "internalType": "string",
              "name": "otherServices",
              "type": "string"
            },
            {
              "internalType": "string[]",
              "name": "availableServices",
              "type": "string[]"
            },
            {
              "internalType": "string[][]",
              "name": "availableSubServices",
              "type": "string[][]"
            }
          ],
          "internalType": "struct DealerContract.DealerInfo",
          "name": "",
          "type": "tuple"
        }
      ],
      "payable": false,
      "stateMutability": "view",
      "type": "function"
    },
    {
      "constant": true,
      "inputs": [
        {
          "internalType": "string",
          "name": "id",
          "type": "string"
        }
      ],
      "name": "getHash",
      "outputs": [
        {
          "internalType": "bytes32",
          "name": "",
          "type": "bytes32"
        }
      ],
      "payable": false,
      "stateMutability": "pure",
      "type": "function"
    },
    {
      "constant": true,
      "inputs": [
        {
          "internalType": "bytes32",
          "name": "dealerId",
          "type": "bytes32"
        }
      ],
      "name": "getPendingAppointments",
      "outputs": [
        {
          "components": [
            {
              "internalType": "bytes32",
              "name": "userId",
              "type": "bytes32"
            },
            {
              "internalType": "bytes32",
              "name": "dealerId",
              "type": "bytes32"
            },
            {
              "internalType": "string",
              "name": "carPlate",
              "type": "string"
            },
            {
              "internalType": "int256",
              "name": "time",
              "type": "int256"
            }
          ],
          "internalType": "struct AppointmentHandler.Appointment[]",
          "name": "",
          "type": "tuple[]"
        }
      ],
      "payable": false,
      "stateMutability": "view",
      "type": "function"
    },
    {
      "constant": true,
      "inputs": [
        {
          "internalType": "string",
          "name": "noPlate",
          "type": "string"
        }
      ],
      "name": "getRecords",
      "outputs": [
        {
          "components": [
            {
              "internalType": "bytes32",
              "name": "dealerId",
              "type": "bytes32"
            },
            {
              "internalType": "string[]",
              "name": "services",
              "type": "string[]"
            },
            {
              "internalType": "string[]",
              "name": "subservices",
              "type": "string[]"
            },
            {
              "internalType": "string",
              "name": "comment",
              "type": "string"
            },
            {
              "internalType": "uint256",
              "name": "timeStamp",
              "type": "uint256"
            }
          ],
          "internalType": "struct UserContract.RecordInternal[]",
          "name": "",
          "type": "tuple[]"
        }
      ],
      "payable": false,
      "stateMutability": "view",
      "type": "function"
    },
    {
      "constant": true,
      "inputs": [],
      "name": "getServices",
      "outputs": [
        {
          "internalType": "string[]",
          "name": "",
          "type": "string[]"
        }
      ],
      "payable": false,
      "stateMutability": "view",
      "type": "function"
    },
    {
      "constant": true,
      "inputs": [
        {
          "internalType": "string",
          "name": "serviceName",
          "type": "string"
        }
      ],
      "name": "getSubServices",
      "outputs": [
        {
          "internalType": "string[]",
          "name": "",
          "type": "string[]"
        }
      ],
      "payable": false,
      "stateMutability": "view",
      "type": "function"
    },
    {
      "constant": true,
      "inputs": [
        {
          "internalType": "bytes32",
          "name": "userId",
          "type": "bytes32"
        }
      ],
      "name": "getUserAppointment",
      "outputs": [
        {
          "components": [
            {
              "internalType": "bytes32",
              "name": "userId",
              "type": "bytes32"
            },
            {
              "internalType": "bytes32",
              "name": "dealerId",
              "type": "bytes32"
            },
            {
              "internalType": "string",
              "name": "carPlate",
              "type": "string"
            },
            {
              "internalType": "int256",
              "name": "time",
              "type": "int256"
            }
          ],
          "internalType": "struct AppointmentHandler.Appointment",
          "name": "",
          "type": "tuple"
        }
      ],
      "payable": false,
      "stateMutability": "view",
      "type": "function"
    },
    {
      "constant": true,
      "inputs": [
        {
          "internalType": "bytes32",
          "name": "userId",
          "type": "bytes32"
        }
      ],
      "name": "getUserInfo",
      "outputs": [
        {
          "components": [
            {
              "internalType": "string",
              "name": "firstName",
              "type": "string"
            },
            {
              "internalType": "string",
              "name": "lastName",
              "type": "string"
            },
            {
              "internalType": "string",
              "name": "adr",
              "type": "string"
            },
            {
              "internalType": "string",
              "name": "phNo",
              "type": "string"
            },
            {
              "internalType": "string",
              "name": "email",
              "type": "string"
            }
          ],
          "internalType": "struct UserContract.UserInfo",
          "name": "",
          "type": "tuple"
        }
      ],
      "payable": false,
      "stateMutability": "view",
      "type": "function"
    },
    {
      "constant": true,
      "inputs": [
        {
          "internalType": "bytes32",
          "name": "adr",
          "type": "bytes32"
        }
      ],
      "name": "isVerified",
      "outputs": [
        {
          "internalType": "bool",
          "name": "",
          "type": "bool"
        }
      ],
      "payable": false,
      "stateMutability": "view",
      "type": "function"
    },
    {
      "constant": true,
      "inputs": [
        {
          "internalType": "string",
          "name": "",
          "type": "string"
        }
      ],
      "name": "notificationTimes",
      "outputs": [
        {
          "internalType": "uint256",
          "name": "",
          "type": "uint256"
        }
      ],
      "payable": false,
      "stateMutability": "view",
      "type": "function"
    },
    {
      "constant": true,
      "inputs": [],
      "name": "owner",
      "outputs": [
        {
          "internalType": "address",
          "name": "",
          "type": "address"
        }
      ],
      "payable": false,
      "stateMutability": "view",
      "type": "function"
    },
    {
      "constant": false,
      "inputs": [
        {
          "internalType": "bytes32",
          "name": "dealershipId",
          "type": "bytes32"
        },
        {
          "internalType": "bytes32",
          "name": "otherId",
          "type": "bytes32"
        }
      ],
      "name": "transferDealershipOwner",
      "outputs": [],
      "payable": false,
      "stateMutability": "nonpayable",
      "type": "function"
    },
    {
      "constant": false,
      "inputs": [
        {
          "internalType": "address",
          "name": "newOwner",
          "type": "address"
        }
      ],
      "name": "transferOwner",
      "outputs": [],
      "payable": false,
      "stateMutability": "nonpayable",
      "type": "function"
    },
    {
      "constant": false,
      "inputs": [
        {
          "internalType": "bytes32",
          "name": "dealerId",
          "type": "bytes32"
        },
        {
          "internalType": "bytes32",
          "name": "id",
          "type": "bytes32"
        },
        {
          "internalType": "string",
          "name": "noPlate",
          "type": "string"
        },
        {
          "internalType": "string[]",
          "name": "services",
          "type": "string[]"
        },
        {
          "internalType": "string[]",
          "name": "subservices",
          "type": "string[]"
        },
        {
          "internalType": "string",
          "name": "comment",
          "type": "string"
        },
        {
          "internalType": "uint256",
          "name": "timeStamp",
          "type": "uint256"
        }
      ],
      "name": "insertRecord",
      "outputs": [],
      "payable": false,
      "stateMutability": "nonpayable",
      "type": "function"
    },
    {
      "constant": true,
      "inputs": [
        {
          "internalType": "bytes32",
          "name": "userId",
          "type": "bytes32"
        }
      ],
      "name": "getLastServiceTimes",
      "outputs": [
        {
          "internalType": "uint256[255]",
          "name": "",
          "type": "uint256[255]"
        }
      ],
      "payable": false,
      "stateMutability": "view",
      "type": "function"
    },
    {
      "constant": false,
      "inputs": [
        {
          "internalType": "string",
          "name": "serviceName",
          "type": "string"
        },
        {
          "internalType": "uint256",
          "name": "time",
          "type": "uint256"
        }
      ],
      "name": "setServiceNotificationTime",
      "outputs": [],
      "payable": false,
      "stateMutability": "nonpayable",
      "type": "function"
    }
  ],
  "bytecode": "0x60806040526006805461fe0061ff0019909116179055600080546001600160a01b031916331790556156f3806100366000396000f3fe608060405234801561001057600080fd5b50600436106102275760003560e01c80637e41667f11610130578063adff8b0f116100b8578063c9b54a581161007c578063c9b54a58146104f8578063d872acac14610518578063ddb5f47614610538578063e2842d7914610558578063e445268c1461056057610227565b8063adff8b0f1461047f578063b2c9ae601461049f578063b63e01d2146104b2578063c181b273146104c5578063c4e91d17146104e557610227565b80638da5cb5b116100ff5780638da5cb5b146104115780638ee24214146104265780638f2b51441461043957806399ec14f81461044c578063a44e4c701461045f57610227565b80637e41667f146103b657806382d7afbd146103cb57806386e80b71146103de57806388fcd194146103fe57610227565b806350fb95e3116101b35780636b350edc116101825780636b350edc146103485780636fd7d2b514610368578063752326c11461037b578063754178511461038e5780637d17f13c1461039657610227565b806350fb95e3146102ef5780635a82610c146103025780635b6beeb91461031557806360e9480b1461033557610227565b80631b8f47fe116101fa5780631b8f47fe1461027a57806335f5dbd41461028d578063369bfce4146102a0578063431a65fc146102b35780634fb2e45d146102dc57610227565b80630ad5be911461022c5780630eb7bc8f146102415780631118127a146102545780631a4c85be14610267575b600080fd5b61023f61023a3660046144ae565b610573565b005b61023f61024f36600461469c565b610612565b61023f6102623660046147e9565b61069d565b61023f610275366004614668565b61088b565b61023f610288366004614438565b61095e565b61023f61029b366004614780565b6109ef565b61023f6102ae36600461469c565b610a3e565b6102c66102c1366004614668565b610b94565b6040516102d391906153bd565b60405180910390f35b61023f6102ea366004614412565b610c8b565b61023f6102fd36600461469c565b610cd7565b61023f6103103660046147b5565b610dba565b610328610323366004614668565b610e90565b6040516102d3919061541e565b61023f6103433660046147b5565b610f05565b61035b610356366004614438565b61117b565b6040516102d39190615401565b61023f6103763660046146f9565b6111c4565b61023f6103893660046147e9565b611266565b6102c66113cd565b6103a96103a4366004614438565b611522565b6040516102d3919061553e565b6103be611cac565b6040516102d391906153ac565b61023f6103d9366004614474565b611d2f565b6103f16103ec366004614668565b611e2b565b6040516102d391906153f0565b61023f61040c366004614668565b6120f5565b610419612203565b6040516102d3919061539e565b61023f6104343660046145a6565b612212565b6102c6610447366004614438565b612319565b61032861045a366004614668565b6123f9565b61047261046d366004614438565b612416565b6040516102d391906153ce565b61049261048d366004614438565b612566565b6040516102d3919061556f565b61023f6104ad3660046147b5565b612878565b6104726104c0366004614438565b61293b565b6104d86104d3366004614438565b612a7e565b6040516102d39190615410565b61023f6104f3366004614621565b612aab565b61050b610506366004614438565b612b3d565b6040516102d391906153df565b61052b610526366004614668565b612ddf565b6040516102d3919061552d565b61054b610546366004614438565b612f9b565b6040516102d3919061551c565b6103be613088565b61023f61056e366004614474565b613109565b8661057d81612a7e565b6105a25760405162461bcd60e51b81526004016105999061550c565b60405180910390fd5b6105b188888888888888613194565b60005b85518110156106075760006105db8783815181106105ce57fe5b6020026020010151613339565b60008a8152601260205260409020909150849060ff8084169081106105fc57fe5b0155506001016105b4565b505050505050505050565b6000546001600160a01b0316331461063c5760405162461bcd60e51b8152600401610599906154ac565b8161064681613458565b6106625760405162461bcd60e51b8152600401610599906154cc565b816007600061067086613339565b60ff1660ff1681526020019081526020016000209080519060200190610697929190613989565b50505050565b60008181526001602052604090205460ff16156106cc5760405162461bcd60e51b8152600401610599906154dc565b60008181526004602090815260409091208351805185936106f1928492910190613989565b50602082810151805161070a9260018501920190613989565b5060408201518051610726916002840191602090910190613989565b5060608201518051610742916003840191602090910190613989565b5060808201516107589060048301906002613a07565b5060a08201518051610774916006840191602090910190613989565b5060c08201518051610790916007840191602090910190613989565b5060e082015180516107ac916008840191602090910190613989565b5061010082015180516107c9916009840191602090910190613989565b5061012082015180516107e691600a840191602090910190613a53565b50610140820151805161080391600b840191602090910190613aa0565b50905050600061081282613479565b121561084e57600580546001810182556000919091527f036b6384b5eca791c62761152d0c79bb0604c104a5fb6f4eb0703f3154bb3db0018190555b7fbcb28ce223d1d07df7ff015302f0aee0306ad6362ede3db7aa3c6d40a651f008828260405161087f92919061554f565b60405180910390a15050565b6000546001600160a01b031633146108b55760405162461bcd60e51b8152600401610599906154ac565b806108bf81613458565b6108db5760405162461bcd60e51b8152600401610599906154cc565b60006108e683613339565b604080516020808201808452600080845260ff861681526007909252929020905192935061091692909190613989565b506008836040516109279190615386565b908152602001604051809103902060006109419190613af9565b50506006805460ff19811660ff9182166000190190911617905550565b6000546001600160a01b031633146109885760405162461bcd60e51b8152600401610599906154ac565b600061099382613479565b905060008112156109b65760405162461bcd60e51b81526004016105999061545c565b6000828152600160208190526040909120805460ff1916909117905560058054829081106109e057fe5b60009182526020822001555050565b6000546001600160a01b03163314610a195760405162461bcd60e51b8152600401610599906154ac565b80601183604051610a2a9190615386565b908152604051908190036020019020555050565b6000546001600160a01b03163314610a685760405162461bcd60e51b8152600401610599906154ac565b8181610a7482826134bf565b610a905760405162461bcd60e51b8152600401610599906154bc565b6000610a9c85856134d5565b905060006001600887604051610ab29190615386565b908152602001604051809103902080549050039050600886604051610ad79190615386565b90815260200160405180910390208181548110610af057fe5b90600052602060002001600887604051610b0a9190615386565b90815260200160405180910390208381548110610b2357fe5b906000526020600020019080546001816001161561010002031660029004610b4c929190613b1a565b50600886604051610b5d9190615386565b90815260200160405180910390208181548110610b7657fe5b906000526020600020016000610b8c9190613b8f565b505050505050565b6060600882604051610ba69190615386565b9081526020016040518091039020805480602002602001604051908101604052809291908181526020016000905b82821015610c7f5760008481526020908190208301805460408051601f6002600019610100600187161502019094169390930492830185900485028101850190915281815292830182828015610c6b5780601f10610c4057610100808354040283529160200191610c6b565b820191906000526020600020905b815481529060010190602001808311610c4e57829003601f168201915b505050505081526020019060010190610bd4565b5050505090505b919050565b6000546001600160a01b03163314610cb55760405162461bcd60e51b8152600401610599906154ac565b600080546001600160a01b0319166001600160a01b0392909216919091179055565b8160ff600882604051610cea9190615386565b9081526040519081900360200190205410610d175760405162461bcd60e51b81526004016105999061548c565b8282610d2382826134bf565b15610d405760405162461bcd60e51b81526004016105999061544c565b6000546001600160a01b03163314610d6a5760405162461bcd60e51b8152600401610599906154ac565b600885604051610d7a9190615386565b9081526040516020918190038201902080546001810180835560009283529183902087519293610db1939190920191880190613989565b50505050505050565b8060200151610dc881612a7e565b610de45760405162461bcd60e51b81526004016105999061550c565b6000610def836135b6565b90506000198110610e125760405162461bcd60e51b81526004016105999061547c565b610e20836020015182613659565b6040805160808101825260008082526020808301828152845180830186528381528486019081526060850184905288518452601083529490922083518155915160018301559251805192939192610e7d9260028501920190613989565b5060608201518160030155905050505050565b6000600282604051602001610ea59190615386565b60408051601f1981840301815290829052610ebf91615386565b602060405180830381855afa158015610edc573d6000803e3d6000fd5b5050506040513d601f19601f82011682018060405250610eff9190810190614456565b92915050565b8060200151610f1381612a7e565b610f2f5760405162461bcd60e51b81526004016105999061550c565b8151600081815260106020526040902054156110df576000610f54846000015161375e565b9050610f5e613bd3565b8451600090815260106020908152604091829020825160808101845281548152600180830154828501526002808401805487519381161561010002600019011691909104601f810186900486028301860187528083529295939493860193919290918301828280156110115780601f10610fe657610100808354040283529160200191611011565b820191906000526020600020905b815481529060010190602001808311610ff457829003601f168201915b505050505081526020016003820154815250509050600f600082602001518152602001908152602001600020828154811061104857fe5b600091825260208220600490910201818155600181018290559061106f6002830182613b8f565b506000600391909101819055602080870180518352600f8252604080842080546001818101808455928752958590208b51600490920201908155925194830194909455880151805189936110ca926002850192910190613989565b50606082015181600301555050505050611142565b602080840180516000908152600f8352604080822080546001818101808455928552938690208951600490920201908155935192840192909255860151805191938793926111339260028501920190613989565b50606082015181600301555050505b60008181526010602090815260409182902085518155818601516001820155918501518051869392610e7d926002850192910190613989565b611183613bfb565b600082815260126020526040908190208151611fe08101928390529160ff9082845b8154815260200190600101908083116111a55750505050509050919050565b82826111d082826134bf565b6111ec5760405162461bcd60e51b8152600401610599906154bc565b6000546001600160a01b031633146112165760405162461bcd60e51b8152600401610599906154ac565b826008866040516112279190615386565b908152602001604051809103902061123f87876134d5565b8154811061124957fe5b906000526020600020019080519060200190610b8c929190613989565b600081815260016020526040902054819060ff166112965760405162461bcd60e51b81526004016105999061543c565b60008281526004602090815260409091208451805186936112bb928492910190613989565b5060208281015180516112d49260018501920190613989565b50604082015180516112f0916002840191602090910190613989565b506060820151805161130c916003840191602090910190613989565b5060808201516113229060048301906002613a07565b5060a0820151805161133e916006840191602090910190613989565b5060c0820151805161135a916007840191602090910190613989565b5060e08201518051611376916008840191602090910190613989565b506101008201518051611393916009840191602090910190613989565b5061012082015180516113b091600a840191602090910190613a53565b506101408201518051610b8c91600b840191602090910190613aa0565b6006546040805160ff90921680835260208082028401019091526060918291801561140c57816020015b60608152602001906001900390816113f75790505b5090506000805b60065460ff610100909104811690821610156115195760ff811660009081526007602052604090205460026000196101006001841615020190911604156115115760ff811660009081526007602090815260409182902080548351601f6002600019610100600186161502019093169290920491820184900484028101840190945280845290918301828280156114eb5780601f106114c0576101008083540402835291602001916114eb565b820191906000526020600020905b8154815290600101906020018083116114ce57829003601f168201915b5050505050838380600101945060ff168151811061150557fe5b60200260200101819052505b600101611413565b50909150505b90565b61152a613c1a565b6000828152600460209081526040918290208251815460026001821615610100026000190190911604601f8101849004909302810161018090810190945261016081018381529093919284928491908401828280156115ca5780601f1061159f576101008083540402835291602001916115ca565b820191906000526020600020905b8154815290600101906020018083116115ad57829003601f168201915b50505050508152602001600182018054600181600116156101000203166002900480601f01602080910402602001604051908101604052809291908181526020018280546001816001161561010002031660029004801561166c5780601f106116415761010080835404028352916020019161166c565b820191906000526020600020905b81548152906001019060200180831161164f57829003601f168201915b5050509183525050600282810180546040805160206001841615610100026000190190931694909404601f810183900483028501830190915280845293810193908301828280156116fe5780601f106116d3576101008083540402835291602001916116fe565b820191906000526020600020905b8154815290600101906020018083116116e157829003601f168201915b505050918352505060038201805460408051602060026001851615610100026000190190941693909304601f81018490048402820184019092528181529382019392918301828280156117925780601f1061176757610100808354040283529160200191611792565b820191906000526020600020905b81548152906001019060200180831161177557829003601f168201915b5050509183525050604080518082019091526020909101906004830160026000835b8282101561185757838201805460408051602060026001851615610100026000190190941693909304601f810184900484028201840190925281815292918301828280156118435780601f1061181857610100808354040283529160200191611843565b820191906000526020600020905b81548152906001019060200180831161182657829003601f168201915b5050505050815260200190600101906117b4565b5050509082525060068201805460408051602060026001851615610100026000190190941693909304601f81018490048402820184019092528181529382019392918301828280156118ea5780601f106118bf576101008083540402835291602001916118ea565b820191906000526020600020905b8154815290600101906020018083116118cd57829003601f168201915b505050918352505060078201805460408051602060026001851615610100026000190190941693909304601f810184900484028201840190925281815293820193929183018282801561197e5780601f106119535761010080835404028352916020019161197e565b820191906000526020600020905b81548152906001019060200180831161196157829003601f168201915b505050918352505060088201805460408051602060026001851615610100026000190190941693909304601f8101849004840282018401909252818152938201939291830182828015611a125780601f106119e757610100808354040283529160200191611a12565b820191906000526020600020905b8154815290600101906020018083116119f557829003601f168201915b505050918352505060098201805460408051602060026001851615610100026000190190941693909304601f8101849004840282018401909252818152938201939291830182828015611aa65780601f10611a7b57610100808354040283529160200191611aa6565b820191906000526020600020905b815481529060010190602001808311611a8957829003601f168201915b50505050508152602001600a8201805480602002602001604051908101604052809291908181526020016000905b82821015611b7f5760008481526020908190208301805460408051601f6002600019610100600187161502019094169390930492830185900485028101850190915281815292830182828015611b6b5780601f10611b4057610100808354040283529160200191611b6b565b820191906000526020600020905b815481529060010190602001808311611b4e57829003601f168201915b505050505081526020019060010190611ad4565b505050508152602001600b8201805480602002602001604051908101604052809291908181526020016000905b82821015611c9e57838290600052602060002001805480602002602001604051908101604052809291908181526020016000905b82821015611c8b5760008481526020908190208301805460408051601f6002600019610100600187161502019094169390930492830185900485028101850190915281815292830182828015611c775780601f10611c4c57610100808354040283529160200191611c77565b820191906000526020600020905b815481529060010190602001808311611c5a57829003601f168201915b505050505081526020019060010190611be0565b5050505081526020019060010190611bac565b505050915250909392505050565b6000546060906001600160a01b03163314611cd95760405162461bcd60e51b8152600401610599906154ac565b6005805480602002602001604051908101604052809291908181526020018280548015611d2557602002820191906000526020600020905b815481526020019060010190808311611d11575b5050505050905090565b600082815260016020526040902054829060ff16611d5f5760405162461bcd60e51b81526004016105999061543c565b6000828152600160208181526040808420805460ff1990811690941790558684528084208054909316909255848352600381528183208390558583526002905280822084835291208154611db39290613c7a565b506000838152600260205260408120611dcb91613cb9565b60005b600083815260026020526040902054811015610697578260036000600260008781526020019081526020016000208481548110611e0757fe5b60009182526020808320909101548352820192909252604001902055600101611dce565b6060600982604051611e3d9190615386565b9081526020016040518091039020805480602002602001604051908101604052809291908181526020016000905b82821015610c7f57838290600052602060002090600502016040518060a00160405290816000820154815260200160018201805480602002602001604051908101604052809291908181526020016000905b82821015611f685760008481526020908190208301805460408051601f6002600019610100600187161502019094169390930492830185900485028101850190915281815292830182828015611f545780601f10611f2957610100808354040283529160200191611f54565b820191906000526020600020905b815481529060010190602001808311611f3757829003601f168201915b505050505081526020019060010190611ebd565b50505050815260200160028201805480602002602001604051908101604052809291908181526020016000905b828210156120405760008481526020908190208301805460408051601f600260001961010060018716150201909416939093049283018590048502810185019091528181529283018282801561202c5780601f106120015761010080835404028352916020019161202c565b820191906000526020600020905b81548152906001019060200180831161200f57829003601f168201915b505050505081526020019060010190611f95565b5050509082525060038201805460408051602060026001851615610100026000190190941693909304601f81018490048402820184019092528181529382019392918301828280156120d35780601f106120a8576101008083540402835291602001916120d3565b820191906000526020600020905b8154815290600101906020018083116120b657829003601f168201915b5050505050815260200160048201548152505081526020019060010190611e6b565b6000546001600160a01b0316331461211f5760405162461bcd60e51b8152600401610599906154ac565b8061212981613458565b156121465760405162461bcd60e51b8152600401610599906154ec565b60065460ff61010082048116911611156121725760405162461bcd60e51b8152600401610599906154fc565b60005b60065460ff610100909104811690821610156121fd5760ff8116600090815260076020526040902054600260001961010060018416150201909116046121f55760ff8116600090815260076020908152604090912084516121d892860190613989565b50506006805460ff8082166001011660ff199091161790556121ff565b600101612175565b505b5050565b6000546001600160a01b031681565b80600c836040516122239190615386565b9081526020016040518091039020600082015181600001908051906020019061224d929190613989565b5060208281015180516122669260018501920190613989565b5060408201518051612282916002840191602090910190613989565b5090505060006122928484613800565b905060008112156122d8576000848152600b60209081526040822080546001810180835591845292829020865191936122d19391019190870190613989565b5050610697565b6000848152600b602052604090208054849190839081106122f557fe5b906000526020600020019080519060200190612312929190613989565b5050505050565b6060600b6000838152602001908152602001600020805480602002602001604051908101604052809291908181526020016000905b82821015610c7f5760008481526020908190208301805460408051601f60026000196101006001871615020190941693909304928301859004850281018501909152818152928301828280156123e55780601f106123ba576101008083540402835291602001916123e5565b820191906000526020600020905b8154815290600101906020018083116123c857829003601f168201915b50505050508152602001906001019061234e565b805160208183018101805160118252928201919093012091525481565b60608161242281612a7e565b61243e5760405162461bcd60e51b81526004016105999061550c565b6000838152600f6020908152604080832080548251818502810185019093528083529193909284015b8282101561255957838290600052602060002090600402016040518060800160405290816000820154815260200160018201548152602001600282018054600181600116156101000203166002900480601f0160208091040260200160405190810160405280929190818152602001828054600181600116156101000203166002900480156125375780601f1061250c57610100808354040283529160200191612537565b820191906000526020600020905b81548152906001019060200180831161251a57829003601f168201915b5050505050815260200160038201548152505081526020019060010190612467565b5050505091505b50919050565b61256e613cd7565b6000828152600a60209081526040918290208251815460026001821615610100026000190190911604601f8101849004909302810160c090810190945260a0810183815290939192849284919084018282801561260c5780601f106125e15761010080835404028352916020019161260c565b820191906000526020600020905b8154815290600101906020018083116125ef57829003601f168201915b50505050508152602001600182018054600181600116156101000203166002900480601f0160208091040260200160405190810160405280929190818152602001828054600181600116156101000203166002900480156126ae5780601f10612683576101008083540402835291602001916126ae565b820191906000526020600020905b81548152906001019060200180831161269157829003601f168201915b5050509183525050600282810180546040805160206001841615610100026000190190931694909404601f810183900483028501830190915280845293810193908301828280156127405780601f1061271557610100808354040283529160200191612740565b820191906000526020600020905b81548152906001019060200180831161272357829003601f168201915b505050918352505060038201805460408051602060026001851615610100026000190190941693909304601f81018490048402820184019092528181529382019392918301828280156127d45780601f106127a9576101008083540402835291602001916127d4565b820191906000526020600020905b8154815290600101906020018083116127b757829003601f168201915b505050918352505060048201805460408051602060026001851615610100026000190190941693909304601f81018490048402820184019092528181529382019392918301828280156128685780601f1061283d57610100808354040283529160200191612868565b820191906000526020600020905b81548152906001019060200180831161284b57829003601f168201915b5050505050815250509050919050565b806020015161288681612a7e565b6128a25760405162461bcd60e51b81526004016105999061550c565b60006128ad836135b6565b905060001981106128d05760405162461bcd60e51b81526004016105999061547c565b602080840180516000908152600e8352604080822080546001818101808455928552938690208951600490920201908155935192840192909255860151805191938793926129249260028501920190613989565b50606082015181600301555050506121fd83610dba565b60608161294781612a7e565b6129635760405162461bcd60e51b81526004016105999061550c565b6000838152600e6020908152604080832080548251818502810185019093528083529193909284015b8282101561255957838290600052602060002090600402016040518060800160405290816000820154815260200160018201548152602001600282018054600181600116156101000203166002900480601f016020809104026020016040519081016040528092919081815260200182805460018160011615610100020316600290048015612a5c5780601f10612a3157610100808354040283529160200191612a5c565b820191906000526020600020905b815481529060010190602001808311612a3f57829003601f168201915b505050505081526020016003820154815250508152602001906001019061298c565b60008181526001602052604081205460ff1680610eff575050600090815260036020526040902054151590565b6000828152600a60209081526040909120825180518493612ad0928492910190613989565b506020828101518051612ae99260018501920190613989565b5060408201518051612b05916002840191602090910190613989565b5060608201518051612b21916003840191602090910190613989565b5060808201518051612312916004840191602090910190613989565b606080600b600084815260200190815260200160002080549050604051908082528060200260200182016040528015612b9057816020015b612b7d613d06565b815260200190600190039081612b755790505b50905060005b6000848152600b6020526040902054811015612dd8576000848152600b602052604090208054600c919083908110612bca57fe5b90600052602060002001604051612be19190615392565b9081526040805160209281900383018120805460026001821615610100026000190190911604601f81018590049094028201608090810190935260608201848152919390928492918491840182828015612c7c5780601f10612c5157610100808354040283529160200191612c7c565b820191906000526020600020905b815481529060010190602001808311612c5f57829003601f168201915b50505050508152602001600182018054600181600116156101000203166002900480601f016020809104026020016040519081016040528092919081815260200182805460018160011615610100020316600290048015612d1e5780601f10612cf357610100808354040283529160200191612d1e565b820191906000526020600020905b815481529060010190602001808311612d0157829003601f168201915b5050509183525050600282810180546040805160206001841615610100026000190190931694909404601f81018390048302850183019091528084529381019390830182828015612db05780601f10612d8557610100808354040283529160200191612db0565b820191906000526020600020905b815481529060010190602001808311612d9357829003601f168201915b505050505081525050828281518110612dc557fe5b6020908102919091010152600101612b96565b5092915050565b612de7613d06565b600c82604051612df79190615386565b9081526040805160209281900383018120805460026001821615610100026000190190911604601f81018590049094028201608090810190935260608201848152919390928492918491840182828015612e925780601f10612e6757610100808354040283529160200191612e92565b820191906000526020600020905b815481529060010190602001808311612e7557829003601f168201915b50505050508152602001600182018054600181600116156101000203166002900480601f016020809104026020016040519081016040528092919081815260200182805460018160011615610100020316600290048015612f345780601f10612f0957610100808354040283529160200191612f34565b820191906000526020600020905b815481529060010190602001808311612f1757829003601f168201915b5050509183525050600282810180546040805160206001841615610100026000190190931694909404601f810183900483028501830190915280845293810193908301828280156128685780601f1061283d57610100808354040283529160200191612868565b612fa3613bd3565b601060008381526020019081526020016000206040518060800160405290816000820154815260200160018201548152602001600282018054600181600116156101000203166002900480601f01602080910402602001604051908101604052809291908181526020018280546001816001161561010002031660029004801561306e5780601f106130435761010080835404028352916020019161306e565b820191906000526020600020905b81548152906001019060200180831161305157829003601f168201915b505050505081526020016003820154815250509050919050565b6000546060906001600160a01b031633146130b55760405162461bcd60e51b8152600401610599906154ac565b600d805480602002602001604051908101604052809291908181526020018280548015611d255760200282019190600052602060002090815481526020019060010190808311611d11575050505050905090565b600082815260016020526040902054829060ff166131395760405162461bcd60e51b81526004016105999061543c565b600082815260036020526040902054156131655760405162461bcd60e51b81526004016105999061542c565b506000828152600260209081526040808320805460018101825590845282842001849055928252600390522055565b8661319e81612a7e565b6131ba5760405162461bcd60e51b81526004016105999061550c565b8451845111156131dc5760405162461bcd60e51b81526004016105999061549c565b60006131e88888613800565b1215613225576000878152600b602090815260408220805460018101808355918452928290208951919361322293910191908a0190613989565b50505b6009866040516132359190615386565b90815260408051918290036020908101832060a0840183528b845283820189815292840188905260608401879052608084018690528054600181810180845560009384529284902086516005909302019182559351805192959491936132a19392850192910190613a53565b50604082015180516132bd916002840191602090910190613a53565b50606082015180516132d9916003840191602090910190613989565b50608082015181600401555050506000196132f388613872565b141561332f57600d80546001810182556000919091527fd7b6990105719101dabeb77144f2a3385c8033acd3af97e9423a695e81ad1eb5018790555b5050505050505050565b600080613345836138ae565b905060005b60065460ff6101009091048116908216101561344e5760ff81166000908152600760205260409020546002600019610100600184161502019091160415801590613438575060ff81166000908152600760209081526040918290208054835160026001831615610100026000190190921691909104601f810184900484028201840190945283815285936134369391929183018282801561342c5780601f106134015761010080835404028352916020019161342c565b820191906000526020600020905b81548152906001019060200180831161340f57829003601f168201915b50505050506138ae565b145b15613446579150610c869050565b60010161334a565b5060ff9392505050565b600654600090610100900460ff1661346f83613339565b60ff161092915050565b6000805b6005548110156134b557826005828154811061349557fe5b906000526020600020015414156134ad579050610c86565b60010161347d565b5060001992915050565b600060ff6134cd84846134d5565b109392505050565b6000805b6008846040516134e99190615386565b9081526040519081900360200190205460ff8216101561344e5761350c836138ae565b61359e60088660405161351f9190615386565b90815260200160405180910390208360ff168154811061353b57fe5b600091825260209182902001805460408051601f600260001961010060018716150201909416939093049283018590048502810185019091528181529283018282801561342c5780601f106134015761010080835404028352916020019161342c565b14156135ae5760ff169050610eff565b6001016134d9565b600081602001516135c681612a7e565b6135e25760405162461bcd60e51b81526004016105999061550c565b60005b6020808501516000908152600f909152604090205481101561364e5761363a84600f600087602001518152602001908152602001600020838154811061362757fe5b90600052602060002090600402016138de565b15613646579150612560565b6001016135e5565b506000199392505050565b8161366381612a7e565b61367f5760405162461bcd60e51b81526004016105999061550c565b600182015b6000848152600f602052604090205481101561373e576000848152600f602052604090208054829081106136b457fe5b9060005260206000209060040201600f600086815260200190815260200160002060018303815481106136e357fe5b906000526020600020906004020160008201548160000155600182015481600101556002820181600201908054600181600116156101000203166002900461372c929190613b1a565b50600391820154910155600101613684565b506000838152600f60205260409020805490610697906000198301613d27565b6000818152601060205260408120546137895760405162461bcd60e51b81526004016105999061546c565b6000828152601060205260408120905b60018201546000908152600f602052604090205481101561364e5783600f60008460010154815260200190815260200160002082815481106137d757fe5b90600052602060002090600402016000015414156137f8579150610c869050565b600101613799565b6000805b6000848152600b60205260409020546001600160801b038216101561364e5761382c836138ae565b6000858152600b60205260409020805461385491906001600160801b03851690811061353b57fe5b141561386a576001600160801b03169050610eff565b600101613804565b6000805b600d548110156134b55782600d828154811061388e57fe5b906000526020600020015414156138a6579050610c86565b600101613876565b6000816040516020016138c19190615386565b604051602081830303815290604052805190602001209050919050565b805482516000911480156138f9575081600101548360200151145b801561396f5750600282810180546040805160206001841615610100026000190190931694909404601f810183900483028501830190915280845261396093929183018282801561342c5780601f106134015761010080835404028352916020019161342c565b61396d84604001516138ae565b145b8015613982575081600301548360600151145b9392505050565b828054600181600116156101000203166002900490600052602060002090601f016020900481019282601f106139ca57805160ff19168380011785556139f7565b828001600101855582156139f7579182015b828111156139f75782518255916020019190600101906139dc565b50613a03929150613d53565b5090565b8260028101928215613a47579160200282015b82811115613a475782518051613a37918491602090910190613989565b5091602001919060010190613a1a565b50613a03929150613d6d565b828054828255906000526020600020908101928215613a47579160200282015b82811115613a475782518051613a90918491602090910190613989565b5091602001919060010190613a73565b828054828255906000526020600020908101928215613aed579160200282015b82811115613aed5782518051613add918491602090910190613a53565b5091602001919060010190613ac0565b50613a03929150613d90565b5080546000825590600052602060002090810190613b179190613d6d565b50565b828054600181600116156101000203166002900490600052602060002090601f016020900481019282601f10613b5357805485556139f7565b828001600101855582156139f757600052602060002091601f016020900482015b828111156139f7578254825591600101919060010190613b74565b50805460018160011615610100020316600290046000825580601f10613bb55750613b17565b601f016020900490600052602060002090810190613b179190613d53565b6040805160808101825260008082526020820181905260609282018390529181019190915290565b60405180611fe0016040528060ff906020820280388339509192915050565b60405180610160016040528060608152602001606081526020016060815260200160608152602001613c4a613db3565b81526020016060815260200160608152602001606081526020016060815260200160608152602001606081525090565b8280548282559060005260206000209081019282156139f7576000526020600020918201828111156139f7578254825591600101919060010190613b74565b5080546000825590600052602060002090810190613b179190613d53565b6040518060a0016040528060608152602001606081526020016060815260200160608152602001606081525090565b60405180606001604052806060815260200160608152602001606081525090565b8154818355818111156121fd576004028160040283600052602060002091820191016121fd9190613dda565b61151f91905b80821115613a035760008155600101613d59565b61151f91905b80821115613a03576000613d878282613b8f565b50600101613d73565b61151f91905b80821115613a03576000613daa8282613af9565b50600101613d96565b60405180604001604052806002905b6060815260200190600190039081613dc25790505090565b61151f91905b80821115613a0357600080825560018201819055613e016002830182613b8f565b5060006003820155600401613de0565b8035610eff81615693565b600082601f830112613e2d57600080fd5b8135613e40613e3b826155a6565b615580565b81815260209384019390925082018360005b83811015613e7e5781358601613e688882613eda565b8452506020928301929190910190600101613e52565b5050505092915050565b600082601f830112613e9957600080fd5b6002613ea7613e3b826155c6565b9150818360005b83811015613e7e5781358601613ec48882613faa565b8452506020928301929190910190600101613eae565b600082601f830112613eeb57600080fd5b8135613ef9613e3b826155a6565b81815260209384019390925082018360005b83811015613e7e5781358601613f218882613faa565b8452506020928301929190910190600101613f0b565b600082601f830112613f4857600080fd5b8135613f56613e3b826155a6565b81815260209384019390925082018360005b83811015613e7e5781358601613f7e8882613faa565b8452506020928301929190910190600101613f68565b8035610eff816156a7565b8051610eff816156a7565b600082601f830112613fbb57600080fd5b8135613fc9613e3b826155e3565b91508082526020830160208301858383011115613fe557600080fd5b613ff0838284615651565b50505092915050565b60006080828403121561400b57600080fd5b6140156080615580565b905060006140238484613f94565b825250602061403484848301613f94565b60208301525060408201356001600160401b0381111561405357600080fd5b61405f84828501613faa565b604083015250606061407384828501613f94565b60608301525092915050565b60006060828403121561409157600080fd5b61409b6060615580565b905081356001600160401b038111156140b357600080fd5b6140bf84828501613faa565b82525060208201356001600160401b038111156140db57600080fd5b6140e784828501613faa565b60208301525060408201356001600160401b0381111561410657600080fd5b61411284828501613faa565b60408301525092915050565b6000610160828403121561413157600080fd5b61413c610160615580565b905081356001600160401b0381111561415457600080fd5b61416084828501613faa565b82525060208201356001600160401b0381111561417c57600080fd5b61418884828501613faa565b60208301525060408201356001600160401b038111156141a757600080fd5b6141b384828501613faa565b60408301525060608201356001600160401b038111156141d257600080fd5b6141de84828501613faa565b60608301525060808201356001600160401b038111156141fd57600080fd5b61420984828501613e88565b60808301525060a08201356001600160401b0381111561422857600080fd5b61423484828501613faa565b60a08301525060c08201356001600160401b0381111561425357600080fd5b61425f84828501613faa565b60c08301525060e08201356001600160401b0381111561427e57600080fd5b61428a84828501613faa565b60e0830152506101008201356001600160401b038111156142aa57600080fd5b6142b684828501613faa565b610100830152506101208201356001600160401b038111156142d757600080fd5b6142e384828501613eda565b610120830152506101408201356001600160401b0381111561430457600080fd5b61431084828501613e1c565b6101408301525092915050565b600060a0828403121561432f57600080fd5b61433960a0615580565b905081356001600160401b0381111561435157600080fd5b61435d84828501613faa565b82525060208201356001600160401b0381111561437957600080fd5b61438584828501613faa565b60208301525060408201356001600160401b038111156143a457600080fd5b6143b084828501613faa565b60408301525060608201356001600160401b038111156143cf57600080fd5b6143db84828501613faa565b60608301525060808201356001600160401b038111156143fa57600080fd5b61440684828501613faa565b60808301525092915050565b60006020828403121561442457600080fd5b60006144308484613e11565b949350505050565b60006020828403121561444a57600080fd5b60006144308484613f94565b60006020828403121561446857600080fd5b60006144308484613f9f565b6000806040838503121561448757600080fd5b60006144938585613f94565b92505060206144a485828601613f94565b9150509250929050565b600080600080600080600060e0888a0312156144c957600080fd5b60006144d58a8a613f94565b97505060206144e68a828b01613f94565b96505060408801356001600160401b0381111561450257600080fd5b61450e8a828b01613faa565b95505060608801356001600160401b0381111561452a57600080fd5b6145368a828b01613f37565b94505060808801356001600160401b0381111561455257600080fd5b61455e8a828b01613f37565b93505060a08801356001600160401b0381111561457a57600080fd5b6145868a828b01613faa565b92505060c06145978a828b01613f94565b91505092959891949750929550565b6000806000606084860312156145bb57600080fd5b60006145c78686613f94565b93505060208401356001600160401b038111156145e357600080fd5b6145ef86828701613faa565b92505060408401356001600160401b0381111561460b57600080fd5b6146178682870161407f565b9150509250925092565b6000806040838503121561463457600080fd5b60006146408585613f94565b92505060208301356001600160401b0381111561465c57600080fd5b6144a48582860161431d565b60006020828403121561467a57600080fd5b81356001600160401b0381111561469057600080fd5b61443084828501613faa565b600080604083850312156146af57600080fd5b82356001600160401b038111156146c557600080fd5b6146d185828601613faa565b92505060208301356001600160401b038111156146ed57600080fd5b6144a485828601613faa565b60008060006060848603121561470e57600080fd5b83356001600160401b0381111561472457600080fd5b61473086828701613faa565b93505060208401356001600160401b0381111561474c57600080fd5b61475886828701613faa565b92505060408401356001600160401b0381111561477457600080fd5b61461786828701613faa565b6000806040838503121561479357600080fd5b82356001600160401b038111156147a957600080fd5b61449385828601613faa565b6000602082840312156147c757600080fd5b81356001600160401b038111156147dd57600080fd5b61443084828501613ff9565b600080604083850312156147fc57600080fd5b82356001600160401b0381111561481257600080fd5b6144938582860161411e565b60006139828383614a06565b60006148368383614bdf565b505060200190565b60006139828383614c17565b600061398283836150bd565b60006139828383615119565b60006139828383615291565b61487781615635565b82525050565b60006148888261561c565b614892818561562c565b9350836020820285016148a48561560a565b8060005b858110156148de57848403895281516148c1858261481e565b94506148cc8361560a565b60209a909a01999250506001016148a8565b5091979650505050505050565b60006148f68261561c565b614900818561562c565b935061490b8361560a565b8060005b83811015614939578151614923888261482a565b975061492e8361560a565b92505060010161490f565b509495945050505050565b600061494f82615620565b6149598185610c86565b93508360208202850161496b8561151f565b8060005b858110156148de5784840389528151614988858261483e565b94506149938361560a565b60209a909a019992505060010161496f565b60006149b08261561c565b6149ba818561562c565b9350836020820285016149cc8561560a565b8060005b858110156148de57848403895281516149e9858261483e565b94506149f48361560a565b60209a909a01999250506001016149d0565b6000614a118261561c565b614a1b818561562c565b935083602082028501614a2d8561560a565b8060005b858110156148de5784840389528151614a4a858261483e565b9450614a558361560a565b60209a909a0199925050600101614a31565b6000614a728261561c565b614a7c818561562c565b935083602082028501614a8e8561560a565b8060005b858110156148de5784840389528151614aab858261484a565b9450614ab68361560a565b60209a909a0199925050600101614a92565b6000614ad38261561c565b614add818561562c565b935083602082028501614aef8561560a565b8060005b858110156148de5784840389528151614b0c8582614856565b9450614b178361560a565b60209a909a0199925050600101614af3565b6000614b348261561c565b614b3e818561562c565b935083602082028501614b508561560a565b8060005b858110156148de5784840389528151614b6d8582614862565b9450614b788361560a565b60209a909a0199925050600101614b54565b614b9381615626565b614b9d8184610c86565b9250614ba88261151f565b8060005b83811015610b8c578151614bc0878261482a565b9650614bcb8361560a565b925050600101614bac565b61487781615640565b6148778161151f565b6000614bf38261561c565b614bfd8185610c86565b9350614c0d81856020860161565d565b9290920192915050565b6000614c228261561c565b614c2c818561562c565b9350614c3c81856020860161565d565b614c4581615689565b9093019392505050565b600081546001811660008114614c6c5760018114614c8f57614cce565b607f6002830416614c7d8187610c86565b60ff1984168152955085019250614cce565b60028204614c9d8187610c86565b9550614ca885615610565b60005b82811015614cc757815488820152600190910190602001614cab565b5050850192505b505092915050565b6000614ce360218361562c565b7f5468617420656d706c6f79656520616c726561647920776f726b7320746865728152606560f81b602082015260400192915050565b6000614d2660298361562c565b7f596f75206d7573742062652061206465616c657273686970206f776e657220748152686f20646f207468697360b81b602082015260400192915050565b6000614d71601e8361562c565b7f54686174207375627365727669636520616c7265616479206578697374730000815260200192915050565b6000614daa60218361562c565b7f4e6f206170706c69636174696f6e2065786973747320666f72207468617420698152601960fa1b602082015260400192915050565b6000614ded60218361562c565b7f5573657220646f6573206e6f74206861766520616e206170706f696e746d656e8152601d60fa1b602082015260400192915050565b6000614e30601f8361562c565b7f54686174206170706f696e746d656e7420646f6573206e6f7420657869737400815260200192915050565b6000614e6960218361562c565b7f4d6178696d756d207375627365727669636520616d6f756e74207265616368658152601960fa1b602082015260400192915050565b6000614eac60338361562c565b7f4e756d626572206f6620737562736572766963657320646f6573206e6f74206d8152720c2e8c6d040e6cae4ecd2c6ca40d8cadccee8d606b1b602082015260400192915050565b6000614f0160158361562c565b742cb7ba9030b932903737ba103a34329037bbb732b960591b815260200192915050565b6000614f32602c8361562c565b7f54686174207375627365727669636520646f65736e7420657869737420696e2081526b1d1a1a5cc818dbdb9d195e1d60a21b602082015260400192915050565b6000614f80601b8361562c565b7f54686174207365727669636520646f6573206e6f742065786973740000000000815260200192915050565b6000614fb960228361562c565b7f54686174206164647265737320697320616c7265616479207265676973746572815261195960f21b602082015260400192915050565b6000614ffd601b8361562c565b7f54686174207365727669636520616c7265616479206578697374730000000000815260200192915050565b600061503660288361562c565b7f54686572652061726520746865206d6178696d756d206e756d626572206f6620815267736572766963657360c01b602082015260400192915050565b600061508060288361562c565b7f596f75206d7573742062652061207665726966696564206465616c657220746f81526720646f207468697360c01b602082015260400192915050565b805160009060808401906150d18582614bdf565b5060208301516150e46020860182614bdf565b50604083015184820360408601526150fc8282614c17565b91505060608301516151116060860182614bdf565b509392505050565b80516060808452600091908401906151318282614c17565b9150506020830151848203602086015261514b8282614c17565b915050604083015184820360408601526151658282614c17565b95945050505050565b8051610160808452600091908401906151878282614c17565b915050602083015184820360208601526151a18282614c17565b915050604083015184820360408601526151bb8282614c17565b915050606083015184820360608601526151d58282614c17565b915050608083015184820360808601526151ef8282614944565b91505060a083015184820360a08601526152098282614c17565b91505060c083015184820360c08601526152238282614c17565b91505060e083015184820360e086015261523d8282614c17565b9150506101008301518482036101008601526152598282614c17565b9150506101208301518482036101208601526152758282614a06565b915050610140830151848203610140860152615165828261487d565b805160009060a08401906152a58582614bdf565b50602083015184820360208601526152bd8282614a06565b915050604083015184820360408601526152d78282614a06565b915050606083015184820360608601526152f18282614c17565b91505060808301516151116080860182614bdf565b805160a08084526000919084019061531e8282614c17565b915050602083015184820360208601526153388282614c17565b915050604083015184820360408601526153528282614c17565b9150506060830151848203606086015261536c8282614c17565b915050608083015184820360808601526151658282614c17565b60006139828284614be8565b60006139828284614c4f565b60208101610eff828461486e565b6020808252810161398281846148eb565b6020808252810161398281846149a5565b602080825281016139828184614a67565b602080825281016139828184614ac8565b602080825281016139828184614b29565b611fe08101610eff8284614b8a565b60208101610eff8284614bd6565b60208101610eff8284614bdf565b60208082528101610eff81614cd6565b60208082528101610eff81614d19565b60208082528101610eff81614d64565b60208082528101610eff81614d9d565b60208082528101610eff81614de0565b60208082528101610eff81614e23565b60208082528101610eff81614e5c565b60208082528101610eff81614e9f565b60208082528101610eff81614ef4565b60208082528101610eff81614f25565b60208082528101610eff81614f73565b60208082528101610eff81614fac565b60208082528101610eff81614ff0565b60208082528101610eff81615029565b60208082528101610eff81615073565b6020808252810161398281846150bd565b602080825281016139828184615119565b60208082528101613982818461516e565b60408082528101615560818561516e565b90506139826020830184614bdf565b602080825281016139828184615306565b6040518181016001600160401b038111828210171561559e57600080fd5b604052919050565b60006001600160401b038211156155bc57600080fd5b5060209081020190565b60006001600160401b038211156155dc57600080fd5b5060200290565b60006001600160401b038211156155f957600080fd5b506020601f91909101601f19160190565b60200190565b60009081526020902090565b5190565b50600290565b5060ff90565b90815260200190565b6000610eff82615645565b151590565b6001600160a01b031690565b82818337506000910152565b60005b83811015615678578181015183820152602001615660565b838111156106975750506000910152565b601f01601f191690565b61569c81615635565b8114613b1757600080fd5b61569c8161151f56fea365627a7a72315820959281e7801c219840a1d70685685caf467887c4e426933ab7bb1b85325f9d2e6c6578706572696d656e74616cf564736f6c634300050c0040",
  "source": "pragma solidity ^0.5.11;\npragma experimental ABIEncoderV2;\n\nimport \"./AppointmentHandler.sol\";\n\ncontract NotificationHandler is AppointmentHandler {\n\n    mapping(string => uint) public notificationTimes;\n    mapping(bytes32 => uint[255]) private userNotificationTime;\n\n    function insertRecord(bytes32 dealerId, bytes32 id, string memory noPlate,\n     string[] memory services, string[] memory subservices, string memory comment, uint timeStamp)\n        public verified(dealerId) {\n        super.insertRecord(dealerId,id,noPlate,services,subservices,comment,timeStamp);\n        for(uint i = 0; i < services.length; i++){\n            uint8 serviceIndex = getIndexOfService(services[i]);\n            userNotificationTime[id][serviceIndex] = timeStamp;\n        }\n    }\n\n    function getLastServiceTimes(bytes32 userId) public view returns(uint[255] memory) {\n        return userNotificationTime[userId];\n    }\n\n    function setServiceNotificationTime(string memory serviceName, uint time) public ownerOnly {\n        notificationTimes[serviceName] = time;\n    }\n}",
  "sourcePath": "/home/brandon/Documents/_Important/Uni/Blockchain/Final project/contracts/NotificationHandler.sol",
  "compiler": {
    "name": "solc",
    "version": "0.5.12+commit.7709ece9.Emscripten.clang"
  },
  "schemaVersion": "3.0.19",
  "updatedAt": "2019-11-29T18:26:35.786Z",
  "networkType": "ethereum",
  "devdoc": {
    "methods": {}
  },
  "userdoc": {
    "methods": {}
  }
}