{
  "contractName": "NotificationHandler",
  "abi": [
    {
      "anonymous": false,
      "inputs": [
        {
          "components": [
            {
              "internalType": "string",
              "name": "dealerName",
              "type": "string"
            },
            {
              "internalType": "string",
              "name": "firstName",
              "type": "string"
            },
            {
              "internalType": "string",
              "name": "lastName",
              "type": "string"
            },
            {
              "internalType": "string",
              "name": "addr",
              "type": "string"
            },
            {
              "internalType": "string[2]",
              "name": "location",
              "type": "string[2]"
            },
            {
              "internalType": "string",
              "name": "phoneNo",
              "type": "string"
            },
            {
              "internalType": "string",
              "name": "bestSeller",
              "type": "string"
            },
            {
              "internalType": "string",
              "name": "promotion",
              "type": "string"
            },
            {
              "internalType": "string",
              "name": "otherServices",
              "type": "string"
            },
            {
              "internalType": "string[]",
              "name": "availableServices",
              "type": "string[]"
            },
            {
              "internalType": "string[][]",
              "name": "availableSubServices",
              "type": "string[][]"
            }
          ],
          "indexed": false,
          "internalType": "struct DealerContract.DealerInfo",
          "name": "info",
          "type": "tuple"
        },
        {
          "indexed": false,
          "internalType": "bytes32",
          "name": "id",
          "type": "bytes32"
        }
      ],
      "name": "CreateDealerApplication",
      "type": "event"
    },
    {
      "constant": false,
      "inputs": [
        {
          "internalType": "bytes32",
          "name": "dealerId",
          "type": "bytes32"
        },
        {
          "internalType": "bytes32",
          "name": "adr",
          "type": "bytes32"
        }
      ],
      "name": "addDealerEmployee",
      "outputs": [],
      "payable": false,
      "stateMutability": "nonpayable",
      "type": "function"
    },
    {
      "constant": false,
      "inputs": [
        {
          "internalType": "string",
          "name": "serviceName",
          "type": "string"
        }
      ],
      "name": "addService",
      "outputs": [],
      "payable": false,
      "stateMutability": "nonpayable",
      "type": "function"
    },
    {
      "constant": false,
      "inputs": [
        {
          "internalType": "string",
          "name": "serviceName",
          "type": "string"
        },
        {
          "internalType": "string",
          "name": "subServiceName",
          "type": "string"
        }
      ],
      "name": "addSubService",
      "outputs": [],
      "payable": false,
      "stateMutability": "nonpayable",
      "type": "function"
    },
    {
      "constant": false,
      "inputs": [
        {
          "internalType": "bytes32",
          "name": "adr",
          "type": "bytes32"
        }
      ],
      "name": "approveApplication",
      "outputs": [],
      "payable": false,
      "stateMutability": "nonpayable",
      "type": "function"
    },
    {
      "constant": false,
      "inputs": [
        {
          "components": [
            {
              "internalType": "bytes32",
              "name": "userId",
              "type": "bytes32"
            },
            {
              "internalType": "bytes32",
              "name": "dealerId",
              "type": "bytes32"
            },
            {
              "internalType": "string",
              "name": "carPlate",
              "type": "string"
            },
            {
              "internalType": "int256",
              "name": "time",
              "type": "int256"
            }
          ],
          "internalType": "struct AppointmentHandler.Appointment",
          "name": "appointment",
          "type": "tuple"
        }
      ],
      "name": "cancelAppointment",
      "outputs": [],
      "payable": false,
      "stateMutability": "nonpayable",
      "type": "function"
    },
    {
      "constant": false,
      "inputs": [
        {
          "components": [
            {
              "internalType": "bytes32",
              "name": "userId",
              "type": "bytes32"
            },
            {
              "internalType": "bytes32",
              "name": "dealerId",
              "type": "bytes32"
            },
            {
              "internalType": "string",
              "name": "carPlate",
              "type": "string"
            },
            {
              "internalType": "int256",
              "name": "time",
              "type": "int256"
            }
          ],
          "internalType": "struct AppointmentHandler.Appointment",
          "name": "appointment",
          "type": "tuple"
        }
      ],
      "name": "completeAppointment",
      "outputs": [],
      "payable": false,
      "stateMutability": "nonpayable",
      "type": "function"
    },
    {
      "constant": false,
      "inputs": [
        {
          "components": [
            {
              "internalType": "bytes32",
              "name": "userId",
              "type": "bytes32"
            },
            {
              "internalType": "bytes32",
              "name": "dealerId",
              "type": "bytes32"
            },
            {
              "internalType": "string",
              "name": "carPlate",
              "type": "string"
            },
            {
              "internalType": "int256",
              "name": "time",
              "type": "int256"
            }
          ],
          "internalType": "struct AppointmentHandler.Appointment",
          "name": "appointment",
          "type": "tuple"
        }
      ],
      "name": "createAppointment",
      "outputs": [],
      "payable": false,
      "stateMutability": "nonpayable",
      "type": "function"
    },
    {
      "constant": false,
      "inputs": [
        {
          "components": [
            {
              "internalType": "string",
              "name": "dealerName",
              "type": "string"
            },
            {
              "internalType": "string",
              "name": "firstName",
              "type": "string"
            },
            {
              "internalType": "string",
              "name": "lastName",
              "type": "string"
            },
            {
              "internalType": "string",
              "name": "addr",
              "type": "string"
            },
            {
              "internalType": "string[2]",
              "name": "location",
              "type": "string[2]"
            },
            {
              "internalType": "string",
              "name": "phoneNo",
              "type": "string"
            },
            {
              "internalType": "string",
              "name": "bestSeller",
              "type": "string"
            },
            {
              "internalType": "string",
              "name": "promotion",
              "type": "string"
            },
            {
              "internalType": "string",
              "name": "otherServices",
              "type": "string"
            },
            {
              "internalType": "string[]",
              "name": "availableServices",
              "type": "string[]"
            },
            {
              "internalType": "string[][]",
              "name": "availableSubServices",
              "type": "string[][]"
            }
          ],
          "internalType": "struct DealerContract.DealerInfo",
          "name": "info",
          "type": "tuple"
        },
        {
          "internalType": "bytes32",
          "name": "id",
          "type": "bytes32"
        }
      ],
      "name": "createDealerApplication",
      "outputs": [],
      "payable": false,
      "stateMutability": "nonpayable",
      "type": "function"
    },
    {
      "constant": false,
      "inputs": [
        {
          "internalType": "string",
          "name": "serviceName",
          "type": "string"
        }
      ],
      "name": "deleteService",
      "outputs": [],
      "payable": false,
      "stateMutability": "nonpayable",
      "type": "function"
    },
    {
      "constant": false,
      "inputs": [
        {
          "internalType": "string",
          "name": "serviceName",
          "type": "string"
        },
        {
          "internalType": "string",
          "name": "subServiceName",
          "type": "string"
        }
      ],
      "name": "deleteSubService",
      "outputs": [],
      "payable": false,
      "stateMutability": "nonpayable",
      "type": "function"
    },
    {
      "constant": false,
      "inputs": [
        {
          "internalType": "bytes32",
          "name": "userId",
          "type": "bytes32"
        },
        {
          "internalType": "string",
          "name": "noPlate",
          "type": "string"
        },
        {
          "components": [
            {
              "internalType": "string",
              "name": "brand",
              "type": "string"
            },
            {
              "internalType": "string",
              "name": "model",
              "type": "string"
            },
            {
              "internalType": "string",
              "name": "year",
              "type": "string"
            }
          ],
          "internalType": "struct UserContract.CarInfo",
          "name": "carInfo",
          "type": "tuple"
        }
      ],
      "name": "editCarDetails",
      "outputs": [],
      "payable": false,
      "stateMutability": "nonpayable",
      "type": "function"
    },
    {
      "constant": false,
      "inputs": [
        {
          "components": [
            {
              "internalType": "string",
              "name": "dealerName",
              "type": "string"
            },
            {
              "internalType": "string",
              "name": "firstName",
              "type": "string"
            },
            {
              "internalType": "string",
              "name": "lastName",
              "type": "string"
            },
            {
              "internalType": "string",
              "name": "addr",
              "type": "string"
            },
            {
              "internalType": "string[2]",
              "name": "location",
              "type": "string[2]"
            },
            {
              "internalType": "string",
              "name": "phoneNo",
              "type": "string"
            },
            {
              "internalType": "string",
              "name": "bestSeller",
              "type": "string"
            },
            {
              "internalType": "string",
              "name": "promotion",
              "type": "string"
            },
            {
              "internalType": "string",
              "name": "otherServices",
              "type": "string"
            },
            {
              "internalType": "string[]",
              "name": "availableServices",
              "type": "string[]"
            },
            {
              "internalType": "string[][]",
              "name": "availableSubServices",
              "type": "string[][]"
            }
          ],
          "internalType": "struct DealerContract.DealerInfo",
          "name": "info",
          "type": "tuple"
        },
        {
          "internalType": "bytes32",
          "name": "id",
          "type": "bytes32"
        }
      ],
      "name": "editDealerInfo",
      "outputs": [],
      "payable": false,
      "stateMutability": "nonpayable",
      "type": "function"
    },
    {
      "constant": false,
      "inputs": [
        {
          "internalType": "string",
          "name": "oldName",
          "type": "string"
        },
        {
          "internalType": "string",
          "name": "newName",
          "type": "string"
        }
      ],
      "name": "editServiceName",
      "outputs": [],
      "payable": false,
      "stateMutability": "nonpayable",
      "type": "function"
    },
    {
      "constant": false,
      "inputs": [
        {
          "internalType": "string",
          "name": "serviceName",
          "type": "string"
        },
        {
          "internalType": "string",
          "name": "oldName",
          "type": "string"
        },
        {
          "internalType": "string",
          "name": "newName",
          "type": "string"
        }
      ],
      "name": "editSubServiceName",
      "outputs": [],
      "payable": false,
      "stateMutability": "nonpayable",
      "type": "function"
    },
    {
      "constant": false,
      "inputs": [
        {
          "internalType": "bytes32",
          "name": "userId",
          "type": "bytes32"
        },
        {
          "components": [
            {
              "internalType": "string",
              "name": "firstName",
              "type": "string"
            },
            {
              "internalType": "string",
              "name": "lastName",
              "type": "string"
            },
            {
              "internalType": "string",
              "name": "adr",
              "type": "string"
            },
            {
              "internalType": "string",
              "name": "phNo",
              "type": "string"
            },
            {
              "internalType": "string",
              "name": "email",
              "type": "string"
            }
          ],
          "internalType": "struct UserContract.UserInfo",
          "name": "info",
          "type": "tuple"
        }
      ],
      "name": "editUserInfo",
      "outputs": [],
      "payable": false,
      "stateMutability": "nonpayable",
      "type": "function"
    },
    {
      "constant": true,
      "inputs": [],
      "name": "getAllDealerApplications",
      "outputs": [
        {
          "internalType": "bytes32[]",
          "name": "",
          "type": "bytes32[]"
        }
      ],
      "payable": false,
      "stateMutability": "view",
      "type": "function"
    },
    {
      "constant": true,
      "inputs": [
        {
          "internalType": "bytes32",
          "name": "dealerId",
          "type": "bytes32"
        }
      ],
      "name": "getAppointmentHistory",
      "outputs": [
        {
          "components": [
            {
              "internalType": "bytes32",
              "name": "userId",
              "type": "bytes32"
            },
            {
              "internalType": "bytes32",
              "name": "dealerId",
              "type": "bytes32"
            },
            {
              "internalType": "string",
              "name": "carPlate",
              "type": "string"
            },
            {
              "internalType": "int256",
              "name": "time",
              "type": "int256"
            }
          ],
          "internalType": "struct AppointmentHandler.Appointment[]",
          "name": "",
          "type": "tuple[]"
        }
      ],
      "payable": false,
      "stateMutability": "view",
      "type": "function"
    },
    {
      "constant": true,
      "inputs": [
        {
          "internalType": "string",
          "name": "noPlate",
          "type": "string"
        }
      ],
      "name": "getCarDetails",
      "outputs": [
        {
          "components": [
            {
              "internalType": "string",
              "name": "brand",
              "type": "string"
            },
            {
              "internalType": "string",
              "name": "model",
              "type": "string"
            },
            {
              "internalType": "string",
              "name": "year",
              "type": "string"
            }
          ],
          "internalType": "struct UserContract.CarInfo",
          "name": "",
          "type": "tuple"
        }
      ],
      "payable": false,
      "stateMutability": "view",
      "type": "function"
    },
    {
      "constant": true,
      "inputs": [
        {
          "internalType": "bytes32",
          "name": "userId",
          "type": "bytes32"
        }
      ],
      "name": "getCarPlates",
      "outputs": [
        {
          "internalType": "string[]",
          "name": "",
          "type": "string[]"
        }
      ],
      "payable": false,
      "stateMutability": "view",
      "type": "function"
    },
    {
      "constant": true,
      "inputs": [
        {
          "internalType": "bytes32",
          "name": "userId",
          "type": "bytes32"
        }
      ],
      "name": "getCars",
      "outputs": [
        {
          "components": [
            {
              "internalType": "string",
              "name": "brand",
              "type": "string"
            },
            {
              "internalType": "string",
              "name": "model",
              "type": "string"
            },
            {
              "internalType": "string",
              "name": "year",
              "type": "string"
            }
          ],
          "internalType": "struct UserContract.CarInfo[]",
          "name": "",
          "type": "tuple[]"
        }
      ],
      "payable": false,
      "stateMutability": "view",
      "type": "function"
    },
    {
      "constant": true,
      "inputs": [
        {
          "internalType": "bytes32",
          "name": "id",
          "type": "bytes32"
        }
      ],
      "name": "getDealerInfo",
      "outputs": [
        {
          "components": [
            {
              "internalType": "string",
              "name": "dealerName",
              "type": "string"
            },
            {
              "internalType": "string",
              "name": "firstName",
              "type": "string"
            },
            {
              "internalType": "string",
              "name": "lastName",
              "type": "string"
            },
            {
              "internalType": "string",
              "name": "addr",
              "type": "string"
            },
            {
              "internalType": "string[2]",
              "name": "location",
              "type": "string[2]"
            },
            {
              "internalType": "string",
              "name": "phoneNo",
              "type": "string"
            },
            {
              "internalType": "string",
              "name": "bestSeller",
              "type": "string"
            },
            {
              "internalType": "string",
              "name": "promotion",
              "type": "string"
            },
            {
              "internalType": "string",
              "name": "otherServices",
              "type": "string"
            },
            {
              "internalType": "string[]",
              "name": "availableServices",
              "type": "string[]"
            },
            {
              "internalType": "string[][]",
              "name": "availableSubServices",
              "type": "string[][]"
            }
          ],
          "internalType": "struct DealerContract.DealerInfo",
          "name": "",
          "type": "tuple"
        }
      ],
      "payable": false,
      "stateMutability": "view",
      "type": "function"
    },
    {
      "constant": true,
      "inputs": [
        {
          "internalType": "string",
          "name": "id",
          "type": "string"
        }
      ],
      "name": "getHash",
      "outputs": [
        {
          "internalType": "bytes32",
          "name": "",
          "type": "bytes32"
        }
      ],
      "payable": false,
      "stateMutability": "pure",
      "type": "function"
    },
    {
      "constant": true,
      "inputs": [
        {
          "internalType": "bytes32",
          "name": "dealerId",
          "type": "bytes32"
        }
      ],
      "name": "getPendingAppointments",
      "outputs": [
        {
          "components": [
            {
              "internalType": "bytes32",
              "name": "userId",
              "type": "bytes32"
            },
            {
              "internalType": "bytes32",
              "name": "dealerId",
              "type": "bytes32"
            },
            {
              "internalType": "string",
              "name": "carPlate",
              "type": "string"
            },
            {
              "internalType": "int256",
              "name": "time",
              "type": "int256"
            }
          ],
          "internalType": "struct AppointmentHandler.Appointment[]",
          "name": "",
          "type": "tuple[]"
        }
      ],
      "payable": false,
      "stateMutability": "view",
      "type": "function"
    },
    {
      "constant": true,
      "inputs": [
        {
          "internalType": "string",
          "name": "noPlate",
          "type": "string"
        }
      ],
      "name": "getRecords",
      "outputs": [
        {
          "components": [
            {
              "internalType": "bytes32",
              "name": "dealerId",
              "type": "bytes32"
            },
            {
              "internalType": "string[]",
              "name": "services",
              "type": "string[]"
            },
            {
              "internalType": "string[]",
              "name": "subservices",
              "type": "string[]"
            },
            {
              "internalType": "string",
              "name": "comment",
              "type": "string"
            },
            {
              "internalType": "uint256",
              "name": "timeStamp",
              "type": "uint256"
            }
          ],
          "internalType": "struct UserContract.RecordInternal[]",
          "name": "",
          "type": "tuple[]"
        }
      ],
      "payable": false,
      "stateMutability": "view",
      "type": "function"
    },
    {
      "constant": true,
      "inputs": [],
      "name": "getServices",
      "outputs": [
        {
          "internalType": "string[]",
          "name": "",
          "type": "string[]"
        }
      ],
      "payable": false,
      "stateMutability": "view",
      "type": "function"
    },
    {
      "constant": true,
      "inputs": [
        {
          "internalType": "string",
          "name": "serviceName",
          "type": "string"
        }
      ],
      "name": "getSubServices",
      "outputs": [
        {
          "internalType": "string[]",
          "name": "",
          "type": "string[]"
        }
      ],
      "payable": false,
      "stateMutability": "view",
      "type": "function"
    },
    {
      "constant": true,
      "inputs": [
        {
          "internalType": "bytes32",
          "name": "userId",
          "type": "bytes32"
        }
      ],
      "name": "getUserAppointment",
      "outputs": [
        {
          "components": [
            {
              "internalType": "bytes32",
              "name": "userId",
              "type": "bytes32"
            },
            {
              "internalType": "bytes32",
              "name": "dealerId",
              "type": "bytes32"
            },
            {
              "internalType": "string",
              "name": "carPlate",
              "type": "string"
            },
            {
              "internalType": "int256",
              "name": "time",
              "type": "int256"
            }
          ],
          "internalType": "struct AppointmentHandler.Appointment",
          "name": "",
          "type": "tuple"
        }
      ],
      "payable": false,
      "stateMutability": "view",
      "type": "function"
    },
    {
      "constant": true,
      "inputs": [
        {
          "internalType": "bytes32",
          "name": "userId",
          "type": "bytes32"
        }
      ],
      "name": "getUserInfo",
      "outputs": [
        {
          "components": [
            {
              "internalType": "string",
              "name": "firstName",
              "type": "string"
            },
            {
              "internalType": "string",
              "name": "lastName",
              "type": "string"
            },
            {
              "internalType": "string",
              "name": "adr",
              "type": "string"
            },
            {
              "internalType": "string",
              "name": "phNo",
              "type": "string"
            },
            {
              "internalType": "string",
              "name": "email",
              "type": "string"
            }
          ],
          "internalType": "struct UserContract.UserInfo",
          "name": "",
          "type": "tuple"
        }
      ],
      "payable": false,
      "stateMutability": "view",
      "type": "function"
    },
    {
      "constant": true,
      "inputs": [
        {
          "internalType": "bytes32",
          "name": "adr",
          "type": "bytes32"
        }
      ],
      "name": "isVerified",
      "outputs": [
        {
          "internalType": "bool",
          "name": "",
          "type": "bool"
        }
      ],
      "payable": false,
      "stateMutability": "view",
      "type": "function"
    },
    {
      "constant": true,
      "inputs": [
        {
          "internalType": "string",
          "name": "",
          "type": "string"
        }
      ],
      "name": "notificationTimes",
      "outputs": [
        {
          "internalType": "uint256",
          "name": "",
          "type": "uint256"
        }
      ],
      "payable": false,
      "stateMutability": "view",
      "type": "function"
    },
    {
      "constant": true,
      "inputs": [],
      "name": "owner",
      "outputs": [
        {
          "internalType": "address",
          "name": "",
          "type": "address"
        }
      ],
      "payable": false,
      "stateMutability": "view",
      "type": "function"
    },
    {
      "constant": false,
      "inputs": [
        {
          "internalType": "bytes32",
          "name": "dealershipId",
          "type": "bytes32"
        },
        {
          "internalType": "bytes32",
          "name": "otherId",
          "type": "bytes32"
        }
      ],
      "name": "transferDealershipOwner",
      "outputs": [],
      "payable": false,
      "stateMutability": "nonpayable",
      "type": "function"
    },
    {
      "constant": false,
      "inputs": [
        {
          "internalType": "address",
          "name": "newOwner",
          "type": "address"
        }
      ],
      "name": "transferOwner",
      "outputs": [],
      "payable": false,
      "stateMutability": "nonpayable",
      "type": "function"
    },
    {
      "constant": false,
      "inputs": [
        {
          "internalType": "bytes32",
          "name": "dealerId",
          "type": "bytes32"
        },
        {
          "internalType": "bytes32",
          "name": "id",
          "type": "bytes32"
        },
        {
          "internalType": "string",
          "name": "noPlate",
          "type": "string"
        },
        {
          "internalType": "string[]",
          "name": "services",
          "type": "string[]"
        },
        {
          "internalType": "string[]",
          "name": "subservices",
          "type": "string[]"
        },
        {
          "internalType": "string",
          "name": "comment",
          "type": "string"
        },
        {
          "internalType": "uint256",
          "name": "timeStamp",
          "type": "uint256"
        }
      ],
      "name": "insertRecord",
      "outputs": [],
      "payable": false,
      "stateMutability": "nonpayable",
      "type": "function"
    },
    {
      "constant": false,
      "inputs": [
        {
          "internalType": "string",
          "name": "serviceName",
          "type": "string"
        },
        {
          "internalType": "uint256",
          "name": "time",
          "type": "uint256"
        }
      ],
      "name": "setServiceNotificationTime",
      "outputs": [],
      "payable": false,
      "stateMutability": "nonpayable",
      "type": "function"
    }
  ],
  "bytecode": "0x60806040526006805461fe0061ff0019909116179055600080546001600160a01b0319163317905561541c806100366000396000f3fe608060405234801561001057600080fd5b50600436106102115760003560e01c80637e41667f11610125578063adff8b0f116100ad578063c4e91d171161007c578063c4e91d17146104af578063c9b54a58146104c2578063d872acac146104e2578063ddb5f47614610502578063e445268c1461052257610211565b8063adff8b0f14610449578063b2c9ae6014610469578063b63e01d21461047c578063c181b2731461048f57610211565b80638da5cb5b116100f45780638da5cb5b146103db5780638ee24214146103f05780638f2b51441461040357806399ec14f814610416578063a44e4c701461042957610211565b80637e41667f1461038057806382d7afbd1461039557806386e80b71146103a857806388fcd194146103c857610211565b80634fb2e45d116101a857806360e9480b1161017757806360e9480b1461031f5780636fd7d2b514610332578063752326c11461034557806375417851146103585780637d17f13c1461036057610211565b80634fb2e45d146102c657806350fb95e3146102d95780635a82610c146102ec5780635b6beeb9146102ff57610211565b80631b8f47fe116101e45780631b8f47fe1461026457806335f5dbd414610277578063369bfce41461028a578063431a65fc1461029d57610211565b80630ad5be91146102165780630eb7bc8f1461022b5780631118127a1461023e5780631a4c85be14610251575b600080fd5b610229610224366004614238565b610535565b005b610229610239366004614426565b6105df565b61022961024c366004614573565b61066a565b61022961025f3660046143f2565b610858565b6102296102723660046141c2565b610909565b61022961028536600461450a565b61099a565b610229610298366004614426565b6109e9565b6102b06102ab3660046143f2565b610a83565b6040516102bd91906150fb565b60405180910390f35b6102296102d436600461419c565b610b7a565b6102296102e7366004614426565b610bc6565b6102296102fa36600461453f565b610ca9565b61031261030d3660046143f2565b610d7f565b6040516102bd919061514d565b61022961032d36600461453f565b610df4565b610229610340366004614483565b61106a565b610229610353366004614573565b611114565b6102b061127b565b61037361036e3660046141c2565b6113d0565b6040516102bd919061526d565b610388611b5a565b6040516102bd91906150ea565b6102296103a33660046141fe565b611bdd565b6103bb6103b63660046143f2565b611cd9565b6040516102bd919061512e565b6102296103d63660046143f2565b611fa3565b6103e36120b1565b6040516102bd91906150dc565b6102296103fe366004614330565b6120c0565b6102b06104113660046141c2565b6121c7565b6103126104243660046143f2565b6122a7565b61043c6104373660046141c2565b6122c4565b6040516102bd919061510c565b61045c6104573660046141c2565b612414565b6040516102bd919061529e565b61022961047736600461453f565b612726565b61043c61048a3660046141c2565b6127e9565b6104a261049d3660046141c2565b61292c565b6040516102bd919061513f565b6102296104bd3660046143ab565b612959565b6104d56104d03660046141c2565b6129eb565b6040516102bd919061511d565b6104f56104f03660046143f2565b612c8d565b6040516102bd919061525c565b6105156105103660046141c2565b612e49565b6040516102bd919061524b565b6102296105303660046141fe565b612f36565b8661053f8161292c565b6105645760405162461bcd60e51b815260040161055b9061523b565b60405180910390fd5b61057388888888888888612fc1565b60005b85518110156105d457600061059d87838151811061059057fe5b602002602001015161311e565b60008a81526011602052604090208054919250859160ff84169081106105bf57fe5b60009182526020909120015550600101610576565b505050505050505050565b6000546001600160a01b031633146106095760405162461bcd60e51b815260040161055b906151db565b816106138161323d565b61062f5760405162461bcd60e51b815260040161055b906151fb565b816007600061063d8661311e565b60ff1660ff1681526020019081526020016000209080519060200190610664929190613732565b50505050565b60008181526001602052604090205460ff16156106995760405162461bcd60e51b815260040161055b9061520b565b60008181526004602090815260409091208351805185936106be928492910190613732565b5060208281015180516106d79260018501920190613732565b50604082015180516106f3916002840191602090910190613732565b506060820151805161070f916003840191602090910190613732565b50608082015161072590600483019060026137b0565b5060a08201518051610741916006840191602090910190613732565b5060c0820151805161075d916007840191602090910190613732565b5060e08201518051610779916008840191602090910190613732565b506101008201518051610796916009840191602090910190613732565b5061012082015180516107b391600a8401916020909101906137fc565b5061014082015180516107d091600b840191602090910190613849565b5090505060006107df8261325e565b121561081b57600580546001810182556000919091527f036b6384b5eca791c62761152d0c79bb0604c104a5fb6f4eb0703f3154bb3db0018190555b7fbcb28ce223d1d07df7ff015302f0aee0306ad6362ede3db7aa3c6d40a651f008828260405161084c92919061527e565b60405180910390a15050565b6000546001600160a01b031633146108825760405162461bcd60e51b815260040161055b906151db565b8061088c8161323d565b6108a85760405162461bcd60e51b815260040161055b906151fb565b60405180602001604052806000815250600760006108c58561311e565b60ff1660ff16815260200190815260200160002090805190602001906108ec929190613732565b50506006805460ff19811660ff9182166000190190911617905550565b6000546001600160a01b031633146109335760405162461bcd60e51b815260040161055b906151db565b600061093e8261325e565b905060008112156109615760405162461bcd60e51b815260040161055b9061518b565b6000828152600160208190526040909120805460ff19169091179055600580548290811061098b57fe5b60009182526020822001555050565b6000546001600160a01b031633146109c45760405162461bcd60e51b815260040161055b906151db565b806010836040516109d591906150c4565b908152604051908190036020019020555050565b6000546001600160a01b03163314610a135760405162461bcd60e51b815260040161055b906151db565b8181610a1f82826132a4565b610a3b5760405162461bcd60e51b815260040161055b906151eb565b600884604051610a4b91906150c4565b9081526020016040518091039020610a6385856132ba565b81548110610a6d57fe5b90600052602060002001600061066491906138a2565b6060600882604051610a9591906150c4565b9081526020016040518091039020805480602002602001604051908101604052809291908181526020016000905b82821015610b6e5760008481526020908190208301805460408051601f6002600019610100600187161502019094169390930492830185900485028101850190915281815292830182828015610b5a5780601f10610b2f57610100808354040283529160200191610b5a565b820191906000526020600020905b815481529060010190602001808311610b3d57829003601f168201915b505050505081526020019060010190610ac3565b5050505090505b919050565b6000546001600160a01b03163314610ba45760405162461bcd60e51b815260040161055b906151db565b600080546001600160a01b0319166001600160a01b0392909216919091179055565b8160ff600882604051610bd991906150c4565b9081526040519081900360200190205410610c065760405162461bcd60e51b815260040161055b906151bb565b8282610c1282826132a4565b15610c2f5760405162461bcd60e51b815260040161055b9061517b565b6000546001600160a01b03163314610c595760405162461bcd60e51b815260040161055b906151db565b600885604051610c6991906150c4565b9081526040516020918190038201902080546001810180835560009283529183902087519293610ca0939190920191880190613732565b50505050505050565b8060200151610cb78161292c565b610cd35760405162461bcd60e51b815260040161055b9061523b565b6000610cde8361339b565b90506000198110610d015760405162461bcd60e51b815260040161055b906151ab565b610d0f83602001518261343e565b6040805160808101825260008082526020808301828152845180830186528381528486019081526060850184905288518452600f83529490922083518155915160018301559251805192939192610d6c9260028501920190613732565b5060608201518160030155905050505050565b6000600282604051602001610d9491906150c4565b60408051601f1981840301815290829052610dae916150c4565b602060405180830381855afa158015610dcb573d6000803e3d6000fd5b5050506040513d601f19601f82011682018060405250610dee91908101906141e0565b92915050565b8060200151610e028161292c565b610e1e5760405162461bcd60e51b815260040161055b9061523b565b81516000818152600f602052604090205415610fce576000610e438460000151613543565b9050610e4d6138e9565b84516000908152600f6020908152604091829020825160808101845281548152600180830154828501526002808401805487519381161561010002600019011691909104601f81018690048602830186018752808352929593949386019391929091830182828015610f005780601f10610ed557610100808354040283529160200191610f00565b820191906000526020600020905b815481529060010190602001808311610ee357829003601f168201915b505050505081526020016003820154815250509050600e6000826020015181526020019081526020016000208281548110610f3757fe5b6000918252602082206004909102018181556001810182905590610f5e60028301826138a2565b506000600391909101819055602080870180518352600e8252604080842080546001818101808455928752958590208b5160049092020190815592519483019490945588015180518993610fb9926002850192910190613732565b50606082015181600301555050505050611031565b602080840180516000908152600e8352604080822080546001818101808455928552938690208951600490920201908155935192840192909255860151805191938793926110229260028501920190613732565b50606082015181600301555050505b6000818152600f602090815260409182902085518155818601516001820155918501518051869392610d6c926002850192910190613732565b828261107682826132a4565b6110925760405162461bcd60e51b815260040161055b906151eb565b6000546001600160a01b031633146110bc5760405162461bcd60e51b815260040161055b906151db565b826008866040516110cd91906150c4565b90815260200160405180910390206110e587876132ba565b815481106110ef57fe5b90600052602060002001908051906020019061110c929190613732565b505050505050565b600081815260016020526040902054819060ff166111445760405162461bcd60e51b815260040161055b9061516b565b6000828152600460209081526040909120845180518693611169928492910190613732565b5060208281015180516111829260018501920190613732565b506040820151805161119e916002840191602090910190613732565b50606082015180516111ba916003840191602090910190613732565b5060808201516111d090600483019060026137b0565b5060a082015180516111ec916006840191602090910190613732565b5060c08201518051611208916007840191602090910190613732565b5060e08201518051611224916008840191602090910190613732565b506101008201518051611241916009840191602090910190613732565b50610120820151805161125e91600a8401916020909101906137fc565b50610140820151805161110c91600b840191602090910190613849565b6006546040805160ff9092168083526020808202840101909152606091829180156112ba57816020015b60608152602001906001900390816112a55790505b5090506000805b60065460ff610100909104811690821610156113c75760ff811660009081526007602052604090205460026000196101006001841615020190911604156113bf5760ff811660009081526007602090815260409182902080548351601f6002600019610100600186161502019093169290920491820184900484028101840190945280845290918301828280156113995780601f1061136e57610100808354040283529160200191611399565b820191906000526020600020905b81548152906001019060200180831161137c57829003601f168201915b5050505050838380600101945060ff16815181106113b357fe5b60200260200101819052505b6001016112c1565b50909150505b90565b6113d8613911565b6000828152600460209081526040918290208251815460026001821615610100026000190190911604601f8101849004909302810161018090810190945261016081018381529093919284928491908401828280156114785780601f1061144d57610100808354040283529160200191611478565b820191906000526020600020905b81548152906001019060200180831161145b57829003601f168201915b50505050508152602001600182018054600181600116156101000203166002900480601f01602080910402602001604051908101604052809291908181526020018280546001816001161561010002031660029004801561151a5780601f106114ef5761010080835404028352916020019161151a565b820191906000526020600020905b8154815290600101906020018083116114fd57829003601f168201915b5050509183525050600282810180546040805160206001841615610100026000190190931694909404601f810183900483028501830190915280845293810193908301828280156115ac5780601f10611581576101008083540402835291602001916115ac565b820191906000526020600020905b81548152906001019060200180831161158f57829003601f168201915b505050918352505060038201805460408051602060026001851615610100026000190190941693909304601f81018490048402820184019092528181529382019392918301828280156116405780601f1061161557610100808354040283529160200191611640565b820191906000526020600020905b81548152906001019060200180831161162357829003601f168201915b5050509183525050604080518082019091526020909101906004830160026000835b8282101561170557838201805460408051602060026001851615610100026000190190941693909304601f810184900484028201840190925281815292918301828280156116f15780601f106116c6576101008083540402835291602001916116f1565b820191906000526020600020905b8154815290600101906020018083116116d457829003601f168201915b505050505081526020019060010190611662565b5050509082525060068201805460408051602060026001851615610100026000190190941693909304601f81018490048402820184019092528181529382019392918301828280156117985780601f1061176d57610100808354040283529160200191611798565b820191906000526020600020905b81548152906001019060200180831161177b57829003601f168201915b505050918352505060078201805460408051602060026001851615610100026000190190941693909304601f810184900484028201840190925281815293820193929183018282801561182c5780601f106118015761010080835404028352916020019161182c565b820191906000526020600020905b81548152906001019060200180831161180f57829003601f168201915b505050918352505060088201805460408051602060026001851615610100026000190190941693909304601f81018490048402820184019092528181529382019392918301828280156118c05780601f10611895576101008083540402835291602001916118c0565b820191906000526020600020905b8154815290600101906020018083116118a357829003601f168201915b505050918352505060098201805460408051602060026001851615610100026000190190941693909304601f81018490048402820184019092528181529382019392918301828280156119545780601f1061192957610100808354040283529160200191611954565b820191906000526020600020905b81548152906001019060200180831161193757829003601f168201915b50505050508152602001600a8201805480602002602001604051908101604052809291908181526020016000905b82821015611a2d5760008481526020908190208301805460408051601f6002600019610100600187161502019094169390930492830185900485028101850190915281815292830182828015611a195780601f106119ee57610100808354040283529160200191611a19565b820191906000526020600020905b8154815290600101906020018083116119fc57829003601f168201915b505050505081526020019060010190611982565b505050508152602001600b8201805480602002602001604051908101604052809291908181526020016000905b82821015611b4c57838290600052602060002001805480602002602001604051908101604052809291908181526020016000905b82821015611b395760008481526020908190208301805460408051601f6002600019610100600187161502019094169390930492830185900485028101850190915281815292830182828015611b255780601f10611afa57610100808354040283529160200191611b25565b820191906000526020600020905b815481529060010190602001808311611b0857829003601f168201915b505050505081526020019060010190611a8e565b5050505081526020019060010190611a5a565b505050915250909392505050565b6000546060906001600160a01b03163314611b875760405162461bcd60e51b815260040161055b906151db565b6005805480602002602001604051908101604052809291908181526020018280548015611bd357602002820191906000526020600020905b815481526020019060010190808311611bbf575b5050505050905090565b600082815260016020526040902054829060ff16611c0d5760405162461bcd60e51b815260040161055b9061516b565b6000828152600160208181526040808420805460ff1990811690941790558684528084208054909316909255848352600381528183208390558583526002905280822084835291208154611c619290613971565b506000838152600260205260408120611c79916139b1565b60005b600083815260026020526040902054811015610664578260036000600260008781526020019081526020016000208481548110611cb557fe5b60009182526020808320909101548352820192909252604001902055600101611c7c565b6060600982604051611ceb91906150c4565b9081526020016040518091039020805480602002602001604051908101604052809291908181526020016000905b82821015610b6e57838290600052602060002090600502016040518060a00160405290816000820154815260200160018201805480602002602001604051908101604052809291908181526020016000905b82821015611e165760008481526020908190208301805460408051601f6002600019610100600187161502019094169390930492830185900485028101850190915281815292830182828015611e025780601f10611dd757610100808354040283529160200191611e02565b820191906000526020600020905b815481529060010190602001808311611de557829003601f168201915b505050505081526020019060010190611d6b565b50505050815260200160028201805480602002602001604051908101604052809291908181526020016000905b82821015611eee5760008481526020908190208301805460408051601f6002600019610100600187161502019094169390930492830185900485028101850190915281815292830182828015611eda5780601f10611eaf57610100808354040283529160200191611eda565b820191906000526020600020905b815481529060010190602001808311611ebd57829003601f168201915b505050505081526020019060010190611e43565b5050509082525060038201805460408051602060026001851615610100026000190190941693909304601f8101849004840282018401909252818152938201939291830182828015611f815780601f10611f5657610100808354040283529160200191611f81565b820191906000526020600020905b815481529060010190602001808311611f6457829003601f168201915b5050505050815260200160048201548152505081526020019060010190611d19565b6000546001600160a01b03163314611fcd5760405162461bcd60e51b815260040161055b906151db565b80611fd78161323d565b15611ff45760405162461bcd60e51b815260040161055b9061521b565b60065460ff61010082048116911611156120205760405162461bcd60e51b815260040161055b9061522b565b60005b60065460ff610100909104811690821610156120ab5760ff8116600090815260076020526040902054600260001961010060018416150201909116046120a35760ff81166000908152600760209081526040909120845161208692860190613732565b50506006805460ff8082166001011660ff199091161790556120ad565b600101612023565b505b5050565b6000546001600160a01b031681565b80600c836040516120d191906150c4565b908152602001604051809103902060008201518160000190805190602001906120fb929190613732565b5060208281015180516121149260018501920190613732565b5060408201518051612130916002840191602090910190613732565b50905050600061214084846135e5565b90506000811215612186576000848152600b602090815260408220805460018101808355918452928290208651919361217f9391019190870190613732565b5050610664565b6000848152600b602052604090208054849190839081106121a357fe5b9060005260206000200190805190602001906121c0929190613732565b5050505050565b6060600b6000838152602001908152602001600020805480602002602001604051908101604052809291908181526020016000905b82821015610b6e5760008481526020908190208301805460408051601f60026000196101006001871615020190941693909304928301859004850281018501909152818152928301828280156122935780601f1061226857610100808354040283529160200191612293565b820191906000526020600020905b81548152906001019060200180831161227657829003601f168201915b5050505050815260200190600101906121fc565b805160208183018101805160108252928201919093012091525481565b6060816122d08161292c565b6122ec5760405162461bcd60e51b815260040161055b9061523b565b6000838152600e6020908152604080832080548251818502810185019093528083529193909284015b8282101561240757838290600052602060002090600402016040518060800160405290816000820154815260200160018201548152602001600282018054600181600116156101000203166002900480601f0160208091040260200160405190810160405280929190818152602001828054600181600116156101000203166002900480156123e55780601f106123ba576101008083540402835291602001916123e5565b820191906000526020600020905b8154815290600101906020018083116123c857829003601f168201915b5050505050815260200160038201548152505081526020019060010190612315565b5050505091505b50919050565b61241c6139cf565b6000828152600a60209081526040918290208251815460026001821615610100026000190190911604601f8101849004909302810160c090810190945260a081018381529093919284928491908401828280156124ba5780601f1061248f576101008083540402835291602001916124ba565b820191906000526020600020905b81548152906001019060200180831161249d57829003601f168201915b50505050508152602001600182018054600181600116156101000203166002900480601f01602080910402602001604051908101604052809291908181526020018280546001816001161561010002031660029004801561255c5780601f106125315761010080835404028352916020019161255c565b820191906000526020600020905b81548152906001019060200180831161253f57829003601f168201915b5050509183525050600282810180546040805160206001841615610100026000190190931694909404601f810183900483028501830190915280845293810193908301828280156125ee5780601f106125c3576101008083540402835291602001916125ee565b820191906000526020600020905b8154815290600101906020018083116125d157829003601f168201915b505050918352505060038201805460408051602060026001851615610100026000190190941693909304601f81018490048402820184019092528181529382019392918301828280156126825780601f1061265757610100808354040283529160200191612682565b820191906000526020600020905b81548152906001019060200180831161266557829003601f168201915b505050918352505060048201805460408051602060026001851615610100026000190190941693909304601f81018490048402820184019092528181529382019392918301828280156127165780601f106126eb57610100808354040283529160200191612716565b820191906000526020600020905b8154815290600101906020018083116126f957829003601f168201915b5050505050815250509050919050565b80602001516127348161292c565b6127505760405162461bcd60e51b815260040161055b9061523b565b600061275b8361339b565b9050600019811061277e5760405162461bcd60e51b815260040161055b906151ab565b602080840180516000908152600d8352604080822080546001818101808455928552938690208951600490920201908155935192840192909255860151805191938793926127d29260028501920190613732565b50606082015181600301555050506120ab83610ca9565b6060816127f58161292c565b6128115760405162461bcd60e51b815260040161055b9061523b565b6000838152600d6020908152604080832080548251818502810185019093528083529193909284015b8282101561240757838290600052602060002090600402016040518060800160405290816000820154815260200160018201548152602001600282018054600181600116156101000203166002900480601f01602080910402602001604051908101604052809291908181526020018280546001816001161561010002031660029004801561290a5780601f106128df5761010080835404028352916020019161290a565b820191906000526020600020905b8154815290600101906020018083116128ed57829003601f168201915b505050505081526020016003820154815250508152602001906001019061283a565b60008181526001602052604081205460ff1680610dee575050600090815260036020526040902054151590565b6000828152600a6020908152604090912082518051849361297e928492910190613732565b5060208281015180516129979260018501920190613732565b50604082015180516129b3916002840191602090910190613732565b50606082015180516129cf916003840191602090910190613732565b50608082015180516121c0916004840191602090910190613732565b606080600b600084815260200190815260200160002080549050604051908082528060200260200182016040528015612a3e57816020015b612a2b6139fe565b815260200190600190039081612a235790505b50905060005b6000848152600b6020526040902054811015612c86576000848152600b602052604090208054600c919083908110612a7857fe5b90600052602060002001604051612a8f91906150d0565b9081526040805160209281900383018120805460026001821615610100026000190190911604601f81018590049094028201608090810190935260608201848152919390928492918491840182828015612b2a5780601f10612aff57610100808354040283529160200191612b2a565b820191906000526020600020905b815481529060010190602001808311612b0d57829003601f168201915b50505050508152602001600182018054600181600116156101000203166002900480601f016020809104026020016040519081016040528092919081815260200182805460018160011615610100020316600290048015612bcc5780601f10612ba157610100808354040283529160200191612bcc565b820191906000526020600020905b815481529060010190602001808311612baf57829003601f168201915b5050509183525050600282810180546040805160206001841615610100026000190190931694909404601f81018390048302850183019091528084529381019390830182828015612c5e5780601f10612c3357610100808354040283529160200191612c5e565b820191906000526020600020905b815481529060010190602001808311612c4157829003601f168201915b505050505081525050828281518110612c7357fe5b6020908102919091010152600101612a44565b5092915050565b612c956139fe565b600c82604051612ca591906150c4565b9081526040805160209281900383018120805460026001821615610100026000190190911604601f81018590049094028201608090810190935260608201848152919390928492918491840182828015612d405780601f10612d1557610100808354040283529160200191612d40565b820191906000526020600020905b815481529060010190602001808311612d2357829003601f168201915b50505050508152602001600182018054600181600116156101000203166002900480601f016020809104026020016040519081016040528092919081815260200182805460018160011615610100020316600290048015612de25780601f10612db757610100808354040283529160200191612de2565b820191906000526020600020905b815481529060010190602001808311612dc557829003601f168201915b5050509183525050600282810180546040805160206001841615610100026000190190931694909404601f810183900483028501830190915280845293810193908301828280156127165780601f106126eb57610100808354040283529160200191612716565b612e516138e9565b600f60008381526020019081526020016000206040518060800160405290816000820154815260200160018201548152602001600282018054600181600116156101000203166002900480601f016020809104026020016040519081016040528092919081815260200182805460018160011615610100020316600290048015612f1c5780601f10612ef157610100808354040283529160200191612f1c565b820191906000526020600020905b815481529060010190602001808311612eff57829003601f168201915b505050505081526020016003820154815250509050919050565b600082815260016020526040902054829060ff16612f665760405162461bcd60e51b815260040161055b9061516b565b60008281526003602052604090205415612f925760405162461bcd60e51b815260040161055b9061515b565b506000828152600260209081526040808320805460018101825590845282842001849055928252600390522055565b86612fcb8161292c565b612fe75760405162461bcd60e51b815260040161055b9061523b565b8451845111156130095760405162461bcd60e51b815260040161055b906151cb565b600061301588886135e5565b1215613052576000878152600b602090815260408220805460018101808355918452928290208951919361304f93910191908a0190613732565b50505b60098660405161306291906150c4565b90815260408051918290036020908101832060a0840183528b845283820189815292840188905260608401879052608084018690528054600181810180845560009384529284902086516005909302019182559351805192959491936130ce93928501929101906137fc565b50604082015180516130ea9160028401916020909101906137fc565b5060608201518051613106916003840191602090910190613732565b50608082015181600401555050505050505050505050565b60008061312a83613657565b905060005b60065460ff610100909104811690821610156132335760ff8116600090815260076020526040902054600260001961010060018416150201909116041580159061321d575060ff81166000908152600760209081526040918290208054835160026001831615610100026000190190921691909104601f8101849004840282018401909452838152859361321b939192918301828280156132115780601f106131e657610100808354040283529160200191613211565b820191906000526020600020905b8154815290600101906020018083116131f457829003601f168201915b5050505050613657565b145b1561322b579150610b759050565b60010161312f565b5060ff9392505050565b600654600090610100900460ff166132548361311e565b60ff161092915050565b6000805b60055481101561329a57826005828154811061327a57fe5b90600052602060002001541415613292579050610b75565b600101613262565b5060001992915050565b600060ff6132b284846132ba565b109392505050565b6000805b6008846040516132ce91906150c4565b9081526040519081900360200190205460ff82161015613233576132f183613657565b61338360088660405161330491906150c4565b90815260200160405180910390208360ff168154811061332057fe5b600091825260209182902001805460408051601f60026000196101006001871615020190941693909304928301859004850281018501909152818152928301828280156132115780601f106131e657610100808354040283529160200191613211565b14156133935760ff169050610dee565b6001016132be565b600081602001516133ab8161292c565b6133c75760405162461bcd60e51b815260040161055b9061523b565b60005b6020808501516000908152600e90915260409020548110156134335761341f84600e600087602001518152602001908152602001600020838154811061340c57fe5b9060005260206000209060040201613687565b1561342b57915061240e565b6001016133ca565b506000199392505050565b816134488161292c565b6134645760405162461bcd60e51b815260040161055b9061523b565b600182015b6000848152600e6020526040902054811015613523576000848152600e6020526040902080548290811061349957fe5b9060005260206000209060040201600e600086815260200190815260200160002060018303815481106134c857fe5b9060005260206000209060040201600082015481600001556001820154816001015560028201816002019080546001816001161561010002031660029004613511929190613a1f565b50600391820154910155600101613469565b506000838152600e60205260409020805490610664906000198301613a93565b6000818152600f602052604081205461356e5760405162461bcd60e51b815260040161055b9061519b565b6000828152600f60205260408120905b60018201546000908152600e60205260409020548110156134335783600e60008460010154815260200190815260200160002082815481106135bc57fe5b90600052602060002090600402016000015414156135dd579150610b759050565b60010161357e565b6000805b6000848152600b60205260409020546001600160801b03821610156134335761361183613657565b6000858152600b60205260409020805461363991906001600160801b03851690811061332057fe5b141561364f576001600160801b03169050610dee565b6001016135e9565b60008160405160200161366a91906150c4565b604051602081830303815290604052805190602001209050919050565b805482516000911480156136a2575081600101548360200151145b80156137185750600282810180546040805160206001841615610100026000190190931694909404601f81018390048302850183019091528084526137099392918301828280156132115780601f106131e657610100808354040283529160200191613211565b6137168460400151613657565b145b801561372b575081600301548360600151145b9392505050565b828054600181600116156101000203166002900490600052602060002090601f016020900481019282601f1061377357805160ff19168380011785556137a0565b828001600101855582156137a0579182015b828111156137a0578251825591602001919060010190613785565b506137ac929150613abf565b5090565b82600281019282156137f0579160200282015b828111156137f057825180516137e0918491602090910190613732565b50916020019190600101906137c3565b506137ac929150613ad9565b8280548282559060005260206000209081019282156137f0579160200282015b828111156137f05782518051613839918491602090910190613732565b509160200191906001019061381c565b828054828255906000526020600020908101928215613896579160200282015b8281111561389657825180516138869184916020909101906137fc565b5091602001919060010190613869565b506137ac929150613afc565b50805460018160011615610100020316600290046000825580601f106138c857506138e6565b601f0160209004906000526020600020908101906138e69190613abf565b50565b6040805160808101825260008082526020820181905260609282018390529181019190915290565b60405180610160016040528060608152602001606081526020016060815260200160608152602001613941613b1f565b81526020016060815260200160608152602001606081526020016060815260200160608152602001606081525090565b8280548282559060005260206000209081019282156137a05760005260206000209182015b828111156137a0578254825591600101919060010190613996565b50805460008255906000526020600020908101906138e69190613abf565b6040518060a0016040528060608152602001606081526020016060815260200160608152602001606081525090565b60405180606001604052806060815260200160608152602001606081525090565b828054600181600116156101000203166002900490600052602060002090601f016020900481019282601f10613a5857805485556137a0565b828001600101855582156137a057600052602060002091601f01602090048201828111156137a0578254825591600101919060010190613996565b8154818355818111156120ab576004028160040283600052602060002091820191016120ab9190613b46565b6113cd91905b808211156137ac5760008155600101613ac5565b6113cd91905b808211156137ac576000613af382826138a2565b50600101613adf565b6113cd91905b808211156137ac576000613b168282613b7d565b50600101613b02565b60405180604001604052806002905b6060815260200190600190039081613b2e5790505090565b6113cd91905b808211156137ac57600080825560018201819055613b6d60028301826138a2565b5060006003820155600401613b4c565b50805460008255906000526020600020908101906138e69190613ad9565b8035610dee816153bc565b600082601f830112613bb757600080fd5b8135613bca613bc5826152d5565b6152af565b81815260209384019390925082018360005b83811015613c085781358601613bf28882613c64565b8452506020928301929190910190600101613bdc565b5050505092915050565b600082601f830112613c2357600080fd5b6002613c31613bc5826152f5565b9150818360005b83811015613c085781358601613c4e8882613d34565b8452506020928301929190910190600101613c38565b600082601f830112613c7557600080fd5b8135613c83613bc5826152d5565b81815260209384019390925082018360005b83811015613c085781358601613cab8882613d34565b8452506020928301929190910190600101613c95565b600082601f830112613cd257600080fd5b8135613ce0613bc5826152d5565b81815260209384019390925082018360005b83811015613c085781358601613d088882613d34565b8452506020928301929190910190600101613cf2565b8035610dee816153d0565b8051610dee816153d0565b600082601f830112613d4557600080fd5b8135613d53613bc582615312565b91508082526020830160208301858383011115613d6f57600080fd5b613d7a83828461537a565b50505092915050565b600060808284031215613d9557600080fd5b613d9f60806152af565b90506000613dad8484613d1e565b8252506020613dbe84848301613d1e565b60208301525060408201356001600160401b03811115613ddd57600080fd5b613de984828501613d34565b6040830152506060613dfd84828501613d1e565b60608301525092915050565b600060608284031215613e1b57600080fd5b613e2560606152af565b905081356001600160401b03811115613e3d57600080fd5b613e4984828501613d34565b82525060208201356001600160401b03811115613e6557600080fd5b613e7184828501613d34565b60208301525060408201356001600160401b03811115613e9057600080fd5b613e9c84828501613d34565b60408301525092915050565b60006101608284031215613ebb57600080fd5b613ec66101606152af565b905081356001600160401b03811115613ede57600080fd5b613eea84828501613d34565b82525060208201356001600160401b03811115613f0657600080fd5b613f1284828501613d34565b60208301525060408201356001600160401b03811115613f3157600080fd5b613f3d84828501613d34565b60408301525060608201356001600160401b03811115613f5c57600080fd5b613f6884828501613d34565b60608301525060808201356001600160401b03811115613f8757600080fd5b613f9384828501613c12565b60808301525060a08201356001600160401b03811115613fb257600080fd5b613fbe84828501613d34565b60a08301525060c08201356001600160401b03811115613fdd57600080fd5b613fe984828501613d34565b60c08301525060e08201356001600160401b0381111561400857600080fd5b61401484828501613d34565b60e0830152506101008201356001600160401b0381111561403457600080fd5b61404084828501613d34565b610100830152506101208201356001600160401b0381111561406157600080fd5b61406d84828501613c64565b610120830152506101408201356001600160401b0381111561408e57600080fd5b61409a84828501613ba6565b6101408301525092915050565b600060a082840312156140b957600080fd5b6140c360a06152af565b905081356001600160401b038111156140db57600080fd5b6140e784828501613d34565b82525060208201356001600160401b0381111561410357600080fd5b61410f84828501613d34565b60208301525060408201356001600160401b0381111561412e57600080fd5b61413a84828501613d34565b60408301525060608201356001600160401b0381111561415957600080fd5b61416584828501613d34565b60608301525060808201356001600160401b0381111561418457600080fd5b61419084828501613d34565b60808301525092915050565b6000602082840312156141ae57600080fd5b60006141ba8484613b9b565b949350505050565b6000602082840312156141d457600080fd5b60006141ba8484613d1e565b6000602082840312156141f257600080fd5b60006141ba8484613d29565b6000806040838503121561421157600080fd5b600061421d8585613d1e565b925050602061422e85828601613d1e565b9150509250929050565b600080600080600080600060e0888a03121561425357600080fd5b600061425f8a8a613d1e565b97505060206142708a828b01613d1e565b96505060408801356001600160401b0381111561428c57600080fd5b6142988a828b01613d34565b95505060608801356001600160401b038111156142b457600080fd5b6142c08a828b01613cc1565b94505060808801356001600160401b038111156142dc57600080fd5b6142e88a828b01613cc1565b93505060a08801356001600160401b0381111561430457600080fd5b6143108a828b01613d34565b92505060c06143218a828b01613d1e565b91505092959891949750929550565b60008060006060848603121561434557600080fd5b60006143518686613d1e565b93505060208401356001600160401b0381111561436d57600080fd5b61437986828701613d34565b92505060408401356001600160401b0381111561439557600080fd5b6143a186828701613e09565b9150509250925092565b600080604083850312156143be57600080fd5b60006143ca8585613d1e565b92505060208301356001600160401b038111156143e657600080fd5b61422e858286016140a7565b60006020828403121561440457600080fd5b81356001600160401b0381111561441a57600080fd5b6141ba84828501613d34565b6000806040838503121561443957600080fd5b82356001600160401b0381111561444f57600080fd5b61445b85828601613d34565b92505060208301356001600160401b0381111561447757600080fd5b61422e85828601613d34565b60008060006060848603121561449857600080fd5b83356001600160401b038111156144ae57600080fd5b6144ba86828701613d34565b93505060208401356001600160401b038111156144d657600080fd5b6144e286828701613d34565b92505060408401356001600160401b038111156144fe57600080fd5b6143a186828701613d34565b6000806040838503121561451d57600080fd5b82356001600160401b0381111561453357600080fd5b61421d85828601613d34565b60006020828403121561455157600080fd5b81356001600160401b0381111561456757600080fd5b6141ba84828501613d83565b6000806040838503121561458657600080fd5b82356001600160401b0381111561459c57600080fd5b61421d85828601613ea8565b600061372b8383614790565b60006145c0838361491d565b505060200190565b600061372b8383614955565b600061372b8383614dfb565b600061372b8383614e57565b600061372b8383614fcf565b6146018161535e565b82525050565b60006146128261534b565b61461c8185615355565b93508360208202850161462e85615339565b8060005b85811015614668578484038952815161464b85826145a8565b945061465683615339565b60209a909a0199925050600101614632565b5091979650505050505050565b60006146808261534b565b61468a8185615355565b935061469583615339565b8060005b838110156146c35781516146ad88826145b4565b97506146b883615339565b925050600101614699565b509495945050505050565b60006146d98261534f565b6146e38185610b75565b9350836020820285016146f5856113cd565b8060005b85811015614668578484038952815161471285826145c8565b945061471d83615339565b60209a909a01999250506001016146f9565b600061473a8261534b565b6147448185615355565b93508360208202850161475685615339565b8060005b85811015614668578484038952815161477385826145c8565b945061477e83615339565b60209a909a019992505060010161475a565b600061479b8261534b565b6147a58185615355565b9350836020820285016147b785615339565b8060005b8581101561466857848403895281516147d485826145c8565b94506147df83615339565b60209a909a01999250506001016147bb565b60006147fc8261534b565b6148068185615355565b93508360208202850161481885615339565b8060005b85811015614668578484038952815161483585826145d4565b945061484083615339565b60209a909a019992505060010161481c565b600061485d8261534b565b6148678185615355565b93508360208202850161487985615339565b8060005b85811015614668578484038952815161489685826145e0565b94506148a183615339565b60209a909a019992505060010161487d565b60006148be8261534b565b6148c88185615355565b9350836020820285016148da85615339565b8060005b8581101561466857848403895281516148f785826145ec565b945061490283615339565b60209a909a01999250506001016148de565b61460181615369565b614601816113cd565b60006149318261534b565b61493b8185610b75565b935061494b818560208601615386565b9290920192915050565b60006149608261534b565b61496a8185615355565b935061497a818560208601615386565b614983816153b2565b9093019392505050565b6000815460018116600081146149aa57600181146149cd57614a0c565b607f60028304166149bb8187610b75565b60ff1984168152955085019250614a0c565b600282046149db8187610b75565b95506149e68561533f565b60005b82811015614a05578154888201526001909101906020016149e9565b5050850192505b505092915050565b6000614a21602183615355565b7f5468617420656d706c6f79656520616c726561647920776f726b7320746865728152606560f81b602082015260400192915050565b6000614a64602983615355565b7f596f75206d7573742062652061206465616c657273686970206f776e657220748152686f20646f207468697360b81b602082015260400192915050565b6000614aaf601e83615355565b7f54686174207375627365727669636520616c7265616479206578697374730000815260200192915050565b6000614ae8602183615355565b7f4e6f206170706c69636174696f6e2065786973747320666f72207468617420698152601960fa1b602082015260400192915050565b6000614b2b602183615355565b7f5573657220646f6573206e6f74206861766520616e206170706f696e746d656e8152601d60fa1b602082015260400192915050565b6000614b6e601f83615355565b7f54686174206170706f696e746d656e7420646f6573206e6f7420657869737400815260200192915050565b6000614ba7602183615355565b7f4d6178696d756d207375627365727669636520616d6f756e74207265616368658152601960fa1b602082015260400192915050565b6000614bea603383615355565b7f4e756d626572206f6620737562736572766963657320646f6573206e6f74206d8152720c2e8c6d040e6cae4ecd2c6ca40d8cadccee8d606b1b602082015260400192915050565b6000614c3f601583615355565b742cb7ba9030b932903737ba103a34329037bbb732b960591b815260200192915050565b6000614c70602c83615355565b7f54686174207375627365727669636520646f65736e7420657869737420696e2081526b1d1a1a5cc818dbdb9d195e1d60a21b602082015260400192915050565b6000614cbe601b83615355565b7f54686174207365727669636520646f6573206e6f742065786973740000000000815260200192915050565b6000614cf7602283615355565b7f54686174206164647265737320697320616c7265616479207265676973746572815261195960f21b602082015260400192915050565b6000614d3b601b83615355565b7f54686174207365727669636520616c7265616479206578697374730000000000815260200192915050565b6000614d74602883615355565b7f54686572652061726520746865206d6178696d756d206e756d626572206f6620815267736572766963657360c01b602082015260400192915050565b6000614dbe602883615355565b7f596f75206d7573742062652061207665726966696564206465616c657220746f81526720646f207468697360c01b602082015260400192915050565b80516000906080840190614e0f858261491d565b506020830151614e22602086018261491d565b5060408301518482036040860152614e3a8282614955565b9150506060830151614e4f606086018261491d565b509392505050565b8051606080845260009190840190614e6f8282614955565b91505060208301518482036020860152614e898282614955565b91505060408301518482036040860152614ea38282614955565b95945050505050565b805161016080845260009190840190614ec58282614955565b91505060208301518482036020860152614edf8282614955565b91505060408301518482036040860152614ef98282614955565b91505060608301518482036060860152614f138282614955565b91505060808301518482036080860152614f2d82826146ce565b91505060a083015184820360a0860152614f478282614955565b91505060c083015184820360c0860152614f618282614955565b91505060e083015184820360e0860152614f7b8282614955565b915050610100830151848203610100860152614f978282614955565b915050610120830151848203610120860152614fb38282614790565b915050610140830151848203610140860152614ea38282614607565b805160009060a0840190614fe3858261491d565b5060208301518482036020860152614ffb8282614790565b915050604083015184820360408601526150158282614790565b9150506060830151848203606086015261502f8282614955565b9150506080830151614e4f608086018261491d565b805160a08084526000919084019061505c8282614955565b915050602083015184820360208601526150768282614955565b915050604083015184820360408601526150908282614955565b915050606083015184820360608601526150aa8282614955565b91505060808301518482036080860152614ea38282614955565b600061372b8284614926565b600061372b828461498d565b60208101610dee82846145f8565b6020808252810161372b8184614675565b6020808252810161372b818461472f565b6020808252810161372b81846147f1565b6020808252810161372b8184614852565b6020808252810161372b81846148b3565b60208101610dee8284614914565b60208101610dee828461491d565b60208082528101610dee81614a14565b60208082528101610dee81614a57565b60208082528101610dee81614aa2565b60208082528101610dee81614adb565b60208082528101610dee81614b1e565b60208082528101610dee81614b61565b60208082528101610dee81614b9a565b60208082528101610dee81614bdd565b60208082528101610dee81614c32565b60208082528101610dee81614c63565b60208082528101610dee81614cb1565b60208082528101610dee81614cea565b60208082528101610dee81614d2e565b60208082528101610dee81614d67565b60208082528101610dee81614db1565b6020808252810161372b8184614dfb565b6020808252810161372b8184614e57565b6020808252810161372b8184614eac565b6040808252810161528f8185614eac565b905061372b602083018461491d565b6020808252810161372b8184615044565b6040518181016001600160401b03811182821017156152cd57600080fd5b604052919050565b60006001600160401b038211156152eb57600080fd5b5060209081020190565b60006001600160401b0382111561530b57600080fd5b5060200290565b60006001600160401b0382111561532857600080fd5b506020601f91909101601f19160190565b60200190565b60009081526020902090565b5190565b50600290565b90815260200190565b6000610dee8261536e565b151590565b6001600160a01b031690565b82818337506000910152565b60005b838110156153a1578181015183820152602001615389565b838111156106645750506000910152565b601f01601f191690565b6153c58161535e565b81146138e657600080fd5b6153c5816113cd56fea365627a7a723158205908b85b4fcdf0ebc7a424880a0ef045fcd91c2a82f9f4363aa9438b3cc710aa6c6578706572696d656e74616cf564736f6c634300050c0040",
  "source": "pragma solidity ^0.5.11;\npragma experimental ABIEncoderV2;\n\nimport \"./AppointmentHandler.sol\";\n\ncontract NotificationHandler is AppointmentHandler {\n\n    mapping(string => uint) public notificationTimes;\n    mapping(bytes32 => uint[]) private userNotificationTime;\n\n    function insertRecord(bytes32 dealerId, bytes32 id, string memory noPlate,\n     string[] memory services, string[] memory subservices, string memory comment, uint timeStamp)\n        public verified(dealerId) {\n        super.insertRecord(dealerId,id,noPlate,services,subservices,comment,timeStamp);\n        for(uint i = 0; i < services.length; i++){\n            uint8 serviceIndex = getIndexOfService(services[i]);\n            userNotificationTime[id][serviceIndex] = timeStamp;\n        }\n    }\n\n    function setServiceNotificationTime(string memory serviceName, uint time) public ownerOnly {\n        notificationTimes[serviceName] = time;\n    }\n}",
  "sourcePath": "/home/brandon/Documents/_Important/Uni/Blockchain/Final project/contracts/NotificationHandler.sol",
  "compiler": {
    "name": "solc",
    "version": "0.5.12+commit.7709ece9.Emscripten.clang"
  },
  "schemaVersion": "3.0.19",
  "updatedAt": "2019-11-29T10:53:34.777Z",
  "networkType": "ethereum",
  "devdoc": {
    "methods": {}
  },
  "userdoc": {
    "methods": {}
  }
}