{
  "contractName": "UserContract",
  "abi": [
    {
      "anonymous": false,
      "inputs": [
        {
          "components": [
            {
              "internalType": "string",
              "name": "dealerName",
              "type": "string"
            },
            {
              "internalType": "string",
              "name": "firstName",
              "type": "string"
            },
            {
              "internalType": "string",
              "name": "lastName",
              "type": "string"
            },
            {
              "internalType": "string",
              "name": "addr",
              "type": "string"
            },
            {
              "internalType": "string[2]",
              "name": "location",
              "type": "string[2]"
            },
            {
              "internalType": "string",
              "name": "phoneNo",
              "type": "string"
            },
            {
              "internalType": "string",
              "name": "bestSeller",
              "type": "string"
            },
            {
              "internalType": "string",
              "name": "promotion",
              "type": "string"
            },
            {
              "internalType": "string",
              "name": "otherServices",
              "type": "string"
            },
            {
              "internalType": "string[]",
              "name": "availableServices",
              "type": "string[]"
            },
            {
              "internalType": "string[][]",
              "name": "availableSubServices",
              "type": "string[][]"
            }
          ],
          "indexed": false,
          "internalType": "struct DealerContract.DealerInfo",
          "name": "info",
          "type": "tuple"
        },
        {
          "indexed": false,
          "internalType": "bytes32",
          "name": "id",
          "type": "bytes32"
        }
      ],
      "name": "CreateDealerApplication",
      "type": "event"
    },
    {
      "constant": false,
      "inputs": [
        {
          "internalType": "bytes32",
          "name": "dealerId",
          "type": "bytes32"
        },
        {
          "internalType": "bytes32",
          "name": "adr",
          "type": "bytes32"
        }
      ],
      "name": "addDealerEmployee",
      "outputs": [],
      "payable": false,
      "stateMutability": "nonpayable",
      "type": "function"
    },
    {
      "constant": false,
      "inputs": [
        {
          "internalType": "string",
          "name": "serviceName",
          "type": "string"
        }
      ],
      "name": "addService",
      "outputs": [],
      "payable": false,
      "stateMutability": "nonpayable",
      "type": "function"
    },
    {
      "constant": false,
      "inputs": [
        {
          "internalType": "string",
          "name": "serviceName",
          "type": "string"
        },
        {
          "internalType": "string",
          "name": "subServiceName",
          "type": "string"
        }
      ],
      "name": "addSubService",
      "outputs": [],
      "payable": false,
      "stateMutability": "nonpayable",
      "type": "function"
    },
    {
      "constant": false,
      "inputs": [
        {
          "internalType": "bytes32",
          "name": "adr",
          "type": "bytes32"
        }
      ],
      "name": "approveApplication",
      "outputs": [],
      "payable": false,
      "stateMutability": "nonpayable",
      "type": "function"
    },
    {
      "constant": false,
      "inputs": [
        {
          "components": [
            {
              "internalType": "string",
              "name": "dealerName",
              "type": "string"
            },
            {
              "internalType": "string",
              "name": "firstName",
              "type": "string"
            },
            {
              "internalType": "string",
              "name": "lastName",
              "type": "string"
            },
            {
              "internalType": "string",
              "name": "addr",
              "type": "string"
            },
            {
              "internalType": "string[2]",
              "name": "location",
              "type": "string[2]"
            },
            {
              "internalType": "string",
              "name": "phoneNo",
              "type": "string"
            },
            {
              "internalType": "string",
              "name": "bestSeller",
              "type": "string"
            },
            {
              "internalType": "string",
              "name": "promotion",
              "type": "string"
            },
            {
              "internalType": "string",
              "name": "otherServices",
              "type": "string"
            },
            {
              "internalType": "string[]",
              "name": "availableServices",
              "type": "string[]"
            },
            {
              "internalType": "string[][]",
              "name": "availableSubServices",
              "type": "string[][]"
            }
          ],
          "internalType": "struct DealerContract.DealerInfo",
          "name": "info",
          "type": "tuple"
        },
        {
          "internalType": "bytes32",
          "name": "id",
          "type": "bytes32"
        }
      ],
      "name": "createDealerApplication",
      "outputs": [],
      "payable": false,
      "stateMutability": "nonpayable",
      "type": "function"
    },
    {
      "constant": false,
      "inputs": [
        {
          "internalType": "string",
          "name": "serviceName",
          "type": "string"
        }
      ],
      "name": "deleteService",
      "outputs": [],
      "payable": false,
      "stateMutability": "nonpayable",
      "type": "function"
    },
    {
      "constant": false,
      "inputs": [
        {
          "internalType": "string",
          "name": "serviceName",
          "type": "string"
        },
        {
          "internalType": "string",
          "name": "subServiceName",
          "type": "string"
        }
      ],
      "name": "deleteSubService",
      "outputs": [],
      "payable": false,
      "stateMutability": "nonpayable",
      "type": "function"
    },
    {
      "constant": false,
      "inputs": [
        {
          "components": [
            {
              "internalType": "string",
              "name": "dealerName",
              "type": "string"
            },
            {
              "internalType": "string",
              "name": "firstName",
              "type": "string"
            },
            {
              "internalType": "string",
              "name": "lastName",
              "type": "string"
            },
            {
              "internalType": "string",
              "name": "addr",
              "type": "string"
            },
            {
              "internalType": "string[2]",
              "name": "location",
              "type": "string[2]"
            },
            {
              "internalType": "string",
              "name": "phoneNo",
              "type": "string"
            },
            {
              "internalType": "string",
              "name": "bestSeller",
              "type": "string"
            },
            {
              "internalType": "string",
              "name": "promotion",
              "type": "string"
            },
            {
              "internalType": "string",
              "name": "otherServices",
              "type": "string"
            },
            {
              "internalType": "string[]",
              "name": "availableServices",
              "type": "string[]"
            },
            {
              "internalType": "string[][]",
              "name": "availableSubServices",
              "type": "string[][]"
            }
          ],
          "internalType": "struct DealerContract.DealerInfo",
          "name": "info",
          "type": "tuple"
        },
        {
          "internalType": "bytes32",
          "name": "id",
          "type": "bytes32"
        }
      ],
      "name": "editDealerInfo",
      "outputs": [],
      "payable": false,
      "stateMutability": "nonpayable",
      "type": "function"
    },
    {
      "constant": false,
      "inputs": [
        {
          "internalType": "string",
          "name": "oldName",
          "type": "string"
        },
        {
          "internalType": "string",
          "name": "newName",
          "type": "string"
        }
      ],
      "name": "editServiceName",
      "outputs": [],
      "payable": false,
      "stateMutability": "nonpayable",
      "type": "function"
    },
    {
      "constant": false,
      "inputs": [
        {
          "internalType": "string",
          "name": "serviceName",
          "type": "string"
        },
        {
          "internalType": "string",
          "name": "oldName",
          "type": "string"
        },
        {
          "internalType": "string",
          "name": "newName",
          "type": "string"
        }
      ],
      "name": "editSubServiceName",
      "outputs": [],
      "payable": false,
      "stateMutability": "nonpayable",
      "type": "function"
    },
    {
      "constant": true,
      "inputs": [],
      "name": "getAllDealerApplications",
      "outputs": [
        {
          "internalType": "bytes32[]",
          "name": "",
          "type": "bytes32[]"
        }
      ],
      "payable": false,
      "stateMutability": "view",
      "type": "function"
    },
    {
      "constant": true,
      "inputs": [
        {
          "internalType": "bytes32",
          "name": "id",
          "type": "bytes32"
        }
      ],
      "name": "getDealerInfo",
      "outputs": [
        {
          "components": [
            {
              "internalType": "string",
              "name": "dealerName",
              "type": "string"
            },
            {
              "internalType": "string",
              "name": "firstName",
              "type": "string"
            },
            {
              "internalType": "string",
              "name": "lastName",
              "type": "string"
            },
            {
              "internalType": "string",
              "name": "addr",
              "type": "string"
            },
            {
              "internalType": "string[2]",
              "name": "location",
              "type": "string[2]"
            },
            {
              "internalType": "string",
              "name": "phoneNo",
              "type": "string"
            },
            {
              "internalType": "string",
              "name": "bestSeller",
              "type": "string"
            },
            {
              "internalType": "string",
              "name": "promotion",
              "type": "string"
            },
            {
              "internalType": "string",
              "name": "otherServices",
              "type": "string"
            },
            {
              "internalType": "string[]",
              "name": "availableServices",
              "type": "string[]"
            },
            {
              "internalType": "string[][]",
              "name": "availableSubServices",
              "type": "string[][]"
            }
          ],
          "internalType": "struct DealerContract.DealerInfo",
          "name": "",
          "type": "tuple"
        }
      ],
      "payable": false,
      "stateMutability": "view",
      "type": "function"
    },
    {
      "constant": true,
      "inputs": [
        {
          "internalType": "string",
          "name": "id",
          "type": "string"
        }
      ],
      "name": "getHash",
      "outputs": [
        {
          "internalType": "bytes32",
          "name": "",
          "type": "bytes32"
        }
      ],
      "payable": false,
      "stateMutability": "pure",
      "type": "function"
    },
    {
      "constant": true,
      "inputs": [],
      "name": "getServices",
      "outputs": [
        {
          "internalType": "string[]",
          "name": "",
          "type": "string[]"
        }
      ],
      "payable": false,
      "stateMutability": "view",
      "type": "function"
    },
    {
      "constant": true,
      "inputs": [
        {
          "internalType": "string",
          "name": "serviceName",
          "type": "string"
        }
      ],
      "name": "getSubServices",
      "outputs": [
        {
          "internalType": "string[]",
          "name": "",
          "type": "string[]"
        }
      ],
      "payable": false,
      "stateMutability": "view",
      "type": "function"
    },
    {
      "constant": true,
      "inputs": [
        {
          "internalType": "bytes32",
          "name": "adr",
          "type": "bytes32"
        }
      ],
      "name": "isVerified",
      "outputs": [
        {
          "internalType": "bool",
          "name": "",
          "type": "bool"
        }
      ],
      "payable": false,
      "stateMutability": "view",
      "type": "function"
    },
    {
      "constant": true,
      "inputs": [],
      "name": "owner",
      "outputs": [
        {
          "internalType": "address",
          "name": "",
          "type": "address"
        }
      ],
      "payable": false,
      "stateMutability": "view",
      "type": "function"
    },
    {
      "constant": false,
      "inputs": [
        {
          "internalType": "bytes32",
          "name": "dealershipId",
          "type": "bytes32"
        },
        {
          "internalType": "bytes32",
          "name": "otherId",
          "type": "bytes32"
        }
      ],
      "name": "transferDealershipOwner",
      "outputs": [],
      "payable": false,
      "stateMutability": "nonpayable",
      "type": "function"
    },
    {
      "constant": false,
      "inputs": [
        {
          "internalType": "address",
          "name": "newOwner",
          "type": "address"
        }
      ],
      "name": "transferOwner",
      "outputs": [],
      "payable": false,
      "stateMutability": "nonpayable",
      "type": "function"
    },
    {
      "constant": false,
      "inputs": [
        {
          "internalType": "bytes32",
          "name": "userId",
          "type": "bytes32"
        },
        {
          "components": [
            {
              "internalType": "string",
              "name": "firstName",
              "type": "string"
            },
            {
              "internalType": "string",
              "name": "lastName",
              "type": "string"
            },
            {
              "internalType": "string",
              "name": "adr",
              "type": "string"
            },
            {
              "internalType": "string",
              "name": "phNo",
              "type": "string"
            },
            {
              "internalType": "string",
              "name": "email",
              "type": "string"
            }
          ],
          "internalType": "struct UserContract.UserInfo",
          "name": "info",
          "type": "tuple"
        }
      ],
      "name": "editUserInfo",
      "outputs": [],
      "payable": false,
      "stateMutability": "nonpayable",
      "type": "function"
    },
    {
      "constant": true,
      "inputs": [
        {
          "internalType": "bytes32",
          "name": "userId",
          "type": "bytes32"
        }
      ],
      "name": "getUserInfo",
      "outputs": [
        {
          "components": [
            {
              "internalType": "string",
              "name": "firstName",
              "type": "string"
            },
            {
              "internalType": "string",
              "name": "lastName",
              "type": "string"
            },
            {
              "internalType": "string",
              "name": "adr",
              "type": "string"
            },
            {
              "internalType": "string",
              "name": "phNo",
              "type": "string"
            },
            {
              "internalType": "string",
              "name": "email",
              "type": "string"
            }
          ],
          "internalType": "struct UserContract.UserInfo",
          "name": "",
          "type": "tuple"
        }
      ],
      "payable": false,
      "stateMutability": "view",
      "type": "function"
    },
    {
      "constant": false,
      "inputs": [
        {
          "internalType": "bytes32",
          "name": "userId",
          "type": "bytes32"
        },
        {
          "internalType": "string",
          "name": "noPlate",
          "type": "string"
        },
        {
          "components": [
            {
              "internalType": "string",
              "name": "brand",
              "type": "string"
            },
            {
              "internalType": "string",
              "name": "model",
              "type": "string"
            },
            {
              "internalType": "string",
              "name": "year",
              "type": "string"
            }
          ],
          "internalType": "struct UserContract.CarInfo",
          "name": "carInfo",
          "type": "tuple"
        }
      ],
      "name": "editCarDetails",
      "outputs": [],
      "payable": false,
      "stateMutability": "nonpayable",
      "type": "function"
    },
    {
      "constant": true,
      "inputs": [
        {
          "internalType": "bytes32",
          "name": "userId",
          "type": "bytes32"
        }
      ],
      "name": "getCarPlates",
      "outputs": [
        {
          "internalType": "string[]",
          "name": "",
          "type": "string[]"
        }
      ],
      "payable": false,
      "stateMutability": "view",
      "type": "function"
    },
    {
      "constant": true,
      "inputs": [
        {
          "internalType": "bytes32",
          "name": "userId",
          "type": "bytes32"
        }
      ],
      "name": "getCars",
      "outputs": [
        {
          "components": [
            {
              "internalType": "string",
              "name": "brand",
              "type": "string"
            },
            {
              "internalType": "string",
              "name": "model",
              "type": "string"
            },
            {
              "internalType": "string",
              "name": "year",
              "type": "string"
            }
          ],
          "internalType": "struct UserContract.CarInfo[]",
          "name": "",
          "type": "tuple[]"
        }
      ],
      "payable": false,
      "stateMutability": "view",
      "type": "function"
    },
    {
      "constant": false,
      "inputs": [
        {
          "internalType": "bytes32",
          "name": "dealerId",
          "type": "bytes32"
        },
        {
          "internalType": "bytes32",
          "name": "id",
          "type": "bytes32"
        },
        {
          "internalType": "string",
          "name": "noPlate",
          "type": "string"
        },
        {
          "internalType": "string[]",
          "name": "services",
          "type": "string[]"
        },
        {
          "internalType": "string[]",
          "name": "subservices",
          "type": "string[]"
        },
        {
          "internalType": "string",
          "name": "comment",
          "type": "string"
        },
        {
          "internalType": "uint256",
          "name": "timeStamp",
          "type": "uint256"
        }
      ],
      "name": "insertRecord",
      "outputs": [],
      "payable": false,
      "stateMutability": "nonpayable",
      "type": "function"
    },
    {
      "constant": true,
      "inputs": [
        {
          "internalType": "string",
          "name": "noPlate",
          "type": "string"
        }
      ],
      "name": "getRecords",
      "outputs": [
        {
          "components": [
            {
              "internalType": "string[]",
              "name": "services",
              "type": "string[]"
            },
            {
              "internalType": "string[]",
              "name": "subservices",
              "type": "string[]"
            },
            {
              "internalType": "string",
              "name": "comment",
              "type": "string"
            },
            {
              "internalType": "uint256",
              "name": "timeStamp",
              "type": "uint256"
            }
          ],
          "internalType": "struct UserContract.RecordInternal[]",
          "name": "",
          "type": "tuple[]"
        }
      ],
      "payable": false,
      "stateMutability": "view",
      "type": "function"
    }
  ],
  "bytecode": "0x60806040526006805461fe0061ff0019909116179055600080546001600160a01b031916331790556141de806100366000396000f3fe608060405234801561001057600080fd5b506004361061018e5760003560e01c80637d17f13c116100de5780638ee2421411610097578063c181b27311610071578063c181b2731461037a578063c4e91d171461039a578063c9b54a58146103ad578063e445268c146103cd5761018e565b80638ee24214146103345780638f2b514414610347578063adff8b0f1461035a5761018e565b80637d17f13c146102a45780637e41667f146102c457806382d7afbd146102d957806386e80b71146102ec57806388fcd1941461030c5780638da5cb5b1461031f5761018e565b8063431a65fc1161014b5780635b6beeb9116101255780635b6beeb9146102565780636fd7d2b514610276578063752326c114610289578063754178511461029c5761018e565b8063431a65fc146102075780634fb2e45d1461023057806350fb95e3146102435761018e565b80630ad5be91146101935780630eb7bc8f146101a85780631118127a146101bb5780631a4c85be146101ce5780631b8f47fe146101e1578063369bfce4146101f4575b600080fd5b6101a66101a1366004613200565b6103e0565b005b6101a66101b63660046133ee565b610536565b6101a66101c93660046134d2565b6105c1565b6101a66101dc3660046133ba565b6107af565b6101a66101ef36600461318a565b610860565b6101a66102023660046133ee565b6108f1565b61021a6102153660046133ba565b61098b565b6040516102279190613f10565b60405180910390f35b6101a661023e366004613164565b610a82565b6101a66102513660046133ee565b610ace565b6102696102643660046133ba565b610bb1565b6040516102279190613f51565b6101a661028436600461344b565b610c26565b6101a66102973660046134d2565b610cd0565b61021a610e37565b6102b76102b236600461318a565b610f8c565b604051610227919061402f565b6102cc611716565b6040516102279190613eff565b6101a66102e73660046131c6565b611799565b6102ff6102fa3660046133ba565b611895565b6040516102279190613f32565b6101a661031a3660046133ba565b611b53565b610327611c61565b6040516102279190613ef1565b6101a66103423660046132f8565b611c70565b61021a61035536600461318a565b611d77565b61036d61036836600461318a565b611e57565b6040516102279190614060565b61038d61038836600461318a565b612169565b6040516102279190613f43565b6101a66103a8366004613373565b612196565b6103c06103bb36600461318a565b612228565b6040516102279190613f21565b6101a66103db3660046131c6565b6124ca565b866103ea81612169565b61040f5760405162461bcd60e51b81526004016104069061401f565b60405180910390fd5b8451845111156104315760405162461bcd60e51b815260040161040690613faf565b600061043d8888612555565b121561047a576000878152600b602090815260408220805460018101808355918452928290208951919361047793910191908a019061287f565b50505b60098660405161048a9190613ed9565b90815260408051918290036020908101832060808401835288845283820188905291830186905260608301859052815460018101808455600093845292829020845180519495946004909302909101926104e9928492909101906128fd565b50602082810151805161050292600185019201906128fd565b506040820151805161051e91600284019160209091019061287f565b50606082015181600301555050505050505050505050565b6000546001600160a01b031633146105605760405162461bcd60e51b815260040161040690613fbf565b8161056a8161266a565b6105865760405162461bcd60e51b815260040161040690613fdf565b81600760006105948661268b565b60ff1660ff16815260200190815260200160002090805190602001906105bb92919061287f565b50505050565b60008181526001602052604090205460ff16156105f05760405162461bcd60e51b815260040161040690613fef565b600081815260046020908152604090912083518051859361061592849291019061287f565b50602082810151805161062e926001850192019061287f565b506040820151805161064a91600284019160209091019061287f565b506060820151805161066691600384019160209091019061287f565b50608082015161067c9060048301906002612956565b5060a0820151805161069891600684019160209091019061287f565b5060c082015180516106b491600784019160209091019061287f565b5060e082015180516106d091600884019160209091019061287f565b5061010082015180516106ed91600984019160209091019061287f565b50610120820151805161070a91600a8401916020909101906128fd565b50610140820151805161072791600b840191602090910190612996565b50905050600061073682612775565b121561077257600580546001810182556000919091527f036b6384b5eca791c62761152d0c79bb0604c104a5fb6f4eb0703f3154bb3db0018190555b7fbcb28ce223d1d07df7ff015302f0aee0306ad6362ede3db7aa3c6d40a651f00882826040516107a3929190614040565b60405180910390a15050565b6000546001600160a01b031633146107d95760405162461bcd60e51b815260040161040690613fbf565b806107e38161266a565b6107ff5760405162461bcd60e51b815260040161040690613fdf565b604051806020016040528060008152506007600061081c8561268b565b60ff1660ff168152602001908152602001600020908051906020019061084392919061287f565b50506006805460ff19811660ff9182166000190190911617905550565b6000546001600160a01b0316331461088a5760405162461bcd60e51b815260040161040690613fbf565b600061089582612775565b905060008112156108b85760405162461bcd60e51b815260040161040690613f8f565b6000828152600160208190526040909120805460ff1916909117905560058054829081106108e257fe5b60009182526020822001555050565b6000546001600160a01b0316331461091b5760405162461bcd60e51b815260040161040690613fbf565b818161092782826127bb565b6109435760405162461bcd60e51b815260040161040690613fcf565b6008846040516109539190613ed9565b908152602001604051809103902061096b85856127d1565b8154811061097557fe5b9060005260206000200160006105bb91906129ef565b606060088260405161099d9190613ed9565b9081526020016040518091039020805480602002602001604051908101604052809291908181526020016000905b82821015610a765760008481526020908190208301805460408051601f6002600019610100600187161502019094169390930492830185900485028101850190915281815292830182828015610a625780601f10610a3757610100808354040283529160200191610a62565b820191906000526020600020905b815481529060010190602001808311610a4557829003601f168201915b5050505050815260200190600101906109cb565b5050505090505b919050565b6000546001600160a01b03163314610aac5760405162461bcd60e51b815260040161040690613fbf565b600080546001600160a01b0319166001600160a01b0392909216919091179055565b8160ff600882604051610ae19190613ed9565b9081526040519081900360200190205410610b0e5760405162461bcd60e51b815260040161040690613f9f565b8282610b1a82826127bb565b15610b375760405162461bcd60e51b815260040161040690613f7f565b6000546001600160a01b03163314610b615760405162461bcd60e51b815260040161040690613fbf565b600885604051610b719190613ed9565b9081526040516020918190038201902080546001810180835560009283529183902087519293610ba893919092019188019061287f565b50505050505050565b6000600282604051602001610bc69190613ed9565b60408051601f1981840301815290829052610be091613ed9565b602060405180830381855afa158015610bfd573d6000803e3d6000fd5b5050506040513d601f19601f82011682018060405250610c2091908101906131a8565b92915050565b8282610c3282826127bb565b610c4e5760405162461bcd60e51b815260040161040690613fcf565b6000546001600160a01b03163314610c785760405162461bcd60e51b815260040161040690613fbf565b82600886604051610c899190613ed9565b9081526020016040518091039020610ca187876127d1565b81548110610cab57fe5b906000526020600020019080519060200190610cc892919061287f565b505050505050565b600081815260016020526040902054819060ff16610d005760405162461bcd60e51b815260040161040690613f6f565b6000828152600460209081526040909120845180518693610d2592849291019061287f565b506020828101518051610d3e926001850192019061287f565b5060408201518051610d5a91600284019160209091019061287f565b5060608201518051610d7691600384019160209091019061287f565b506080820151610d8c9060048301906002612956565b5060a08201518051610da891600684019160209091019061287f565b5060c08201518051610dc491600784019160209091019061287f565b5060e08201518051610de091600884019160209091019061287f565b506101008201518051610dfd91600984019160209091019061287f565b506101208201518051610e1a91600a8401916020909101906128fd565b506101408201518051610cc891600b840191602090910190612996565b6006546040805160ff909216808352602080820284010190915260609182918015610e7657816020015b6060815260200190600190039081610e615790505b5090506000805b60065460ff61010090910481169082161015610f835760ff81166000908152600760205260409020546002600019610100600184161502019091160415610f7b5760ff811660009081526007602090815260409182902080548351601f600260001961010060018616150201909316929092049182018490048402810184019094528084529091830182828015610f555780601f10610f2a57610100808354040283529160200191610f55565b820191906000526020600020905b815481529060010190602001808311610f3857829003601f168201915b5050505050838380600101945060ff1681518110610f6f57fe5b60200260200101819052505b600101610e7d565b50909150505b90565b610f94612a36565b6000828152600460209081526040918290208251815460026001821615610100026000190190911604601f8101849004909302810161018090810190945261016081018381529093919284928491908401828280156110345780601f1061100957610100808354040283529160200191611034565b820191906000526020600020905b81548152906001019060200180831161101757829003601f168201915b50505050508152602001600182018054600181600116156101000203166002900480601f0160208091040260200160405190810160405280929190818152602001828054600181600116156101000203166002900480156110d65780601f106110ab576101008083540402835291602001916110d6565b820191906000526020600020905b8154815290600101906020018083116110b957829003601f168201915b5050509183525050600282810180546040805160206001841615610100026000190190931694909404601f810183900483028501830190915280845293810193908301828280156111685780601f1061113d57610100808354040283529160200191611168565b820191906000526020600020905b81548152906001019060200180831161114b57829003601f168201915b505050918352505060038201805460408051602060026001851615610100026000190190941693909304601f81018490048402820184019092528181529382019392918301828280156111fc5780601f106111d1576101008083540402835291602001916111fc565b820191906000526020600020905b8154815290600101906020018083116111df57829003601f168201915b5050509183525050604080518082019091526020909101906004830160026000835b828210156112c157838201805460408051602060026001851615610100026000190190941693909304601f810184900484028201840190925281815292918301828280156112ad5780601f10611282576101008083540402835291602001916112ad565b820191906000526020600020905b81548152906001019060200180831161129057829003601f168201915b50505050508152602001906001019061121e565b5050509082525060068201805460408051602060026001851615610100026000190190941693909304601f81018490048402820184019092528181529382019392918301828280156113545780601f1061132957610100808354040283529160200191611354565b820191906000526020600020905b81548152906001019060200180831161133757829003601f168201915b505050918352505060078201805460408051602060026001851615610100026000190190941693909304601f81018490048402820184019092528181529382019392918301828280156113e85780601f106113bd576101008083540402835291602001916113e8565b820191906000526020600020905b8154815290600101906020018083116113cb57829003601f168201915b505050918352505060088201805460408051602060026001851615610100026000190190941693909304601f810184900484028201840190925281815293820193929183018282801561147c5780601f106114515761010080835404028352916020019161147c565b820191906000526020600020905b81548152906001019060200180831161145f57829003601f168201915b505050918352505060098201805460408051602060026001851615610100026000190190941693909304601f81018490048402820184019092528181529382019392918301828280156115105780601f106114e557610100808354040283529160200191611510565b820191906000526020600020905b8154815290600101906020018083116114f357829003601f168201915b50505050508152602001600a8201805480602002602001604051908101604052809291908181526020016000905b828210156115e95760008481526020908190208301805460408051601f60026000196101006001871615020190941693909304928301859004850281018501909152818152928301828280156115d55780601f106115aa576101008083540402835291602001916115d5565b820191906000526020600020905b8154815290600101906020018083116115b857829003601f168201915b50505050508152602001906001019061153e565b505050508152602001600b8201805480602002602001604051908101604052809291908181526020016000905b8282101561170857838290600052602060002001805480602002602001604051908101604052809291908181526020016000905b828210156116f55760008481526020908190208301805460408051601f60026000196101006001871615020190941693909304928301859004850281018501909152818152928301828280156116e15780601f106116b6576101008083540402835291602001916116e1565b820191906000526020600020905b8154815290600101906020018083116116c457829003601f168201915b50505050508152602001906001019061164a565b5050505081526020019060010190611616565b505050915250909392505050565b6000546060906001600160a01b031633146117435760405162461bcd60e51b815260040161040690613fbf565b600580548060200260200160405190810160405280929190818152602001828054801561178f57602002820191906000526020600020905b81548152602001906001019080831161177b575b5050505050905090565b600082815260016020526040902054829060ff166117c95760405162461bcd60e51b815260040161040690613f6f565b6000828152600160208181526040808420805460ff199081169094179055868452808420805490931690925584835260038152818320839055858352600290528082208483529120815461181d9290612a96565b50600083815260026020526040812061183591612ad6565b60005b6000838152600260205260409020548110156105bb57826003600060026000878152602001908152602001600020848154811061187157fe5b60009182526020808320909101548352820192909252604001902055600101611838565b60606009826040516118a79190613ed9565b9081526020016040518091039020805480602002602001604051908101604052809291908181526020016000905b82821015610a76578382906000526020600020906004020160405180608001604052908160008201805480602002602001604051908101604052809291908181526020016000905b828210156119c85760008481526020908190208301805460408051601f60026000196101006001871615020190941693909304928301859004850281018501909152818152928301828280156119b45780601f10611989576101008083540402835291602001916119b4565b820191906000526020600020905b81548152906001019060200180831161199757829003601f168201915b50505050508152602001906001019061191d565b50505050815260200160018201805480602002602001604051908101604052809291908181526020016000905b82821015611aa05760008481526020908190208301805460408051601f6002600019610100600187161502019094169390930492830185900485028101850190915281815292830182828015611a8c5780601f10611a6157610100808354040283529160200191611a8c565b820191906000526020600020905b815481529060010190602001808311611a6f57829003601f168201915b5050505050815260200190600101906119f5565b50505090825250600282810180546040805160206001841615610100026000190190931694909404601f81018390048302850183019091528084529381019390830182828015611b315780601f10611b0657610100808354040283529160200191611b31565b820191906000526020600020905b815481529060010190602001808311611b1457829003601f168201915b50505050508152602001600382015481525050815260200190600101906118d5565b6000546001600160a01b03163314611b7d5760405162461bcd60e51b815260040161040690613fbf565b80611b878161266a565b15611ba45760405162461bcd60e51b815260040161040690613fff565b60065460ff6101008204811691161115611bd05760405162461bcd60e51b81526004016104069061400f565b60005b60065460ff61010090910481169082161015611c5b5760ff811660009081526007602052604090205460026000196101006001841615020190911604611c535760ff811660009081526007602090815260409091208451611c369286019061287f565b50506006805460ff8082166001011660ff19909116179055611c5d565b600101611bd3565b505b5050565b6000546001600160a01b031681565b80600c83604051611c819190613ed9565b90815260200160405180910390206000820151816000019080519060200190611cab92919061287f565b506020828101518051611cc4926001850192019061287f565b5060408201518051611ce091600284019160209091019061287f565b509050506000611cf08484612555565b90506000811215611d36576000848152600b6020908152604082208054600181018083559184529282902086519193611d2f939101919087019061287f565b50506105bb565b6000848152600b60205260409020805484919083908110611d5357fe5b906000526020600020019080519060200190611d7092919061287f565b5050505050565b6060600b6000838152602001908152602001600020805480602002602001604051908101604052809291908181526020016000905b82821015610a765760008481526020908190208301805460408051601f6002600019610100600187161502019094169390930492830185900485028101850190915281815292830182828015611e435780601f10611e1857610100808354040283529160200191611e43565b820191906000526020600020905b815481529060010190602001808311611e2657829003601f168201915b505050505081526020019060010190611dac565b611e5f612af4565b6000828152600a60209081526040918290208251815460026001821615610100026000190190911604601f8101849004909302810160c090810190945260a08101838152909391928492849190840182828015611efd5780601f10611ed257610100808354040283529160200191611efd565b820191906000526020600020905b815481529060010190602001808311611ee057829003601f168201915b50505050508152602001600182018054600181600116156101000203166002900480601f016020809104026020016040519081016040528092919081815260200182805460018160011615610100020316600290048015611f9f5780601f10611f7457610100808354040283529160200191611f9f565b820191906000526020600020905b815481529060010190602001808311611f8257829003601f168201915b5050509183525050600282810180546040805160206001841615610100026000190190931694909404601f810183900483028501830190915280845293810193908301828280156120315780601f1061200657610100808354040283529160200191612031565b820191906000526020600020905b81548152906001019060200180831161201457829003601f168201915b505050918352505060038201805460408051602060026001851615610100026000190190941693909304601f81018490048402820184019092528181529382019392918301828280156120c55780601f1061209a576101008083540402835291602001916120c5565b820191906000526020600020905b8154815290600101906020018083116120a857829003601f168201915b505050918352505060048201805460408051602060026001851615610100026000190190941693909304601f81018490048402820184019092528181529382019392918301828280156121595780601f1061212e57610100808354040283529160200191612159565b820191906000526020600020905b81548152906001019060200180831161213c57829003601f168201915b5050505050815250509050919050565b60008181526001602052604081205460ff1680610c20575050600090815260036020526040902054151590565b6000828152600a602090815260409091208251805184936121bb92849291019061287f565b5060208281015180516121d4926001850192019061287f565b50604082015180516121f091600284019160209091019061287f565b506060820151805161220c91600384019160209091019061287f565b5060808201518051611d7091600484019160209091019061287f565b606080600b60008481526020019081526020016000208054905060405190808252806020026020018201604052801561227b57816020015b612268612b23565b8152602001906001900390816122605790505b50905060005b6000848152600b60205260409020548110156124c3576000848152600b602052604090208054600c9190839081106122b557fe5b906000526020600020016040516122cc9190613ee5565b9081526040805160209281900383018120805460026001821615610100026000190190911604601f810185900490940282016080908101909352606082018481529193909284929184918401828280156123675780601f1061233c57610100808354040283529160200191612367565b820191906000526020600020905b81548152906001019060200180831161234a57829003601f168201915b50505050508152602001600182018054600181600116156101000203166002900480601f0160208091040260200160405190810160405280929190818152602001828054600181600116156101000203166002900480156124095780601f106123de57610100808354040283529160200191612409565b820191906000526020600020905b8154815290600101906020018083116123ec57829003601f168201915b5050509183525050600282810180546040805160206001841615610100026000190190931694909404601f8101839004830285018301909152808452938101939083018282801561249b5780601f106124705761010080835404028352916020019161249b565b820191906000526020600020905b81548152906001019060200180831161247e57829003601f168201915b5050505050815250508282815181106124b057fe5b6020908102919091010152600101612281565b5092915050565b600082815260016020526040902054829060ff166124fa5760405162461bcd60e51b815260040161040690613f6f565b600082815260036020526040902054156125265760405162461bcd60e51b815260040161040690613f5f565b506000828152600260209081526040808320805460018101825590845282842001849055928252600390522055565b6000805b6000848152600b60205260409020546001600160801b038216101561265f576125818361284f565b6000858152600b60205260409020805461264191906001600160801b0385169081106125a957fe5b600091825260209182902001805460408051601f60026000196101006001871615020190941693909304928301859004850281018501909152818152928301828280156126375780601f1061260c57610100808354040283529160200191612637565b820191906000526020600020905b81548152906001019060200180831161261a57829003601f168201915b505050505061284f565b1415612657576001600160801b03169050610c20565b600101612559565b506000199392505050565b600654600090610100900460ff166126818361268b565b60ff161092915050565b6000806126978361284f565b905060005b60065460ff6101009091048116908216101561276b5760ff81166000908152600760205260409020546002600019610100600184161502019091160415801590612755575060ff81166000908152600760209081526040918290208054835160026001831615610100026000190190921691909104601f81018490048402820184019094528381528593612753939192918301828280156126375780601f1061260c57610100808354040283529160200191612637565b145b15612763579150610a7d9050565b60010161269c565b5060ff9392505050565b6000805b6005548110156127b157826005828154811061279157fe5b906000526020600020015414156127a9579050610a7d565b600101612779565b5060001992915050565b600060ff6127c984846127d1565b109392505050565b6000805b6008846040516127e59190613ed9565b9081526040519081900360200190205460ff8216101561276b576128088361284f565b61283760088660405161281b9190613ed9565b90815260200160405180910390208360ff16815481106125a957fe5b14156128475760ff169050610c20565b6001016127d5565b6000816040516020016128629190613ed9565b604051602081830303815290604052805190602001209050919050565b828054600181600116156101000203166002900490600052602060002090601f016020900481019282601f106128c057805160ff19168380011785556128ed565b828001600101855582156128ed579182015b828111156128ed5782518255916020019190600101906128d2565b506128f9929150612b44565b5090565b82805482825590600052602060002090810192821561294a579160200282015b8281111561294a578251805161293a91849160209091019061287f565b509160200191906001019061291d565b506128f9929150612b5e565b826002810192821561294a579160200282015b8281111561294a578251805161298691849160209091019061287f565b5091602001919060010190612969565b8280548282559060005260206000209081019282156129e3579160200282015b828111156129e357825180516129d39184916020909101906128fd565b50916020019190600101906129b6565b506128f9929150612b81565b50805460018160011615610100020316600290046000825580601f10612a155750612a33565b601f016020900490600052602060002090810190612a339190612b44565b50565b60405180610160016040528060608152602001606081526020016060815260200160608152602001612a66612ba4565b81526020016060815260200160608152602001606081526020016060815260200160608152602001606081525090565b8280548282559060005260206000209081019282156128ed5760005260206000209182015b828111156128ed578254825591600101919060010190612abb565b5080546000825590600052602060002090810190612a339190612b44565b6040518060a0016040528060608152602001606081526020016060815260200160608152602001606081525090565b60405180606001604052806060815260200160608152602001606081525090565b610f8991905b808211156128f95760008155600101612b4a565b610f8991905b808211156128f9576000612b7882826129ef565b50600101612b64565b610f8991905b808211156128f9576000612b9b8282612bcb565b50600101612b87565b60405180604001604052806002905b6060815260200190600190039081612bb35790505090565b5080546000825590600052602060002090810190612a339190612b5e565b8035610c208161417e565b600082601f830112612c0557600080fd5b8135612c18612c1382614097565b614071565b81815260209384019390925082018360005b83811015612c565781358601612c408882612cb2565b8452506020928301929190910190600101612c2a565b5050505092915050565b600082601f830112612c7157600080fd5b6002612c7f612c13826140b7565b9150818360005b83811015612c565781358601612c9c8882612d82565b8452506020928301929190910190600101612c86565b600082601f830112612cc357600080fd5b8135612cd1612c1382614097565b81815260209384019390925082018360005b83811015612c565781358601612cf98882612d82565b8452506020928301929190910190600101612ce3565b600082601f830112612d2057600080fd5b8135612d2e612c1382614097565b81815260209384019390925082018360005b83811015612c565781358601612d568882612d82565b8452506020928301929190910190600101612d40565b8035610c2081614192565b8051610c2081614192565b600082601f830112612d9357600080fd5b8135612da1612c13826140d4565b91508082526020830160208301858383011115612dbd57600080fd5b612dc883828461413c565b50505092915050565b600060608284031215612de357600080fd5b612ded6060614071565b905081356001600160401b03811115612e0557600080fd5b612e1184828501612d82565b82525060208201356001600160401b03811115612e2d57600080fd5b612e3984828501612d82565b60208301525060408201356001600160401b03811115612e5857600080fd5b612e6484828501612d82565b60408301525092915050565b60006101608284031215612e8357600080fd5b612e8e610160614071565b905081356001600160401b03811115612ea657600080fd5b612eb284828501612d82565b82525060208201356001600160401b03811115612ece57600080fd5b612eda84828501612d82565b60208301525060408201356001600160401b03811115612ef957600080fd5b612f0584828501612d82565b60408301525060608201356001600160401b03811115612f2457600080fd5b612f3084828501612d82565b60608301525060808201356001600160401b03811115612f4f57600080fd5b612f5b84828501612c60565b60808301525060a08201356001600160401b03811115612f7a57600080fd5b612f8684828501612d82565b60a08301525060c08201356001600160401b03811115612fa557600080fd5b612fb184828501612d82565b60c08301525060e08201356001600160401b03811115612fd057600080fd5b612fdc84828501612d82565b60e0830152506101008201356001600160401b03811115612ffc57600080fd5b61300884828501612d82565b610100830152506101208201356001600160401b0381111561302957600080fd5b61303584828501612cb2565b610120830152506101408201356001600160401b0381111561305657600080fd5b61306284828501612bf4565b6101408301525092915050565b600060a0828403121561308157600080fd5b61308b60a0614071565b905081356001600160401b038111156130a357600080fd5b6130af84828501612d82565b82525060208201356001600160401b038111156130cb57600080fd5b6130d784828501612d82565b60208301525060408201356001600160401b038111156130f657600080fd5b61310284828501612d82565b60408301525060608201356001600160401b0381111561312157600080fd5b61312d84828501612d82565b60608301525060808201356001600160401b0381111561314c57600080fd5b61315884828501612d82565b60808301525092915050565b60006020828403121561317657600080fd5b60006131828484612be9565b949350505050565b60006020828403121561319c57600080fd5b60006131828484612d6c565b6000602082840312156131ba57600080fd5b60006131828484612d77565b600080604083850312156131d957600080fd5b60006131e58585612d6c565b92505060206131f685828601612d6c565b9150509250929050565b600080600080600080600060e0888a03121561321b57600080fd5b60006132278a8a612d6c565b97505060206132388a828b01612d6c565b96505060408801356001600160401b0381111561325457600080fd5b6132608a828b01612d82565b95505060608801356001600160401b0381111561327c57600080fd5b6132888a828b01612d0f565b94505060808801356001600160401b038111156132a457600080fd5b6132b08a828b01612d0f565b93505060a08801356001600160401b038111156132cc57600080fd5b6132d88a828b01612d82565b92505060c06132e98a828b01612d6c565b91505092959891949750929550565b60008060006060848603121561330d57600080fd5b60006133198686612d6c565b93505060208401356001600160401b0381111561333557600080fd5b61334186828701612d82565b92505060408401356001600160401b0381111561335d57600080fd5b61336986828701612dd1565b9150509250925092565b6000806040838503121561338657600080fd5b60006133928585612d6c565b92505060208301356001600160401b038111156133ae57600080fd5b6131f68582860161306f565b6000602082840312156133cc57600080fd5b81356001600160401b038111156133e257600080fd5b61318284828501612d82565b6000806040838503121561340157600080fd5b82356001600160401b0381111561341757600080fd5b61342385828601612d82565b92505060208301356001600160401b0381111561343f57600080fd5b6131f685828601612d82565b60008060006060848603121561346057600080fd5b83356001600160401b0381111561347657600080fd5b61348286828701612d82565b93505060208401356001600160401b0381111561349e57600080fd5b6134aa86828701612d82565b92505060408401356001600160401b038111156134c657600080fd5b61336986828701612d82565b600080604083850312156134e557600080fd5b82356001600160401b038111156134fb57600080fd5b6131e585828601612e70565b600061351383836136ea565b9392505050565b60006135268383613816565b505060200190565b6000613513838361384e565b60006135138383613c78565b60006135138383613df0565b61355b81614120565b82525050565b600061356c8261410d565b6135768185614117565b935083602082028501613588856140fb565b8060005b858110156135c257848403895281516135a58582613507565b94506135b0836140fb565b60209a909a019992505060010161358c565b5091979650505050505050565b60006135da8261410d565b6135e48185614117565b93506135ef836140fb565b8060005b8381101561361d578151613607888261351a565b9750613612836140fb565b9250506001016135f3565b509495945050505050565b600061363382614111565b61363d8185610a7d565b93508360208202850161364f85610f89565b8060005b858110156135c2578484038952815161366c858261352e565b9450613677836140fb565b60209a909a0199925050600101613653565b60006136948261410d565b61369e8185614117565b9350836020820285016136b0856140fb565b8060005b858110156135c257848403895281516136cd858261352e565b94506136d8836140fb565b60209a909a01999250506001016136b4565b60006136f58261410d565b6136ff8185614117565b935083602082028501613711856140fb565b8060005b858110156135c2578484038952815161372e858261352e565b9450613739836140fb565b60209a909a0199925050600101613715565b60006137568261410d565b6137608185614117565b935083602082028501613772856140fb565b8060005b858110156135c2578484038952815161378f858261353a565b945061379a836140fb565b60209a909a0199925050600101613776565b60006137b78261410d565b6137c18185614117565b9350836020820285016137d3856140fb565b8060005b858110156135c257848403895281516137f08582613546565b94506137fb836140fb565b60209a909a01999250506001016137d7565b61355b8161412b565b61355b81610f89565b600061382a8261410d565b6138348185610a7d565b9350613844818560208601614148565b9290920192915050565b60006138598261410d565b6138638185614117565b9350613873818560208601614148565b61387c81614174565b9093019392505050565b6000815460018116600081146138a357600181146138c657613905565b607f60028304166138b48187610a7d565b60ff1984168152955085019250613905565b600282046138d48187610a7d565b95506138df85614101565b60005b828110156138fe578154888201526001909101906020016138e2565b5050850192505b505092915050565b600061391a602183614117565b7f5468617420656d706c6f79656520616c726561647920776f726b7320746865728152606560f81b602082015260400192915050565b600061395d602983614117565b7f596f75206d7573742062652061206465616c657273686970206f776e657220748152686f20646f207468697360b81b602082015260400192915050565b60006139a8601e83614117565b7f54686174207375627365727669636520616c7265616479206578697374730000815260200192915050565b60006139e1602183614117565b7f4e6f206170706c69636174696f6e2065786973747320666f72207468617420698152601960fa1b602082015260400192915050565b6000613a24602183614117565b7f4d6178696d756d207375627365727669636520616d6f756e74207265616368658152601960fa1b602082015260400192915050565b6000613a67603383614117565b7f4e756d626572206f6620737562736572766963657320646f6573206e6f74206d8152720c2e8c6d040e6cae4ecd2c6ca40d8cadccee8d606b1b602082015260400192915050565b6000613abc601583614117565b742cb7ba9030b932903737ba103a34329037bbb732b960591b815260200192915050565b6000613aed602c83614117565b7f54686174207375627365727669636520646f65736e7420657869737420696e2081526b1d1a1a5cc818dbdb9d195e1d60a21b602082015260400192915050565b6000613b3b601b83614117565b7f54686174207365727669636520646f6573206e6f742065786973740000000000815260200192915050565b6000613b74602283614117565b7f54686174206164647265737320697320616c7265616479207265676973746572815261195960f21b602082015260400192915050565b6000613bb8601b83614117565b7f54686174207365727669636520616c7265616479206578697374730000000000815260200192915050565b6000613bf1602883614117565b7f54686572652061726520746865206d6178696d756d206e756d626572206f6620815267736572766963657360c01b602082015260400192915050565b6000613c3b602883614117565b7f596f75206d7573742062652061207665726966696564206465616c657220746f81526720646f207468697360c01b602082015260400192915050565b8051606080845260009190840190613c90828261384e565b91505060208301518482036020860152613caa828261384e565b91505060408301518482036040860152613cc4828261384e565b95945050505050565b805161016080845260009190840190613ce6828261384e565b91505060208301518482036020860152613d00828261384e565b91505060408301518482036040860152613d1a828261384e565b91505060608301518482036060860152613d34828261384e565b91505060808301518482036080860152613d4e8282613628565b91505060a083015184820360a0860152613d68828261384e565b91505060c083015184820360c0860152613d82828261384e565b91505060e083015184820360e0860152613d9c828261384e565b915050610100830151848203610100860152613db8828261384e565b915050610120830151848203610120860152613dd482826136ea565b915050610140830151848203610140860152613cc48282613561565b8051608080845260009190840190613e0882826136ea565b91505060208301518482036020860152613e2282826136ea565b91505060408301518482036040860152613e3c828261384e565b9150506060830151613e516060860182613816565b509392505050565b805160a080845260009190840190613e71828261384e565b91505060208301518482036020860152613e8b828261384e565b91505060408301518482036040860152613ea5828261384e565b91505060608301518482036060860152613ebf828261384e565b91505060808301518482036080860152613cc4828261384e565b6000613513828461381f565b60006135138284613886565b60208101610c208284613552565b6020808252810161351381846135cf565b602080825281016135138184613689565b60208082528101613513818461374b565b6020808252810161351381846137ac565b60208101610c20828461380d565b60208101610c208284613816565b60208082528101610c208161390d565b60208082528101610c2081613950565b60208082528101610c208161399b565b60208082528101610c20816139d4565b60208082528101610c2081613a17565b60208082528101610c2081613a5a565b60208082528101610c2081613aaf565b60208082528101610c2081613ae0565b60208082528101610c2081613b2e565b60208082528101610c2081613b67565b60208082528101610c2081613bab565b60208082528101610c2081613be4565b60208082528101610c2081613c2e565b602080825281016135138184613ccd565b604080825281016140518185613ccd565b90506135136020830184613816565b602080825281016135138184613e59565b6040518181016001600160401b038111828210171561408f57600080fd5b604052919050565b60006001600160401b038211156140ad57600080fd5b5060209081020190565b60006001600160401b038211156140cd57600080fd5b5060200290565b60006001600160401b038211156140ea57600080fd5b506020601f91909101601f19160190565b60200190565b60009081526020902090565b5190565b50600290565b90815260200190565b6000610c2082614130565b151590565b6001600160a01b031690565b82818337506000910152565b60005b8381101561416357818101518382015260200161414b565b838111156105bb5750506000910152565b601f01601f191690565b61418781614120565b8114612a3357600080fd5b61418781610f8956fea365627a7a72315820cae5e0fe86b20ded53f1dcc83c6f8ffeaa7114406da6f78395bdfd38b715b8536c6578706572696d656e74616cf564736f6c634300050c0040",
  "source": "pragma solidity ^0.5.11;\npragma experimental ABIEncoderV2;\n\nimport \"./ServiceHandler.sol\";\n\ncontract UserContract is ServiceHandler {\n\n    struct RecordInternal {\n        string[] services;\n        string[] subservices;\n        string comment;\n        uint timeStamp;\n    }\n    struct UserInfo {\n        string firstName;\n        string lastName;\n        string adr;\n        string phNo;\n        string email;\n    }\n    struct CarInfo{\n        string brand;\n        string model;\n        string year;\n    }\n\n    //------------------------------------------------------------_Records_---------------------------------------------\n\n    mapping(string => RecordInternal[]) private records;\n    mapping(bytes32 => UserInfo) private userInfoRecords;\n    mapping(bytes32 => string[]) private userCars;\n    mapping(string => CarInfo) private carDetails;\n\n    modifier carExists(string memory noPlate) {\n        require(bytes(carDetails[noPlate].brand).length > 0,\"That car does not exist in the chain\");\n        _;\n    }\n\n    function editUserInfo(bytes32 userId, UserInfo memory info) public {\n        userInfoRecords[userId] = info;\n    }\n\n    function getUserInfo(bytes32 userId) public view returns(UserInfo memory) {\n        return userInfoRecords[userId];\n    }\n\n    function editCarDetails(bytes32 userId, string memory noPlate, CarInfo memory carInfo) public{\n        carDetails[noPlate] = carInfo;\n        int index = getCarIndex(userId,noPlate);\n        if(index < 0){\n            userCars[userId].push(noPlate);\n        }\n        else{\n            userCars[userId][uint(index)] = noPlate;\n        }\n    }\n\n    function getCarIndex(bytes32 userId, string memory noPlate) internal view returns (int){\n        for(uint128 i = 0; i < userCars[userId].length; i++) {\n            if(encode(userCars[userId][i]) == encode(noPlate)) return i;\n        }\n        return -1;\n    }\n\n    function getCarPlates(bytes32 userId) public view returns (string[] memory) {\n        return userCars[userId];\n    }\n\n    function getCars(bytes32 userId) public view returns(CarInfo[] memory){\n        CarInfo[] memory cars = new CarInfo[](userCars[userId].length);\n        for(uint i = 0; i < userCars[userId].length;i++) {\n            cars[i] = carDetails[userCars[userId][i]];\n        }\n        return cars;\n    }\n\n    function insertRecord(bytes32 dealerId, bytes32 id, string memory noPlate,\n     string[] memory services, string[] memory subservices, string memory comment, uint timeStamp)\n        public verified(dealerId) {\n        require(subservices.length <= services.length,\"Number of subservices does not match service length\");\n        if(getCarIndex(id,noPlate) < 0){\n            userCars[id].push(noPlate);\n        }\n        records[noPlate].push(RecordInternal(services,subservices,comment,timeStamp));\n    }\n\n    function getRecords(string memory noPlate) public view returns (RecordInternal[] memory) {\n        return records[noPlate];\n    }\n\n}\n",
  "sourcePath": "/Users/natwit/repos/blockchain-project-2019/contracts/UserContract.sol",
  "compiler": {
    "name": "solc",
    "version": "0.5.12+commit.7709ece9.Emscripten.clang"
  },
  "schemaVersion": "3.0.19",
  "updatedAt": "2019-11-28T19:37:33.569Z",
  "networkType": "ethereum",
  "devdoc": {
    "methods": {}
  },
  "userdoc": {
    "methods": {}
  }
}