{
  "contractName": "DealerContract",
  "abi": [
    {
      "constant": true,
      "inputs": [
        {
          "internalType": "string",
          "name": "id",
          "type": "string"
        }
      ],
      "name": "getHash",
      "outputs": [
        {
          "internalType": "bytes32",
          "name": "",
          "type": "bytes32"
        }
      ],
      "payable": false,
      "stateMutability": "pure",
      "type": "function"
    },
    {
      "constant": true,
      "inputs": [],
      "name": "owner",
      "outputs": [
        {
          "internalType": "address",
          "name": "",
          "type": "address"
        }
      ],
      "payable": false,
      "stateMutability": "view",
      "type": "function"
    },
    {
      "constant": false,
      "inputs": [
        {
          "internalType": "address",
          "name": "newOwner",
          "type": "address"
        }
      ],
      "name": "transferOwner",
      "outputs": [],
      "payable": false,
      "stateMutability": "nonpayable",
      "type": "function"
    },
    {
      "constant": false,
      "inputs": [
        {
          "components": [
            {
              "internalType": "string",
              "name": "dealerName",
              "type": "string"
            }
          ],
          "internalType": "struct DealerContract.DealerInfo",
          "name": "info",
          "type": "tuple"
        },
        {
          "internalType": "bytes32",
          "name": "id",
          "type": "bytes32"
        }
      ],
      "name": "dealerApplication",
      "outputs": [],
      "payable": false,
      "stateMutability": "nonpayable",
      "type": "function"
    },
    {
      "constant": false,
      "inputs": [
        {
          "internalType": "bytes32",
          "name": "dealershipId",
          "type": "bytes32"
        },
        {
          "internalType": "bytes32",
          "name": "otherId",
          "type": "bytes32"
        }
      ],
      "name": "transferDealershipOwner",
      "outputs": [],
      "payable": false,
      "stateMutability": "nonpayable",
      "type": "function"
    },
    {
      "constant": true,
      "inputs": [],
      "name": "getAllDealerApplications",
      "outputs": [
        {
          "internalType": "bytes32[]",
          "name": "",
          "type": "bytes32[]"
        }
      ],
      "payable": false,
      "stateMutability": "view",
      "type": "function"
    },
    {
      "constant": false,
      "inputs": [
        {
          "internalType": "bytes32",
          "name": "adr",
          "type": "bytes32"
        }
      ],
      "name": "approveApplication",
      "outputs": [],
      "payable": false,
      "stateMutability": "nonpayable",
      "type": "function"
    },
    {
      "constant": true,
      "inputs": [
        {
          "internalType": "bytes32",
          "name": "adr",
          "type": "bytes32"
        }
      ],
      "name": "isVerified",
      "outputs": [
        {
          "internalType": "bool",
          "name": "",
          "type": "bool"
        }
      ],
      "payable": false,
      "stateMutability": "view",
      "type": "function"
    },
    {
      "constant": false,
      "inputs": [
        {
          "internalType": "bytes32",
          "name": "dealerId",
          "type": "bytes32"
        },
        {
          "internalType": "bytes32",
          "name": "adr",
          "type": "bytes32"
        }
      ],
      "name": "addDealerEmployee",
      "outputs": [],
      "payable": false,
      "stateMutability": "nonpayable",
      "type": "function"
    }
  ],
  "bytecode": "0x6080604052336000806101000a81548173ffffffffffffffffffffffffffffffffffffffff021916908373ffffffffffffffffffffffffffffffffffffffff160217905550611359806100536000396000f3fe608060405234801561001057600080fd5b50600436106100935760003560e01c806382d7afbd1161006657806382d7afbd1461011e5780638da5cb5b1461013a578063c181b27314610158578063e445268c14610188578063f66ffee7146101a457610093565b80631b8f47fe146100985780634fb2e45d146100b45780635b6beeb9146100d05780637e41667f14610100575b600080fd5b6100b260048036036100ad9190810190610c13565b6101c0565b005b6100ce60048036036100c99190810190610bea565b6102ea565b005b6100ea60048036036100e59190810190610ca1565b6103bc565b6040516100f791906110a8565b60405180910390f35b610108610434565b604051610115919061106b565b60405180910390f35b61013860048036036101339190810190610c65565b61051b565b005b6101426106b9565b60405161014f9190611050565b60405180910390f35b610172600480360361016d9190810190610c13565b6106de565b60405161017f919061108d565b60405180910390f35b6101a2600480360361019d9190810190610c65565b610729565b005b6101be60048036036101b99190810190610ce2565b61083d565b005b6000809054906101000a900473ffffffffffffffffffffffffffffffffffffffff1673ffffffffffffffffffffffffffffffffffffffff163373ffffffffffffffffffffffffffffffffffffffff161461024f576040517f08c379a000000000000000000000000000000000000000000000000000000000815260040161024690611123565b60405180910390fd5b600061025a82610902565b905060008112156102a0576040517f08c379a000000000000000000000000000000000000000000000000000000000815260040161029790611103565b60405180910390fd5b600180600084815260200190815260200160002060006101000a81548160ff021916908315150217905550600581815481106102d857fe5b90600052602060002001600090555050565b6000809054906101000a900473ffffffffffffffffffffffffffffffffffffffff1673ffffffffffffffffffffffffffffffffffffffff163373ffffffffffffffffffffffffffffffffffffffff1614610379576040517f08c379a000000000000000000000000000000000000000000000000000000000815260040161037090611123565b60405180910390fd5b806000806101000a81548173ffffffffffffffffffffffffffffffffffffffff021916908373ffffffffffffffffffffffffffffffffffffffff16021790555050565b60006002826040516020016103d19190611039565b6040516020818303038152906040526040516103ed9190611022565b602060405180830381855afa15801561040a573d6000803e3d6000fd5b5050506040513d601f19601f8201168201806040525061042d9190810190610c3c565b9050919050565b60606000809054906101000a900473ffffffffffffffffffffffffffffffffffffffff1673ffffffffffffffffffffffffffffffffffffffff163373ffffffffffffffffffffffffffffffffffffffff16146104c5576040517f08c379a00000000000000000000000000000000000000000000000000000000081526004016104bc90611123565b60405180910390fd5b600580548060200260200160405190810160405280929190818152602001828054801561051157602002820191906000526020600020905b8154815260200190600101908083116104fd575b5050505050905090565b816001600082815260200190815260200160002060009054906101000a900460ff1661057c576040517f08c379a0000000000000000000000000000000000000000000000000000000008152600401610573906110e3565b60405180910390fd5b600180600084815260200190815260200160002060006101000a81548160ff02191690831515021790555060006001600085815260200190815260200160002060006101000a81548160ff0219169083151502179055506000801b60036000848152602001908152602001600020819055506002600084815260200190815260200160002060026000848152602001908152602001600020908054610622929190610976565b5060026000848152602001908152602001600020600061064291906109c8565b60008090505b60026000848152602001908152602001600020805490508110156106b357826003600060026000878152602001908152602001600020848154811061068957fe5b90600052602060002001548152602001908152602001600020819055508080600101915050610648565b50505050565b6000809054906101000a900473ffffffffffffffffffffffffffffffffffffffff1681565b60006001600083815260200190815260200160002060009054906101000a900460ff168061072257506000801b600360008481526020019081526020016000205414155b9050919050565b816001600082815260200190815260200160002060009054906101000a900460ff1661078a576040517f08c379a0000000000000000000000000000000000000000000000000000000008152600401610781906110e3565b60405180910390fd5b6000801b600360008481526020019081526020016000205414156107e3576040517f08c379a00000000000000000000000000000000000000000000000000000000081526004016107da906110c3565b60405180910390fd5b60026000848152602001908152602001600020829080600181540180825580915050906001820390600052602060002001600090919290919091505550826003600084815260200190815260200160002081905550505050565b6001600082815260200190815260200160002060009054906101000a900460ff161561089e576040517f08c379a000000000000000000000000000000000000000000000000000000000815260040161089590611143565b60405180910390fd5b816004600083815260200190815260200160002060008201518160000190805190602001906108ce9291906109e9565b5090505060058190806001815401808255809150509060018203906000526020600020016000909192909190915055505050565b600080600090505b60058054905081101561094c57826005828154811061092557fe5b9060005260206000200154141561093f5780915050610971565b808060010191505061090a565b507fffffffffffffffffffffffffffffffffffffffffffffffffffffffffffffffff90505b919050565b8280548282559060005260206000209081019282156109b75760005260206000209182015b828111156109b657825482559160010191906001019061099b565b5b5090506109c49190610a69565b5090565b50805460008255906000526020600020908101906109e69190610a69565b50565b828054600181600116156101000203166002900490600052602060002090601f016020900481019282601f10610a2a57805160ff1916838001178555610a58565b82800160010185558215610a58579182015b82811115610a57578251825591602001919060010190610a3c565b5b509050610a659190610a8e565b5090565b610a8b91905b80821115610a87576000816000905550600101610a6f565b5090565b90565b610ab091905b80821115610aac576000816000905550600101610a94565b5090565b90565b600081359050610ac2816112e8565b92915050565b600081359050610ad7816112ff565b92915050565b600081519050610aec816112ff565b92915050565b600082601f830112610b0357600080fd5b8135610b16610b1182611190565b611163565b91508082526020830160208301858383011115610b3257600080fd5b610b3d8382846112a6565b50505092915050565b600082601f830112610b5757600080fd5b8135610b6a610b65826111bc565b611163565b91508082526020830160208301858383011115610b8657600080fd5b610b918382846112a6565b50505092915050565b600060208284031215610bac57600080fd5b610bb66020611163565b9050600082013567ffffffffffffffff811115610bd257600080fd5b610bde84828501610af2565b60008301525092915050565b600060208284031215610bfc57600080fd5b6000610c0a84828501610ab3565b91505092915050565b600060208284031215610c2557600080fd5b6000610c3384828501610ac8565b91505092915050565b600060208284031215610c4e57600080fd5b6000610c5c84828501610add565b91505092915050565b60008060408385031215610c7857600080fd5b6000610c8685828601610ac8565b9250506020610c9785828601610ac8565b9150509250929050565b600060208284031215610cb357600080fd5b600082013567ffffffffffffffff811115610ccd57600080fd5b610cd984828501610b46565b91505092915050565b60008060408385031215610cf557600080fd5b600083013567ffffffffffffffff811115610d0f57600080fd5b610d1b85828601610b9a565b9250506020610d2c85828601610ac8565b9150509250929050565b6000610d428383610dca565b60208301905092915050565b610d578161125e565b82525050565b6000610d68826111f8565b610d728185611226565b9350610d7d836111e8565b8060005b83811015610dae578151610d958882610d36565b9750610da083611219565b925050600181019050610d81565b5085935050505092915050565b610dc481611270565b82525050565b610dd38161127c565b82525050565b610de28161127c565b82525050565b6000610df382611203565b610dfd8185611237565b9350610e0d8185602086016112b5565b80840191505092915050565b6000610e248261120e565b610e2e8185611253565b9350610e3e8185602086016112b5565b80840191505092915050565b6000610e57602183611242565b91507f5468617420656d706c6f79656520616c726561647920776f726b73207468657260008301527f65000000000000000000000000000000000000000000000000000000000000006020830152604082019050919050565b6000610ebd602983611242565b91507f596f75206d7573742062652061206465616c657273686970206f776e6572207460008301527f6f20646f207468697300000000000000000000000000000000000000000000006020830152604082019050919050565b6000610f23602183611242565b91507f4e6f206170706c69636174696f6e2065786973747320666f722074686174206960008301527f64000000000000000000000000000000000000000000000000000000000000006020830152604082019050919050565b6000610f89601583611242565b91507f596f7520617265206e6f7420746865206f776e657200000000000000000000006000830152602082019050919050565b6000610fc9602283611242565b91507f54686174206164647265737320697320616c726561647920726567697374657260008301527f65640000000000000000000000000000000000000000000000000000000000006020830152604082019050919050565b600061102e8284610de8565b915081905092915050565b60006110458284610e19565b915081905092915050565b60006020820190506110656000830184610d4e565b92915050565b600060208201905081810360008301526110858184610d5d565b905092915050565b60006020820190506110a26000830184610dbb565b92915050565b60006020820190506110bd6000830184610dd9565b92915050565b600060208201905081810360008301526110dc81610e4a565b9050919050565b600060208201905081810360008301526110fc81610eb0565b9050919050565b6000602082019050818103600083015261111c81610f16565b9050919050565b6000602082019050818103600083015261113c81610f7c565b9050919050565b6000602082019050818103600083015261115c81610fbc565b9050919050565b6000604051905081810181811067ffffffffffffffff8211171561118657600080fd5b8060405250919050565b600067ffffffffffffffff8211156111a757600080fd5b601f19601f8301169050602081019050919050565b600067ffffffffffffffff8211156111d357600080fd5b601f19601f8301169050602081019050919050565b6000819050602082019050919050565b600081519050919050565b600081519050919050565b600081519050919050565b6000602082019050919050565b600082825260208201905092915050565b600081905092915050565b600082825260208201905092915050565b600081905092915050565b600061126982611286565b9050919050565b60008115159050919050565b6000819050919050565b600073ffffffffffffffffffffffffffffffffffffffff82169050919050565b82818337600083830152505050565b60005b838110156112d35780820151818401526020810190506112b8565b838111156112e2576000848401525b50505050565b6112f18161125e565b81146112fc57600080fd5b50565b6113088161127c565b811461131357600080fd5b5056fea365627a7a72315820a5dc1eda0ffd8edc9e8c1e673cfc899301fb6ee27067c576330736710be280916c6578706572696d656e74616cf564736f6c634300050c0040",
  "source": "pragma solidity ^0.5.11;\npragma experimental ABIEncoderV2;\n\nimport \"./Ownable.sol\";\n\ncontract DealerContract is Ownable {\n\n    mapping(bytes32 => bool) verifiedDealers;\n    mapping(bytes32 => bytes32[]) private dealerToEmployees;\n    mapping(bytes32 => bytes32) private employeeToDealer;\n\n\n    modifier verified(bytes32 dealerId) {\n        require(isVerified(dealerId),\"You must be a verified dealer to do this\");\n        _;\n    }\n\n    modifier dealershipOwner(bytes32 dealerId){\n        require(verifiedDealers[dealerId],\"You must be a dealership owner to do this\");\n        _;\n    }\n\n    struct DealerInfo{\n        string dealerName;\n    }\n\n    mapping(bytes32 => DealerInfo) private dealerInfoMap;\n    bytes32[] dealerApplications;\n    \n    //Function for dealer to create new application\n    function dealerApplication(DealerInfo memory info, bytes32 id) public{\n        require(!verifiedDealers[id],\"That address is already registered\");\n        dealerInfoMap[id] = info;\n        dealerApplications.push(id);\n    }\n    \n    //Transfer dealership owner to another id\n    function transferDealershipOwner(bytes32 dealershipId, bytes32 otherId) public dealershipOwner(dealershipId){\n        verifiedDealers[otherId] = true;\n        verifiedDealers[dealershipId] = false;\n        employeeToDealer[otherId] = 0;\n        dealerToEmployees[otherId] = dealerToEmployees[dealershipId];\n        delete dealerToEmployees[dealershipId];\n        for(uint i = 0; i < dealerToEmployees[otherId].length; i++){\n            employeeToDealer[dealerToEmployees[otherId][i]] = otherId;\n        }\n    }\n    \n    //Get all current dealer applications\n    function getAllDealerApplications() public view ownerOnly returns (bytes32[] memory){\n        return dealerApplications;\n    }\n\n    function getApplicationIndex(bytes32 id) internal view returns (int) {\n        for(uint i = 0; i < dealerApplications.length; i++){\n            if(dealerApplications[i] == id){\n                return int(i);\n            }\n        }\n        return -1;\n    }\n\n    //Approve a dealer application. Rejected if no application exists\n    function approveApplication(bytes32 adr) public ownerOnly{\n        int i = getApplicationIndex(adr);\n        require(i >= 0,\"No application exists for that id\");\n        verifiedDealers[adr] = true;\n        delete dealerApplications[uint(i)];\n    }\n\n    //Function to see if a dealer is verified or works for a dealership\n    function isVerified(bytes32 adr) public view returns (bool) {\n        return verifiedDealers[adr] || employeeToDealer[adr] != 0;\n    }\n\n    //Add employee to dealership who will have access to verified() functions\n    function addDealerEmployee(bytes32 dealerId, bytes32 adr) public dealershipOwner(dealerId) {\n        require(employeeToDealer[adr] != 0,\"That employee already works there\");\n        dealerToEmployees[dealerId].push(adr);\n        employeeToDealer[adr] = dealerId;\n    }\n\n}\n",
  "sourcePath": "/Users/mapring/Documents/school/blockchain/blockchain-project-2019/backend/contracts/DealerContract.sol",
  "compiler": {
    "name": "solc",
    "version": "0.5.12+commit.7709ece9.Emscripten.clang"
  },
  "schemaVersion": "3.0.19",
  "updatedAt": "2019-11-14T13:18:26.890Z",
  "networkType": "ethereum",
  "devdoc": {
    "methods": {}
  },
  "userdoc": {
    "methods": {}
  }
}