{
  "contractName": "Ownable",
  "abi": [
    {
      "inputs": [],
      "payable": false,
      "stateMutability": "nonpayable",
      "type": "constructor"
    },
    {
      "constant": true,
      "inputs": [],
      "name": "owner",
      "outputs": [
        {
          "internalType": "address",
          "name": "",
          "type": "address"
        }
      ],
      "payable": false,
      "stateMutability": "view",
      "type": "function"
    },
    {
      "constant": true,
      "inputs": [
        {
          "internalType": "string",
          "name": "id",
          "type": "string"
        }
      ],
      "name": "getHash",
      "outputs": [
        {
          "internalType": "bytes32",
          "name": "",
          "type": "bytes32"
        }
      ],
      "payable": false,
      "stateMutability": "pure",
      "type": "function"
    },
    {
      "constant": false,
      "inputs": [
        {
          "internalType": "address",
          "name": "newOwner",
          "type": "address"
        }
      ],
      "name": "transferOwner",
      "outputs": [],
      "payable": false,
      "stateMutability": "nonpayable",
      "type": "function"
    }
  ],
  "bytecode": "0x608060405234801561001057600080fd5b50336000806101000a81548173ffffffffffffffffffffffffffffffffffffffff021916908373ffffffffffffffffffffffffffffffffffffffff1602179055506105f9806100606000396000f3fe608060405234801561001057600080fd5b50600436106100415760003560e01c80634fb2e45d146100465780635b6beeb9146100625780638da5cb5b14610092575b600080fd5b610060600480360361005b919081019061029d565b6100b0565b005b61007c600480360361007791908101906102ef565b610182565b6040516100899190610439565b60405180910390f35b61009a6101fa565b6040516100a7919061041e565b60405180910390f35b6000809054906101000a900473ffffffffffffffffffffffffffffffffffffffff1673ffffffffffffffffffffffffffffffffffffffff163373ffffffffffffffffffffffffffffffffffffffff161461013f576040517f08c379a000000000000000000000000000000000000000000000000000000000815260040161013690610454565b60405180910390fd5b806000806101000a81548173ffffffffffffffffffffffffffffffffffffffff021916908373ffffffffffffffffffffffffffffffffffffffff16021790555050565b60006002826040516020016101979190610407565b6040516020818303038152906040526040516101b391906103f0565b602060405180830381855afa1580156101d0573d6000803e3d6000fd5b5050506040513d601f19601f820116820180604052506101f391908101906102c6565b9050919050565b6000809054906101000a900473ffffffffffffffffffffffffffffffffffffffff1681565b60008135905061022e81610588565b92915050565b6000815190506102438161059f565b92915050565b600082601f83011261025a57600080fd5b813561026d610268826104a1565b610474565b9150808252602083016020830185838301111561028957600080fd5b610294838284610546565b50505092915050565b6000602082840312156102af57600080fd5b60006102bd8482850161021f565b91505092915050565b6000602082840312156102d857600080fd5b60006102e684828501610234565b91505092915050565b60006020828403121561030157600080fd5b600082013567ffffffffffffffff81111561031b57600080fd5b61032784828501610249565b91505092915050565b6103398161050a565b82525050565b6103488161051c565b82525050565b6000610359826104cd565b61036381856104e3565b9350610373818560208601610555565b80840191505092915050565b600061038a826104d8565b61039481856104ff565b93506103a4818560208601610555565b80840191505092915050565b60006103bd6015836104ee565b91507f596f7520617265206e6f7420746865206f776e657200000000000000000000006000830152602082019050919050565b60006103fc828461034e565b915081905092915050565b6000610413828461037f565b915081905092915050565b60006020820190506104336000830184610330565b92915050565b600060208201905061044e600083018461033f565b92915050565b6000602082019050818103600083015261046d816103b0565b9050919050565b6000604051905081810181811067ffffffffffffffff8211171561049757600080fd5b8060405250919050565b600067ffffffffffffffff8211156104b857600080fd5b601f19601f8301169050602081019050919050565b600081519050919050565b600081519050919050565b600081905092915050565b600082825260208201905092915050565b600081905092915050565b600061051582610526565b9050919050565b6000819050919050565b600073ffffffffffffffffffffffffffffffffffffffff82169050919050565b82818337600083830152505050565b60005b83811015610573578082015181840152602081019050610558565b83811115610582576000848401525b50505050565b6105918161050a565b811461059c57600080fd5b50565b6105a88161051c565b81146105b357600080fd5b5056fea365627a7a723158208be7dd3f96ffb32675239405a2b3d3188fe2c3c3ebe39f866230ad321e55b6306c6578706572696d656e74616cf564736f6c634300050c0040",
  "source": "pragma solidity ^0.5.11;\npragma experimental ABIEncoderV2;\n\ncontract Ownable {\n\n    constructor() public {\n        owner = msg.sender;\n    }\n\n    address public owner;\n\n    modifier ownerOnly{\n        require(msg.sender == owner,\"You are not the owner\");\n        _;\n    }\n    \n    function getHash(string memory id) public pure returns (bytes32){\n        return sha256(abi.encodePacked(id));\n    }\n\n    function transferOwner(address newOwner) external ownerOnly{\n        owner = newOwner;\n    }\n\n}\n",
  "sourcePath": "/Users/mapring/Documents/school/blockchain/blockchain-project-2019/backend/contracts/Ownable.sol",
  "compiler": {
    "name": "solc",
    "version": "0.5.12+commit.7709ece9.Emscripten.clang"
  },
  "schemaVersion": "3.0.19",
  "updatedAt": "2019-11-14T13:18:27.484Z",
  "networkType": "ethereum",
  "devdoc": {
    "methods": {}
  },
  "userdoc": {
    "methods": {}
  }
}