{
  "contractName": "ServiceHandler",
  "abi": [
    {
      "constant": false,
      "inputs": [
        {
          "internalType": "bytes32",
          "name": "dealerId",
          "type": "bytes32"
        },
        {
          "internalType": "bytes32",
          "name": "adr",
          "type": "bytes32"
        }
      ],
      "name": "addDealerEmployee",
      "outputs": [],
      "payable": false,
      "stateMutability": "nonpayable",
      "type": "function"
    },
    {
      "constant": false,
      "inputs": [
        {
          "internalType": "bytes32",
          "name": "adr",
          "type": "bytes32"
        }
      ],
      "name": "approveApplication",
      "outputs": [],
      "payable": false,
      "stateMutability": "nonpayable",
      "type": "function"
    },
    {
      "constant": false,
      "inputs": [
        {
          "components": [
            {
              "internalType": "string",
              "name": "dealerName",
              "type": "string"
            }
          ],
          "internalType": "struct DealerContract.DealerInfo",
          "name": "info",
          "type": "tuple"
        },
        {
          "internalType": "bytes32",
          "name": "id",
          "type": "bytes32"
        }
      ],
      "name": "dealerApplication",
      "outputs": [],
      "payable": false,
      "stateMutability": "nonpayable",
      "type": "function"
    },
    {
      "constant": true,
      "inputs": [],
      "name": "getAllDealerApplications",
      "outputs": [
        {
          "internalType": "bytes32[]",
          "name": "",
          "type": "bytes32[]"
        }
      ],
      "payable": false,
      "stateMutability": "view",
      "type": "function"
    },
    {
      "constant": true,
      "inputs": [
        {
          "internalType": "string",
          "name": "id",
          "type": "string"
        }
      ],
      "name": "getHash",
      "outputs": [
        {
          "internalType": "bytes32",
          "name": "",
          "type": "bytes32"
        }
      ],
      "payable": false,
      "stateMutability": "pure",
      "type": "function"
    },
    {
      "constant": true,
      "inputs": [
        {
          "internalType": "bytes32",
          "name": "adr",
          "type": "bytes32"
        }
      ],
      "name": "isVerified",
      "outputs": [
        {
          "internalType": "bool",
          "name": "",
          "type": "bool"
        }
      ],
      "payable": false,
      "stateMutability": "view",
      "type": "function"
    },
    {
      "constant": true,
      "inputs": [],
      "name": "owner",
      "outputs": [
        {
          "internalType": "address",
          "name": "",
          "type": "address"
        }
      ],
      "payable": false,
      "stateMutability": "view",
      "type": "function"
    },
    {
      "constant": false,
      "inputs": [
        {
          "internalType": "bytes32",
          "name": "dealershipId",
          "type": "bytes32"
        },
        {
          "internalType": "bytes32",
          "name": "otherId",
          "type": "bytes32"
        }
      ],
      "name": "transferDealershipOwner",
      "outputs": [],
      "payable": false,
      "stateMutability": "nonpayable",
      "type": "function"
    },
    {
      "constant": false,
      "inputs": [
        {
          "internalType": "address",
          "name": "newOwner",
          "type": "address"
        }
      ],
      "name": "transferOwner",
      "outputs": [],
      "payable": false,
      "stateMutability": "nonpayable",
      "type": "function"
    },
    {
      "constant": false,
      "inputs": [
        {
          "internalType": "string",
          "name": "serviceName",
          "type": "string"
        }
      ],
      "name": "addService",
      "outputs": [],
      "payable": false,
      "stateMutability": "nonpayable",
      "type": "function"
    },
    {
      "constant": false,
      "inputs": [
        {
          "internalType": "string",
          "name": "oldName",
          "type": "string"
        },
        {
          "internalType": "string",
          "name": "newName",
          "type": "string"
        }
      ],
      "name": "editServiceName",
      "outputs": [],
      "payable": false,
      "stateMutability": "nonpayable",
      "type": "function"
    },
    {
      "constant": false,
      "inputs": [
        {
          "internalType": "string",
          "name": "serviceName",
          "type": "string"
        }
      ],
      "name": "deleteService",
      "outputs": [],
      "payable": false,
      "stateMutability": "nonpayable",
      "type": "function"
    },
    {
      "constant": true,
      "inputs": [],
      "name": "getServices",
      "outputs": [
        {
          "internalType": "string[]",
          "name": "",
          "type": "string[]"
        }
      ],
      "payable": false,
      "stateMutability": "view",
      "type": "function"
    },
    {
      "constant": false,
      "inputs": [
        {
          "internalType": "uint8",
          "name": "serviceId",
          "type": "uint8"
        },
        {
          "internalType": "string",
          "name": "newService",
          "type": "string"
        }
      ],
      "name": "addSubService",
      "outputs": [],
      "payable": false,
      "stateMutability": "nonpayable",
      "type": "function"
    },
    {
      "constant": false,
      "inputs": [
        {
          "internalType": "uint8",
          "name": "serviceId",
          "type": "uint8"
        },
        {
          "internalType": "string",
          "name": "oldName",
          "type": "string"
        },
        {
          "internalType": "string",
          "name": "newName",
          "type": "string"
        }
      ],
      "name": "editSubServiceName",
      "outputs": [],
      "payable": false,
      "stateMutability": "nonpayable",
      "type": "function"
    },
    {
      "constant": false,
      "inputs": [
        {
          "internalType": "uint8",
          "name": "serviceId",
          "type": "uint8"
        },
        {
          "internalType": "string",
          "name": "serviceName",
          "type": "string"
        }
      ],
      "name": "deleteSubService",
      "outputs": [],
      "payable": false,
      "stateMutability": "nonpayable",
      "type": "function"
    },
    {
      "constant": true,
      "inputs": [
        {
          "internalType": "uint8",
          "name": "serviceId",
          "type": "uint8"
        }
      ],
      "name": "getSubService",
      "outputs": [
        {
          "internalType": "string[]",
          "name": "",
          "type": "string[]"
        }
      ],
      "payable": false,
      "stateMutability": "view",
      "type": "function"
    }
  ],
  "bytecode": "0x60806040526020600660016101000a81548160ff021916908360ff160217905550336000806101000a81548173ffffffffffffffffffffffffffffffffffffffff021916908373ffffffffffffffffffffffffffffffffffffffff16021790555061284c8061006f6000396000f3fe608060405234801561001057600080fd5b506004361061010b5760003560e01c80637e41667f116100a257806399693ff71161007157806399693ff71461027a578063bda758cc146102aa578063c181b273146102c6578063e445268c146102f6578063f66ffee7146103125761010b565b80637e41667f1461020657806382d7afbd1461022457806388fcd194146102405780638da5cb5b1461025c5761010b565b806337875568116100de57806337875568146101805780634fb2e45d1461019c5780635b6beeb9146101b857806375417851146101e85761010b565b80630e721557146101105780630eb7bc8f1461012c5780631a4c85be146101485780631b8f47fe14610164575b600080fd5b61012a60048036036101259190810190611e4a565b61032e565b005b61014660048036036101419190810190611d0d565b61045b565b005b610162600480360361015d9190810190611ccc565b61056e565b005b61017e60048036036101799190810190611c3e565b6106c2565b005b61019a60048036036101959190810190611df6565b6107ec565b005b6101b660048036036101b19190810190611c15565b610983565b005b6101d260048036036101cd9190810190611ccc565b610a55565b6040516101df9190612491565b60405180910390f35b6101f0610acd565b6040516101fd9190612454565b60405180910390f35b61020e610c60565b60405161021b9190612432565b60405180910390f35b61023e60048036036102399190810190611c90565b610d47565b005b61025a60048036036102559190810190611ccc565b610ee5565b005b6102646110ef565b6040516102719190612417565b60405180910390f35b610294600480360361028f9190810190611dcd565b611114565b6040516102a19190612454565b60405180910390f35b6102c460048036036102bf9190810190611df6565b611216565b005b6102e060048036036102db9190810190611c3e565b611339565b6040516102ed9190612476565b60405180910390f35b610310600480360361030b9190810190611c90565b611384565b005b61032c60048036036103279190810190611d79565b611498565b005b828261033a828261155d565b610379576040517f08c379a00000000000000000000000000000000000000000000000000000000081526004016103709061254c565b60405180910390fd5b6000809054906101000a900473ffffffffffffffffffffffffffffffffffffffff1673ffffffffffffffffffffffffffffffffffffffff163373ffffffffffffffffffffffffffffffffffffffff1614610408576040517f08c379a00000000000000000000000000000000000000000000000000000000081526004016103ff9061252c565b60405180910390fd5b82600860008760ff1660ff16815260200190815260200160002061042c8787611574565b8154811061043657fe5b9060005260206000200190805190602001906104539291906118c4565b505050505050565b6000809054906101000a900473ffffffffffffffffffffffffffffffffffffffff1673ffffffffffffffffffffffffffffffffffffffff163373ffffffffffffffffffffffffffffffffffffffff16146104ea576040517f08c379a00000000000000000000000000000000000000000000000000000000081526004016104e19061252c565b60405180910390fd5b816104f4816116a9565b610533576040517f08c379a000000000000000000000000000000000000000000000000000000000815260040161052a9061256c565b60405180910390fd5b8160076000610541866116d2565b60ff1660ff16815260200190815260200160002090805190602001906105689291906118c4565b50505050565b6000809054906101000a900473ffffffffffffffffffffffffffffffffffffffff1673ffffffffffffffffffffffffffffffffffffffff163373ffffffffffffffffffffffffffffffffffffffff16146105fd576040517f08c379a00000000000000000000000000000000000000000000000000000000081526004016105f49061252c565b60405180910390fd5b80610607816116a9565b610646576040517f08c379a000000000000000000000000000000000000000000000000000000000815260040161063d9061256c565b60405180910390fd5b6040518060200160405280600081525060076000610663856116d2565b60ff1660ff168152602001908152602001600020908051906020019061068a9291906118c4565b506006600081819054906101000a900460ff16809291906001900391906101000a81548160ff021916908360ff160217905550505050565b6000809054906101000a900473ffffffffffffffffffffffffffffffffffffffff1673ffffffffffffffffffffffffffffffffffffffff163373ffffffffffffffffffffffffffffffffffffffff1614610751576040517f08c379a00000000000000000000000000000000000000000000000000000000081526004016107489061252c565b60405180910390fd5b600061075c82611820565b905060008112156107a2576040517f08c379a0000000000000000000000000000000000000000000000000000000008152600401610799906124ec565b60405180910390fd5b600180600084815260200190815260200160002060006101000a81548160ff021916908315150217905550600581815481106107da57fe5b90600052602060002001600090555050565b8160ff600860008360ff1660ff168152602001908152602001600020805490501061084c576040517f08c379a00000000000000000000000000000000000000000000000000000000081526004016108439061250c565b60405180910390fd5b8282610858828261155d565b610897576040517f08c379a000000000000000000000000000000000000000000000000000000000815260040161088e9061254c565b60405180910390fd5b6000809054906101000a900473ffffffffffffffffffffffffffffffffffffffff1673ffffffffffffffffffffffffffffffffffffffff163373ffffffffffffffffffffffffffffffffffffffff1614610926576040517f08c379a000000000000000000000000000000000000000000000000000000000815260040161091d9061252c565b60405180910390fd5b600860008660ff1660ff16815260200190815260200160002084908060018154018082558091505090600182039060005260206000200160009091929091909150908051906020019061097a9291906118c4565b50505050505050565b6000809054906101000a900473ffffffffffffffffffffffffffffffffffffffff1673ffffffffffffffffffffffffffffffffffffffff163373ffffffffffffffffffffffffffffffffffffffff1614610a12576040517f08c379a0000000000000000000000000000000000000000000000000000000008152600401610a099061252c565b60405180910390fd5b806000806101000a81548173ffffffffffffffffffffffffffffffffffffffff021916908373ffffffffffffffffffffffffffffffffffffffff16021790555050565b6000600282604051602001610a6a9190612400565b604051602081830303815290604052604051610a8691906123e9565b602060405180830381855afa158015610aa3573d6000803e3d6000fd5b5050506040513d601f19601f82011682018060405250610ac69190810190611c67565b9050919050565b606080600660009054906101000a900460ff1660ff16604051908082528060200260200182016040528015610b1657816020015b6060815260200190600190039081610b015790505b509050600080905060008090505b600660019054906101000a900460ff1660ff168160ff161015610c57576000600760008360ff1660ff1681526020019081526020016000208054600181600116156101000203166002900490501115610c4a57600760008260ff1660ff1681526020019081526020016000208054600181600116156101000203166002900480601f016020809104026020016040519081016040528092919081815260200182805460018160011615610100020316600290048015610c245780601f10610bf957610100808354040283529160200191610c24565b820191906000526020600020905b815481529060010190602001808311610c0757829003601f168201915b5050505050838380600101945060ff1681518110610c3e57fe5b60200260200101819052505b8080600101915050610b24565b50819250505090565b60606000809054906101000a900473ffffffffffffffffffffffffffffffffffffffff1673ffffffffffffffffffffffffffffffffffffffff163373ffffffffffffffffffffffffffffffffffffffff1614610cf1576040517f08c379a0000000000000000000000000000000000000000000000000000000008152600401610ce89061252c565b60405180910390fd5b6005805480602002602001604051908101604052809291908181526020018280548015610d3d57602002820191906000526020600020905b815481526020019060010190808311610d29575b5050505050905090565b816001600082815260200190815260200160002060009054906101000a900460ff16610da8576040517f08c379a0000000000000000000000000000000000000000000000000000000008152600401610d9f906124cc565b60405180910390fd5b600180600084815260200190815260200160002060006101000a81548160ff02191690831515021790555060006001600085815260200190815260200160002060006101000a81548160ff0219169083151502179055506000801b60036000848152602001908152602001600020819055506002600084815260200190815260200160002060026000848152602001908152602001600020908054610e4e929190611944565b50600260008481526020019081526020016000206000610e6e9190611996565b60008090505b6002600084815260200190815260200160002080549050811015610edf578260036000600260008781526020019081526020016000208481548110610eb557fe5b90600052602060002001548152602001908152602001600020819055508080600101915050610e74565b50505050565b6000809054906101000a900473ffffffffffffffffffffffffffffffffffffffff1673ffffffffffffffffffffffffffffffffffffffff163373ffffffffffffffffffffffffffffffffffffffff1614610f74576040517f08c379a0000000000000000000000000000000000000000000000000000000008152600401610f6b9061252c565b60405180910390fd5b80610f7e816116a9565b610fbd576040517f08c379a0000000000000000000000000000000000000000000000000000000008152600401610fb49061256c565b60405180910390fd5b600660019054906101000a900460ff1660ff16600660009054906101000a900460ff1660ff161115611024576040517f08c379a000000000000000000000000000000000000000000000000000000000815260040161101b906125ac565b60405180910390fd5b60008090505b600660019054906101000a900460ff1660ff168160ff1610156110ea576000600760008360ff1660ff168152602001908152602001600020805460018160011615610100020316600290049050116110dd5782600760008360ff1660ff16815260200190815260200160002090805190602001906110a99291906118c4565b506006600081819054906101000a900460ff168092919060010191906101000a81548160ff021916908360ff160217905550505b808060010191505061102a565b505050565b6000809054906101000a900473ffffffffffffffffffffffffffffffffffffffff1681565b6060600860008360ff1660ff168152602001908152602001600020805480602002602001604051908101604052809291908181526020016000905b8282101561120b578382906000526020600020018054600181600116156101000203166002900480601f0160208091040260200160405190810160405280929190818152602001828054600181600116156101000203166002900480156111f75780601f106111cc576101008083540402835291602001916111f7565b820191906000526020600020905b8154815290600101906020018083116111da57829003601f168201915b50505050508152602001906001019061114f565b505050509050919050565b6000809054906101000a900473ffffffffffffffffffffffffffffffffffffffff1673ffffffffffffffffffffffffffffffffffffffff163373ffffffffffffffffffffffffffffffffffffffff16146112a5576040517f08c379a000000000000000000000000000000000000000000000000000000000815260040161129c9061252c565b60405180910390fd5b81816112b1828261155d565b6112f0576040517f08c379a00000000000000000000000000000000000000000000000000000000081526004016112e79061254c565b60405180910390fd5b600860008560ff1660ff1681526020019081526020016000206113138585611574565b8154811061131d57fe5b90600052602060002001600061133391906119b7565b50505050565b60006001600083815260200190815260200160002060009054906101000a900460ff168061137d57506000801b600360008481526020019081526020016000205414155b9050919050565b816001600082815260200190815260200160002060009054906101000a900460ff166113e5576040517f08c379a00000000000000000000000000000000000000000000000000000000081526004016113dc906124cc565b60405180910390fd5b6000801b6003600084815260200190815260200160002054141561143e576040517f08c379a0000000000000000000000000000000000000000000000000000000008152600401611435906124ac565b60405180910390fd5b60026000848152602001908152602001600020829080600181540180825580915050906001820390600052602060002001600090919290919091505550826003600084815260200190815260200160002081905550505050565b6001600082815260200190815260200160002060009054906101000a900460ff16156114f9576040517f08c379a00000000000000000000000000000000000000000000000000000000081526004016114f09061258c565b60405180910390fd5b816004600083815260200190815260200160002060008201518160000190805190602001906115299291906119ff565b5090505060058190806001815401808255809150509060018203906000526020600020016000909192909190915055505050565b600060ff61156b8484611574565b10905092915050565b600080600090505b600860008560ff1660ff168152602001908152602001600020805490508160ff16101561169d576115ac83611894565b61167e600860008760ff1660ff1681526020019081526020016000208360ff16815481106115d657fe5b906000526020600020018054600181600116156101000203166002900480601f0160208091040260200160405190810160405280929190818152602001828054600181600116156101000203166002900480156116745780601f1061164957610100808354040283529160200191611674565b820191906000526020600020905b81548152906001019060200180831161165757829003601f168201915b5050505050611894565b1415611690578060ff169150506116a3565b808060010191505061157c565b5060ff90505b92915050565b6000600660019054906101000a900460ff1660ff166116c7836116d2565b60ff16109050919050565b6000806116de83611894565b905060008090505b600660019054906101000a900460ff1660ff168160ff161015611814576000600760008360ff1660ff1681526020019081526020016000208054600181600116156101000203166002900490501180156117f85750816117f6600760008460ff1660ff1681526020019081526020016000208054600181600116156101000203166002900480601f0160208091040260200160405190810160405280929190818152602001828054600181600116156101000203166002900480156117ec5780601f106117c1576101008083540402835291602001916117ec565b820191906000526020600020905b8154815290600101906020018083116117cf57829003601f168201915b5050505050611894565b145b1561180757809250505061181b565b80806001019150506116e6565b5060ff9150505b919050565b600080600090505b60058054905081101561186a57826005828154811061184357fe5b9060005260206000200154141561185d578091505061188f565b8080600101915050611828565b507fffffffffffffffffffffffffffffffffffffffffffffffffffffffffffffffff90505b919050565b6000816040516020016118a79190612400565b604051602081830303815290604052805190602001209050919050565b828054600181600116156101000203166002900490600052602060002090601f016020900481019282601f1061190557805160ff1916838001178555611933565b82800160010185558215611933579182015b82811115611932578251825591602001919060010190611917565b5b5090506119409190611a7f565b5090565b8280548282559060005260206000209081019282156119855760005260206000209182015b82811115611984578254825591600101919060010190611969565b5b5090506119929190611aa4565b5090565b50805460008255906000526020600020908101906119b49190611aa4565b50565b50805460018160011615610100020316600290046000825580601f106119dd57506119fc565b601f0160209004906000526020600020908101906119fb9190611a7f565b5b50565b828054600181600116156101000203166002900490600052602060002090601f016020900481019282601f10611a4057805160ff1916838001178555611a6e565b82800160010185558215611a6e579182015b82811115611a6d578251825591602001919060010190611a52565b5b509050611a7b9190611a7f565b5090565b611aa191905b80821115611a9d576000816000905550600101611a85565b5090565b90565b611ac691905b80821115611ac2576000816000905550600101611aaa565b5090565b90565b600081359050611ad8816127c4565b92915050565b600081359050611aed816127db565b92915050565b600081519050611b02816127db565b92915050565b600082601f830112611b1957600080fd5b8135611b2c611b27826125f9565b6125cc565b91508082526020830160208301858383011115611b4857600080fd5b611b53838284612771565b50505092915050565b600082601f830112611b6d57600080fd5b8135611b80611b7b82612625565b6125cc565b91508082526020830160208301858383011115611b9c57600080fd5b611ba7838284612771565b50505092915050565b600060208284031215611bc257600080fd5b611bcc60206125cc565b9050600082013567ffffffffffffffff811115611be857600080fd5b611bf484828501611b08565b60008301525092915050565b600081359050611c0f816127f2565b92915050565b600060208284031215611c2757600080fd5b6000611c3584828501611ac9565b91505092915050565b600060208284031215611c5057600080fd5b6000611c5e84828501611ade565b91505092915050565b600060208284031215611c7957600080fd5b6000611c8784828501611af3565b91505092915050565b60008060408385031215611ca357600080fd5b6000611cb185828601611ade565b9250506020611cc285828601611ade565b9150509250929050565b600060208284031215611cde57600080fd5b600082013567ffffffffffffffff811115611cf857600080fd5b611d0484828501611b5c565b91505092915050565b60008060408385031215611d2057600080fd5b600083013567ffffffffffffffff811115611d3a57600080fd5b611d4685828601611b5c565b925050602083013567ffffffffffffffff811115611d6357600080fd5b611d6f85828601611b5c565b9150509250929050565b60008060408385031215611d8c57600080fd5b600083013567ffffffffffffffff811115611da657600080fd5b611db285828601611bb0565b9250506020611dc385828601611ade565b9150509250929050565b600060208284031215611ddf57600080fd5b6000611ded84828501611c00565b91505092915050565b60008060408385031215611e0957600080fd5b6000611e1785828601611c00565b925050602083013567ffffffffffffffff811115611e3457600080fd5b611e4085828601611b5c565b9150509250929050565b600080600060608486031215611e5f57600080fd5b6000611e6d86828701611c00565b935050602084013567ffffffffffffffff811115611e8a57600080fd5b611e9686828701611b5c565b925050604084013567ffffffffffffffff811115611eb357600080fd5b611ebf86828701611b5c565b9150509250925092565b6000611ed58383611fe6565b60208301905092915050565b6000611eed8383612066565b905092915050565b611efe8161271c565b82525050565b6000611f0f82612671565b611f1981856126c2565b9350611f2483612651565b8060005b83811015611f55578151611f3c8882611ec9565b9750611f47836126a8565b925050600181019050611f28565b5085935050505092915050565b6000611f6d8261267c565b611f7781856126d3565b935083602082028501611f8985612661565b8060005b85811015611fc55784840389528151611fa68582611ee1565b9450611fb1836126b5565b925060208a01995050600181019050611f8d565b50829750879550505050505092915050565b611fe08161272e565b82525050565b611fef8161273a565b82525050565b611ffe8161273a565b82525050565b600061200f82612687565b61201981856126e4565b9350612029818560208601612780565b80840191505092915050565b60006120408261269d565b61204a8185612711565b935061205a818560208601612780565b80840191505092915050565b600061207182612692565b61207b81856126ef565b935061208b818560208601612780565b612094816127b3565b840191505092915050565b60006120ac602183612700565b91507f5468617420656d706c6f79656520616c726561647920776f726b73207468657260008301527f65000000000000000000000000000000000000000000000000000000000000006020830152604082019050919050565b6000612112602983612700565b91507f596f75206d7573742062652061206465616c657273686970206f776e6572207460008301527f6f20646f207468697300000000000000000000000000000000000000000000006020830152604082019050919050565b6000612178602183612700565b91507f4e6f206170706c69636174696f6e2065786973747320666f722074686174206960008301527f64000000000000000000000000000000000000000000000000000000000000006020830152604082019050919050565b60006121de602183612700565b91507f4d6178696d756d207375627365727669636520616d6f756e742072656163686560008301527f64000000000000000000000000000000000000000000000000000000000000006020830152604082019050919050565b6000612244601583612700565b91507f596f7520617265206e6f7420746865206f776e657200000000000000000000006000830152602082019050919050565b6000612284602c83612700565b91507f54686174207375627365727669636520646f65736e7420657869737420696e2060008301527f7468697320636f6e7465787400000000000000000000000000000000000000006020830152604082019050919050565b60006122ea601b83612700565b91507f54686174207365727669636520646f6573206e6f7420657869737400000000006000830152602082019050919050565b600061232a602283612700565b91507f54686174206164647265737320697320616c726561647920726567697374657260008301527f65640000000000000000000000000000000000000000000000000000000000006020830152604082019050919050565b6000612390602883612700565b91507f54686572652061726520746865206d6178696d756d206e756d626572206f662060008301527f73657276696365730000000000000000000000000000000000000000000000006020830152604082019050919050565b60006123f58284612004565b915081905092915050565b600061240c8284612035565b915081905092915050565b600060208201905061242c6000830184611ef5565b92915050565b6000602082019050818103600083015261244c8184611f04565b905092915050565b6000602082019050818103600083015261246e8184611f62565b905092915050565b600060208201905061248b6000830184611fd7565b92915050565b60006020820190506124a66000830184611ff5565b92915050565b600060208201905081810360008301526124c58161209f565b9050919050565b600060208201905081810360008301526124e581612105565b9050919050565b600060208201905081810360008301526125058161216b565b9050919050565b60006020820190508181036000830152612525816121d1565b9050919050565b6000602082019050818103600083015261254581612237565b9050919050565b6000602082019050818103600083015261256581612277565b9050919050565b60006020820190508181036000830152612585816122dd565b9050919050565b600060208201905081810360008301526125a58161231d565b9050919050565b600060208201905081810360008301526125c581612383565b9050919050565b6000604051905081810181811067ffffffffffffffff821117156125ef57600080fd5b8060405250919050565b600067ffffffffffffffff82111561261057600080fd5b601f19601f8301169050602081019050919050565b600067ffffffffffffffff82111561263c57600080fd5b601f19601f8301169050602081019050919050565b6000819050602082019050919050565b6000819050602082019050919050565b600081519050919050565b600081519050919050565b600081519050919050565b600081519050919050565b600081519050919050565b6000602082019050919050565b6000602082019050919050565b600082825260208201905092915050565b600082825260208201905092915050565b600081905092915050565b600082825260208201905092915050565b600082825260208201905092915050565b600081905092915050565b600061272782612744565b9050919050565b60008115159050919050565b6000819050919050565b600073ffffffffffffffffffffffffffffffffffffffff82169050919050565b600060ff82169050919050565b82818337600083830152505050565b60005b8381101561279e578082015181840152602081019050612783565b838111156127ad576000848401525b50505050565b6000601f19601f8301169050919050565b6127cd8161271c565b81146127d857600080fd5b50565b6127e48161273a565b81146127ef57600080fd5b50565b6127fb81612764565b811461280657600080fd5b5056fea365627a7a723158203b7997d761628a4f00271d248944117e75860ddac019c03dde4fc5be1df8cd626c6578706572696d656e74616cf564736f6c634300050c0040",
  "source": "pragma solidity ^0.5.11;\npragma experimental ABIEncoderV2;\n\nimport \"./DealerContract.sol\";\n\ncontract ServiceHandler is DealerContract {\n\n    function encode(string memory str) internal pure returns (bytes32) {\n        return keccak256(abi.encodePacked(str));\n    }\n\n    uint8 noOfServices;\n    uint8 totalNoServices = 32;\n\n    modifier serviceExists(string memory serviceName){\n        require(containsService(serviceName),\"That service does not exist\");\n        _;\n    }\n\n    modifier servicesNotFull{\n        require(noOfServices <= totalNoServices,\"There are the maximum number of services\");\n        _;\n    }\n\n    mapping(uint8 => string) private services;\n\n    function getIndexOfService(string memory serviceName) internal view returns (uint8) {\n        bytes32 service = encode(serviceName);\n        for(uint8 i = 0; i < totalNoServices; i++){\n            if(bytes(services[i]).length > 0 && encode(services[i]) == service){\n                return i;\n            }\n        }\n        return 255;\n    }\n\n    function containsService(string memory serviceName) internal view returns (bool){\n        return getIndexOfService(serviceName) < totalNoServices;\n    }\n\n    function addService(string memory serviceName) public ownerOnly serviceExists(serviceName) servicesNotFull {\n        //Returns true if service was successfully added\n        //False if service already exists\n        for(uint8 i = 0; i < totalNoServices; i++){\n            if(bytes(services[i]).length <= 0){\n                services[i] = serviceName;\n                noOfServices++;\n            }\n        }\n    }\n\n    function editServiceName(string memory oldName, string memory newName) public ownerOnly serviceExists(oldName) {\n        services[getIndexOfService(oldName)] = newName;\n    }\n\n    function deleteService(string memory serviceName) public ownerOnly serviceExists(serviceName) {\n        services[getIndexOfService(serviceName)] = \"\";\n        noOfServices--;\n    }\n\n    function getServices() public view returns (string[] memory) {\n        string[] memory existingServices = new string[](noOfServices);\n        uint8 serviceIndex = 0;\n        for(uint8 i = 0; i < totalNoServices; i++){\n            if(bytes(services[i]).length > 0){\n                existingServices[serviceIndex++] = services[i];\n            }\n        }\n        return existingServices;\n    }\n\n    //-----------------------------_Subservices_----------------------------\n\n    mapping(uint8 => string[]) private subServices;\n\n    modifier subServiceExists(uint8 serviceId, string memory serviceName){\n        require(containsSubService(serviceId,serviceName),\"That subservice doesnt exist in this context\");\n        _;\n    }\n\n    modifier subservicesNotFull(uint8 serviceId){\n        require(subServices[serviceId].length < 255,\"Maximum subservice amount reached\");\n        _;\n    }\n\n    function getIndexOfSubService(uint8 serviceId, string memory serviceName) internal view returns (uint) {\n        for(uint8 i = 0; i < subServices[serviceId].length; i++){\n            if(encode(subServices[serviceId][i]) == encode(serviceName)){\n                return i;\n            }\n        }\n        return 255;\n    }\n\n    function containsSubService(uint8 serviceId, string memory serviceName) internal view returns (bool) {\n        return getIndexOfSubService(serviceId,serviceName) < 255;\n    }\n\n    function addSubService(uint8 serviceId, string memory newService) public subservicesNotFull(serviceId) subServiceExists(serviceId,newService) ownerOnly {\n        //Returns true if service does not already exist\n        subServices[serviceId].push(newService);\n    }\n\n    function editSubServiceName(uint8 serviceId, string memory oldName, string memory newName) public subServiceExists(serviceId,oldName) ownerOnly {\n        subServices[serviceId][getIndexOfSubService(serviceId,oldName)] = newName;\n    }\n\n    function deleteSubService(uint8 serviceId, string memory serviceName) public ownerOnly subServiceExists(serviceId,serviceName) {\n        delete subServices[serviceId][getIndexOfSubService(serviceId,serviceName)];\n    }\n\n    function getSubService(uint8 serviceId) public view returns (string[] memory) {\n        return subServices[serviceId];\n    }\n}\n",
  "sourcePath": "/Users/mapring/Documents/school/blockchain/blockchain-project-2019/backend/contracts/ServiceHandler.sol",
  "compiler": {
    "name": "solc",
    "version": "0.5.12+commit.7709ece9.Emscripten.clang"
  },
  "schemaVersion": "3.0.19",
  "updatedAt": "2019-11-14T13:18:27.111Z",
  "networkType": "ethereum",
  "devdoc": {
    "methods": {}
  },
  "userdoc": {
    "methods": {}
  }
}