{
  "contractName": "UserContract",
  "abi": [
    {
      "constant": false,
      "inputs": [
        {
          "internalType": "bytes32",
          "name": "dealerId",
          "type": "bytes32"
        },
        {
          "internalType": "bytes32",
          "name": "adr",
          "type": "bytes32"
        }
      ],
      "name": "addDealerEmployee",
      "outputs": [],
      "payable": false,
      "stateMutability": "nonpayable",
      "type": "function"
    },
    {
      "constant": false,
      "inputs": [
        {
          "internalType": "string",
          "name": "serviceName",
          "type": "string"
        }
      ],
      "name": "addService",
      "outputs": [],
      "payable": false,
      "stateMutability": "nonpayable",
      "type": "function"
    },
    {
      "constant": false,
      "inputs": [
        {
          "internalType": "uint8",
          "name": "serviceId",
          "type": "uint8"
        },
        {
          "internalType": "string",
          "name": "newService",
          "type": "string"
        }
      ],
      "name": "addSubService",
      "outputs": [],
      "payable": false,
      "stateMutability": "nonpayable",
      "type": "function"
    },
    {
      "constant": false,
      "inputs": [
        {
          "internalType": "bytes32",
          "name": "adr",
          "type": "bytes32"
        }
      ],
      "name": "approveApplication",
      "outputs": [],
      "payable": false,
      "stateMutability": "nonpayable",
      "type": "function"
    },
    {
      "constant": false,
      "inputs": [
        {
          "components": [
            {
              "internalType": "string",
              "name": "dealerName",
              "type": "string"
            }
          ],
          "internalType": "struct DealerContract.DealerInfo",
          "name": "info",
          "type": "tuple"
        },
        {
          "internalType": "bytes32",
          "name": "id",
          "type": "bytes32"
        }
      ],
      "name": "dealerApplication",
      "outputs": [],
      "payable": false,
      "stateMutability": "nonpayable",
      "type": "function"
    },
    {
      "constant": false,
      "inputs": [
        {
          "internalType": "string",
          "name": "serviceName",
          "type": "string"
        }
      ],
      "name": "deleteService",
      "outputs": [],
      "payable": false,
      "stateMutability": "nonpayable",
      "type": "function"
    },
    {
      "constant": false,
      "inputs": [
        {
          "internalType": "uint8",
          "name": "serviceId",
          "type": "uint8"
        },
        {
          "internalType": "string",
          "name": "serviceName",
          "type": "string"
        }
      ],
      "name": "deleteSubService",
      "outputs": [],
      "payable": false,
      "stateMutability": "nonpayable",
      "type": "function"
    },
    {
      "constant": false,
      "inputs": [
        {
          "internalType": "string",
          "name": "oldName",
          "type": "string"
        },
        {
          "internalType": "string",
          "name": "newName",
          "type": "string"
        }
      ],
      "name": "editServiceName",
      "outputs": [],
      "payable": false,
      "stateMutability": "nonpayable",
      "type": "function"
    },
    {
      "constant": false,
      "inputs": [
        {
          "internalType": "uint8",
          "name": "serviceId",
          "type": "uint8"
        },
        {
          "internalType": "string",
          "name": "oldName",
          "type": "string"
        },
        {
          "internalType": "string",
          "name": "newName",
          "type": "string"
        }
      ],
      "name": "editSubServiceName",
      "outputs": [],
      "payable": false,
      "stateMutability": "nonpayable",
      "type": "function"
    },
    {
      "constant": true,
      "inputs": [],
      "name": "getAllDealerApplications",
      "outputs": [
        {
          "internalType": "bytes32[]",
          "name": "",
          "type": "bytes32[]"
        }
      ],
      "payable": false,
      "stateMutability": "view",
      "type": "function"
    },
    {
      "constant": true,
      "inputs": [
        {
          "internalType": "string",
          "name": "id",
          "type": "string"
        }
      ],
      "name": "getHash",
      "outputs": [
        {
          "internalType": "bytes32",
          "name": "",
          "type": "bytes32"
        }
      ],
      "payable": false,
      "stateMutability": "pure",
      "type": "function"
    },
    {
      "constant": true,
      "inputs": [],
      "name": "getServices",
      "outputs": [
        {
          "internalType": "string[]",
          "name": "",
          "type": "string[]"
        }
      ],
      "payable": false,
      "stateMutability": "view",
      "type": "function"
    },
    {
      "constant": true,
      "inputs": [
        {
          "internalType": "uint8",
          "name": "serviceId",
          "type": "uint8"
        }
      ],
      "name": "getSubService",
      "outputs": [
        {
          "internalType": "string[]",
          "name": "",
          "type": "string[]"
        }
      ],
      "payable": false,
      "stateMutability": "view",
      "type": "function"
    },
    {
      "constant": true,
      "inputs": [
        {
          "internalType": "bytes32",
          "name": "adr",
          "type": "bytes32"
        }
      ],
      "name": "isVerified",
      "outputs": [
        {
          "internalType": "bool",
          "name": "",
          "type": "bool"
        }
      ],
      "payable": false,
      "stateMutability": "view",
      "type": "function"
    },
    {
      "constant": true,
      "inputs": [],
      "name": "owner",
      "outputs": [
        {
          "internalType": "address",
          "name": "",
          "type": "address"
        }
      ],
      "payable": false,
      "stateMutability": "view",
      "type": "function"
    },
    {
      "constant": false,
      "inputs": [
        {
          "internalType": "bytes32",
          "name": "dealershipId",
          "type": "bytes32"
        },
        {
          "internalType": "bytes32",
          "name": "otherId",
          "type": "bytes32"
        }
      ],
      "name": "transferDealershipOwner",
      "outputs": [],
      "payable": false,
      "stateMutability": "nonpayable",
      "type": "function"
    },
    {
      "constant": false,
      "inputs": [
        {
          "internalType": "address",
          "name": "newOwner",
          "type": "address"
        }
      ],
      "name": "transferOwner",
      "outputs": [],
      "payable": false,
      "stateMutability": "nonpayable",
      "type": "function"
    },
    {
      "constant": false,
      "inputs": [
        {
          "internalType": "bytes32",
          "name": "dealerId",
          "type": "bytes32"
        },
        {
          "internalType": "bytes32",
          "name": "id",
          "type": "bytes32"
        },
        {
          "components": [
            {
              "internalType": "uint32",
              "name": "services",
              "type": "uint32"
            },
            {
              "internalType": "uint256[]",
              "name": "subservices",
              "type": "uint256[]"
            },
            {
              "internalType": "string",
              "name": "comment",
              "type": "string"
            }
          ],
          "internalType": "struct UserContract.RecordInternal",
          "name": "record",
          "type": "tuple"
        }
      ],
      "name": "insertRecord",
      "outputs": [],
      "payable": false,
      "stateMutability": "nonpayable",
      "type": "function"
    },
    {
      "constant": true,
      "inputs": [
        {
          "internalType": "bytes32",
          "name": "dealerId",
          "type": "bytes32"
        },
        {
          "internalType": "bytes32",
          "name": "id",
          "type": "bytes32"
        }
      ],
      "name": "getRecords",
      "outputs": [
        {
          "components": [
            {
              "internalType": "uint32",
              "name": "services",
              "type": "uint32"
            },
            {
              "internalType": "uint256[]",
              "name": "subservices",
              "type": "uint256[]"
            },
            {
              "internalType": "string",
              "name": "comment",
              "type": "string"
            }
          ],
          "internalType": "struct UserContract.RecordInternal[]",
          "name": "",
          "type": "tuple[]"
        }
      ],
      "payable": false,
      "stateMutability": "view",
      "type": "function"
    }
  ],
  "bytecode": "0x60806040526020600660016101000a81548160ff021916908360ff160217905550336000806101000a81548173ffffffffffffffffffffffffffffffffffffffff021916908373ffffffffffffffffffffffffffffffffffffffff16021790555061306c8061006f6000396000f3fe608060405234801561001057600080fd5b50600436106101215760003560e01c806375417851116100ad57806399693ff71161007157806399693ff7146102dc578063bda758cc1461030c578063c181b27314610328578063e445268c14610358578063f66ffee71461037457610121565b8063754178511461024a5780637e41667f1461026857806382d7afbd1461028657806388fcd194146102a25780638da5cb5b146102be57610121565b80631b8f47fe116100f45780631b8f47fe1461019657806337875568146101b25780634fb2e45d146101ce5780635b6beeb9146101ea5780636a6e39091461021a57610121565b8063090c9618146101265780630e721557146101425780630eb7bc8f1461015e5780631a4c85be1461017a575b600080fd5b610140600480360361013b9190810190612187565b610390565b005b61015c6004803603610157919081019061236c565b610482565b005b6101786004803603610173919081019061222f565b6105af565b005b610194600480360361018f91908101906121ee565b6106c2565b005b6101b060048036036101ab91908101906120f9565b610816565b005b6101cc60048036036101c79190810190612318565b610940565b005b6101e860048036036101e391908101906120d0565b610ad7565b005b61020460048036036101ff91908101906121ee565b610ba9565b6040516102119190612baf565b60405180910390f35b610234600480360361022f919081019061214b565b610c21565b6040516102419190612b72565b60405180910390f35b610252610dfe565b60405161025f9190612b50565b60405180910390f35b610270610f91565b60405161027d9190612b2e565b60405180910390f35b6102a0600480360361029b919081019061214b565b611078565b005b6102bc60048036036102b791908101906121ee565b611216565b005b6102c6611420565b6040516102d39190612b13565b60405180910390f35b6102f660048036036102f191908101906122ef565b611445565b6040516103039190612b50565b60405180910390f35b61032660048036036103219190810190612318565b611547565b005b610342600480360361033d91908101906120f9565b61166a565b60405161034f9190612b94565b60405180910390f35b610372600480360361036d919081019061214b565b6116b5565b005b61038e6004803603610389919081019061229b565b6117c9565b005b8261039a8161166a565b6103d9576040517f08c379a00000000000000000000000000000000000000000000000000000000081526004016103d090612cea565b60405180910390fd5b60096000848152602001908152602001600020829080600181540180825580915050906001820390600052602060002090600302016000909192909190915060008201518160000160006101000a81548163ffffffff021916908363ffffffff160217905550602082015181600101908051906020019061045b929190611bf5565b506040820151816002019080519060200190610478929190611c42565b5050505050505050565b828261048e828261188e565b6104cd576040517f08c379a00000000000000000000000000000000000000000000000000000000081526004016104c490612c6a565b60405180910390fd5b6000809054906101000a900473ffffffffffffffffffffffffffffffffffffffff1673ffffffffffffffffffffffffffffffffffffffff163373ffffffffffffffffffffffffffffffffffffffff161461055c576040517f08c379a000000000000000000000000000000000000000000000000000000000815260040161055390612c4a565b60405180910390fd5b82600860008760ff1660ff16815260200190815260200160002061058087876118a5565b8154811061058a57fe5b9060005260206000200190805190602001906105a7929190611cc2565b505050505050565b6000809054906101000a900473ffffffffffffffffffffffffffffffffffffffff1673ffffffffffffffffffffffffffffffffffffffff163373ffffffffffffffffffffffffffffffffffffffff161461063e576040517f08c379a000000000000000000000000000000000000000000000000000000000815260040161063590612c4a565b60405180910390fd5b81610648816119da565b610687576040517f08c379a000000000000000000000000000000000000000000000000000000000815260040161067e90612c8a565b60405180910390fd5b816007600061069586611a03565b60ff1660ff16815260200190815260200160002090805190602001906106bc929190611cc2565b50505050565b6000809054906101000a900473ffffffffffffffffffffffffffffffffffffffff1673ffffffffffffffffffffffffffffffffffffffff163373ffffffffffffffffffffffffffffffffffffffff1614610751576040517f08c379a000000000000000000000000000000000000000000000000000000000815260040161074890612c4a565b60405180910390fd5b8061075b816119da565b61079a576040517f08c379a000000000000000000000000000000000000000000000000000000000815260040161079190612c8a565b60405180910390fd5b60405180602001604052806000815250600760006107b785611a03565b60ff1660ff16815260200190815260200160002090805190602001906107de929190611cc2565b506006600081819054906101000a900460ff16809291906001900391906101000a81548160ff021916908360ff160217905550505050565b6000809054906101000a900473ffffffffffffffffffffffffffffffffffffffff1673ffffffffffffffffffffffffffffffffffffffff163373ffffffffffffffffffffffffffffffffffffffff16146108a5576040517f08c379a000000000000000000000000000000000000000000000000000000000815260040161089c90612c4a565b60405180910390fd5b60006108b082611b51565b905060008112156108f6576040517f08c379a00000000000000000000000000000000000000000000000000000000081526004016108ed90612c0a565b60405180910390fd5b600180600084815260200190815260200160002060006101000a81548160ff0219169083151502179055506005818154811061092e57fe5b90600052602060002001600090555050565b8160ff600860008360ff1660ff16815260200190815260200160002080549050106109a0576040517f08c379a000000000000000000000000000000000000000000000000000000000815260040161099790612c2a565b60405180910390fd5b82826109ac828261188e565b6109eb576040517f08c379a00000000000000000000000000000000000000000000000000000000081526004016109e290612c6a565b60405180910390fd5b6000809054906101000a900473ffffffffffffffffffffffffffffffffffffffff1673ffffffffffffffffffffffffffffffffffffffff163373ffffffffffffffffffffffffffffffffffffffff1614610a7a576040517f08c379a0000000000000000000000000000000000000000000000000000000008152600401610a7190612c4a565b60405180910390fd5b600860008660ff1660ff168152602001908152602001600020849080600181540180825580915050906001820390600052602060002001600090919290919091509080519060200190610ace929190611cc2565b50505050505050565b6000809054906101000a900473ffffffffffffffffffffffffffffffffffffffff1673ffffffffffffffffffffffffffffffffffffffff163373ffffffffffffffffffffffffffffffffffffffff1614610b66576040517f08c379a0000000000000000000000000000000000000000000000000000000008152600401610b5d90612c4a565b60405180910390fd5b806000806101000a81548173ffffffffffffffffffffffffffffffffffffffff021916908373ffffffffffffffffffffffffffffffffffffffff16021790555050565b6000600282604051602001610bbe9190612afc565b604051602081830303815290604052604051610bda9190612ae5565b602060405180830381855afa158015610bf7573d6000803e3d6000fd5b5050506040513d601f19601f82011682018060405250610c1a9190810190612122565b9050919050565b606082610c2d8161166a565b610c6c576040517f08c379a0000000000000000000000000000000000000000000000000000000008152600401610c6390612cea565b60405180910390fd5b60096000848152602001908152602001600020805480602002602001604051908101604052809291908181526020016000905b82821015610df157838290600052602060002090600302016040518060600160405290816000820160009054906101000a900463ffffffff1663ffffffff1663ffffffff16815260200160018201805480602002602001604051908101604052809291908181526020018280548015610d3757602002820191906000526020600020905b815481526020019060010190808311610d23575b50505050508152602001600282018054600181600116156101000203166002900480601f016020809104026020016040519081016040528092919081815260200182805460018160011615610100020316600290048015610dd95780601f10610dae57610100808354040283529160200191610dd9565b820191906000526020600020905b815481529060010190602001808311610dbc57829003601f168201915b50505050508152505081526020019060010190610c9f565b5050505091505092915050565b606080600660009054906101000a900460ff1660ff16604051908082528060200260200182016040528015610e4757816020015b6060815260200190600190039081610e325790505b509050600080905060008090505b600660019054906101000a900460ff1660ff168160ff161015610f88576000600760008360ff1660ff1681526020019081526020016000208054600181600116156101000203166002900490501115610f7b57600760008260ff1660ff1681526020019081526020016000208054600181600116156101000203166002900480601f016020809104026020016040519081016040528092919081815260200182805460018160011615610100020316600290048015610f555780601f10610f2a57610100808354040283529160200191610f55565b820191906000526020600020905b815481529060010190602001808311610f3857829003601f168201915b5050505050838380600101945060ff1681518110610f6f57fe5b60200260200101819052505b8080600101915050610e55565b50819250505090565b60606000809054906101000a900473ffffffffffffffffffffffffffffffffffffffff1673ffffffffffffffffffffffffffffffffffffffff163373ffffffffffffffffffffffffffffffffffffffff1614611022576040517f08c379a000000000000000000000000000000000000000000000000000000000815260040161101990612c4a565b60405180910390fd5b600580548060200260200160405190810160405280929190818152602001828054801561106e57602002820191906000526020600020905b81548152602001906001019080831161105a575b5050505050905090565b816001600082815260200190815260200160002060009054906101000a900460ff166110d9576040517f08c379a00000000000000000000000000000000000000000000000000000000081526004016110d090612bea565b60405180910390fd5b600180600084815260200190815260200160002060006101000a81548160ff02191690831515021790555060006001600085815260200190815260200160002060006101000a81548160ff0219169083151502179055506000801b6003600084815260200190815260200160002081905550600260008481526020019081526020016000206002600084815260200190815260200160002090805461117f929190611d42565b5060026000848152602001908152602001600020600061119f9190611d94565b60008090505b60026000848152602001908152602001600020805490508110156112105782600360006002600087815260200190815260200160002084815481106111e657fe5b906000526020600020015481526020019081526020016000208190555080806001019150506111a5565b50505050565b6000809054906101000a900473ffffffffffffffffffffffffffffffffffffffff1673ffffffffffffffffffffffffffffffffffffffff163373ffffffffffffffffffffffffffffffffffffffff16146112a5576040517f08c379a000000000000000000000000000000000000000000000000000000000815260040161129c90612c4a565b60405180910390fd5b806112af816119da565b6112ee576040517f08c379a00000000000000000000000000000000000000000000000000000000081526004016112e590612c8a565b60405180910390fd5b600660019054906101000a900460ff1660ff16600660009054906101000a900460ff1660ff161115611355576040517f08c379a000000000000000000000000000000000000000000000000000000000815260040161134c90612cca565b60405180910390fd5b60008090505b600660019054906101000a900460ff1660ff168160ff16101561141b576000600760008360ff1660ff1681526020019081526020016000208054600181600116156101000203166002900490501161140e5782600760008360ff1660ff16815260200190815260200160002090805190602001906113da929190611cc2565b506006600081819054906101000a900460ff168092919060010191906101000a81548160ff021916908360ff160217905550505b808060010191505061135b565b505050565b6000809054906101000a900473ffffffffffffffffffffffffffffffffffffffff1681565b6060600860008360ff1660ff168152602001908152602001600020805480602002602001604051908101604052809291908181526020016000905b8282101561153c578382906000526020600020018054600181600116156101000203166002900480601f0160208091040260200160405190810160405280929190818152602001828054600181600116156101000203166002900480156115285780601f106114fd57610100808354040283529160200191611528565b820191906000526020600020905b81548152906001019060200180831161150b57829003601f168201915b505050505081526020019060010190611480565b505050509050919050565b6000809054906101000a900473ffffffffffffffffffffffffffffffffffffffff1673ffffffffffffffffffffffffffffffffffffffff163373ffffffffffffffffffffffffffffffffffffffff16146115d6576040517f08c379a00000000000000000000000000000000000000000000000000000000081526004016115cd90612c4a565b60405180910390fd5b81816115e2828261188e565b611621576040517f08c379a000000000000000000000000000000000000000000000000000000000815260040161161890612c6a565b60405180910390fd5b600860008560ff1660ff16815260200190815260200160002061164485856118a5565b8154811061164e57fe5b9060005260206000200160006116649190611db5565b50505050565b60006001600083815260200190815260200160002060009054906101000a900460ff16806116ae57506000801b600360008481526020019081526020016000205414155b9050919050565b816001600082815260200190815260200160002060009054906101000a900460ff16611716576040517f08c379a000000000000000000000000000000000000000000000000000000000815260040161170d90612bea565b60405180910390fd5b6000801b6003600084815260200190815260200160002054141561176f576040517f08c379a000000000000000000000000000000000000000000000000000000000815260040161176690612bca565b60405180910390fd5b60026000848152602001908152602001600020829080600181540180825580915050906001820390600052602060002001600090919290919091505550826003600084815260200190815260200160002081905550505050565b6001600082815260200190815260200160002060009054906101000a900460ff161561182a576040517f08c379a000000000000000000000000000000000000000000000000000000000815260040161182190612caa565b60405180910390fd5b8160046000838152602001908152602001600020600082015181600001908051906020019061185a929190611c42565b5090505060058190806001815401808255809150509060018203906000526020600020016000909192909190915055505050565b600060ff61189c84846118a5565b10905092915050565b600080600090505b600860008560ff1660ff168152602001908152602001600020805490508160ff1610156119ce576118dd83611bc5565b6119af600860008760ff1660ff1681526020019081526020016000208360ff168154811061190757fe5b906000526020600020018054600181600116156101000203166002900480601f0160208091040260200160405190810160405280929190818152602001828054600181600116156101000203166002900480156119a55780601f1061197a576101008083540402835291602001916119a5565b820191906000526020600020905b81548152906001019060200180831161198857829003601f168201915b5050505050611bc5565b14156119c1578060ff169150506119d4565b80806001019150506118ad565b5060ff90505b92915050565b6000600660019054906101000a900460ff1660ff166119f883611a03565b60ff16109050919050565b600080611a0f83611bc5565b905060008090505b600660019054906101000a900460ff1660ff168160ff161015611b45576000600760008360ff1660ff168152602001908152602001600020805460018160011615610100020316600290049050118015611b29575081611b27600760008460ff1660ff1681526020019081526020016000208054600181600116156101000203166002900480601f016020809104026020016040519081016040528092919081815260200182805460018160011615610100020316600290048015611b1d5780601f10611af257610100808354040283529160200191611b1d565b820191906000526020600020905b815481529060010190602001808311611b0057829003601f168201915b5050505050611bc5565b145b15611b38578092505050611b4c565b8080600101915050611a17565b5060ff9150505b919050565b600080600090505b600580549050811015611b9b578260058281548110611b7457fe5b90600052602060002001541415611b8e5780915050611bc0565b8080600101915050611b59565b507fffffffffffffffffffffffffffffffffffffffffffffffffffffffffffffffff90505b919050565b600081604051602001611bd89190612afc565b604051602081830303815290604052805190602001209050919050565b828054828255906000526020600020908101928215611c31579160200282015b82811115611c30578251825591602001919060010190611c15565b5b509050611c3e9190611dfd565b5090565b828054600181600116156101000203166002900490600052602060002090601f016020900481019282601f10611c8357805160ff1916838001178555611cb1565b82800160010185558215611cb1579182015b82811115611cb0578251825591602001919060010190611c95565b5b509050611cbe9190611dfd565b5090565b828054600181600116156101000203166002900490600052602060002090601f016020900481019282601f10611d0357805160ff1916838001178555611d31565b82800160010185558215611d31579182015b82811115611d30578251825591602001919060010190611d15565b5b509050611d3e9190611dfd565b5090565b828054828255906000526020600020908101928215611d835760005260206000209182015b82811115611d82578254825591600101919060010190611d67565b5b509050611d909190611e22565b5090565b5080546000825590600052602060002090810190611db29190611e22565b50565b50805460018160011615610100020316600290046000825580601f10611ddb5750611dfa565b601f016020900490600052602060002090810190611df99190611dfd565b5b50565b611e1f91905b80821115611e1b576000816000905550600101611e03565b5090565b90565b611e4491905b80821115611e40576000816000905550600101611e28565b5090565b90565b600081359050611e5681612fb6565b92915050565b600082601f830112611e6d57600080fd5b8135611e80611e7b82612d37565b612d0a565b91508181835260208401935060208101905083856020840282011115611ea557600080fd5b60005b83811015611ed55781611ebb8882612091565b845260208401935060208301925050600181019050611ea8565b5050505092915050565b600081359050611eee81612fcd565b92915050565b600081519050611f0381612fcd565b92915050565b600082601f830112611f1a57600080fd5b8135611f2d611f2882612d5f565b612d0a565b91508082526020830160208301858383011115611f4957600080fd5b611f54838284612f63565b50505092915050565b600082601f830112611f6e57600080fd5b8135611f81611f7c82612d8b565b612d0a565b91508082526020830160208301858383011115611f9d57600080fd5b611fa8838284612f63565b50505092915050565b600060208284031215611fc357600080fd5b611fcd6020612d0a565b9050600082013567ffffffffffffffff811115611fe957600080fd5b611ff584828501611f09565b60008301525092915050565b60006060828403121561201357600080fd5b61201d6060612d0a565b9050600061202d848285016120a6565b600083015250602082013567ffffffffffffffff81111561204d57600080fd5b61205984828501611e5c565b602083015250604082013567ffffffffffffffff81111561207957600080fd5b61208584828501611f09565b60408301525092915050565b6000813590506120a081612fe4565b92915050565b6000813590506120b581612ffb565b92915050565b6000813590506120ca81613012565b92915050565b6000602082840312156120e257600080fd5b60006120f084828501611e47565b91505092915050565b60006020828403121561210b57600080fd5b600061211984828501611edf565b91505092915050565b60006020828403121561213457600080fd5b600061214284828501611ef4565b91505092915050565b6000806040838503121561215e57600080fd5b600061216c85828601611edf565b925050602061217d85828601611edf565b9150509250929050565b60008060006060848603121561219c57600080fd5b60006121aa86828701611edf565b93505060206121bb86828701611edf565b925050604084013567ffffffffffffffff8111156121d857600080fd5b6121e486828701612001565b9150509250925092565b60006020828403121561220057600080fd5b600082013567ffffffffffffffff81111561221a57600080fd5b61222684828501611f5d565b91505092915050565b6000806040838503121561224257600080fd5b600083013567ffffffffffffffff81111561225c57600080fd5b61226885828601611f5d565b925050602083013567ffffffffffffffff81111561228557600080fd5b61229185828601611f5d565b9150509250929050565b600080604083850312156122ae57600080fd5b600083013567ffffffffffffffff8111156122c857600080fd5b6122d485828601611fb1565b92505060206122e585828601611edf565b9150509250929050565b60006020828403121561230157600080fd5b600061230f848285016120bb565b91505092915050565b6000806040838503121561232b57600080fd5b6000612339858286016120bb565b925050602083013567ffffffffffffffff81111561235657600080fd5b61236285828601611f5d565b9150509250929050565b60008060006060848603121561238157600080fd5b600061238f868287016120bb565b935050602084013567ffffffffffffffff8111156123ac57600080fd5b6123b886828701611f5d565b925050604084013567ffffffffffffffff8111156123d557600080fd5b6123e186828701611f5d565b9150509250925092565b60006123f78383612607565b60208301905092915050565b600061240f8383612687565b905092915050565b60006124238383612a70565b905092915050565b60006124378383612ac7565b60208301905092915050565b61244c81612ef4565b82525050565b600061245d82612df7565b6124678185612e78565b935061247283612db7565b8060005b838110156124a357815161248a88826123eb565b975061249583612e44565b925050600181019050612476565b5085935050505092915050565b60006124bb82612e02565b6124c58185612e89565b9350836020820285016124d785612dc7565b8060005b8581101561251357848403895281516124f48582612403565b94506124ff83612e51565b925060208a019950506001810190506124db565b50829750879550505050505092915050565b600061253082612e0d565b61253a8185612e9a565b93508360208202850161254c85612dd7565b8060005b8581101561258857848403895281516125698582612417565b945061257483612e5e565b925060208a01995050600181019050612550565b50829750879550505050505092915050565b60006125a582612e18565b6125af8185612eab565b93506125ba83612de7565b8060005b838110156125eb5781516125d2888261242b565b97506125dd83612e6b565b9250506001810190506125be565b5085935050505092915050565b61260181612f06565b82525050565b61261081612f12565b82525050565b61261f81612f12565b82525050565b600061263082612e23565b61263a8185612ebc565b935061264a818560208601612f72565b80840191505092915050565b600061266182612e39565b61266b8185612ee9565b935061267b818560208601612f72565b80840191505092915050565b600061269282612e2e565b61269c8185612ec7565b93506126ac818560208601612f72565b6126b581612fa5565b840191505092915050565b60006126cd602183612ed8565b91507f5468617420656d706c6f79656520616c726561647920776f726b73207468657260008301527f65000000000000000000000000000000000000000000000000000000000000006020830152604082019050919050565b6000612733602983612ed8565b91507f596f75206d7573742062652061206465616c657273686970206f776e6572207460008301527f6f20646f207468697300000000000000000000000000000000000000000000006020830152604082019050919050565b6000612799602183612ed8565b91507f4e6f206170706c69636174696f6e2065786973747320666f722074686174206960008301527f64000000000000000000000000000000000000000000000000000000000000006020830152604082019050919050565b60006127ff602183612ed8565b91507f4d6178696d756d207375627365727669636520616d6f756e742072656163686560008301527f64000000000000000000000000000000000000000000000000000000000000006020830152604082019050919050565b6000612865601583612ed8565b91507f596f7520617265206e6f7420746865206f776e657200000000000000000000006000830152602082019050919050565b60006128a5602c83612ed8565b91507f54686174207375627365727669636520646f65736e7420657869737420696e2060008301527f7468697320636f6e7465787400000000000000000000000000000000000000006020830152604082019050919050565b600061290b601b83612ed8565b91507f54686174207365727669636520646f6573206e6f7420657869737400000000006000830152602082019050919050565b600061294b602283612ed8565b91507f54686174206164647265737320697320616c726561647920726567697374657260008301527f65640000000000000000000000000000000000000000000000000000000000006020830152604082019050919050565b60006129b1602883612ed8565b91507f54686572652061726520746865206d6178696d756d206e756d626572206f662060008301527f73657276696365730000000000000000000000000000000000000000000000006020830152604082019050919050565b6000612a17602883612ed8565b91507f596f75206d7573742062652061207665726966696564206465616c657220746f60008301527f20646f20746869730000000000000000000000000000000000000000000000006020830152604082019050919050565b6000606083016000830151612a886000860182612ad6565b5060208301518482036020860152612aa0828261259a565b91505060408301518482036040860152612aba8282612687565b9150508091505092915050565b612ad081612f3c565b82525050565b612adf81612f46565b82525050565b6000612af18284612625565b915081905092915050565b6000612b088284612656565b915081905092915050565b6000602082019050612b286000830184612443565b92915050565b60006020820190508181036000830152612b488184612452565b905092915050565b60006020820190508181036000830152612b6a81846124b0565b905092915050565b60006020820190508181036000830152612b8c8184612525565b905092915050565b6000602082019050612ba960008301846125f8565b92915050565b6000602082019050612bc46000830184612616565b92915050565b60006020820190508181036000830152612be3816126c0565b9050919050565b60006020820190508181036000830152612c0381612726565b9050919050565b60006020820190508181036000830152612c238161278c565b9050919050565b60006020820190508181036000830152612c43816127f2565b9050919050565b60006020820190508181036000830152612c6381612858565b9050919050565b60006020820190508181036000830152612c8381612898565b9050919050565b60006020820190508181036000830152612ca3816128fe565b9050919050565b60006020820190508181036000830152612cc38161293e565b9050919050565b60006020820190508181036000830152612ce3816129a4565b9050919050565b60006020820190508181036000830152612d0381612a0a565b9050919050565b6000604051905081810181811067ffffffffffffffff82111715612d2d57600080fd5b8060405250919050565b600067ffffffffffffffff821115612d4e57600080fd5b602082029050602081019050919050565b600067ffffffffffffffff821115612d7657600080fd5b601f19601f8301169050602081019050919050565b600067ffffffffffffffff821115612da257600080fd5b601f19601f8301169050602081019050919050565b6000819050602082019050919050565b6000819050602082019050919050565b6000819050602082019050919050565b6000819050602082019050919050565b600081519050919050565b600081519050919050565b600081519050919050565b600081519050919050565b600081519050919050565b600081519050919050565b600081519050919050565b6000602082019050919050565b6000602082019050919050565b6000602082019050919050565b6000602082019050919050565b600082825260208201905092915050565b600082825260208201905092915050565b600082825260208201905092915050565b600082825260208201905092915050565b600081905092915050565b600082825260208201905092915050565b600082825260208201905092915050565b600081905092915050565b6000612eff82612f1c565b9050919050565b60008115159050919050565b6000819050919050565b600073ffffffffffffffffffffffffffffffffffffffff82169050919050565b6000819050919050565b600063ffffffff82169050919050565b600060ff82169050919050565b82818337600083830152505050565b60005b83811015612f90578082015181840152602081019050612f75565b83811115612f9f576000848401525b50505050565b6000601f19601f8301169050919050565b612fbf81612ef4565b8114612fca57600080fd5b50565b612fd681612f12565b8114612fe157600080fd5b50565b612fed81612f3c565b8114612ff857600080fd5b50565b61300481612f46565b811461300f57600080fd5b50565b61301b81612f56565b811461302657600080fd5b5056fea365627a7a723158207c44b9f41565d0ff94fe0c8aada609ec222546cc30170bb7e730d9d5e4a06cf06c6578706572696d656e74616cf564736f6c634300050c0040",
  "source": "pragma solidity ^0.5.11;\npragma experimental ABIEncoderV2;\n\nimport \"./ServiceHandler.sol\";\n\ncontract UserContract is ServiceHandler {\n\n    struct RecordInternal {\n        uint32 services;\n        uint[] subservices;\n        string comment;\n    }\n    struct RecordExternal {\n        string[] services;\n        string[][] subservices;\n        string comment;\n    }\n\n    //------------------------------------------------------------_Records_---------------------------------------------\n\n    mapping(bytes32 => RecordInternal[]) private userRecords;\n\n    function insertRecord(bytes32 dealerId, bytes32 id, RecordInternal memory record) public verified(dealerId){\n        userRecords[id].push(record);\n    }\n\n    function getRecords(bytes32 dealerId, bytes32 id) public view verified(dealerId) returns (RecordInternal[] memory){\n        return userRecords[id];\n    }\n\n}\n",
  "sourcePath": "/Users/mapring/Documents/school/blockchain/blockchain-project-2019/backend/contracts/UserContract.sol",
  "compiler": {
    "name": "solc",
    "version": "0.5.12+commit.7709ece9.Emscripten.clang"
  },
  "schemaVersion": "3.0.19",
  "updatedAt": "2019-11-14T13:18:27.312Z",
  "networkType": "ethereum",
  "devdoc": {
    "methods": {}
  },
  "userdoc": {
    "methods": {}
  }
}