{
  "contractName": "AppointmentHandler",
  "abi": [
    {
      "anonymous": false,
      "inputs": [
        {
          "components": [
            {
              "internalType": "string",
              "name": "dealerName",
              "type": "string"
            },
            {
              "internalType": "string",
              "name": "firstName",
              "type": "string"
            },
            {
              "internalType": "string",
              "name": "lastName",
              "type": "string"
            },
            {
              "internalType": "string",
              "name": "addr",
              "type": "string"
            },
            {
              "internalType": "string",
              "name": "location",
              "type": "string"
            },
            {
              "internalType": "string",
              "name": "phoneNo",
              "type": "string"
            },
            {
              "internalType": "string",
              "name": "bestSeller",
              "type": "string"
            },
            {
              "internalType": "string",
              "name": "promotion",
              "type": "string"
            },
            {
              "internalType": "string",
              "name": "otherServices",
              "type": "string"
            },
            {
              "internalType": "string[]",
              "name": "availableServices",
              "type": "string[]"
            },
            {
              "internalType": "string[][]",
              "name": "availableSubServices",
              "type": "string[][]"
            }
          ],
          "indexed": false,
          "internalType": "struct DealerContract.DealerInfo",
          "name": "info",
          "type": "tuple"
        },
        {
          "indexed": false,
          "internalType": "bytes32",
          "name": "id",
          "type": "bytes32"
        }
      ],
      "name": "CreateDealerApplication",
      "type": "event"
    },
    {
      "constant": false,
      "inputs": [
        {
          "internalType": "bytes32",
          "name": "dealerId",
          "type": "bytes32"
        },
        {
          "internalType": "bytes32",
          "name": "adr",
          "type": "bytes32"
        }
      ],
      "name": "addDealerEmployee",
      "outputs": [],
      "payable": false,
      "stateMutability": "nonpayable",
      "type": "function"
    },
    {
      "constant": false,
      "inputs": [
        {
          "internalType": "string",
          "name": "serviceName",
          "type": "string"
        }
      ],
      "name": "addService",
      "outputs": [],
      "payable": false,
      "stateMutability": "nonpayable",
      "type": "function"
    },
    {
      "constant": false,
      "inputs": [
        {
          "internalType": "string",
          "name": "serviceName",
          "type": "string"
        },
        {
          "internalType": "string",
          "name": "subServiceName",
          "type": "string"
        }
      ],
      "name": "addSubService",
      "outputs": [],
      "payable": false,
      "stateMutability": "nonpayable",
      "type": "function"
    },
    {
      "constant": false,
      "inputs": [
        {
          "internalType": "bytes32",
          "name": "adr",
          "type": "bytes32"
        }
      ],
      "name": "approveApplication",
      "outputs": [],
      "payable": false,
      "stateMutability": "nonpayable",
      "type": "function"
    },
    {
      "constant": false,
      "inputs": [
        {
          "components": [
            {
              "internalType": "string",
              "name": "dealerName",
              "type": "string"
            },
            {
              "internalType": "string",
              "name": "firstName",
              "type": "string"
            },
            {
              "internalType": "string",
              "name": "lastName",
              "type": "string"
            },
            {
              "internalType": "string",
              "name": "addr",
              "type": "string"
            },
            {
              "internalType": "string",
              "name": "location",
              "type": "string"
            },
            {
              "internalType": "string",
              "name": "phoneNo",
              "type": "string"
            },
            {
              "internalType": "string",
              "name": "bestSeller",
              "type": "string"
            },
            {
              "internalType": "string",
              "name": "promotion",
              "type": "string"
            },
            {
              "internalType": "string",
              "name": "otherServices",
              "type": "string"
            },
            {
              "internalType": "string[]",
              "name": "availableServices",
              "type": "string[]"
            },
            {
              "internalType": "string[][]",
              "name": "availableSubServices",
              "type": "string[][]"
            }
          ],
          "internalType": "struct DealerContract.DealerInfo",
          "name": "info",
          "type": "tuple"
        },
        {
          "internalType": "bytes32",
          "name": "id",
          "type": "bytes32"
        }
      ],
      "name": "createDealerApplication",
      "outputs": [],
      "payable": false,
      "stateMutability": "nonpayable",
      "type": "function"
    },
    {
      "constant": false,
      "inputs": [
        {
          "internalType": "string",
          "name": "serviceName",
          "type": "string"
        }
      ],
      "name": "deleteService",
      "outputs": [],
      "payable": false,
      "stateMutability": "nonpayable",
      "type": "function"
    },
    {
      "constant": false,
      "inputs": [
        {
          "internalType": "string",
          "name": "serviceName",
          "type": "string"
        },
        {
          "internalType": "string",
          "name": "subServiceName",
          "type": "string"
        }
      ],
      "name": "deleteSubService",
      "outputs": [],
      "payable": false,
      "stateMutability": "nonpayable",
      "type": "function"
    },
    {
      "constant": false,
      "inputs": [
        {
          "internalType": "bytes32",
          "name": "userId",
          "type": "bytes32"
        },
        {
          "internalType": "string",
          "name": "noPlate",
          "type": "string"
        },
        {
          "components": [
            {
              "internalType": "string",
              "name": "brand",
              "type": "string"
            },
            {
              "internalType": "string",
              "name": "model",
              "type": "string"
            },
            {
              "internalType": "string",
              "name": "year",
              "type": "string"
            }
          ],
          "internalType": "struct UserContract.CarInfo",
          "name": "carInfo",
          "type": "tuple"
        }
      ],
      "name": "editCarDetails",
      "outputs": [],
      "payable": false,
      "stateMutability": "nonpayable",
      "type": "function"
    },
    {
      "constant": false,
      "inputs": [
        {
          "components": [
            {
              "internalType": "string",
              "name": "dealerName",
              "type": "string"
            },
            {
              "internalType": "string",
              "name": "firstName",
              "type": "string"
            },
            {
              "internalType": "string",
              "name": "lastName",
              "type": "string"
            },
            {
              "internalType": "string",
              "name": "addr",
              "type": "string"
            },
            {
              "internalType": "string",
              "name": "location",
              "type": "string"
            },
            {
              "internalType": "string",
              "name": "phoneNo",
              "type": "string"
            },
            {
              "internalType": "string",
              "name": "bestSeller",
              "type": "string"
            },
            {
              "internalType": "string",
              "name": "promotion",
              "type": "string"
            },
            {
              "internalType": "string",
              "name": "otherServices",
              "type": "string"
            },
            {
              "internalType": "string[]",
              "name": "availableServices",
              "type": "string[]"
            },
            {
              "internalType": "string[][]",
              "name": "availableSubServices",
              "type": "string[][]"
            }
          ],
          "internalType": "struct DealerContract.DealerInfo",
          "name": "info",
          "type": "tuple"
        },
        {
          "internalType": "bytes32",
          "name": "id",
          "type": "bytes32"
        }
      ],
      "name": "editDealerInfo",
      "outputs": [],
      "payable": false,
      "stateMutability": "nonpayable",
      "type": "function"
    },
    {
      "constant": false,
      "inputs": [
        {
          "internalType": "string",
          "name": "oldName",
          "type": "string"
        },
        {
          "internalType": "string",
          "name": "newName",
          "type": "string"
        }
      ],
      "name": "editServiceName",
      "outputs": [],
      "payable": false,
      "stateMutability": "nonpayable",
      "type": "function"
    },
    {
      "constant": false,
      "inputs": [
        {
          "internalType": "string",
          "name": "serviceName",
          "type": "string"
        },
        {
          "internalType": "string",
          "name": "oldName",
          "type": "string"
        },
        {
          "internalType": "string",
          "name": "newName",
          "type": "string"
        }
      ],
      "name": "editSubServiceName",
      "outputs": [],
      "payable": false,
      "stateMutability": "nonpayable",
      "type": "function"
    },
    {
      "constant": false,
      "inputs": [
        {
          "internalType": "bytes32",
          "name": "userId",
          "type": "bytes32"
        },
        {
          "components": [
            {
              "internalType": "string",
              "name": "firstName",
              "type": "string"
            },
            {
              "internalType": "string",
              "name": "lastName",
              "type": "string"
            },
            {
              "internalType": "string",
              "name": "adr",
              "type": "string"
            },
            {
              "internalType": "string",
              "name": "phNo",
              "type": "string"
            },
            {
              "internalType": "string",
              "name": "email",
              "type": "string"
            }
          ],
          "internalType": "struct UserContract.UserInfo",
          "name": "info",
          "type": "tuple"
        }
      ],
      "name": "editUserInfo",
      "outputs": [],
      "payable": false,
      "stateMutability": "nonpayable",
      "type": "function"
    },
    {
      "constant": true,
      "inputs": [],
      "name": "getAllDealerApplications",
      "outputs": [
        {
          "internalType": "bytes32[]",
          "name": "",
          "type": "bytes32[]"
        }
      ],
      "payable": false,
      "stateMutability": "view",
      "type": "function"
    },
    {
      "constant": true,
      "inputs": [
        {
          "internalType": "bytes32",
          "name": "userId",
          "type": "bytes32"
        }
      ],
      "name": "getCars",
      "outputs": [
        {
          "components": [
            {
              "internalType": "string",
              "name": "brand",
              "type": "string"
            },
            {
              "internalType": "string",
              "name": "model",
              "type": "string"
            },
            {
              "internalType": "string",
              "name": "year",
              "type": "string"
            }
          ],
          "internalType": "struct UserContract.CarInfo[]",
          "name": "",
          "type": "tuple[]"
        }
      ],
      "payable": false,
      "stateMutability": "view",
      "type": "function"
    },
    {
      "constant": true,
      "inputs": [
        {
          "internalType": "bytes32",
          "name": "id",
          "type": "bytes32"
        }
      ],
      "name": "getDealerInfo",
      "outputs": [
        {
          "components": [
            {
              "internalType": "string",
              "name": "dealerName",
              "type": "string"
            },
            {
              "internalType": "string",
              "name": "firstName",
              "type": "string"
            },
            {
              "internalType": "string",
              "name": "lastName",
              "type": "string"
            },
            {
              "internalType": "string",
              "name": "addr",
              "type": "string"
            },
            {
              "internalType": "string",
              "name": "location",
              "type": "string"
            },
            {
              "internalType": "string",
              "name": "phoneNo",
              "type": "string"
            },
            {
              "internalType": "string",
              "name": "bestSeller",
              "type": "string"
            },
            {
              "internalType": "string",
              "name": "promotion",
              "type": "string"
            },
            {
              "internalType": "string",
              "name": "otherServices",
              "type": "string"
            },
            {
              "internalType": "string[]",
              "name": "availableServices",
              "type": "string[]"
            },
            {
              "internalType": "string[][]",
              "name": "availableSubServices",
              "type": "string[][]"
            }
          ],
          "internalType": "struct DealerContract.DealerInfo",
          "name": "",
          "type": "tuple"
        }
      ],
      "payable": false,
      "stateMutability": "view",
      "type": "function"
    },
    {
      "constant": true,
      "inputs": [
        {
          "internalType": "string",
          "name": "id",
          "type": "string"
        }
      ],
      "name": "getHash",
      "outputs": [
        {
          "internalType": "bytes32",
          "name": "",
          "type": "bytes32"
        }
      ],
      "payable": false,
      "stateMutability": "pure",
      "type": "function"
    },
    {
      "constant": true,
      "inputs": [
        {
          "internalType": "string",
          "name": "noPlate",
          "type": "string"
        }
      ],
      "name": "getRecords",
      "outputs": [
        {
          "components": [
            {
              "internalType": "string[]",
              "name": "services",
              "type": "string[]"
            },
            {
              "internalType": "string[]",
              "name": "subservices",
              "type": "string[]"
            },
            {
              "internalType": "string",
              "name": "comment",
              "type": "string"
            },
            {
              "internalType": "uint256",
              "name": "timeStamp",
              "type": "uint256"
            }
          ],
          "internalType": "struct UserContract.RecordInternal[]",
          "name": "",
          "type": "tuple[]"
        }
      ],
      "payable": false,
      "stateMutability": "view",
      "type": "function"
    },
    {
      "constant": true,
      "inputs": [],
      "name": "getServices",
      "outputs": [
        {
          "internalType": "string[]",
          "name": "",
          "type": "string[]"
        }
      ],
      "payable": false,
      "stateMutability": "view",
      "type": "function"
    },
    {
      "constant": true,
      "inputs": [
        {
          "internalType": "string",
          "name": "serviceName",
          "type": "string"
        }
      ],
      "name": "getSubServices",
      "outputs": [
        {
          "internalType": "string[]",
          "name": "",
          "type": "string[]"
        }
      ],
      "payable": false,
      "stateMutability": "view",
      "type": "function"
    },
    {
      "constant": true,
      "inputs": [
        {
          "internalType": "bytes32",
          "name": "userId",
          "type": "bytes32"
        }
      ],
      "name": "getUserInfo",
      "outputs": [
        {
          "components": [
            {
              "internalType": "string",
              "name": "firstName",
              "type": "string"
            },
            {
              "internalType": "string",
              "name": "lastName",
              "type": "string"
            },
            {
              "internalType": "string",
              "name": "adr",
              "type": "string"
            },
            {
              "internalType": "string",
              "name": "phNo",
              "type": "string"
            },
            {
              "internalType": "string",
              "name": "email",
              "type": "string"
            }
          ],
          "internalType": "struct UserContract.UserInfo",
          "name": "",
          "type": "tuple"
        }
      ],
      "payable": false,
      "stateMutability": "view",
      "type": "function"
    },
    {
      "constant": false,
      "inputs": [
        {
          "internalType": "bytes32",
          "name": "dealerId",
          "type": "bytes32"
        },
        {
          "internalType": "bytes32",
          "name": "id",
          "type": "bytes32"
        },
        {
          "internalType": "string",
          "name": "noPlate",
          "type": "string"
        },
        {
          "internalType": "string[]",
          "name": "services",
          "type": "string[]"
        },
        {
          "internalType": "string[]",
          "name": "subservices",
          "type": "string[]"
        },
        {
          "internalType": "string",
          "name": "comment",
          "type": "string"
        },
        {
          "internalType": "uint256",
          "name": "timeStamp",
          "type": "uint256"
        }
      ],
      "name": "insertRecord",
      "outputs": [],
      "payable": false,
      "stateMutability": "nonpayable",
      "type": "function"
    },
    {
      "constant": true,
      "inputs": [
        {
          "internalType": "bytes32",
          "name": "adr",
          "type": "bytes32"
        }
      ],
      "name": "isVerified",
      "outputs": [
        {
          "internalType": "bool",
          "name": "",
          "type": "bool"
        }
      ],
      "payable": false,
      "stateMutability": "view",
      "type": "function"
    },
    {
      "constant": true,
      "inputs": [],
      "name": "owner",
      "outputs": [
        {
          "internalType": "address",
          "name": "",
          "type": "address"
        }
      ],
      "payable": false,
      "stateMutability": "view",
      "type": "function"
    },
    {
      "constant": false,
      "inputs": [
        {
          "internalType": "bytes32",
          "name": "dealershipId",
          "type": "bytes32"
        },
        {
          "internalType": "bytes32",
          "name": "otherId",
          "type": "bytes32"
        }
      ],
      "name": "transferDealershipOwner",
      "outputs": [],
      "payable": false,
      "stateMutability": "nonpayable",
      "type": "function"
    },
    {
      "constant": false,
      "inputs": [
        {
          "internalType": "address",
          "name": "newOwner",
          "type": "address"
        }
      ],
      "name": "transferOwner",
      "outputs": [],
      "payable": false,
      "stateMutability": "nonpayable",
      "type": "function"
    },
    {
      "constant": false,
      "inputs": [
        {
          "components": [
            {
              "internalType": "bytes32",
              "name": "userId",
              "type": "bytes32"
            },
            {
              "internalType": "bytes32",
              "name": "dealerId",
              "type": "bytes32"
            },
            {
              "internalType": "string",
              "name": "carPlate",
              "type": "string"
            },
            {
              "internalType": "uint16",
              "name": "time",
              "type": "uint16"
            }
          ],
          "internalType": "struct AppointmentHandler.Appointment",
          "name": "appointment",
          "type": "tuple"
        }
      ],
      "name": "createAppointment",
      "outputs": [],
      "payable": false,
      "stateMutability": "nonpayable",
      "type": "function"
    },
    {
      "constant": false,
      "inputs": [
        {
          "components": [
            {
              "internalType": "bytes32",
              "name": "userId",
              "type": "bytes32"
            },
            {
              "internalType": "bytes32",
              "name": "dealerId",
              "type": "bytes32"
            },
            {
              "internalType": "string",
              "name": "carPlate",
              "type": "string"
            },
            {
              "internalType": "uint16",
              "name": "time",
              "type": "uint16"
            }
          ],
          "internalType": "struct AppointmentHandler.Appointment",
          "name": "appointment",
          "type": "tuple"
        }
      ],
      "name": "completeAppointment",
      "outputs": [],
      "payable": false,
      "stateMutability": "nonpayable",
      "type": "function"
    },
    {
      "constant": false,
      "inputs": [
        {
          "components": [
            {
              "internalType": "bytes32",
              "name": "userId",
              "type": "bytes32"
            },
            {
              "internalType": "bytes32",
              "name": "dealerId",
              "type": "bytes32"
            },
            {
              "internalType": "string",
              "name": "carPlate",
              "type": "string"
            },
            {
              "internalType": "uint16",
              "name": "time",
              "type": "uint16"
            }
          ],
          "internalType": "struct AppointmentHandler.Appointment",
          "name": "appointment",
          "type": "tuple"
        }
      ],
      "name": "cancelAppointment",
      "outputs": [],
      "payable": false,
      "stateMutability": "nonpayable",
      "type": "function"
    },
    {
      "constant": true,
      "inputs": [
        {
          "internalType": "bytes32",
          "name": "dealerId",
          "type": "bytes32"
        }
      ],
      "name": "getAppointmentHistory",
      "outputs": [
        {
          "components": [
            {
              "internalType": "bytes32",
              "name": "userId",
              "type": "bytes32"
            },
            {
              "internalType": "bytes32",
              "name": "dealerId",
              "type": "bytes32"
            },
            {
              "internalType": "string",
              "name": "carPlate",
              "type": "string"
            },
            {
              "internalType": "uint16",
              "name": "time",
              "type": "uint16"
            }
          ],
          "internalType": "struct AppointmentHandler.Appointment[]",
          "name": "",
          "type": "tuple[]"
        }
      ],
      "payable": false,
      "stateMutability": "view",
      "type": "function"
    },
    {
      "constant": true,
      "inputs": [
        {
          "internalType": "bytes32",
          "name": "dealerId",
          "type": "bytes32"
        }
      ],
      "name": "getPendingAppointments",
      "outputs": [
        {
          "components": [
            {
              "internalType": "bytes32",
              "name": "userId",
              "type": "bytes32"
            },
            {
              "internalType": "bytes32",
              "name": "dealerId",
              "type": "bytes32"
            },
            {
              "internalType": "string",
              "name": "carPlate",
              "type": "string"
            },
            {
              "internalType": "uint16",
              "name": "time",
              "type": "uint16"
            }
          ],
          "internalType": "struct AppointmentHandler.Appointment[]",
          "name": "",
          "type": "tuple[]"
        }
      ],
      "payable": false,
      "stateMutability": "view",
      "type": "function"
    },
    {
      "constant": true,
      "inputs": [
        {
          "internalType": "bytes32",
          "name": "userId",
          "type": "bytes32"
        }
      ],
      "name": "getUserAppointment",
      "outputs": [
        {
          "components": [
            {
              "internalType": "bytes32",
              "name": "userId",
              "type": "bytes32"
            },
            {
              "internalType": "bytes32",
              "name": "dealerId",
              "type": "bytes32"
            },
            {
              "internalType": "string",
              "name": "carPlate",
              "type": "string"
            },
            {
              "internalType": "uint16",
              "name": "time",
              "type": "uint16"
            }
          ],
          "internalType": "struct AppointmentHandler.Appointment",
          "name": "",
          "type": "tuple"
        }
      ],
      "payable": false,
      "stateMutability": "view",
      "type": "function"
    }
  ],
  "bytecode": "0x608060405260fe600660016101000a81548160ff021916908360ff160217905550336000806101000a81548173ffffffffffffffffffffffffffffffffffffffff021916908373ffffffffffffffffffffffffffffffffffffffff16021790555061654a8061006f6000396000f3fe608060405234801561001057600080fd5b50600436106101e55760003560e01c80637d17f13c1161010f578063adff8b0f116100a2578063c9b54a5811610071578063c9b54a5814610584578063cd2c4f4b146105b4578063ddb5f476146105d0578063e445268c14610600576101e5565b8063adff8b0f146104d8578063b63e01d214610508578063c181b27314610538578063c4e91d1714610568576101e5565b806388fcd194116100de57806388fcd194146104525780638da5cb5b1461046e5780638ee242141461048c578063a44e4c70146104a8576101e5565b80637d17f13c146103b85780637e41667f146103e857806382d7afbd1461040657806386e80b7114610422576101e5565b8063369bfce41161018757806350fb95e31161015657806350fb95e3146103325780635b6beeb91461034e5780636fd7d2b51461037e578063754178511461039a576101e5565b8063369bfce4146102ae578063431a65fc146102ca578063498d87f1146102fa5780634fb2e45d14610316576101e5565b80631a4c85be116101c35780631a4c85be1461023e5780631b8f47fe1461025a5780632d4afc7b146102765780633490a29514610292576101e5565b806307681038146101ea5780630ad5be91146102065780630eb7bc8f14610222575b600080fd5b61020460048036036101ff9190810190614f41565b61061c565b005b610220600480360361021b9190810190614beb565b61083f565b005b61023c60048036036102379190810190614dfd565b610a08565b005b61025860048036036102539190810190614dbc565b610b1b565b005b610274600480360361026f9190810190614b5d565b610c6f565b005b610290600480360361028b9190810190614f41565b610d99565b005b6102ac60048036036102a79190810190614f00565b610f58565b005b6102c860048036036102c39190810190614dfd565b6110bc565b005b6102e460048036036102df9190810190614dbc565b6111e4565b6040516102f19190615dca565b60405180910390f35b610314600480360361030f9190810190614f00565b6112eb565b005b610330600480360361032b9190810190614b34565b61151a565b005b61034c60048036036103479190810190614dfd565b6115ec565b005b61036860048036036103639190810190614dbc565b61178e565b6040516103759190615e6d565b60405180910390f35b61039860048036036103939190810190614e69565b611806565b005b6103a2611938565b6040516103af9190615dca565b60405180910390f35b6103d260048036036103cd9190810190614b5d565b611acb565b6040516103df919061608a565b60405180910390f35b6103f06122c4565b6040516103fd9190615da8565b60405180910390f35b610420600480360361041b9190810190614baf565b6123ab565b005b61043c60048036036104379190810190614dbc565b612549565b6040516104499190615e30565b60405180910390f35b61046c60048036036104679190810190614dbc565b612844565b005b610476612a55565b6040516104839190615d8d565b60405180910390f35b6104a660048036036104a19190810190614ce9565b612a7a565b005b6104c260048036036104bd9190810190614b5d565b612ba3565b6040516104cf9190615dec565b60405180910390f35b6104f260048036036104ed9190810190614b5d565b612d35565b6040516104ff91906160dc565b60405180910390f35b610522600480360361051d9190810190614b5d565b61308c565b60405161052f9190615dec565b60405180910390f35b610552600480360361054d9190810190614b5d565b61321e565b60405161055f9190615e52565b60405180910390f35b610582600480360361057d9190810190614d68565b613269565b005b61059e60048036036105999190810190614b5d565b613315565b6040516105ab9190615e0e565b60405180910390f35b6105ce60048036036105c99190810190614f00565b6135f3565b005b6105ea60048036036105e59190810190614b5d565b61376b565b6040516105f79190616068565b60405180910390f35b61061a60048036036106159190810190614baf565b61386e565b005b6001600082815260200190815260200160002060009054906101000a900460ff161561067d576040517f08c379a000000000000000000000000000000000000000000000000000000000815260040161067490615fc8565b60405180910390fd5b816004600083815260200190815260200160002060008201518160000190805190602001906106ad929190614069565b5060208201518160010190805190602001906106ca929190614069565b5060408201518160020190805190602001906106e7929190614069565b506060820151816003019080519060200190610704929190614069565b506080820151816004019080519060200190610721929190614069565b5060a082015181600501908051906020019061073e929190614069565b5060c082015181600601908051906020019061075b929190614069565b5060e0820151816007019080519060200190610778929190614069565b50610100820151816008019080519060200190610796929190614069565b506101208201518160090190805190602001906107b49291906140e9565b5061014082015181600a0190805190602001906107d2929190614149565b5090505060058190806001815401808255809150509060018203906000526020600020016000909192909190915055507f42ab459ad3144922283159073eea05ed3ff810ab23fc94bbad43d99b9332dbb282826040516108339291906160ac565b60405180910390a15050565b866108498161321e565b610888576040517f08c379a000000000000000000000000000000000000000000000000000000000815260040161087f90616048565b60405180910390fd5b8451845111156108cd576040517f08c379a00000000000000000000000000000000000000000000000000000000081526004016108c490615f48565b60405180910390fd5b60006108d98888613981565b121561093057600b600088815260200190815260200160002086908060018154018082558091505090600182039060005260206000200160009091929091909150908051906020019061092d9291906141a9565b50505b6009866040516109409190615d5f565b90815260200160405180910390206040518060800160405280878152602001868152602001858152602001848152509080600181540180825580915050906001820390600052602060002090600402016000909192909190915060008201518160000190805190602001906109b69291906140e9565b5060208201518160010190805190602001906109d39291906140e9565b5060408201518160020190805190602001906109f0929190614069565b50606082015181600301555050505050505050505050565b6000809054906101000a900473ffffffffffffffffffffffffffffffffffffffff1673ffffffffffffffffffffffffffffffffffffffff163373ffffffffffffffffffffffffffffffffffffffff1614610a97576040517f08c379a0000000000000000000000000000000000000000000000000000000008152600401610a8e90615f68565b60405180910390fd5b81610aa181613af6565b610ae0576040517f08c379a0000000000000000000000000000000000000000000000000000000008152600401610ad790615fa8565b60405180910390fd5b8160076000610aee86613b1f565b60ff1660ff1681526020019081526020016000209080519060200190610b159291906141a9565b50505050565b6000809054906101000a900473ffffffffffffffffffffffffffffffffffffffff1673ffffffffffffffffffffffffffffffffffffffff163373ffffffffffffffffffffffffffffffffffffffff1614610baa576040517f08c379a0000000000000000000000000000000000000000000000000000000008152600401610ba190615f68565b60405180910390fd5b80610bb481613af6565b610bf3576040517f08c379a0000000000000000000000000000000000000000000000000000000008152600401610bea90615fa8565b60405180910390fd5b6040518060200160405280600081525060076000610c1085613b1f565b60ff1660ff1681526020019081526020016000209080519060200190610c379291906141a9565b506006600081819054906101000a900460ff16809291906001900391906101000a81548160ff021916908360ff160217905550505050565b6000809054906101000a900473ffffffffffffffffffffffffffffffffffffffff1673ffffffffffffffffffffffffffffffffffffffff163373ffffffffffffffffffffffffffffffffffffffff1614610cfe576040517f08c379a0000000000000000000000000000000000000000000000000000000008152600401610cf590615f68565b60405180910390fd5b6000610d0982613c6d565b90506000811215610d4f576040517f08c379a0000000000000000000000000000000000000000000000000000000008152600401610d4690615ee8565b60405180910390fd5b600180600084815260200190815260200160002060006101000a81548160ff02191690831515021790555060058181548110610d8757fe5b90600052602060002001600090555050565b806001600082815260200190815260200160002060009054906101000a900460ff16610dfa576040517f08c379a0000000000000000000000000000000000000000000000000000000008152600401610df190615ea8565b60405180910390fd5b82600460008481526020019081526020016000206000820151816000019080519060200190610e2a929190614069565b506020820151816001019080519060200190610e47929190614069565b506040820151816002019080519060200190610e64929190614069565b506060820151816003019080519060200190610e81929190614069565b506080820151816004019080519060200190610e9e929190614069565b5060a0820151816005019080519060200190610ebb929190614069565b5060c0820151816006019080519060200190610ed8929190614069565b5060e0820151816007019080519060200190610ef5929190614069565b50610100820151816008019080519060200190610f13929190614069565b50610120820151816009019080519060200190610f319291906140e9565b5061014082015181600a019080519060200190610f4f929190614149565b50905050505050565b8060200151610f668161321e565b610fa5576040517f08c379a0000000000000000000000000000000000000000000000000000000008152600401610f9c90616048565b60405180910390fd5b6000610fb083613ce1565b90507fffffffffffffffffffffffffffffffffffffffffffffffffffffffffffffffff8110611014576040517f08c379a000000000000000000000000000000000000000000000000000000000815260040161100b90615f08565b60405180910390fd5b600d600084602001518152602001908152602001600020839080600181540180825580915050906001820390600052602060002090600402016000909192909190915060008201518160000155602082015181600101556040820151816002019080519060200190611087929190614069565b5060608201518160030160006101000a81548161ffff021916908361ffff1602179055505050506110b7836135f3565b505050565b6000809054906101000a900473ffffffffffffffffffffffffffffffffffffffff1673ffffffffffffffffffffffffffffffffffffffff163373ffffffffffffffffffffffffffffffffffffffff161461114b576040517f08c379a000000000000000000000000000000000000000000000000000000000815260040161114290615f68565b60405180910390fd5b81816111578282613dd7565b611196576040517f08c379a000000000000000000000000000000000000000000000000000000000815260040161118d90615f88565b60405180910390fd5b6008846040516111a69190615d5f565b90815260200160405180910390206111be8585613dee565b815481106111c857fe5b9060005260206000200160006111de9190614229565b50505050565b60606008826040516111f69190615d5f565b9081526020016040518091039020805480602002602001604051908101604052809291908181526020016000905b828210156112e0578382906000526020600020018054600181600116156101000203166002900480601f0160208091040260200160405190810160405280929190818152602001828054600181600116156101000203166002900480156112cc5780601f106112a1576101008083540402835291602001916112cc565b820191906000526020600020905b8154815290600101906020018083116112af57829003601f168201915b505050505081526020019060010190611224565b505050509050919050565b80604001516000600c826040516113029190615d5f565b908152602001604051809103902060000180546001816001161561010002031660029004905011611368576040517f08c379a000000000000000000000000000000000000000000000000000000000815260040161135f90616028565b60405180910390fd5b81602001516113768161321e565b6113b5576040517f08c379a00000000000000000000000000000000000000000000000000000000081526004016113ac90616048565b60405180910390fd5b6000836000015190506000801b600f600083815260200190815260200160002060000154146114795760006113e985613ce1565b905084600e600087602001518152602001908152602001600020828154811061140e57fe5b90600052602060002090600402016000820151816000015560208201518160010155604082015181600201908051906020019061144c929190614069565b5060608201518160030160006101000a81548161ffff021916908361ffff16021790555090505050611514565b600e6000856020015181526020019081526020016000208490806001815401808255809150509060018203906000526020600020906004020160009091929091909150600082015181600001556020820151816001015560408201518160020190805190602001906114ec929190614069565b5060608201518160030160006101000a81548161ffff021916908361ffff1602179055505050505b50505050565b6000809054906101000a900473ffffffffffffffffffffffffffffffffffffffff1673ffffffffffffffffffffffffffffffffffffffff163373ffffffffffffffffffffffffffffffffffffffff16146115a9576040517f08c379a00000000000000000000000000000000000000000000000000000000081526004016115a090615f68565b60405180910390fd5b806000806101000a81548173ffffffffffffffffffffffffffffffffffffffff021916908373ffffffffffffffffffffffffffffffffffffffff16021790555050565b8160ff6008826040516115ff9190615d5f565b90815260200160405180910390208054905010611651576040517f08c379a000000000000000000000000000000000000000000000000000000000815260040161164890615f28565b60405180910390fd5b828261165d8282613dd7565b1561169d576040517f08c379a000000000000000000000000000000000000000000000000000000000815260040161169490615ec8565b60405180910390fd5b6000809054906101000a900473ffffffffffffffffffffffffffffffffffffffff1673ffffffffffffffffffffffffffffffffffffffff163373ffffffffffffffffffffffffffffffffffffffff161461172c576040517f08c379a000000000000000000000000000000000000000000000000000000000815260040161172390615f68565b60405180910390fd5b60088560405161173c9190615d5f565b90815260200160405180910390208490806001815401808255809150509060018203906000526020600020016000909192909190915090805190602001906117859291906141a9565b50505050505050565b60006002826040516020016117a39190615d5f565b6040516020818303038152906040526040516117bf9190615d48565b602060405180830381855afa1580156117dc573d6000803e3d6000fd5b5050506040513d601f19601f820116820180604052506117ff9190810190614b86565b9050919050565b82826118128282613dd7565b611851576040517f08c379a000000000000000000000000000000000000000000000000000000000815260040161184890615f88565b60405180910390fd5b6000809054906101000a900473ffffffffffffffffffffffffffffffffffffffff1673ffffffffffffffffffffffffffffffffffffffff163373ffffffffffffffffffffffffffffffffffffffff16146118e0576040517f08c379a00000000000000000000000000000000000000000000000000000000081526004016118d790615f68565b60405180910390fd5b826008866040516118f19190615d5f565b90815260200160405180910390206119098787613dee565b8154811061191357fe5b9060005260206000200190805190602001906119309291906141a9565b505050505050565b606080600660009054906101000a900460ff1660ff1660405190808252806020026020018201604052801561198157816020015b606081526020019060019003908161196c5790505b509050600080905060008090505b600660019054906101000a900460ff1660ff168160ff161015611ac2576000600760008360ff1660ff1681526020019081526020016000208054600181600116156101000203166002900490501115611ab557600760008260ff1660ff1681526020019081526020016000208054600181600116156101000203166002900480601f016020809104026020016040519081016040528092919081815260200182805460018160011615610100020316600290048015611a8f5780601f10611a6457610100808354040283529160200191611a8f565b820191906000526020600020905b815481529060010190602001808311611a7257829003601f168201915b5050505050838380600101945060ff1681518110611aa957fe5b60200260200101819052505b808060010191505061198f565b50819250505090565b611ad3614271565b6004600083815260200190815260200160002060405180610160016040529081600082018054600181600116156101000203166002900480601f016020809104026020016040519081016040528092919081815260200182805460018160011615610100020316600290048015611b8b5780601f10611b6057610100808354040283529160200191611b8b565b820191906000526020600020905b815481529060010190602001808311611b6e57829003601f168201915b50505050508152602001600182018054600181600116156101000203166002900480601f016020809104026020016040519081016040528092919081815260200182805460018160011615610100020316600290048015611c2d5780601f10611c0257610100808354040283529160200191611c2d565b820191906000526020600020905b815481529060010190602001808311611c1057829003601f168201915b50505050508152602001600282018054600181600116156101000203166002900480601f016020809104026020016040519081016040528092919081815260200182805460018160011615610100020316600290048015611ccf5780601f10611ca457610100808354040283529160200191611ccf565b820191906000526020600020905b815481529060010190602001808311611cb257829003601f168201915b50505050508152602001600382018054600181600116156101000203166002900480601f016020809104026020016040519081016040528092919081815260200182805460018160011615610100020316600290048015611d715780601f10611d4657610100808354040283529160200191611d71565b820191906000526020600020905b815481529060010190602001808311611d5457829003601f168201915b50505050508152602001600482018054600181600116156101000203166002900480601f016020809104026020016040519081016040528092919081815260200182805460018160011615610100020316600290048015611e135780601f10611de857610100808354040283529160200191611e13565b820191906000526020600020905b815481529060010190602001808311611df657829003601f168201915b50505050508152602001600582018054600181600116156101000203166002900480601f016020809104026020016040519081016040528092919081815260200182805460018160011615610100020316600290048015611eb55780601f10611e8a57610100808354040283529160200191611eb5565b820191906000526020600020905b815481529060010190602001808311611e9857829003601f168201915b50505050508152602001600682018054600181600116156101000203166002900480601f016020809104026020016040519081016040528092919081815260200182805460018160011615610100020316600290048015611f575780601f10611f2c57610100808354040283529160200191611f57565b820191906000526020600020905b815481529060010190602001808311611f3a57829003601f168201915b50505050508152602001600782018054600181600116156101000203166002900480601f016020809104026020016040519081016040528092919081815260200182805460018160011615610100020316600290048015611ff95780601f10611fce57610100808354040283529160200191611ff9565b820191906000526020600020905b815481529060010190602001808311611fdc57829003601f168201915b50505050508152602001600882018054600181600116156101000203166002900480601f01602080910402602001604051908101604052809291908181526020018280546001816001161561010002031660029004801561209b5780601f106120705761010080835404028352916020019161209b565b820191906000526020600020905b81548152906001019060200180831161207e57829003601f168201915b5050505050815260200160098201805480602002602001604051908101604052809291908181526020016000905b82821015612185578382906000526020600020018054600181600116156101000203166002900480601f0160208091040260200160405190810160405280929190818152602001828054600181600116156101000203166002900480156121715780601f1061214657610100808354040283529160200191612171565b820191906000526020600020905b81548152906001019060200180831161215457829003601f168201915b5050505050815260200190600101906120c9565b505050508152602001600a8201805480602002602001604051908101604052809291908181526020016000905b828210156122b557838290600052602060002001805480602002602001604051908101604052809291908181526020016000905b828210156122a2578382906000526020600020018054600181600116156101000203166002900480601f01602080910402602001604051908101604052809291908181526020018280546001816001161561010002031660029004801561228e5780601f106122635761010080835404028352916020019161228e565b820191906000526020600020905b81548152906001019060200180831161227157829003601f168201915b5050505050815260200190600101906121e6565b50505050815260200190600101906121b2565b50505050815250509050919050565b60606000809054906101000a900473ffffffffffffffffffffffffffffffffffffffff1673ffffffffffffffffffffffffffffffffffffffff163373ffffffffffffffffffffffffffffffffffffffff1614612355576040517f08c379a000000000000000000000000000000000000000000000000000000000815260040161234c90615f68565b60405180910390fd5b60058054806020026020016040519081016040528092919081815260200182805480156123a157602002820191906000526020600020905b81548152602001906001019080831161238d575b5050505050905090565b816001600082815260200190815260200160002060009054906101000a900460ff1661240c576040517f08c379a000000000000000000000000000000000000000000000000000000000815260040161240390615ea8565b60405180910390fd5b600180600084815260200190815260200160002060006101000a81548160ff02191690831515021790555060006001600085815260200190815260200160002060006101000a81548160ff0219169083151502179055506000801b600360008481526020019081526020016000208190555060026000848152602001908152602001600020600260008481526020019081526020016000209080546124b29291906142cb565b506002600084815260200190815260200160002060006124d2919061431d565b60008090505b600260008481526020019081526020016000208054905081101561254357826003600060026000878152602001908152602001600020848154811061251957fe5b906000526020600020015481526020019081526020016000208190555080806001019150506124d8565b50505050565b606060098260405161255b9190615d5f565b9081526020016040518091039020805480602002602001604051908101604052809291908181526020016000905b82821015612839578382906000526020600020906004020160405180608001604052908160008201805480602002602001604051908101604052809291908181526020016000905b8282101561268d578382906000526020600020018054600181600116156101000203166002900480601f0160208091040260200160405190810160405280929190818152602001828054600181600116156101000203166002900480156126795780601f1061264e57610100808354040283529160200191612679565b820191906000526020600020905b81548152906001019060200180831161265c57829003601f168201915b5050505050815260200190600101906125d1565b50505050815260200160018201805480602002602001604051908101604052809291908181526020016000905b82821015612776578382906000526020600020018054600181600116156101000203166002900480601f0160208091040260200160405190810160405280929190818152602001828054600181600116156101000203166002900480156127625780601f1061273757610100808354040283529160200191612762565b820191906000526020600020905b81548152906001019060200180831161274557829003601f168201915b5050505050815260200190600101906126ba565b505050508152602001600282018054600181600116156101000203166002900480601f0160208091040260200160405190810160405280929190818152602001828054600181600116156101000203166002900480156128175780601f106127ec57610100808354040283529160200191612817565b820191906000526020600020905b8154815290600101906020018083116127fa57829003601f168201915b5050505050815260200160038201548152505081526020019060010190612589565b505050509050919050565b6000809054906101000a900473ffffffffffffffffffffffffffffffffffffffff1673ffffffffffffffffffffffffffffffffffffffff163373ffffffffffffffffffffffffffffffffffffffff16146128d3576040517f08c379a00000000000000000000000000000000000000000000000000000000081526004016128ca90615f68565b60405180910390fd5b806128dd81613af6565b1561291d576040517f08c379a000000000000000000000000000000000000000000000000000000000815260040161291490615fe8565b60405180910390fd5b600660019054906101000a900460ff1660ff16600660009054906101000a900460ff1660ff161115612984576040517f08c379a000000000000000000000000000000000000000000000000000000000815260040161297b90616008565b60405180910390fd5b60008090505b600660019054906101000a900460ff1660ff168160ff161015612a4f576000600760008360ff1660ff16815260200190815260200160002080546001816001161561010002031660029004905011612a425782600760008360ff1660ff1681526020019081526020016000209080519060200190612a099291906141a9565b506006600081819054906101000a900460ff168092919060010191906101000a81548160ff021916908360ff1602179055505050612a51565b808060010191505061298a565b505b5050565b6000809054906101000a900473ffffffffffffffffffffffffffffffffffffffff1681565b80600c83604051612a8b9190615d5f565b90815260200160405180910390206000820151816000019080519060200190612ab5929190614069565b506020820151816001019080519060200190612ad2929190614069565b506040820151816002019080519060200190612aef929190614069565b509050506000612aff8484613981565b90506000811215612b5f57600b6000858152602001908152602001600020839080600181540180825580915050906001820390600052602060002001600090919290919091509080519060200190612b589291906141a9565b5050612b9d565b82600b60008681526020019081526020016000208281548110612b7e57fe5b906000526020600020019080519060200190612b9b9291906141a9565b505b50505050565b606081612baf8161321e565b612bee576040517f08c379a0000000000000000000000000000000000000000000000000000000008152600401612be590616048565b60405180910390fd5b600e6000848152602001908152602001600020805480602002602001604051908101604052809291908181526020016000905b82821015612d2957838290600052602060002090600402016040518060800160405290816000820154815260200160018201548152602001600282018054600181600116156101000203166002900480601f016020809104026020016040519081016040528092919081815260200182805460018160011615610100020316600290048015612cf15780601f10612cc657610100808354040283529160200191612cf1565b820191906000526020600020905b815481529060010190602001808311612cd457829003601f168201915b505050505081526020016003820160009054906101000a900461ffff1661ffff1661ffff168152505081526020019060010190612c21565b50505050915050919050565b612d3d61433e565b600a60008381526020019081526020016000206040518060a0016040529081600082018054600181600116156101000203166002900480601f016020809104026020016040519081016040528092919081815260200182805460018160011615610100020316600290048015612df45780601f10612dc957610100808354040283529160200191612df4565b820191906000526020600020905b815481529060010190602001808311612dd757829003601f168201915b50505050508152602001600182018054600181600116156101000203166002900480601f016020809104026020016040519081016040528092919081815260200182805460018160011615610100020316600290048015612e965780601f10612e6b57610100808354040283529160200191612e96565b820191906000526020600020905b815481529060010190602001808311612e7957829003601f168201915b50505050508152602001600282018054600181600116156101000203166002900480601f016020809104026020016040519081016040528092919081815260200182805460018160011615610100020316600290048015612f385780601f10612f0d57610100808354040283529160200191612f38565b820191906000526020600020905b815481529060010190602001808311612f1b57829003601f168201915b50505050508152602001600382018054600181600116156101000203166002900480601f016020809104026020016040519081016040528092919081815260200182805460018160011615610100020316600290048015612fda5780601f10612faf57610100808354040283529160200191612fda565b820191906000526020600020905b815481529060010190602001808311612fbd57829003601f168201915b50505050508152602001600482018054600181600116156101000203166002900480601f01602080910402602001604051908101604052809291908181526020018280546001816001161561010002031660029004801561307c5780601f106130515761010080835404028352916020019161307c565b820191906000526020600020905b81548152906001019060200180831161305f57829003601f168201915b5050505050815250509050919050565b6060816130988161321e565b6130d7576040517f08c379a00000000000000000000000000000000000000000000000000000000081526004016130ce90616048565b60405180910390fd5b600d6000848152602001908152602001600020805480602002602001604051908101604052809291908181526020016000905b8282101561321257838290600052602060002090600402016040518060800160405290816000820154815260200160018201548152602001600282018054600181600116156101000203166002900480601f0160208091040260200160405190810160405280929190818152602001828054600181600116156101000203166002900480156131da5780601f106131af576101008083540402835291602001916131da565b820191906000526020600020905b8154815290600101906020018083116131bd57829003601f168201915b505050505081526020016003820160009054906101000a900461ffff1661ffff1661ffff16815250508152602001906001019061310a565b50505050915050919050565b60006001600083815260200190815260200160002060009054906101000a900460ff168061326257506000801b600360008481526020019081526020016000205414155b9050919050565b80600a60008481526020019081526020016000206000820151816000019080519060200190613299929190614069565b5060208201518160010190805190602001906132b6929190614069565b5060408201518160020190805190602001906132d3929190614069565b5060608201518160030190805190602001906132f0929190614069565b50608082015181600401908051906020019061330d929190614069565b509050505050565b606080600b60008481526020019081526020016000208054905060405190808252806020026020018201604052801561336857816020015b61335561436d565b81526020019060019003908161334d5790505b50905060008090505b600b6000858152602001908152602001600020805490508110156135e957600c600b600086815260200190815260200160002082815481106133af57fe5b906000526020600020016040516133c69190615d76565b9081526020016040518091039020604051806060016040529081600082018054600181600116156101000203166002900480601f0160208091040260200160405190810160405280929190818152602001828054600181600116156101000203166002900480156134785780601f1061344d57610100808354040283529160200191613478565b820191906000526020600020905b81548152906001019060200180831161345b57829003601f168201915b50505050508152602001600182018054600181600116156101000203166002900480601f01602080910402602001604051908101604052809291908181526020018280546001816001161561010002031660029004801561351a5780601f106134ef5761010080835404028352916020019161351a565b820191906000526020600020905b8154815290600101906020018083116134fd57829003601f168201915b50505050508152602001600282018054600181600116156101000203166002900480601f0160208091040260200160405190810160405280929190818152602001828054600181600116156101000203166002900480156135bc5780601f10613591576101008083540402835291602001916135bc565b820191906000526020600020905b81548152906001019060200180831161359f57829003601f168201915b5050505050815250508282815181106135d157fe5b60200260200101819052508080600101915050613371565b5080915050919050565b80602001516136018161321e565b613640576040517f08c379a000000000000000000000000000000000000000000000000000000000815260040161363790616048565b60405180910390fd5b600061364b83613ce1565b90507fffffffffffffffffffffffffffffffffffffffffffffffffffffffffffffffff81106136af576040517f08c379a00000000000000000000000000000000000000000000000000000000081526004016136a690615f08565b60405180910390fd5b600e60008460200151815260200190815260200160002081815481106136d157fe5b906000526020600020906004020160008082016000905560018201600090556002820160006137009190614229565b6003820160006101000a81549061ffff02191690555050600f600084600001518152602001908152602001600020600080820160009055600182016000905560028201600061374f9190614229565b6003820160006101000a81549061ffff02191690555050505050565b61377361438e565b600f60008381526020019081526020016000206040518060800160405290816000820154815260200160018201548152602001600282018054600181600116156101000203166002900480601f01602080910402602001604051908101604052809291908181526020018280546001816001161561010002031660029004801561383e5780601f106138135761010080835404028352916020019161383e565b820191906000526020600020905b81548152906001019060200180831161382157829003601f168201915b505050505081526020016003820160009054906101000a900461ffff1661ffff1661ffff16815250509050919050565b816001600082815260200190815260200160002060009054906101000a900460ff166138cf576040517f08c379a00000000000000000000000000000000000000000000000000000000081526004016138c690615ea8565b60405180910390fd5b6000801b600360008481526020019081526020016000205414613927576040517f08c379a000000000000000000000000000000000000000000000000000000000815260040161391e90615e88565b60405180910390fd5b60026000848152602001908152602001600020829080600181540180825580915050906001820390600052602060002001600090919290919091505550826003600084815260200190815260200160002081905550505050565b600080600090505b600b600085815260200190815260200160002080549050816fffffffffffffffffffffffffffffffff161015613acb576139c283613f2d565b613a9d600b6000878152602001908152602001600020836fffffffffffffffffffffffffffffffff16815481106139f557fe5b906000526020600020018054600181600116156101000203166002900480601f016020809104026020016040519081016040528092919081815260200182805460018160011615610100020316600290048015613a935780601f10613a6857610100808354040283529160200191613a93565b820191906000526020600020905b815481529060010190602001808311613a7657829003601f168201915b5050505050613f2d565b1415613abe57806fffffffffffffffffffffffffffffffff16915050613af0565b8080600101915050613989565b507fffffffffffffffffffffffffffffffffffffffffffffffffffffffffffffffff90505b92915050565b6000600660019054906101000a900460ff1660ff16613b1483613b1f565b60ff16109050919050565b600080613b2b83613f2d565b905060008090505b600660019054906101000a900460ff1660ff168160ff161015613c61576000600760008360ff1660ff168152602001908152602001600020805460018160011615610100020316600290049050118015613c45575081613c43600760008460ff1660ff1681526020019081526020016000208054600181600116156101000203166002900480601f016020809104026020016040519081016040528092919081815260200182805460018160011615610100020316600290048015613c395780601f10613c0e57610100808354040283529160200191613c39565b820191906000526020600020905b815481529060010190602001808311613c1c57829003601f168201915b5050505050613f2d565b145b15613c54578092505050613c68565b8080600101915050613b33565b5060ff9150505b919050565b600080600090505b600580549050811015613cb7578260058281548110613c9057fe5b90600052602060002001541415613caa5780915050613cdc565b8080600101915050613c75565b507fffffffffffffffffffffffffffffffffffffffffffffffffffffffffffffffff90505b919050565b60008160200151613cf18161321e565b613d30576040517f08c379a0000000000000000000000000000000000000000000000000000000008152600401613d2790616048565b60405180910390fd5b60008090505b600e60008560200151815260200190815260200160002080549050811015613dac57613d9184600e6000876020015181526020019081526020016000208381548110613d7e57fe5b9060005260206000209060040201613f5d565b15613d9f5780925050613dd1565b8080600101915050613d36565b507fffffffffffffffffffffffffffffffffffffffffffffffffffffffffffffffff91505b50919050565b600060ff613de58484613dee565b10905092915050565b600080600090505b600884604051613e069190615d5f565b9081526020016040518091039020805490508160ff161015613f2157613e2b83613f2d565b613f02600886604051613e3e9190615d5f565b90815260200160405180910390208360ff1681548110613e5a57fe5b906000526020600020018054600181600116156101000203166002900480601f016020809104026020016040519081016040528092919081815260200182805460018160011615610100020316600290048015613ef85780601f10613ecd57610100808354040283529160200191613ef8565b820191906000526020600020905b815481529060010190602001808311613edb57829003601f168201915b5050505050613f2d565b1415613f14578060ff16915050613f27565b8080600101915050613df6565b5060ff90505b92915050565b600081604051602001613f409190615d5f565b604051602081830303815290604052805190602001209050919050565b600081600001548360000151148015613f7d575081600101548360200151145b80156140385750614029826002018054600181600116156101000203166002900480601f01602080910402602001604051908101604052809291908181526020018280546001816001161561010002031660029004801561401f5780601f10613ff45761010080835404028352916020019161401f565b820191906000526020600020905b81548152906001019060200180831161400257829003601f168201915b5050505050613f2d565b6140368460400151613f2d565b145b801561406157508160030160009054906101000a900461ffff1661ffff16836060015161ffff16145b905092915050565b828054600181600116156101000203166002900490600052602060002090601f016020900481019282601f106140aa57805160ff19168380011785556140d8565b828001600101855582156140d8579182015b828111156140d75782518255916020019190600101906140bc565b5b5090506140e591906143c0565b5090565b828054828255906000526020600020908101928215614138579160200282015b82811115614137578251829080519060200190614127929190614069565b5091602001919060010190614109565b5b50905061414591906143e5565b5090565b828054828255906000526020600020908101928215614198579160200282015b828111156141975782518290805190602001906141879291906140e9565b5091602001919060010190614169565b5b5090506141a59190614411565b5090565b828054600181600116156101000203166002900490600052602060002090601f016020900481019282601f106141ea57805160ff1916838001178555614218565b82800160010185558215614218579182015b828111156142175782518255916020019190600101906141fc565b5b50905061422591906143c0565b5090565b50805460018160011615610100020316600290046000825580601f1061424f575061426e565b601f01602090049060005260206000209081019061426d91906143c0565b5b50565b60405180610160016040528060608152602001606081526020016060815260200160608152602001606081526020016060815260200160608152602001606081526020016060815260200160608152602001606081525090565b82805482825590600052602060002090810192821561430c5760005260206000209182015b8281111561430b5782548255916001019190600101906142f0565b5b509050614319919061443d565b5090565b508054600082559060005260206000209081019061433b919061443d565b50565b6040518060a0016040528060608152602001606081526020016060815260200160608152602001606081525090565b60405180606001604052806060815260200160608152602001606081525090565b6040518060800160405280600080191681526020016000801916815260200160608152602001600061ffff1681525090565b6143e291905b808211156143de5760008160009055506001016143c6565b5090565b90565b61440e91905b8082111561440a57600081816144019190614229565b506001016143eb565b5090565b90565b61443a91905b80821115614436576000818161442d9190614462565b50600101614417565b5090565b90565b61445f91905b8082111561445b576000816000905550600101614443565b5090565b90565b508054600082559060005260206000209081019061448091906143e5565b50565b600081359050614492816164ab565b92915050565b600082601f8301126144a957600080fd5b81356144bc6144b78261612b565b6160fe565b9150818183526020840193506020810190508360005b8381101561450257813586016144e8888261450c565b8452602084019350602083019250506001810190506144d2565b5050505092915050565b600082601f83011261451d57600080fd5b813561453061452b82616153565b6160fe565b9150818183526020840193506020810190508360005b83811015614576578135860161455c888261461e565b845260208401935060208301925050600181019050614546565b5050505092915050565b600082601f83011261459157600080fd5b81356145a461459f8261617b565b6160fe565b9150818183526020840193506020810190508360005b838110156145ea57813586016145d0888261461e565b8452602084019350602083019250506001810190506145ba565b5050505092915050565b600081359050614603816164c2565b92915050565b600081519050614618816164c2565b92915050565b600082601f83011261462f57600080fd5b813561464261463d826161a3565b6160fe565b9150808252602083016020830185838301111561465e57600080fd5b614669838284616458565b50505092915050565b600082601f83011261468357600080fd5b8135614696614691826161cf565b6160fe565b915080825260208301602083018583830111156146b257600080fd5b6146bd838284616458565b50505092915050565b6000608082840312156146d857600080fd5b6146e260806160fe565b905060006146f2848285016145f4565b6000830152506020614706848285016145f4565b602083015250604082013567ffffffffffffffff81111561472657600080fd5b6147328482850161461e565b604083015250606061474684828501614b0a565b60608301525092915050565b60006060828403121561476457600080fd5b61476e60606160fe565b9050600082013567ffffffffffffffff81111561478a57600080fd5b6147968482850161461e565b600083015250602082013567ffffffffffffffff8111156147b657600080fd5b6147c28482850161461e565b602083015250604082013567ffffffffffffffff8111156147e257600080fd5b6147ee8482850161461e565b60408301525092915050565b6000610160828403121561480d57600080fd5b6148186101606160fe565b9050600082013567ffffffffffffffff81111561483457600080fd5b6148408482850161461e565b600083015250602082013567ffffffffffffffff81111561486057600080fd5b61486c8482850161461e565b602083015250604082013567ffffffffffffffff81111561488c57600080fd5b6148988482850161461e565b604083015250606082013567ffffffffffffffff8111156148b857600080fd5b6148c48482850161461e565b606083015250608082013567ffffffffffffffff8111156148e457600080fd5b6148f08482850161461e565b60808301525060a082013567ffffffffffffffff81111561491057600080fd5b61491c8482850161461e565b60a08301525060c082013567ffffffffffffffff81111561493c57600080fd5b6149488482850161461e565b60c08301525060e082013567ffffffffffffffff81111561496857600080fd5b6149748482850161461e565b60e08301525061010082013567ffffffffffffffff81111561499557600080fd5b6149a18482850161461e565b6101008301525061012082013567ffffffffffffffff8111156149c357600080fd5b6149cf8482850161450c565b6101208301525061014082013567ffffffffffffffff8111156149f157600080fd5b6149fd84828501614498565b6101408301525092915050565b600060a08284031215614a1c57600080fd5b614a2660a06160fe565b9050600082013567ffffffffffffffff811115614a4257600080fd5b614a4e8482850161461e565b600083015250602082013567ffffffffffffffff811115614a6e57600080fd5b614a7a8482850161461e565b602083015250604082013567ffffffffffffffff811115614a9a57600080fd5b614aa68482850161461e565b604083015250606082013567ffffffffffffffff811115614ac657600080fd5b614ad28482850161461e565b606083015250608082013567ffffffffffffffff811115614af257600080fd5b614afe8482850161461e565b60808301525092915050565b600081359050614b19816164d9565b92915050565b600081359050614b2e816164f0565b92915050565b600060208284031215614b4657600080fd5b6000614b5484828501614483565b91505092915050565b600060208284031215614b6f57600080fd5b6000614b7d848285016145f4565b91505092915050565b600060208284031215614b9857600080fd5b6000614ba684828501614609565b91505092915050565b60008060408385031215614bc257600080fd5b6000614bd0858286016145f4565b9250506020614be1858286016145f4565b9150509250929050565b600080600080600080600060e0888a031215614c0657600080fd5b6000614c148a828b016145f4565b9750506020614c258a828b016145f4565b965050604088013567ffffffffffffffff811115614c4257600080fd5b614c4e8a828b01614672565b955050606088013567ffffffffffffffff811115614c6b57600080fd5b614c778a828b01614580565b945050608088013567ffffffffffffffff811115614c9457600080fd5b614ca08a828b01614580565b93505060a088013567ffffffffffffffff811115614cbd57600080fd5b614cc98a828b01614672565b92505060c0614cda8a828b01614b1f565b91505092959891949750929550565b600080600060608486031215614cfe57600080fd5b6000614d0c868287016145f4565b935050602084013567ffffffffffffffff811115614d2957600080fd5b614d3586828701614672565b925050604084013567ffffffffffffffff811115614d5257600080fd5b614d5e86828701614752565b9150509250925092565b60008060408385031215614d7b57600080fd5b6000614d89858286016145f4565b925050602083013567ffffffffffffffff811115614da657600080fd5b614db285828601614a0a565b9150509250929050565b600060208284031215614dce57600080fd5b600082013567ffffffffffffffff811115614de857600080fd5b614df484828501614672565b91505092915050565b60008060408385031215614e1057600080fd5b600083013567ffffffffffffffff811115614e2a57600080fd5b614e3685828601614672565b925050602083013567ffffffffffffffff811115614e5357600080fd5b614e5f85828601614672565b9150509250929050565b600080600060608486031215614e7e57600080fd5b600084013567ffffffffffffffff811115614e9857600080fd5b614ea486828701614672565b935050602084013567ffffffffffffffff811115614ec157600080fd5b614ecd86828701614672565b925050604084013567ffffffffffffffff811115614eea57600080fd5b614ef686828701614672565b9150509250925092565b600060208284031215614f1257600080fd5b600082013567ffffffffffffffff811115614f2c57600080fd5b614f38848285016146c6565b91505092915050565b60008060408385031215614f5457600080fd5b600083013567ffffffffffffffff811115614f6e57600080fd5b614f7a858286016147fa565b9250506020614f8b858286016145f4565b9150509250929050565b6000614fa18383615168565b905092915050565b6000614fb5838361534b565b60208301905092915050565b6000614fcd83836153cb565b905092915050565b6000614fe18383615a31565b905092915050565b6000614ff58383615a94565b905092915050565b60006150098383615c27565b905092915050565b61501a816163f8565b82525050565b600061502b82616280565b6150358185616349565b935083602082028501615047856161fb565b8060005b8581101561508357848403895281516150648582614f95565b945061506f836162ee565b925060208a0199505060018101905061504b565b50829750879550505050505092915050565b60006150a08261628b565b6150aa818561635a565b93506150b58361620b565b8060005b838110156150e65781516150cd8882614fa9565b97506150d8836162fb565b9250506001810190506150b9565b5085935050505092915050565b60006150fe826162a1565b615108818561637c565b93508360208202850161511a8561622b565b8060005b8581101561515657848403895281516151378582614fc1565b945061514283616315565b925060208a0199505060018101905061511e565b50829750879550505050505092915050565b600061517382616296565b61517d818561636b565b93508360208202850161518f8561621b565b8060005b858110156151cb57848403895281516151ac8582614fc1565b94506151b783616308565b925060208a01995050600181019050615193565b50829750879550505050505092915050565b60006151e8826162ac565b6151f2818561638d565b9350836020820285016152048561623b565b8060005b8581101561524057848403895281516152218582614fd5565b945061522c83616322565b925060208a01995050600181019050615208565b50829750879550505050505092915050565b600061525d826162b7565b615267818561639e565b9350836020820285016152798561624b565b8060005b858110156152b557848403895281516152968582614fe9565b94506152a18361632f565b925060208a0199505060018101905061527d565b50829750879550505050505092915050565b60006152d2826162c2565b6152dc81856163af565b9350836020820285016152ee8561625b565b8060005b8581101561532a578484038952815161530b8582614ffd565b94506153168361633c565b925060208a019950506001810190506152f2565b50829750879550505050505092915050565b6153458161640a565b82525050565b61535481616416565b82525050565b61536381616416565b82525050565b6000615374826162cd565b61537e81856163c0565b935061538e818560208601616467565b80840191505092915050565b60006153a5826162e3565b6153af81856163ed565b93506153bf818560208601616467565b80840191505092915050565b60006153d6826162d8565b6153e081856163cb565b93506153f0818560208601616467565b6153f98161649a565b840191505092915050565b60008154600181166000811461542157600181146154465761548a565b607f600283041661543281876163ed565b955060ff198316865280860193505061548a565b6002820461545481876163ed565b955061545f8561626b565b60005b8281101561548157815481890152600182019150602081019050615462565b82880195505050505b505092915050565b600061549f6021836163dc565b91507f5468617420656d706c6f79656520616c726561647920776f726b73207468657260008301527f65000000000000000000000000000000000000000000000000000000000000006020830152604082019050919050565b60006155056029836163dc565b91507f596f75206d7573742062652061206465616c657273686970206f776e6572207460008301527f6f20646f207468697300000000000000000000000000000000000000000000006020830152604082019050919050565b600061556b601e836163dc565b91507f54686174207375627365727669636520616c72656164792065786973747300006000830152602082019050919050565b60006155ab6021836163dc565b91507f4e6f206170706c69636174696f6e2065786973747320666f722074686174206960008301527f64000000000000000000000000000000000000000000000000000000000000006020830152604082019050919050565b6000615611601f836163dc565b91507f54686174206170706f696e746d656e7420646f6573206e6f74206578697374006000830152602082019050919050565b60006156516021836163dc565b91507f4d6178696d756d207375627365727669636520616d6f756e742072656163686560008301527f64000000000000000000000000000000000000000000000000000000000000006020830152604082019050919050565b60006156b76033836163dc565b91507f4e756d626572206f6620737562736572766963657320646f6573206e6f74206d60008301527f617463682073657276696365206c656e677468000000000000000000000000006020830152604082019050919050565b600061571d6015836163dc565b91507f596f7520617265206e6f7420746865206f776e657200000000000000000000006000830152602082019050919050565b600061575d602c836163dc565b91507f54686174207375627365727669636520646f65736e7420657869737420696e2060008301527f7468697320636f6e7465787400000000000000000000000000000000000000006020830152604082019050919050565b60006157c3601b836163dc565b91507f54686174207365727669636520646f6573206e6f7420657869737400000000006000830152602082019050919050565b60006158036022836163dc565b91507f54686174206164647265737320697320616c726561647920726567697374657260008301527f65640000000000000000000000000000000000000000000000000000000000006020830152604082019050919050565b6000615869601b836163dc565b91507f54686174207365727669636520616c72656164792065786973747300000000006000830152602082019050919050565b60006158a96028836163dc565b91507f54686572652061726520746865206d6178696d756d206e756d626572206f662060008301527f73657276696365730000000000000000000000000000000000000000000000006020830152604082019050919050565b600061590f6024836163dc565b91507f546861742063617220646f6573206e6f7420657869737420696e20746865206360008301527f6861696e000000000000000000000000000000000000000000000000000000006020830152604082019050919050565b60006159756028836163dc565b91507f596f75206d7573742062652061207665726966696564206465616c657220746f60008301527f20646f20746869730000000000000000000000000000000000000000000000006020830152604082019050919050565b60006080830160008301516159e6600086018261534b565b5060208301516159f9602086018261534b565b5060408301518482036040860152615a1182826153cb565b9150506060830151615a266060860182615d2a565b508091505092915050565b6000608083016000830151615a49600086018261534b565b506020830151615a5c602086018261534b565b5060408301518482036040860152615a7482826153cb565b9150506060830151615a896060860182615d2a565b508091505092915050565b60006060830160008301518482036000860152615ab182826153cb565b91505060208301518482036020860152615acb82826153cb565b91505060408301518482036040860152615ae582826153cb565b9150508091505092915050565b6000610160830160008301518482036000860152615b1082826153cb565b91505060208301518482036020860152615b2a82826153cb565b91505060408301518482036040860152615b4482826153cb565b91505060608301518482036060860152615b5e82826153cb565b91505060808301518482036080860152615b7882826153cb565b91505060a083015184820360a0860152615b9282826153cb565b91505060c083015184820360c0860152615bac82826153cb565b91505060e083015184820360e0860152615bc682826153cb565b915050610100830151848203610100860152615be282826153cb565b915050610120830151848203610120860152615bfe8282615168565b915050610140830151848203610140860152615c1a8282615020565b9150508091505092915050565b60006080830160008301518482036000860152615c448282615168565b91505060208301518482036020860152615c5e8282615168565b91505060408301518482036040860152615c7882826153cb565b9150506060830151615c8d6060860182615d39565b508091505092915050565b600060a0830160008301518482036000860152615cb582826153cb565b91505060208301518482036020860152615ccf82826153cb565b91505060408301518482036040860152615ce982826153cb565b91505060608301518482036060860152615d0382826153cb565b91505060808301518482036080860152615d1d82826153cb565b9150508091505092915050565b615d3381616420565b82525050565b615d428161644e565b82525050565b6000615d548284615369565b915081905092915050565b6000615d6b828461539a565b915081905092915050565b6000615d828284615404565b915081905092915050565b6000602082019050615da26000830184615011565b92915050565b60006020820190508181036000830152615dc28184615095565b905092915050565b60006020820190508181036000830152615de481846150f3565b905092915050565b60006020820190508181036000830152615e0681846151dd565b905092915050565b60006020820190508181036000830152615e288184615252565b905092915050565b60006020820190508181036000830152615e4a81846152c7565b905092915050565b6000602082019050615e67600083018461533c565b92915050565b6000602082019050615e82600083018461535a565b92915050565b60006020820190508181036000830152615ea181615492565b9050919050565b60006020820190508181036000830152615ec1816154f8565b9050919050565b60006020820190508181036000830152615ee18161555e565b9050919050565b60006020820190508181036000830152615f018161559e565b9050919050565b60006020820190508181036000830152615f2181615604565b9050919050565b60006020820190508181036000830152615f4181615644565b9050919050565b60006020820190508181036000830152615f61816156aa565b9050919050565b60006020820190508181036000830152615f8181615710565b9050919050565b60006020820190508181036000830152615fa181615750565b9050919050565b60006020820190508181036000830152615fc1816157b6565b9050919050565b60006020820190508181036000830152615fe1816157f6565b9050919050565b600060208201905081810360008301526160018161585c565b9050919050565b600060208201905081810360008301526160218161589c565b9050919050565b6000602082019050818103600083015261604181615902565b9050919050565b6000602082019050818103600083015261606181615968565b9050919050565b6000602082019050818103600083015261608281846159ce565b905092915050565b600060208201905081810360008301526160a48184615af2565b905092915050565b600060408201905081810360008301526160c68185615af2565b90506160d5602083018461535a565b9392505050565b600060208201905081810360008301526160f68184615c98565b905092915050565b6000604051905081810181811067ffffffffffffffff8211171561612157600080fd5b8060405250919050565b600067ffffffffffffffff82111561614257600080fd5b602082029050602081019050919050565b600067ffffffffffffffff82111561616a57600080fd5b602082029050602081019050919050565b600067ffffffffffffffff82111561619257600080fd5b602082029050602081019050919050565b600067ffffffffffffffff8211156161ba57600080fd5b601f19601f8301169050602081019050919050565b600067ffffffffffffffff8211156161e657600080fd5b601f19601f8301169050602081019050919050565b6000819050602082019050919050565b6000819050602082019050919050565b6000819050602082019050919050565b6000819050602082019050919050565b6000819050602082019050919050565b6000819050602082019050919050565b6000819050602082019050919050565b60008190508160005260206000209050919050565b600081519050919050565b600081519050919050565b600081519050919050565b600081519050919050565b600081519050919050565b600081519050919050565b600081519050919050565b600081519050919050565b600081519050919050565b600081519050919050565b6000602082019050919050565b6000602082019050919050565b6000602082019050919050565b6000602082019050919050565b6000602082019050919050565b6000602082019050919050565b6000602082019050919050565b600082825260208201905092915050565b600082825260208201905092915050565b600082825260208201905092915050565b600082825260208201905092915050565b600082825260208201905092915050565b600082825260208201905092915050565b600082825260208201905092915050565b600081905092915050565b600082825260208201905092915050565b600082825260208201905092915050565b600081905092915050565b60006164038261642e565b9050919050565b60008115159050919050565b6000819050919050565b600061ffff82169050919050565b600073ffffffffffffffffffffffffffffffffffffffff82169050919050565b6000819050919050565b82818337600083830152505050565b60005b8381101561648557808201518184015260208101905061646a565b83811115616494576000848401525b50505050565b6000601f19601f8301169050919050565b6164b4816163f8565b81146164bf57600080fd5b50565b6164cb81616416565b81146164d657600080fd5b50565b6164e281616420565b81146164ed57600080fd5b50565b6164f98161644e565b811461650457600080fd5b5056fea365627a7a723158202e57cf0b29bcf4c7d7de9d8c1482f66b6ec116b6e64379583238be2abe6e71b06c6578706572696d656e74616cf564736f6c634300050c0040",
  "source": "pragma solidity ^0.5.11;\npragma experimental ABIEncoderV2;\n\nimport \"./UserContract.sol\";\n\ncontract AppointmentHandler is UserContract {\n\n    struct Appointment{\n        bytes32 userId;\n        bytes32 dealerId;\n        string carPlate;\n        uint16 time; //YYYYMMDDHH format (Year/Month/Day/Hour)\n    }\n\n    mapping(bytes32 => Appointment[]) dealerAppointmentHistory;\n    mapping(bytes32 => Appointment[]) activeAppointments;\n    mapping(bytes32 => Appointment) userAppointment;\n\n    function isSameAppointment(Appointment memory a, Appointment storage o) internal view returns (bool) {\n        return a.userId == o.userId && a.dealerId == o.dealerId && encode(a.carPlate) == encode(o.carPlate) && a.time == o.time;\n    }\n\n    function getIndexOfAppointment(Appointment memory appointment) internal verified(appointment.dealerId) view returns(uint){\n        for(uint i = 0; i < activeAppointments[appointment.dealerId].length; i++){\n            if(isSameAppointment(appointment,activeAppointments[appointment.dealerId][i])){\n                return i;\n            }\n        }\n        return uint(-1);\n    }\n\n    function createAppointment(Appointment memory appointment) public carExists(appointment.carPlate) verified(appointment.dealerId) {\n        bytes32 userId = appointment.userId;\n        if(userAppointment[userId].userId != 0){\n            uint aIndex = getIndexOfAppointment(appointment);\n            activeAppointments[appointment.dealerId][aIndex] = appointment;\n        }\n        else{\n            activeAppointments[appointment.dealerId].push(appointment);\n        }\n    }\n\n    function completeAppointment(Appointment memory appointment) public verified(appointment.dealerId) {\n        uint aIndex = getIndexOfAppointment(appointment);\n        require(aIndex < uint(-1),\"That appointment does not exist\");\n        //TODO Change time to completed time (Need date time library or smth)\n        dealerAppointmentHistory[appointment.dealerId].push(appointment);\n        cancelAppointment(appointment);\n    }\n\n    function cancelAppointment(Appointment memory appointment) public verified(appointment.dealerId) {\n        uint aIndex = getIndexOfAppointment(appointment);\n        require(aIndex < uint(-1),\"That appointment does not exist\");\n        delete activeAppointments[appointment.dealerId][aIndex];\n        delete userAppointment[appointment.userId];\n    }\n\n    function getAppointmentHistory(bytes32 dealerId) public view verified(dealerId) returns (Appointment[] memory){\n        return dealerAppointmentHistory[dealerId];\n    }\n\n    function getPendingAppointments(bytes32 dealerId) public view verified(dealerId) returns (Appointment[] memory){\n        return activeAppointments[dealerId];\n    }\n\n    function getUserAppointment(bytes32 userId) public view returns (Appointment memory) {\n        return userAppointment[userId];\n    }\n}",
  "sourcePath": "/home/brandon/Documents/_Important/Uni/Blockchain/Final project/contracts/AppointmentHandler.sol",
  "compiler": {
    "name": "solc",
    "version": "0.5.12+commit.7709ece9.Emscripten.clang"
  },
  "schemaVersion": "3.0.19",
  "updatedAt": "2019-11-26T13:25:44.540Z",
  "devdoc": {
    "methods": {}
  },
  "userdoc": {
    "methods": {}
  }
}