{
  "contractName": "AppointmentHandler",
  "abi": [
    {
      "anonymous": false,
      "inputs": [
        {
          "components": [
            {
              "internalType": "string",
              "name": "dealerName",
              "type": "string"
            },
            {
              "internalType": "string",
              "name": "firstName",
              "type": "string"
            },
            {
              "internalType": "string",
              "name": "lastName",
              "type": "string"
            },
            {
              "internalType": "string",
              "name": "addr",
              "type": "string"
            },
            {
              "internalType": "string",
              "name": "location",
              "type": "string"
            },
            {
              "internalType": "string",
              "name": "phoneNo",
              "type": "string"
            },
            {
              "internalType": "string",
              "name": "bestSeller",
              "type": "string"
            },
            {
              "internalType": "string",
              "name": "promotion",
              "type": "string"
            },
            {
              "internalType": "string",
              "name": "otherServices",
              "type": "string"
            },
            {
              "internalType": "string[]",
              "name": "availableServices",
              "type": "string[]"
            },
            {
              "internalType": "string[][]",
              "name": "availableSubServices",
              "type": "string[][]"
            }
          ],
          "indexed": false,
          "internalType": "struct DealerContract.DealerInfo",
          "name": "info",
          "type": "tuple"
        },
        {
          "indexed": false,
          "internalType": "bytes32",
          "name": "id",
          "type": "bytes32"
        }
      ],
      "name": "CreateDealerApplication",
      "type": "event"
    },
    {
      "constant": false,
      "inputs": [
        {
          "internalType": "bytes32",
          "name": "dealerId",
          "type": "bytes32"
        },
        {
          "internalType": "bytes32",
          "name": "adr",
          "type": "bytes32"
        }
      ],
      "name": "addDealerEmployee",
      "outputs": [],
      "payable": false,
      "stateMutability": "nonpayable",
      "type": "function"
    },
    {
      "constant": false,
      "inputs": [
        {
          "internalType": "string",
          "name": "serviceName",
          "type": "string"
        }
      ],
      "name": "addService",
      "outputs": [],
      "payable": false,
      "stateMutability": "nonpayable",
      "type": "function"
    },
    {
      "constant": false,
      "inputs": [
        {
          "internalType": "string",
          "name": "serviceName",
          "type": "string"
        },
        {
          "internalType": "string",
          "name": "subServiceName",
          "type": "string"
        }
      ],
      "name": "addSubService",
      "outputs": [],
      "payable": false,
      "stateMutability": "nonpayable",
      "type": "function"
    },
    {
      "constant": false,
      "inputs": [
        {
          "internalType": "bytes32",
          "name": "adr",
          "type": "bytes32"
        }
      ],
      "name": "approveApplication",
      "outputs": [],
      "payable": false,
      "stateMutability": "nonpayable",
      "type": "function"
    },
    {
      "constant": false,
      "inputs": [
        {
          "components": [
            {
              "internalType": "string",
              "name": "dealerName",
              "type": "string"
            },
            {
              "internalType": "string",
              "name": "firstName",
              "type": "string"
            },
            {
              "internalType": "string",
              "name": "lastName",
              "type": "string"
            },
            {
              "internalType": "string",
              "name": "addr",
              "type": "string"
            },
            {
              "internalType": "string",
              "name": "location",
              "type": "string"
            },
            {
              "internalType": "string",
              "name": "phoneNo",
              "type": "string"
            },
            {
              "internalType": "string",
              "name": "bestSeller",
              "type": "string"
            },
            {
              "internalType": "string",
              "name": "promotion",
              "type": "string"
            },
            {
              "internalType": "string",
              "name": "otherServices",
              "type": "string"
            },
            {
              "internalType": "string[]",
              "name": "availableServices",
              "type": "string[]"
            },
            {
              "internalType": "string[][]",
              "name": "availableSubServices",
              "type": "string[][]"
            }
          ],
          "internalType": "struct DealerContract.DealerInfo",
          "name": "info",
          "type": "tuple"
        },
        {
          "internalType": "bytes32",
          "name": "id",
          "type": "bytes32"
        }
      ],
      "name": "createDealerApplication",
      "outputs": [],
      "payable": false,
      "stateMutability": "nonpayable",
      "type": "function"
    },
    {
      "constant": false,
      "inputs": [
        {
          "internalType": "string",
          "name": "serviceName",
          "type": "string"
        }
      ],
      "name": "deleteService",
      "outputs": [],
      "payable": false,
      "stateMutability": "nonpayable",
      "type": "function"
    },
    {
      "constant": false,
      "inputs": [
        {
          "internalType": "string",
          "name": "serviceName",
          "type": "string"
        },
        {
          "internalType": "string",
          "name": "subServiceName",
          "type": "string"
        }
      ],
      "name": "deleteSubService",
      "outputs": [],
      "payable": false,
      "stateMutability": "nonpayable",
      "type": "function"
    },
    {
      "constant": false,
      "inputs": [
        {
          "internalType": "bytes32",
          "name": "userId",
          "type": "bytes32"
        },
        {
          "internalType": "string",
          "name": "noPlate",
          "type": "string"
        },
        {
          "components": [
            {
              "internalType": "string",
              "name": "brand",
              "type": "string"
            },
            {
              "internalType": "string",
              "name": "model",
              "type": "string"
            },
            {
              "internalType": "string",
              "name": "year",
              "type": "string"
            }
          ],
          "internalType": "struct UserContract.CarInfo",
          "name": "carInfo",
          "type": "tuple"
        }
      ],
      "name": "editCarDetails",
      "outputs": [],
      "payable": false,
      "stateMutability": "nonpayable",
      "type": "function"
    },
    {
      "constant": false,
      "inputs": [
        {
          "components": [
            {
              "internalType": "string",
              "name": "dealerName",
              "type": "string"
            },
            {
              "internalType": "string",
              "name": "firstName",
              "type": "string"
            },
            {
              "internalType": "string",
              "name": "lastName",
              "type": "string"
            },
            {
              "internalType": "string",
              "name": "addr",
              "type": "string"
            },
            {
              "internalType": "string",
              "name": "location",
              "type": "string"
            },
            {
              "internalType": "string",
              "name": "phoneNo",
              "type": "string"
            },
            {
              "internalType": "string",
              "name": "bestSeller",
              "type": "string"
            },
            {
              "internalType": "string",
              "name": "promotion",
              "type": "string"
            },
            {
              "internalType": "string",
              "name": "otherServices",
              "type": "string"
            },
            {
              "internalType": "string[]",
              "name": "availableServices",
              "type": "string[]"
            },
            {
              "internalType": "string[][]",
              "name": "availableSubServices",
              "type": "string[][]"
            }
          ],
          "internalType": "struct DealerContract.DealerInfo",
          "name": "info",
          "type": "tuple"
        },
        {
          "internalType": "bytes32",
          "name": "id",
          "type": "bytes32"
        }
      ],
      "name": "editDealerInfo",
      "outputs": [],
      "payable": false,
      "stateMutability": "nonpayable",
      "type": "function"
    },
    {
      "constant": false,
      "inputs": [
        {
          "internalType": "string",
          "name": "oldName",
          "type": "string"
        },
        {
          "internalType": "string",
          "name": "newName",
          "type": "string"
        }
      ],
      "name": "editServiceName",
      "outputs": [],
      "payable": false,
      "stateMutability": "nonpayable",
      "type": "function"
    },
    {
      "constant": false,
      "inputs": [
        {
          "internalType": "string",
          "name": "serviceName",
          "type": "string"
        },
        {
          "internalType": "string",
          "name": "oldName",
          "type": "string"
        },
        {
          "internalType": "string",
          "name": "newName",
          "type": "string"
        }
      ],
      "name": "editSubServiceName",
      "outputs": [],
      "payable": false,
      "stateMutability": "nonpayable",
      "type": "function"
    },
    {
      "constant": false,
      "inputs": [
        {
          "internalType": "bytes32",
          "name": "userId",
          "type": "bytes32"
        },
        {
          "components": [
            {
              "internalType": "string",
              "name": "firstName",
              "type": "string"
            },
            {
              "internalType": "string",
              "name": "lastName",
              "type": "string"
            },
            {
              "internalType": "string",
              "name": "adr",
              "type": "string"
            },
            {
              "internalType": "string",
              "name": "phNo",
              "type": "string"
            },
            {
              "internalType": "string",
              "name": "email",
              "type": "string"
            }
          ],
          "internalType": "struct UserContract.UserInfo",
          "name": "info",
          "type": "tuple"
        }
      ],
      "name": "editUserInfo",
      "outputs": [],
      "payable": false,
      "stateMutability": "nonpayable",
      "type": "function"
    },
    {
      "constant": true,
      "inputs": [],
      "name": "getAllDealerApplications",
      "outputs": [
        {
          "internalType": "bytes32[]",
          "name": "",
          "type": "bytes32[]"
        }
      ],
      "payable": false,
      "stateMutability": "view",
      "type": "function"
    },
    {
      "constant": true,
      "inputs": [
        {
          "internalType": "bytes32",
          "name": "userId",
          "type": "bytes32"
        }
      ],
      "name": "getCarPlates",
      "outputs": [
        {
          "internalType": "string[]",
          "name": "",
          "type": "string[]"
        }
      ],
      "payable": false,
      "stateMutability": "view",
      "type": "function"
    },
    {
      "constant": true,
      "inputs": [
        {
          "internalType": "bytes32",
          "name": "userId",
          "type": "bytes32"
        }
      ],
      "name": "getCars",
      "outputs": [
        {
          "components": [
            {
              "internalType": "string",
              "name": "brand",
              "type": "string"
            },
            {
              "internalType": "string",
              "name": "model",
              "type": "string"
            },
            {
              "internalType": "string",
              "name": "year",
              "type": "string"
            }
          ],
          "internalType": "struct UserContract.CarInfo[]",
          "name": "",
          "type": "tuple[]"
        }
      ],
      "payable": false,
      "stateMutability": "view",
      "type": "function"
    },
    {
      "constant": true,
      "inputs": [
        {
          "internalType": "bytes32",
          "name": "id",
          "type": "bytes32"
        }
      ],
      "name": "getDealerInfo",
      "outputs": [
        {
          "components": [
            {
              "internalType": "string",
              "name": "dealerName",
              "type": "string"
            },
            {
              "internalType": "string",
              "name": "firstName",
              "type": "string"
            },
            {
              "internalType": "string",
              "name": "lastName",
              "type": "string"
            },
            {
              "internalType": "string",
              "name": "addr",
              "type": "string"
            },
            {
              "internalType": "string",
              "name": "location",
              "type": "string"
            },
            {
              "internalType": "string",
              "name": "phoneNo",
              "type": "string"
            },
            {
              "internalType": "string",
              "name": "bestSeller",
              "type": "string"
            },
            {
              "internalType": "string",
              "name": "promotion",
              "type": "string"
            },
            {
              "internalType": "string",
              "name": "otherServices",
              "type": "string"
            },
            {
              "internalType": "string[]",
              "name": "availableServices",
              "type": "string[]"
            },
            {
              "internalType": "string[][]",
              "name": "availableSubServices",
              "type": "string[][]"
            }
          ],
          "internalType": "struct DealerContract.DealerInfo",
          "name": "",
          "type": "tuple"
        }
      ],
      "payable": false,
      "stateMutability": "view",
      "type": "function"
    },
    {
      "constant": true,
      "inputs": [
        {
          "internalType": "string",
          "name": "id",
          "type": "string"
        }
      ],
      "name": "getHash",
      "outputs": [
        {
          "internalType": "bytes32",
          "name": "",
          "type": "bytes32"
        }
      ],
      "payable": false,
      "stateMutability": "pure",
      "type": "function"
    },
    {
      "constant": true,
      "inputs": [
        {
          "internalType": "string",
          "name": "noPlate",
          "type": "string"
        }
      ],
      "name": "getRecords",
      "outputs": [
        {
          "components": [
            {
              "internalType": "string[]",
              "name": "services",
              "type": "string[]"
            },
            {
              "internalType": "string[]",
              "name": "subservices",
              "type": "string[]"
            },
            {
              "internalType": "string",
              "name": "comment",
              "type": "string"
            },
            {
              "internalType": "uint256",
              "name": "timeStamp",
              "type": "uint256"
            }
          ],
          "internalType": "struct UserContract.RecordInternal[]",
          "name": "",
          "type": "tuple[]"
        }
      ],
      "payable": false,
      "stateMutability": "view",
      "type": "function"
    },
    {
      "constant": true,
      "inputs": [],
      "name": "getServices",
      "outputs": [
        {
          "internalType": "string[]",
          "name": "",
          "type": "string[]"
        }
      ],
      "payable": false,
      "stateMutability": "view",
      "type": "function"
    },
    {
      "constant": true,
      "inputs": [
        {
          "internalType": "string",
          "name": "serviceName",
          "type": "string"
        }
      ],
      "name": "getSubServices",
      "outputs": [
        {
          "internalType": "string[]",
          "name": "",
          "type": "string[]"
        }
      ],
      "payable": false,
      "stateMutability": "view",
      "type": "function"
    },
    {
      "constant": true,
      "inputs": [
        {
          "internalType": "bytes32",
          "name": "userId",
          "type": "bytes32"
        }
      ],
      "name": "getUserInfo",
      "outputs": [
        {
          "components": [
            {
              "internalType": "string",
              "name": "firstName",
              "type": "string"
            },
            {
              "internalType": "string",
              "name": "lastName",
              "type": "string"
            },
            {
              "internalType": "string",
              "name": "adr",
              "type": "string"
            },
            {
              "internalType": "string",
              "name": "phNo",
              "type": "string"
            },
            {
              "internalType": "string",
              "name": "email",
              "type": "string"
            }
          ],
          "internalType": "struct UserContract.UserInfo",
          "name": "",
          "type": "tuple"
        }
      ],
      "payable": false,
      "stateMutability": "view",
      "type": "function"
    },
    {
      "constant": false,
      "inputs": [
        {
          "internalType": "bytes32",
          "name": "dealerId",
          "type": "bytes32"
        },
        {
          "internalType": "bytes32",
          "name": "id",
          "type": "bytes32"
        },
        {
          "internalType": "string",
          "name": "noPlate",
          "type": "string"
        },
        {
          "internalType": "string[]",
          "name": "services",
          "type": "string[]"
        },
        {
          "internalType": "string[]",
          "name": "subservices",
          "type": "string[]"
        },
        {
          "internalType": "string",
          "name": "comment",
          "type": "string"
        },
        {
          "internalType": "uint256",
          "name": "timeStamp",
          "type": "uint256"
        }
      ],
      "name": "insertRecord",
      "outputs": [],
      "payable": false,
      "stateMutability": "nonpayable",
      "type": "function"
    },
    {
      "constant": true,
      "inputs": [
        {
          "internalType": "bytes32",
          "name": "adr",
          "type": "bytes32"
        }
      ],
      "name": "isVerified",
      "outputs": [
        {
          "internalType": "bool",
          "name": "",
          "type": "bool"
        }
      ],
      "payable": false,
      "stateMutability": "view",
      "type": "function"
    },
    {
      "constant": true,
      "inputs": [],
      "name": "owner",
      "outputs": [
        {
          "internalType": "address",
          "name": "",
          "type": "address"
        }
      ],
      "payable": false,
      "stateMutability": "view",
      "type": "function"
    },
    {
      "constant": false,
      "inputs": [
        {
          "internalType": "bytes32",
          "name": "dealershipId",
          "type": "bytes32"
        },
        {
          "internalType": "bytes32",
          "name": "otherId",
          "type": "bytes32"
        }
      ],
      "name": "transferDealershipOwner",
      "outputs": [],
      "payable": false,
      "stateMutability": "nonpayable",
      "type": "function"
    },
    {
      "constant": false,
      "inputs": [
        {
          "internalType": "address",
          "name": "newOwner",
          "type": "address"
        }
      ],
      "name": "transferOwner",
      "outputs": [],
      "payable": false,
      "stateMutability": "nonpayable",
      "type": "function"
    },
    {
      "constant": false,
      "inputs": [
        {
          "components": [
            {
              "internalType": "bytes32",
              "name": "userId",
              "type": "bytes32"
            },
            {
              "internalType": "bytes32",
              "name": "dealerId",
              "type": "bytes32"
            },
            {
              "internalType": "string",
              "name": "carPlate",
              "type": "string"
            },
            {
              "internalType": "int256",
              "name": "time",
              "type": "int256"
            }
          ],
          "internalType": "struct AppointmentHandler.Appointment",
          "name": "appointment",
          "type": "tuple"
        }
      ],
      "name": "createAppointment",
      "outputs": [],
      "payable": false,
      "stateMutability": "nonpayable",
      "type": "function"
    },
    {
      "constant": false,
      "inputs": [
        {
          "components": [
            {
              "internalType": "bytes32",
              "name": "userId",
              "type": "bytes32"
            },
            {
              "internalType": "bytes32",
              "name": "dealerId",
              "type": "bytes32"
            },
            {
              "internalType": "string",
              "name": "carPlate",
              "type": "string"
            },
            {
              "internalType": "int256",
              "name": "time",
              "type": "int256"
            }
          ],
          "internalType": "struct AppointmentHandler.Appointment",
          "name": "appointment",
          "type": "tuple"
        }
      ],
      "name": "completeAppointment",
      "outputs": [],
      "payable": false,
      "stateMutability": "nonpayable",
      "type": "function"
    },
    {
      "constant": false,
      "inputs": [
        {
          "components": [
            {
              "internalType": "bytes32",
              "name": "userId",
              "type": "bytes32"
            },
            {
              "internalType": "bytes32",
              "name": "dealerId",
              "type": "bytes32"
            },
            {
              "internalType": "string",
              "name": "carPlate",
              "type": "string"
            },
            {
              "internalType": "int256",
              "name": "time",
              "type": "int256"
            }
          ],
          "internalType": "struct AppointmentHandler.Appointment",
          "name": "appointment",
          "type": "tuple"
        }
      ],
      "name": "cancelAppointment",
      "outputs": [],
      "payable": false,
      "stateMutability": "nonpayable",
      "type": "function"
    },
    {
      "constant": true,
      "inputs": [
        {
          "internalType": "bytes32",
          "name": "dealerId",
          "type": "bytes32"
        }
      ],
      "name": "getAppointmentHistory",
      "outputs": [
        {
          "components": [
            {
              "internalType": "bytes32",
              "name": "userId",
              "type": "bytes32"
            },
            {
              "internalType": "bytes32",
              "name": "dealerId",
              "type": "bytes32"
            },
            {
              "internalType": "string",
              "name": "carPlate",
              "type": "string"
            },
            {
              "internalType": "int256",
              "name": "time",
              "type": "int256"
            }
          ],
          "internalType": "struct AppointmentHandler.Appointment[]",
          "name": "",
          "type": "tuple[]"
        }
      ],
      "payable": false,
      "stateMutability": "view",
      "type": "function"
    },
    {
      "constant": true,
      "inputs": [
        {
          "internalType": "bytes32",
          "name": "dealerId",
          "type": "bytes32"
        }
      ],
      "name": "getPendingAppointments",
      "outputs": [
        {
          "components": [
            {
              "internalType": "bytes32",
              "name": "userId",
              "type": "bytes32"
            },
            {
              "internalType": "bytes32",
              "name": "dealerId",
              "type": "bytes32"
            },
            {
              "internalType": "string",
              "name": "carPlate",
              "type": "string"
            },
            {
              "internalType": "int256",
              "name": "time",
              "type": "int256"
            }
          ],
          "internalType": "struct AppointmentHandler.Appointment[]",
          "name": "",
          "type": "tuple[]"
        }
      ],
      "payable": false,
      "stateMutability": "view",
      "type": "function"
    },
    {
      "constant": true,
      "inputs": [
        {
          "internalType": "bytes32",
          "name": "userId",
          "type": "bytes32"
        }
      ],
      "name": "getUserAppointment",
      "outputs": [
        {
          "components": [
            {
              "internalType": "bytes32",
              "name": "userId",
              "type": "bytes32"
            },
            {
              "internalType": "bytes32",
              "name": "dealerId",
              "type": "bytes32"
            },
            {
              "internalType": "string",
              "name": "carPlate",
              "type": "string"
            },
            {
              "internalType": "int256",
              "name": "time",
              "type": "int256"
            }
          ],
          "internalType": "struct AppointmentHandler.Appointment",
          "name": "",
          "type": "tuple"
        }
      ],
      "payable": false,
      "stateMutability": "view",
      "type": "function"
    }
  ],
  "bytecode": "0x60806040526006805461fe0061ff0019909116179055600080546001600160a01b03191633179055614efa806100366000396000f3fe608060405234801561001057600080fd5b50600436106101f05760003560e01c80637e41667f1161010f578063adff8b0f116100a2578063c4e91d1711610071578063c4e91d1714610468578063c9b54a581461047b578063ddb5f4761461049b578063e445268c146104bb576101f0565b8063adff8b0f14610402578063b2c9ae6014610422578063b63e01d214610435578063c181b27314610448576101f0565b80638da5cb5b116100de5780638da5cb5b146103a75780638ee24214146103bc5780638f2b5144146103cf578063a44e4c70146103e2576101f0565b80637e41667f1461034c57806382d7afbd1461036157806386e80b711461037457806388fcd19414610394576101f0565b80634fb2e45d1161018757806360e9480b1161015657806360e9480b146102fe5780636fd7d2b51461031157806375417851146103245780637d17f13c1461032c576101f0565b80634fb2e45d146102a557806350fb95e3146102b85780635a82610c146102cb5780635b6beeb9146102de576101f0565b80631b8f47fe116101c35780631b8f47fe146102435780632d4afc7b14610256578063369bfce414610269578063431a65fc1461027c576101f0565b806307681038146101f55780630ad5be911461020a5780630eb7bc8f1461021d5780631a4c85be14610230575b600080fd5b61020861020336600461410f565b6104ce565b005b610208610218366004613e09565b6106cb565b61020861022b366004613ff7565b610818565b61020861023e366004613fc3565b6108a3565b610208610251366004613d93565b610954565b61020861026436600461410f565b6109e5565b610208610277366004613ff7565b610b5a565b61028f61028a366004613fc3565b610bf4565b60405161029c9190614c0d565b60405180910390f35b6102086102b3366004613d6d565b610ceb565b6102086102c6366004613ff7565b610d37565b6102086102d93660046140db565b610e1a565b6102f16102ec366004613fc3565b610ef0565b60405161029c9190614c5f565b61020861030c3660046140db565b610f65565b61020861031f366004614054565b6111db565b61028f61127d565b61033f61033a366004613d93565b6113d2565b60405161029c9190614d6e565b610354611b2c565b60405161029c9190614bfc565b61020861036f366004613dcf565b611baf565b610387610382366004613fc3565b611cab565b60405161029c9190614c40565b6102086103a2366004613fc3565b611f69565b6103af612077565b60405161029c9190614bee565b6102086103ca366004613f01565b612086565b61028f6103dd366004613d93565b61218d565b6103f56103f0366004613d93565b61226d565b60405161029c9190614c1e565b610415610410366004613d93565b6123bd565b60405161029c9190614d9f565b6102086104303660046140db565b6126cf565b6103f5610443366004613d93565b612792565b61045b610456366004613d93565b6128d5565b60405161029c9190614c51565b610208610476366004613f7c565b612902565b61048e610489366004613d93565b612994565b60405161029c9190614c2f565b6104ae6104a9366004613d93565b612c36565b60405161029c9190614d5d565b6102086104c9366004613dcf565b612d23565b60008181526001602052604090205460ff16156105065760405162461bcd60e51b81526004016104fd90614d1d565b60405180910390fd5b600081815260046020908152604090912083518051859361052b9284929101906133c2565b50602082810151805161054492600185019201906133c2565b50604082015180516105609160028401916020909101906133c2565b506060820151805161057c9160038401916020909101906133c2565b50608082015180516105989160048401916020909101906133c2565b5060a082015180516105b49160058401916020909101906133c2565b5060c082015180516105d09160068401916020909101906133c2565b5060e082015180516105ec9160078401916020909101906133c2565b5061010082015180516106099160088401916020909101906133c2565b506101208201518051610626916009840191602090910190613440565b50610140820151805161064391600a840191602090910190613499565b50905050600061065282612dae565b121561068e57600580546001810182556000919091527f036b6384b5eca791c62761152d0c79bb0604c104a5fb6f4eb0703f3154bb3db0018190555b7f42ab459ad3144922283159073eea05ed3ff810ab23fc94bbad43d99b9332dbb282826040516106bf929190614d7f565b60405180910390a15050565b866106d5816128d5565b6106f15760405162461bcd60e51b81526004016104fd90614d4d565b8451845111156107135760405162461bcd60e51b81526004016104fd90614cdd565b600061071f8888612df4565b121561075c576000878152600b602090815260408220805460018101808355918452928290208951919361075993910191908a01906133c2565b50505b60098660405161076c9190614bd6565b90815260408051918290036020908101832060808401835288845283820188905291830186905260608301859052815460018101808455600093845292829020845180519495946004909302909101926107cb92849290910190613440565b5060208281015180516107e49260018501920190613440565b50604082015180516108009160028401916020909101906133c2565b50606082015181600301555050505050505050505050565b6000546001600160a01b031633146108425760405162461bcd60e51b81526004016104fd90614ced565b8161084c81612f09565b6108685760405162461bcd60e51b81526004016104fd90614d0d565b816007600061087686612f2a565b60ff1660ff168152602001908152602001600020908051906020019061089d9291906133c2565b50505050565b6000546001600160a01b031633146108cd5760405162461bcd60e51b81526004016104fd90614ced565b806108d781612f09565b6108f35760405162461bcd60e51b81526004016104fd90614d0d565b604051806020016040528060008152506007600061091085612f2a565b60ff1660ff16815260200190815260200160002090805190602001906109379291906133c2565b50506006805460ff19811660ff9182166000190190911617905550565b6000546001600160a01b0316331461097e5760405162461bcd60e51b81526004016104fd90614ced565b600061098982612dae565b905060008112156109ac5760405162461bcd60e51b81526004016104fd90614c9d565b6000828152600160208190526040909120805460ff1916909117905560058054829081106109d657fe5b60009182526020822001555050565b600081815260016020526040902054819060ff16610a155760405162461bcd60e51b81526004016104fd90614c7d565b6000828152600460209081526040909120845180518693610a3a9284929101906133c2565b506020828101518051610a5392600185019201906133c2565b5060408201518051610a6f9160028401916020909101906133c2565b5060608201518051610a8b9160038401916020909101906133c2565b5060808201518051610aa79160048401916020909101906133c2565b5060a08201518051610ac39160058401916020909101906133c2565b5060c08201518051610adf9160068401916020909101906133c2565b5060e08201518051610afb9160078401916020909101906133c2565b506101008201518051610b189160088401916020909101906133c2565b506101208201518051610b35916009840191602090910190613440565b506101408201518051610b5291600a840191602090910190613499565b505050505050565b6000546001600160a01b03163314610b845760405162461bcd60e51b81526004016104fd90614ced565b8181610b908282613014565b610bac5760405162461bcd60e51b81526004016104fd90614cfd565b600884604051610bbc9190614bd6565b9081526020016040518091039020610bd4858561302a565b81548110610bde57fe5b90600052602060002001600061089d91906134f2565b6060600882604051610c069190614bd6565b9081526020016040518091039020805480602002602001604051908101604052809291908181526020016000905b82821015610cdf5760008481526020908190208301805460408051601f6002600019610100600187161502019094169390930492830185900485028101850190915281815292830182828015610ccb5780601f10610ca057610100808354040283529160200191610ccb565b820191906000526020600020905b815481529060010190602001808311610cae57829003601f168201915b505050505081526020019060010190610c34565b5050505090505b919050565b6000546001600160a01b03163314610d155760405162461bcd60e51b81526004016104fd90614ced565b600080546001600160a01b0319166001600160a01b0392909216919091179055565b8160ff600882604051610d4a9190614bd6565b9081526040519081900360200190205410610d775760405162461bcd60e51b81526004016104fd90614ccd565b8282610d838282613014565b15610da05760405162461bcd60e51b81526004016104fd90614c8d565b6000546001600160a01b03163314610dca5760405162461bcd60e51b81526004016104fd90614ced565b600885604051610dda9190614bd6565b9081526040516020918190038201902080546001810180835560009283529183902087519293610e119391909201918801906133c2565b50505050505050565b8060200151610e28816128d5565b610e445760405162461bcd60e51b81526004016104fd90614d4d565b6000610e4f836130a8565b90506000198110610e725760405162461bcd60e51b81526004016104fd90614cbd565b610e80836020015182613140565b6040805160808101825260008082526020808301828152845180830186528381528486019081526060850184905288518452600f83529490922083518155915160018301559251805192939192610edd92600285019201906133c2565b5060608201518160030155905050505050565b6000600282604051602001610f059190614bd6565b60408051601f1981840301815290829052610f1f91614bd6565b602060405180830381855afa158015610f3c573d6000803e3d6000fd5b5050506040513d601f19601f82011682018060405250610f5f9190810190613db1565b92915050565b8060200151610f73816128d5565b610f8f5760405162461bcd60e51b81526004016104fd90614d4d565b81516000818152600f60205260409020541561113f576000610fb48460000151613245565b9050610fbe613539565b84516000908152600f6020908152604091829020825160808101845281548152600180830154828501526002808401805487519381161561010002600019011691909104601f810186900486028301860187528083529295939493860193919290918301828280156110715780601f1061104657610100808354040283529160200191611071565b820191906000526020600020905b81548152906001019060200180831161105457829003601f168201915b505050505081526020016003820154815250509050600e60008260200151815260200190815260200160002082815481106110a857fe5b60009182526020822060049091020181815560018101829055906110cf60028301826134f2565b506000600391909101819055602080870180518352600e8252604080842080546001818101808455928752958590208b516004909202019081559251948301949094558801518051899361112a9260028501929101906133c2565b506060820151816003015550505050506111a2565b602080840180516000908152600e83526040808220805460018181018084559285529386902089516004909202019081559351928401929092558601518051919387939261119392600285019201906133c2565b50606082015181600301555050505b6000818152600f602090815260409182902085518155818601516001820155918501518051869392610edd9260028501929101906133c2565b82826111e78282613014565b6112035760405162461bcd60e51b81526004016104fd90614cfd565b6000546001600160a01b0316331461122d5760405162461bcd60e51b81526004016104fd90614ced565b8260088660405161123e9190614bd6565b9081526020016040518091039020611256878761302a565b8154811061126057fe5b906000526020600020019080519060200190610b529291906133c2565b6006546040805160ff9092168083526020808202840101909152606091829180156112bc57816020015b60608152602001906001900390816112a75790505b5090506000805b60065460ff610100909104811690821610156113c95760ff811660009081526007602052604090205460026000196101006001841615020190911604156113c15760ff811660009081526007602090815260409182902080548351601f60026000196101006001861615020190931692909204918201849004840281018401909452808452909183018282801561139b5780601f106113705761010080835404028352916020019161139b565b820191906000526020600020905b81548152906001019060200180831161137e57829003601f168201915b5050505050838380600101945060ff16815181106113b557fe5b60200260200101819052505b6001016112c3565b50909150505b90565b6113da613561565b6000828152600460209081526040918290208251815460026001821615610100026000190190911604601f81018490049093028101610180908101909452610160810183815290939192849284919084018282801561147a5780601f1061144f5761010080835404028352916020019161147a565b820191906000526020600020905b81548152906001019060200180831161145d57829003601f168201915b50505050508152602001600182018054600181600116156101000203166002900480601f01602080910402602001604051908101604052809291908181526020018280546001816001161561010002031660029004801561151c5780601f106114f15761010080835404028352916020019161151c565b820191906000526020600020905b8154815290600101906020018083116114ff57829003601f168201915b5050509183525050600282810180546040805160206001841615610100026000190190931694909404601f810183900483028501830190915280845293810193908301828280156115ae5780601f10611583576101008083540402835291602001916115ae565b820191906000526020600020905b81548152906001019060200180831161159157829003601f168201915b505050918352505060038201805460408051602060026001851615610100026000190190941693909304601f81018490048402820184019092528181529382019392918301828280156116425780601f1061161757610100808354040283529160200191611642565b820191906000526020600020905b81548152906001019060200180831161162557829003601f168201915b505050918352505060048201805460408051602060026001851615610100026000190190941693909304601f81018490048402820184019092528181529382019392918301828280156116d65780601f106116ab576101008083540402835291602001916116d6565b820191906000526020600020905b8154815290600101906020018083116116b957829003601f168201915b505050918352505060058201805460408051602060026001851615610100026000190190941693909304601f810184900484028201840190925281815293820193929183018282801561176a5780601f1061173f5761010080835404028352916020019161176a565b820191906000526020600020905b81548152906001019060200180831161174d57829003601f168201915b505050918352505060068201805460408051602060026001851615610100026000190190941693909304601f81018490048402820184019092528181529382019392918301828280156117fe5780601f106117d3576101008083540402835291602001916117fe565b820191906000526020600020905b8154815290600101906020018083116117e157829003601f168201915b505050918352505060078201805460408051602060026001851615610100026000190190941693909304601f81018490048402820184019092528181529382019392918301828280156118925780601f1061186757610100808354040283529160200191611892565b820191906000526020600020905b81548152906001019060200180831161187557829003601f168201915b505050918352505060088201805460408051602060026001851615610100026000190190941693909304601f81018490048402820184019092528181529382019392918301828280156119265780601f106118fb57610100808354040283529160200191611926565b820191906000526020600020905b81548152906001019060200180831161190957829003601f168201915b5050505050815260200160098201805480602002602001604051908101604052809291908181526020016000905b828210156119ff5760008481526020908190208301805460408051601f60026000196101006001871615020190941693909304928301859004850281018501909152818152928301828280156119eb5780601f106119c0576101008083540402835291602001916119eb565b820191906000526020600020905b8154815290600101906020018083116119ce57829003601f168201915b505050505081526020019060010190611954565b505050508152602001600a8201805480602002602001604051908101604052809291908181526020016000905b82821015611b1e57838290600052602060002001805480602002602001604051908101604052809291908181526020016000905b82821015611b0b5760008481526020908190208301805460408051601f6002600019610100600187161502019094169390930492830185900485028101850190915281815292830182828015611af75780601f10611acc57610100808354040283529160200191611af7565b820191906000526020600020905b815481529060010190602001808311611ada57829003601f168201915b505050505081526020019060010190611a60565b5050505081526020019060010190611a2c565b505050915250909392505050565b6000546060906001600160a01b03163314611b595760405162461bcd60e51b81526004016104fd90614ced565b6005805480602002602001604051908101604052809291908181526020018280548015611ba557602002820191906000526020600020905b815481526020019060010190808311611b91575b5050505050905090565b600082815260016020526040902054829060ff16611bdf5760405162461bcd60e51b81526004016104fd90614c7d565b6000828152600160208181526040808420805460ff1990811690941790558684528084208054909316909255848352600381528183208390558583526002905280822084835291208154611c3392906135bb565b506000838152600260205260408120611c4b916135fb565b60005b60008381526002602052604090205481101561089d578260036000600260008781526020019081526020016000208481548110611c8757fe5b60009182526020808320909101548352820192909252604001902055600101611c4e565b6060600982604051611cbd9190614bd6565b9081526020016040518091039020805480602002602001604051908101604052809291908181526020016000905b82821015610cdf578382906000526020600020906004020160405180608001604052908160008201805480602002602001604051908101604052809291908181526020016000905b82821015611dde5760008481526020908190208301805460408051601f6002600019610100600187161502019094169390930492830185900485028101850190915281815292830182828015611dca5780601f10611d9f57610100808354040283529160200191611dca565b820191906000526020600020905b815481529060010190602001808311611dad57829003601f168201915b505050505081526020019060010190611d33565b50505050815260200160018201805480602002602001604051908101604052809291908181526020016000905b82821015611eb65760008481526020908190208301805460408051601f6002600019610100600187161502019094169390930492830185900485028101850190915281815292830182828015611ea25780601f10611e7757610100808354040283529160200191611ea2565b820191906000526020600020905b815481529060010190602001808311611e8557829003601f168201915b505050505081526020019060010190611e0b565b50505090825250600282810180546040805160206001841615610100026000190190931694909404601f81018390048302850183019091528084529381019390830182828015611f475780601f10611f1c57610100808354040283529160200191611f47565b820191906000526020600020905b815481529060010190602001808311611f2a57829003601f168201915b5050505050815260200160038201548152505081526020019060010190611ceb565b6000546001600160a01b03163314611f935760405162461bcd60e51b81526004016104fd90614ced565b80611f9d81612f09565b15611fba5760405162461bcd60e51b81526004016104fd90614d2d565b60065460ff6101008204811691161115611fe65760405162461bcd60e51b81526004016104fd90614d3d565b60005b60065460ff610100909104811690821610156120715760ff8116600090815260076020526040902054600260001961010060018416150201909116046120695760ff81166000908152600760209081526040909120845161204c928601906133c2565b50506006805460ff8082166001011660ff19909116179055612073565b600101611fe9565b505b5050565b6000546001600160a01b031681565b80600c836040516120979190614bd6565b908152602001604051809103902060008201518160000190805190602001906120c19291906133c2565b5060208281015180516120da92600185019201906133c2565b50604082015180516120f69160028401916020909101906133c2565b5090505060006121068484612df4565b9050600081121561214c576000848152600b602090815260408220805460018101808355918452928290208651919361214593910191908701906133c2565b505061089d565b6000848152600b6020526040902080548491908390811061216957fe5b9060005260206000200190805190602001906121869291906133c2565b5050505050565b6060600b6000838152602001908152602001600020805480602002602001604051908101604052809291908181526020016000905b82821015610cdf5760008481526020908190208301805460408051601f60026000196101006001871615020190941693909304928301859004850281018501909152818152928301828280156122595780601f1061222e57610100808354040283529160200191612259565b820191906000526020600020905b81548152906001019060200180831161223c57829003601f168201915b5050505050815260200190600101906121c2565b606081612279816128d5565b6122955760405162461bcd60e51b81526004016104fd90614d4d565b6000838152600e6020908152604080832080548251818502810185019093528083529193909284015b828210156123b057838290600052602060002090600402016040518060800160405290816000820154815260200160018201548152602001600282018054600181600116156101000203166002900480601f01602080910402602001604051908101604052809291908181526020018280546001816001161561010002031660029004801561238e5780601f106123635761010080835404028352916020019161238e565b820191906000526020600020905b81548152906001019060200180831161237157829003601f168201915b50505050508152602001600382015481525050815260200190600101906122be565b5050505091505b50919050565b6123c5613619565b6000828152600a60209081526040918290208251815460026001821615610100026000190190911604601f8101849004909302810160c090810190945260a081018381529093919284928491908401828280156124635780601f1061243857610100808354040283529160200191612463565b820191906000526020600020905b81548152906001019060200180831161244657829003601f168201915b50505050508152602001600182018054600181600116156101000203166002900480601f0160208091040260200160405190810160405280929190818152602001828054600181600116156101000203166002900480156125055780601f106124da57610100808354040283529160200191612505565b820191906000526020600020905b8154815290600101906020018083116124e857829003601f168201915b5050509183525050600282810180546040805160206001841615610100026000190190931694909404601f810183900483028501830190915280845293810193908301828280156125975780601f1061256c57610100808354040283529160200191612597565b820191906000526020600020905b81548152906001019060200180831161257a57829003601f168201915b505050918352505060038201805460408051602060026001851615610100026000190190941693909304601f810184900484028201840190925281815293820193929183018282801561262b5780601f106126005761010080835404028352916020019161262b565b820191906000526020600020905b81548152906001019060200180831161260e57829003601f168201915b505050918352505060048201805460408051602060026001851615610100026000190190941693909304601f81018490048402820184019092528181529382019392918301828280156126bf5780601f10612694576101008083540402835291602001916126bf565b820191906000526020600020905b8154815290600101906020018083116126a257829003601f168201915b5050505050815250509050919050565b80602001516126dd816128d5565b6126f95760405162461bcd60e51b81526004016104fd90614d4d565b6000612704836130a8565b905060001981106127275760405162461bcd60e51b81526004016104fd90614cbd565b602080840180516000908152600d83526040808220805460018181018084559285529386902089516004909202019081559351928401929092558601518051919387939261277b92600285019201906133c2565b506060820151816003015550505061207183610e1a565b60608161279e816128d5565b6127ba5760405162461bcd60e51b81526004016104fd90614d4d565b6000838152600d6020908152604080832080548251818502810185019093528083529193909284015b828210156123b057838290600052602060002090600402016040518060800160405290816000820154815260200160018201548152602001600282018054600181600116156101000203166002900480601f0160208091040260200160405190810160405280929190818152602001828054600181600116156101000203166002900480156128b35780601f10612888576101008083540402835291602001916128b3565b820191906000526020600020905b81548152906001019060200180831161289657829003601f168201915b50505050508152602001600382015481525050815260200190600101906127e3565b60008181526001602052604081205460ff1680610f5f575050600090815260036020526040902054151590565b6000828152600a602090815260409091208251805184936129279284929101906133c2565b50602082810151805161294092600185019201906133c2565b506040820151805161295c9160028401916020909101906133c2565b50606082015180516129789160038401916020909101906133c2565b50608082015180516121869160048401916020909101906133c2565b606080600b6000848152602001908152602001600020805490506040519080825280602002602001820160405280156129e757816020015b6129d4613648565b8152602001906001900390816129cc5790505b50905060005b6000848152600b6020526040902054811015612c2f576000848152600b602052604090208054600c919083908110612a2157fe5b90600052602060002001604051612a389190614be2565b9081526040805160209281900383018120805460026001821615610100026000190190911604601f81018590049094028201608090810190935260608201848152919390928492918491840182828015612ad35780601f10612aa857610100808354040283529160200191612ad3565b820191906000526020600020905b815481529060010190602001808311612ab657829003601f168201915b50505050508152602001600182018054600181600116156101000203166002900480601f016020809104026020016040519081016040528092919081815260200182805460018160011615610100020316600290048015612b755780601f10612b4a57610100808354040283529160200191612b75565b820191906000526020600020905b815481529060010190602001808311612b5857829003601f168201915b5050509183525050600282810180546040805160206001841615610100026000190190931694909404601f81018390048302850183019091528084529381019390830182828015612c075780601f10612bdc57610100808354040283529160200191612c07565b820191906000526020600020905b815481529060010190602001808311612bea57829003601f168201915b505050505081525050828281518110612c1c57fe5b60209081029190910101526001016129ed565b5092915050565b612c3e613539565b600f60008381526020019081526020016000206040518060800160405290816000820154815260200160018201548152602001600282018054600181600116156101000203166002900480601f016020809104026020016040519081016040528092919081815260200182805460018160011615610100020316600290048015612d095780601f10612cde57610100808354040283529160200191612d09565b820191906000526020600020905b815481529060010190602001808311612cec57829003601f168201915b505050505081526020016003820154815250509050919050565b600082815260016020526040902054829060ff16612d535760405162461bcd60e51b81526004016104fd90614c7d565b60008281526003602052604090205415612d7f5760405162461bcd60e51b81526004016104fd90614c6d565b506000828152600260209081526040808320805460018101825590845282842001849055928252600390522055565b6000805b600554811015612dea578260058281548110612dca57fe5b90600052602060002001541415612de2579050610ce6565b600101612db2565b5060001992915050565b6000805b6000848152600b60205260409020546001600160801b0382161015612efe57612e20836132e7565b6000858152600b602052604090208054612ee091906001600160801b038516908110612e4857fe5b600091825260209182902001805460408051601f6002600019610100600187161502019094169390930492830185900485028101850190915281815292830182828015612ed65780601f10612eab57610100808354040283529160200191612ed6565b820191906000526020600020905b815481529060010190602001808311612eb957829003601f168201915b50505050506132e7565b1415612ef6576001600160801b03169050610f5f565b600101612df8565b506000199392505050565b600654600090610100900460ff16612f2083612f2a565b60ff161092915050565b600080612f36836132e7565b905060005b60065460ff6101009091048116908216101561300a5760ff81166000908152600760205260409020546002600019610100600184161502019091160415801590612ff4575060ff81166000908152600760209081526040918290208054835160026001831615610100026000190190921691909104601f81018490048402820184019094528381528593612ff293919291830182828015612ed65780601f10612eab57610100808354040283529160200191612ed6565b145b15613002579150610ce69050565b600101612f3b565b5060ff9392505050565b600060ff613022848461302a565b109392505050565b6000805b60088460405161303e9190614bd6565b9081526040519081900360200190205460ff8216101561300a57613061836132e7565b6130906008866040516130749190614bd6565b90815260200160405180910390208360ff1681548110612e4857fe5b14156130a05760ff169050610f5f565b60010161302e565b600081602001516130b8816128d5565b6130d45760405162461bcd60e51b81526004016104fd90614d4d565b60005b6020808501516000908152600e9091526040902054811015612efe5761312c84600e600087602001518152602001908152602001600020838154811061311957fe5b9060005260206000209060040201613317565b156131385791506123b7565b6001016130d7565b8161314a816128d5565b6131665760405162461bcd60e51b81526004016104fd90614d4d565b600182015b6000848152600e6020526040902054811015613225576000848152600e6020526040902080548290811061319b57fe5b9060005260206000209060040201600e600086815260200190815260200160002060018303815481106131ca57fe5b9060005260206000209060040201600082015481600001556001820154816001015560028201816002019080546001816001161561010002031660029004613213929190613669565b5060039182015491015560010161316b565b506000838152600e6020526040902080549061089d9060001983016136dd565b6000818152600f60205260408120546132705760405162461bcd60e51b81526004016104fd90614cad565b6000828152600f60205260408120905b60018201546000908152600e6020526040902054811015612efe5783600e60008460010154815260200190815260200160002082815481106132be57fe5b90600052602060002090600402016000015414156132df579150610ce69050565b600101613280565b6000816040516020016132fa9190614bd6565b604051602081830303815290604052805190602001209050919050565b80548251600091148015613332575081600101548360200151145b80156133a85750600282810180546040805160206001841615610100026000190190931694909404601f8101839004830285018301909152808452613399939291830182828015612ed65780601f10612eab57610100808354040283529160200191612ed6565b6133a684604001516132e7565b145b80156133bb575081600301548360600151145b9392505050565b828054600181600116156101000203166002900490600052602060002090601f016020900481019282601f1061340357805160ff1916838001178555613430565b82800160010185558215613430579182015b82811115613430578251825591602001919060010190613415565b5061343c929150613709565b5090565b82805482825590600052602060002090810192821561348d579160200282015b8281111561348d578251805161347d9184916020909101906133c2565b5091602001919060010190613460565b5061343c929150613723565b8280548282559060005260206000209081019282156134e6579160200282015b828111156134e657825180516134d6918491602090910190613440565b50916020019190600101906134b9565b5061343c929150613746565b50805460018160011615610100020316600290046000825580601f106135185750613536565b601f0160209004906000526020600020908101906135369190613709565b50565b6040805160808101825260008082526020820181905260609282018390529181019190915290565b60405180610160016040528060608152602001606081526020016060815260200160608152602001606081526020016060815260200160608152602001606081526020016060815260200160608152602001606081525090565b8280548282559060005260206000209081019282156134305760005260206000209182015b828111156134305782548255916001019190600101906135e0565b50805460008255906000526020600020908101906135369190613709565b6040518060a0016040528060608152602001606081526020016060815260200160608152602001606081525090565b60405180606001604052806060815260200160608152602001606081525090565b828054600181600116156101000203166002900490600052602060002090601f016020900481019282601f106136a25780548555613430565b8280016001018555821561343057600052602060002091601f01602090048201828111156134305782548255916001019190600101906135e0565b815481835581811115612071576004028160040283600052602060002091820191016120719190613769565b6113cf91905b8082111561343c576000815560010161370f565b6113cf91905b8082111561343c57600061373d82826134f2565b50600101613729565b6113cf91905b8082111561343c57600061376082826137a0565b5060010161374c565b6113cf91905b8082111561343c5760008082556001820181905561379060028301826134f2565b506000600382015560040161376f565b50805460008255906000526020600020908101906135369190613723565b8035610f5f81614e9a565b600082601f8301126137da57600080fd5b81356137ed6137e882614dd6565b614db0565b81815260209384019390925082018360005b8381101561382b57813586016138158882613835565b84525060209283019291909101906001016137ff565b5050505092915050565b600082601f83011261384657600080fd5b81356138546137e882614dd6565b81815260209384019390925082018360005b8381101561382b578135860161387c8882613905565b8452506020928301929190910190600101613866565b600082601f8301126138a357600080fd5b81356138b16137e882614dd6565b81815260209384019390925082018360005b8381101561382b57813586016138d98882613905565b84525060209283019291909101906001016138c3565b8035610f5f81614eae565b8051610f5f81614eae565b600082601f83011261391657600080fd5b81356139246137e882614df6565b9150808252602083016020830185838301111561394057600080fd5b61394b838284614e58565b50505092915050565b60006080828403121561396657600080fd5b6139706080614db0565b9050600061397e84846138ef565b825250602061398f848483016138ef565b60208301525060408201356001600160401b038111156139ae57600080fd5b6139ba84828501613905565b60408301525060606139ce848285016138ef565b60608301525092915050565b6000606082840312156139ec57600080fd5b6139f66060614db0565b905081356001600160401b03811115613a0e57600080fd5b613a1a84828501613905565b82525060208201356001600160401b03811115613a3657600080fd5b613a4284828501613905565b60208301525060408201356001600160401b03811115613a6157600080fd5b613a6d84828501613905565b60408301525092915050565b60006101608284031215613a8c57600080fd5b613a97610160614db0565b905081356001600160401b03811115613aaf57600080fd5b613abb84828501613905565b82525060208201356001600160401b03811115613ad757600080fd5b613ae384828501613905565b60208301525060408201356001600160401b03811115613b0257600080fd5b613b0e84828501613905565b60408301525060608201356001600160401b03811115613b2d57600080fd5b613b3984828501613905565b60608301525060808201356001600160401b03811115613b5857600080fd5b613b6484828501613905565b60808301525060a08201356001600160401b03811115613b8357600080fd5b613b8f84828501613905565b60a08301525060c08201356001600160401b03811115613bae57600080fd5b613bba84828501613905565b60c08301525060e08201356001600160401b03811115613bd957600080fd5b613be584828501613905565b60e0830152506101008201356001600160401b03811115613c0557600080fd5b613c1184828501613905565b610100830152506101208201356001600160401b03811115613c3257600080fd5b613c3e84828501613835565b610120830152506101408201356001600160401b03811115613c5f57600080fd5b613c6b848285016137c9565b6101408301525092915050565b600060a08284031215613c8a57600080fd5b613c9460a0614db0565b905081356001600160401b03811115613cac57600080fd5b613cb884828501613905565b82525060208201356001600160401b03811115613cd457600080fd5b613ce084828501613905565b60208301525060408201356001600160401b03811115613cff57600080fd5b613d0b84828501613905565b60408301525060608201356001600160401b03811115613d2a57600080fd5b613d3684828501613905565b60608301525060808201356001600160401b03811115613d5557600080fd5b613d6184828501613905565b60808301525092915050565b600060208284031215613d7f57600080fd5b6000613d8b84846137be565b949350505050565b600060208284031215613da557600080fd5b6000613d8b84846138ef565b600060208284031215613dc357600080fd5b6000613d8b84846138fa565b60008060408385031215613de257600080fd5b6000613dee85856138ef565b9250506020613dff858286016138ef565b9150509250929050565b600080600080600080600060e0888a031215613e2457600080fd5b6000613e308a8a6138ef565b9750506020613e418a828b016138ef565b96505060408801356001600160401b03811115613e5d57600080fd5b613e698a828b01613905565b95505060608801356001600160401b03811115613e8557600080fd5b613e918a828b01613892565b94505060808801356001600160401b03811115613ead57600080fd5b613eb98a828b01613892565b93505060a08801356001600160401b03811115613ed557600080fd5b613ee18a828b01613905565b92505060c0613ef28a828b016138ef565b91505092959891949750929550565b600080600060608486031215613f1657600080fd5b6000613f2286866138ef565b93505060208401356001600160401b03811115613f3e57600080fd5b613f4a86828701613905565b92505060408401356001600160401b03811115613f6657600080fd5b613f72868287016139da565b9150509250925092565b60008060408385031215613f8f57600080fd5b6000613f9b85856138ef565b92505060208301356001600160401b03811115613fb757600080fd5b613dff85828601613c78565b600060208284031215613fd557600080fd5b81356001600160401b03811115613feb57600080fd5b613d8b84828501613905565b6000806040838503121561400a57600080fd5b82356001600160401b0381111561402057600080fd5b61402c85828601613905565b92505060208301356001600160401b0381111561404857600080fd5b613dff85828601613905565b60008060006060848603121561406957600080fd5b83356001600160401b0381111561407f57600080fd5b61408b86828701613905565b93505060208401356001600160401b038111156140a757600080fd5b6140b386828701613905565b92505060408401356001600160401b038111156140cf57600080fd5b613f7286828701613905565b6000602082840312156140ed57600080fd5b81356001600160401b0381111561410357600080fd5b613d8b84828501613954565b6000806040838503121561412257600080fd5b82356001600160401b0381111561413857600080fd5b613dee85828601613a79565b60006133bb83836142cb565b600061415c8383614458565b505060200190565b60006133bb8383614490565b60006133bb8383614936565b60006133bb8383614992565b60006133bb8383614b0a565b61419d81614e3c565b82525050565b60006141ae82614e2f565b6141b88185614e33565b9350836020820285016141ca85614e1d565b8060005b8581101561420457848403895281516141e78582614144565b94506141f283614e1d565b60209a909a01999250506001016141ce565b5091979650505050505050565b600061421c82614e2f565b6142268185614e33565b935061423183614e1d565b8060005b8381101561425f5781516142498882614150565b975061425483614e1d565b925050600101614235565b509495945050505050565b600061427582614e2f565b61427f8185614e33565b93508360208202850161429185614e1d565b8060005b8581101561420457848403895281516142ae8582614164565b94506142b983614e1d565b60209a909a0199925050600101614295565b60006142d682614e2f565b6142e08185614e33565b9350836020820285016142f285614e1d565b8060005b85811015614204578484038952815161430f8582614164565b945061431a83614e1d565b60209a909a01999250506001016142f6565b600061433782614e2f565b6143418185614e33565b93508360208202850161435385614e1d565b8060005b8581101561420457848403895281516143708582614170565b945061437b83614e1d565b60209a909a0199925050600101614357565b600061439882614e2f565b6143a28185614e33565b9350836020820285016143b485614e1d565b8060005b8581101561420457848403895281516143d1858261417c565b94506143dc83614e1d565b60209a909a01999250506001016143b8565b60006143f982614e2f565b6144038185614e33565b93508360208202850161441585614e1d565b8060005b8581101561420457848403895281516144328582614188565b945061443d83614e1d565b60209a909a0199925050600101614419565b61419d81614e47565b61419d816113cf565b600061446c82614e2f565b6144768185610ce6565b9350614486818560208601614e64565b9290920192915050565b600061449b82614e2f565b6144a58185614e33565b93506144b5818560208601614e64565b6144be81614e90565b9093019392505050565b6000815460018116600081146144e5576001811461450857614547565b607f60028304166144f68187610ce6565b60ff1984168152955085019250614547565b600282046145168187610ce6565b955061452185614e23565b60005b8281101561454057815488820152600190910190602001614524565b5050850192505b505092915050565b600061455c602183614e33565b7f5468617420656d706c6f79656520616c726561647920776f726b7320746865728152606560f81b602082015260400192915050565b600061459f602983614e33565b7f596f75206d7573742062652061206465616c657273686970206f776e657220748152686f20646f207468697360b81b602082015260400192915050565b60006145ea601e83614e33565b7f54686174207375627365727669636520616c7265616479206578697374730000815260200192915050565b6000614623602183614e33565b7f4e6f206170706c69636174696f6e2065786973747320666f72207468617420698152601960fa1b602082015260400192915050565b6000614666602183614e33565b7f5573657220646f6573206e6f74206861766520616e206170706f696e746d656e8152601d60fa1b602082015260400192915050565b60006146a9601f83614e33565b7f54686174206170706f696e746d656e7420646f6573206e6f7420657869737400815260200192915050565b60006146e2602183614e33565b7f4d6178696d756d207375627365727669636520616d6f756e74207265616368658152601960fa1b602082015260400192915050565b6000614725603383614e33565b7f4e756d626572206f6620737562736572766963657320646f6573206e6f74206d8152720c2e8c6d040e6cae4ecd2c6ca40d8cadccee8d606b1b602082015260400192915050565b600061477a601583614e33565b742cb7ba9030b932903737ba103a34329037bbb732b960591b815260200192915050565b60006147ab602c83614e33565b7f54686174207375627365727669636520646f65736e7420657869737420696e2081526b1d1a1a5cc818dbdb9d195e1d60a21b602082015260400192915050565b60006147f9601b83614e33565b7f54686174207365727669636520646f6573206e6f742065786973740000000000815260200192915050565b6000614832602283614e33565b7f54686174206164647265737320697320616c7265616479207265676973746572815261195960f21b602082015260400192915050565b6000614876601b83614e33565b7f54686174207365727669636520616c7265616479206578697374730000000000815260200192915050565b60006148af602883614e33565b7f54686572652061726520746865206d6178696d756d206e756d626572206f6620815267736572766963657360c01b602082015260400192915050565b60006148f9602883614e33565b7f596f75206d7573742062652061207665726966696564206465616c657220746f81526720646f207468697360c01b602082015260400192915050565b8051600090608084019061494a8582614458565b50602083015161495d6020860182614458565b50604083015184820360408601526149758282614490565b915050606083015161498a6060860182614458565b509392505050565b80516060808452600091908401906149aa8282614490565b915050602083015184820360208601526149c48282614490565b915050604083015184820360408601526149de8282614490565b95945050505050565b805161016080845260009190840190614a008282614490565b91505060208301518482036020860152614a1a8282614490565b91505060408301518482036040860152614a348282614490565b91505060608301518482036060860152614a4e8282614490565b91505060808301518482036080860152614a688282614490565b91505060a083015184820360a0860152614a828282614490565b91505060c083015184820360c0860152614a9c8282614490565b91505060e083015184820360e0860152614ab68282614490565b915050610100830151848203610100860152614ad28282614490565b915050610120830151848203610120860152614aee82826142cb565b9150506101408301518482036101408601526149de82826141a3565b8051608080845260009190840190614b2282826142cb565b91505060208301518482036020860152614b3c82826142cb565b915050604083015184820360408601526149758282614490565b805160a080845260009190840190614b6e8282614490565b91505060208301518482036020860152614b888282614490565b91505060408301518482036040860152614ba28282614490565b91505060608301518482036060860152614bbc8282614490565b915050608083015184820360808601526149de8282614490565b60006133bb8284614461565b60006133bb82846144c8565b60208101610f5f8284614194565b602080825281016133bb8184614211565b602080825281016133bb818461426a565b602080825281016133bb818461432c565b602080825281016133bb818461438d565b602080825281016133bb81846143ee565b60208101610f5f828461444f565b60208101610f5f8284614458565b60208082528101610f5f8161454f565b60208082528101610f5f81614592565b60208082528101610f5f816145dd565b60208082528101610f5f81614616565b60208082528101610f5f81614659565b60208082528101610f5f8161469c565b60208082528101610f5f816146d5565b60208082528101610f5f81614718565b60208082528101610f5f8161476d565b60208082528101610f5f8161479e565b60208082528101610f5f816147ec565b60208082528101610f5f81614825565b60208082528101610f5f81614869565b60208082528101610f5f816148a2565b60208082528101610f5f816148ec565b602080825281016133bb8184614936565b602080825281016133bb81846149e7565b60408082528101614d9081856149e7565b90506133bb6020830184614458565b602080825281016133bb8184614b56565b6040518181016001600160401b0381118282101715614dce57600080fd5b604052919050565b60006001600160401b03821115614dec57600080fd5b5060209081020190565b60006001600160401b03821115614e0c57600080fd5b506020601f91909101601f19160190565b60200190565b60009081526020902090565b5190565b90815260200190565b6000610f5f82614e4c565b151590565b6001600160a01b031690565b82818337506000910152565b60005b83811015614e7f578181015183820152602001614e67565b8381111561089d5750506000910152565b601f01601f191690565b614ea381614e3c565b811461353657600080fd5b614ea3816113cf56fea365627a7a72315820a14414088d186da83d61f96ef98cb3f88548e96012da816a12420894c17cc39f6c6578706572696d656e74616cf564736f6c634300050c0040",
  "source": "pragma solidity ^0.5.11;\npragma experimental ABIEncoderV2;\n\nimport \"./UserContract.sol\";\n\ncontract AppointmentHandler is UserContract {\n\n    struct Appointment{\n        bytes32 userId;\n        bytes32 dealerId;\n        string carPlate;\n        int time; //Milliseconds\n    }\n\n    mapping(bytes32 => Appointment[]) private dealerAppointmentHistory;\n    mapping(bytes32 => Appointment[]) private activeAppointments;\n    mapping(bytes32 => Appointment) private userAppointment;\n\n    function isSameAppointment(Appointment memory a, Appointment storage o) internal view returns (bool) {\n        return a.userId == o.userId && a.dealerId == o.dealerId && encode(a.carPlate) == encode(o.carPlate) && a.time == o.time;\n    }\n\n    function getIndexOfAppointment(Appointment memory appointment) internal verified(appointment.dealerId) view returns(uint){\n        for(uint i = 0; i < activeAppointments[appointment.dealerId].length; i++){\n            if(isSameAppointment(appointment,activeAppointments[appointment.dealerId][i])){\n                return i;\n            }\n        }\n        return uint(-1);\n    }\n\n    function getIndexOfUserAppointment(bytes32 userId) internal view returns(uint) {\n        require(userAppointment[userId].userId != 0,\"User does not have an appointment\");\n        Appointment storage currentAp = userAppointment[userId];\n        for(uint i = 0; i < activeAppointments[currentAp.dealerId].length; i++){\n            if(activeAppointments[currentAp.dealerId][i].userId == userId){\n                return i;\n            }\n        }\n        return uint(-1);\n    }\n\n    function createAppointment(Appointment memory appointment) public verified(appointment.dealerId) {\n        bytes32 userId = appointment.userId;\n        if(userAppointment[userId].userId != 0){\n            uint aIndex = getIndexOfUserAppointment(appointment.userId);\n            Appointment memory currentAp = userAppointment[appointment.userId];\n            delete activeAppointments[currentAp.dealerId][aIndex];\n            activeAppointments[appointment.dealerId].push(appointment);\n        }\n        else{\n            activeAppointments[appointment.dealerId].push(appointment);\n        }\n        userAppointment[userId] = appointment;\n    }\n\n    function completeAppointment(Appointment memory appointment) public verified(appointment.dealerId) {\n        uint aIndex = getIndexOfAppointment(appointment);\n        require(aIndex < uint(-1),\"That appointment does not exist\");\n        //TODO Change time to completed time (Need date time library or smth)\n        dealerAppointmentHistory[appointment.dealerId].push(appointment);\n        cancelAppointment(appointment);\n    }\n\n    function cancelAppointment(Appointment memory appointment) public verified(appointment.dealerId) {\n        uint aIndex = getIndexOfAppointment(appointment);\n        require(aIndex < uint(-1),\"That appointment does not exist\");\n        removeAppointment(appointment.dealerId,aIndex);\n        userAppointment[appointment.userId] = Appointment(0,0,\"\",0);\n    }\n\n    function removeAppointment(bytes32 dealerId, uint index) internal verified(dealerId) {\n        for(uint i = index + 1; i < activeAppointments[dealerId].length; i++){\n            activeAppointments[dealerId][i-1] = activeAppointments[dealerId][i];\n        }\n        activeAppointments[dealerId].length--;\n    }\n\n    function getAppointmentHistory(bytes32 dealerId) public view verified(dealerId) returns (Appointment[] memory){\n        return dealerAppointmentHistory[dealerId];\n    }\n\n    function getPendingAppointments(bytes32 dealerId) public view verified(dealerId) returns (Appointment[] memory){\n        return activeAppointments[dealerId];\n    }\n\n    function getUserAppointment(bytes32 userId) public view returns (Appointment memory) {\n        return userAppointment[userId];\n    }\n}",
  "sourcePath": "/Users/natwit/repos/blockchain-project-2019/contracts/AppointmentHandler.sol",
  "compiler": {
    "name": "solc",
    "version": "0.5.12+commit.7709ece9.Emscripten.clang"
  },
  "schemaVersion": "3.0.19",
  "updatedAt": "2019-11-28T14:39:10.783Z",
  "networkType": "ethereum",
  "devdoc": {
    "methods": {}
  },
  "userdoc": {
    "methods": {}
  }
}