{
  "contractName": "AppointmentHandler",
  "abi": [
    {
      "anonymous": false,
      "inputs": [
        {
          "components": [
            {
              "internalType": "string",
              "name": "dealerName",
              "type": "string"
            },
            {
              "internalType": "string",
              "name": "firstName",
              "type": "string"
            },
            {
              "internalType": "string",
              "name": "lastName",
              "type": "string"
            },
            {
              "internalType": "string",
              "name": "addr",
              "type": "string"
            },
            {
              "internalType": "string[2]",
              "name": "location",
              "type": "string[2]"
            },
            {
              "internalType": "string",
              "name": "phoneNo",
              "type": "string"
            },
            {
              "internalType": "string",
              "name": "bestSeller",
              "type": "string"
            },
            {
              "internalType": "string",
              "name": "promotion",
              "type": "string"
            },
            {
              "internalType": "string",
              "name": "otherServices",
              "type": "string"
            },
            {
              "internalType": "string[]",
              "name": "availableServices",
              "type": "string[]"
            },
            {
              "internalType": "string[][]",
              "name": "availableSubServices",
              "type": "string[][]"
            }
          ],
          "indexed": false,
          "internalType": "struct DealerContract.DealerInfo",
          "name": "info",
          "type": "tuple"
        },
        {
          "indexed": false,
          "internalType": "bytes32",
          "name": "id",
          "type": "bytes32"
        }
      ],
      "name": "CreateDealerApplication",
      "type": "event"
    },
    {
      "constant": false,
      "inputs": [
        {
          "internalType": "bytes32",
          "name": "dealerId",
          "type": "bytes32"
        },
        {
          "internalType": "bytes32",
          "name": "adr",
          "type": "bytes32"
        }
      ],
      "name": "addDealerEmployee",
      "outputs": [],
      "payable": false,
      "stateMutability": "nonpayable",
      "type": "function"
    },
    {
      "constant": false,
      "inputs": [
        {
          "internalType": "string",
          "name": "serviceName",
          "type": "string"
        }
      ],
      "name": "addService",
      "outputs": [],
      "payable": false,
      "stateMutability": "nonpayable",
      "type": "function"
    },
    {
      "constant": false,
      "inputs": [
        {
          "internalType": "string",
          "name": "serviceName",
          "type": "string"
        },
        {
          "internalType": "string",
          "name": "subServiceName",
          "type": "string"
        }
      ],
      "name": "addSubService",
      "outputs": [],
      "payable": false,
      "stateMutability": "nonpayable",
      "type": "function"
    },
    {
      "constant": false,
      "inputs": [
        {
          "internalType": "bytes32",
          "name": "adr",
          "type": "bytes32"
        }
      ],
      "name": "approveApplication",
      "outputs": [],
      "payable": false,
      "stateMutability": "nonpayable",
      "type": "function"
    },
    {
      "constant": false,
      "inputs": [
        {
          "components": [
            {
              "internalType": "string",
              "name": "dealerName",
              "type": "string"
            },
            {
              "internalType": "string",
              "name": "firstName",
              "type": "string"
            },
            {
              "internalType": "string",
              "name": "lastName",
              "type": "string"
            },
            {
              "internalType": "string",
              "name": "addr",
              "type": "string"
            },
            {
              "internalType": "string[2]",
              "name": "location",
              "type": "string[2]"
            },
            {
              "internalType": "string",
              "name": "phoneNo",
              "type": "string"
            },
            {
              "internalType": "string",
              "name": "bestSeller",
              "type": "string"
            },
            {
              "internalType": "string",
              "name": "promotion",
              "type": "string"
            },
            {
              "internalType": "string",
              "name": "otherServices",
              "type": "string"
            },
            {
              "internalType": "string[]",
              "name": "availableServices",
              "type": "string[]"
            },
            {
              "internalType": "string[][]",
              "name": "availableSubServices",
              "type": "string[][]"
            }
          ],
          "internalType": "struct DealerContract.DealerInfo",
          "name": "info",
          "type": "tuple"
        },
        {
          "internalType": "bytes32",
          "name": "id",
          "type": "bytes32"
        }
      ],
      "name": "createDealerApplication",
      "outputs": [],
      "payable": false,
      "stateMutability": "nonpayable",
      "type": "function"
    },
    {
      "constant": false,
      "inputs": [
        {
          "internalType": "string",
          "name": "serviceName",
          "type": "string"
        }
      ],
      "name": "deleteService",
      "outputs": [],
      "payable": false,
      "stateMutability": "nonpayable",
      "type": "function"
    },
    {
      "constant": false,
      "inputs": [
        {
          "internalType": "string",
          "name": "serviceName",
          "type": "string"
        },
        {
          "internalType": "string",
          "name": "subServiceName",
          "type": "string"
        }
      ],
      "name": "deleteSubService",
      "outputs": [],
      "payable": false,
      "stateMutability": "nonpayable",
      "type": "function"
    },
    {
      "constant": false,
      "inputs": [
        {
          "internalType": "bytes32",
          "name": "userId",
          "type": "bytes32"
        },
        {
          "internalType": "string",
          "name": "noPlate",
          "type": "string"
        },
        {
          "components": [
            {
              "internalType": "string",
              "name": "brand",
              "type": "string"
            },
            {
              "internalType": "string",
              "name": "model",
              "type": "string"
            },
            {
              "internalType": "string",
              "name": "year",
              "type": "string"
            }
          ],
          "internalType": "struct UserContract.CarInfo",
          "name": "carInfo",
          "type": "tuple"
        }
      ],
      "name": "editCarDetails",
      "outputs": [],
      "payable": false,
      "stateMutability": "nonpayable",
      "type": "function"
    },
    {
      "constant": false,
      "inputs": [
        {
          "components": [
            {
              "internalType": "string",
              "name": "dealerName",
              "type": "string"
            },
            {
              "internalType": "string",
              "name": "firstName",
              "type": "string"
            },
            {
              "internalType": "string",
              "name": "lastName",
              "type": "string"
            },
            {
              "internalType": "string",
              "name": "addr",
              "type": "string"
            },
            {
              "internalType": "string[2]",
              "name": "location",
              "type": "string[2]"
            },
            {
              "internalType": "string",
              "name": "phoneNo",
              "type": "string"
            },
            {
              "internalType": "string",
              "name": "bestSeller",
              "type": "string"
            },
            {
              "internalType": "string",
              "name": "promotion",
              "type": "string"
            },
            {
              "internalType": "string",
              "name": "otherServices",
              "type": "string"
            },
            {
              "internalType": "string[]",
              "name": "availableServices",
              "type": "string[]"
            },
            {
              "internalType": "string[][]",
              "name": "availableSubServices",
              "type": "string[][]"
            }
          ],
          "internalType": "struct DealerContract.DealerInfo",
          "name": "info",
          "type": "tuple"
        },
        {
          "internalType": "bytes32",
          "name": "id",
          "type": "bytes32"
        }
      ],
      "name": "editDealerInfo",
      "outputs": [],
      "payable": false,
      "stateMutability": "nonpayable",
      "type": "function"
    },
    {
      "constant": false,
      "inputs": [
        {
          "internalType": "string",
          "name": "oldName",
          "type": "string"
        },
        {
          "internalType": "string",
          "name": "newName",
          "type": "string"
        }
      ],
      "name": "editServiceName",
      "outputs": [],
      "payable": false,
      "stateMutability": "nonpayable",
      "type": "function"
    },
    {
      "constant": false,
      "inputs": [
        {
          "internalType": "string",
          "name": "serviceName",
          "type": "string"
        },
        {
          "internalType": "string",
          "name": "oldName",
          "type": "string"
        },
        {
          "internalType": "string",
          "name": "newName",
          "type": "string"
        }
      ],
      "name": "editSubServiceName",
      "outputs": [],
      "payable": false,
      "stateMutability": "nonpayable",
      "type": "function"
    },
    {
      "constant": false,
      "inputs": [
        {
          "internalType": "bytes32",
          "name": "userId",
          "type": "bytes32"
        },
        {
          "components": [
            {
              "internalType": "string",
              "name": "firstName",
              "type": "string"
            },
            {
              "internalType": "string",
              "name": "lastName",
              "type": "string"
            },
            {
              "internalType": "string",
              "name": "adr",
              "type": "string"
            },
            {
              "internalType": "string",
              "name": "phNo",
              "type": "string"
            },
            {
              "internalType": "string",
              "name": "email",
              "type": "string"
            }
          ],
          "internalType": "struct UserContract.UserInfo",
          "name": "info",
          "type": "tuple"
        }
      ],
      "name": "editUserInfo",
      "outputs": [],
      "payable": false,
      "stateMutability": "nonpayable",
      "type": "function"
    },
    {
      "constant": true,
      "inputs": [],
      "name": "getAllDealerApplications",
      "outputs": [
        {
          "internalType": "bytes32[]",
          "name": "",
          "type": "bytes32[]"
        }
      ],
      "payable": false,
      "stateMutability": "view",
      "type": "function"
    },
    {
      "constant": true,
      "inputs": [],
      "name": "getAllUsers",
      "outputs": [
        {
          "internalType": "bytes32[]",
          "name": "",
          "type": "bytes32[]"
        }
      ],
      "payable": false,
      "stateMutability": "view",
      "type": "function"
    },
    {
      "constant": true,
      "inputs": [
        {
          "internalType": "string",
          "name": "noPlate",
          "type": "string"
        }
      ],
      "name": "getCarDetails",
      "outputs": [
        {
          "components": [
            {
              "internalType": "string",
              "name": "brand",
              "type": "string"
            },
            {
              "internalType": "string",
              "name": "model",
              "type": "string"
            },
            {
              "internalType": "string",
              "name": "year",
              "type": "string"
            }
          ],
          "internalType": "struct UserContract.CarInfo",
          "name": "",
          "type": "tuple"
        }
      ],
      "payable": false,
      "stateMutability": "view",
      "type": "function"
    },
    {
      "constant": true,
      "inputs": [
        {
          "internalType": "bytes32",
          "name": "userId",
          "type": "bytes32"
        }
      ],
      "name": "getCarPlates",
      "outputs": [
        {
          "internalType": "string[]",
          "name": "",
          "type": "string[]"
        }
      ],
      "payable": false,
      "stateMutability": "view",
      "type": "function"
    },
    {
      "constant": true,
      "inputs": [
        {
          "internalType": "bytes32",
          "name": "userId",
          "type": "bytes32"
        }
      ],
      "name": "getCars",
      "outputs": [
        {
          "components": [
            {
              "internalType": "string",
              "name": "brand",
              "type": "string"
            },
            {
              "internalType": "string",
              "name": "model",
              "type": "string"
            },
            {
              "internalType": "string",
              "name": "year",
              "type": "string"
            }
          ],
          "internalType": "struct UserContract.CarInfo[]",
          "name": "",
          "type": "tuple[]"
        }
      ],
      "payable": false,
      "stateMutability": "view",
      "type": "function"
    },
    {
      "constant": true,
      "inputs": [
        {
          "internalType": "bytes32",
          "name": "id",
          "type": "bytes32"
        }
      ],
      "name": "getDealerInfo",
      "outputs": [
        {
          "components": [
            {
              "internalType": "string",
              "name": "dealerName",
              "type": "string"
            },
            {
              "internalType": "string",
              "name": "firstName",
              "type": "string"
            },
            {
              "internalType": "string",
              "name": "lastName",
              "type": "string"
            },
            {
              "internalType": "string",
              "name": "addr",
              "type": "string"
            },
            {
              "internalType": "string[2]",
              "name": "location",
              "type": "string[2]"
            },
            {
              "internalType": "string",
              "name": "phoneNo",
              "type": "string"
            },
            {
              "internalType": "string",
              "name": "bestSeller",
              "type": "string"
            },
            {
              "internalType": "string",
              "name": "promotion",
              "type": "string"
            },
            {
              "internalType": "string",
              "name": "otherServices",
              "type": "string"
            },
            {
              "internalType": "string[]",
              "name": "availableServices",
              "type": "string[]"
            },
            {
              "internalType": "string[][]",
              "name": "availableSubServices",
              "type": "string[][]"
            }
          ],
          "internalType": "struct DealerContract.DealerInfo",
          "name": "",
          "type": "tuple"
        }
      ],
      "payable": false,
      "stateMutability": "view",
      "type": "function"
    },
    {
      "constant": true,
      "inputs": [
        {
          "internalType": "string",
          "name": "id",
          "type": "string"
        }
      ],
      "name": "getHash",
      "outputs": [
        {
          "internalType": "bytes32",
          "name": "",
          "type": "bytes32"
        }
      ],
      "payable": false,
      "stateMutability": "pure",
      "type": "function"
    },
    {
      "constant": true,
      "inputs": [
        {
          "internalType": "string",
          "name": "noPlate",
          "type": "string"
        }
      ],
      "name": "getRecords",
      "outputs": [
        {
          "components": [
            {
              "internalType": "bytes32",
              "name": "dealerId",
              "type": "bytes32"
            },
            {
              "internalType": "string[]",
              "name": "services",
              "type": "string[]"
            },
            {
              "internalType": "string[]",
              "name": "subservices",
              "type": "string[]"
            },
            {
              "internalType": "string",
              "name": "comment",
              "type": "string"
            },
            {
              "internalType": "uint256",
              "name": "timeStamp",
              "type": "uint256"
            }
          ],
          "internalType": "struct UserContract.RecordInternal[]",
          "name": "",
          "type": "tuple[]"
        }
      ],
      "payable": false,
      "stateMutability": "view",
      "type": "function"
    },
    {
      "constant": true,
      "inputs": [],
      "name": "getServices",
      "outputs": [
        {
          "internalType": "string[]",
          "name": "",
          "type": "string[]"
        }
      ],
      "payable": false,
      "stateMutability": "view",
      "type": "function"
    },
    {
      "constant": true,
      "inputs": [
        {
          "internalType": "string",
          "name": "serviceName",
          "type": "string"
        }
      ],
      "name": "getSubServices",
      "outputs": [
        {
          "internalType": "string[]",
          "name": "",
          "type": "string[]"
        }
      ],
      "payable": false,
      "stateMutability": "view",
      "type": "function"
    },
    {
      "constant": true,
      "inputs": [
        {
          "internalType": "bytes32",
          "name": "userId",
          "type": "bytes32"
        }
      ],
      "name": "getUserInfo",
      "outputs": [
        {
          "components": [
            {
              "internalType": "string",
              "name": "firstName",
              "type": "string"
            },
            {
              "internalType": "string",
              "name": "lastName",
              "type": "string"
            },
            {
              "internalType": "string",
              "name": "adr",
              "type": "string"
            },
            {
              "internalType": "string",
              "name": "phNo",
              "type": "string"
            },
            {
              "internalType": "string",
              "name": "email",
              "type": "string"
            }
          ],
          "internalType": "struct UserContract.UserInfo",
          "name": "",
          "type": "tuple"
        }
      ],
      "payable": false,
      "stateMutability": "view",
      "type": "function"
    },
    {
      "constant": false,
      "inputs": [
        {
          "internalType": "bytes32",
          "name": "dealerId",
          "type": "bytes32"
        },
        {
          "internalType": "bytes32",
          "name": "id",
          "type": "bytes32"
        },
        {
          "internalType": "string",
          "name": "noPlate",
          "type": "string"
        },
        {
          "internalType": "string[]",
          "name": "services",
          "type": "string[]"
        },
        {
          "internalType": "string[]",
          "name": "subservices",
          "type": "string[]"
        },
        {
          "internalType": "string",
          "name": "comment",
          "type": "string"
        },
        {
          "internalType": "uint256",
          "name": "timeStamp",
          "type": "uint256"
        }
      ],
      "name": "insertRecord",
      "outputs": [],
      "payable": false,
      "stateMutability": "nonpayable",
      "type": "function"
    },
    {
      "constant": true,
      "inputs": [
        {
          "internalType": "bytes32",
          "name": "adr",
          "type": "bytes32"
        }
      ],
      "name": "isVerified",
      "outputs": [
        {
          "internalType": "bool",
          "name": "",
          "type": "bool"
        }
      ],
      "payable": false,
      "stateMutability": "view",
      "type": "function"
    },
    {
      "constant": true,
      "inputs": [],
      "name": "owner",
      "outputs": [
        {
          "internalType": "address",
          "name": "",
          "type": "address"
        }
      ],
      "payable": false,
      "stateMutability": "view",
      "type": "function"
    },
    {
      "constant": false,
      "inputs": [
        {
          "internalType": "bytes32",
          "name": "dealershipId",
          "type": "bytes32"
        },
        {
          "internalType": "bytes32",
          "name": "otherId",
          "type": "bytes32"
        }
      ],
      "name": "transferDealershipOwner",
      "outputs": [],
      "payable": false,
      "stateMutability": "nonpayable",
      "type": "function"
    },
    {
      "constant": false,
      "inputs": [
        {
          "internalType": "address",
          "name": "newOwner",
          "type": "address"
        }
      ],
      "name": "transferOwner",
      "outputs": [],
      "payable": false,
      "stateMutability": "nonpayable",
      "type": "function"
    },
    {
      "constant": false,
      "inputs": [
        {
          "components": [
            {
              "internalType": "bytes32",
              "name": "userId",
              "type": "bytes32"
            },
            {
              "internalType": "bytes32",
              "name": "dealerId",
              "type": "bytes32"
            },
            {
              "internalType": "string",
              "name": "carPlate",
              "type": "string"
            },
            {
              "internalType": "int256",
              "name": "time",
              "type": "int256"
            }
          ],
          "internalType": "struct AppointmentHandler.Appointment",
          "name": "appointment",
          "type": "tuple"
        }
      ],
      "name": "createAppointment",
      "outputs": [],
      "payable": false,
      "stateMutability": "nonpayable",
      "type": "function"
    },
    {
      "constant": false,
      "inputs": [
        {
          "components": [
            {
              "internalType": "bytes32",
              "name": "userId",
              "type": "bytes32"
            },
            {
              "internalType": "bytes32",
              "name": "dealerId",
              "type": "bytes32"
            },
            {
              "internalType": "string",
              "name": "carPlate",
              "type": "string"
            },
            {
              "internalType": "int256",
              "name": "time",
              "type": "int256"
            }
          ],
          "internalType": "struct AppointmentHandler.Appointment",
          "name": "appointment",
          "type": "tuple"
        }
      ],
      "name": "completeAppointment",
      "outputs": [],
      "payable": false,
      "stateMutability": "nonpayable",
      "type": "function"
    },
    {
      "constant": false,
      "inputs": [
        {
          "components": [
            {
              "internalType": "bytes32",
              "name": "userId",
              "type": "bytes32"
            },
            {
              "internalType": "bytes32",
              "name": "dealerId",
              "type": "bytes32"
            },
            {
              "internalType": "string",
              "name": "carPlate",
              "type": "string"
            },
            {
              "internalType": "int256",
              "name": "time",
              "type": "int256"
            }
          ],
          "internalType": "struct AppointmentHandler.Appointment",
          "name": "appointment",
          "type": "tuple"
        }
      ],
      "name": "cancelAppointment",
      "outputs": [],
      "payable": false,
      "stateMutability": "nonpayable",
      "type": "function"
    },
    {
      "constant": true,
      "inputs": [
        {
          "internalType": "bytes32",
          "name": "dealerId",
          "type": "bytes32"
        }
      ],
      "name": "getAppointmentHistory",
      "outputs": [
        {
          "components": [
            {
              "internalType": "bytes32",
              "name": "userId",
              "type": "bytes32"
            },
            {
              "internalType": "bytes32",
              "name": "dealerId",
              "type": "bytes32"
            },
            {
              "internalType": "string",
              "name": "carPlate",
              "type": "string"
            },
            {
              "internalType": "int256",
              "name": "time",
              "type": "int256"
            }
          ],
          "internalType": "struct AppointmentHandler.Appointment[]",
          "name": "",
          "type": "tuple[]"
        }
      ],
      "payable": false,
      "stateMutability": "view",
      "type": "function"
    },
    {
      "constant": true,
      "inputs": [
        {
          "internalType": "bytes32",
          "name": "dealerId",
          "type": "bytes32"
        }
      ],
      "name": "getPendingAppointments",
      "outputs": [
        {
          "components": [
            {
              "internalType": "bytes32",
              "name": "userId",
              "type": "bytes32"
            },
            {
              "internalType": "bytes32",
              "name": "dealerId",
              "type": "bytes32"
            },
            {
              "internalType": "string",
              "name": "carPlate",
              "type": "string"
            },
            {
              "internalType": "int256",
              "name": "time",
              "type": "int256"
            }
          ],
          "internalType": "struct AppointmentHandler.Appointment[]",
          "name": "",
          "type": "tuple[]"
        }
      ],
      "payable": false,
      "stateMutability": "view",
      "type": "function"
    },
    {
      "constant": true,
      "inputs": [
        {
          "internalType": "bytes32",
          "name": "userId",
          "type": "bytes32"
        }
      ],
      "name": "getUserAppointment",
      "outputs": [
        {
          "components": [
            {
              "internalType": "bytes32",
              "name": "userId",
              "type": "bytes32"
            },
            {
              "internalType": "bytes32",
              "name": "dealerId",
              "type": "bytes32"
            },
            {
              "internalType": "string",
              "name": "carPlate",
              "type": "string"
            },
            {
              "internalType": "int256",
              "name": "time",
              "type": "int256"
            }
          ],
          "internalType": "struct AppointmentHandler.Appointment",
          "name": "",
          "type": "tuple"
        }
      ],
      "payable": false,
      "stateMutability": "view",
      "type": "function"
    }
  ],
  "bytecode": "0x60806040526006805461fe0061ff0019909116179055600080546001600160a01b031916331790556154e0806100366000396000f3fe608060405234801561001057600080fd5b50600436106102065760003560e01c806382d7afbd1161011a578063b2c9ae60116100ad578063c9b54a581161007c578063c9b54a5814610491578063d872acac146104b1578063ddb5f476146104d1578063e2842d79146104f1578063e445268c146104f957610206565b8063b2c9ae6014610438578063b63e01d21461044b578063c181b2731461045e578063c4e91d171461047e57610206565b80638ee24214116100e95780638ee24214146103d25780638f2b5144146103e5578063a44e4c70146103f8578063adff8b0f1461041857610206565b806382d7afbd1461037757806386e80b711461038a57806388fcd194146103aa5780638da5cb5b146103bd57610206565b806350fb95e31161019d5780636fd7d2b51161016c5780636fd7d2b514610314578063752326c114610327578063754178511461033a5780637d17f13c146103425780637e41667f1461036257610206565b806350fb95e3146102bb5780635a82610c146102ce5780635b6beeb9146102e157806360e9480b1461030157610206565b80631b8f47fe116101d95780631b8f47fe14610259578063369bfce41461026c578063431a65fc1461027f5780634fb2e45d146102a857610206565b80630ad5be911461020b5780630eb7bc8f146102205780631118127a146102335780631a4c85be14610246575b600080fd5b61021e610219366004614331565b61050c565b005b61021e61022e36600461451f565b6106ba565b61021e610241366004614637565b610745565b61021e6102543660046144eb565b610933565b61021e6102673660046142bb565b610a06565b61021e61027a36600461451f565b610a97565b61029261028d3660046144eb565b610c1e565b60405161029f91906151bf565b60405180910390f35b61021e6102b6366004614295565b610d15565b61021e6102c936600461451f565b610d61565b61021e6102dc366004614603565b610e3b565b6102f46102ef3660046144eb565b610f11565b60405161029f9190615211565b61021e61030f366004614603565b610f86565b61021e61032236600461457c565b6111fc565b61021e610335366004614637565b6112a6565b61029261140d565b6103556103503660046142bb565b611562565b60405161029f9190615331565b61036a611cec565b60405161029f91906151ae565b61021e6103853660046142f7565b611d6f565b61039d6103983660046144eb565b611e6b565b60405161029f91906151f2565b61021e6103b83660046144eb565b612135565b6103c5612243565b60405161029f91906151a0565b61021e6103e0366004614429565b612252565b6102926103f33660046142bb565b612359565b61040b6104063660046142bb565b612439565b60405161029f91906151d0565b61042b6104263660046142bb565b612589565b60405161029f9190615362565b61021e610446366004614603565b61289b565b61040b6104593660046142bb565b61295e565b61047161046c3660046142bb565b612aa1565b60405161029f9190615203565b61021e61048c3660046144a4565b612ace565b6104a461049f3660046142bb565b612b60565b60405161029f91906151e1565b6104c46104bf3660046144eb565b612e02565b60405161029f9190615320565b6104e46104df3660046142bb565b612fbe565b60405161029f919061530f565b61036a6130ab565b61021e6105073660046142f7565b61312c565b8661051681612aa1565b61053b5760405162461bcd60e51b8152600401610532906152ff565b60405180910390fd5b84518451111561055d5760405162461bcd60e51b81526004016105329061528f565b600061056988886131b7565b12156105a6576000878152600b60209081526040822080546001810180835591845292829020895191936105a393910191908a0190613807565b50505b6009866040516105b69190615188565b90815260408051918290036020908101832060a0840183528b845283820189815292840188905260608401879052608084018690528054600181810180845560009384529284902086516005909302019182559351805192959491936106229392850192910190613885565b506040820151805161063e916002840191602090910190613885565b506060820151805161065a916003840191602090910190613807565b5060808201518160040155505050600019610674886132cc565b14156106b057600d80546001810182556000919091527fd7b6990105719101dabeb77144f2a3385c8033acd3af97e9423a695e81ad1eb5018790555b5050505050505050565b6000546001600160a01b031633146106e45760405162461bcd60e51b81526004016105329061529f565b816106ee81613312565b61070a5760405162461bcd60e51b8152600401610532906152bf565b816007600061071886613333565b60ff1660ff168152602001908152602001600020908051906020019061073f929190613807565b50505050565b60008181526001602052604090205460ff16156107745760405162461bcd60e51b8152600401610532906152cf565b6000818152600460209081526040909120835180518593610799928492910190613807565b5060208281015180516107b29260018501920190613807565b50604082015180516107ce916002840191602090910190613807565b50606082015180516107ea916003840191602090910190613807565b50608082015161080090600483019060026138de565b5060a0820151805161081c916006840191602090910190613807565b5060c08201518051610838916007840191602090910190613807565b5060e08201518051610854916008840191602090910190613807565b506101008201518051610871916009840191602090910190613807565b50610120820151805161088e91600a840191602090910190613885565b5061014082015180516108ab91600b84019160209091019061391e565b5090505060006108ba8261341d565b12156108f657600580546001810182556000919091527f036b6384b5eca791c62761152d0c79bb0604c104a5fb6f4eb0703f3154bb3db0018190555b7fbcb28ce223d1d07df7ff015302f0aee0306ad6362ede3db7aa3c6d40a651f0088282604051610927929190615342565b60405180910390a15050565b6000546001600160a01b0316331461095d5760405162461bcd60e51b81526004016105329061529f565b8061096781613312565b6109835760405162461bcd60e51b8152600401610532906152bf565b600061098e83613333565b604080516020808201808452600080845260ff86168152600790925292902090519293506109be92909190613807565b506008836040516109cf9190615188565b908152602001604051809103902060006109e99190613977565b50506006805460ff19811660ff9182166000190190911617905550565b6000546001600160a01b03163314610a305760405162461bcd60e51b81526004016105329061529f565b6000610a3b8261341d565b90506000811215610a5e5760405162461bcd60e51b81526004016105329061524f565b6000828152600160208190526040909120805460ff191690911790556005805482908110610a8857fe5b60009182526020822001555050565b6000546001600160a01b03163314610ac15760405162461bcd60e51b81526004016105329061529f565b8181610acd8282613459565b610ae95760405162461bcd60e51b8152600401610532906152af565b6000610af5858561346f565b905060006001600887604051610b0b9190615188565b908152602001604051809103902080549050039050600886604051610b309190615188565b90815260200160405180910390208181548110610b4957fe5b90600052602060002001600887604051610b639190615188565b90815260200160405180910390208381548110610b7c57fe5b906000526020600020019080546001816001161561010002031660029004610ba5929190613998565b50600886604051610bb69190615188565b90815260200160405180910390208181548110610bcf57fe5b906000526020600020016000610be59190613a0d565b600886604051610bf59190615188565b908152604051908190036020019020805490610c15906000198301613a51565b50505050505050565b6060600882604051610c309190615188565b9081526020016040518091039020805480602002602001604051908101604052809291908181526020016000905b82821015610d095760008481526020908190208301805460408051601f6002600019610100600187161502019094169390930492830185900485028101850190915281815292830182828015610cf55780601f10610cca57610100808354040283529160200191610cf5565b820191906000526020600020905b815481529060010190602001808311610cd857829003601f168201915b505050505081526020019060010190610c5e565b5050505090505b919050565b6000546001600160a01b03163314610d3f5760405162461bcd60e51b81526004016105329061529f565b600080546001600160a01b0319166001600160a01b0392909216919091179055565b8160ff600882604051610d749190615188565b9081526040519081900360200190205410610da15760405162461bcd60e51b81526004016105329061527f565b8282610dad8282613459565b15610dca5760405162461bcd60e51b81526004016105329061523f565b6000546001600160a01b03163314610df45760405162461bcd60e51b81526004016105329061529f565b600885604051610e049190615188565b9081526040516020918190038201902080546001810180835560009283529183902087519293610c15939190920191880190613807565b8060200151610e4981612aa1565b610e655760405162461bcd60e51b8152600401610532906152ff565b6000610e70836134ed565b90506000198110610e935760405162461bcd60e51b81526004016105329061526f565b610ea1836020015182613585565b6040805160808101825260008082526020808301828152845180830186528381528486019081526060850184905288518452601083529490922083518155915160018301559251805192939192610efe9260028501920190613807565b5060608201518160030155905050505050565b6000600282604051602001610f269190615188565b60408051601f1981840301815290829052610f4091615188565b602060405180830381855afa158015610f5d573d6000803e3d6000fd5b5050506040513d601f19601f82011682018060405250610f8091908101906142d9565b92915050565b8060200151610f9481612aa1565b610fb05760405162461bcd60e51b8152600401610532906152ff565b815160008181526010602052604090205415611160576000610fd5846000015161368a565b9050610fdf613a75565b8451600090815260106020908152604091829020825160808101845281548152600180830154828501526002808401805487519381161561010002600019011691909104601f810186900486028301860187528083529295939493860193919290918301828280156110925780601f1061106757610100808354040283529160200191611092565b820191906000526020600020905b81548152906001019060200180831161107557829003601f168201915b505050505081526020016003820154815250509050600f60008260200151815260200190815260200160002082815481106110c957fe5b60009182526020822060049091020181815560018101829055906110f06002830182613a0d565b506000600391909101819055602080870180518352600f8252604080842080546001818101808455928752958590208b516004909202019081559251948301949094558801518051899361114b926002850192910190613807565b506060820151816003015550505050506111c3565b602080840180516000908152600f8352604080822080546001818101808455928552938690208951600490920201908155935192840192909255860151805191938793926111b49260028501920190613807565b50606082015181600301555050505b60008181526010602090815260409182902085518155818601516001820155918501518051869392610efe926002850192910190613807565b82826112088282613459565b6112245760405162461bcd60e51b8152600401610532906152af565b6000546001600160a01b0316331461124e5760405162461bcd60e51b81526004016105329061529f565b8260088660405161125f9190615188565b9081526020016040518091039020611277878761346f565b8154811061128157fe5b90600052602060002001908051906020019061129e929190613807565b505050505050565b600081815260016020526040902054819060ff166112d65760405162461bcd60e51b81526004016105329061522f565b60008281526004602090815260409091208451805186936112fb928492910190613807565b5060208281015180516113149260018501920190613807565b5060408201518051611330916002840191602090910190613807565b506060820151805161134c916003840191602090910190613807565b50608082015161136290600483019060026138de565b5060a0820151805161137e916006840191602090910190613807565b5060c0820151805161139a916007840191602090910190613807565b5060e082015180516113b6916008840191602090910190613807565b5061010082015180516113d3916009840191602090910190613807565b5061012082015180516113f091600a840191602090910190613885565b50610140820151805161129e91600b84019160209091019061391e565b6006546040805160ff90921680835260208082028401019091526060918291801561144c57816020015b60608152602001906001900390816114375790505b5090506000805b60065460ff610100909104811690821610156115595760ff811660009081526007602052604090205460026000196101006001841615020190911604156115515760ff811660009081526007602090815260409182902080548351601f60026000196101006001861615020190931692909204918201849004840281018401909452808452909183018282801561152b5780601f106115005761010080835404028352916020019161152b565b820191906000526020600020905b81548152906001019060200180831161150e57829003601f168201915b5050505050838380600101945060ff168151811061154557fe5b60200260200101819052505b600101611453565b50909150505b90565b61156a613a9d565b6000828152600460209081526040918290208251815460026001821615610100026000190190911604601f81018490049093028101610180908101909452610160810183815290939192849284919084018282801561160a5780601f106115df5761010080835404028352916020019161160a565b820191906000526020600020905b8154815290600101906020018083116115ed57829003601f168201915b50505050508152602001600182018054600181600116156101000203166002900480601f0160208091040260200160405190810160405280929190818152602001828054600181600116156101000203166002900480156116ac5780601f10611681576101008083540402835291602001916116ac565b820191906000526020600020905b81548152906001019060200180831161168f57829003601f168201915b5050509183525050600282810180546040805160206001841615610100026000190190931694909404601f8101839004830285018301909152808452938101939083018282801561173e5780601f106117135761010080835404028352916020019161173e565b820191906000526020600020905b81548152906001019060200180831161172157829003601f168201915b505050918352505060038201805460408051602060026001851615610100026000190190941693909304601f81018490048402820184019092528181529382019392918301828280156117d25780601f106117a7576101008083540402835291602001916117d2565b820191906000526020600020905b8154815290600101906020018083116117b557829003601f168201915b5050509183525050604080518082019091526020909101906004830160026000835b8282101561189757838201805460408051602060026001851615610100026000190190941693909304601f810184900484028201840190925281815292918301828280156118835780601f1061185857610100808354040283529160200191611883565b820191906000526020600020905b81548152906001019060200180831161186657829003601f168201915b5050505050815260200190600101906117f4565b5050509082525060068201805460408051602060026001851615610100026000190190941693909304601f810184900484028201840190925281815293820193929183018282801561192a5780601f106118ff5761010080835404028352916020019161192a565b820191906000526020600020905b81548152906001019060200180831161190d57829003601f168201915b505050918352505060078201805460408051602060026001851615610100026000190190941693909304601f81018490048402820184019092528181529382019392918301828280156119be5780601f10611993576101008083540402835291602001916119be565b820191906000526020600020905b8154815290600101906020018083116119a157829003601f168201915b505050918352505060088201805460408051602060026001851615610100026000190190941693909304601f8101849004840282018401909252818152938201939291830182828015611a525780601f10611a2757610100808354040283529160200191611a52565b820191906000526020600020905b815481529060010190602001808311611a3557829003601f168201915b505050918352505060098201805460408051602060026001851615610100026000190190941693909304601f8101849004840282018401909252818152938201939291830182828015611ae65780601f10611abb57610100808354040283529160200191611ae6565b820191906000526020600020905b815481529060010190602001808311611ac957829003601f168201915b50505050508152602001600a8201805480602002602001604051908101604052809291908181526020016000905b82821015611bbf5760008481526020908190208301805460408051601f6002600019610100600187161502019094169390930492830185900485028101850190915281815292830182828015611bab5780601f10611b8057610100808354040283529160200191611bab565b820191906000526020600020905b815481529060010190602001808311611b8e57829003601f168201915b505050505081526020019060010190611b14565b505050508152602001600b8201805480602002602001604051908101604052809291908181526020016000905b82821015611cde57838290600052602060002001805480602002602001604051908101604052809291908181526020016000905b82821015611ccb5760008481526020908190208301805460408051601f6002600019610100600187161502019094169390930492830185900485028101850190915281815292830182828015611cb75780601f10611c8c57610100808354040283529160200191611cb7565b820191906000526020600020905b815481529060010190602001808311611c9a57829003601f168201915b505050505081526020019060010190611c20565b5050505081526020019060010190611bec565b505050915250909392505050565b6000546060906001600160a01b03163314611d195760405162461bcd60e51b81526004016105329061529f565b6005805480602002602001604051908101604052809291908181526020018280548015611d6557602002820191906000526020600020905b815481526020019060010190808311611d51575b5050505050905090565b600082815260016020526040902054829060ff16611d9f5760405162461bcd60e51b81526004016105329061522f565b6000828152600160208181526040808420805460ff1990811690941790558684528084208054909316909255848352600381528183208390558583526002905280822084835291208154611df39290613afd565b506000838152600260205260408120611e0b91613b3c565b60005b60008381526002602052604090205481101561073f578260036000600260008781526020019081526020016000208481548110611e4757fe5b60009182526020808320909101548352820192909252604001902055600101611e0e565b6060600982604051611e7d9190615188565b9081526020016040518091039020805480602002602001604051908101604052809291908181526020016000905b82821015610d0957838290600052602060002090600502016040518060a00160405290816000820154815260200160018201805480602002602001604051908101604052809291908181526020016000905b82821015611fa85760008481526020908190208301805460408051601f6002600019610100600187161502019094169390930492830185900485028101850190915281815292830182828015611f945780601f10611f6957610100808354040283529160200191611f94565b820191906000526020600020905b815481529060010190602001808311611f7757829003601f168201915b505050505081526020019060010190611efd565b50505050815260200160028201805480602002602001604051908101604052809291908181526020016000905b828210156120805760008481526020908190208301805460408051601f600260001961010060018716150201909416939093049283018590048502810185019091528181529283018282801561206c5780601f106120415761010080835404028352916020019161206c565b820191906000526020600020905b81548152906001019060200180831161204f57829003601f168201915b505050505081526020019060010190611fd5565b5050509082525060038201805460408051602060026001851615610100026000190190941693909304601f81018490048402820184019092528181529382019392918301828280156121135780601f106120e857610100808354040283529160200191612113565b820191906000526020600020905b8154815290600101906020018083116120f657829003601f168201915b5050505050815260200160048201548152505081526020019060010190611eab565b6000546001600160a01b0316331461215f5760405162461bcd60e51b81526004016105329061529f565b8061216981613312565b156121865760405162461bcd60e51b8152600401610532906152df565b60065460ff61010082048116911611156121b25760405162461bcd60e51b8152600401610532906152ef565b60005b60065460ff6101009091048116908216101561223d5760ff8116600090815260076020526040902054600260001961010060018416150201909116046122355760ff81166000908152600760209081526040909120845161221892860190613807565b50506006805460ff8082166001011660ff1990911617905561223f565b6001016121b5565b505b5050565b6000546001600160a01b031681565b80600c836040516122639190615188565b9081526020016040518091039020600082015181600001908051906020019061228d929190613807565b5060208281015180516122a69260018501920190613807565b50604082015180516122c2916002840191602090910190613807565b5090505060006122d284846131b7565b90506000811215612318576000848152600b60209081526040822080546001810180835591845292829020865191936123119391019190870190613807565b505061073f565b6000848152600b6020526040902080548491908390811061233557fe5b906000526020600020019080519060200190612352929190613807565b5050505050565b6060600b6000838152602001908152602001600020805480602002602001604051908101604052809291908181526020016000905b82821015610d095760008481526020908190208301805460408051601f60026000196101006001871615020190941693909304928301859004850281018501909152818152928301828280156124255780601f106123fa57610100808354040283529160200191612425565b820191906000526020600020905b81548152906001019060200180831161240857829003601f168201915b50505050508152602001906001019061238e565b60608161244581612aa1565b6124615760405162461bcd60e51b8152600401610532906152ff565b6000838152600f6020908152604080832080548251818502810185019093528083529193909284015b8282101561257c57838290600052602060002090600402016040518060800160405290816000820154815260200160018201548152602001600282018054600181600116156101000203166002900480601f01602080910402602001604051908101604052809291908181526020018280546001816001161561010002031660029004801561255a5780601f1061252f5761010080835404028352916020019161255a565b820191906000526020600020905b81548152906001019060200180831161253d57829003601f168201915b505050505081526020016003820154815250508152602001906001019061248a565b5050505091505b50919050565b612591613b5a565b6000828152600a60209081526040918290208251815460026001821615610100026000190190911604601f8101849004909302810160c090810190945260a0810183815290939192849284919084018282801561262f5780601f106126045761010080835404028352916020019161262f565b820191906000526020600020905b81548152906001019060200180831161261257829003601f168201915b50505050508152602001600182018054600181600116156101000203166002900480601f0160208091040260200160405190810160405280929190818152602001828054600181600116156101000203166002900480156126d15780601f106126a6576101008083540402835291602001916126d1565b820191906000526020600020905b8154815290600101906020018083116126b457829003601f168201915b5050509183525050600282810180546040805160206001841615610100026000190190931694909404601f810183900483028501830190915280845293810193908301828280156127635780601f1061273857610100808354040283529160200191612763565b820191906000526020600020905b81548152906001019060200180831161274657829003601f168201915b505050918352505060038201805460408051602060026001851615610100026000190190941693909304601f81018490048402820184019092528181529382019392918301828280156127f75780601f106127cc576101008083540402835291602001916127f7565b820191906000526020600020905b8154815290600101906020018083116127da57829003601f168201915b505050918352505060048201805460408051602060026001851615610100026000190190941693909304601f810184900484028201840190925281815293820193929183018282801561288b5780601f106128605761010080835404028352916020019161288b565b820191906000526020600020905b81548152906001019060200180831161286e57829003601f168201915b5050505050815250509050919050565b80602001516128a981612aa1565b6128c55760405162461bcd60e51b8152600401610532906152ff565b60006128d0836134ed565b905060001981106128f35760405162461bcd60e51b81526004016105329061526f565b602080840180516000908152600e8352604080822080546001818101808455928552938690208951600490920201908155935192840192909255860151805191938793926129479260028501920190613807565b506060820151816003015550505061223d83610e3b565b60608161296a81612aa1565b6129865760405162461bcd60e51b8152600401610532906152ff565b6000838152600e6020908152604080832080548251818502810185019093528083529193909284015b8282101561257c57838290600052602060002090600402016040518060800160405290816000820154815260200160018201548152602001600282018054600181600116156101000203166002900480601f016020809104026020016040519081016040528092919081815260200182805460018160011615610100020316600290048015612a7f5780601f10612a5457610100808354040283529160200191612a7f565b820191906000526020600020905b815481529060010190602001808311612a6257829003601f168201915b50505050508152602001600382015481525050815260200190600101906129af565b60008181526001602052604081205460ff1680610f80575050600090815260036020526040902054151590565b6000828152600a60209081526040909120825180518493612af3928492910190613807565b506020828101518051612b0c9260018501920190613807565b5060408201518051612b28916002840191602090910190613807565b5060608201518051612b44916003840191602090910190613807565b5060808201518051612352916004840191602090910190613807565b606080600b600084815260200190815260200160002080549050604051908082528060200260200182016040528015612bb357816020015b612ba0613b89565b815260200190600190039081612b985790505b50905060005b6000848152600b6020526040902054811015612dfb576000848152600b602052604090208054600c919083908110612bed57fe5b90600052602060002001604051612c049190615194565b9081526040805160209281900383018120805460026001821615610100026000190190911604601f81018590049094028201608090810190935260608201848152919390928492918491840182828015612c9f5780601f10612c7457610100808354040283529160200191612c9f565b820191906000526020600020905b815481529060010190602001808311612c8257829003601f168201915b50505050508152602001600182018054600181600116156101000203166002900480601f016020809104026020016040519081016040528092919081815260200182805460018160011615610100020316600290048015612d415780601f10612d1657610100808354040283529160200191612d41565b820191906000526020600020905b815481529060010190602001808311612d2457829003601f168201915b5050509183525050600282810180546040805160206001841615610100026000190190931694909404601f81018390048302850183019091528084529381019390830182828015612dd35780601f10612da857610100808354040283529160200191612dd3565b820191906000526020600020905b815481529060010190602001808311612db657829003601f168201915b505050505081525050828281518110612de857fe5b6020908102919091010152600101612bb9565b5092915050565b612e0a613b89565b600c82604051612e1a9190615188565b9081526040805160209281900383018120805460026001821615610100026000190190911604601f81018590049094028201608090810190935260608201848152919390928492918491840182828015612eb55780601f10612e8a57610100808354040283529160200191612eb5565b820191906000526020600020905b815481529060010190602001808311612e9857829003601f168201915b50505050508152602001600182018054600181600116156101000203166002900480601f016020809104026020016040519081016040528092919081815260200182805460018160011615610100020316600290048015612f575780601f10612f2c57610100808354040283529160200191612f57565b820191906000526020600020905b815481529060010190602001808311612f3a57829003601f168201915b5050509183525050600282810180546040805160206001841615610100026000190190931694909404601f8101839004830285018301909152808452938101939083018282801561288b5780601f106128605761010080835404028352916020019161288b565b612fc6613a75565b601060008381526020019081526020016000206040518060800160405290816000820154815260200160018201548152602001600282018054600181600116156101000203166002900480601f0160208091040260200160405190810160405280929190818152602001828054600181600116156101000203166002900480156130915780601f1061306657610100808354040283529160200191613091565b820191906000526020600020905b81548152906001019060200180831161307457829003601f168201915b505050505081526020016003820154815250509050919050565b6000546060906001600160a01b031633146130d85760405162461bcd60e51b81526004016105329061529f565b600d805480602002602001604051908101604052809291908181526020018280548015611d655760200282019190600052602060002090815481526020019060010190808311611d51575050505050905090565b600082815260016020526040902054829060ff1661315c5760405162461bcd60e51b81526004016105329061522f565b600082815260036020526040902054156131885760405162461bcd60e51b81526004016105329061521f565b506000828152600260209081526040808320805460018101825590845282842001849055928252600390522055565b6000805b6000848152600b60205260409020546001600160801b03821610156132c1576131e38361372c565b6000858152600b6020526040902080546132a391906001600160801b03851690811061320b57fe5b600091825260209182902001805460408051601f60026000196101006001871615020190941693909304928301859004850281018501909152818152928301828280156132995780601f1061326e57610100808354040283529160200191613299565b820191906000526020600020905b81548152906001019060200180831161327c57829003601f168201915b505050505061372c565b14156132b9576001600160801b03169050610f80565b6001016131bb565b506000199392505050565b6000805b600d548110156133085782600d82815481106132e857fe5b90600052602060002001541415613300579050610d10565b6001016132d0565b5060001992915050565b600654600090610100900460ff1661332983613333565b60ff161092915050565b60008061333f8361372c565b905060005b60065460ff610100909104811690821610156134135760ff811660009081526007602052604090205460026000196101006001841615020190911604158015906133fd575060ff81166000908152600760209081526040918290208054835160026001831615610100026000190190921691909104601f810184900484028201840190945283815285936133fb939192918301828280156132995780601f1061326e57610100808354040283529160200191613299565b145b1561340b579150610d109050565b600101613344565b5060ff9392505050565b6000805b60055481101561330857826005828154811061343957fe5b90600052602060002001541415613451579050610d10565b600101613421565b600060ff613467848461346f565b109392505050565b6000805b6008846040516134839190615188565b9081526040519081900360200190205460ff82161015613413576134a68361372c565b6134d56008866040516134b99190615188565b90815260200160405180910390208360ff168154811061320b57fe5b14156134e55760ff169050610f80565b600101613473565b600081602001516134fd81612aa1565b6135195760405162461bcd60e51b8152600401610532906152ff565b60005b6020808501516000908152600f90915260409020548110156132c15761357184600f600087602001518152602001908152602001600020838154811061355e57fe5b906000526020600020906004020161375c565b1561357d579150612583565b60010161351c565b8161358f81612aa1565b6135ab5760405162461bcd60e51b8152600401610532906152ff565b600182015b6000848152600f602052604090205481101561366a576000848152600f602052604090208054829081106135e057fe5b9060005260206000209060040201600f6000868152602001908152602001600020600183038154811061360f57fe5b9060005260206000209060040201600082015481600001556001820154816001015560028201816002019080546001816001161561010002031660029004613658929190613998565b506003918201549101556001016135b0565b506000838152600f6020526040902080549061073f906000198301613baa565b6000818152601060205260408120546136b55760405162461bcd60e51b81526004016105329061525f565b6000828152601060205260408120905b60018201546000908152600f60205260409020548110156132c15783600f600084600101548152602001908152602001600020828154811061370357fe5b9060005260206000209060040201600001541415613724579150610d109050565b6001016136c5565b60008160405160200161373f9190615188565b604051602081830303815290604052805190602001209050919050565b80548251600091148015613777575081600101548360200151145b80156137ed5750600282810180546040805160206001841615610100026000190190931694909404601f81018390048302850183019091528084526137de9392918301828280156132995780601f1061326e57610100808354040283529160200191613299565b6137eb846040015161372c565b145b8015613800575081600301548360600151145b9392505050565b828054600181600116156101000203166002900490600052602060002090601f016020900481019282601f1061384857805160ff1916838001178555613875565b82800160010185558215613875579182015b8281111561387557825182559160200191906001019061385a565b50613881929150613bd6565b5090565b8280548282559060005260206000209081019282156138d2579160200282015b828111156138d257825180516138c2918491602090910190613807565b50916020019190600101906138a5565b50613881929150613bf0565b82600281019282156138d2579160200282015b828111156138d2578251805161390e918491602090910190613807565b50916020019190600101906138f1565b82805482825590600052602060002090810192821561396b579160200282015b8281111561396b578251805161395b918491602090910190613885565b509160200191906001019061393e565b50613881929150613c13565b50805460008255906000526020600020908101906139959190613bf0565b50565b828054600181600116156101000203166002900490600052602060002090601f016020900481019282601f106139d15780548555613875565b8280016001018555821561387557600052602060002091601f016020900482015b828111156138755782548255916001019190600101906139f2565b50805460018160011615610100020316600290046000825580601f10613a335750613995565b601f0160209004906000526020600020908101906139959190613bd6565b81548183558181111561223d5760008381526020902061223d918101908301613bf0565b6040805160808101825260008082526020820181905260609282018390529181019190915290565b60405180610160016040528060608152602001606081526020016060815260200160608152602001613acd613c36565b81526020016060815260200160608152602001606081526020016060815260200160608152602001606081525090565b828054828255906000526020600020908101928215613875576000526020600020918201828111156138755782548255916001019190600101906139f2565b50805460008255906000526020600020908101906139959190613bd6565b6040518060a0016040528060608152602001606081526020016060815260200160608152602001606081525090565b60405180606001604052806060815260200160608152602001606081525090565b81548183558181111561223d5760040281600402836000526020600020918201910161223d9190613c5d565b61155f91905b808211156138815760008155600101613bdc565b61155f91905b80821115613881576000613c0a8282613a0d565b50600101613bf6565b61155f91905b80821115613881576000613c2d8282613977565b50600101613c19565b60405180604001604052806002905b6060815260200190600190039081613c455790505090565b61155f91905b8082111561388157600080825560018201819055613c846002830182613a0d565b5060006003820155600401613c63565b8035610f8081615480565b600082601f830112613cb057600080fd5b8135613cc3613cbe82615399565b615373565b81815260209384019390925082018360005b83811015613d015781358601613ceb8882613d5d565b8452506020928301929190910190600101613cd5565b5050505092915050565b600082601f830112613d1c57600080fd5b6002613d2a613cbe826153b9565b9150818360005b83811015613d015781358601613d478882613e2d565b8452506020928301929190910190600101613d31565b600082601f830112613d6e57600080fd5b8135613d7c613cbe82615399565b81815260209384019390925082018360005b83811015613d015781358601613da48882613e2d565b8452506020928301929190910190600101613d8e565b600082601f830112613dcb57600080fd5b8135613dd9613cbe82615399565b81815260209384019390925082018360005b83811015613d015781358601613e018882613e2d565b8452506020928301929190910190600101613deb565b8035610f8081615494565b8051610f8081615494565b600082601f830112613e3e57600080fd5b8135613e4c613cbe826153d6565b91508082526020830160208301858383011115613e6857600080fd5b613e7383828461543e565b50505092915050565b600060808284031215613e8e57600080fd5b613e986080615373565b90506000613ea68484613e17565b8252506020613eb784848301613e17565b60208301525060408201356001600160401b03811115613ed657600080fd5b613ee284828501613e2d565b6040830152506060613ef684828501613e17565b60608301525092915050565b600060608284031215613f1457600080fd5b613f1e6060615373565b905081356001600160401b03811115613f3657600080fd5b613f4284828501613e2d565b82525060208201356001600160401b03811115613f5e57600080fd5b613f6a84828501613e2d565b60208301525060408201356001600160401b03811115613f8957600080fd5b613f9584828501613e2d565b60408301525092915050565b60006101608284031215613fb457600080fd5b613fbf610160615373565b905081356001600160401b03811115613fd757600080fd5b613fe384828501613e2d565b82525060208201356001600160401b03811115613fff57600080fd5b61400b84828501613e2d565b60208301525060408201356001600160401b0381111561402a57600080fd5b61403684828501613e2d565b60408301525060608201356001600160401b0381111561405557600080fd5b61406184828501613e2d565b60608301525060808201356001600160401b0381111561408057600080fd5b61408c84828501613d0b565b60808301525060a08201356001600160401b038111156140ab57600080fd5b6140b784828501613e2d565b60a08301525060c08201356001600160401b038111156140d657600080fd5b6140e284828501613e2d565b60c08301525060e08201356001600160401b0381111561410157600080fd5b61410d84828501613e2d565b60e0830152506101008201356001600160401b0381111561412d57600080fd5b61413984828501613e2d565b610100830152506101208201356001600160401b0381111561415a57600080fd5b61416684828501613d5d565b610120830152506101408201356001600160401b0381111561418757600080fd5b61419384828501613c9f565b6101408301525092915050565b600060a082840312156141b257600080fd5b6141bc60a0615373565b905081356001600160401b038111156141d457600080fd5b6141e084828501613e2d565b82525060208201356001600160401b038111156141fc57600080fd5b61420884828501613e2d565b60208301525060408201356001600160401b0381111561422757600080fd5b61423384828501613e2d565b60408301525060608201356001600160401b0381111561425257600080fd5b61425e84828501613e2d565b60608301525060808201356001600160401b0381111561427d57600080fd5b61428984828501613e2d565b60808301525092915050565b6000602082840312156142a757600080fd5b60006142b38484613c94565b949350505050565b6000602082840312156142cd57600080fd5b60006142b38484613e17565b6000602082840312156142eb57600080fd5b60006142b38484613e22565b6000806040838503121561430a57600080fd5b60006143168585613e17565b925050602061432785828601613e17565b9150509250929050565b600080600080600080600060e0888a03121561434c57600080fd5b60006143588a8a613e17565b97505060206143698a828b01613e17565b96505060408801356001600160401b0381111561438557600080fd5b6143918a828b01613e2d565b95505060608801356001600160401b038111156143ad57600080fd5b6143b98a828b01613dba565b94505060808801356001600160401b038111156143d557600080fd5b6143e18a828b01613dba565b93505060a08801356001600160401b038111156143fd57600080fd5b6144098a828b01613e2d565b92505060c061441a8a828b01613e17565b91505092959891949750929550565b60008060006060848603121561443e57600080fd5b600061444a8686613e17565b93505060208401356001600160401b0381111561446657600080fd5b61447286828701613e2d565b92505060408401356001600160401b0381111561448e57600080fd5b61449a86828701613f02565b9150509250925092565b600080604083850312156144b757600080fd5b60006144c38585613e17565b92505060208301356001600160401b038111156144df57600080fd5b614327858286016141a0565b6000602082840312156144fd57600080fd5b81356001600160401b0381111561451357600080fd5b6142b384828501613e2d565b6000806040838503121561453257600080fd5b82356001600160401b0381111561454857600080fd5b61455485828601613e2d565b92505060208301356001600160401b0381111561457057600080fd5b61432785828601613e2d565b60008060006060848603121561459157600080fd5b83356001600160401b038111156145a757600080fd5b6145b386828701613e2d565b93505060208401356001600160401b038111156145cf57600080fd5b6145db86828701613e2d565b92505060408401356001600160401b038111156145f757600080fd5b61449a86828701613e2d565b60006020828403121561461557600080fd5b81356001600160401b0381111561462b57600080fd5b6142b384828501613e7c565b6000806040838503121561464a57600080fd5b82356001600160401b0381111561466057600080fd5b61431685828601613fa1565b60006138008383614854565b600061468483836149e1565b505060200190565b60006138008383614a19565b60006138008383614ebf565b60006138008383614f1b565b60006138008383615093565b6146c581615422565b82525050565b60006146d68261540f565b6146e08185615419565b9350836020820285016146f2856153fd565b8060005b8581101561472c578484038952815161470f858261466c565b945061471a836153fd565b60209a909a01999250506001016146f6565b5091979650505050505050565b60006147448261540f565b61474e8185615419565b9350614759836153fd565b8060005b838110156147875781516147718882614678565b975061477c836153fd565b92505060010161475d565b509495945050505050565b600061479d82615413565b6147a78185610d10565b9350836020820285016147b98561155f565b8060005b8581101561472c57848403895281516147d6858261468c565b94506147e1836153fd565b60209a909a01999250506001016147bd565b60006147fe8261540f565b6148088185615419565b93508360208202850161481a856153fd565b8060005b8581101561472c5784840389528151614837858261468c565b9450614842836153fd565b60209a909a019992505060010161481e565b600061485f8261540f565b6148698185615419565b93508360208202850161487b856153fd565b8060005b8581101561472c5784840389528151614898858261468c565b94506148a3836153fd565b60209a909a019992505060010161487f565b60006148c08261540f565b6148ca8185615419565b9350836020820285016148dc856153fd565b8060005b8581101561472c57848403895281516148f98582614698565b9450614904836153fd565b60209a909a01999250506001016148e0565b60006149218261540f565b61492b8185615419565b93508360208202850161493d856153fd565b8060005b8581101561472c578484038952815161495a85826146a4565b9450614965836153fd565b60209a909a0199925050600101614941565b60006149828261540f565b61498c8185615419565b93508360208202850161499e856153fd565b8060005b8581101561472c57848403895281516149bb85826146b0565b94506149c6836153fd565b60209a909a01999250506001016149a2565b6146c58161542d565b6146c58161155f565b60006149f58261540f565b6149ff8185610d10565b9350614a0f81856020860161544a565b9290920192915050565b6000614a248261540f565b614a2e8185615419565b9350614a3e81856020860161544a565b614a4781615476565b9093019392505050565b600081546001811660008114614a6e5760018114614a9157614ad0565b607f6002830416614a7f8187610d10565b60ff1984168152955085019250614ad0565b60028204614a9f8187610d10565b9550614aaa85615403565b60005b82811015614ac957815488820152600190910190602001614aad565b5050850192505b505092915050565b6000614ae5602183615419565b7f5468617420656d706c6f79656520616c726561647920776f726b7320746865728152606560f81b602082015260400192915050565b6000614b28602983615419565b7f596f75206d7573742062652061206465616c657273686970206f776e657220748152686f20646f207468697360b81b602082015260400192915050565b6000614b73601e83615419565b7f54686174207375627365727669636520616c7265616479206578697374730000815260200192915050565b6000614bac602183615419565b7f4e6f206170706c69636174696f6e2065786973747320666f72207468617420698152601960fa1b602082015260400192915050565b6000614bef602183615419565b7f5573657220646f6573206e6f74206861766520616e206170706f696e746d656e8152601d60fa1b602082015260400192915050565b6000614c32601f83615419565b7f54686174206170706f696e746d656e7420646f6573206e6f7420657869737400815260200192915050565b6000614c6b602183615419565b7f4d6178696d756d207375627365727669636520616d6f756e74207265616368658152601960fa1b602082015260400192915050565b6000614cae603383615419565b7f4e756d626572206f6620737562736572766963657320646f6573206e6f74206d8152720c2e8c6d040e6cae4ecd2c6ca40d8cadccee8d606b1b602082015260400192915050565b6000614d03601583615419565b742cb7ba9030b932903737ba103a34329037bbb732b960591b815260200192915050565b6000614d34602c83615419565b7f54686174207375627365727669636520646f65736e7420657869737420696e2081526b1d1a1a5cc818dbdb9d195e1d60a21b602082015260400192915050565b6000614d82601b83615419565b7f54686174207365727669636520646f6573206e6f742065786973740000000000815260200192915050565b6000614dbb602283615419565b7f54686174206164647265737320697320616c7265616479207265676973746572815261195960f21b602082015260400192915050565b6000614dff601b83615419565b7f54686174207365727669636520616c7265616479206578697374730000000000815260200192915050565b6000614e38602883615419565b7f54686572652061726520746865206d6178696d756d206e756d626572206f6620815267736572766963657360c01b602082015260400192915050565b6000614e82602883615419565b7f596f75206d7573742062652061207665726966696564206465616c657220746f81526720646f207468697360c01b602082015260400192915050565b80516000906080840190614ed385826149e1565b506020830151614ee660208601826149e1565b5060408301518482036040860152614efe8282614a19565b9150506060830151614f1360608601826149e1565b509392505050565b8051606080845260009190840190614f338282614a19565b91505060208301518482036020860152614f4d8282614a19565b91505060408301518482036040860152614f678282614a19565b95945050505050565b805161016080845260009190840190614f898282614a19565b91505060208301518482036020860152614fa38282614a19565b91505060408301518482036040860152614fbd8282614a19565b91505060608301518482036060860152614fd78282614a19565b91505060808301518482036080860152614ff18282614792565b91505060a083015184820360a086015261500b8282614a19565b91505060c083015184820360c08601526150258282614a19565b91505060e083015184820360e086015261503f8282614a19565b91505061010083015184820361010086015261505b8282614a19565b9150506101208301518482036101208601526150778282614854565b915050610140830151848203610140860152614f6782826146cb565b805160009060a08401906150a785826149e1565b50602083015184820360208601526150bf8282614854565b915050604083015184820360408601526150d98282614854565b915050606083015184820360608601526150f38282614a19565b9150506080830151614f1360808601826149e1565b805160a0808452600091908401906151208282614a19565b9150506020830151848203602086015261513a8282614a19565b915050604083015184820360408601526151548282614a19565b9150506060830151848203606086015261516e8282614a19565b91505060808301518482036080860152614f678282614a19565b600061380082846149ea565b60006138008284614a51565b60208101610f8082846146bc565b602080825281016138008184614739565b6020808252810161380081846147f3565b6020808252810161380081846148b5565b602080825281016138008184614916565b602080825281016138008184614977565b60208101610f8082846149d8565b60208101610f8082846149e1565b60208082528101610f8081614ad8565b60208082528101610f8081614b1b565b60208082528101610f8081614b66565b60208082528101610f8081614b9f565b60208082528101610f8081614be2565b60208082528101610f8081614c25565b60208082528101610f8081614c5e565b60208082528101610f8081614ca1565b60208082528101610f8081614cf6565b60208082528101610f8081614d27565b60208082528101610f8081614d75565b60208082528101610f8081614dae565b60208082528101610f8081614df2565b60208082528101610f8081614e2b565b60208082528101610f8081614e75565b602080825281016138008184614ebf565b602080825281016138008184614f1b565b602080825281016138008184614f70565b604080825281016153538185614f70565b905061380060208301846149e1565b602080825281016138008184615108565b6040518181016001600160401b038111828210171561539157600080fd5b604052919050565b60006001600160401b038211156153af57600080fd5b5060209081020190565b60006001600160401b038211156153cf57600080fd5b5060200290565b60006001600160401b038211156153ec57600080fd5b506020601f91909101601f19160190565b60200190565b60009081526020902090565b5190565b50600290565b90815260200190565b6000610f8082615432565b151590565b6001600160a01b031690565b82818337506000910152565b60005b8381101561546557818101518382015260200161544d565b8381111561073f5750506000910152565b601f01601f191690565b61548981615422565b811461399557600080fd5b6154898161155f56fea365627a7a72315820c5291a39528f9cd3984fe5b5ba5d1999c84d1faad45b132ef200c689c4f76c3c6c6578706572696d656e74616cf564736f6c634300050c0040",
  "source": "pragma solidity ^0.5.11;\npragma experimental ABIEncoderV2;\n\nimport \"./UserContract.sol\";\n\ncontract AppointmentHandler is UserContract {\n\n    struct Appointment{\n        bytes32 userId;\n        bytes32 dealerId;\n        string carPlate;\n        int time; //Milliseconds\n    }\n\n    mapping(bytes32 => Appointment[]) private dealerAppointmentHistory;\n    mapping(bytes32 => Appointment[]) private activeAppointments;\n    mapping(bytes32 => Appointment) private userAppointment;\n\n    function isSameAppointment(Appointment memory a, Appointment storage o) internal view returns (bool) {\n        return a.userId == o.userId && a.dealerId == o.dealerId && encode(a.carPlate) == encode(o.carPlate) && a.time == o.time;\n    }\n\n    function getIndexOfAppointment(Appointment memory appointment) internal verified(appointment.dealerId) view returns(uint){\n        for(uint i = 0; i < activeAppointments[appointment.dealerId].length; i++){\n            if(isSameAppointment(appointment,activeAppointments[appointment.dealerId][i])){\n                return i;\n            }\n        }\n        return uint(-1);\n    }\n\n    function getIndexOfUserAppointment(bytes32 userId) internal view returns(uint) {\n        require(userAppointment[userId].userId != 0,\"User does not have an appointment\");\n        Appointment storage currentAp = userAppointment[userId];\n        for(uint i = 0; i < activeAppointments[currentAp.dealerId].length; i++){\n            if(activeAppointments[currentAp.dealerId][i].userId == userId){\n                return i;\n            }\n        }\n        return uint(-1);\n    }\n\n    function createAppointment(Appointment memory appointment) public verified(appointment.dealerId) {\n        bytes32 userId = appointment.userId;\n        if(userAppointment[userId].userId != 0){\n            uint aIndex = getIndexOfUserAppointment(appointment.userId);\n            Appointment memory currentAp = userAppointment[appointment.userId];\n            delete activeAppointments[currentAp.dealerId][aIndex];\n            activeAppointments[appointment.dealerId].push(appointment);\n        }\n        else{\n            activeAppointments[appointment.dealerId].push(appointment);\n        }\n        userAppointment[userId] = appointment;\n    }\n\n    function completeAppointment(Appointment memory appointment) public verified(appointment.dealerId) {\n        uint aIndex = getIndexOfAppointment(appointment);\n        require(aIndex < uint(-1),\"That appointment does not exist\");\n        //TODO Change time to completed time (Need date time library or smth)\n        dealerAppointmentHistory[appointment.dealerId].push(appointment);\n        cancelAppointment(appointment);\n    }\n\n    function cancelAppointment(Appointment memory appointment) public verified(appointment.dealerId) {\n        uint aIndex = getIndexOfAppointment(appointment);\n        require(aIndex < uint(-1),\"That appointment does not exist\");\n        removeAppointment(appointment.dealerId,aIndex);\n        userAppointment[appointment.userId] = Appointment(0,0,\"\",0);\n    }\n\n    function removeAppointment(bytes32 dealerId, uint index) internal verified(dealerId) {\n        for(uint i = index + 1; i < activeAppointments[dealerId].length; i++){\n            activeAppointments[dealerId][i-1] = activeAppointments[dealerId][i];\n        }\n        activeAppointments[dealerId].length--;\n    }\n\n    function getAppointmentHistory(bytes32 dealerId) public view verified(dealerId) returns (Appointment[] memory){\n        return dealerAppointmentHistory[dealerId];\n    }\n\n    function getPendingAppointments(bytes32 dealerId) public view verified(dealerId) returns (Appointment[] memory){\n        return activeAppointments[dealerId];\n    }\n\n    function getUserAppointment(bytes32 userId) public view returns (Appointment memory) {\n        return userAppointment[userId];\n    }\n}",
  "sourcePath": "/home/brandon/Documents/_Important/Uni/Blockchain/Final project/contracts/AppointmentHandler.sol",
  "compiler": {
    "name": "solc",
    "version": "0.5.12+commit.7709ece9.Emscripten.clang"
  },
  "schemaVersion": "3.0.19",
  "updatedAt": "2019-11-29T18:55:22.406Z",
  "networkType": "ethereum",
  "devdoc": {
    "methods": {}
  },
  "userdoc": {
    "methods": {}
  }
}