{
  "contractName": "AppointmentHandler",
  "abi": [
    {
      "anonymous": false,
      "inputs": [
        {
          "components": [
            {
              "internalType": "string",
              "name": "dealerName",
              "type": "string"
            },
            {
              "internalType": "string",
              "name": "firstName",
              "type": "string"
            },
            {
              "internalType": "string",
              "name": "lastName",
              "type": "string"
            },
            {
              "internalType": "string",
              "name": "addr",
              "type": "string"
            },
            {
              "internalType": "string[2]",
              "name": "location",
              "type": "string[2]"
            },
            {
              "internalType": "string",
              "name": "phoneNo",
              "type": "string"
            },
            {
              "internalType": "string",
              "name": "bestSeller",
              "type": "string"
            },
            {
              "internalType": "string",
              "name": "promotion",
              "type": "string"
            },
            {
              "internalType": "string",
              "name": "otherServices",
              "type": "string"
            },
            {
              "internalType": "string[]",
              "name": "availableServices",
              "type": "string[]"
            },
            {
              "internalType": "string[][]",
              "name": "availableSubServices",
              "type": "string[][]"
            }
          ],
          "indexed": false,
          "internalType": "struct DealerContract.DealerInfo",
          "name": "info",
          "type": "tuple"
        },
        {
          "indexed": false,
          "internalType": "bytes32",
          "name": "id",
          "type": "bytes32"
        }
      ],
      "name": "CreateDealerApplication",
      "type": "event"
    },
    {
      "constant": false,
      "inputs": [
        {
          "internalType": "bytes32",
          "name": "dealerId",
          "type": "bytes32"
        },
        {
          "internalType": "bytes32",
          "name": "adr",
          "type": "bytes32"
        }
      ],
      "name": "addDealerEmployee",
      "outputs": [],
      "payable": false,
      "stateMutability": "nonpayable",
      "type": "function"
    },
    {
      "constant": false,
      "inputs": [
        {
          "internalType": "string",
          "name": "serviceName",
          "type": "string"
        }
      ],
      "name": "addService",
      "outputs": [],
      "payable": false,
      "stateMutability": "nonpayable",
      "type": "function"
    },
    {
      "constant": false,
      "inputs": [
        {
          "internalType": "string",
          "name": "serviceName",
          "type": "string"
        },
        {
          "internalType": "string",
          "name": "subServiceName",
          "type": "string"
        }
      ],
      "name": "addSubService",
      "outputs": [],
      "payable": false,
      "stateMutability": "nonpayable",
      "type": "function"
    },
    {
      "constant": false,
      "inputs": [
        {
          "internalType": "bytes32",
          "name": "adr",
          "type": "bytes32"
        }
      ],
      "name": "approveApplication",
      "outputs": [],
      "payable": false,
      "stateMutability": "nonpayable",
      "type": "function"
    },
    {
      "constant": false,
      "inputs": [
        {
          "components": [
            {
              "internalType": "string",
              "name": "dealerName",
              "type": "string"
            },
            {
              "internalType": "string",
              "name": "firstName",
              "type": "string"
            },
            {
              "internalType": "string",
              "name": "lastName",
              "type": "string"
            },
            {
              "internalType": "string",
              "name": "addr",
              "type": "string"
            },
            {
              "internalType": "string[2]",
              "name": "location",
              "type": "string[2]"
            },
            {
              "internalType": "string",
              "name": "phoneNo",
              "type": "string"
            },
            {
              "internalType": "string",
              "name": "bestSeller",
              "type": "string"
            },
            {
              "internalType": "string",
              "name": "promotion",
              "type": "string"
            },
            {
              "internalType": "string",
              "name": "otherServices",
              "type": "string"
            },
            {
              "internalType": "string[]",
              "name": "availableServices",
              "type": "string[]"
            },
            {
              "internalType": "string[][]",
              "name": "availableSubServices",
              "type": "string[][]"
            }
          ],
          "internalType": "struct DealerContract.DealerInfo",
          "name": "info",
          "type": "tuple"
        },
        {
          "internalType": "bytes32",
          "name": "id",
          "type": "bytes32"
        }
      ],
      "name": "createDealerApplication",
      "outputs": [],
      "payable": false,
      "stateMutability": "nonpayable",
      "type": "function"
    },
    {
      "constant": false,
      "inputs": [
        {
          "internalType": "string",
          "name": "serviceName",
          "type": "string"
        }
      ],
      "name": "deleteService",
      "outputs": [],
      "payable": false,
      "stateMutability": "nonpayable",
      "type": "function"
    },
    {
      "constant": false,
      "inputs": [
        {
          "internalType": "string",
          "name": "serviceName",
          "type": "string"
        },
        {
          "internalType": "string",
          "name": "subServiceName",
          "type": "string"
        }
      ],
      "name": "deleteSubService",
      "outputs": [],
      "payable": false,
      "stateMutability": "nonpayable",
      "type": "function"
    },
    {
      "constant": false,
      "inputs": [
        {
          "internalType": "bytes32",
          "name": "userId",
          "type": "bytes32"
        },
        {
          "internalType": "string",
          "name": "noPlate",
          "type": "string"
        },
        {
          "components": [
            {
              "internalType": "string",
              "name": "brand",
              "type": "string"
            },
            {
              "internalType": "string",
              "name": "model",
              "type": "string"
            },
            {
              "internalType": "string",
              "name": "year",
              "type": "string"
            }
          ],
          "internalType": "struct UserContract.CarInfo",
          "name": "carInfo",
          "type": "tuple"
        }
      ],
      "name": "editCarDetails",
      "outputs": [],
      "payable": false,
      "stateMutability": "nonpayable",
      "type": "function"
    },
    {
      "constant": false,
      "inputs": [
        {
          "components": [
            {
              "internalType": "string",
              "name": "dealerName",
              "type": "string"
            },
            {
              "internalType": "string",
              "name": "firstName",
              "type": "string"
            },
            {
              "internalType": "string",
              "name": "lastName",
              "type": "string"
            },
            {
              "internalType": "string",
              "name": "addr",
              "type": "string"
            },
            {
              "internalType": "string[2]",
              "name": "location",
              "type": "string[2]"
            },
            {
              "internalType": "string",
              "name": "phoneNo",
              "type": "string"
            },
            {
              "internalType": "string",
              "name": "bestSeller",
              "type": "string"
            },
            {
              "internalType": "string",
              "name": "promotion",
              "type": "string"
            },
            {
              "internalType": "string",
              "name": "otherServices",
              "type": "string"
            },
            {
              "internalType": "string[]",
              "name": "availableServices",
              "type": "string[]"
            },
            {
              "internalType": "string[][]",
              "name": "availableSubServices",
              "type": "string[][]"
            }
          ],
          "internalType": "struct DealerContract.DealerInfo",
          "name": "info",
          "type": "tuple"
        },
        {
          "internalType": "bytes32",
          "name": "id",
          "type": "bytes32"
        }
      ],
      "name": "editDealerInfo",
      "outputs": [],
      "payable": false,
      "stateMutability": "nonpayable",
      "type": "function"
    },
    {
      "constant": false,
      "inputs": [
        {
          "internalType": "string",
          "name": "oldName",
          "type": "string"
        },
        {
          "internalType": "string",
          "name": "newName",
          "type": "string"
        }
      ],
      "name": "editServiceName",
      "outputs": [],
      "payable": false,
      "stateMutability": "nonpayable",
      "type": "function"
    },
    {
      "constant": false,
      "inputs": [
        {
          "internalType": "string",
          "name": "serviceName",
          "type": "string"
        },
        {
          "internalType": "string",
          "name": "oldName",
          "type": "string"
        },
        {
          "internalType": "string",
          "name": "newName",
          "type": "string"
        }
      ],
      "name": "editSubServiceName",
      "outputs": [],
      "payable": false,
      "stateMutability": "nonpayable",
      "type": "function"
    },
    {
      "constant": false,
      "inputs": [
        {
          "internalType": "bytes32",
          "name": "userId",
          "type": "bytes32"
        },
        {
          "components": [
            {
              "internalType": "string",
              "name": "firstName",
              "type": "string"
            },
            {
              "internalType": "string",
              "name": "lastName",
              "type": "string"
            },
            {
              "internalType": "string",
              "name": "adr",
              "type": "string"
            },
            {
              "internalType": "string",
              "name": "phNo",
              "type": "string"
            },
            {
              "internalType": "string",
              "name": "email",
              "type": "string"
            }
          ],
          "internalType": "struct UserContract.UserInfo",
          "name": "info",
          "type": "tuple"
        }
      ],
      "name": "editUserInfo",
      "outputs": [],
      "payable": false,
      "stateMutability": "nonpayable",
      "type": "function"
    },
    {
      "constant": true,
      "inputs": [],
      "name": "getAllDealerApplications",
      "outputs": [
        {
          "internalType": "bytes32[]",
          "name": "",
          "type": "bytes32[]"
        }
      ],
      "payable": false,
      "stateMutability": "view",
      "type": "function"
    },
    {
      "constant": true,
      "inputs": [
        {
          "internalType": "string",
          "name": "noPlate",
          "type": "string"
        }
      ],
      "name": "getCarDetails",
      "outputs": [
        {
          "components": [
            {
              "internalType": "string",
              "name": "brand",
              "type": "string"
            },
            {
              "internalType": "string",
              "name": "model",
              "type": "string"
            },
            {
              "internalType": "string",
              "name": "year",
              "type": "string"
            }
          ],
          "internalType": "struct UserContract.CarInfo",
          "name": "",
          "type": "tuple"
        }
      ],
      "payable": false,
      "stateMutability": "view",
      "type": "function"
    },
    {
      "constant": true,
      "inputs": [
        {
          "internalType": "bytes32",
          "name": "userId",
          "type": "bytes32"
        }
      ],
      "name": "getCarPlates",
      "outputs": [
        {
          "internalType": "string[]",
          "name": "",
          "type": "string[]"
        }
      ],
      "payable": false,
      "stateMutability": "view",
      "type": "function"
    },
    {
      "constant": true,
      "inputs": [
        {
          "internalType": "bytes32",
          "name": "userId",
          "type": "bytes32"
        }
      ],
      "name": "getCars",
      "outputs": [
        {
          "components": [
            {
              "internalType": "string",
              "name": "brand",
              "type": "string"
            },
            {
              "internalType": "string",
              "name": "model",
              "type": "string"
            },
            {
              "internalType": "string",
              "name": "year",
              "type": "string"
            }
          ],
          "internalType": "struct UserContract.CarInfo[]",
          "name": "",
          "type": "tuple[]"
        }
      ],
      "payable": false,
      "stateMutability": "view",
      "type": "function"
    },
    {
      "constant": true,
      "inputs": [
        {
          "internalType": "bytes32",
          "name": "id",
          "type": "bytes32"
        }
      ],
      "name": "getDealerInfo",
      "outputs": [
        {
          "components": [
            {
              "internalType": "string",
              "name": "dealerName",
              "type": "string"
            },
            {
              "internalType": "string",
              "name": "firstName",
              "type": "string"
            },
            {
              "internalType": "string",
              "name": "lastName",
              "type": "string"
            },
            {
              "internalType": "string",
              "name": "addr",
              "type": "string"
            },
            {
              "internalType": "string[2]",
              "name": "location",
              "type": "string[2]"
            },
            {
              "internalType": "string",
              "name": "phoneNo",
              "type": "string"
            },
            {
              "internalType": "string",
              "name": "bestSeller",
              "type": "string"
            },
            {
              "internalType": "string",
              "name": "promotion",
              "type": "string"
            },
            {
              "internalType": "string",
              "name": "otherServices",
              "type": "string"
            },
            {
              "internalType": "string[]",
              "name": "availableServices",
              "type": "string[]"
            },
            {
              "internalType": "string[][]",
              "name": "availableSubServices",
              "type": "string[][]"
            }
          ],
          "internalType": "struct DealerContract.DealerInfo",
          "name": "",
          "type": "tuple"
        }
      ],
      "payable": false,
      "stateMutability": "view",
      "type": "function"
    },
    {
      "constant": true,
      "inputs": [
        {
          "internalType": "string",
          "name": "id",
          "type": "string"
        }
      ],
      "name": "getHash",
      "outputs": [
        {
          "internalType": "bytes32",
          "name": "",
          "type": "bytes32"
        }
      ],
      "payable": false,
      "stateMutability": "pure",
      "type": "function"
    },
    {
      "constant": true,
      "inputs": [
        {
          "internalType": "string",
          "name": "noPlate",
          "type": "string"
        }
      ],
      "name": "getRecords",
      "outputs": [
        {
          "components": [
            {
              "internalType": "string[]",
              "name": "services",
              "type": "string[]"
            },
            {
              "internalType": "string[]",
              "name": "subservices",
              "type": "string[]"
            },
            {
              "internalType": "string",
              "name": "comment",
              "type": "string"
            },
            {
              "internalType": "uint256",
              "name": "timeStamp",
              "type": "uint256"
            }
          ],
          "internalType": "struct UserContract.RecordInternal[]",
          "name": "",
          "type": "tuple[]"
        }
      ],
      "payable": false,
      "stateMutability": "view",
      "type": "function"
    },
    {
      "constant": true,
      "inputs": [],
      "name": "getServices",
      "outputs": [
        {
          "internalType": "string[]",
          "name": "",
          "type": "string[]"
        }
      ],
      "payable": false,
      "stateMutability": "view",
      "type": "function"
    },
    {
      "constant": true,
      "inputs": [
        {
          "internalType": "string",
          "name": "serviceName",
          "type": "string"
        }
      ],
      "name": "getSubServices",
      "outputs": [
        {
          "internalType": "string[]",
          "name": "",
          "type": "string[]"
        }
      ],
      "payable": false,
      "stateMutability": "view",
      "type": "function"
    },
    {
      "constant": true,
      "inputs": [
        {
          "internalType": "bytes32",
          "name": "userId",
          "type": "bytes32"
        }
      ],
      "name": "getUserInfo",
      "outputs": [
        {
          "components": [
            {
              "internalType": "string",
              "name": "firstName",
              "type": "string"
            },
            {
              "internalType": "string",
              "name": "lastName",
              "type": "string"
            },
            {
              "internalType": "string",
              "name": "adr",
              "type": "string"
            },
            {
              "internalType": "string",
              "name": "phNo",
              "type": "string"
            },
            {
              "internalType": "string",
              "name": "email",
              "type": "string"
            }
          ],
          "internalType": "struct UserContract.UserInfo",
          "name": "",
          "type": "tuple"
        }
      ],
      "payable": false,
      "stateMutability": "view",
      "type": "function"
    },
    {
      "constant": false,
      "inputs": [
        {
          "internalType": "bytes32",
          "name": "dealerId",
          "type": "bytes32"
        },
        {
          "internalType": "bytes32",
          "name": "id",
          "type": "bytes32"
        },
        {
          "internalType": "string",
          "name": "noPlate",
          "type": "string"
        },
        {
          "internalType": "string[]",
          "name": "services",
          "type": "string[]"
        },
        {
          "internalType": "string[]",
          "name": "subservices",
          "type": "string[]"
        },
        {
          "internalType": "string",
          "name": "comment",
          "type": "string"
        },
        {
          "internalType": "uint256",
          "name": "timeStamp",
          "type": "uint256"
        }
      ],
      "name": "insertRecord",
      "outputs": [],
      "payable": false,
      "stateMutability": "nonpayable",
      "type": "function"
    },
    {
      "constant": true,
      "inputs": [
        {
          "internalType": "bytes32",
          "name": "adr",
          "type": "bytes32"
        }
      ],
      "name": "isVerified",
      "outputs": [
        {
          "internalType": "bool",
          "name": "",
          "type": "bool"
        }
      ],
      "payable": false,
      "stateMutability": "view",
      "type": "function"
    },
    {
      "constant": true,
      "inputs": [],
      "name": "owner",
      "outputs": [
        {
          "internalType": "address",
          "name": "",
          "type": "address"
        }
      ],
      "payable": false,
      "stateMutability": "view",
      "type": "function"
    },
    {
      "constant": false,
      "inputs": [
        {
          "internalType": "bytes32",
          "name": "dealershipId",
          "type": "bytes32"
        },
        {
          "internalType": "bytes32",
          "name": "otherId",
          "type": "bytes32"
        }
      ],
      "name": "transferDealershipOwner",
      "outputs": [],
      "payable": false,
      "stateMutability": "nonpayable",
      "type": "function"
    },
    {
      "constant": false,
      "inputs": [
        {
          "internalType": "address",
          "name": "newOwner",
          "type": "address"
        }
      ],
      "name": "transferOwner",
      "outputs": [],
      "payable": false,
      "stateMutability": "nonpayable",
      "type": "function"
    },
    {
      "constant": false,
      "inputs": [
        {
          "components": [
            {
              "internalType": "bytes32",
              "name": "userId",
              "type": "bytes32"
            },
            {
              "internalType": "bytes32",
              "name": "dealerId",
              "type": "bytes32"
            },
            {
              "internalType": "string",
              "name": "carPlate",
              "type": "string"
            },
            {
              "internalType": "int256",
              "name": "time",
              "type": "int256"
            }
          ],
          "internalType": "struct AppointmentHandler.Appointment",
          "name": "appointment",
          "type": "tuple"
        }
      ],
      "name": "createAppointment",
      "outputs": [],
      "payable": false,
      "stateMutability": "nonpayable",
      "type": "function"
    },
    {
      "constant": false,
      "inputs": [
        {
          "components": [
            {
              "internalType": "bytes32",
              "name": "userId",
              "type": "bytes32"
            },
            {
              "internalType": "bytes32",
              "name": "dealerId",
              "type": "bytes32"
            },
            {
              "internalType": "string",
              "name": "carPlate",
              "type": "string"
            },
            {
              "internalType": "int256",
              "name": "time",
              "type": "int256"
            }
          ],
          "internalType": "struct AppointmentHandler.Appointment",
          "name": "appointment",
          "type": "tuple"
        }
      ],
      "name": "completeAppointment",
      "outputs": [],
      "payable": false,
      "stateMutability": "nonpayable",
      "type": "function"
    },
    {
      "constant": false,
      "inputs": [
        {
          "components": [
            {
              "internalType": "bytes32",
              "name": "userId",
              "type": "bytes32"
            },
            {
              "internalType": "bytes32",
              "name": "dealerId",
              "type": "bytes32"
            },
            {
              "internalType": "string",
              "name": "carPlate",
              "type": "string"
            },
            {
              "internalType": "int256",
              "name": "time",
              "type": "int256"
            }
          ],
          "internalType": "struct AppointmentHandler.Appointment",
          "name": "appointment",
          "type": "tuple"
        }
      ],
      "name": "cancelAppointment",
      "outputs": [],
      "payable": false,
      "stateMutability": "nonpayable",
      "type": "function"
    },
    {
      "constant": true,
      "inputs": [
        {
          "internalType": "bytes32",
          "name": "dealerId",
          "type": "bytes32"
        }
      ],
      "name": "getAppointmentHistory",
      "outputs": [
        {
          "components": [
            {
              "internalType": "bytes32",
              "name": "userId",
              "type": "bytes32"
            },
            {
              "internalType": "bytes32",
              "name": "dealerId",
              "type": "bytes32"
            },
            {
              "internalType": "string",
              "name": "carPlate",
              "type": "string"
            },
            {
              "internalType": "int256",
              "name": "time",
              "type": "int256"
            }
          ],
          "internalType": "struct AppointmentHandler.Appointment[]",
          "name": "",
          "type": "tuple[]"
        }
      ],
      "payable": false,
      "stateMutability": "view",
      "type": "function"
    },
    {
      "constant": true,
      "inputs": [
        {
          "internalType": "bytes32",
          "name": "dealerId",
          "type": "bytes32"
        }
      ],
      "name": "getPendingAppointments",
      "outputs": [
        {
          "components": [
            {
              "internalType": "bytes32",
              "name": "userId",
              "type": "bytes32"
            },
            {
              "internalType": "bytes32",
              "name": "dealerId",
              "type": "bytes32"
            },
            {
              "internalType": "string",
              "name": "carPlate",
              "type": "string"
            },
            {
              "internalType": "int256",
              "name": "time",
              "type": "int256"
            }
          ],
          "internalType": "struct AppointmentHandler.Appointment[]",
          "name": "",
          "type": "tuple[]"
        }
      ],
      "payable": false,
      "stateMutability": "view",
      "type": "function"
    },
    {
      "constant": true,
      "inputs": [
        {
          "internalType": "bytes32",
          "name": "userId",
          "type": "bytes32"
        }
      ],
      "name": "getUserAppointment",
      "outputs": [
        {
          "components": [
            {
              "internalType": "bytes32",
              "name": "userId",
              "type": "bytes32"
            },
            {
              "internalType": "bytes32",
              "name": "dealerId",
              "type": "bytes32"
            },
            {
              "internalType": "string",
              "name": "carPlate",
              "type": "string"
            },
            {
              "internalType": "int256",
              "name": "time",
              "type": "int256"
            }
          ],
          "internalType": "struct AppointmentHandler.Appointment",
          "name": "",
          "type": "tuple"
        }
      ],
      "payable": false,
      "stateMutability": "view",
      "type": "function"
    }
  ],
  "bytecode": "0x60806040526006805461fe0061ff0019909116179055600080546001600160a01b03191633179055615259806100366000396000f3fe608060405234801561001057600080fd5b50600436106101fb5760003560e01c80637e41667f1161011a578063adff8b0f116100ad578063c4e91d171161007c578063c4e91d1714610473578063c9b54a5814610486578063d872acac146104a6578063ddb5f476146104c6578063e445268c146104e6576101fb565b8063adff8b0f1461040d578063b2c9ae601461042d578063b63e01d214610440578063c181b27314610453576101fb565b80638da5cb5b116100e95780638da5cb5b146103b25780638ee24214146103c75780638f2b5144146103da578063a44e4c70146103ed576101fb565b80637e41667f1461035757806382d7afbd1461036c57806386e80b711461037f57806388fcd1941461039f576101fb565b806350fb95e3116101925780636fd7d2b5116101615780636fd7d2b514610309578063752326c11461031c578063754178511461032f5780637d17f13c14610337576101fb565b806350fb95e3146102b05780635a82610c146102c35780635b6beeb9146102d657806360e9480b146102f6576101fb565b80631b8f47fe116101ce5780631b8f47fe1461024e578063369bfce414610261578063431a65fc146102745780634fb2e45d1461029d576101fb565b80630ad5be91146102005780630eb7bc8f146102155780631118127a146102285780631a4c85be1461023b575b600080fd5b61021361020e3660046140d3565b6104f9565b005b6102136102233660046142c1565b61064f565b6102136102363660046143d9565b6106da565b61021361024936600461428d565b6108c8565b61021361025c36600461405d565b610979565b61021361026f3660046142c1565b610a0a565b61028761028236600461428d565b610aa4565b6040516102949190614f38565b60405180910390f35b6102136102ab366004614037565b610b9b565b6102136102be3660046142c1565b610be7565b6102136102d13660046143a5565b610cca565b6102e96102e436600461428d565b610da0565b6040516102949190614f8a565b6102136103043660046143a5565b610e15565b61021361031736600461431e565b61108b565b61021361032a3660046143d9565b611135565b61028761129c565b61034a61034536600461405d565b6113f1565b60405161029491906150aa565b61035f611b7b565b6040516102949190614f27565b61021361037a366004614099565b611bfe565b61039261038d36600461428d565b611cfa565b6040516102949190614f6b565b6102136103ad36600461428d565b611fb8565b6103ba6120c6565b6040516102949190614f19565b6102136103d53660046141cb565b6120d5565b6102876103e836600461405d565b6121dc565b6104006103fb36600461405d565b6122bc565b6040516102949190614f49565b61042061041b36600461405d565b61240c565b60405161029491906150db565b61021361043b3660046143a5565b61271e565b61040061044e36600461405d565b6127e1565b61046661046136600461405d565b612924565b6040516102949190614f7c565b610213610481366004614246565b612951565b61049961049436600461405d565b6129e3565b6040516102949190614f5a565b6104b96104b436600461428d565b612c85565b6040516102949190615099565b6104d96104d436600461405d565b612e41565b6040516102949190615088565b6102136104f4366004614099565b612f2e565b8661050381612924565b6105285760405162461bcd60e51b815260040161051f90615078565b60405180910390fd5b84518451111561054a5760405162461bcd60e51b815260040161051f90615008565b60006105568888612fb9565b1215610593576000878152600b602090815260408220805460018101808355918452928290208951919361059093910191908a01906135cd565b50505b6009866040516105a39190614f01565b90815260408051918290036020908101832060808401835288845283820188905291830186905260608301859052815460018101808455600093845292829020845180519495946004909302909101926106029284929091019061364b565b50602082810151805161061b926001850192019061364b565b50604082015180516106379160028401916020909101906135cd565b50606082015181600301555050505050505050505050565b6000546001600160a01b031633146106795760405162461bcd60e51b815260040161051f90615018565b81610683816130ce565b61069f5760405162461bcd60e51b815260040161051f90615038565b81600760006106ad866130ef565b60ff1660ff16815260200190815260200160002090805190602001906106d49291906135cd565b50505050565b60008181526001602052604090205460ff16156107095760405162461bcd60e51b815260040161051f90615048565b600081815260046020908152604090912083518051859361072e9284929101906135cd565b50602082810151805161074792600185019201906135cd565b50604082015180516107639160028401916020909101906135cd565b506060820151805161077f9160038401916020909101906135cd565b50608082015161079590600483019060026136a4565b5060a082015180516107b19160068401916020909101906135cd565b5060c082015180516107cd9160078401916020909101906135cd565b5060e082015180516107e99160088401916020909101906135cd565b5061010082015180516108069160098401916020909101906135cd565b50610120820151805161082391600a84019160209091019061364b565b50610140820151805161084091600b8401916020909101906136e4565b50905050600061084f826131d9565b121561088b57600580546001810182556000919091527f036b6384b5eca791c62761152d0c79bb0604c104a5fb6f4eb0703f3154bb3db0018190555b7fbcb28ce223d1d07df7ff015302f0aee0306ad6362ede3db7aa3c6d40a651f00882826040516108bc9291906150bb565b60405180910390a15050565b6000546001600160a01b031633146108f25760405162461bcd60e51b815260040161051f90615018565b806108fc816130ce565b6109185760405162461bcd60e51b815260040161051f90615038565b6040518060200160405280600081525060076000610935856130ef565b60ff1660ff168152602001908152602001600020908051906020019061095c9291906135cd565b50506006805460ff19811660ff9182166000190190911617905550565b6000546001600160a01b031633146109a35760405162461bcd60e51b815260040161051f90615018565b60006109ae826131d9565b905060008112156109d15760405162461bcd60e51b815260040161051f90614fc8565b6000828152600160208190526040909120805460ff1916909117905560058054829081106109fb57fe5b60009182526020822001555050565b6000546001600160a01b03163314610a345760405162461bcd60e51b815260040161051f90615018565b8181610a40828261321f565b610a5c5760405162461bcd60e51b815260040161051f90615028565b600884604051610a6c9190614f01565b9081526020016040518091039020610a848585613235565b81548110610a8e57fe5b9060005260206000200160006106d4919061373d565b6060600882604051610ab69190614f01565b9081526020016040518091039020805480602002602001604051908101604052809291908181526020016000905b82821015610b8f5760008481526020908190208301805460408051601f6002600019610100600187161502019094169390930492830185900485028101850190915281815292830182828015610b7b5780601f10610b5057610100808354040283529160200191610b7b565b820191906000526020600020905b815481529060010190602001808311610b5e57829003601f168201915b505050505081526020019060010190610ae4565b5050505090505b919050565b6000546001600160a01b03163314610bc55760405162461bcd60e51b815260040161051f90615018565b600080546001600160a01b0319166001600160a01b0392909216919091179055565b8160ff600882604051610bfa9190614f01565b9081526040519081900360200190205410610c275760405162461bcd60e51b815260040161051f90614ff8565b8282610c33828261321f565b15610c505760405162461bcd60e51b815260040161051f90614fb8565b6000546001600160a01b03163314610c7a5760405162461bcd60e51b815260040161051f90615018565b600885604051610c8a9190614f01565b9081526040516020918190038201902080546001810180835560009283529183902087519293610cc19391909201918801906135cd565b50505050505050565b8060200151610cd881612924565b610cf45760405162461bcd60e51b815260040161051f90615078565b6000610cff836132b3565b90506000198110610d225760405162461bcd60e51b815260040161051f90614fe8565b610d3083602001518261334b565b6040805160808101825260008082526020808301828152845180830186528381528486019081526060850184905288518452600f83529490922083518155915160018301559251805192939192610d8d92600285019201906135cd565b5060608201518160030155905050505050565b6000600282604051602001610db59190614f01565b60408051601f1981840301815290829052610dcf91614f01565b602060405180830381855afa158015610dec573d6000803e3d6000fd5b5050506040513d601f19601f82011682018060405250610e0f919081019061407b565b92915050565b8060200151610e2381612924565b610e3f5760405162461bcd60e51b815260040161051f90615078565b81516000818152600f602052604090205415610fef576000610e648460000151613450565b9050610e6e613784565b84516000908152600f6020908152604091829020825160808101845281548152600180830154828501526002808401805487519381161561010002600019011691909104601f81018690048602830186018752808352929593949386019391929091830182828015610f215780601f10610ef657610100808354040283529160200191610f21565b820191906000526020600020905b815481529060010190602001808311610f0457829003601f168201915b505050505081526020016003820154815250509050600e6000826020015181526020019081526020016000208281548110610f5857fe5b6000918252602082206004909102018181556001810182905590610f7f600283018261373d565b506000600391909101819055602080870180518352600e8252604080842080546001818101808455928752958590208b5160049092020190815592519483019490945588015180518993610fda9260028501929101906135cd565b50606082015181600301555050505050611052565b602080840180516000908152600e83526040808220805460018181018084559285529386902089516004909202019081559351928401929092558601518051919387939261104392600285019201906135cd565b50606082015181600301555050505b6000818152600f602090815260409182902085518155818601516001820155918501518051869392610d8d9260028501929101906135cd565b8282611097828261321f565b6110b35760405162461bcd60e51b815260040161051f90615028565b6000546001600160a01b031633146110dd5760405162461bcd60e51b815260040161051f90615018565b826008866040516110ee9190614f01565b90815260200160405180910390206111068787613235565b8154811061111057fe5b90600052602060002001908051906020019061112d9291906135cd565b505050505050565b600081815260016020526040902054819060ff166111655760405162461bcd60e51b815260040161051f90614fa8565b600082815260046020908152604090912084518051869361118a9284929101906135cd565b5060208281015180516111a392600185019201906135cd565b50604082015180516111bf9160028401916020909101906135cd565b50606082015180516111db9160038401916020909101906135cd565b5060808201516111f190600483019060026136a4565b5060a0820151805161120d9160068401916020909101906135cd565b5060c082015180516112299160078401916020909101906135cd565b5060e082015180516112459160088401916020909101906135cd565b5061010082015180516112629160098401916020909101906135cd565b50610120820151805161127f91600a84019160209091019061364b565b50610140820151805161112d91600b8401916020909101906136e4565b6006546040805160ff9092168083526020808202840101909152606091829180156112db57816020015b60608152602001906001900390816112c65790505b5090506000805b60065460ff610100909104811690821610156113e85760ff811660009081526007602052604090205460026000196101006001841615020190911604156113e05760ff811660009081526007602090815260409182902080548351601f6002600019610100600186161502019093169290920491820184900484028101840190945280845290918301828280156113ba5780601f1061138f576101008083540402835291602001916113ba565b820191906000526020600020905b81548152906001019060200180831161139d57829003601f168201915b5050505050838380600101945060ff16815181106113d457fe5b60200260200101819052505b6001016112e2565b50909150505b90565b6113f96137ac565b6000828152600460209081526040918290208251815460026001821615610100026000190190911604601f8101849004909302810161018090810190945261016081018381529093919284928491908401828280156114995780601f1061146e57610100808354040283529160200191611499565b820191906000526020600020905b81548152906001019060200180831161147c57829003601f168201915b50505050508152602001600182018054600181600116156101000203166002900480601f01602080910402602001604051908101604052809291908181526020018280546001816001161561010002031660029004801561153b5780601f106115105761010080835404028352916020019161153b565b820191906000526020600020905b81548152906001019060200180831161151e57829003601f168201915b5050509183525050600282810180546040805160206001841615610100026000190190931694909404601f810183900483028501830190915280845293810193908301828280156115cd5780601f106115a2576101008083540402835291602001916115cd565b820191906000526020600020905b8154815290600101906020018083116115b057829003601f168201915b505050918352505060038201805460408051602060026001851615610100026000190190941693909304601f81018490048402820184019092528181529382019392918301828280156116615780601f1061163657610100808354040283529160200191611661565b820191906000526020600020905b81548152906001019060200180831161164457829003601f168201915b5050509183525050604080518082019091526020909101906004830160026000835b8282101561172657838201805460408051602060026001851615610100026000190190941693909304601f810184900484028201840190925281815292918301828280156117125780601f106116e757610100808354040283529160200191611712565b820191906000526020600020905b8154815290600101906020018083116116f557829003601f168201915b505050505081526020019060010190611683565b5050509082525060068201805460408051602060026001851615610100026000190190941693909304601f81018490048402820184019092528181529382019392918301828280156117b95780601f1061178e576101008083540402835291602001916117b9565b820191906000526020600020905b81548152906001019060200180831161179c57829003601f168201915b505050918352505060078201805460408051602060026001851615610100026000190190941693909304601f810184900484028201840190925281815293820193929183018282801561184d5780601f106118225761010080835404028352916020019161184d565b820191906000526020600020905b81548152906001019060200180831161183057829003601f168201915b505050918352505060088201805460408051602060026001851615610100026000190190941693909304601f81018490048402820184019092528181529382019392918301828280156118e15780601f106118b6576101008083540402835291602001916118e1565b820191906000526020600020905b8154815290600101906020018083116118c457829003601f168201915b505050918352505060098201805460408051602060026001851615610100026000190190941693909304601f81018490048402820184019092528181529382019392918301828280156119755780601f1061194a57610100808354040283529160200191611975565b820191906000526020600020905b81548152906001019060200180831161195857829003601f168201915b50505050508152602001600a8201805480602002602001604051908101604052809291908181526020016000905b82821015611a4e5760008481526020908190208301805460408051601f6002600019610100600187161502019094169390930492830185900485028101850190915281815292830182828015611a3a5780601f10611a0f57610100808354040283529160200191611a3a565b820191906000526020600020905b815481529060010190602001808311611a1d57829003601f168201915b5050505050815260200190600101906119a3565b505050508152602001600b8201805480602002602001604051908101604052809291908181526020016000905b82821015611b6d57838290600052602060002001805480602002602001604051908101604052809291908181526020016000905b82821015611b5a5760008481526020908190208301805460408051601f6002600019610100600187161502019094169390930492830185900485028101850190915281815292830182828015611b465780601f10611b1b57610100808354040283529160200191611b46565b820191906000526020600020905b815481529060010190602001808311611b2957829003601f168201915b505050505081526020019060010190611aaf565b5050505081526020019060010190611a7b565b505050915250909392505050565b6000546060906001600160a01b03163314611ba85760405162461bcd60e51b815260040161051f90615018565b6005805480602002602001604051908101604052809291908181526020018280548015611bf457602002820191906000526020600020905b815481526020019060010190808311611be0575b5050505050905090565b600082815260016020526040902054829060ff16611c2e5760405162461bcd60e51b815260040161051f90614fa8565b6000828152600160208181526040808420805460ff1990811690941790558684528084208054909316909255848352600381528183208390558583526002905280822084835291208154611c82929061380c565b506000838152600260205260408120611c9a9161384c565b60005b6000838152600260205260409020548110156106d4578260036000600260008781526020019081526020016000208481548110611cd657fe5b60009182526020808320909101548352820192909252604001902055600101611c9d565b6060600982604051611d0c9190614f01565b9081526020016040518091039020805480602002602001604051908101604052809291908181526020016000905b82821015610b8f578382906000526020600020906004020160405180608001604052908160008201805480602002602001604051908101604052809291908181526020016000905b82821015611e2d5760008481526020908190208301805460408051601f6002600019610100600187161502019094169390930492830185900485028101850190915281815292830182828015611e195780601f10611dee57610100808354040283529160200191611e19565b820191906000526020600020905b815481529060010190602001808311611dfc57829003601f168201915b505050505081526020019060010190611d82565b50505050815260200160018201805480602002602001604051908101604052809291908181526020016000905b82821015611f055760008481526020908190208301805460408051601f6002600019610100600187161502019094169390930492830185900485028101850190915281815292830182828015611ef15780601f10611ec657610100808354040283529160200191611ef1565b820191906000526020600020905b815481529060010190602001808311611ed457829003601f168201915b505050505081526020019060010190611e5a565b50505090825250600282810180546040805160206001841615610100026000190190931694909404601f81018390048302850183019091528084529381019390830182828015611f965780601f10611f6b57610100808354040283529160200191611f96565b820191906000526020600020905b815481529060010190602001808311611f7957829003601f168201915b5050505050815260200160038201548152505081526020019060010190611d3a565b6000546001600160a01b03163314611fe25760405162461bcd60e51b815260040161051f90615018565b80611fec816130ce565b156120095760405162461bcd60e51b815260040161051f90615058565b60065460ff61010082048116911611156120355760405162461bcd60e51b815260040161051f90615068565b60005b60065460ff610100909104811690821610156120c05760ff8116600090815260076020526040902054600260001961010060018416150201909116046120b85760ff81166000908152600760209081526040909120845161209b928601906135cd565b50506006805460ff8082166001011660ff199091161790556120c2565b600101612038565b505b5050565b6000546001600160a01b031681565b80600c836040516120e69190614f01565b908152602001604051809103902060008201518160000190805190602001906121109291906135cd565b50602082810151805161212992600185019201906135cd565b50604082015180516121459160028401916020909101906135cd565b5090505060006121558484612fb9565b9050600081121561219b576000848152600b602090815260408220805460018101808355918452928290208651919361219493910191908701906135cd565b50506106d4565b6000848152600b602052604090208054849190839081106121b857fe5b9060005260206000200190805190602001906121d59291906135cd565b5050505050565b6060600b6000838152602001908152602001600020805480602002602001604051908101604052809291908181526020016000905b82821015610b8f5760008481526020908190208301805460408051601f60026000196101006001871615020190941693909304928301859004850281018501909152818152928301828280156122a85780601f1061227d576101008083540402835291602001916122a8565b820191906000526020600020905b81548152906001019060200180831161228b57829003601f168201915b505050505081526020019060010190612211565b6060816122c881612924565b6122e45760405162461bcd60e51b815260040161051f90615078565b6000838152600e6020908152604080832080548251818502810185019093528083529193909284015b828210156123ff57838290600052602060002090600402016040518060800160405290816000820154815260200160018201548152602001600282018054600181600116156101000203166002900480601f0160208091040260200160405190810160405280929190818152602001828054600181600116156101000203166002900480156123dd5780601f106123b2576101008083540402835291602001916123dd565b820191906000526020600020905b8154815290600101906020018083116123c057829003601f168201915b505050505081526020016003820154815250508152602001906001019061230d565b5050505091505b50919050565b61241461386a565b6000828152600a60209081526040918290208251815460026001821615610100026000190190911604601f8101849004909302810160c090810190945260a081018381529093919284928491908401828280156124b25780601f10612487576101008083540402835291602001916124b2565b820191906000526020600020905b81548152906001019060200180831161249557829003601f168201915b50505050508152602001600182018054600181600116156101000203166002900480601f0160208091040260200160405190810160405280929190818152602001828054600181600116156101000203166002900480156125545780601f1061252957610100808354040283529160200191612554565b820191906000526020600020905b81548152906001019060200180831161253757829003601f168201915b5050509183525050600282810180546040805160206001841615610100026000190190931694909404601f810183900483028501830190915280845293810193908301828280156125e65780601f106125bb576101008083540402835291602001916125e6565b820191906000526020600020905b8154815290600101906020018083116125c957829003601f168201915b505050918352505060038201805460408051602060026001851615610100026000190190941693909304601f810184900484028201840190925281815293820193929183018282801561267a5780601f1061264f5761010080835404028352916020019161267a565b820191906000526020600020905b81548152906001019060200180831161265d57829003601f168201915b505050918352505060048201805460408051602060026001851615610100026000190190941693909304601f810184900484028201840190925281815293820193929183018282801561270e5780601f106126e35761010080835404028352916020019161270e565b820191906000526020600020905b8154815290600101906020018083116126f157829003601f168201915b5050505050815250509050919050565b806020015161272c81612924565b6127485760405162461bcd60e51b815260040161051f90615078565b6000612753836132b3565b905060001981106127765760405162461bcd60e51b815260040161051f90614fe8565b602080840180516000908152600d8352604080822080546001818101808455928552938690208951600490920201908155935192840192909255860151805191938793926127ca92600285019201906135cd565b50606082015181600301555050506120c083610cca565b6060816127ed81612924565b6128095760405162461bcd60e51b815260040161051f90615078565b6000838152600d6020908152604080832080548251818502810185019093528083529193909284015b828210156123ff57838290600052602060002090600402016040518060800160405290816000820154815260200160018201548152602001600282018054600181600116156101000203166002900480601f0160208091040260200160405190810160405280929190818152602001828054600181600116156101000203166002900480156129025780601f106128d757610100808354040283529160200191612902565b820191906000526020600020905b8154815290600101906020018083116128e557829003601f168201915b5050505050815260200160038201548152505081526020019060010190612832565b60008181526001602052604081205460ff1680610e0f575050600090815260036020526040902054151590565b6000828152600a602090815260409091208251805184936129769284929101906135cd565b50602082810151805161298f92600185019201906135cd565b50604082015180516129ab9160028401916020909101906135cd565b50606082015180516129c79160038401916020909101906135cd565b50608082015180516121d59160048401916020909101906135cd565b606080600b600084815260200190815260200160002080549050604051908082528060200260200182016040528015612a3657816020015b612a23613899565b815260200190600190039081612a1b5790505b50905060005b6000848152600b6020526040902054811015612c7e576000848152600b602052604090208054600c919083908110612a7057fe5b90600052602060002001604051612a879190614f0d565b9081526040805160209281900383018120805460026001821615610100026000190190911604601f81018590049094028201608090810190935260608201848152919390928492918491840182828015612b225780601f10612af757610100808354040283529160200191612b22565b820191906000526020600020905b815481529060010190602001808311612b0557829003601f168201915b50505050508152602001600182018054600181600116156101000203166002900480601f016020809104026020016040519081016040528092919081815260200182805460018160011615610100020316600290048015612bc45780601f10612b9957610100808354040283529160200191612bc4565b820191906000526020600020905b815481529060010190602001808311612ba757829003601f168201915b5050509183525050600282810180546040805160206001841615610100026000190190931694909404601f81018390048302850183019091528084529381019390830182828015612c565780601f10612c2b57610100808354040283529160200191612c56565b820191906000526020600020905b815481529060010190602001808311612c3957829003601f168201915b505050505081525050828281518110612c6b57fe5b6020908102919091010152600101612a3c565b5092915050565b612c8d613899565b600c82604051612c9d9190614f01565b9081526040805160209281900383018120805460026001821615610100026000190190911604601f81018590049094028201608090810190935260608201848152919390928492918491840182828015612d385780601f10612d0d57610100808354040283529160200191612d38565b820191906000526020600020905b815481529060010190602001808311612d1b57829003601f168201915b50505050508152602001600182018054600181600116156101000203166002900480601f016020809104026020016040519081016040528092919081815260200182805460018160011615610100020316600290048015612dda5780601f10612daf57610100808354040283529160200191612dda565b820191906000526020600020905b815481529060010190602001808311612dbd57829003601f168201915b5050509183525050600282810180546040805160206001841615610100026000190190931694909404601f8101839004830285018301909152808452938101939083018282801561270e5780601f106126e35761010080835404028352916020019161270e565b612e49613784565b600f60008381526020019081526020016000206040518060800160405290816000820154815260200160018201548152602001600282018054600181600116156101000203166002900480601f016020809104026020016040519081016040528092919081815260200182805460018160011615610100020316600290048015612f145780601f10612ee957610100808354040283529160200191612f14565b820191906000526020600020905b815481529060010190602001808311612ef757829003601f168201915b505050505081526020016003820154815250509050919050565b600082815260016020526040902054829060ff16612f5e5760405162461bcd60e51b815260040161051f90614fa8565b60008281526003602052604090205415612f8a5760405162461bcd60e51b815260040161051f90614f98565b506000828152600260209081526040808320805460018101825590845282842001849055928252600390522055565b6000805b6000848152600b60205260409020546001600160801b03821610156130c357612fe5836134f2565b6000858152600b6020526040902080546130a591906001600160801b03851690811061300d57fe5b600091825260209182902001805460408051601f600260001961010060018716150201909416939093049283018590048502810185019091528181529283018282801561309b5780601f106130705761010080835404028352916020019161309b565b820191906000526020600020905b81548152906001019060200180831161307e57829003601f168201915b50505050506134f2565b14156130bb576001600160801b03169050610e0f565b600101612fbd565b506000199392505050565b600654600090610100900460ff166130e5836130ef565b60ff161092915050565b6000806130fb836134f2565b905060005b60065460ff610100909104811690821610156131cf5760ff811660009081526007602052604090205460026000196101006001841615020190911604158015906131b9575060ff81166000908152600760209081526040918290208054835160026001831615610100026000190190921691909104601f810184900484028201840190945283815285936131b79391929183018282801561309b5780601f106130705761010080835404028352916020019161309b565b145b156131c7579150610b969050565b600101613100565b5060ff9392505050565b6000805b6005548110156132155782600582815481106131f557fe5b9060005260206000200154141561320d579050610b96565b6001016131dd565b5060001992915050565b600060ff61322d8484613235565b109392505050565b6000805b6008846040516132499190614f01565b9081526040519081900360200190205460ff821610156131cf5761326c836134f2565b61329b60088660405161327f9190614f01565b90815260200160405180910390208360ff168154811061300d57fe5b14156132ab5760ff169050610e0f565b600101613239565b600081602001516132c381612924565b6132df5760405162461bcd60e51b815260040161051f90615078565b60005b6020808501516000908152600e90915260409020548110156130c35761333784600e600087602001518152602001908152602001600020838154811061332457fe5b9060005260206000209060040201613522565b15613343579150612406565b6001016132e2565b8161335581612924565b6133715760405162461bcd60e51b815260040161051f90615078565b600182015b6000848152600e6020526040902054811015613430576000848152600e602052604090208054829081106133a657fe5b9060005260206000209060040201600e600086815260200190815260200160002060018303815481106133d557fe5b906000526020600020906004020160008201548160000155600182015481600101556002820181600201908054600181600116156101000203166002900461341e9291906138ba565b50600391820154910155600101613376565b506000838152600e602052604090208054906106d490600019830161392e565b6000818152600f602052604081205461347b5760405162461bcd60e51b815260040161051f90614fd8565b6000828152600f60205260408120905b60018201546000908152600e60205260409020548110156130c35783600e60008460010154815260200190815260200160002082815481106134c957fe5b90600052602060002090600402016000015414156134ea579150610b969050565b60010161348b565b6000816040516020016135059190614f01565b604051602081830303815290604052805190602001209050919050565b8054825160009114801561353d575081600101548360200151145b80156135b35750600282810180546040805160206001841615610100026000190190931694909404601f81018390048302850183019091528084526135a493929183018282801561309b5780601f106130705761010080835404028352916020019161309b565b6135b184604001516134f2565b145b80156135c6575081600301548360600151145b9392505050565b828054600181600116156101000203166002900490600052602060002090601f016020900481019282601f1061360e57805160ff191683800117855561363b565b8280016001018555821561363b579182015b8281111561363b578251825591602001919060010190613620565b5061364792915061395a565b5090565b828054828255906000526020600020908101928215613698579160200282015b8281111561369857825180516136889184916020909101906135cd565b509160200191906001019061366b565b50613647929150613974565b8260028101928215613698579160200282015b8281111561369857825180516136d49184916020909101906135cd565b50916020019190600101906136b7565b828054828255906000526020600020908101928215613731579160200282015b82811115613731578251805161372191849160209091019061364b565b5091602001919060010190613704565b50613647929150613997565b50805460018160011615610100020316600290046000825580601f106137635750613781565b601f016020900490600052602060002090810190613781919061395a565b50565b6040805160808101825260008082526020820181905260609282018390529181019190915290565b604051806101600160405280606081526020016060815260200160608152602001606081526020016137dc6139ba565b81526020016060815260200160608152602001606081526020016060815260200160608152602001606081525090565b82805482825590600052602060002090810192821561363b5760005260206000209182015b8281111561363b578254825591600101919060010190613831565b5080546000825590600052602060002090810190613781919061395a565b6040518060a0016040528060608152602001606081526020016060815260200160608152602001606081525090565b60405180606001604052806060815260200160608152602001606081525090565b828054600181600116156101000203166002900490600052602060002090601f016020900481019282601f106138f3578054855561363b565b8280016001018555821561363b57600052602060002091601f016020900482018281111561363b578254825591600101919060010190613831565b8154818355818111156120c0576004028160040283600052602060002091820191016120c091906139e1565b6113ee91905b808211156136475760008155600101613960565b6113ee91905b8082111561364757600061398e828261373d565b5060010161397a565b6113ee91905b808211156136475760006139b18282613a18565b5060010161399d565b60405180604001604052806002905b60608152602001906001900390816139c95790505090565b6113ee91905b8082111561364757600080825560018201819055613a08600283018261373d565b50600060038201556004016139e7565b50805460008255906000526020600020908101906137819190613974565b8035610e0f816151f9565b600082601f830112613a5257600080fd5b8135613a65613a6082615112565b6150ec565b81815260209384019390925082018360005b83811015613aa35781358601613a8d8882613aff565b8452506020928301929190910190600101613a77565b5050505092915050565b600082601f830112613abe57600080fd5b6002613acc613a6082615132565b9150818360005b83811015613aa35781358601613ae98882613bcf565b8452506020928301929190910190600101613ad3565b600082601f830112613b1057600080fd5b8135613b1e613a6082615112565b81815260209384019390925082018360005b83811015613aa35781358601613b468882613bcf565b8452506020928301929190910190600101613b30565b600082601f830112613b6d57600080fd5b8135613b7b613a6082615112565b81815260209384019390925082018360005b83811015613aa35781358601613ba38882613bcf565b8452506020928301929190910190600101613b8d565b8035610e0f8161520d565b8051610e0f8161520d565b600082601f830112613be057600080fd5b8135613bee613a608261514f565b91508082526020830160208301858383011115613c0a57600080fd5b613c158382846151b7565b50505092915050565b600060808284031215613c3057600080fd5b613c3a60806150ec565b90506000613c488484613bb9565b8252506020613c5984848301613bb9565b60208301525060408201356001600160401b03811115613c7857600080fd5b613c8484828501613bcf565b6040830152506060613c9884828501613bb9565b60608301525092915050565b600060608284031215613cb657600080fd5b613cc060606150ec565b905081356001600160401b03811115613cd857600080fd5b613ce484828501613bcf565b82525060208201356001600160401b03811115613d0057600080fd5b613d0c84828501613bcf565b60208301525060408201356001600160401b03811115613d2b57600080fd5b613d3784828501613bcf565b60408301525092915050565b60006101608284031215613d5657600080fd5b613d616101606150ec565b905081356001600160401b03811115613d7957600080fd5b613d8584828501613bcf565b82525060208201356001600160401b03811115613da157600080fd5b613dad84828501613bcf565b60208301525060408201356001600160401b03811115613dcc57600080fd5b613dd884828501613bcf565b60408301525060608201356001600160401b03811115613df757600080fd5b613e0384828501613bcf565b60608301525060808201356001600160401b03811115613e2257600080fd5b613e2e84828501613aad565b60808301525060a08201356001600160401b03811115613e4d57600080fd5b613e5984828501613bcf565b60a08301525060c08201356001600160401b03811115613e7857600080fd5b613e8484828501613bcf565b60c08301525060e08201356001600160401b03811115613ea357600080fd5b613eaf84828501613bcf565b60e0830152506101008201356001600160401b03811115613ecf57600080fd5b613edb84828501613bcf565b610100830152506101208201356001600160401b03811115613efc57600080fd5b613f0884828501613aff565b610120830152506101408201356001600160401b03811115613f2957600080fd5b613f3584828501613a41565b6101408301525092915050565b600060a08284031215613f5457600080fd5b613f5e60a06150ec565b905081356001600160401b03811115613f7657600080fd5b613f8284828501613bcf565b82525060208201356001600160401b03811115613f9e57600080fd5b613faa84828501613bcf565b60208301525060408201356001600160401b03811115613fc957600080fd5b613fd584828501613bcf565b60408301525060608201356001600160401b03811115613ff457600080fd5b61400084828501613bcf565b60608301525060808201356001600160401b0381111561401f57600080fd5b61402b84828501613bcf565b60808301525092915050565b60006020828403121561404957600080fd5b60006140558484613a36565b949350505050565b60006020828403121561406f57600080fd5b60006140558484613bb9565b60006020828403121561408d57600080fd5b60006140558484613bc4565b600080604083850312156140ac57600080fd5b60006140b88585613bb9565b92505060206140c985828601613bb9565b9150509250929050565b600080600080600080600060e0888a0312156140ee57600080fd5b60006140fa8a8a613bb9565b975050602061410b8a828b01613bb9565b96505060408801356001600160401b0381111561412757600080fd5b6141338a828b01613bcf565b95505060608801356001600160401b0381111561414f57600080fd5b61415b8a828b01613b5c565b94505060808801356001600160401b0381111561417757600080fd5b6141838a828b01613b5c565b93505060a08801356001600160401b0381111561419f57600080fd5b6141ab8a828b01613bcf565b92505060c06141bc8a828b01613bb9565b91505092959891949750929550565b6000806000606084860312156141e057600080fd5b60006141ec8686613bb9565b93505060208401356001600160401b0381111561420857600080fd5b61421486828701613bcf565b92505060408401356001600160401b0381111561423057600080fd5b61423c86828701613ca4565b9150509250925092565b6000806040838503121561425957600080fd5b60006142658585613bb9565b92505060208301356001600160401b0381111561428157600080fd5b6140c985828601613f42565b60006020828403121561429f57600080fd5b81356001600160401b038111156142b557600080fd5b61405584828501613bcf565b600080604083850312156142d457600080fd5b82356001600160401b038111156142ea57600080fd5b6142f685828601613bcf565b92505060208301356001600160401b0381111561431257600080fd5b6140c985828601613bcf565b60008060006060848603121561433357600080fd5b83356001600160401b0381111561434957600080fd5b61435586828701613bcf565b93505060208401356001600160401b0381111561437157600080fd5b61437d86828701613bcf565b92505060408401356001600160401b0381111561439957600080fd5b61423c86828701613bcf565b6000602082840312156143b757600080fd5b81356001600160401b038111156143cd57600080fd5b61405584828501613c1e565b600080604083850312156143ec57600080fd5b82356001600160401b0381111561440257600080fd5b6140b885828601613d43565b60006135c683836145f6565b60006144268383614783565b505060200190565b60006135c683836147bb565b60006135c68383614c61565b60006135c68383614cbd565b60006135c68383614e35565b6144678161519b565b82525050565b600061447882615188565b6144828185615192565b93508360208202850161449485615176565b8060005b858110156144ce57848403895281516144b1858261440e565b94506144bc83615176565b60209a909a0199925050600101614498565b5091979650505050505050565b60006144e682615188565b6144f08185615192565b93506144fb83615176565b8060005b83811015614529578151614513888261441a565b975061451e83615176565b9250506001016144ff565b509495945050505050565b600061453f8261518c565b6145498185610b96565b93508360208202850161455b856113ee565b8060005b858110156144ce5784840389528151614578858261442e565b945061458383615176565b60209a909a019992505060010161455f565b60006145a082615188565b6145aa8185615192565b9350836020820285016145bc85615176565b8060005b858110156144ce57848403895281516145d9858261442e565b94506145e483615176565b60209a909a01999250506001016145c0565b600061460182615188565b61460b8185615192565b93508360208202850161461d85615176565b8060005b858110156144ce578484038952815161463a858261442e565b945061464583615176565b60209a909a0199925050600101614621565b600061466282615188565b61466c8185615192565b93508360208202850161467e85615176565b8060005b858110156144ce578484038952815161469b858261443a565b94506146a683615176565b60209a909a0199925050600101614682565b60006146c382615188565b6146cd8185615192565b9350836020820285016146df85615176565b8060005b858110156144ce57848403895281516146fc8582614446565b945061470783615176565b60209a909a01999250506001016146e3565b600061472482615188565b61472e8185615192565b93508360208202850161474085615176565b8060005b858110156144ce578484038952815161475d8582614452565b945061476883615176565b60209a909a0199925050600101614744565b614467816151a6565b614467816113ee565b600061479782615188565b6147a18185610b96565b93506147b18185602086016151c3565b9290920192915050565b60006147c682615188565b6147d08185615192565b93506147e08185602086016151c3565b6147e9816151ef565b9093019392505050565b600081546001811660008114614810576001811461483357614872565b607f60028304166148218187610b96565b60ff1984168152955085019250614872565b600282046148418187610b96565b955061484c8561517c565b60005b8281101561486b5781548882015260019091019060200161484f565b5050850192505b505092915050565b6000614887602183615192565b7f5468617420656d706c6f79656520616c726561647920776f726b7320746865728152606560f81b602082015260400192915050565b60006148ca602983615192565b7f596f75206d7573742062652061206465616c657273686970206f776e657220748152686f20646f207468697360b81b602082015260400192915050565b6000614915601e83615192565b7f54686174207375627365727669636520616c7265616479206578697374730000815260200192915050565b600061494e602183615192565b7f4e6f206170706c69636174696f6e2065786973747320666f72207468617420698152601960fa1b602082015260400192915050565b6000614991602183615192565b7f5573657220646f6573206e6f74206861766520616e206170706f696e746d656e8152601d60fa1b602082015260400192915050565b60006149d4601f83615192565b7f54686174206170706f696e746d656e7420646f6573206e6f7420657869737400815260200192915050565b6000614a0d602183615192565b7f4d6178696d756d207375627365727669636520616d6f756e74207265616368658152601960fa1b602082015260400192915050565b6000614a50603383615192565b7f4e756d626572206f6620737562736572766963657320646f6573206e6f74206d8152720c2e8c6d040e6cae4ecd2c6ca40d8cadccee8d606b1b602082015260400192915050565b6000614aa5601583615192565b742cb7ba9030b932903737ba103a34329037bbb732b960591b815260200192915050565b6000614ad6602c83615192565b7f54686174207375627365727669636520646f65736e7420657869737420696e2081526b1d1a1a5cc818dbdb9d195e1d60a21b602082015260400192915050565b6000614b24601b83615192565b7f54686174207365727669636520646f6573206e6f742065786973740000000000815260200192915050565b6000614b5d602283615192565b7f54686174206164647265737320697320616c7265616479207265676973746572815261195960f21b602082015260400192915050565b6000614ba1601b83615192565b7f54686174207365727669636520616c7265616479206578697374730000000000815260200192915050565b6000614bda602883615192565b7f54686572652061726520746865206d6178696d756d206e756d626572206f6620815267736572766963657360c01b602082015260400192915050565b6000614c24602883615192565b7f596f75206d7573742062652061207665726966696564206465616c657220746f81526720646f207468697360c01b602082015260400192915050565b80516000906080840190614c758582614783565b506020830151614c886020860182614783565b5060408301518482036040860152614ca082826147bb565b9150506060830151614cb56060860182614783565b509392505050565b8051606080845260009190840190614cd582826147bb565b91505060208301518482036020860152614cef82826147bb565b91505060408301518482036040860152614d0982826147bb565b95945050505050565b805161016080845260009190840190614d2b82826147bb565b91505060208301518482036020860152614d4582826147bb565b91505060408301518482036040860152614d5f82826147bb565b91505060608301518482036060860152614d7982826147bb565b91505060808301518482036080860152614d938282614534565b91505060a083015184820360a0860152614dad82826147bb565b91505060c083015184820360c0860152614dc782826147bb565b91505060e083015184820360e0860152614de182826147bb565b915050610100830151848203610100860152614dfd82826147bb565b915050610120830151848203610120860152614e1982826145f6565b915050610140830151848203610140860152614d09828261446d565b8051608080845260009190840190614e4d82826145f6565b91505060208301518482036020860152614e6782826145f6565b91505060408301518482036040860152614ca082826147bb565b805160a080845260009190840190614e9982826147bb565b91505060208301518482036020860152614eb382826147bb565b91505060408301518482036040860152614ecd82826147bb565b91505060608301518482036060860152614ee782826147bb565b91505060808301518482036080860152614d0982826147bb565b60006135c6828461478c565b60006135c682846147f3565b60208101610e0f828461445e565b602080825281016135c681846144db565b602080825281016135c68184614595565b602080825281016135c68184614657565b602080825281016135c681846146b8565b602080825281016135c68184614719565b60208101610e0f828461477a565b60208101610e0f8284614783565b60208082528101610e0f8161487a565b60208082528101610e0f816148bd565b60208082528101610e0f81614908565b60208082528101610e0f81614941565b60208082528101610e0f81614984565b60208082528101610e0f816149c7565b60208082528101610e0f81614a00565b60208082528101610e0f81614a43565b60208082528101610e0f81614a98565b60208082528101610e0f81614ac9565b60208082528101610e0f81614b17565b60208082528101610e0f81614b50565b60208082528101610e0f81614b94565b60208082528101610e0f81614bcd565b60208082528101610e0f81614c17565b602080825281016135c68184614c61565b602080825281016135c68184614cbd565b602080825281016135c68184614d12565b604080825281016150cc8185614d12565b90506135c66020830184614783565b602080825281016135c68184614e81565b6040518181016001600160401b038111828210171561510a57600080fd5b604052919050565b60006001600160401b0382111561512857600080fd5b5060209081020190565b60006001600160401b0382111561514857600080fd5b5060200290565b60006001600160401b0382111561516557600080fd5b506020601f91909101601f19160190565b60200190565b60009081526020902090565b5190565b50600290565b90815260200190565b6000610e0f826151ab565b151590565b6001600160a01b031690565b82818337506000910152565b60005b838110156151de5781810151838201526020016151c6565b838111156106d45750506000910152565b601f01601f191690565b6152028161519b565b811461378157600080fd5b615202816113ee56fea365627a7a72315820dc0abeb19a38e841e89eac567537a57a4864b96c5a7bb68ffd2a52145316ed1e6c6578706572696d656e74616cf564736f6c634300050c0040",
  "source": "pragma solidity ^0.5.11;\npragma experimental ABIEncoderV2;\n\nimport \"./UserContract.sol\";\n\ncontract AppointmentHandler is UserContract {\n\n    struct Appointment{\n        bytes32 userId;\n        bytes32 dealerId;\n        string carPlate;\n        int time; //Milliseconds\n    }\n\n    mapping(bytes32 => Appointment[]) private dealerAppointmentHistory;\n    mapping(bytes32 => Appointment[]) private activeAppointments;\n    mapping(bytes32 => Appointment) private userAppointment;\n\n    function isSameAppointment(Appointment memory a, Appointment storage o) internal view returns (bool) {\n        return a.userId == o.userId && a.dealerId == o.dealerId && encode(a.carPlate) == encode(o.carPlate) && a.time == o.time;\n    }\n\n    function getIndexOfAppointment(Appointment memory appointment) internal verified(appointment.dealerId) view returns(uint){\n        for(uint i = 0; i < activeAppointments[appointment.dealerId].length; i++){\n            if(isSameAppointment(appointment,activeAppointments[appointment.dealerId][i])){\n                return i;\n            }\n        }\n        return uint(-1);\n    }\n\n    function getIndexOfUserAppointment(bytes32 userId) internal view returns(uint) {\n        require(userAppointment[userId].userId != 0,\"User does not have an appointment\");\n        Appointment storage currentAp = userAppointment[userId];\n        for(uint i = 0; i < activeAppointments[currentAp.dealerId].length; i++){\n            if(activeAppointments[currentAp.dealerId][i].userId == userId){\n                return i;\n            }\n        }\n        return uint(-1);\n    }\n\n    function createAppointment(Appointment memory appointment) public verified(appointment.dealerId) {\n        bytes32 userId = appointment.userId;\n        if(userAppointment[userId].userId != 0){\n            uint aIndex = getIndexOfUserAppointment(appointment.userId);\n            Appointment memory currentAp = userAppointment[appointment.userId];\n            delete activeAppointments[currentAp.dealerId][aIndex];\n            activeAppointments[appointment.dealerId].push(appointment);\n        }\n        else{\n            activeAppointments[appointment.dealerId].push(appointment);\n        }\n        userAppointment[userId] = appointment;\n    }\n\n    function completeAppointment(Appointment memory appointment) public verified(appointment.dealerId) {\n        uint aIndex = getIndexOfAppointment(appointment);\n        require(aIndex < uint(-1),\"That appointment does not exist\");\n        //TODO Change time to completed time (Need date time library or smth)\n        dealerAppointmentHistory[appointment.dealerId].push(appointment);\n        cancelAppointment(appointment);\n    }\n\n    function cancelAppointment(Appointment memory appointment) public verified(appointment.dealerId) {\n        uint aIndex = getIndexOfAppointment(appointment);\n        require(aIndex < uint(-1),\"That appointment does not exist\");\n        removeAppointment(appointment.dealerId,aIndex);\n        userAppointment[appointment.userId] = Appointment(0,0,\"\",0);\n    }\n\n    function removeAppointment(bytes32 dealerId, uint index) internal verified(dealerId) {\n        for(uint i = index + 1; i < activeAppointments[dealerId].length; i++){\n            activeAppointments[dealerId][i-1] = activeAppointments[dealerId][i];\n        }\n        activeAppointments[dealerId].length--;\n    }\n\n    function getAppointmentHistory(bytes32 dealerId) public view verified(dealerId) returns (Appointment[] memory){\n        return dealerAppointmentHistory[dealerId];\n    }\n\n    function getPendingAppointments(bytes32 dealerId) public view verified(dealerId) returns (Appointment[] memory){\n        return activeAppointments[dealerId];\n    }\n\n    function getUserAppointment(bytes32 userId) public view returns (Appointment memory) {\n        return userAppointment[userId];\n    }\n}",
  "sourcePath": "/home/brandon/Documents/_Important/Uni/Blockchain/Final project/contracts/AppointmentHandler.sol",
  "compiler": {
    "name": "solc",
    "version": "0.5.12+commit.7709ece9.Emscripten.clang"
  },
  "schemaVersion": "3.0.19",
  "updatedAt": "2019-11-29T07:38:34.957Z",
  "networkType": "ethereum",
  "devdoc": {
    "methods": {}
  },
  "userdoc": {
    "methods": {}
  }
}