{
  "contractName": "AppointmentHandler",
  "abi": [
    {
      "anonymous": false,
      "inputs": [
        {
          "components": [
            {
              "internalType": "string",
              "name": "dealerName",
              "type": "string"
            },
            {
              "internalType": "string",
              "name": "firstName",
              "type": "string"
            },
            {
              "internalType": "string",
              "name": "lastName",
              "type": "string"
            },
            {
              "internalType": "string",
              "name": "addr",
              "type": "string"
            },
            {
              "internalType": "string",
              "name": "location",
              "type": "string"
            },
            {
              "internalType": "string",
              "name": "phoneNo",
              "type": "string"
            },
            {
              "internalType": "string",
              "name": "bestSeller",
              "type": "string"
            },
            {
              "internalType": "string",
              "name": "promotion",
              "type": "string"
            },
            {
              "internalType": "string",
              "name": "otherServices",
              "type": "string"
            },
            {
              "internalType": "string[]",
              "name": "availableServices",
              "type": "string[]"
            },
            {
              "internalType": "string[][]",
              "name": "availableSubServices",
              "type": "string[][]"
            }
          ],
          "indexed": false,
          "internalType": "struct DealerContract.DealerInfo",
          "name": "info",
          "type": "tuple"
        },
        {
          "indexed": false,
          "internalType": "bytes32",
          "name": "id",
          "type": "bytes32"
        }
      ],
      "name": "CreateDealerApplication",
      "type": "event"
    },
    {
      "constant": false,
      "inputs": [
        {
          "internalType": "bytes32",
          "name": "dealerId",
          "type": "bytes32"
        },
        {
          "internalType": "bytes32",
          "name": "adr",
          "type": "bytes32"
        }
      ],
      "name": "addDealerEmployee",
      "outputs": [],
      "payable": false,
      "stateMutability": "nonpayable",
      "type": "function"
    },
    {
      "constant": false,
      "inputs": [
        {
          "internalType": "string",
          "name": "serviceName",
          "type": "string"
        }
      ],
      "name": "addService",
      "outputs": [],
      "payable": false,
      "stateMutability": "nonpayable",
      "type": "function"
    },
    {
      "constant": false,
      "inputs": [
        {
          "internalType": "string",
          "name": "serviceName",
          "type": "string"
        },
        {
          "internalType": "string",
          "name": "subServiceName",
          "type": "string"
        }
      ],
      "name": "addSubService",
      "outputs": [],
      "payable": false,
      "stateMutability": "nonpayable",
      "type": "function"
    },
    {
      "constant": false,
      "inputs": [
        {
          "internalType": "bytes32",
          "name": "adr",
          "type": "bytes32"
        }
      ],
      "name": "approveApplication",
      "outputs": [],
      "payable": false,
      "stateMutability": "nonpayable",
      "type": "function"
    },
    {
      "constant": false,
      "inputs": [
        {
          "components": [
            {
              "internalType": "string",
              "name": "dealerName",
              "type": "string"
            },
            {
              "internalType": "string",
              "name": "firstName",
              "type": "string"
            },
            {
              "internalType": "string",
              "name": "lastName",
              "type": "string"
            },
            {
              "internalType": "string",
              "name": "addr",
              "type": "string"
            },
            {
              "internalType": "string",
              "name": "location",
              "type": "string"
            },
            {
              "internalType": "string",
              "name": "phoneNo",
              "type": "string"
            },
            {
              "internalType": "string",
              "name": "bestSeller",
              "type": "string"
            },
            {
              "internalType": "string",
              "name": "promotion",
              "type": "string"
            },
            {
              "internalType": "string",
              "name": "otherServices",
              "type": "string"
            },
            {
              "internalType": "string[]",
              "name": "availableServices",
              "type": "string[]"
            },
            {
              "internalType": "string[][]",
              "name": "availableSubServices",
              "type": "string[][]"
            }
          ],
          "internalType": "struct DealerContract.DealerInfo",
          "name": "info",
          "type": "tuple"
        },
        {
          "internalType": "bytes32",
          "name": "id",
          "type": "bytes32"
        }
      ],
      "name": "createDealerApplication",
      "outputs": [],
      "payable": false,
      "stateMutability": "nonpayable",
      "type": "function"
    },
    {
      "constant": false,
      "inputs": [
        {
          "internalType": "string",
          "name": "serviceName",
          "type": "string"
        }
      ],
      "name": "deleteService",
      "outputs": [],
      "payable": false,
      "stateMutability": "nonpayable",
      "type": "function"
    },
    {
      "constant": false,
      "inputs": [
        {
          "internalType": "string",
          "name": "serviceName",
          "type": "string"
        },
        {
          "internalType": "string",
          "name": "subServiceName",
          "type": "string"
        }
      ],
      "name": "deleteSubService",
      "outputs": [],
      "payable": false,
      "stateMutability": "nonpayable",
      "type": "function"
    },
    {
      "constant": false,
      "inputs": [
        {
          "internalType": "bytes32",
          "name": "userId",
          "type": "bytes32"
        },
        {
          "internalType": "string",
          "name": "noPlate",
          "type": "string"
        },
        {
          "components": [
            {
              "internalType": "string",
              "name": "brand",
              "type": "string"
            },
            {
              "internalType": "string",
              "name": "model",
              "type": "string"
            },
            {
              "internalType": "string",
              "name": "year",
              "type": "string"
            }
          ],
          "internalType": "struct UserContract.CarInfo",
          "name": "carInfo",
          "type": "tuple"
        }
      ],
      "name": "editCarDetails",
      "outputs": [],
      "payable": false,
      "stateMutability": "nonpayable",
      "type": "function"
    },
    {
      "constant": false,
      "inputs": [
        {
          "components": [
            {
              "internalType": "string",
              "name": "dealerName",
              "type": "string"
            },
            {
              "internalType": "string",
              "name": "firstName",
              "type": "string"
            },
            {
              "internalType": "string",
              "name": "lastName",
              "type": "string"
            },
            {
              "internalType": "string",
              "name": "addr",
              "type": "string"
            },
            {
              "internalType": "string",
              "name": "location",
              "type": "string"
            },
            {
              "internalType": "string",
              "name": "phoneNo",
              "type": "string"
            },
            {
              "internalType": "string",
              "name": "bestSeller",
              "type": "string"
            },
            {
              "internalType": "string",
              "name": "promotion",
              "type": "string"
            },
            {
              "internalType": "string",
              "name": "otherServices",
              "type": "string"
            },
            {
              "internalType": "string[]",
              "name": "availableServices",
              "type": "string[]"
            },
            {
              "internalType": "string[][]",
              "name": "availableSubServices",
              "type": "string[][]"
            }
          ],
          "internalType": "struct DealerContract.DealerInfo",
          "name": "info",
          "type": "tuple"
        },
        {
          "internalType": "bytes32",
          "name": "id",
          "type": "bytes32"
        }
      ],
      "name": "editDealerInfo",
      "outputs": [],
      "payable": false,
      "stateMutability": "nonpayable",
      "type": "function"
    },
    {
      "constant": false,
      "inputs": [
        {
          "internalType": "string",
          "name": "oldName",
          "type": "string"
        },
        {
          "internalType": "string",
          "name": "newName",
          "type": "string"
        }
      ],
      "name": "editServiceName",
      "outputs": [],
      "payable": false,
      "stateMutability": "nonpayable",
      "type": "function"
    },
    {
      "constant": false,
      "inputs": [
        {
          "internalType": "string",
          "name": "serviceName",
          "type": "string"
        },
        {
          "internalType": "string",
          "name": "oldName",
          "type": "string"
        },
        {
          "internalType": "string",
          "name": "newName",
          "type": "string"
        }
      ],
      "name": "editSubServiceName",
      "outputs": [],
      "payable": false,
      "stateMutability": "nonpayable",
      "type": "function"
    },
    {
      "constant": false,
      "inputs": [
        {
          "internalType": "bytes32",
          "name": "userId",
          "type": "bytes32"
        },
        {
          "components": [
            {
              "internalType": "string",
              "name": "firstName",
              "type": "string"
            },
            {
              "internalType": "string",
              "name": "lastName",
              "type": "string"
            },
            {
              "internalType": "string",
              "name": "adr",
              "type": "string"
            },
            {
              "internalType": "string",
              "name": "phNo",
              "type": "string"
            },
            {
              "internalType": "string",
              "name": "email",
              "type": "string"
            }
          ],
          "internalType": "struct UserContract.UserInfo",
          "name": "info",
          "type": "tuple"
        }
      ],
      "name": "editUserInfo",
      "outputs": [],
      "payable": false,
      "stateMutability": "nonpayable",
      "type": "function"
    },
    {
      "constant": true,
      "inputs": [],
      "name": "getAllDealerApplications",
      "outputs": [
        {
          "internalType": "bytes32[]",
          "name": "",
          "type": "bytes32[]"
        }
      ],
      "payable": false,
      "stateMutability": "view",
      "type": "function"
    },
    {
      "constant": true,
      "inputs": [
        {
          "internalType": "bytes32",
          "name": "userId",
          "type": "bytes32"
        }
      ],
      "name": "getCars",
      "outputs": [
        {
          "components": [
            {
              "internalType": "string",
              "name": "brand",
              "type": "string"
            },
            {
              "internalType": "string",
              "name": "model",
              "type": "string"
            },
            {
              "internalType": "string",
              "name": "year",
              "type": "string"
            }
          ],
          "internalType": "struct UserContract.CarInfo[]",
          "name": "",
          "type": "tuple[]"
        }
      ],
      "payable": false,
      "stateMutability": "view",
      "type": "function"
    },
    {
      "constant": true,
      "inputs": [
        {
          "internalType": "bytes32",
          "name": "id",
          "type": "bytes32"
        }
      ],
      "name": "getDealerInfo",
      "outputs": [
        {
          "components": [
            {
              "internalType": "string",
              "name": "dealerName",
              "type": "string"
            },
            {
              "internalType": "string",
              "name": "firstName",
              "type": "string"
            },
            {
              "internalType": "string",
              "name": "lastName",
              "type": "string"
            },
            {
              "internalType": "string",
              "name": "addr",
              "type": "string"
            },
            {
              "internalType": "string",
              "name": "location",
              "type": "string"
            },
            {
              "internalType": "string",
              "name": "phoneNo",
              "type": "string"
            },
            {
              "internalType": "string",
              "name": "bestSeller",
              "type": "string"
            },
            {
              "internalType": "string",
              "name": "promotion",
              "type": "string"
            },
            {
              "internalType": "string",
              "name": "otherServices",
              "type": "string"
            },
            {
              "internalType": "string[]",
              "name": "availableServices",
              "type": "string[]"
            },
            {
              "internalType": "string[][]",
              "name": "availableSubServices",
              "type": "string[][]"
            }
          ],
          "internalType": "struct DealerContract.DealerInfo",
          "name": "",
          "type": "tuple"
        }
      ],
      "payable": false,
      "stateMutability": "view",
      "type": "function"
    },
    {
      "constant": true,
      "inputs": [
        {
          "internalType": "string",
          "name": "id",
          "type": "string"
        }
      ],
      "name": "getHash",
      "outputs": [
        {
          "internalType": "bytes32",
          "name": "",
          "type": "bytes32"
        }
      ],
      "payable": false,
      "stateMutability": "pure",
      "type": "function"
    },
    {
      "constant": true,
      "inputs": [
        {
          "internalType": "string",
          "name": "noPlate",
          "type": "string"
        }
      ],
      "name": "getRecords",
      "outputs": [
        {
          "components": [
            {
              "internalType": "string[]",
              "name": "services",
              "type": "string[]"
            },
            {
              "internalType": "string[]",
              "name": "subservices",
              "type": "string[]"
            },
            {
              "internalType": "string",
              "name": "comment",
              "type": "string"
            },
            {
              "internalType": "uint256",
              "name": "timeStamp",
              "type": "uint256"
            }
          ],
          "internalType": "struct UserContract.RecordInternal[]",
          "name": "",
          "type": "tuple[]"
        }
      ],
      "payable": false,
      "stateMutability": "view",
      "type": "function"
    },
    {
      "constant": true,
      "inputs": [],
      "name": "getServices",
      "outputs": [
        {
          "internalType": "string[]",
          "name": "",
          "type": "string[]"
        }
      ],
      "payable": false,
      "stateMutability": "view",
      "type": "function"
    },
    {
      "constant": true,
      "inputs": [
        {
          "internalType": "string",
          "name": "serviceName",
          "type": "string"
        }
      ],
      "name": "getSubServices",
      "outputs": [
        {
          "internalType": "string[]",
          "name": "",
          "type": "string[]"
        }
      ],
      "payable": false,
      "stateMutability": "view",
      "type": "function"
    },
    {
      "constant": true,
      "inputs": [
        {
          "internalType": "bytes32",
          "name": "userId",
          "type": "bytes32"
        }
      ],
      "name": "getUserInfo",
      "outputs": [
        {
          "components": [
            {
              "internalType": "string",
              "name": "firstName",
              "type": "string"
            },
            {
              "internalType": "string",
              "name": "lastName",
              "type": "string"
            },
            {
              "internalType": "string",
              "name": "adr",
              "type": "string"
            },
            {
              "internalType": "string",
              "name": "phNo",
              "type": "string"
            },
            {
              "internalType": "string",
              "name": "email",
              "type": "string"
            }
          ],
          "internalType": "struct UserContract.UserInfo",
          "name": "",
          "type": "tuple"
        }
      ],
      "payable": false,
      "stateMutability": "view",
      "type": "function"
    },
    {
      "constant": false,
      "inputs": [
        {
          "internalType": "bytes32",
          "name": "dealerId",
          "type": "bytes32"
        },
        {
          "internalType": "bytes32",
          "name": "id",
          "type": "bytes32"
        },
        {
          "internalType": "string",
          "name": "noPlate",
          "type": "string"
        },
        {
          "internalType": "string[]",
          "name": "services",
          "type": "string[]"
        },
        {
          "internalType": "string[]",
          "name": "subservices",
          "type": "string[]"
        },
        {
          "internalType": "string",
          "name": "comment",
          "type": "string"
        },
        {
          "internalType": "uint256",
          "name": "timeStamp",
          "type": "uint256"
        }
      ],
      "name": "insertRecord",
      "outputs": [],
      "payable": false,
      "stateMutability": "nonpayable",
      "type": "function"
    },
    {
      "constant": true,
      "inputs": [
        {
          "internalType": "bytes32",
          "name": "adr",
          "type": "bytes32"
        }
      ],
      "name": "isVerified",
      "outputs": [
        {
          "internalType": "bool",
          "name": "",
          "type": "bool"
        }
      ],
      "payable": false,
      "stateMutability": "view",
      "type": "function"
    },
    {
      "constant": true,
      "inputs": [],
      "name": "owner",
      "outputs": [
        {
          "internalType": "address",
          "name": "",
          "type": "address"
        }
      ],
      "payable": false,
      "stateMutability": "view",
      "type": "function"
    },
    {
      "constant": false,
      "inputs": [
        {
          "internalType": "bytes32",
          "name": "dealershipId",
          "type": "bytes32"
        },
        {
          "internalType": "bytes32",
          "name": "otherId",
          "type": "bytes32"
        }
      ],
      "name": "transferDealershipOwner",
      "outputs": [],
      "payable": false,
      "stateMutability": "nonpayable",
      "type": "function"
    },
    {
      "constant": false,
      "inputs": [
        {
          "internalType": "address",
          "name": "newOwner",
          "type": "address"
        }
      ],
      "name": "transferOwner",
      "outputs": [],
      "payable": false,
      "stateMutability": "nonpayable",
      "type": "function"
    },
    {
      "constant": false,
      "inputs": [
        {
          "components": [
            {
              "internalType": "bytes32",
              "name": "userId",
              "type": "bytes32"
            },
            {
              "internalType": "bytes32",
              "name": "dealerId",
              "type": "bytes32"
            },
            {
              "internalType": "string",
              "name": "carPlate",
              "type": "string"
            },
            {
              "internalType": "uint16",
              "name": "time",
              "type": "uint16"
            }
          ],
          "internalType": "struct AppointmentHandler.Appointment",
          "name": "appointment",
          "type": "tuple"
        }
      ],
      "name": "createAppointment",
      "outputs": [],
      "payable": false,
      "stateMutability": "nonpayable",
      "type": "function"
    },
    {
      "constant": false,
      "inputs": [
        {
          "components": [
            {
              "internalType": "bytes32",
              "name": "userId",
              "type": "bytes32"
            },
            {
              "internalType": "bytes32",
              "name": "dealerId",
              "type": "bytes32"
            },
            {
              "internalType": "string",
              "name": "carPlate",
              "type": "string"
            },
            {
              "internalType": "uint16",
              "name": "time",
              "type": "uint16"
            }
          ],
          "internalType": "struct AppointmentHandler.Appointment",
          "name": "appointment",
          "type": "tuple"
        }
      ],
      "name": "completeAppointment",
      "outputs": [],
      "payable": false,
      "stateMutability": "nonpayable",
      "type": "function"
    },
    {
      "constant": false,
      "inputs": [
        {
          "components": [
            {
              "internalType": "bytes32",
              "name": "userId",
              "type": "bytes32"
            },
            {
              "internalType": "bytes32",
              "name": "dealerId",
              "type": "bytes32"
            },
            {
              "internalType": "string",
              "name": "carPlate",
              "type": "string"
            },
            {
              "internalType": "uint16",
              "name": "time",
              "type": "uint16"
            }
          ],
          "internalType": "struct AppointmentHandler.Appointment",
          "name": "appointment",
          "type": "tuple"
        }
      ],
      "name": "cancelAppointment",
      "outputs": [],
      "payable": false,
      "stateMutability": "nonpayable",
      "type": "function"
    },
    {
      "constant": true,
      "inputs": [
        {
          "internalType": "bytes32",
          "name": "dealerId",
          "type": "bytes32"
        }
      ],
      "name": "getAppointmentHistory",
      "outputs": [
        {
          "components": [
            {
              "internalType": "bytes32",
              "name": "userId",
              "type": "bytes32"
            },
            {
              "internalType": "bytes32",
              "name": "dealerId",
              "type": "bytes32"
            },
            {
              "internalType": "string",
              "name": "carPlate",
              "type": "string"
            },
            {
              "internalType": "uint16",
              "name": "time",
              "type": "uint16"
            }
          ],
          "internalType": "struct AppointmentHandler.Appointment[]",
          "name": "",
          "type": "tuple[]"
        }
      ],
      "payable": false,
      "stateMutability": "view",
      "type": "function"
    },
    {
      "constant": true,
      "inputs": [
        {
          "internalType": "bytes32",
          "name": "dealerId",
          "type": "bytes32"
        }
      ],
      "name": "getPendingAppointments",
      "outputs": [
        {
          "components": [
            {
              "internalType": "bytes32",
              "name": "userId",
              "type": "bytes32"
            },
            {
              "internalType": "bytes32",
              "name": "dealerId",
              "type": "bytes32"
            },
            {
              "internalType": "string",
              "name": "carPlate",
              "type": "string"
            },
            {
              "internalType": "uint16",
              "name": "time",
              "type": "uint16"
            }
          ],
          "internalType": "struct AppointmentHandler.Appointment[]",
          "name": "",
          "type": "tuple[]"
        }
      ],
      "payable": false,
      "stateMutability": "view",
      "type": "function"
    },
    {
      "constant": true,
      "inputs": [
        {
          "internalType": "bytes32",
          "name": "userId",
          "type": "bytes32"
        }
      ],
      "name": "getUserAppointment",
      "outputs": [
        {
          "components": [
            {
              "internalType": "bytes32",
              "name": "userId",
              "type": "bytes32"
            },
            {
              "internalType": "bytes32",
              "name": "dealerId",
              "type": "bytes32"
            },
            {
              "internalType": "string",
              "name": "carPlate",
              "type": "string"
            },
            {
              "internalType": "uint16",
              "name": "time",
              "type": "uint16"
            }
          ],
          "internalType": "struct AppointmentHandler.Appointment",
          "name": "",
          "type": "tuple"
        }
      ],
      "payable": false,
      "stateMutability": "view",
      "type": "function"
    }
  ],
  "bytecode": "0x60806040526006805461fe0061ff0019909116179055600080546001600160a01b03191633179055614b1b806100366000396000f3fe608060405234801561001057600080fd5b50600436106101e55760003560e01c80637d17f13c1161010f578063adff8b0f116100a2578063c9b54a5811610071578063c9b54a581461044a578063cd2c4f4b1461046a578063ddb5f4761461047d578063e445268c1461049d576101e5565b8063adff8b0f146103e4578063b63e01d214610404578063c181b27314610417578063c4e91d1714610437576101e5565b806388fcd194116100de57806388fcd194146103895780638da5cb5b1461039c5780638ee24214146103b1578063a44e4c70146103c4576101e5565b80637d17f13c146103215780637e41667f1461034157806382d7afbd1461035657806386e80b7114610369576101e5565b8063369bfce41161018757806350fb95e31161015657806350fb95e3146102d35780635b6beeb9146102e65780636fd7d2b5146103065780637541785114610319576101e5565b8063369bfce414610271578063431a65fc14610284578063498d87f1146102ad5780634fb2e45d146102c0576101e5565b80631a4c85be116101c35780631a4c85be146102255780631b8f47fe146102385780632d4afc7b1461024b5780633490a2951461025e576101e5565b806307681038146101ea5780630ad5be91146101ff5780630eb7bc8f14610212575b600080fd5b6101fd6101f8366004613cff565b6104b0565b005b6101fd61020d3660046139f9565b61069b565b6101fd610220366004613be7565b6107e8565b6101fd610233366004613bb3565b610873565b6101fd610246366004613983565b610924565b6101fd610259366004613cff565b6109b5565b6101fd61026c366004613ccb565b610b2a565b6101fd61027f366004613be7565b610c05565b610297610292366004613bb3565b610c9f565b6040516102a4919061481e565b60405180910390f35b6101fd6102bb366004613ccb565b610d96565b6101fd6102ce36600461395d565b610f3c565b6101fd6102e1366004613be7565b610f88565b6102f96102f4366004613bb3565b61106b565b6040516102a49190614870565b6101fd610314366004613c44565b6110e0565b610297611182565b61033461032f366004613983565b6112d7565b6040516102a4919061497f565b610349611a31565b6040516102a4919061480d565b6101fd6103643660046139bf565b611ab4565b61037c610377366004613bb3565b611bb0565b6040516102a49190614851565b6101fd610397366004613bb3565b611e6e565b6103a4611f7a565b6040516102a491906147ff565b6101fd6103bf366004613af1565b611f89565b6103d76103d2366004613983565b612090565b6040516102a4919061482f565b6103f76103f2366004613983565b6121e7565b6040516102a491906149b0565b6103d7610412366004613983565b6124f9565b61042a610425366004613983565b612643565b6040516102a49190614862565b6101fd610445366004613b6c565b612670565b61045d610458366004613983565b612702565b6040516102a49190614840565b6101fd610478366004613ccb565b6129a4565b61049061048b366004613983565b612a8c565b6040516102a4919061496e565b6101fd6104ab3660046139bf565b612b7e565b60008181526001602052604090205460ff16156104e85760405162461bcd60e51b81526004016104df9061491e565b60405180910390fd5b600081815260046020908152604090912083518051859361050d92849291019061307e565b506020828101518051610526926001850192019061307e565b506040820151805161054291600284019160209091019061307e565b506060820151805161055e91600384019160209091019061307e565b506080820151805161057a91600484019160209091019061307e565b5060a0820151805161059691600584019160209091019061307e565b5060c082015180516105b291600684019160209091019061307e565b5060e082015180516105ce91600784019160209091019061307e565b5061010082015180516105eb91600884019160209091019061307e565b5061012082015180516106089160098401916020909101906130fc565b50610140820151805161062591600a840191602090910190613155565b5050600580546001810182556000919091527f036b6384b5eca791c62761152d0c79bb0604c104a5fb6f4eb0703f3154bb3db001829055506040517f42ab459ad3144922283159073eea05ed3ff810ab23fc94bbad43d99b9332dbb29061068f9084908490614990565b60405180910390a15050565b866106a581612643565b6106c15760405162461bcd60e51b81526004016104df9061495e565b8451845111156106e35760405162461bcd60e51b81526004016104df906148de565b60006106ef8888612c09565b121561072c576000878152600b602090815260408220805460018101808355918452928290208951919361072993910191908a019061307e565b50505b60098660405161073c91906147e7565b908152604080519182900360209081018320608084018352888452838201889052918301869052606083018590528154600181018084556000938452928290208451805194959460049093029091019261079b928492909101906130fc565b5060208281015180516107b492600185019201906130fc565b50604082015180516107d091600284019160209091019061307e565b50606082015181600301555050505050505050505050565b6000546001600160a01b031633146108125760405162461bcd60e51b81526004016104df906148ee565b8161081c81612d1e565b6108385760405162461bcd60e51b81526004016104df9061490e565b816007600061084686612d3f565b60ff1660ff168152602001908152602001600020908051906020019061086d92919061307e565b50505050565b6000546001600160a01b0316331461089d5760405162461bcd60e51b81526004016104df906148ee565b806108a781612d1e565b6108c35760405162461bcd60e51b81526004016104df9061490e565b60405180602001604052806000815250600760006108e085612d3f565b60ff1660ff168152602001908152602001600020908051906020019061090792919061307e565b50506006805460ff19811660ff9182166000190190911617905550565b6000546001600160a01b0316331461094e5760405162461bcd60e51b81526004016104df906148ee565b600061095982612e29565b9050600081121561097c5760405162461bcd60e51b81526004016104df906148ae565b6000828152600160208190526040909120805460ff1916909117905560058054829081106109a657fe5b60009182526020822001555050565b600081815260016020526040902054819060ff166109e55760405162461bcd60e51b81526004016104df9061488e565b6000828152600460209081526040909120845180518693610a0a92849291019061307e565b506020828101518051610a23926001850192019061307e565b5060408201518051610a3f91600284019160209091019061307e565b5060608201518051610a5b91600384019160209091019061307e565b5060808201518051610a7791600484019160209091019061307e565b5060a08201518051610a9391600584019160209091019061307e565b5060c08201518051610aaf91600684019160209091019061307e565b5060e08201518051610acb91600784019160209091019061307e565b506101008201518051610ae891600884019160209091019061307e565b506101208201518051610b059160098401916020909101906130fc565b506101408201518051610b2291600a840191602090910190613155565b505050505050565b8060200151610b3881612643565b610b545760405162461bcd60e51b81526004016104df9061495e565b6000610b5f83612e6f565b90506000198110610b825760405162461bcd60e51b81526004016104df906148be565b602080840180516000908152600d835260408082208054600181810180845592855293869020895160049092020190815593519284019290925586015180519193879392610bd6926002850192019061307e565b50606091909101516003909101805461ffff191661ffff90921691909117905550610c00836129a4565b505050565b6000546001600160a01b03163314610c2f5760405162461bcd60e51b81526004016104df906148ee565b8181610c3b8282612f07565b610c575760405162461bcd60e51b81526004016104df906148fe565b600884604051610c6791906147e7565b9081526020016040518091039020610c7f8585612f1d565b81548110610c8957fe5b90600052602060002001600061086d91906131ae565b6060600882604051610cb191906147e7565b9081526020016040518091039020805480602002602001604051908101604052809291908181526020016000905b82821015610d8a5760008481526020908190208301805460408051601f6002600019610100600187161502019094169390930492830185900485028101850190915281815292830182828015610d765780601f10610d4b57610100808354040283529160200191610d76565b820191906000526020600020905b815481529060010190602001808311610d5957829003601f168201915b505050505081526020019060010190610cdf565b5050505090505b919050565b80604001516000600c82604051610dad91906147e7565b908152604051908190036020019020546002600019610100600184161502019091160411610ded5760405162461bcd60e51b81526004016104df9061494e565b8160200151610dfb81612643565b610e175760405162461bcd60e51b81526004016104df9061495e565b82516000818152600f602052604090205415610ec1576000610e3885612e6f565b905084600e6000876020015181526020019081526020016000208281548110610e5d57fe5b906000526020600020906004020160008201518160000155602082015181600101556040820151816002019080519060200190610e9b92919061307e565b50606091909101516003909101805461ffff191661ffff9092169190911790555061086d565b602080850180516000908152600e8352604080822080546001818101808455928552938690208a5160049092020190815593519284019290925587015180519193889392610f15926002850192019061307e565b50606091909101516003909101805461ffff191661ffff9092169190911790555050505050565b6000546001600160a01b03163314610f665760405162461bcd60e51b81526004016104df906148ee565b600080546001600160a01b0319166001600160a01b0392909216919091179055565b8160ff600882604051610f9b91906147e7565b9081526040519081900360200190205410610fc85760405162461bcd60e51b81526004016104df906148ce565b8282610fd48282612f07565b15610ff15760405162461bcd60e51b81526004016104df9061489e565b6000546001600160a01b0316331461101b5760405162461bcd60e51b81526004016104df906148ee565b60088560405161102b91906147e7565b908152604051602091819003820190208054600181018083556000928352918390208751929361106293919092019188019061307e565b50505050505050565b600060028260405160200161108091906147e7565b60408051601f198184030181529082905261109a916147e7565b602060405180830381855afa1580156110b7573d6000803e3d6000fd5b5050506040513d601f19601f820116820180604052506110da91908101906139a1565b92915050565b82826110ec8282612f07565b6111085760405162461bcd60e51b81526004016104df906148fe565b6000546001600160a01b031633146111325760405162461bcd60e51b81526004016104df906148ee565b8260088660405161114391906147e7565b908152602001604051809103902061115b8787612f1d565b8154811061116557fe5b906000526020600020019080519060200190610b2292919061307e565b6006546040805160ff9092168083526020808202840101909152606091829180156111c157816020015b60608152602001906001900390816111ac5790505b5090506000805b60065460ff610100909104811690821610156112ce5760ff811660009081526007602052604090205460026000196101006001841615020190911604156112c65760ff811660009081526007602090815260409182902080548351601f6002600019610100600186161502019093169290920491820184900484028101840190945280845290918301828280156112a05780601f10611275576101008083540402835291602001916112a0565b820191906000526020600020905b81548152906001019060200180831161128357829003601f168201915b5050505050838380600101945060ff16815181106112ba57fe5b60200260200101819052505b6001016111c8565b50909150505b90565b6112df6131f5565b6000828152600460209081526040918290208251815460026001821615610100026000190190911604601f81018490049093028101610180908101909452610160810183815290939192849284919084018282801561137f5780601f106113545761010080835404028352916020019161137f565b820191906000526020600020905b81548152906001019060200180831161136257829003601f168201915b50505050508152602001600182018054600181600116156101000203166002900480601f0160208091040260200160405190810160405280929190818152602001828054600181600116156101000203166002900480156114215780601f106113f657610100808354040283529160200191611421565b820191906000526020600020905b81548152906001019060200180831161140457829003601f168201915b5050509183525050600282810180546040805160206001841615610100026000190190931694909404601f810183900483028501830190915280845293810193908301828280156114b35780601f10611488576101008083540402835291602001916114b3565b820191906000526020600020905b81548152906001019060200180831161149657829003601f168201915b505050918352505060038201805460408051602060026001851615610100026000190190941693909304601f81018490048402820184019092528181529382019392918301828280156115475780601f1061151c57610100808354040283529160200191611547565b820191906000526020600020905b81548152906001019060200180831161152a57829003601f168201915b505050918352505060048201805460408051602060026001851615610100026000190190941693909304601f81018490048402820184019092528181529382019392918301828280156115db5780601f106115b0576101008083540402835291602001916115db565b820191906000526020600020905b8154815290600101906020018083116115be57829003601f168201915b505050918352505060058201805460408051602060026001851615610100026000190190941693909304601f810184900484028201840190925281815293820193929183018282801561166f5780601f106116445761010080835404028352916020019161166f565b820191906000526020600020905b81548152906001019060200180831161165257829003601f168201915b505050918352505060068201805460408051602060026001851615610100026000190190941693909304601f81018490048402820184019092528181529382019392918301828280156117035780601f106116d857610100808354040283529160200191611703565b820191906000526020600020905b8154815290600101906020018083116116e657829003601f168201915b505050918352505060078201805460408051602060026001851615610100026000190190941693909304601f81018490048402820184019092528181529382019392918301828280156117975780601f1061176c57610100808354040283529160200191611797565b820191906000526020600020905b81548152906001019060200180831161177a57829003601f168201915b505050918352505060088201805460408051602060026001851615610100026000190190941693909304601f810184900484028201840190925281815293820193929183018282801561182b5780601f106118005761010080835404028352916020019161182b565b820191906000526020600020905b81548152906001019060200180831161180e57829003601f168201915b5050505050815260200160098201805480602002602001604051908101604052809291908181526020016000905b828210156119045760008481526020908190208301805460408051601f60026000196101006001871615020190941693909304928301859004850281018501909152818152928301828280156118f05780601f106118c5576101008083540402835291602001916118f0565b820191906000526020600020905b8154815290600101906020018083116118d357829003601f168201915b505050505081526020019060010190611859565b505050508152602001600a8201805480602002602001604051908101604052809291908181526020016000905b82821015611a2357838290600052602060002001805480602002602001604051908101604052809291908181526020016000905b82821015611a105760008481526020908190208301805460408051601f60026000196101006001871615020190941693909304928301859004850281018501909152818152928301828280156119fc5780601f106119d1576101008083540402835291602001916119fc565b820191906000526020600020905b8154815290600101906020018083116119df57829003601f168201915b505050505081526020019060010190611965565b5050505081526020019060010190611931565b505050915250909392505050565b6000546060906001600160a01b03163314611a5e5760405162461bcd60e51b81526004016104df906148ee565b6005805480602002602001604051908101604052809291908181526020018280548015611aaa57602002820191906000526020600020905b815481526020019060010190808311611a96575b5050505050905090565b600082815260016020526040902054829060ff16611ae45760405162461bcd60e51b81526004016104df9061488e565b6000828152600160208181526040808420805460ff1990811690941790558684528084208054909316909255848352600381528183208390558583526002905280822084835291208154611b38929061324f565b506000838152600260205260408120611b509161328f565b60005b60008381526002602052604090205481101561086d578260036000600260008781526020019081526020016000208481548110611b8c57fe5b60009182526020808320909101548352820192909252604001902055600101611b53565b6060600982604051611bc291906147e7565b9081526020016040518091039020805480602002602001604051908101604052809291908181526020016000905b82821015610d8a578382906000526020600020906004020160405180608001604052908160008201805480602002602001604051908101604052809291908181526020016000905b82821015611ce35760008481526020908190208301805460408051601f6002600019610100600187161502019094169390930492830185900485028101850190915281815292830182828015611ccf5780601f10611ca457610100808354040283529160200191611ccf565b820191906000526020600020905b815481529060010190602001808311611cb257829003601f168201915b505050505081526020019060010190611c38565b50505050815260200160018201805480602002602001604051908101604052809291908181526020016000905b82821015611dbb5760008481526020908190208301805460408051601f6002600019610100600187161502019094169390930492830185900485028101850190915281815292830182828015611da75780601f10611d7c57610100808354040283529160200191611da7565b820191906000526020600020905b815481529060010190602001808311611d8a57829003601f168201915b505050505081526020019060010190611d10565b50505090825250600282810180546040805160206001841615610100026000190190931694909404601f81018390048302850183019091528084529381019390830182828015611e4c5780601f10611e2157610100808354040283529160200191611e4c565b820191906000526020600020905b815481529060010190602001808311611e2f57829003601f168201915b5050505050815260200160038201548152505081526020019060010190611bf0565b6000546001600160a01b03163314611e985760405162461bcd60e51b81526004016104df906148ee565b80611ea281612d1e565b15611ebf5760405162461bcd60e51b81526004016104df9061492e565b60065460ff6101008204811691161115611eeb5760405162461bcd60e51b81526004016104df9061493e565b60005b60065460ff61010090910481169082161015610c005760ff811660009081526007602052604090205460026000196101006001841615020190911604611f6e5760ff811660009081526007602090815260409091208451611f519286019061307e565b50506006805460ff8082166001011660ff19909116179055611f76565b600101611eee565b5050565b6000546001600160a01b031681565b80600c83604051611f9a91906147e7565b90815260200160405180910390206000820151816000019080519060200190611fc492919061307e565b506020828101518051611fdd926001850192019061307e565b5060408201518051611ff991600284019160209091019061307e565b5090505060006120098484612c09565b9050600081121561204f576000848152600b6020908152604082208054600181018083559184529282902086519193612048939101919087019061307e565b505061086d565b6000848152600b6020526040902080548491908390811061206c57fe5b90600052602060002001908051906020019061208992919061307e565b5050505050565b60608161209c81612643565b6120b85760405162461bcd60e51b81526004016104df9061495e565b6000838152600e6020908152604080832080548251818502810185019093528083529193909284015b828210156121da57838290600052602060002090600402016040518060800160405290816000820154815260200160018201548152602001600282018054600181600116156101000203166002900480601f0160208091040260200160405190810160405280929190818152602001828054600181600116156101000203166002900480156121b15780601f10612186576101008083540402835291602001916121b1565b820191906000526020600020905b81548152906001019060200180831161219457829003601f168201915b50505091835250506003919091015461ffff1660209182015290825260019290920191016120e1565b5050505091505b50919050565b6121ef6132ad565b6000828152600a60209081526040918290208251815460026001821615610100026000190190911604601f8101849004909302810160c090810190945260a0810183815290939192849284919084018282801561228d5780601f106122625761010080835404028352916020019161228d565b820191906000526020600020905b81548152906001019060200180831161227057829003601f168201915b50505050508152602001600182018054600181600116156101000203166002900480601f01602080910402602001604051908101604052809291908181526020018280546001816001161561010002031660029004801561232f5780601f106123045761010080835404028352916020019161232f565b820191906000526020600020905b81548152906001019060200180831161231257829003601f168201915b5050509183525050600282810180546040805160206001841615610100026000190190931694909404601f810183900483028501830190915280845293810193908301828280156123c15780601f10612396576101008083540402835291602001916123c1565b820191906000526020600020905b8154815290600101906020018083116123a457829003601f168201915b505050918352505060038201805460408051602060026001851615610100026000190190941693909304601f81018490048402820184019092528181529382019392918301828280156124555780601f1061242a57610100808354040283529160200191612455565b820191906000526020600020905b81548152906001019060200180831161243857829003601f168201915b505050918352505060048201805460408051602060026001851615610100026000190190941693909304601f81018490048402820184019092528181529382019392918301828280156124e95780601f106124be576101008083540402835291602001916124e9565b820191906000526020600020905b8154815290600101906020018083116124cc57829003601f168201915b5050505050815250509050919050565b60608161250581612643565b6125215760405162461bcd60e51b81526004016104df9061495e565b6000838152600d6020908152604080832080548251818502810185019093528083529193909284015b828210156121da57838290600052602060002090600402016040518060800160405290816000820154815260200160018201548152602001600282018054600181600116156101000203166002900480601f01602080910402602001604051908101604052809291908181526020018280546001816001161561010002031660029004801561261a5780601f106125ef5761010080835404028352916020019161261a565b820191906000526020600020905b8154815290600101906020018083116125fd57829003601f168201915b50505091835250506003919091015461ffff16602091820152908252600192909201910161254a565b60008181526001602052604081205460ff16806110da575050600090815260036020526040902054151590565b6000828152600a6020908152604090912082518051849361269592849291019061307e565b5060208281015180516126ae926001850192019061307e565b50604082015180516126ca91600284019160209091019061307e565b50606082015180516126e691600384019160209091019061307e565b506080820151805161208991600484019160209091019061307e565b606080600b60008481526020019081526020016000208054905060405190808252806020026020018201604052801561275557816020015b6127426132dc565b81526020019060019003908161273a5790505b50905060005b6000848152600b602052604090205481101561299d576000848152600b602052604090208054600c91908390811061278f57fe5b906000526020600020016040516127a691906147f3565b9081526040805160209281900383018120805460026001821615610100026000190190911604601f810185900490940282016080908101909352606082018481529193909284929184918401828280156128415780601f1061281657610100808354040283529160200191612841565b820191906000526020600020905b81548152906001019060200180831161282457829003601f168201915b50505050508152602001600182018054600181600116156101000203166002900480601f0160208091040260200160405190810160405280929190818152602001828054600181600116156101000203166002900480156128e35780601f106128b8576101008083540402835291602001916128e3565b820191906000526020600020905b8154815290600101906020018083116128c657829003601f168201915b5050509183525050600282810180546040805160206001841615610100026000190190931694909404601f810183900483028501830190915280845293810193908301828280156129755780601f1061294a57610100808354040283529160200191612975565b820191906000526020600020905b81548152906001019060200180831161295857829003601f168201915b50505050508152505082828151811061298a57fe5b602090810291909101015260010161275b565b5092915050565b80602001516129b281612643565b6129ce5760405162461bcd60e51b81526004016104df9061495e565b60006129d983612e6f565b905060001981106129fc5760405162461bcd60e51b81526004016104df906148be565b600e6000846020015181526020019081526020016000208181548110612a1e57fe5b6000918252602082206004909102018181556001810182905590612a4560028301826131ae565b50600301805461ffff1916905582516000908152600f602052604081208181556001810182905590612a7a60028301826131ae565b50600301805461ffff19169055505050565b612a946132fd565b600f60008381526020019081526020016000206040518060800160405290816000820154815260200160018201548152602001600282018054600181600116156101000203166002900480601f016020809104026020016040519081016040528092919081815260200182805460018160011615610100020316600290048015612b5f5780601f10612b3457610100808354040283529160200191612b5f565b820191906000526020600020905b815481529060010190602001808311612b4257829003601f168201915b50505091835250506003919091015461ffff1660209091015292915050565b600082815260016020526040902054829060ff16612bae5760405162461bcd60e51b81526004016104df9061488e565b60008281526003602052604090205415612bda5760405162461bcd60e51b81526004016104df9061487e565b506000828152600260209081526040808320805460018101825590845282842001849055928252600390522055565b6000805b6000848152600b60205260409020546001600160801b0382161015612d1357612c3583612f9b565b6000858152600b602052604090208054612cf591906001600160801b038516908110612c5d57fe5b600091825260209182902001805460408051601f6002600019610100600187161502019094169390930492830185900485028101850190915281815292830182828015612ceb5780601f10612cc057610100808354040283529160200191612ceb565b820191906000526020600020905b815481529060010190602001808311612cce57829003601f168201915b5050505050612f9b565b1415612d0b576001600160801b031690506110da565b600101612c0d565b506000199392505050565b600654600090610100900460ff16612d3583612d3f565b60ff161092915050565b600080612d4b83612f9b565b905060005b60065460ff61010090910481169082161015612e1f5760ff81166000908152600760205260409020546002600019610100600184161502019091160415801590612e09575060ff81166000908152600760209081526040918290208054835160026001831615610100026000190190921691909104601f81018490048402820184019094528381528593612e0793919291830182828015612ceb5780601f10612cc057610100808354040283529160200191612ceb565b145b15612e17579150610d919050565b600101612d50565b5060ff9392505050565b6000805b600554811015612e65578260058281548110612e4557fe5b90600052602060002001541415612e5d579050610d91565b600101612e2d565b5060001992915050565b60008160200151612e7f81612643565b612e9b5760405162461bcd60e51b81526004016104df9061495e565b60005b6020808501516000908152600e9091526040902054811015612d1357612ef384600e6000876020015181526020019081526020016000208381548110612ee057fe5b9060005260206000209060040201612fcb565b15612eff5791506121e1565b600101612e9e565b600060ff612f158484612f1d565b109392505050565b6000805b600884604051612f3191906147e7565b9081526040519081900360200190205460ff82161015612e1f57612f5483612f9b565b612f83600886604051612f6791906147e7565b90815260200160405180910390208360ff1681548110612c5d57fe5b1415612f935760ff1690506110da565b600101612f21565b600081604051602001612fae91906147e7565b604051602081830303815290604052805190602001209050919050565b80548251600091148015612fe6575081600101548360200151145b801561305c5750600282810180546040805160206001841615610100026000190190931694909404601f810183900483028501830190915280845261304d939291830182828015612ceb5780601f10612cc057610100808354040283529160200191612ceb565b61305a8460400151612f9b565b145b801561307757506003820154606084015161ffff9081169116145b9392505050565b828054600181600116156101000203166002900490600052602060002090601f016020900481019282601f106130bf57805160ff19168380011785556130ec565b828001600101855582156130ec579182015b828111156130ec5782518255916020019190600101906130d1565b506130f8929150613325565b5090565b828054828255906000526020600020908101928215613149579160200282015b82811115613149578251805161313991849160209091019061307e565b509160200191906001019061311c565b506130f892915061333f565b8280548282559060005260206000209081019282156131a2579160200282015b828111156131a257825180516131929184916020909101906130fc565b5091602001919060010190613175565b506130f8929150613362565b50805460018160011615610100020316600290046000825580601f106131d457506131f2565b601f0160209004906000526020600020908101906131f29190613325565b50565b60405180610160016040528060608152602001606081526020016060815260200160608152602001606081526020016060815260200160608152602001606081526020016060815260200160608152602001606081525090565b8280548282559060005260206000209081019282156130ec5760005260206000209182015b828111156130ec578254825591600101919060010190613274565b50805460008255906000526020600020908101906131f29190613325565b6040518060a0016040528060608152602001606081526020016060815260200160608152602001606081525090565b60405180606001604052806060815260200160608152602001606081525090565b6040805160808101825260008082526020820181905260609282018390529181019190915290565b6112d491905b808211156130f8576000815560010161332b565b6112d491905b808211156130f857600061335982826131ae565b50600101613345565b6112d491905b808211156130f857600061337c8282613385565b50600101613368565b50805460008255906000526020600020908101906131f2919061333f565b80356110da81614ab2565b600082601f8301126133bf57600080fd5b81356133d26133cd826149e7565b6149c1565b81815260209384019390925082018360005b8381101561341057813586016133fa888261341a565b84525060209283019291909101906001016133e4565b5050505092915050565b600082601f83011261342b57600080fd5b81356134396133cd826149e7565b81815260209384019390925082018360005b83811015613410578135860161346188826134ea565b845250602092830192919091019060010161344b565b600082601f83011261348857600080fd5b81356134966133cd826149e7565b81815260209384019390925082018360005b8381101561341057813586016134be88826134ea565b84525060209283019291909101906001016134a8565b80356110da81614ac6565b80516110da81614ac6565b600082601f8301126134fb57600080fd5b81356135096133cd82614a07565b9150808252602083016020830185838301111561352557600080fd5b613530838284614a70565b50505092915050565b60006080828403121561354b57600080fd5b61355560806149c1565b9050600061356384846134d4565b8252506020613574848483016134d4565b60208301525060408201356001600160401b0381111561359357600080fd5b61359f848285016134ea565b60408301525060606135b384828501613952565b60608301525092915050565b6000606082840312156135d157600080fd5b6135db60606149c1565b905081356001600160401b038111156135f357600080fd5b6135ff848285016134ea565b82525060208201356001600160401b0381111561361b57600080fd5b613627848285016134ea565b60208301525060408201356001600160401b0381111561364657600080fd5b613652848285016134ea565b60408301525092915050565b6000610160828403121561367157600080fd5b61367c6101606149c1565b905081356001600160401b0381111561369457600080fd5b6136a0848285016134ea565b82525060208201356001600160401b038111156136bc57600080fd5b6136c8848285016134ea565b60208301525060408201356001600160401b038111156136e757600080fd5b6136f3848285016134ea565b60408301525060608201356001600160401b0381111561371257600080fd5b61371e848285016134ea565b60608301525060808201356001600160401b0381111561373d57600080fd5b613749848285016134ea565b60808301525060a08201356001600160401b0381111561376857600080fd5b613774848285016134ea565b60a08301525060c08201356001600160401b0381111561379357600080fd5b61379f848285016134ea565b60c08301525060e08201356001600160401b038111156137be57600080fd5b6137ca848285016134ea565b60e0830152506101008201356001600160401b038111156137ea57600080fd5b6137f6848285016134ea565b610100830152506101208201356001600160401b0381111561381757600080fd5b6138238482850161341a565b610120830152506101408201356001600160401b0381111561384457600080fd5b613850848285016133ae565b6101408301525092915050565b600060a0828403121561386f57600080fd5b61387960a06149c1565b905081356001600160401b0381111561389157600080fd5b61389d848285016134ea565b82525060208201356001600160401b038111156138b957600080fd5b6138c5848285016134ea565b60208301525060408201356001600160401b038111156138e457600080fd5b6138f0848285016134ea565b60408301525060608201356001600160401b0381111561390f57600080fd5b61391b848285016134ea565b60608301525060808201356001600160401b0381111561393a57600080fd5b613946848285016134ea565b60808301525092915050565b80356110da81614acf565b60006020828403121561396f57600080fd5b600061397b84846133a3565b949350505050565b60006020828403121561399557600080fd5b600061397b84846134d4565b6000602082840312156139b357600080fd5b600061397b84846134df565b600080604083850312156139d257600080fd5b60006139de85856134d4565b92505060206139ef858286016134d4565b9150509250929050565b600080600080600080600060e0888a031215613a1457600080fd5b6000613a208a8a6134d4565b9750506020613a318a828b016134d4565b96505060408801356001600160401b03811115613a4d57600080fd5b613a598a828b016134ea565b95505060608801356001600160401b03811115613a7557600080fd5b613a818a828b01613477565b94505060808801356001600160401b03811115613a9d57600080fd5b613aa98a828b01613477565b93505060a08801356001600160401b03811115613ac557600080fd5b613ad18a828b016134ea565b92505060c0613ae28a828b016134d4565b91505092959891949750929550565b600080600060608486031215613b0657600080fd5b6000613b1286866134d4565b93505060208401356001600160401b03811115613b2e57600080fd5b613b3a868287016134ea565b92505060408401356001600160401b03811115613b5657600080fd5b613b62868287016135bf565b9150509250925092565b60008060408385031215613b7f57600080fd5b6000613b8b85856134d4565b92505060208301356001600160401b03811115613ba757600080fd5b6139ef8582860161385d565b600060208284031215613bc557600080fd5b81356001600160401b03811115613bdb57600080fd5b61397b848285016134ea565b60008060408385031215613bfa57600080fd5b82356001600160401b03811115613c1057600080fd5b613c1c858286016134ea565b92505060208301356001600160401b03811115613c3857600080fd5b6139ef858286016134ea565b600080600060608486031215613c5957600080fd5b83356001600160401b03811115613c6f57600080fd5b613c7b868287016134ea565b93505060208401356001600160401b03811115613c9757600080fd5b613ca3868287016134ea565b92505060408401356001600160401b03811115613cbf57600080fd5b613b62868287016134ea565b600060208284031215613cdd57600080fd5b81356001600160401b03811115613cf357600080fd5b61397b84828501613539565b60008060408385031215613d1257600080fd5b82356001600160401b03811115613d2857600080fd5b6139de8582860161365e565b60006130778383613ebb565b6000613d4c8383614048565b505060200190565b60006130778383614080565b60006130778383614529565b60006130778383614585565b600061307783836146fd565b613d8d81614a4d565b82525050565b6000613d9e82614a40565b613da88185614a44565b935083602082028501613dba85614a2e565b8060005b85811015613df45784840389528151613dd78582613d34565b9450613de283614a2e565b60209a909a0199925050600101613dbe565b5091979650505050505050565b6000613e0c82614a40565b613e168185614a44565b9350613e2183614a2e565b8060005b83811015613e4f578151613e398882613d40565b9750613e4483614a2e565b925050600101613e25565b509495945050505050565b6000613e6582614a40565b613e6f8185614a44565b935083602082028501613e8185614a2e565b8060005b85811015613df45784840389528151613e9e8582613d54565b9450613ea983614a2e565b60209a909a0199925050600101613e85565b6000613ec682614a40565b613ed08185614a44565b935083602082028501613ee285614a2e565b8060005b85811015613df45784840389528151613eff8582613d54565b9450613f0a83614a2e565b60209a909a0199925050600101613ee6565b6000613f2782614a40565b613f318185614a44565b935083602082028501613f4385614a2e565b8060005b85811015613df45784840389528151613f608582613d60565b9450613f6b83614a2e565b60209a909a0199925050600101613f47565b6000613f8882614a40565b613f928185614a44565b935083602082028501613fa485614a2e565b8060005b85811015613df45784840389528151613fc18582613d6c565b9450613fcc83614a2e565b60209a909a0199925050600101613fa8565b6000613fe982614a40565b613ff38185614a44565b93508360208202850161400585614a2e565b8060005b85811015613df457848403895281516140228582613d78565b945061402d83614a2e565b60209a909a0199925050600101614009565b613d8d81614a58565b613d8d816112d4565b600061405c82614a40565b6140668185610d91565b9350614076818560208601614a7c565b9290920192915050565b600061408b82614a40565b6140958185614a44565b93506140a5818560208601614a7c565b6140ae81614aa8565b9093019392505050565b6000815460018116600081146140d557600181146140f857614137565b607f60028304166140e68187610d91565b60ff1984168152955085019250614137565b600282046141068187610d91565b955061411185614a34565b60005b8281101561413057815488820152600190910190602001614114565b5050850192505b505092915050565b600061414c602183614a44565b7f5468617420656d706c6f79656520616c726561647920776f726b7320746865728152606560f81b602082015260400192915050565b600061418f602983614a44565b7f596f75206d7573742062652061206465616c657273686970206f776e657220748152686f20646f207468697360b81b602082015260400192915050565b60006141da601e83614a44565b7f54686174207375627365727669636520616c7265616479206578697374730000815260200192915050565b6000614213602183614a44565b7f4e6f206170706c69636174696f6e2065786973747320666f72207468617420698152601960fa1b602082015260400192915050565b6000614256601f83614a44565b7f54686174206170706f696e746d656e7420646f6573206e6f7420657869737400815260200192915050565b600061428f602183614a44565b7f4d6178696d756d207375627365727669636520616d6f756e74207265616368658152601960fa1b602082015260400192915050565b60006142d2603383614a44565b7f4e756d626572206f6620737562736572766963657320646f6573206e6f74206d8152720c2e8c6d040e6cae4ecd2c6ca40d8cadccee8d606b1b602082015260400192915050565b6000614327601583614a44565b742cb7ba9030b932903737ba103a34329037bbb732b960591b815260200192915050565b6000614358602c83614a44565b7f54686174207375627365727669636520646f65736e7420657869737420696e2081526b1d1a1a5cc818dbdb9d195e1d60a21b602082015260400192915050565b60006143a6601b83614a44565b7f54686174207365727669636520646f6573206e6f742065786973740000000000815260200192915050565b60006143df602283614a44565b7f54686174206164647265737320697320616c7265616479207265676973746572815261195960f21b602082015260400192915050565b6000614423601b83614a44565b7f54686174207365727669636520616c7265616479206578697374730000000000815260200192915050565b600061445c602883614a44565b7f54686572652061726520746865206d6178696d756d206e756d626572206f6620815267736572766963657360c01b602082015260400192915050565b60006144a6602483614a44565b7f546861742063617220646f6573206e6f7420657869737420696e2074686520638152633430b4b760e11b602082015260400192915050565b60006144ec602883614a44565b7f596f75206d7573742062652061207665726966696564206465616c657220746f81526720646f207468697360c01b602082015260400192915050565b8051600090608084019061453d8582614048565b5060208301516145506020860182614048565b50604083015184820360408601526145688282614080565b915050606083015161457d60608601826147de565b509392505050565b805160608084526000919084019061459d8282614080565b915050602083015184820360208601526145b78282614080565b915050604083015184820360408601526145d18282614080565b95945050505050565b8051610160808452600091908401906145f38282614080565b9150506020830151848203602086015261460d8282614080565b915050604083015184820360408601526146278282614080565b915050606083015184820360608601526146418282614080565b9150506080830151848203608086015261465b8282614080565b91505060a083015184820360a08601526146758282614080565b91505060c083015184820360c086015261468f8282614080565b91505060e083015184820360e08601526146a98282614080565b9150506101008301518482036101008601526146c58282614080565b9150506101208301518482036101208601526146e18282613ebb565b9150506101408301518482036101408601526145d18282613d93565b80516080808452600091908401906147158282613ebb565b9150506020830151848203602086015261472f8282613ebb565b915050604083015184820360408601526147498282614080565b915050606083015161457d6060860182614048565b805160a0808452600091908401906147768282614080565b915050602083015184820360208601526147908282614080565b915050604083015184820360408601526147aa8282614080565b915050606083015184820360608601526147c48282614080565b915050608083015184820360808601526145d18282614080565b613d8d81614a5d565b60006130778284614051565b600061307782846140b8565b602081016110da8284613d84565b602080825281016130778184613e01565b602080825281016130778184613e5a565b602080825281016130778184613f1c565b602080825281016130778184613f7d565b602080825281016130778184613fde565b602081016110da828461403f565b602081016110da8284614048565b602080825281016110da8161413f565b602080825281016110da81614182565b602080825281016110da816141cd565b602080825281016110da81614206565b602080825281016110da81614249565b602080825281016110da81614282565b602080825281016110da816142c5565b602080825281016110da8161431a565b602080825281016110da8161434b565b602080825281016110da81614399565b602080825281016110da816143d2565b602080825281016110da81614416565b602080825281016110da8161444f565b602080825281016110da81614499565b602080825281016110da816144df565b602080825281016130778184614529565b6020808252810161307781846145da565b604080825281016149a181856145da565b90506130776020830184614048565b60208082528101613077818461475e565b6040518181016001600160401b03811182821017156149df57600080fd5b604052919050565b60006001600160401b038211156149fd57600080fd5b5060209081020190565b60006001600160401b03821115614a1d57600080fd5b506020601f91909101601f19160190565b60200190565b60009081526020902090565b5190565b90815260200190565b60006110da82614a64565b151590565b61ffff1690565b6001600160a01b031690565b82818337506000910152565b60005b83811015614a97578181015183820152602001614a7f565b8381111561086d5750506000910152565b601f01601f191690565b614abb81614a4d565b81146131f257600080fd5b614abb816112d4565b614abb81614a5d56fea365627a7a723158204f306da40f394723ac15bd91790c95d20472f2e83a748a69ba5e45ba9c29984b6c6578706572696d656e74616cf564736f6c634300050c0040",
  "source": "pragma solidity ^0.5.11;\npragma experimental ABIEncoderV2;\n\nimport \"./UserContract.sol\";\n\ncontract AppointmentHandler is UserContract {\n\n    struct Appointment{\n        bytes32 userId;\n        bytes32 dealerId;\n        string carPlate;\n        uint16 time; //YYYYMMDDHH format (Year/Month/Day/Hour)\n    }\n\n    mapping(bytes32 => Appointment[]) dealerAppointmentHistory;\n    mapping(bytes32 => Appointment[]) activeAppointments;\n    mapping(bytes32 => Appointment) userAppointment;\n\n    function isSameAppointment(Appointment memory a, Appointment storage o) internal view returns (bool) {\n        return a.userId == o.userId && a.dealerId == o.dealerId && encode(a.carPlate) == encode(o.carPlate) && a.time == o.time;\n    }\n\n    function getIndexOfAppointment(Appointment memory appointment) internal verified(appointment.dealerId) view returns(uint){\n        for(uint i = 0; i < activeAppointments[appointment.dealerId].length; i++){\n            if(isSameAppointment(appointment,activeAppointments[appointment.dealerId][i])){\n                return i;\n            }\n        }\n        return uint(-1);\n    }\n\n    function createAppointment(Appointment memory appointment) public carExists(appointment.carPlate) verified(appointment.dealerId) {\n        bytes32 userId = appointment.userId;\n        if(userAppointment[userId].userId != 0){\n            uint aIndex = getIndexOfAppointment(appointment);\n            activeAppointments[appointment.dealerId][aIndex] = appointment;\n        }\n        else{\n            activeAppointments[appointment.dealerId].push(appointment);\n        }\n    }\n\n    function completeAppointment(Appointment memory appointment) public verified(appointment.dealerId) {\n        uint aIndex = getIndexOfAppointment(appointment);\n        require(aIndex < uint(-1),\"That appointment does not exist\");\n        //TODO Change time to completed time (Need date time library or smth)\n        dealerAppointmentHistory[appointment.dealerId].push(appointment);\n        cancelAppointment(appointment);\n    }\n\n    function cancelAppointment(Appointment memory appointment) public verified(appointment.dealerId) {\n        uint aIndex = getIndexOfAppointment(appointment);\n        require(aIndex < uint(-1),\"That appointment does not exist\");\n        delete activeAppointments[appointment.dealerId][aIndex];\n        delete userAppointment[appointment.userId];\n    }\n\n    function getAppointmentHistory(bytes32 dealerId) public view verified(dealerId) returns (Appointment[] memory){\n        return dealerAppointmentHistory[dealerId];\n    }\n\n    function getPendingAppointments(bytes32 dealerId) public view verified(dealerId) returns (Appointment[] memory){\n        return activeAppointments[dealerId];\n    }\n\n    function getUserAppointment(bytes32 userId) public view returns (Appointment memory) {\n        return userAppointment[userId];\n    }\n}",
  "sourcePath": "/Users/natwit/repos/blockchain-project-2019/contracts/AppointmentHandler.sol",
  "compiler": {
    "name": "solc",
    "version": "0.5.12+commit.7709ece9.Emscripten.clang"
  },
  "schemaVersion": "3.0.19",
  "updatedAt": "2019-11-26T15:19:25.049Z",
  "networkType": "ethereum",
  "devdoc": {
    "methods": {}
  },
  "userdoc": {
    "methods": {}
  }
}