{
  "contractName": "AppointmentHandler",
  "abi": [
    {
      "anonymous": false,
      "inputs": [
        {
          "components": [
            {
              "internalType": "string",
              "name": "dealerName",
              "type": "string"
            },
            {
              "internalType": "string",
              "name": "firstName",
              "type": "string"
            },
            {
              "internalType": "string",
              "name": "lastName",
              "type": "string"
            },
            {
              "internalType": "string",
              "name": "addr",
              "type": "string"
            },
            {
              "internalType": "string[2]",
              "name": "location",
              "type": "string[2]"
            },
            {
              "internalType": "string",
              "name": "phoneNo",
              "type": "string"
            },
            {
              "internalType": "string",
              "name": "bestSeller",
              "type": "string"
            },
            {
              "internalType": "string",
              "name": "promotion",
              "type": "string"
            },
            {
              "internalType": "string",
              "name": "otherServices",
              "type": "string"
            },
            {
              "internalType": "string[]",
              "name": "availableServices",
              "type": "string[]"
            },
            {
              "internalType": "string[][]",
              "name": "availableSubServices",
              "type": "string[][]"
            }
          ],
          "indexed": false,
          "internalType": "struct DealerContract.DealerInfo",
          "name": "info",
          "type": "tuple"
        },
        {
          "indexed": false,
          "internalType": "bytes32",
          "name": "id",
          "type": "bytes32"
        }
      ],
      "name": "ApplicationApproved",
      "type": "event"
    },
    {
      "anonymous": false,
      "inputs": [
        {
          "components": [
            {
              "internalType": "string",
              "name": "dealerName",
              "type": "string"
            },
            {
              "internalType": "string",
              "name": "firstName",
              "type": "string"
            },
            {
              "internalType": "string",
              "name": "lastName",
              "type": "string"
            },
            {
              "internalType": "string",
              "name": "addr",
              "type": "string"
            },
            {
              "internalType": "string[2]",
              "name": "location",
              "type": "string[2]"
            },
            {
              "internalType": "string",
              "name": "phoneNo",
              "type": "string"
            },
            {
              "internalType": "string",
              "name": "bestSeller",
              "type": "string"
            },
            {
              "internalType": "string",
              "name": "promotion",
              "type": "string"
            },
            {
              "internalType": "string",
              "name": "otherServices",
              "type": "string"
            },
            {
              "internalType": "string[]",
              "name": "availableServices",
              "type": "string[]"
            },
            {
              "internalType": "string[][]",
              "name": "availableSubServices",
              "type": "string[][]"
            }
          ],
          "indexed": false,
          "internalType": "struct DealerContract.DealerInfo",
          "name": "info",
          "type": "tuple"
        },
        {
          "indexed": false,
          "internalType": "bytes32",
          "name": "id",
          "type": "bytes32"
        }
      ],
      "name": "ApplicationRejected",
      "type": "event"
    },
    {
      "anonymous": false,
      "inputs": [
        {
          "components": [
            {
              "internalType": "string",
              "name": "dealerName",
              "type": "string"
            },
            {
              "internalType": "string",
              "name": "firstName",
              "type": "string"
            },
            {
              "internalType": "string",
              "name": "lastName",
              "type": "string"
            },
            {
              "internalType": "string",
              "name": "addr",
              "type": "string"
            },
            {
              "internalType": "string[2]",
              "name": "location",
              "type": "string[2]"
            },
            {
              "internalType": "string",
              "name": "phoneNo",
              "type": "string"
            },
            {
              "internalType": "string",
              "name": "bestSeller",
              "type": "string"
            },
            {
              "internalType": "string",
              "name": "promotion",
              "type": "string"
            },
            {
              "internalType": "string",
              "name": "otherServices",
              "type": "string"
            },
            {
              "internalType": "string[]",
              "name": "availableServices",
              "type": "string[]"
            },
            {
              "internalType": "string[][]",
              "name": "availableSubServices",
              "type": "string[][]"
            }
          ],
          "indexed": false,
          "internalType": "struct DealerContract.DealerInfo",
          "name": "info",
          "type": "tuple"
        },
        {
          "indexed": false,
          "internalType": "bytes32",
          "name": "id",
          "type": "bytes32"
        }
      ],
      "name": "CreateDealerApplication",
      "type": "event"
    },
    {
      "constant": false,
      "inputs": [
        {
          "internalType": "bytes32",
          "name": "dealerId",
          "type": "bytes32"
        },
        {
          "internalType": "bytes32",
          "name": "adr",
          "type": "bytes32"
        }
      ],
      "name": "addDealerEmployee",
      "outputs": [],
      "payable": false,
      "stateMutability": "nonpayable",
      "type": "function"
    },
    {
      "constant": false,
      "inputs": [
        {
          "internalType": "string",
          "name": "serviceName",
          "type": "string"
        }
      ],
      "name": "addService",
      "outputs": [],
      "payable": false,
      "stateMutability": "nonpayable",
      "type": "function"
    },
    {
      "constant": false,
      "inputs": [
        {
          "internalType": "string",
          "name": "serviceName",
          "type": "string"
        },
        {
          "internalType": "string",
          "name": "subServiceName",
          "type": "string"
        }
      ],
      "name": "addSubService",
      "outputs": [],
      "payable": false,
      "stateMutability": "nonpayable",
      "type": "function"
    },
    {
      "constant": false,
      "inputs": [
        {
          "internalType": "bytes32",
          "name": "adr",
          "type": "bytes32"
        }
      ],
      "name": "approveApplication",
      "outputs": [],
      "payable": false,
      "stateMutability": "nonpayable",
      "type": "function"
    },
    {
      "constant": false,
      "inputs": [
        {
          "components": [
            {
              "internalType": "string",
              "name": "dealerName",
              "type": "string"
            },
            {
              "internalType": "string",
              "name": "firstName",
              "type": "string"
            },
            {
              "internalType": "string",
              "name": "lastName",
              "type": "string"
            },
            {
              "internalType": "string",
              "name": "addr",
              "type": "string"
            },
            {
              "internalType": "string[2]",
              "name": "location",
              "type": "string[2]"
            },
            {
              "internalType": "string",
              "name": "phoneNo",
              "type": "string"
            },
            {
              "internalType": "string",
              "name": "bestSeller",
              "type": "string"
            },
            {
              "internalType": "string",
              "name": "promotion",
              "type": "string"
            },
            {
              "internalType": "string",
              "name": "otherServices",
              "type": "string"
            },
            {
              "internalType": "string[]",
              "name": "availableServices",
              "type": "string[]"
            },
            {
              "internalType": "string[][]",
              "name": "availableSubServices",
              "type": "string[][]"
            }
          ],
          "internalType": "struct DealerContract.DealerInfo",
          "name": "info",
          "type": "tuple"
        },
        {
          "internalType": "bytes32",
          "name": "id",
          "type": "bytes32"
        }
      ],
      "name": "createDealerApplication",
      "outputs": [],
      "payable": false,
      "stateMutability": "nonpayable",
      "type": "function"
    },
    {
      "constant": false,
      "inputs": [
        {
          "internalType": "string",
          "name": "serviceName",
          "type": "string"
        }
      ],
      "name": "deleteService",
      "outputs": [],
      "payable": false,
      "stateMutability": "nonpayable",
      "type": "function"
    },
    {
      "constant": false,
      "inputs": [
        {
          "internalType": "string",
          "name": "serviceName",
          "type": "string"
        },
        {
          "internalType": "string",
          "name": "subServiceName",
          "type": "string"
        }
      ],
      "name": "deleteSubService",
      "outputs": [],
      "payable": false,
      "stateMutability": "nonpayable",
      "type": "function"
    },
    {
      "constant": false,
      "inputs": [
        {
          "internalType": "bytes32",
          "name": "userId",
          "type": "bytes32"
        },
        {
          "internalType": "string",
          "name": "noPlate",
          "type": "string"
        },
        {
          "components": [
            {
              "internalType": "string",
              "name": "brand",
              "type": "string"
            },
            {
              "internalType": "string",
              "name": "model",
              "type": "string"
            },
            {
              "internalType": "string",
              "name": "year",
              "type": "string"
            }
          ],
          "internalType": "struct UserContract.CarInfo",
          "name": "carInfo",
          "type": "tuple"
        }
      ],
      "name": "editCarDetails",
      "outputs": [],
      "payable": false,
      "stateMutability": "nonpayable",
      "type": "function"
    },
    {
      "constant": false,
      "inputs": [
        {
          "components": [
            {
              "internalType": "string",
              "name": "dealerName",
              "type": "string"
            },
            {
              "internalType": "string",
              "name": "firstName",
              "type": "string"
            },
            {
              "internalType": "string",
              "name": "lastName",
              "type": "string"
            },
            {
              "internalType": "string",
              "name": "addr",
              "type": "string"
            },
            {
              "internalType": "string[2]",
              "name": "location",
              "type": "string[2]"
            },
            {
              "internalType": "string",
              "name": "phoneNo",
              "type": "string"
            },
            {
              "internalType": "string",
              "name": "bestSeller",
              "type": "string"
            },
            {
              "internalType": "string",
              "name": "promotion",
              "type": "string"
            },
            {
              "internalType": "string",
              "name": "otherServices",
              "type": "string"
            },
            {
              "internalType": "string[]",
              "name": "availableServices",
              "type": "string[]"
            },
            {
              "internalType": "string[][]",
              "name": "availableSubServices",
              "type": "string[][]"
            }
          ],
          "internalType": "struct DealerContract.DealerInfo",
          "name": "info",
          "type": "tuple"
        },
        {
          "internalType": "bytes32",
          "name": "id",
          "type": "bytes32"
        }
      ],
      "name": "editDealerInfo",
      "outputs": [],
      "payable": false,
      "stateMutability": "nonpayable",
      "type": "function"
    },
    {
      "constant": false,
      "inputs": [
        {
          "internalType": "string",
          "name": "oldName",
          "type": "string"
        },
        {
          "internalType": "string",
          "name": "newName",
          "type": "string"
        }
      ],
      "name": "editServiceName",
      "outputs": [],
      "payable": false,
      "stateMutability": "nonpayable",
      "type": "function"
    },
    {
      "constant": false,
      "inputs": [
        {
          "internalType": "string",
          "name": "serviceName",
          "type": "string"
        },
        {
          "internalType": "string",
          "name": "oldName",
          "type": "string"
        },
        {
          "internalType": "string",
          "name": "newName",
          "type": "string"
        }
      ],
      "name": "editSubServiceName",
      "outputs": [],
      "payable": false,
      "stateMutability": "nonpayable",
      "type": "function"
    },
    {
      "constant": false,
      "inputs": [
        {
          "internalType": "bytes32",
          "name": "userId",
          "type": "bytes32"
        },
        {
          "components": [
            {
              "internalType": "string",
              "name": "firstName",
              "type": "string"
            },
            {
              "internalType": "string",
              "name": "lastName",
              "type": "string"
            },
            {
              "internalType": "string",
              "name": "adr",
              "type": "string"
            },
            {
              "internalType": "string",
              "name": "phNo",
              "type": "string"
            },
            {
              "internalType": "string",
              "name": "email",
              "type": "string"
            }
          ],
          "internalType": "struct UserContract.UserInfo",
          "name": "info",
          "type": "tuple"
        }
      ],
      "name": "editUserInfo",
      "outputs": [],
      "payable": false,
      "stateMutability": "nonpayable",
      "type": "function"
    },
    {
      "constant": true,
      "inputs": [],
      "name": "getAllDealerApplications",
      "outputs": [
        {
          "internalType": "bytes32[]",
          "name": "",
          "type": "bytes32[]"
        }
      ],
      "payable": false,
      "stateMutability": "view",
      "type": "function"
    },
    {
      "constant": true,
      "inputs": [],
      "name": "getAllUsers",
      "outputs": [
        {
          "internalType": "bytes32[]",
          "name": "",
          "type": "bytes32[]"
        }
      ],
      "payable": false,
      "stateMutability": "view",
      "type": "function"
    },
    {
      "constant": true,
      "inputs": [
        {
          "internalType": "string",
          "name": "noPlate",
          "type": "string"
        }
      ],
      "name": "getCarDetails",
      "outputs": [
        {
          "components": [
            {
              "internalType": "string",
              "name": "brand",
              "type": "string"
            },
            {
              "internalType": "string",
              "name": "model",
              "type": "string"
            },
            {
              "internalType": "string",
              "name": "year",
              "type": "string"
            }
          ],
          "internalType": "struct UserContract.CarInfo",
          "name": "",
          "type": "tuple"
        }
      ],
      "payable": false,
      "stateMutability": "view",
      "type": "function"
    },
    {
      "constant": true,
      "inputs": [
        {
          "internalType": "bytes32",
          "name": "userId",
          "type": "bytes32"
        }
      ],
      "name": "getCarPlates",
      "outputs": [
        {
          "internalType": "string[]",
          "name": "",
          "type": "string[]"
        }
      ],
      "payable": false,
      "stateMutability": "view",
      "type": "function"
    },
    {
      "constant": true,
      "inputs": [
        {
          "internalType": "bytes32",
          "name": "userId",
          "type": "bytes32"
        }
      ],
      "name": "getCars",
      "outputs": [
        {
          "components": [
            {
              "internalType": "string",
              "name": "brand",
              "type": "string"
            },
            {
              "internalType": "string",
              "name": "model",
              "type": "string"
            },
            {
              "internalType": "string",
              "name": "year",
              "type": "string"
            }
          ],
          "internalType": "struct UserContract.CarInfo[]",
          "name": "",
          "type": "tuple[]"
        }
      ],
      "payable": false,
      "stateMutability": "view",
      "type": "function"
    },
    {
      "constant": true,
      "inputs": [
        {
          "internalType": "bytes32",
          "name": "id",
          "type": "bytes32"
        }
      ],
      "name": "getDealerInfo",
      "outputs": [
        {
          "components": [
            {
              "internalType": "string",
              "name": "dealerName",
              "type": "string"
            },
            {
              "internalType": "string",
              "name": "firstName",
              "type": "string"
            },
            {
              "internalType": "string",
              "name": "lastName",
              "type": "string"
            },
            {
              "internalType": "string",
              "name": "addr",
              "type": "string"
            },
            {
              "internalType": "string[2]",
              "name": "location",
              "type": "string[2]"
            },
            {
              "internalType": "string",
              "name": "phoneNo",
              "type": "string"
            },
            {
              "internalType": "string",
              "name": "bestSeller",
              "type": "string"
            },
            {
              "internalType": "string",
              "name": "promotion",
              "type": "string"
            },
            {
              "internalType": "string",
              "name": "otherServices",
              "type": "string"
            },
            {
              "internalType": "string[]",
              "name": "availableServices",
              "type": "string[]"
            },
            {
              "internalType": "string[][]",
              "name": "availableSubServices",
              "type": "string[][]"
            }
          ],
          "internalType": "struct DealerContract.DealerInfo",
          "name": "",
          "type": "tuple"
        }
      ],
      "payable": false,
      "stateMutability": "view",
      "type": "function"
    },
    {
      "constant": true,
      "inputs": [
        {
          "internalType": "string",
          "name": "id",
          "type": "string"
        }
      ],
      "name": "getHash",
      "outputs": [
        {
          "internalType": "bytes32",
          "name": "",
          "type": "bytes32"
        }
      ],
      "payable": false,
      "stateMutability": "pure",
      "type": "function"
    },
    {
      "constant": true,
      "inputs": [
        {
          "internalType": "string",
          "name": "noPlate",
          "type": "string"
        }
      ],
      "name": "getRecords",
      "outputs": [
        {
          "components": [
            {
              "internalType": "bytes32",
              "name": "dealerId",
              "type": "bytes32"
            },
            {
              "internalType": "string[]",
              "name": "services",
              "type": "string[]"
            },
            {
              "internalType": "string[]",
              "name": "subservices",
              "type": "string[]"
            },
            {
              "internalType": "string",
              "name": "comment",
              "type": "string"
            },
            {
              "internalType": "uint256",
              "name": "timeStamp",
              "type": "uint256"
            }
          ],
          "internalType": "struct UserContract.RecordInternal[]",
          "name": "",
          "type": "tuple[]"
        }
      ],
      "payable": false,
      "stateMutability": "view",
      "type": "function"
    },
    {
      "constant": true,
      "inputs": [],
      "name": "getServices",
      "outputs": [
        {
          "internalType": "string[]",
          "name": "",
          "type": "string[]"
        }
      ],
      "payable": false,
      "stateMutability": "view",
      "type": "function"
    },
    {
      "constant": true,
      "inputs": [
        {
          "internalType": "string",
          "name": "serviceName",
          "type": "string"
        }
      ],
      "name": "getSubServices",
      "outputs": [
        {
          "internalType": "string[]",
          "name": "",
          "type": "string[]"
        }
      ],
      "payable": false,
      "stateMutability": "view",
      "type": "function"
    },
    {
      "constant": true,
      "inputs": [
        {
          "internalType": "bytes32",
          "name": "userId",
          "type": "bytes32"
        }
      ],
      "name": "getUserInfo",
      "outputs": [
        {
          "components": [
            {
              "internalType": "string",
              "name": "firstName",
              "type": "string"
            },
            {
              "internalType": "string",
              "name": "lastName",
              "type": "string"
            },
            {
              "internalType": "string",
              "name": "adr",
              "type": "string"
            },
            {
              "internalType": "string",
              "name": "phNo",
              "type": "string"
            },
            {
              "internalType": "string",
              "name": "email",
              "type": "string"
            }
          ],
          "internalType": "struct UserContract.UserInfo",
          "name": "",
          "type": "tuple"
        }
      ],
      "payable": false,
      "stateMutability": "view",
      "type": "function"
    },
    {
      "constant": false,
      "inputs": [
        {
          "internalType": "bytes32",
          "name": "dealerId",
          "type": "bytes32"
        },
        {
          "internalType": "bytes32",
          "name": "id",
          "type": "bytes32"
        },
        {
          "internalType": "string",
          "name": "noPlate",
          "type": "string"
        },
        {
          "internalType": "string[]",
          "name": "services",
          "type": "string[]"
        },
        {
          "internalType": "string[]",
          "name": "subservices",
          "type": "string[]"
        },
        {
          "internalType": "string",
          "name": "comment",
          "type": "string"
        },
        {
          "internalType": "uint256",
          "name": "timeStamp",
          "type": "uint256"
        }
      ],
      "name": "insertRecord",
      "outputs": [],
      "payable": false,
      "stateMutability": "nonpayable",
      "type": "function"
    },
    {
      "constant": true,
      "inputs": [
        {
          "internalType": "bytes32",
          "name": "adr",
          "type": "bytes32"
        }
      ],
      "name": "isVerified",
      "outputs": [
        {
          "internalType": "bool",
          "name": "",
          "type": "bool"
        }
      ],
      "payable": false,
      "stateMutability": "view",
      "type": "function"
    },
    {
      "constant": true,
      "inputs": [],
      "name": "owner",
      "outputs": [
        {
          "internalType": "address",
          "name": "",
          "type": "address"
        }
      ],
      "payable": false,
      "stateMutability": "view",
      "type": "function"
    },
    {
      "constant": false,
      "inputs": [
        {
          "internalType": "bytes32",
          "name": "adr",
          "type": "bytes32"
        }
      ],
      "name": "rejectApplication",
      "outputs": [],
      "payable": false,
      "stateMutability": "nonpayable",
      "type": "function"
    },
    {
      "constant": false,
      "inputs": [
        {
          "internalType": "bytes32",
          "name": "dealershipId",
          "type": "bytes32"
        },
        {
          "internalType": "bytes32",
          "name": "otherId",
          "type": "bytes32"
        }
      ],
      "name": "transferDealershipOwner",
      "outputs": [],
      "payable": false,
      "stateMutability": "nonpayable",
      "type": "function"
    },
    {
      "constant": false,
      "inputs": [
        {
          "internalType": "address",
          "name": "newOwner",
          "type": "address"
        }
      ],
      "name": "transferOwner",
      "outputs": [],
      "payable": false,
      "stateMutability": "nonpayable",
      "type": "function"
    },
    {
      "constant": false,
      "inputs": [
        {
          "components": [
            {
              "internalType": "bytes32",
              "name": "userId",
              "type": "bytes32"
            },
            {
              "internalType": "bytes32",
              "name": "dealerId",
              "type": "bytes32"
            },
            {
              "internalType": "string",
              "name": "carPlate",
              "type": "string"
            },
            {
              "internalType": "int256",
              "name": "time",
              "type": "int256"
            }
          ],
          "internalType": "struct AppointmentHandler.Appointment",
          "name": "appointment",
          "type": "tuple"
        }
      ],
      "name": "createAppointment",
      "outputs": [],
      "payable": false,
      "stateMutability": "nonpayable",
      "type": "function"
    },
    {
      "constant": false,
      "inputs": [
        {
          "components": [
            {
              "internalType": "bytes32",
              "name": "userId",
              "type": "bytes32"
            },
            {
              "internalType": "bytes32",
              "name": "dealerId",
              "type": "bytes32"
            },
            {
              "internalType": "string",
              "name": "carPlate",
              "type": "string"
            },
            {
              "internalType": "int256",
              "name": "time",
              "type": "int256"
            }
          ],
          "internalType": "struct AppointmentHandler.Appointment",
          "name": "appointment",
          "type": "tuple"
        }
      ],
      "name": "completeAppointment",
      "outputs": [],
      "payable": false,
      "stateMutability": "nonpayable",
      "type": "function"
    },
    {
      "constant": false,
      "inputs": [
        {
          "components": [
            {
              "internalType": "bytes32",
              "name": "userId",
              "type": "bytes32"
            },
            {
              "internalType": "bytes32",
              "name": "dealerId",
              "type": "bytes32"
            },
            {
              "internalType": "string",
              "name": "carPlate",
              "type": "string"
            },
            {
              "internalType": "int256",
              "name": "time",
              "type": "int256"
            }
          ],
          "internalType": "struct AppointmentHandler.Appointment",
          "name": "appointment",
          "type": "tuple"
        }
      ],
      "name": "cancelAppointment",
      "outputs": [],
      "payable": false,
      "stateMutability": "nonpayable",
      "type": "function"
    },
    {
      "constant": true,
      "inputs": [
        {
          "internalType": "bytes32",
          "name": "dealerId",
          "type": "bytes32"
        }
      ],
      "name": "getAppointmentHistory",
      "outputs": [
        {
          "components": [
            {
              "internalType": "bytes32",
              "name": "userId",
              "type": "bytes32"
            },
            {
              "internalType": "bytes32",
              "name": "dealerId",
              "type": "bytes32"
            },
            {
              "internalType": "string",
              "name": "carPlate",
              "type": "string"
            },
            {
              "internalType": "int256",
              "name": "time",
              "type": "int256"
            }
          ],
          "internalType": "struct AppointmentHandler.Appointment[]",
          "name": "",
          "type": "tuple[]"
        }
      ],
      "payable": false,
      "stateMutability": "view",
      "type": "function"
    },
    {
      "constant": true,
      "inputs": [
        {
          "internalType": "bytes32",
          "name": "dealerId",
          "type": "bytes32"
        }
      ],
      "name": "getPendingAppointments",
      "outputs": [
        {
          "components": [
            {
              "internalType": "bytes32",
              "name": "userId",
              "type": "bytes32"
            },
            {
              "internalType": "bytes32",
              "name": "dealerId",
              "type": "bytes32"
            },
            {
              "internalType": "string",
              "name": "carPlate",
              "type": "string"
            },
            {
              "internalType": "int256",
              "name": "time",
              "type": "int256"
            }
          ],
          "internalType": "struct AppointmentHandler.Appointment[]",
          "name": "",
          "type": "tuple[]"
        }
      ],
      "payable": false,
      "stateMutability": "view",
      "type": "function"
    },
    {
      "constant": true,
      "inputs": [
        {
          "internalType": "bytes32",
          "name": "userId",
          "type": "bytes32"
        }
      ],
      "name": "getUserAppointment",
      "outputs": [
        {
          "components": [
            {
              "internalType": "bytes32",
              "name": "userId",
              "type": "bytes32"
            },
            {
              "internalType": "bytes32",
              "name": "dealerId",
              "type": "bytes32"
            },
            {
              "internalType": "string",
              "name": "carPlate",
              "type": "string"
            },
            {
              "internalType": "int256",
              "name": "time",
              "type": "int256"
            }
          ],
          "internalType": "struct AppointmentHandler.Appointment",
          "name": "",
          "type": "tuple"
        }
      ],
      "payable": false,
      "stateMutability": "view",
      "type": "function"
    }
  ],
  "bytecode": "0x60806040526006805461fe0061ff0019909116179055600080546001600160a01b0319163317905561592d806100366000396000f3fe608060405234801561001057600080fd5b50600436106102115760003560e01c806382d7afbd11610125578063b63e01d2116100ad578063d872acac1161007c578063d872acac146104bc578063ddb5f476146104dc578063e2842d79146104fc578063e445268c14610504578063fcda35f91461051757610211565b8063b63e01d214610456578063c181b27314610469578063c4e91d1714610489578063c9b54a581461049c57610211565b80638ee24214116100f45780638ee24214146103dd5780638f2b5144146103f0578063a44e4c7014610403578063adff8b0f14610423578063b2c9ae601461044357610211565b806382d7afbd1461038257806386e80b711461039557806388fcd194146103b55780638da5cb5b146103c857610211565b806350fb95e3116101a85780636fd7d2b5116101775780636fd7d2b51461031f578063752326c11461033257806375417851146103455780637d17f13c1461034d5780637e41667f1461036d57610211565b806350fb95e3146102c65780635a82610c146102d95780635b6beeb9146102ec57806360e9480b1461030c57610211565b80631b8f47fe116101e45780631b8f47fe14610264578063369bfce414610277578063431a65fc1461028a5780634fb2e45d146102b357610211565b80630ad5be91146102165780630eb7bc8f1461022b5780631118127a1461023e5780631a4c85be14610251575b600080fd5b610229610224366004614485565b61052a565b005b610229610239366004614673565b6106d8565b61022961024c36600461478b565b610763565b61022961025f36600461463f565b610951565b61022961027236600461440f565b610a24565b610229610285366004614673565b610b04565b61029d61029836600461463f565b610c8b565b6040516102aa91906155f1565b60405180910390f35b6102296102c13660046143e9565b610d82565b6102296102d4366004614673565b610dce565b6102296102e7366004614757565b610ea8565b6102ff6102fa36600461463f565b610f7e565b6040516102aa9190615643565b61022961031a366004614757565b610ff3565b61022961032d3660046146d0565b611269565b61022961034036600461478b565b611313565b61029d61147a565b61036061035b36600461440f565b6115cf565b6040516102aa9190615763565b610375611d59565b6040516102aa91906155e0565b61022961039036600461444b565b611ddc565b6103a86103a336600461463f565b611ed8565b6040516102aa9190615624565b6102296103c336600461463f565b6121a2565b6103d06122b0565b6040516102aa91906155d2565b6102296103eb36600461457d565b6122bf565b61029d6103fe36600461440f565b6123c6565b61041661041136600461440f565b6124a6565b6040516102aa9190615602565b61043661043136600461440f565b6125f6565b6040516102aa91906157a5565b610229610451366004614757565b612908565b61041661046436600461440f565b6129cb565b61047c61047736600461440f565b612b0e565b6040516102aa9190615635565b6102296104973660046145f8565b612b3b565b6104af6104aa36600461440f565b612bcd565b6040516102aa9190615613565b6104cf6104ca36600461463f565b612e6f565b6040516102aa9190615752565b6104ef6104ea36600461440f565b61302b565b6040516102aa9190615741565b610375613118565b61022961051236600461444b565b613199565b61022961052536600461440f565b613224565b8661053481612b0e565b6105595760405162461bcd60e51b815260040161055090615731565b60405180910390fd5b84518451111561057b5760405162461bcd60e51b8152600401610550906156c1565b600061058788886132e7565b12156105c4576000878152600b60209081526040822080546001810180835591845292829020895191936105c193910191908a0190613937565b50505b6009866040516105d491906155ba565b90815260408051918290036020908101832060a0840183528b8452838201898152928401889052606084018790526080840186905280546001818101808455600093845292849020865160059093020191825593518051929594919361064093928501929101906139b5565b506040820151805161065c9160028401916020909101906139b5565b5060608201518051610678916003840191602090910190613937565b5060808201518160040155505050600019610692886133fc565b14156106ce57600d80546001810182556000919091527fd7b6990105719101dabeb77144f2a3385c8033acd3af97e9423a695e81ad1eb5018790555b5050505050505050565b6000546001600160a01b031633146107025760405162461bcd60e51b8152600401610550906156d1565b8161070c81613442565b6107285760405162461bcd60e51b8152600401610550906156f1565b816007600061073686613463565b60ff1660ff168152602001908152602001600020908051906020019061075d929190613937565b50505050565b60008181526001602052604090205460ff16156107925760405162461bcd60e51b815260040161055090615701565b60008181526004602090815260409091208351805185936107b7928492910190613937565b5060208281015180516107d09260018501920190613937565b50604082015180516107ec916002840191602090910190613937565b5060608201518051610808916003840191602090910190613937565b50608082015161081e9060048301906002613a0e565b5060a0820151805161083a916006840191602090910190613937565b5060c08201518051610856916007840191602090910190613937565b5060e08201518051610872916008840191602090910190613937565b50610100820151805161088f916009840191602090910190613937565b5061012082015180516108ac91600a8401916020909101906139b5565b5061014082015180516108c991600b840191602090910190613a4e565b5090505060006108d88261354d565b121561091457600580546001810182556000919091527f036b6384b5eca791c62761152d0c79bb0604c104a5fb6f4eb0703f3154bb3db0018190555b7fbcb28ce223d1d07df7ff015302f0aee0306ad6362ede3db7aa3c6d40a651f0088282604051610945929190615774565b60405180910390a15050565b6000546001600160a01b0316331461097b5760405162461bcd60e51b8152600401610550906156d1565b8061098581613442565b6109a15760405162461bcd60e51b8152600401610550906156f1565b60006109ac83613463565b604080516020808201808452600080845260ff86168152600790925292902090519293506109dc92909190613937565b506008836040516109ed91906155ba565b90815260200160405180910390206000610a079190613aa7565b50506006805460ff19811660ff9182166000190190911617905550565b6000546001600160a01b03163314610a4e5760405162461bcd60e51b8152600401610550906156d1565b6000610a598261354d565b90506000811215610a7c5760405162461bcd60e51b815260040161055090615681565b6000828152600160208190526040909120805460ff191690911790556005805482908110610aa657fe5b60009182526020822001556005805490610ac4906000198301613ac8565b506000828152600460205260409081902090517ff0447ca0275a7a763cd2739e8753770648c2f2178ce48fdcdfb68ab2a119efda91610945918590615794565b6000546001600160a01b03163314610b2e5760405162461bcd60e51b8152600401610550906156d1565b8181610b3a8282613589565b610b565760405162461bcd60e51b8152600401610550906156e1565b6000610b62858561359f565b905060006001600887604051610b7891906155ba565b908152602001604051809103902080549050039050600886604051610b9d91906155ba565b90815260200160405180910390208181548110610bb657fe5b90600052602060002001600887604051610bd091906155ba565b90815260200160405180910390208381548110610be957fe5b906000526020600020019080546001816001161561010002031660029004610c12929190613aec565b50600886604051610c2391906155ba565b90815260200160405180910390208181548110610c3c57fe5b906000526020600020016000610c529190613b61565b600886604051610c6291906155ba565b908152604051908190036020019020805490610c82906000198301613ba5565b50505050505050565b6060600882604051610c9d91906155ba565b9081526020016040518091039020805480602002602001604051908101604052809291908181526020016000905b82821015610d765760008481526020908190208301805460408051601f6002600019610100600187161502019094169390930492830185900485028101850190915281815292830182828015610d625780601f10610d3757610100808354040283529160200191610d62565b820191906000526020600020905b815481529060010190602001808311610d4557829003601f168201915b505050505081526020019060010190610ccb565b5050505090505b919050565b6000546001600160a01b03163314610dac5760405162461bcd60e51b8152600401610550906156d1565b600080546001600160a01b0319166001600160a01b0392909216919091179055565b8160ff600882604051610de191906155ba565b9081526040519081900360200190205410610e0e5760405162461bcd60e51b8152600401610550906156b1565b8282610e1a8282613589565b15610e375760405162461bcd60e51b815260040161055090615671565b6000546001600160a01b03163314610e615760405162461bcd60e51b8152600401610550906156d1565b600885604051610e7191906155ba565b9081526040516020918190038201902080546001810180835560009283529183902087519293610c82939190920191880190613937565b8060200151610eb681612b0e565b610ed25760405162461bcd60e51b815260040161055090615731565b6000610edd8361361d565b90506000198110610f005760405162461bcd60e51b8152600401610550906156a1565b610f0e8360200151826136b5565b6040805160808101825260008082526020808301828152845180830186528381528486019081526060850184905288518452601083529490922083518155915160018301559251805192939192610f6b9260028501920190613937565b5060608201518160030155905050505050565b6000600282604051602001610f9391906155ba565b60408051601f1981840301815290829052610fad916155ba565b602060405180830381855afa158015610fca573d6000803e3d6000fd5b5050506040513d601f19601f82011682018060405250610fed919081019061442d565b92915050565b806020015161100181612b0e565b61101d5760405162461bcd60e51b815260040161055090615731565b8151600081815260106020526040902054156111cd57600061104284600001516137ba565b905061104c613bc9565b8451600090815260106020908152604091829020825160808101845281548152600180830154828501526002808401805487519381161561010002600019011691909104601f810186900486028301860187528083529295939493860193919290918301828280156110ff5780601f106110d4576101008083540402835291602001916110ff565b820191906000526020600020905b8154815290600101906020018083116110e257829003601f168201915b505050505081526020016003820154815250509050600f600082602001518152602001908152602001600020828154811061113657fe5b600091825260208220600490910201818155600181018290559061115d6002830182613b61565b506000600391909101819055602080870180518352600f8252604080842080546001818101808455928752958590208b51600490920201908155925194830194909455880151805189936111b8926002850192910190613937565b50606082015181600301555050505050611230565b602080840180516000908152600f8352604080822080546001818101808455928552938690208951600490920201908155935192840192909255860151805191938793926112219260028501920190613937565b50606082015181600301555050505b60008181526010602090815260409182902085518155818601516001820155918501518051869392610f6b926002850192910190613937565b82826112758282613589565b6112915760405162461bcd60e51b8152600401610550906156e1565b6000546001600160a01b031633146112bb5760405162461bcd60e51b8152600401610550906156d1565b826008866040516112cc91906155ba565b90815260200160405180910390206112e4878761359f565b815481106112ee57fe5b90600052602060002001908051906020019061130b929190613937565b505050505050565b600081815260016020526040902054819060ff166113435760405162461bcd60e51b815260040161055090615661565b6000828152600460209081526040909120845180518693611368928492910190613937565b5060208281015180516113819260018501920190613937565b506040820151805161139d916002840191602090910190613937565b50606082015180516113b9916003840191602090910190613937565b5060808201516113cf9060048301906002613a0e565b5060a082015180516113eb916006840191602090910190613937565b5060c08201518051611407916007840191602090910190613937565b5060e08201518051611423916008840191602090910190613937565b506101008201518051611440916009840191602090910190613937565b50610120820151805161145d91600a8401916020909101906139b5565b50610140820151805161130b91600b840191602090910190613a4e565b6006546040805160ff9092168083526020808202840101909152606091829180156114b957816020015b60608152602001906001900390816114a45790505b5090506000805b60065460ff610100909104811690821610156115c65760ff811660009081526007602052604090205460026000196101006001841615020190911604156115be5760ff811660009081526007602090815260409182902080548351601f6002600019610100600186161502019093169290920491820184900484028101840190945280845290918301828280156115985780601f1061156d57610100808354040283529160200191611598565b820191906000526020600020905b81548152906001019060200180831161157b57829003601f168201915b5050505050838380600101945060ff16815181106115b257fe5b60200260200101819052505b6001016114c0565b50909150505b90565b6115d7613bf1565b6000828152600460209081526040918290208251815460026001821615610100026000190190911604601f8101849004909302810161018090810190945261016081018381529093919284928491908401828280156116775780601f1061164c57610100808354040283529160200191611677565b820191906000526020600020905b81548152906001019060200180831161165a57829003601f168201915b50505050508152602001600182018054600181600116156101000203166002900480601f0160208091040260200160405190810160405280929190818152602001828054600181600116156101000203166002900480156117195780601f106116ee57610100808354040283529160200191611719565b820191906000526020600020905b8154815290600101906020018083116116fc57829003601f168201915b5050509183525050600282810180546040805160206001841615610100026000190190931694909404601f810183900483028501830190915280845293810193908301828280156117ab5780601f10611780576101008083540402835291602001916117ab565b820191906000526020600020905b81548152906001019060200180831161178e57829003601f168201915b505050918352505060038201805460408051602060026001851615610100026000190190941693909304601f810184900484028201840190925281815293820193929183018282801561183f5780601f106118145761010080835404028352916020019161183f565b820191906000526020600020905b81548152906001019060200180831161182257829003601f168201915b5050509183525050604080518082019091526020909101906004830160026000835b8282101561190457838201805460408051602060026001851615610100026000190190941693909304601f810184900484028201840190925281815292918301828280156118f05780601f106118c5576101008083540402835291602001916118f0565b820191906000526020600020905b8154815290600101906020018083116118d357829003601f168201915b505050505081526020019060010190611861565b5050509082525060068201805460408051602060026001851615610100026000190190941693909304601f81018490048402820184019092528181529382019392918301828280156119975780601f1061196c57610100808354040283529160200191611997565b820191906000526020600020905b81548152906001019060200180831161197a57829003601f168201915b505050918352505060078201805460408051602060026001851615610100026000190190941693909304601f8101849004840282018401909252818152938201939291830182828015611a2b5780601f10611a0057610100808354040283529160200191611a2b565b820191906000526020600020905b815481529060010190602001808311611a0e57829003601f168201915b505050918352505060088201805460408051602060026001851615610100026000190190941693909304601f8101849004840282018401909252818152938201939291830182828015611abf5780601f10611a9457610100808354040283529160200191611abf565b820191906000526020600020905b815481529060010190602001808311611aa257829003601f168201915b505050918352505060098201805460408051602060026001851615610100026000190190941693909304601f8101849004840282018401909252818152938201939291830182828015611b535780601f10611b2857610100808354040283529160200191611b53565b820191906000526020600020905b815481529060010190602001808311611b3657829003601f168201915b50505050508152602001600a8201805480602002602001604051908101604052809291908181526020016000905b82821015611c2c5760008481526020908190208301805460408051601f6002600019610100600187161502019094169390930492830185900485028101850190915281815292830182828015611c185780601f10611bed57610100808354040283529160200191611c18565b820191906000526020600020905b815481529060010190602001808311611bfb57829003601f168201915b505050505081526020019060010190611b81565b505050508152602001600b8201805480602002602001604051908101604052809291908181526020016000905b82821015611d4b57838290600052602060002001805480602002602001604051908101604052809291908181526020016000905b82821015611d385760008481526020908190208301805460408051601f6002600019610100600187161502019094169390930492830185900485028101850190915281815292830182828015611d245780601f10611cf957610100808354040283529160200191611d24565b820191906000526020600020905b815481529060010190602001808311611d0757829003601f168201915b505050505081526020019060010190611c8d565b5050505081526020019060010190611c59565b505050915250909392505050565b6000546060906001600160a01b03163314611d865760405162461bcd60e51b8152600401610550906156d1565b6005805480602002602001604051908101604052809291908181526020018280548015611dd257602002820191906000526020600020905b815481526020019060010190808311611dbe575b5050505050905090565b600082815260016020526040902054829060ff16611e0c5760405162461bcd60e51b815260040161055090615661565b6000828152600160208181526040808420805460ff1990811690941790558684528084208054909316909255848352600381528183208390558583526002905280822084835291208154611e609290613c51565b506000838152600260205260408120611e7891613c90565b60005b60008381526002602052604090205481101561075d578260036000600260008781526020019081526020016000208481548110611eb457fe5b60009182526020808320909101548352820192909252604001902055600101611e7b565b6060600982604051611eea91906155ba565b9081526020016040518091039020805480602002602001604051908101604052809291908181526020016000905b82821015610d7657838290600052602060002090600502016040518060a00160405290816000820154815260200160018201805480602002602001604051908101604052809291908181526020016000905b828210156120155760008481526020908190208301805460408051601f60026000196101006001871615020190941693909304928301859004850281018501909152818152928301828280156120015780601f10611fd657610100808354040283529160200191612001565b820191906000526020600020905b815481529060010190602001808311611fe457829003601f168201915b505050505081526020019060010190611f6a565b50505050815260200160028201805480602002602001604051908101604052809291908181526020016000905b828210156120ed5760008481526020908190208301805460408051601f60026000196101006001871615020190941693909304928301859004850281018501909152818152928301828280156120d95780601f106120ae576101008083540402835291602001916120d9565b820191906000526020600020905b8154815290600101906020018083116120bc57829003601f168201915b505050505081526020019060010190612042565b5050509082525060038201805460408051602060026001851615610100026000190190941693909304601f81018490048402820184019092528181529382019392918301828280156121805780601f1061215557610100808354040283529160200191612180565b820191906000526020600020905b81548152906001019060200180831161216357829003601f168201915b5050505050815260200160048201548152505081526020019060010190611f18565b6000546001600160a01b031633146121cc5760405162461bcd60e51b8152600401610550906156d1565b806121d681613442565b156121f35760405162461bcd60e51b815260040161055090615711565b60065460ff610100820481169116111561221f5760405162461bcd60e51b815260040161055090615721565b60005b60065460ff610100909104811690821610156122aa5760ff8116600090815260076020526040902054600260001961010060018416150201909116046122a25760ff81166000908152600760209081526040909120845161228592860190613937565b50506006805460ff8082166001011660ff199091161790556122ac565b600101612222565b505b5050565b6000546001600160a01b031681565b80600c836040516122d091906155ba565b908152602001604051809103902060008201518160000190805190602001906122fa929190613937565b5060208281015180516123139260018501920190613937565b506040820151805161232f916002840191602090910190613937565b50905050600061233f84846132e7565b90506000811215612385576000848152600b602090815260408220805460018101808355918452928290208651919361237e9391019190870190613937565b505061075d565b6000848152600b602052604090208054849190839081106123a257fe5b9060005260206000200190805190602001906123bf929190613937565b5050505050565b6060600b6000838152602001908152602001600020805480602002602001604051908101604052809291908181526020016000905b82821015610d765760008481526020908190208301805460408051601f60026000196101006001871615020190941693909304928301859004850281018501909152818152928301828280156124925780601f1061246757610100808354040283529160200191612492565b820191906000526020600020905b81548152906001019060200180831161247557829003601f168201915b5050505050815260200190600101906123fb565b6060816124b281612b0e565b6124ce5760405162461bcd60e51b815260040161055090615731565b6000838152600f6020908152604080832080548251818502810185019093528083529193909284015b828210156125e957838290600052602060002090600402016040518060800160405290816000820154815260200160018201548152602001600282018054600181600116156101000203166002900480601f0160208091040260200160405190810160405280929190818152602001828054600181600116156101000203166002900480156125c75780601f1061259c576101008083540402835291602001916125c7565b820191906000526020600020905b8154815290600101906020018083116125aa57829003601f168201915b50505050508152602001600382015481525050815260200190600101906124f7565b5050505091505b50919050565b6125fe613cae565b6000828152600a60209081526040918290208251815460026001821615610100026000190190911604601f8101849004909302810160c090810190945260a0810183815290939192849284919084018282801561269c5780601f106126715761010080835404028352916020019161269c565b820191906000526020600020905b81548152906001019060200180831161267f57829003601f168201915b50505050508152602001600182018054600181600116156101000203166002900480601f01602080910402602001604051908101604052809291908181526020018280546001816001161561010002031660029004801561273e5780601f106127135761010080835404028352916020019161273e565b820191906000526020600020905b81548152906001019060200180831161272157829003601f168201915b5050509183525050600282810180546040805160206001841615610100026000190190931694909404601f810183900483028501830190915280845293810193908301828280156127d05780601f106127a5576101008083540402835291602001916127d0565b820191906000526020600020905b8154815290600101906020018083116127b357829003601f168201915b505050918352505060038201805460408051602060026001851615610100026000190190941693909304601f81018490048402820184019092528181529382019392918301828280156128645780601f1061283957610100808354040283529160200191612864565b820191906000526020600020905b81548152906001019060200180831161284757829003601f168201915b505050918352505060048201805460408051602060026001851615610100026000190190941693909304601f81018490048402820184019092528181529382019392918301828280156128f85780601f106128cd576101008083540402835291602001916128f8565b820191906000526020600020905b8154815290600101906020018083116128db57829003601f168201915b5050505050815250509050919050565b806020015161291681612b0e565b6129325760405162461bcd60e51b815260040161055090615731565b600061293d8361361d565b905060001981106129605760405162461bcd60e51b8152600401610550906156a1565b602080840180516000908152600e8352604080822080546001818101808455928552938690208951600490920201908155935192840192909255860151805191938793926129b49260028501920190613937565b50606082015181600301555050506122aa83610ea8565b6060816129d781612b0e565b6129f35760405162461bcd60e51b815260040161055090615731565b6000838152600e6020908152604080832080548251818502810185019093528083529193909284015b828210156125e957838290600052602060002090600402016040518060800160405290816000820154815260200160018201548152602001600282018054600181600116156101000203166002900480601f016020809104026020016040519081016040528092919081815260200182805460018160011615610100020316600290048015612aec5780601f10612ac157610100808354040283529160200191612aec565b820191906000526020600020905b815481529060010190602001808311612acf57829003601f168201915b5050505050815260200160038201548152505081526020019060010190612a1c565b60008181526001602052604081205460ff1680610fed575050600090815260036020526040902054151590565b6000828152600a60209081526040909120825180518493612b60928492910190613937565b506020828101518051612b799260018501920190613937565b5060408201518051612b95916002840191602090910190613937565b5060608201518051612bb1916003840191602090910190613937565b50608082015180516123bf916004840191602090910190613937565b606080600b600084815260200190815260200160002080549050604051908082528060200260200182016040528015612c2057816020015b612c0d613cdd565b815260200190600190039081612c055790505b50905060005b6000848152600b6020526040902054811015612e68576000848152600b602052604090208054600c919083908110612c5a57fe5b90600052602060002001604051612c7191906155c6565b9081526040805160209281900383018120805460026001821615610100026000190190911604601f81018590049094028201608090810190935260608201848152919390928492918491840182828015612d0c5780601f10612ce157610100808354040283529160200191612d0c565b820191906000526020600020905b815481529060010190602001808311612cef57829003601f168201915b50505050508152602001600182018054600181600116156101000203166002900480601f016020809104026020016040519081016040528092919081815260200182805460018160011615610100020316600290048015612dae5780601f10612d8357610100808354040283529160200191612dae565b820191906000526020600020905b815481529060010190602001808311612d9157829003601f168201915b5050509183525050600282810180546040805160206001841615610100026000190190931694909404601f81018390048302850183019091528084529381019390830182828015612e405780601f10612e1557610100808354040283529160200191612e40565b820191906000526020600020905b815481529060010190602001808311612e2357829003601f168201915b505050505081525050828281518110612e5557fe5b6020908102919091010152600101612c26565b5092915050565b612e77613cdd565b600c82604051612e8791906155ba565b9081526040805160209281900383018120805460026001821615610100026000190190911604601f81018590049094028201608090810190935260608201848152919390928492918491840182828015612f225780601f10612ef757610100808354040283529160200191612f22565b820191906000526020600020905b815481529060010190602001808311612f0557829003601f168201915b50505050508152602001600182018054600181600116156101000203166002900480601f016020809104026020016040519081016040528092919081815260200182805460018160011615610100020316600290048015612fc45780601f10612f9957610100808354040283529160200191612fc4565b820191906000526020600020905b815481529060010190602001808311612fa757829003601f168201915b5050509183525050600282810180546040805160206001841615610100026000190190931694909404601f810183900483028501830190915280845293810193908301828280156128f85780601f106128cd576101008083540402835291602001916128f8565b613033613bc9565b601060008381526020019081526020016000206040518060800160405290816000820154815260200160018201548152602001600282018054600181600116156101000203166002900480601f0160208091040260200160405190810160405280929190818152602001828054600181600116156101000203166002900480156130fe5780601f106130d3576101008083540402835291602001916130fe565b820191906000526020600020905b8154815290600101906020018083116130e157829003601f168201915b505050505081526020016003820154815250509050919050565b6000546060906001600160a01b031633146131455760405162461bcd60e51b8152600401610550906156d1565b600d805480602002602001604051908101604052809291908181526020018280548015611dd25760200282019190600052602060002090815481526020019060010190808311611dbe575050505050905090565b600082815260016020526040902054829060ff166131c95760405162461bcd60e51b815260040161055090615661565b600082815260036020526040902054156131f55760405162461bcd60e51b815260040161055090615651565b506000828152600260209081526040808320805460018101825590845282842001849055928252600390522055565b6000546001600160a01b0316331461324e5760405162461bcd60e51b8152600401610550906156d1565b60006132598261354d565b9050600081121561327c5760405162461bcd60e51b815260040161055090615681565b6005818154811061328957fe5b600091825260208220015560058054906132a7906000198301613ac8565b506000828152600460205260409081902090517fcfb420e6e825355362483fbe9ffa1ccb2e0686c46057781725aff63aeb58d56d91610945918590615794565b6000805b6000848152600b60205260409020546001600160801b03821610156133f1576133138361385c565b6000858152600b6020526040902080546133d391906001600160801b03851690811061333b57fe5b600091825260209182902001805460408051601f60026000196101006001871615020190941693909304928301859004850281018501909152818152928301828280156133c95780601f1061339e576101008083540402835291602001916133c9565b820191906000526020600020905b8154815290600101906020018083116133ac57829003601f168201915b505050505061385c565b14156133e9576001600160801b03169050610fed565b6001016132eb565b506000199392505050565b6000805b600d548110156134385782600d828154811061341857fe5b90600052602060002001541415613430579050610d7d565b600101613400565b5060001992915050565b600654600090610100900460ff1661345983613463565b60ff161092915050565b60008061346f8361385c565b905060005b60065460ff610100909104811690821610156135435760ff8116600090815260076020526040902054600260001961010060018416150201909116041580159061352d575060ff81166000908152600760209081526040918290208054835160026001831615610100026000190190921691909104601f8101849004840282018401909452838152859361352b939192918301828280156133c95780601f1061339e576101008083540402835291602001916133c9565b145b1561353b579150610d7d9050565b600101613474565b5060ff9392505050565b6000805b60055481101561343857826005828154811061356957fe5b90600052602060002001541415613581579050610d7d565b600101613551565b600060ff613597848461359f565b109392505050565b6000805b6008846040516135b391906155ba565b9081526040519081900360200190205460ff82161015613543576135d68361385c565b6136056008866040516135e991906155ba565b90815260200160405180910390208360ff168154811061333b57fe5b14156136155760ff169050610fed565b6001016135a3565b6000816020015161362d81612b0e565b6136495760405162461bcd60e51b815260040161055090615731565b60005b6020808501516000908152600f90915260409020548110156133f1576136a184600f600087602001518152602001908152602001600020838154811061368e57fe5b906000526020600020906004020161388c565b156136ad5791506125f0565b60010161364c565b816136bf81612b0e565b6136db5760405162461bcd60e51b815260040161055090615731565b600182015b6000848152600f602052604090205481101561379a576000848152600f6020526040902080548290811061371057fe5b9060005260206000209060040201600f6000868152602001908152602001600020600183038154811061373f57fe5b9060005260206000209060040201600082015481600001556001820154816001015560028201816002019080546001816001161561010002031660029004613788929190613aec565b506003918201549101556001016136e0565b506000838152600f6020526040902080549061075d906000198301613cfe565b6000818152601060205260408120546137e55760405162461bcd60e51b815260040161055090615691565b6000828152601060205260408120905b60018201546000908152600f60205260409020548110156133f15783600f600084600101548152602001908152602001600020828154811061383357fe5b9060005260206000209060040201600001541415613854579150610d7d9050565b6001016137f5565b60008160405160200161386f91906155ba565b604051602081830303815290604052805190602001209050919050565b805482516000911480156138a7575081600101548360200151145b801561391d5750600282810180546040805160206001841615610100026000190190931694909404601f810183900483028501830190915280845261390e9392918301828280156133c95780601f1061339e576101008083540402835291602001916133c9565b61391b846040015161385c565b145b8015613930575081600301548360600151145b9392505050565b828054600181600116156101000203166002900490600052602060002090601f016020900481019282601f1061397857805160ff19168380011785556139a5565b828001600101855582156139a5579182015b828111156139a557825182559160200191906001019061398a565b506139b1929150613d2a565b5090565b828054828255906000526020600020908101928215613a02579160200282015b82811115613a0257825180516139f2918491602090910190613937565b50916020019190600101906139d5565b506139b1929150613d44565b8260028101928215613a02579160200282015b82811115613a025782518051613a3e918491602090910190613937565b5091602001919060010190613a21565b828054828255906000526020600020908101928215613a9b579160200282015b82811115613a9b5782518051613a8b9184916020909101906139b5565b5091602001919060010190613a6e565b506139b1929150613d67565b5080546000825590600052602060002090810190613ac59190613d44565b50565b8154818355818111156122aa576000838152602090206122aa918101908301613d2a565b828054600181600116156101000203166002900490600052602060002090601f016020900481019282601f10613b2557805485556139a5565b828001600101855582156139a557600052602060002091601f016020900482015b828111156139a5578254825591600101919060010190613b46565b50805460018160011615610100020316600290046000825580601f10613b875750613ac5565b601f016020900490600052602060002090810190613ac59190613d2a565b8154818355818111156122aa576000838152602090206122aa918101908301613d44565b6040805160808101825260008082526020820181905260609282018390529181019190915290565b60405180610160016040528060608152602001606081526020016060815260200160608152602001613c21613d8a565b81526020016060815260200160608152602001606081526020016060815260200160608152602001606081525090565b8280548282559060005260206000209081019282156139a5576000526020600020918201828111156139a5578254825591600101919060010190613b46565b5080546000825590600052602060002090810190613ac59190613d2a565b6040518060a0016040528060608152602001606081526020016060815260200160608152602001606081525090565b60405180606001604052806060815260200160608152602001606081525090565b8154818355818111156122aa576004028160040283600052602060002091820191016122aa9190613db1565b6115cc91905b808211156139b15760008155600101613d30565b6115cc91905b808211156139b1576000613d5e8282613b61565b50600101613d4a565b6115cc91905b808211156139b1576000613d818282613aa7565b50600101613d6d565b60405180604001604052806002905b6060815260200190600190039081613d995790505090565b6115cc91905b808211156139b157600080825560018201819055613dd86002830182613b61565b5060006003820155600401613db7565b8035610fed816158cd565b600082601f830112613e0457600080fd5b8135613e17613e12826157dc565b6157b6565b81815260209384019390925082018360005b83811015613e555781358601613e3f8882613eb1565b8452506020928301929190910190600101613e29565b5050505092915050565b600082601f830112613e7057600080fd5b6002613e7e613e12826157fc565b9150818360005b83811015613e555781358601613e9b8882613f81565b8452506020928301929190910190600101613e85565b600082601f830112613ec257600080fd5b8135613ed0613e12826157dc565b81815260209384019390925082018360005b83811015613e555781358601613ef88882613f81565b8452506020928301929190910190600101613ee2565b600082601f830112613f1f57600080fd5b8135613f2d613e12826157dc565b81815260209384019390925082018360005b83811015613e555781358601613f558882613f81565b8452506020928301929190910190600101613f3f565b8035610fed816158e1565b8051610fed816158e1565b600082601f830112613f9257600080fd5b8135613fa0613e1282615819565b91508082526020830160208301858383011115613fbc57600080fd5b613fc783828461588b565b50505092915050565b600060808284031215613fe257600080fd5b613fec60806157b6565b90506000613ffa8484613f6b565b825250602061400b84848301613f6b565b60208301525060408201356001600160401b0381111561402a57600080fd5b61403684828501613f81565b604083015250606061404a84828501613f6b565b60608301525092915050565b60006060828403121561406857600080fd5b61407260606157b6565b905081356001600160401b0381111561408a57600080fd5b61409684828501613f81565b82525060208201356001600160401b038111156140b257600080fd5b6140be84828501613f81565b60208301525060408201356001600160401b038111156140dd57600080fd5b6140e984828501613f81565b60408301525092915050565b6000610160828403121561410857600080fd5b6141136101606157b6565b905081356001600160401b0381111561412b57600080fd5b61413784828501613f81565b82525060208201356001600160401b0381111561415357600080fd5b61415f84828501613f81565b60208301525060408201356001600160401b0381111561417e57600080fd5b61418a84828501613f81565b60408301525060608201356001600160401b038111156141a957600080fd5b6141b584828501613f81565b60608301525060808201356001600160401b038111156141d457600080fd5b6141e084828501613e5f565b60808301525060a08201356001600160401b038111156141ff57600080fd5b61420b84828501613f81565b60a08301525060c08201356001600160401b0381111561422a57600080fd5b61423684828501613f81565b60c08301525060e08201356001600160401b0381111561425557600080fd5b61426184828501613f81565b60e0830152506101008201356001600160401b0381111561428157600080fd5b61428d84828501613f81565b610100830152506101208201356001600160401b038111156142ae57600080fd5b6142ba84828501613eb1565b610120830152506101408201356001600160401b038111156142db57600080fd5b6142e784828501613df3565b6101408301525092915050565b600060a0828403121561430657600080fd5b61431060a06157b6565b905081356001600160401b0381111561432857600080fd5b61433484828501613f81565b82525060208201356001600160401b0381111561435057600080fd5b61435c84828501613f81565b60208301525060408201356001600160401b0381111561437b57600080fd5b61438784828501613f81565b60408301525060608201356001600160401b038111156143a657600080fd5b6143b284828501613f81565b60608301525060808201356001600160401b038111156143d157600080fd5b6143dd84828501613f81565b60808301525092915050565b6000602082840312156143fb57600080fd5b60006144078484613de8565b949350505050565b60006020828403121561442157600080fd5b60006144078484613f6b565b60006020828403121561443f57600080fd5b60006144078484613f76565b6000806040838503121561445e57600080fd5b600061446a8585613f6b565b925050602061447b85828601613f6b565b9150509250929050565b600080600080600080600060e0888a0312156144a057600080fd5b60006144ac8a8a613f6b565b97505060206144bd8a828b01613f6b565b96505060408801356001600160401b038111156144d957600080fd5b6144e58a828b01613f81565b95505060608801356001600160401b0381111561450157600080fd5b61450d8a828b01613f0e565b94505060808801356001600160401b0381111561452957600080fd5b6145358a828b01613f0e565b93505060a08801356001600160401b0381111561455157600080fd5b61455d8a828b01613f81565b92505060c061456e8a828b01613f6b565b91505092959891949750929550565b60008060006060848603121561459257600080fd5b600061459e8686613f6b565b93505060208401356001600160401b038111156145ba57600080fd5b6145c686828701613f81565b92505060408401356001600160401b038111156145e257600080fd5b6145ee86828701614056565b9150509250925092565b6000806040838503121561460b57600080fd5b60006146178585613f6b565b92505060208301356001600160401b0381111561463357600080fd5b61447b858286016142f4565b60006020828403121561465157600080fd5b81356001600160401b0381111561466757600080fd5b61440784828501613f81565b6000806040838503121561468657600080fd5b82356001600160401b0381111561469c57600080fd5b6146a885828601613f81565b92505060208301356001600160401b038111156146c457600080fd5b61447b85828601613f81565b6000806000606084860312156146e557600080fd5b83356001600160401b038111156146fb57600080fd5b61470786828701613f81565b93505060208401356001600160401b0381111561472357600080fd5b61472f86828701613f81565b92505060408401356001600160401b0381111561474b57600080fd5b6145ee86828701613f81565b60006020828403121561476957600080fd5b81356001600160401b0381111561477f57600080fd5b61440784828501613fd0565b6000806040838503121561479e57600080fd5b82356001600160401b038111156147b457600080fd5b61446a858286016140f5565b60006139308383614a20565b60006139308383614ae1565b60006147e48383614c6d565b505060200190565b60006139308383614ca5565b60006139308383614cdd565b600061393083836151d3565b6000613930838361522f565b600061393083836154c5565b6148318161586f565b82525050565b600061484282615852565b61484c8185615866565b93508360208202850161485e85615840565b8060005b85811015614898578484038952815161487b85826147c0565b945061488683615840565b60209a909a0199925050600101614862565b5091979650505050505050565b60006148b082615856565b6148ba8185615866565b9350836020820285016148cc85615846565b8060005b85811015614898578484038952816148e885826147cc565b94506148f383615860565b60209a909a01999250506001016148d0565b600061491082615852565b61491a8185615866565b935061492583615840565b8060005b8381101561495357815161493d88826147d8565b975061494883615840565b925050600101614929565b509495945050505050565b60006149698261585a565b6149738185610d7d565b935083602082028501614985856115cc565b8060005b8581101561489857848403895281516149a285826147ec565b94506149ad83615840565b60209a909a0199925050600101614989565b60006149ca82615852565b6149d48185615866565b9350836020820285016149e685615840565b8060005b858110156148985784840389528151614a0385826147ec565b9450614a0e83615840565b60209a909a01999250506001016149ea565b6000614a2b82615852565b614a358185615866565b935083602082028501614a4785615840565b8060005b858110156148985784840389528151614a6485826147ec565b9450614a6f83615840565b60209a909a0199925050600101614a4b565b6000614a8c8261585a565b614a968185610d7d565b935083602082028501614aa8856115cc565b8060005b8581101561489857848403895281614ac485826147f8565b9450614acf83615860565b60209a909a0199925050600101614aac565b6000614aec82615856565b614af68185615866565b935083602082028501614b0885615846565b8060005b8581101561489857848403895281614b2485826147f8565b9450614b2f83615860565b60209a909a0199925050600101614b0c565b6000614b4c82615852565b614b568185615866565b935083602082028501614b6885615840565b8060005b858110156148985784840389528151614b858582614804565b9450614b9083615840565b60209a909a0199925050600101614b6c565b6000614bad82615852565b614bb78185615866565b935083602082028501614bc985615840565b8060005b858110156148985784840389528151614be68582614810565b9450614bf183615840565b60209a909a0199925050600101614bcd565b6000614c0e82615852565b614c188185615866565b935083602082028501614c2a85615840565b8060005b858110156148985784840389528151614c47858261481c565b9450614c5283615840565b60209a909a0199925050600101614c2e565b6148318161587a565b614831816115cc565b6000614c8182615852565b614c8b8185610d7d565b9350614c9b818560208601615897565b9290920192915050565b6000614cb082615852565b614cba8185615866565b9350614cca818560208601615897565b614cd3816158c3565b9093019392505050565b600081546001811660008114614cfa5760018114614d2057614d5f565b607f6002830416614d0b8187615866565b60ff1984168152955050602085019250614d5f565b60028204614d2e8187615866565b9550614d3985615846565b60005b82811015614d5857815488820152600190910190602001614d3c565b8701945050505b505092915050565b600081546001811660008114614d845760018114614da757614d5f565b607f6002830416614d958187610d7d565b60ff1984168152955085019250614d5f565b60028204614db58187610d7d565b9550614dc085615846565b60005b82811015614ddf57815488820152600190910190602001614dc3565b5050909401949350505050565b6000614df9602183615866565b7f5468617420656d706c6f79656520616c726561647920776f726b7320746865728152606560f81b602082015260400192915050565b6000614e3c602983615866565b7f596f75206d7573742062652061206465616c657273686970206f776e657220748152686f20646f207468697360b81b602082015260400192915050565b6000614e87601e83615866565b7f54686174207375627365727669636520616c7265616479206578697374730000815260200192915050565b6000614ec0602183615866565b7f4e6f206170706c69636174696f6e2065786973747320666f72207468617420698152601960fa1b602082015260400192915050565b6000614f03602183615866565b7f5573657220646f6573206e6f74206861766520616e206170706f696e746d656e8152601d60fa1b602082015260400192915050565b6000614f46601f83615866565b7f54686174206170706f696e746d656e7420646f6573206e6f7420657869737400815260200192915050565b6000614f7f602183615866565b7f4d6178696d756d207375627365727669636520616d6f756e74207265616368658152601960fa1b602082015260400192915050565b6000614fc2603383615866565b7f4e756d626572206f6620737562736572766963657320646f6573206e6f74206d8152720c2e8c6d040e6cae4ecd2c6ca40d8cadccee8d606b1b602082015260400192915050565b6000615017601583615866565b742cb7ba9030b932903737ba103a34329037bbb732b960591b815260200192915050565b6000615048602c83615866565b7f54686174207375627365727669636520646f65736e7420657869737420696e2081526b1d1a1a5cc818dbdb9d195e1d60a21b602082015260400192915050565b6000615096601b83615866565b7f54686174207365727669636520646f6573206e6f742065786973740000000000815260200192915050565b60006150cf602283615866565b7f54686174206164647265737320697320616c7265616479207265676973746572815261195960f21b602082015260400192915050565b6000615113601b83615866565b7f54686174207365727669636520616c7265616479206578697374730000000000815260200192915050565b600061514c602883615866565b7f54686572652061726520746865206d6178696d756d206e756d626572206f6620815267736572766963657360c01b602082015260400192915050565b6000615196602883615866565b7f596f75206d7573742062652061207665726966696564206465616c657220746f81526720646f207468697360c01b602082015260400192915050565b805160009060808401906151e78582614c6d565b5060208301516151fa6020860182614c6d565b50604083015184820360408601526152128282614ca5565b91505060608301516152276060860182614c6d565b509392505050565b80516060808452600091908401906152478282614ca5565b915050602083015184820360208601526152618282614ca5565b9150506040830151848203604086015261527b8282614ca5565b95945050505050565b80516101608084526000919084019061529d8282614ca5565b915050602083015184820360208601526152b78282614ca5565b915050604083015184820360408601526152d18282614ca5565b915050606083015184820360608601526152eb8282614ca5565b91505060808301518482036080860152615305828261495e565b91505060a083015184820360a086015261531f8282614ca5565b91505060c083015184820360c08601526153398282614ca5565b91505060e083015184820360e08601526153538282614ca5565b91505061010083015184820361010086015261536f8282614ca5565b91505061012083015184820361012086015261538b8282614a20565b91505061014083015184820361014086015261527b8282614837565b610160808352600090830181836153be8382614cdd565b9250506001840185830360208701526153d78382614cdd565b9250506002840185830360408701526153f08382614cdd565b9250506003840185830360608701526154098382614cdd565b9250506004840185830360808701526154228382614a81565b9250506006840185830360a087015261543b8382614cdd565b9250506007840185830360c08701526154548382614cdd565b9250506008840185830360e087015261546d8382614cdd565b925050600984018583036101008701526154878382614cdd565b925050600a84018583036101208701526154a18382614ae1565b925050600b84018583036101408701526154bb83826148a5565b9695505050505050565b805160009060a08401906154d98582614c6d565b50602083015184820360208601526154f18282614a20565b9150506040830151848203604086015261550b8282614a20565b915050606083015184820360608601526155258282614ca5565b91505060808301516152276080860182614c6d565b805160a0808452600091908401906155528282614ca5565b9150506020830151848203602086015261556c8282614ca5565b915050604083015184820360408601526155868282614ca5565b915050606083015184820360608601526155a08282614ca5565b9150506080830151848203608086015261527b8282614ca5565b60006139308284614c76565b60006139308284614d67565b60208101610fed8284614828565b602080825281016139308184614905565b6020808252810161393081846149bf565b602080825281016139308184614b41565b602080825281016139308184614ba2565b602080825281016139308184614c03565b60208101610fed8284614c64565b60208101610fed8284614c6d565b60208082528101610fed81614dec565b60208082528101610fed81614e2f565b60208082528101610fed81614e7a565b60208082528101610fed81614eb3565b60208082528101610fed81614ef6565b60208082528101610fed81614f39565b60208082528101610fed81614f72565b60208082528101610fed81614fb5565b60208082528101610fed8161500a565b60208082528101610fed8161503b565b60208082528101610fed81615089565b60208082528101610fed816150c2565b60208082528101610fed81615106565b60208082528101610fed8161513f565b60208082528101610fed81615189565b6020808252810161393081846151d3565b60208082528101613930818461522f565b602080825281016139308184615284565b604080825281016157858185615284565b90506139306020830184614c6d565b6040808252810161578581856153a7565b60208082528101613930818461553a565b6040518181016001600160401b03811182821017156157d457600080fd5b604052919050565b60006001600160401b038211156157f257600080fd5b5060209081020190565b60006001600160401b0382111561581257600080fd5b5060200290565b60006001600160401b0382111561582f57600080fd5b506020601f91909101601f19160190565b60200190565b60009081526020902090565b5190565b5490565b50600290565b60010190565b90815260200190565b6000610fed8261587f565b151590565b6001600160a01b031690565b82818337506000910152565b60005b838110156158b257818101518382015260200161589a565b8381111561075d5750506000910152565b601f01601f191690565b6158d68161586f565b8114613ac557600080fd5b6158d6816115cc56fea365627a7a723158200f4fdb452e0010a06dc48cff946bf67a4d51c8252c782df40abf967346a40b386c6578706572696d656e74616cf564736f6c634300050c0040",
  "source": "pragma solidity ^0.5.11;\npragma experimental ABIEncoderV2;\n\nimport \"./UserContract.sol\";\n\ncontract AppointmentHandler is UserContract {\n\n    struct Appointment{\n        bytes32 userId;\n        bytes32 dealerId;\n        string carPlate;\n        int time; //Milliseconds\n    }\n\n    mapping(bytes32 => Appointment[]) private dealerAppointmentHistory;\n    mapping(bytes32 => Appointment[]) private activeAppointments;\n    mapping(bytes32 => Appointment) private userAppointment;\n\n    function isSameAppointment(Appointment memory a, Appointment storage o) internal view returns (bool) {\n        return a.userId == o.userId && a.dealerId == o.dealerId && encode(a.carPlate) == encode(o.carPlate) && a.time == o.time;\n    }\n\n    function getIndexOfAppointment(Appointment memory appointment) internal verified(appointment.dealerId) view returns(uint){\n        for(uint i = 0; i < activeAppointments[appointment.dealerId].length; i++){\n            if(isSameAppointment(appointment,activeAppointments[appointment.dealerId][i])){\n                return i;\n            }\n        }\n        return uint(-1);\n    }\n\n    function getIndexOfUserAppointment(bytes32 userId) internal view returns(uint) {\n        require(userAppointment[userId].userId != 0,\"User does not have an appointment\");\n        Appointment storage currentAp = userAppointment[userId];\n        for(uint i = 0; i < activeAppointments[currentAp.dealerId].length; i++){\n            if(activeAppointments[currentAp.dealerId][i].userId == userId){\n                return i;\n            }\n        }\n        return uint(-1);\n    }\n\n    function createAppointment(Appointment memory appointment) public verified(appointment.dealerId) {\n        bytes32 userId = appointment.userId;\n        if(userAppointment[userId].userId != 0){\n            uint aIndex = getIndexOfUserAppointment(appointment.userId);\n            Appointment memory currentAp = userAppointment[appointment.userId];\n            delete activeAppointments[currentAp.dealerId][aIndex];\n            activeAppointments[appointment.dealerId].push(appointment);\n        }\n        else{\n            activeAppointments[appointment.dealerId].push(appointment);\n        }\n        userAppointment[userId] = appointment;\n    }\n\n    function completeAppointment(Appointment memory appointment) public verified(appointment.dealerId) {\n        uint aIndex = getIndexOfAppointment(appointment);\n        require(aIndex < uint(-1),\"That appointment does not exist\");\n        //TODO Change time to completed time (Need date time library or smth)\n        dealerAppointmentHistory[appointment.dealerId].push(appointment);\n        cancelAppointment(appointment);\n    }\n\n    function cancelAppointment(Appointment memory appointment) public verified(appointment.dealerId) {\n        uint aIndex = getIndexOfAppointment(appointment);\n        require(aIndex < uint(-1),\"That appointment does not exist\");\n        removeAppointment(appointment.dealerId,aIndex);\n        userAppointment[appointment.userId] = Appointment(0,0,\"\",0);\n    }\n\n    function removeAppointment(bytes32 dealerId, uint index) internal verified(dealerId) {\n        for(uint i = index + 1; i < activeAppointments[dealerId].length; i++){\n            activeAppointments[dealerId][i-1] = activeAppointments[dealerId][i];\n        }\n        activeAppointments[dealerId].length--;\n    }\n\n    function getAppointmentHistory(bytes32 dealerId) public view verified(dealerId) returns (Appointment[] memory){\n        return dealerAppointmentHistory[dealerId];\n    }\n\n    function getPendingAppointments(bytes32 dealerId) public view verified(dealerId) returns (Appointment[] memory){\n        return activeAppointments[dealerId];\n    }\n\n    function getUserAppointment(bytes32 userId) public view returns (Appointment memory) {\n        return userAppointment[userId];\n    }\n}",
  "sourcePath": "/home/brandon/Documents/_Important/Uni/Blockchain/Final project/contracts/AppointmentHandler.sol",
  "compiler": {
    "name": "solc",
    "version": "0.5.12+commit.7709ece9.Emscripten.clang"
  },
  "schemaVersion": "3.0.19",
  "updatedAt": "2019-11-29T20:08:35.920Z",
  "networkType": "ethereum",
  "devdoc": {
    "methods": {}
  },
  "userdoc": {
    "methods": {}
  }
}