{
  "contractName": "AppointmentHandler",
  "abi": [
    {
      "anonymous": false,
      "inputs": [
        {
          "components": [
            {
              "internalType": "string",
              "name": "dealerName",
              "type": "string"
            },
            {
              "internalType": "string",
              "name": "firstName",
              "type": "string"
            },
            {
              "internalType": "string",
              "name": "lastName",
              "type": "string"
            },
            {
              "internalType": "string",
              "name": "addr",
              "type": "string"
            },
            {
              "internalType": "string",
              "name": "location",
              "type": "string"
            },
            {
              "internalType": "string",
              "name": "phoneNo",
              "type": "string"
            },
            {
              "internalType": "string",
              "name": "bestSeller",
              "type": "string"
            },
            {
              "internalType": "string",
              "name": "promotion",
              "type": "string"
            },
            {
              "internalType": "string",
              "name": "otherServices",
              "type": "string"
            },
            {
              "internalType": "string[]",
              "name": "availableServices",
              "type": "string[]"
            },
            {
              "internalType": "string[][]",
              "name": "availableSubServices",
              "type": "string[][]"
            }
          ],
          "indexed": false,
          "internalType": "struct DealerContract.DealerInfo",
          "name": "info",
          "type": "tuple"
        },
        {
          "indexed": false,
          "internalType": "bytes32",
          "name": "id",
          "type": "bytes32"
        }
      ],
      "name": "CreateDealerApplication",
      "type": "event"
    },
    {
      "constant": false,
      "inputs": [
        {
          "internalType": "bytes32",
          "name": "dealerId",
          "type": "bytes32"
        },
        {
          "internalType": "bytes32",
          "name": "adr",
          "type": "bytes32"
        }
      ],
      "name": "addDealerEmployee",
      "outputs": [],
      "payable": false,
      "stateMutability": "nonpayable",
      "type": "function"
    },
    {
      "constant": false,
      "inputs": [
        {
          "internalType": "string",
          "name": "serviceName",
          "type": "string"
        }
      ],
      "name": "addService",
      "outputs": [],
      "payable": false,
      "stateMutability": "nonpayable",
      "type": "function"
    },
    {
      "constant": false,
      "inputs": [
        {
          "internalType": "string",
          "name": "serviceName",
          "type": "string"
        },
        {
          "internalType": "string",
          "name": "subServiceName",
          "type": "string"
        }
      ],
      "name": "addSubService",
      "outputs": [],
      "payable": false,
      "stateMutability": "nonpayable",
      "type": "function"
    },
    {
      "constant": false,
      "inputs": [
        {
          "internalType": "bytes32",
          "name": "adr",
          "type": "bytes32"
        }
      ],
      "name": "approveApplication",
      "outputs": [],
      "payable": false,
      "stateMutability": "nonpayable",
      "type": "function"
    },
    {
      "constant": false,
      "inputs": [
        {
          "components": [
            {
              "internalType": "string",
              "name": "dealerName",
              "type": "string"
            },
            {
              "internalType": "string",
              "name": "firstName",
              "type": "string"
            },
            {
              "internalType": "string",
              "name": "lastName",
              "type": "string"
            },
            {
              "internalType": "string",
              "name": "addr",
              "type": "string"
            },
            {
              "internalType": "string",
              "name": "location",
              "type": "string"
            },
            {
              "internalType": "string",
              "name": "phoneNo",
              "type": "string"
            },
            {
              "internalType": "string",
              "name": "bestSeller",
              "type": "string"
            },
            {
              "internalType": "string",
              "name": "promotion",
              "type": "string"
            },
            {
              "internalType": "string",
              "name": "otherServices",
              "type": "string"
            },
            {
              "internalType": "string[]",
              "name": "availableServices",
              "type": "string[]"
            },
            {
              "internalType": "string[][]",
              "name": "availableSubServices",
              "type": "string[][]"
            }
          ],
          "internalType": "struct DealerContract.DealerInfo",
          "name": "info",
          "type": "tuple"
        },
        {
          "internalType": "bytes32",
          "name": "id",
          "type": "bytes32"
        }
      ],
      "name": "createDealerApplication",
      "outputs": [],
      "payable": false,
      "stateMutability": "nonpayable",
      "type": "function"
    },
    {
      "constant": false,
      "inputs": [
        {
          "internalType": "string",
          "name": "serviceName",
          "type": "string"
        }
      ],
      "name": "deleteService",
      "outputs": [],
      "payable": false,
      "stateMutability": "nonpayable",
      "type": "function"
    },
    {
      "constant": false,
      "inputs": [
        {
          "internalType": "string",
          "name": "serviceName",
          "type": "string"
        },
        {
          "internalType": "string",
          "name": "subServiceName",
          "type": "string"
        }
      ],
      "name": "deleteSubService",
      "outputs": [],
      "payable": false,
      "stateMutability": "nonpayable",
      "type": "function"
    },
    {
      "constant": false,
      "inputs": [
        {
          "internalType": "bytes32",
          "name": "userId",
          "type": "bytes32"
        },
        {
          "internalType": "string",
          "name": "noPlate",
          "type": "string"
        },
        {
          "components": [
            {
              "internalType": "string",
              "name": "brand",
              "type": "string"
            },
            {
              "internalType": "string",
              "name": "model",
              "type": "string"
            },
            {
              "internalType": "string",
              "name": "year",
              "type": "string"
            }
          ],
          "internalType": "struct UserContract.CarInfo",
          "name": "carInfo",
          "type": "tuple"
        }
      ],
      "name": "editCarDetails",
      "outputs": [],
      "payable": false,
      "stateMutability": "nonpayable",
      "type": "function"
    },
    {
      "constant": false,
      "inputs": [
        {
          "components": [
            {
              "internalType": "string",
              "name": "dealerName",
              "type": "string"
            },
            {
              "internalType": "string",
              "name": "firstName",
              "type": "string"
            },
            {
              "internalType": "string",
              "name": "lastName",
              "type": "string"
            },
            {
              "internalType": "string",
              "name": "addr",
              "type": "string"
            },
            {
              "internalType": "string",
              "name": "location",
              "type": "string"
            },
            {
              "internalType": "string",
              "name": "phoneNo",
              "type": "string"
            },
            {
              "internalType": "string",
              "name": "bestSeller",
              "type": "string"
            },
            {
              "internalType": "string",
              "name": "promotion",
              "type": "string"
            },
            {
              "internalType": "string",
              "name": "otherServices",
              "type": "string"
            },
            {
              "internalType": "string[]",
              "name": "availableServices",
              "type": "string[]"
            },
            {
              "internalType": "string[][]",
              "name": "availableSubServices",
              "type": "string[][]"
            }
          ],
          "internalType": "struct DealerContract.DealerInfo",
          "name": "info",
          "type": "tuple"
        },
        {
          "internalType": "bytes32",
          "name": "id",
          "type": "bytes32"
        }
      ],
      "name": "editDealerInfo",
      "outputs": [],
      "payable": false,
      "stateMutability": "nonpayable",
      "type": "function"
    },
    {
      "constant": false,
      "inputs": [
        {
          "internalType": "string",
          "name": "oldName",
          "type": "string"
        },
        {
          "internalType": "string",
          "name": "newName",
          "type": "string"
        }
      ],
      "name": "editServiceName",
      "outputs": [],
      "payable": false,
      "stateMutability": "nonpayable",
      "type": "function"
    },
    {
      "constant": false,
      "inputs": [
        {
          "internalType": "string",
          "name": "serviceName",
          "type": "string"
        },
        {
          "internalType": "string",
          "name": "oldName",
          "type": "string"
        },
        {
          "internalType": "string",
          "name": "newName",
          "type": "string"
        }
      ],
      "name": "editSubServiceName",
      "outputs": [],
      "payable": false,
      "stateMutability": "nonpayable",
      "type": "function"
    },
    {
      "constant": false,
      "inputs": [
        {
          "internalType": "bytes32",
          "name": "userId",
          "type": "bytes32"
        },
        {
          "components": [
            {
              "internalType": "string",
              "name": "firstName",
              "type": "string"
            },
            {
              "internalType": "string",
              "name": "lastName",
              "type": "string"
            },
            {
              "internalType": "string",
              "name": "adr",
              "type": "string"
            },
            {
              "internalType": "string",
              "name": "phNo",
              "type": "string"
            },
            {
              "internalType": "string",
              "name": "email",
              "type": "string"
            }
          ],
          "internalType": "struct UserContract.UserInfo",
          "name": "info",
          "type": "tuple"
        }
      ],
      "name": "editUserInfo",
      "outputs": [],
      "payable": false,
      "stateMutability": "nonpayable",
      "type": "function"
    },
    {
      "constant": true,
      "inputs": [],
      "name": "getAllDealerApplications",
      "outputs": [
        {
          "internalType": "bytes32[]",
          "name": "",
          "type": "bytes32[]"
        }
      ],
      "payable": false,
      "stateMutability": "view",
      "type": "function"
    },
    {
      "constant": true,
      "inputs": [
        {
          "internalType": "bytes32",
          "name": "userId",
          "type": "bytes32"
        }
      ],
      "name": "getCarPlates",
      "outputs": [
        {
          "internalType": "string[]",
          "name": "",
          "type": "string[]"
        }
      ],
      "payable": false,
      "stateMutability": "view",
      "type": "function"
    },
    {
      "constant": true,
      "inputs": [
        {
          "internalType": "bytes32",
          "name": "userId",
          "type": "bytes32"
        }
      ],
      "name": "getCars",
      "outputs": [
        {
          "components": [
            {
              "internalType": "string",
              "name": "brand",
              "type": "string"
            },
            {
              "internalType": "string",
              "name": "model",
              "type": "string"
            },
            {
              "internalType": "string",
              "name": "year",
              "type": "string"
            }
          ],
          "internalType": "struct UserContract.CarInfo[]",
          "name": "",
          "type": "tuple[]"
        }
      ],
      "payable": false,
      "stateMutability": "view",
      "type": "function"
    },
    {
      "constant": true,
      "inputs": [
        {
          "internalType": "bytes32",
          "name": "id",
          "type": "bytes32"
        }
      ],
      "name": "getDealerInfo",
      "outputs": [
        {
          "components": [
            {
              "internalType": "string",
              "name": "dealerName",
              "type": "string"
            },
            {
              "internalType": "string",
              "name": "firstName",
              "type": "string"
            },
            {
              "internalType": "string",
              "name": "lastName",
              "type": "string"
            },
            {
              "internalType": "string",
              "name": "addr",
              "type": "string"
            },
            {
              "internalType": "string",
              "name": "location",
              "type": "string"
            },
            {
              "internalType": "string",
              "name": "phoneNo",
              "type": "string"
            },
            {
              "internalType": "string",
              "name": "bestSeller",
              "type": "string"
            },
            {
              "internalType": "string",
              "name": "promotion",
              "type": "string"
            },
            {
              "internalType": "string",
              "name": "otherServices",
              "type": "string"
            },
            {
              "internalType": "string[]",
              "name": "availableServices",
              "type": "string[]"
            },
            {
              "internalType": "string[][]",
              "name": "availableSubServices",
              "type": "string[][]"
            }
          ],
          "internalType": "struct DealerContract.DealerInfo",
          "name": "",
          "type": "tuple"
        }
      ],
      "payable": false,
      "stateMutability": "view",
      "type": "function"
    },
    {
      "constant": true,
      "inputs": [
        {
          "internalType": "string",
          "name": "id",
          "type": "string"
        }
      ],
      "name": "getHash",
      "outputs": [
        {
          "internalType": "bytes32",
          "name": "",
          "type": "bytes32"
        }
      ],
      "payable": false,
      "stateMutability": "pure",
      "type": "function"
    },
    {
      "constant": true,
      "inputs": [
        {
          "internalType": "string",
          "name": "noPlate",
          "type": "string"
        }
      ],
      "name": "getRecords",
      "outputs": [
        {
          "components": [
            {
              "internalType": "string[]",
              "name": "services",
              "type": "string[]"
            },
            {
              "internalType": "string[]",
              "name": "subservices",
              "type": "string[]"
            },
            {
              "internalType": "string",
              "name": "comment",
              "type": "string"
            },
            {
              "internalType": "uint256",
              "name": "timeStamp",
              "type": "uint256"
            }
          ],
          "internalType": "struct UserContract.RecordInternal[]",
          "name": "",
          "type": "tuple[]"
        }
      ],
      "payable": false,
      "stateMutability": "view",
      "type": "function"
    },
    {
      "constant": true,
      "inputs": [],
      "name": "getServices",
      "outputs": [
        {
          "internalType": "string[]",
          "name": "",
          "type": "string[]"
        }
      ],
      "payable": false,
      "stateMutability": "view",
      "type": "function"
    },
    {
      "constant": true,
      "inputs": [
        {
          "internalType": "string",
          "name": "serviceName",
          "type": "string"
        }
      ],
      "name": "getSubServices",
      "outputs": [
        {
          "internalType": "string[]",
          "name": "",
          "type": "string[]"
        }
      ],
      "payable": false,
      "stateMutability": "view",
      "type": "function"
    },
    {
      "constant": true,
      "inputs": [
        {
          "internalType": "bytes32",
          "name": "userId",
          "type": "bytes32"
        }
      ],
      "name": "getUserInfo",
      "outputs": [
        {
          "components": [
            {
              "internalType": "string",
              "name": "firstName",
              "type": "string"
            },
            {
              "internalType": "string",
              "name": "lastName",
              "type": "string"
            },
            {
              "internalType": "string",
              "name": "adr",
              "type": "string"
            },
            {
              "internalType": "string",
              "name": "phNo",
              "type": "string"
            },
            {
              "internalType": "string",
              "name": "email",
              "type": "string"
            }
          ],
          "internalType": "struct UserContract.UserInfo",
          "name": "",
          "type": "tuple"
        }
      ],
      "payable": false,
      "stateMutability": "view",
      "type": "function"
    },
    {
      "constant": false,
      "inputs": [
        {
          "internalType": "bytes32",
          "name": "dealerId",
          "type": "bytes32"
        },
        {
          "internalType": "bytes32",
          "name": "id",
          "type": "bytes32"
        },
        {
          "internalType": "string",
          "name": "noPlate",
          "type": "string"
        },
        {
          "internalType": "string[]",
          "name": "services",
          "type": "string[]"
        },
        {
          "internalType": "string[]",
          "name": "subservices",
          "type": "string[]"
        },
        {
          "internalType": "string",
          "name": "comment",
          "type": "string"
        },
        {
          "internalType": "uint256",
          "name": "timeStamp",
          "type": "uint256"
        }
      ],
      "name": "insertRecord",
      "outputs": [],
      "payable": false,
      "stateMutability": "nonpayable",
      "type": "function"
    },
    {
      "constant": true,
      "inputs": [
        {
          "internalType": "bytes32",
          "name": "adr",
          "type": "bytes32"
        }
      ],
      "name": "isVerified",
      "outputs": [
        {
          "internalType": "bool",
          "name": "",
          "type": "bool"
        }
      ],
      "payable": false,
      "stateMutability": "view",
      "type": "function"
    },
    {
      "constant": true,
      "inputs": [],
      "name": "owner",
      "outputs": [
        {
          "internalType": "address",
          "name": "",
          "type": "address"
        }
      ],
      "payable": false,
      "stateMutability": "view",
      "type": "function"
    },
    {
      "constant": false,
      "inputs": [
        {
          "internalType": "bytes32",
          "name": "dealershipId",
          "type": "bytes32"
        },
        {
          "internalType": "bytes32",
          "name": "otherId",
          "type": "bytes32"
        }
      ],
      "name": "transferDealershipOwner",
      "outputs": [],
      "payable": false,
      "stateMutability": "nonpayable",
      "type": "function"
    },
    {
      "constant": false,
      "inputs": [
        {
          "internalType": "address",
          "name": "newOwner",
          "type": "address"
        }
      ],
      "name": "transferOwner",
      "outputs": [],
      "payable": false,
      "stateMutability": "nonpayable",
      "type": "function"
    },
    {
      "constant": false,
      "inputs": [
        {
          "components": [
            {
              "internalType": "bytes32",
              "name": "userId",
              "type": "bytes32"
            },
            {
              "internalType": "bytes32",
              "name": "dealerId",
              "type": "bytes32"
            },
            {
              "internalType": "string",
              "name": "carPlate",
              "type": "string"
            },
            {
              "internalType": "int256",
              "name": "time",
              "type": "int256"
            }
          ],
          "internalType": "struct AppointmentHandler.Appointment",
          "name": "appointment",
          "type": "tuple"
        }
      ],
      "name": "createAppointment",
      "outputs": [],
      "payable": false,
      "stateMutability": "nonpayable",
      "type": "function"
    },
    {
      "constant": false,
      "inputs": [
        {
          "components": [
            {
              "internalType": "bytes32",
              "name": "userId",
              "type": "bytes32"
            },
            {
              "internalType": "bytes32",
              "name": "dealerId",
              "type": "bytes32"
            },
            {
              "internalType": "string",
              "name": "carPlate",
              "type": "string"
            },
            {
              "internalType": "int256",
              "name": "time",
              "type": "int256"
            }
          ],
          "internalType": "struct AppointmentHandler.Appointment",
          "name": "appointment",
          "type": "tuple"
        }
      ],
      "name": "completeAppointment",
      "outputs": [],
      "payable": false,
      "stateMutability": "nonpayable",
      "type": "function"
    },
    {
      "constant": false,
      "inputs": [
        {
          "components": [
            {
              "internalType": "bytes32",
              "name": "userId",
              "type": "bytes32"
            },
            {
              "internalType": "bytes32",
              "name": "dealerId",
              "type": "bytes32"
            },
            {
              "internalType": "string",
              "name": "carPlate",
              "type": "string"
            },
            {
              "internalType": "int256",
              "name": "time",
              "type": "int256"
            }
          ],
          "internalType": "struct AppointmentHandler.Appointment",
          "name": "appointment",
          "type": "tuple"
        }
      ],
      "name": "cancelAppointment",
      "outputs": [],
      "payable": false,
      "stateMutability": "nonpayable",
      "type": "function"
    },
    {
      "constant": true,
      "inputs": [
        {
          "internalType": "bytes32",
          "name": "dealerId",
          "type": "bytes32"
        }
      ],
      "name": "getAppointmentHistory",
      "outputs": [
        {
          "components": [
            {
              "internalType": "bytes32",
              "name": "userId",
              "type": "bytes32"
            },
            {
              "internalType": "bytes32",
              "name": "dealerId",
              "type": "bytes32"
            },
            {
              "internalType": "string",
              "name": "carPlate",
              "type": "string"
            },
            {
              "internalType": "int256",
              "name": "time",
              "type": "int256"
            }
          ],
          "internalType": "struct AppointmentHandler.Appointment[]",
          "name": "",
          "type": "tuple[]"
        }
      ],
      "payable": false,
      "stateMutability": "view",
      "type": "function"
    },
    {
      "constant": true,
      "inputs": [
        {
          "internalType": "bytes32",
          "name": "dealerId",
          "type": "bytes32"
        }
      ],
      "name": "getPendingAppointments",
      "outputs": [
        {
          "components": [
            {
              "internalType": "bytes32",
              "name": "userId",
              "type": "bytes32"
            },
            {
              "internalType": "bytes32",
              "name": "dealerId",
              "type": "bytes32"
            },
            {
              "internalType": "string",
              "name": "carPlate",
              "type": "string"
            },
            {
              "internalType": "int256",
              "name": "time",
              "type": "int256"
            }
          ],
          "internalType": "struct AppointmentHandler.Appointment[]",
          "name": "",
          "type": "tuple[]"
        }
      ],
      "payable": false,
      "stateMutability": "view",
      "type": "function"
    },
    {
      "constant": true,
      "inputs": [
        {
          "internalType": "bytes32",
          "name": "userId",
          "type": "bytes32"
        }
      ],
      "name": "getUserAppointment",
      "outputs": [
        {
          "components": [
            {
              "internalType": "bytes32",
              "name": "userId",
              "type": "bytes32"
            },
            {
              "internalType": "bytes32",
              "name": "dealerId",
              "type": "bytes32"
            },
            {
              "internalType": "string",
              "name": "carPlate",
              "type": "string"
            },
            {
              "internalType": "int256",
              "name": "time",
              "type": "int256"
            }
          ],
          "internalType": "struct AppointmentHandler.Appointment",
          "name": "",
          "type": "tuple"
        }
      ],
      "payable": false,
      "stateMutability": "view",
      "type": "function"
    }
  ],
  "bytecode": "0x60806040526006805461fe0061ff0019909116179055600080546001600160a01b03191633179055614ced806100366000396000f3fe608060405234801561001057600080fd5b50600436106101f05760003560e01c80637e41667f1161010f578063adff8b0f116100a2578063c4e91d1711610071578063c4e91d1714610468578063c9b54a581461047b578063ddb5f4761461049b578063e445268c146104bb576101f0565b8063adff8b0f14610402578063b2c9ae6014610422578063b63e01d214610435578063c181b27314610448576101f0565b80638da5cb5b116100de5780638da5cb5b146103a75780638ee24214146103bc5780638f2b5144146103cf578063a44e4c70146103e2576101f0565b80637e41667f1461034c57806382d7afbd1461036157806386e80b711461037457806388fcd19414610394576101f0565b80634fb2e45d1161018757806360e9480b1161015657806360e9480b146102fe5780636fd7d2b51461031157806375417851146103245780637d17f13c1461032c576101f0565b80634fb2e45d146102a557806350fb95e3146102b85780635a82610c146102cb5780635b6beeb9146102de576101f0565b80631b8f47fe116101c35780631b8f47fe146102435780632d4afc7b14610256578063369bfce414610269578063431a65fc1461027c576101f0565b806307681038146101f55780630ad5be911461020a5780630eb7bc8f1461021d5780631a4c85be14610230575b600080fd5b610208610203366004613f55565b6104ce565b005b610208610218366004613c4f565b6106cb565b61020861022b366004613e3d565b610818565b61020861023e366004613e09565b6108a3565b610208610251366004613bd9565b610954565b610208610264366004613f55565b6109e5565b610208610277366004613e3d565b610b5a565b61028f61028a366004613e09565b610bf4565b60405161029c9190614a10565b60405180910390f35b6102086102b3366004613bb3565b610ceb565b6102086102c6366004613e3d565b610d37565b6102086102d9366004613f21565b610e1a565b6102f16102ec366004613e09565b610ef0565b60405161029c9190614a62565b61020861030c366004613f21565b610f65565b61020861031f366004613e9a565b6110c3565b61028f611165565b61033f61033a366004613bd9565b6112ba565b60405161029c9190614b61565b610354611a14565b60405161029c91906149ff565b61020861036f366004613c15565b611a97565b610387610382366004613e09565b611b93565b60405161029c9190614a43565b6102086103a2366004613e09565b611e51565b6103af611f5f565b60405161029c91906149f1565b6102086103ca366004613d47565b611f6e565b61028f6103dd366004613bd9565b612075565b6103f56103f0366004613bd9565b612155565b60405161029c9190614a21565b610415610410366004613bd9565b6122a5565b60405161029c9190614b92565b610208610430366004613f21565b6125b7565b6103f5610443366004613bd9565b61267a565b61045b610456366004613bd9565b6127bd565b60405161029c9190614a54565b610208610476366004613dc2565b6127ea565b61048e610489366004613bd9565b61287c565b60405161029c9190614a32565b6104ae6104a9366004613bd9565b612b1e565b60405161029c9190614b50565b6102086104c9366004613c15565b612c0b565b60008181526001602052604090205460ff16156105065760405162461bcd60e51b81526004016104fd90614b10565b60405180910390fd5b600081815260046020908152604090912083518051859361052b928492910190613208565b5060208281015180516105449260018501920190613208565b5060408201518051610560916002840191602090910190613208565b506060820151805161057c916003840191602090910190613208565b5060808201518051610598916004840191602090910190613208565b5060a082015180516105b4916005840191602090910190613208565b5060c082015180516105d0916006840191602090910190613208565b5060e082015180516105ec916007840191602090910190613208565b506101008201518051610609916008840191602090910190613208565b506101208201518051610626916009840191602090910190613286565b50610140820151805161064391600a8401916020909101906132df565b50905050600061065282612c96565b121561068e57600580546001810182556000919091527f036b6384b5eca791c62761152d0c79bb0604c104a5fb6f4eb0703f3154bb3db0018190555b7f42ab459ad3144922283159073eea05ed3ff810ab23fc94bbad43d99b9332dbb282826040516106bf929190614b72565b60405180910390a15050565b866106d5816127bd565b6106f15760405162461bcd60e51b81526004016104fd90614b40565b8451845111156107135760405162461bcd60e51b81526004016104fd90614ad0565b600061071f8888612cdc565b121561075c576000878152600b602090815260408220805460018101808355918452928290208951919361075993910191908a0190613208565b50505b60098660405161076c91906149d9565b90815260408051918290036020908101832060808401835288845283820188905291830186905260608301859052815460018101808455600093845292829020845180519495946004909302909101926107cb92849290910190613286565b5060208281015180516107e49260018501920190613286565b5060408201518051610800916002840191602090910190613208565b50606082015181600301555050505050505050505050565b6000546001600160a01b031633146108425760405162461bcd60e51b81526004016104fd90614ae0565b8161084c81612df1565b6108685760405162461bcd60e51b81526004016104fd90614b00565b816007600061087686612e12565b60ff1660ff168152602001908152602001600020908051906020019061089d929190613208565b50505050565b6000546001600160a01b031633146108cd5760405162461bcd60e51b81526004016104fd90614ae0565b806108d781612df1565b6108f35760405162461bcd60e51b81526004016104fd90614b00565b604051806020016040528060008152506007600061091085612e12565b60ff1660ff1681526020019081526020016000209080519060200190610937929190613208565b50506006805460ff19811660ff9182166000190190911617905550565b6000546001600160a01b0316331461097e5760405162461bcd60e51b81526004016104fd90614ae0565b600061098982612c96565b905060008112156109ac5760405162461bcd60e51b81526004016104fd90614aa0565b6000828152600160208190526040909120805460ff1916909117905560058054829081106109d657fe5b60009182526020822001555050565b600081815260016020526040902054819060ff16610a155760405162461bcd60e51b81526004016104fd90614a80565b6000828152600460209081526040909120845180518693610a3a928492910190613208565b506020828101518051610a539260018501920190613208565b5060408201518051610a6f916002840191602090910190613208565b5060608201518051610a8b916003840191602090910190613208565b5060808201518051610aa7916004840191602090910190613208565b5060a08201518051610ac3916005840191602090910190613208565b5060c08201518051610adf916006840191602090910190613208565b5060e08201518051610afb916007840191602090910190613208565b506101008201518051610b18916008840191602090910190613208565b506101208201518051610b35916009840191602090910190613286565b506101408201518051610b5291600a8401916020909101906132df565b505050505050565b6000546001600160a01b03163314610b845760405162461bcd60e51b81526004016104fd90614ae0565b8181610b908282612efc565b610bac5760405162461bcd60e51b81526004016104fd90614af0565b600884604051610bbc91906149d9565b9081526020016040518091039020610bd48585612f12565b81548110610bde57fe5b90600052602060002001600061089d9190613338565b6060600882604051610c0691906149d9565b9081526020016040518091039020805480602002602001604051908101604052809291908181526020016000905b82821015610cdf5760008481526020908190208301805460408051601f6002600019610100600187161502019094169390930492830185900485028101850190915281815292830182828015610ccb5780601f10610ca057610100808354040283529160200191610ccb565b820191906000526020600020905b815481529060010190602001808311610cae57829003601f168201915b505050505081526020019060010190610c34565b5050505090505b919050565b6000546001600160a01b03163314610d155760405162461bcd60e51b81526004016104fd90614ae0565b600080546001600160a01b0319166001600160a01b0392909216919091179055565b8160ff600882604051610d4a91906149d9565b9081526040519081900360200190205410610d775760405162461bcd60e51b81526004016104fd90614ac0565b8282610d838282612efc565b15610da05760405162461bcd60e51b81526004016104fd90614a90565b6000546001600160a01b03163314610dca5760405162461bcd60e51b81526004016104fd90614ae0565b600885604051610dda91906149d9565b9081526040516020918190038201902080546001810180835560009283529183902087519293610e11939190920191880190613208565b50505050505050565b8060200151610e28816127bd565b610e445760405162461bcd60e51b81526004016104fd90614b40565b6000610e4f83612f90565b90506000198110610e725760405162461bcd60e51b81526004016104fd90614ab0565b610e80836020015182613028565b6040805160808101825260008082526020808301828152845180830186528381528486019081526060850184905288518452600f83529490922083518155915160018301559251805192939192610edd9260028501920190613208565b5060608201518160030155905050505050565b6000600282604051602001610f0591906149d9565b60408051601f1981840301815290829052610f1f916149d9565b602060405180830381855afa158015610f3c573d6000803e3d6000fd5b5050506040513d601f19601f82011682018060405250610f5f9190810190613bf7565b92915050565b8060200151610f73816127bd565b610f8f5760405162461bcd60e51b81526004016104fd90614b40565b81516000818152600f602052604090205415611027576000610fb084612f90565b905083600e6000866020015181526020019081526020016000208281548110610fd557fe5b906000526020600020906004020160008201518160000155602082015181600101556040820151816002019080519060200190611013929190613208565b50606082015181600301559050505061108a565b602080840180516000908152600e83526040808220805460018181018084559285529386902089516004909202019081559351928401929092558601518051919387939261107b9260028501920190613208565b50606082015181600301555050505b6000818152600f602090815260409182902085518155818601516001820155918501518051869392610edd926002850192910190613208565b82826110cf8282612efc565b6110eb5760405162461bcd60e51b81526004016104fd90614af0565b6000546001600160a01b031633146111155760405162461bcd60e51b81526004016104fd90614ae0565b8260088660405161112691906149d9565b908152602001604051809103902061113e8787612f12565b8154811061114857fe5b906000526020600020019080519060200190610b52929190613208565b6006546040805160ff9092168083526020808202840101909152606091829180156111a457816020015b606081526020019060019003908161118f5790505b5090506000805b60065460ff610100909104811690821610156112b15760ff811660009081526007602052604090205460026000196101006001841615020190911604156112a95760ff811660009081526007602090815260409182902080548351601f6002600019610100600186161502019093169290920491820184900484028101840190945280845290918301828280156112835780601f1061125857610100808354040283529160200191611283565b820191906000526020600020905b81548152906001019060200180831161126657829003601f168201915b5050505050838380600101945060ff168151811061129d57fe5b60200260200101819052505b6001016111ab565b50909150505b90565b6112c261337f565b6000828152600460209081526040918290208251815460026001821615610100026000190190911604601f8101849004909302810161018090810190945261016081018381529093919284928491908401828280156113625780601f1061133757610100808354040283529160200191611362565b820191906000526020600020905b81548152906001019060200180831161134557829003601f168201915b50505050508152602001600182018054600181600116156101000203166002900480601f0160208091040260200160405190810160405280929190818152602001828054600181600116156101000203166002900480156114045780601f106113d957610100808354040283529160200191611404565b820191906000526020600020905b8154815290600101906020018083116113e757829003601f168201915b5050509183525050600282810180546040805160206001841615610100026000190190931694909404601f810183900483028501830190915280845293810193908301828280156114965780601f1061146b57610100808354040283529160200191611496565b820191906000526020600020905b81548152906001019060200180831161147957829003601f168201915b505050918352505060038201805460408051602060026001851615610100026000190190941693909304601f810184900484028201840190925281815293820193929183018282801561152a5780601f106114ff5761010080835404028352916020019161152a565b820191906000526020600020905b81548152906001019060200180831161150d57829003601f168201915b505050918352505060048201805460408051602060026001851615610100026000190190941693909304601f81018490048402820184019092528181529382019392918301828280156115be5780601f10611593576101008083540402835291602001916115be565b820191906000526020600020905b8154815290600101906020018083116115a157829003601f168201915b505050918352505060058201805460408051602060026001851615610100026000190190941693909304601f81018490048402820184019092528181529382019392918301828280156116525780601f1061162757610100808354040283529160200191611652565b820191906000526020600020905b81548152906001019060200180831161163557829003601f168201915b505050918352505060068201805460408051602060026001851615610100026000190190941693909304601f81018490048402820184019092528181529382019392918301828280156116e65780601f106116bb576101008083540402835291602001916116e6565b820191906000526020600020905b8154815290600101906020018083116116c957829003601f168201915b505050918352505060078201805460408051602060026001851615610100026000190190941693909304601f810184900484028201840190925281815293820193929183018282801561177a5780601f1061174f5761010080835404028352916020019161177a565b820191906000526020600020905b81548152906001019060200180831161175d57829003601f168201915b505050918352505060088201805460408051602060026001851615610100026000190190941693909304601f810184900484028201840190925281815293820193929183018282801561180e5780601f106117e35761010080835404028352916020019161180e565b820191906000526020600020905b8154815290600101906020018083116117f157829003601f168201915b5050505050815260200160098201805480602002602001604051908101604052809291908181526020016000905b828210156118e75760008481526020908190208301805460408051601f60026000196101006001871615020190941693909304928301859004850281018501909152818152928301828280156118d35780601f106118a8576101008083540402835291602001916118d3565b820191906000526020600020905b8154815290600101906020018083116118b657829003601f168201915b50505050508152602001906001019061183c565b505050508152602001600a8201805480602002602001604051908101604052809291908181526020016000905b82821015611a0657838290600052602060002001805480602002602001604051908101604052809291908181526020016000905b828210156119f35760008481526020908190208301805460408051601f60026000196101006001871615020190941693909304928301859004850281018501909152818152928301828280156119df5780601f106119b4576101008083540402835291602001916119df565b820191906000526020600020905b8154815290600101906020018083116119c257829003601f168201915b505050505081526020019060010190611948565b5050505081526020019060010190611914565b505050915250909392505050565b6000546060906001600160a01b03163314611a415760405162461bcd60e51b81526004016104fd90614ae0565b6005805480602002602001604051908101604052809291908181526020018280548015611a8d57602002820191906000526020600020905b815481526020019060010190808311611a79575b5050505050905090565b600082815260016020526040902054829060ff16611ac75760405162461bcd60e51b81526004016104fd90614a80565b6000828152600160208181526040808420805460ff1990811690941790558684528084208054909316909255848352600381528183208390558583526002905280822084835291208154611b1b92906133d9565b506000838152600260205260408120611b3391613419565b60005b60008381526002602052604090205481101561089d578260036000600260008781526020019081526020016000208481548110611b6f57fe5b60009182526020808320909101548352820192909252604001902055600101611b36565b6060600982604051611ba591906149d9565b9081526020016040518091039020805480602002602001604051908101604052809291908181526020016000905b82821015610cdf578382906000526020600020906004020160405180608001604052908160008201805480602002602001604051908101604052809291908181526020016000905b82821015611cc65760008481526020908190208301805460408051601f6002600019610100600187161502019094169390930492830185900485028101850190915281815292830182828015611cb25780601f10611c8757610100808354040283529160200191611cb2565b820191906000526020600020905b815481529060010190602001808311611c9557829003601f168201915b505050505081526020019060010190611c1b565b50505050815260200160018201805480602002602001604051908101604052809291908181526020016000905b82821015611d9e5760008481526020908190208301805460408051601f6002600019610100600187161502019094169390930492830185900485028101850190915281815292830182828015611d8a5780601f10611d5f57610100808354040283529160200191611d8a565b820191906000526020600020905b815481529060010190602001808311611d6d57829003601f168201915b505050505081526020019060010190611cf3565b50505090825250600282810180546040805160206001841615610100026000190190931694909404601f81018390048302850183019091528084529381019390830182828015611e2f5780601f10611e0457610100808354040283529160200191611e2f565b820191906000526020600020905b815481529060010190602001808311611e1257829003601f168201915b5050505050815260200160038201548152505081526020019060010190611bd3565b6000546001600160a01b03163314611e7b5760405162461bcd60e51b81526004016104fd90614ae0565b80611e8581612df1565b15611ea25760405162461bcd60e51b81526004016104fd90614b20565b60065460ff6101008204811691161115611ece5760405162461bcd60e51b81526004016104fd90614b30565b60005b60065460ff61010090910481169082161015611f595760ff811660009081526007602052604090205460026000196101006001841615020190911604611f515760ff811660009081526007602090815260409091208451611f3492860190613208565b50506006805460ff8082166001011660ff19909116179055611f5b565b600101611ed1565b505b5050565b6000546001600160a01b031681565b80600c83604051611f7f91906149d9565b90815260200160405180910390206000820151816000019080519060200190611fa9929190613208565b506020828101518051611fc29260018501920190613208565b5060408201518051611fde916002840191602090910190613208565b509050506000611fee8484612cdc565b90506000811215612034576000848152600b602090815260408220805460018101808355918452928290208651919361202d9391019190870190613208565b505061089d565b6000848152600b6020526040902080548491908390811061205157fe5b90600052602060002001908051906020019061206e929190613208565b5050505050565b6060600b6000838152602001908152602001600020805480602002602001604051908101604052809291908181526020016000905b82821015610cdf5760008481526020908190208301805460408051601f60026000196101006001871615020190941693909304928301859004850281018501909152818152928301828280156121415780601f1061211657610100808354040283529160200191612141565b820191906000526020600020905b81548152906001019060200180831161212457829003601f168201915b5050505050815260200190600101906120aa565b606081612161816127bd565b61217d5760405162461bcd60e51b81526004016104fd90614b40565b6000838152600e6020908152604080832080548251818502810185019093528083529193909284015b8282101561229857838290600052602060002090600402016040518060800160405290816000820154815260200160018201548152602001600282018054600181600116156101000203166002900480601f0160208091040260200160405190810160405280929190818152602001828054600181600116156101000203166002900480156122765780601f1061224b57610100808354040283529160200191612276565b820191906000526020600020905b81548152906001019060200180831161225957829003601f168201915b50505050508152602001600382015481525050815260200190600101906121a6565b5050505091505b50919050565b6122ad613437565b6000828152600a60209081526040918290208251815460026001821615610100026000190190911604601f8101849004909302810160c090810190945260a0810183815290939192849284919084018282801561234b5780601f106123205761010080835404028352916020019161234b565b820191906000526020600020905b81548152906001019060200180831161232e57829003601f168201915b50505050508152602001600182018054600181600116156101000203166002900480601f0160208091040260200160405190810160405280929190818152602001828054600181600116156101000203166002900480156123ed5780601f106123c2576101008083540402835291602001916123ed565b820191906000526020600020905b8154815290600101906020018083116123d057829003601f168201915b5050509183525050600282810180546040805160206001841615610100026000190190931694909404601f8101839004830285018301909152808452938101939083018282801561247f5780601f106124545761010080835404028352916020019161247f565b820191906000526020600020905b81548152906001019060200180831161246257829003601f168201915b505050918352505060038201805460408051602060026001851615610100026000190190941693909304601f81018490048402820184019092528181529382019392918301828280156125135780601f106124e857610100808354040283529160200191612513565b820191906000526020600020905b8154815290600101906020018083116124f657829003601f168201915b505050918352505060048201805460408051602060026001851615610100026000190190941693909304601f81018490048402820184019092528181529382019392918301828280156125a75780601f1061257c576101008083540402835291602001916125a7565b820191906000526020600020905b81548152906001019060200180831161258a57829003601f168201915b5050505050815250509050919050565b80602001516125c5816127bd565b6125e15760405162461bcd60e51b81526004016104fd90614b40565b60006125ec83612f90565b9050600019811061260f5760405162461bcd60e51b81526004016104fd90614ab0565b602080840180516000908152600d8352604080822080546001818101808455928552938690208951600490920201908155935192840192909255860151805191938793926126639260028501920190613208565b5060608201518160030155505050611f5983610e1a565b606081612686816127bd565b6126a25760405162461bcd60e51b81526004016104fd90614b40565b6000838152600d6020908152604080832080548251818502810185019093528083529193909284015b8282101561229857838290600052602060002090600402016040518060800160405290816000820154815260200160018201548152602001600282018054600181600116156101000203166002900480601f01602080910402602001604051908101604052809291908181526020018280546001816001161561010002031660029004801561279b5780601f106127705761010080835404028352916020019161279b565b820191906000526020600020905b81548152906001019060200180831161277e57829003601f168201915b50505050508152602001600382015481525050815260200190600101906126cb565b60008181526001602052604081205460ff1680610f5f575050600090815260036020526040902054151590565b6000828152600a6020908152604090912082518051849361280f928492910190613208565b5060208281015180516128289260018501920190613208565b5060408201518051612844916002840191602090910190613208565b5060608201518051612860916003840191602090910190613208565b506080820151805161206e916004840191602090910190613208565b606080600b6000848152602001908152602001600020805490506040519080825280602002602001820160405280156128cf57816020015b6128bc613466565b8152602001906001900390816128b45790505b50905060005b6000848152600b6020526040902054811015612b17576000848152600b602052604090208054600c91908390811061290957fe5b9060005260206000200160405161292091906149e5565b9081526040805160209281900383018120805460026001821615610100026000190190911604601f810185900490940282016080908101909352606082018481529193909284929184918401828280156129bb5780601f10612990576101008083540402835291602001916129bb565b820191906000526020600020905b81548152906001019060200180831161299e57829003601f168201915b50505050508152602001600182018054600181600116156101000203166002900480601f016020809104026020016040519081016040528092919081815260200182805460018160011615610100020316600290048015612a5d5780601f10612a3257610100808354040283529160200191612a5d565b820191906000526020600020905b815481529060010190602001808311612a4057829003601f168201915b5050509183525050600282810180546040805160206001841615610100026000190190931694909404601f81018390048302850183019091528084529381019390830182828015612aef5780601f10612ac457610100808354040283529160200191612aef565b820191906000526020600020905b815481529060010190602001808311612ad257829003601f168201915b505050505081525050828281518110612b0457fe5b60209081029190910101526001016128d5565b5092915050565b612b26613487565b600f60008381526020019081526020016000206040518060800160405290816000820154815260200160018201548152602001600282018054600181600116156101000203166002900480601f016020809104026020016040519081016040528092919081815260200182805460018160011615610100020316600290048015612bf15780601f10612bc657610100808354040283529160200191612bf1565b820191906000526020600020905b815481529060010190602001808311612bd457829003601f168201915b505050505081526020016003820154815250509050919050565b600082815260016020526040902054829060ff16612c3b5760405162461bcd60e51b81526004016104fd90614a80565b60008281526003602052604090205415612c675760405162461bcd60e51b81526004016104fd90614a70565b506000828152600260209081526040808320805460018101825590845282842001849055928252600390522055565b6000805b600554811015612cd2578260058281548110612cb257fe5b90600052602060002001541415612cca579050610ce6565b600101612c9a565b5060001992915050565b6000805b6000848152600b60205260409020546001600160801b0382161015612de657612d088361312d565b6000858152600b602052604090208054612dc891906001600160801b038516908110612d3057fe5b600091825260209182902001805460408051601f6002600019610100600187161502019094169390930492830185900485028101850190915281815292830182828015612dbe5780601f10612d9357610100808354040283529160200191612dbe565b820191906000526020600020905b815481529060010190602001808311612da157829003601f168201915b505050505061312d565b1415612dde576001600160801b03169050610f5f565b600101612ce0565b506000199392505050565b600654600090610100900460ff16612e0883612e12565b60ff161092915050565b600080612e1e8361312d565b905060005b60065460ff61010090910481169082161015612ef25760ff81166000908152600760205260409020546002600019610100600184161502019091160415801590612edc575060ff81166000908152600760209081526040918290208054835160026001831615610100026000190190921691909104601f81018490048402820184019094528381528593612eda93919291830182828015612dbe5780601f10612d9357610100808354040283529160200191612dbe565b145b15612eea579150610ce69050565b600101612e23565b5060ff9392505050565b600060ff612f0a8484612f12565b109392505050565b6000805b600884604051612f2691906149d9565b9081526040519081900360200190205460ff82161015612ef257612f498361312d565b612f78600886604051612f5c91906149d9565b90815260200160405180910390208360ff1681548110612d3057fe5b1415612f885760ff169050610f5f565b600101612f16565b60008160200151612fa0816127bd565b612fbc5760405162461bcd60e51b81526004016104fd90614b40565b60005b6020808501516000908152600e9091526040902054811015612de65761301484600e600087602001518152602001908152602001600020838154811061300157fe5b906000526020600020906004020161315d565b1561302057915061229f565b600101612fbf565b81613032816127bd565b61304e5760405162461bcd60e51b81526004016104fd90614b40565b600182015b6000848152600e602052604090205481101561310d576000848152600e6020526040902080548290811061308357fe5b9060005260206000209060040201600e600086815260200190815260200160002060018303815481106130b257fe5b90600052602060002090600402016000820154816000015560018201548160010155600282018160020190805460018160011615610100020316600290046130fb9291906134af565b50600391820154910155600101613053565b506000838152600e6020526040902080549061089d906000198301613523565b60008160405160200161314091906149d9565b604051602081830303815290604052805190602001209050919050565b80548251600091148015613178575081600101548360200151145b80156131ee5750600282810180546040805160206001841615610100026000190190931694909404601f81018390048302850183019091528084526131df939291830182828015612dbe5780601f10612d9357610100808354040283529160200191612dbe565b6131ec846040015161312d565b145b8015613201575081600301548360600151145b9392505050565b828054600181600116156101000203166002900490600052602060002090601f016020900481019282601f1061324957805160ff1916838001178555613276565b82800160010185558215613276579182015b8281111561327657825182559160200191906001019061325b565b5061328292915061354f565b5090565b8280548282559060005260206000209081019282156132d3579160200282015b828111156132d357825180516132c3918491602090910190613208565b50916020019190600101906132a6565b50613282929150613569565b82805482825590600052602060002090810192821561332c579160200282015b8281111561332c578251805161331c918491602090910190613286565b50916020019190600101906132ff565b5061328292915061358c565b50805460018160011615610100020316600290046000825580601f1061335e575061337c565b601f01602090049060005260206000209081019061337c919061354f565b50565b60405180610160016040528060608152602001606081526020016060815260200160608152602001606081526020016060815260200160608152602001606081526020016060815260200160608152602001606081525090565b8280548282559060005260206000209081019282156132765760005260206000209182015b828111156132765782548255916001019190600101906133fe565b508054600082559060005260206000209081019061337c919061354f565b6040518060a0016040528060608152602001606081526020016060815260200160608152602001606081525090565b60405180606001604052806060815260200160608152602001606081525090565b6040805160808101825260008082526020820181905260609282018390529181019190915290565b828054600181600116156101000203166002900490600052602060002090601f016020900481019282601f106134e85780548555613276565b8280016001018555821561327657600052602060002091601f01602090048201828111156132765782548255916001019190600101906133fe565b815481835581811115611f5957600402816004028360005260206000209182019101611f5991906135af565b6112b791905b808211156132825760008155600101613555565b6112b791905b808211156132825760006135838282613338565b5060010161356f565b6112b791905b808211156132825760006135a682826135e6565b50600101613592565b6112b791905b80821115613282576000808255600182018190556135d66002830182613338565b50600060038201556004016135b5565b508054600082559060005260206000209081019061337c9190613569565b8035610f5f81614c8d565b600082601f83011261362057600080fd5b813561363361362e82614bc9565b614ba3565b81815260209384019390925082018360005b83811015613671578135860161365b888261367b565b8452506020928301929190910190600101613645565b5050505092915050565b600082601f83011261368c57600080fd5b813561369a61362e82614bc9565b81815260209384019390925082018360005b8381101561367157813586016136c2888261374b565b84525060209283019291909101906001016136ac565b600082601f8301126136e957600080fd5b81356136f761362e82614bc9565b81815260209384019390925082018360005b83811015613671578135860161371f888261374b565b8452506020928301929190910190600101613709565b8035610f5f81614ca1565b8051610f5f81614ca1565b600082601f83011261375c57600080fd5b813561376a61362e82614be9565b9150808252602083016020830185838301111561378657600080fd5b613791838284614c4b565b50505092915050565b6000608082840312156137ac57600080fd5b6137b66080614ba3565b905060006137c48484613735565b82525060206137d584848301613735565b60208301525060408201356001600160401b038111156137f457600080fd5b6138008482850161374b565b604083015250606061381484828501613735565b60608301525092915050565b60006060828403121561383257600080fd5b61383c6060614ba3565b905081356001600160401b0381111561385457600080fd5b6138608482850161374b565b82525060208201356001600160401b0381111561387c57600080fd5b6138888482850161374b565b60208301525060408201356001600160401b038111156138a757600080fd5b6138b38482850161374b565b60408301525092915050565b600061016082840312156138d257600080fd5b6138dd610160614ba3565b905081356001600160401b038111156138f557600080fd5b6139018482850161374b565b82525060208201356001600160401b0381111561391d57600080fd5b6139298482850161374b565b60208301525060408201356001600160401b0381111561394857600080fd5b6139548482850161374b565b60408301525060608201356001600160401b0381111561397357600080fd5b61397f8482850161374b565b60608301525060808201356001600160401b0381111561399e57600080fd5b6139aa8482850161374b565b60808301525060a08201356001600160401b038111156139c957600080fd5b6139d58482850161374b565b60a08301525060c08201356001600160401b038111156139f457600080fd5b613a008482850161374b565b60c08301525060e08201356001600160401b03811115613a1f57600080fd5b613a2b8482850161374b565b60e0830152506101008201356001600160401b03811115613a4b57600080fd5b613a578482850161374b565b610100830152506101208201356001600160401b03811115613a7857600080fd5b613a848482850161367b565b610120830152506101408201356001600160401b03811115613aa557600080fd5b613ab18482850161360f565b6101408301525092915050565b600060a08284031215613ad057600080fd5b613ada60a0614ba3565b905081356001600160401b03811115613af257600080fd5b613afe8482850161374b565b82525060208201356001600160401b03811115613b1a57600080fd5b613b268482850161374b565b60208301525060408201356001600160401b03811115613b4557600080fd5b613b518482850161374b565b60408301525060608201356001600160401b03811115613b7057600080fd5b613b7c8482850161374b565b60608301525060808201356001600160401b03811115613b9b57600080fd5b613ba78482850161374b565b60808301525092915050565b600060208284031215613bc557600080fd5b6000613bd18484613604565b949350505050565b600060208284031215613beb57600080fd5b6000613bd18484613735565b600060208284031215613c0957600080fd5b6000613bd18484613740565b60008060408385031215613c2857600080fd5b6000613c348585613735565b9250506020613c4585828601613735565b9150509250929050565b600080600080600080600060e0888a031215613c6a57600080fd5b6000613c768a8a613735565b9750506020613c878a828b01613735565b96505060408801356001600160401b03811115613ca357600080fd5b613caf8a828b0161374b565b95505060608801356001600160401b03811115613ccb57600080fd5b613cd78a828b016136d8565b94505060808801356001600160401b03811115613cf357600080fd5b613cff8a828b016136d8565b93505060a08801356001600160401b03811115613d1b57600080fd5b613d278a828b0161374b565b92505060c0613d388a828b01613735565b91505092959891949750929550565b600080600060608486031215613d5c57600080fd5b6000613d688686613735565b93505060208401356001600160401b03811115613d8457600080fd5b613d908682870161374b565b92505060408401356001600160401b03811115613dac57600080fd5b613db886828701613820565b9150509250925092565b60008060408385031215613dd557600080fd5b6000613de18585613735565b92505060208301356001600160401b03811115613dfd57600080fd5b613c4585828601613abe565b600060208284031215613e1b57600080fd5b81356001600160401b03811115613e3157600080fd5b613bd18482850161374b565b60008060408385031215613e5057600080fd5b82356001600160401b03811115613e6657600080fd5b613e728582860161374b565b92505060208301356001600160401b03811115613e8e57600080fd5b613c458582860161374b565b600080600060608486031215613eaf57600080fd5b83356001600160401b03811115613ec557600080fd5b613ed18682870161374b565b93505060208401356001600160401b03811115613eed57600080fd5b613ef98682870161374b565b92505060408401356001600160401b03811115613f1557600080fd5b613db88682870161374b565b600060208284031215613f3357600080fd5b81356001600160401b03811115613f4957600080fd5b613bd18482850161379a565b60008060408385031215613f6857600080fd5b82356001600160401b03811115613f7e57600080fd5b613c34858286016138bf565b60006132018383614111565b6000613fa2838361429e565b505060200190565b600061320183836142d6565b60006132018383614739565b60006132018383614795565b6000613201838361490d565b613fe381614c2f565b82525050565b6000613ff482614c22565b613ffe8185614c26565b93508360208202850161401085614c10565b8060005b8581101561404a578484038952815161402d8582613f8a565b945061403883614c10565b60209a909a0199925050600101614014565b5091979650505050505050565b600061406282614c22565b61406c8185614c26565b935061407783614c10565b8060005b838110156140a557815161408f8882613f96565b975061409a83614c10565b92505060010161407b565b509495945050505050565b60006140bb82614c22565b6140c58185614c26565b9350836020820285016140d785614c10565b8060005b8581101561404a57848403895281516140f48582613faa565b94506140ff83614c10565b60209a909a01999250506001016140db565b600061411c82614c22565b6141268185614c26565b93508360208202850161413885614c10565b8060005b8581101561404a57848403895281516141558582613faa565b945061416083614c10565b60209a909a019992505060010161413c565b600061417d82614c22565b6141878185614c26565b93508360208202850161419985614c10565b8060005b8581101561404a57848403895281516141b68582613fb6565b94506141c183614c10565b60209a909a019992505060010161419d565b60006141de82614c22565b6141e88185614c26565b9350836020820285016141fa85614c10565b8060005b8581101561404a57848403895281516142178582613fc2565b945061422283614c10565b60209a909a01999250506001016141fe565b600061423f82614c22565b6142498185614c26565b93508360208202850161425b85614c10565b8060005b8581101561404a57848403895281516142788582613fce565b945061428383614c10565b60209a909a019992505060010161425f565b613fe381614c3a565b613fe3816112b7565b60006142b282614c22565b6142bc8185610ce6565b93506142cc818560208601614c57565b9290920192915050565b60006142e182614c22565b6142eb8185614c26565b93506142fb818560208601614c57565b61430481614c83565b9093019392505050565b60008154600181166000811461432b576001811461434e5761438d565b607f600283041661433c8187610ce6565b60ff198416815295508501925061438d565b6002820461435c8187610ce6565b955061436785614c16565b60005b828110156143865781548882015260019091019060200161436a565b5050850192505b505092915050565b60006143a2602183614c26565b7f5468617420656d706c6f79656520616c726561647920776f726b7320746865728152606560f81b602082015260400192915050565b60006143e5602983614c26565b7f596f75206d7573742062652061206465616c657273686970206f776e657220748152686f20646f207468697360b81b602082015260400192915050565b6000614430601e83614c26565b7f54686174207375627365727669636520616c7265616479206578697374730000815260200192915050565b6000614469602183614c26565b7f4e6f206170706c69636174696f6e2065786973747320666f72207468617420698152601960fa1b602082015260400192915050565b60006144ac601f83614c26565b7f54686174206170706f696e746d656e7420646f6573206e6f7420657869737400815260200192915050565b60006144e5602183614c26565b7f4d6178696d756d207375627365727669636520616d6f756e74207265616368658152601960fa1b602082015260400192915050565b6000614528603383614c26565b7f4e756d626572206f6620737562736572766963657320646f6573206e6f74206d8152720c2e8c6d040e6cae4ecd2c6ca40d8cadccee8d606b1b602082015260400192915050565b600061457d601583614c26565b742cb7ba9030b932903737ba103a34329037bbb732b960591b815260200192915050565b60006145ae602c83614c26565b7f54686174207375627365727669636520646f65736e7420657869737420696e2081526b1d1a1a5cc818dbdb9d195e1d60a21b602082015260400192915050565b60006145fc601b83614c26565b7f54686174207365727669636520646f6573206e6f742065786973740000000000815260200192915050565b6000614635602283614c26565b7f54686174206164647265737320697320616c7265616479207265676973746572815261195960f21b602082015260400192915050565b6000614679601b83614c26565b7f54686174207365727669636520616c7265616479206578697374730000000000815260200192915050565b60006146b2602883614c26565b7f54686572652061726520746865206d6178696d756d206e756d626572206f6620815267736572766963657360c01b602082015260400192915050565b60006146fc602883614c26565b7f596f75206d7573742062652061207665726966696564206465616c657220746f81526720646f207468697360c01b602082015260400192915050565b8051600090608084019061474d858261429e565b506020830151614760602086018261429e565b506040830151848203604086015261477882826142d6565b915050606083015161478d606086018261429e565b509392505050565b80516060808452600091908401906147ad82826142d6565b915050602083015184820360208601526147c782826142d6565b915050604083015184820360408601526147e182826142d6565b95945050505050565b80516101608084526000919084019061480382826142d6565b9150506020830151848203602086015261481d82826142d6565b9150506040830151848203604086015261483782826142d6565b9150506060830151848203606086015261485182826142d6565b9150506080830151848203608086015261486b82826142d6565b91505060a083015184820360a086015261488582826142d6565b91505060c083015184820360c086015261489f82826142d6565b91505060e083015184820360e08601526148b982826142d6565b9150506101008301518482036101008601526148d582826142d6565b9150506101208301518482036101208601526148f18282614111565b9150506101408301518482036101408601526147e18282613fe9565b80516080808452600091908401906149258282614111565b9150506020830151848203602086015261493f8282614111565b9150506040830151848203604086015261477882826142d6565b805160a08084526000919084019061497182826142d6565b9150506020830151848203602086015261498b82826142d6565b915050604083015184820360408601526149a582826142d6565b915050606083015184820360608601526149bf82826142d6565b915050608083015184820360808601526147e182826142d6565b600061320182846142a7565b6000613201828461430e565b60208101610f5f8284613fda565b602080825281016132018184614057565b6020808252810161320181846140b0565b602080825281016132018184614172565b6020808252810161320181846141d3565b602080825281016132018184614234565b60208101610f5f8284614295565b60208101610f5f828461429e565b60208082528101610f5f81614395565b60208082528101610f5f816143d8565b60208082528101610f5f81614423565b60208082528101610f5f8161445c565b60208082528101610f5f8161449f565b60208082528101610f5f816144d8565b60208082528101610f5f8161451b565b60208082528101610f5f81614570565b60208082528101610f5f816145a1565b60208082528101610f5f816145ef565b60208082528101610f5f81614628565b60208082528101610f5f8161466c565b60208082528101610f5f816146a5565b60208082528101610f5f816146ef565b602080825281016132018184614739565b6020808252810161320181846147ea565b60408082528101614b8381856147ea565b9050613201602083018461429e565b602080825281016132018184614959565b6040518181016001600160401b0381118282101715614bc157600080fd5b604052919050565b60006001600160401b03821115614bdf57600080fd5b5060209081020190565b60006001600160401b03821115614bff57600080fd5b506020601f91909101601f19160190565b60200190565b60009081526020902090565b5190565b90815260200190565b6000610f5f82614c3f565b151590565b6001600160a01b031690565b82818337506000910152565b60005b83811015614c72578181015183820152602001614c5a565b8381111561089d5750506000910152565b601f01601f191690565b614c9681614c2f565b811461337c57600080fd5b614c96816112b756fea365627a7a72315820f494fbabcfa03f7049321d7ffd95f34002b4bbdbe96317ace9935a37b0f2b3526c6578706572696d656e74616cf564736f6c634300050c0040",
  "source": "pragma solidity ^0.5.11;\npragma experimental ABIEncoderV2;\n\nimport \"./UserContract.sol\";\n\ncontract AppointmentHandler is UserContract {\n\n    struct Appointment{\n        bytes32 userId;\n        bytes32 dealerId;\n        string carPlate;\n        int time; //Milliseconds\n    }\n\n    mapping(bytes32 => Appointment[]) private dealerAppointmentHistory;\n    mapping(bytes32 => Appointment[]) private activeAppointments;\n    mapping(bytes32 => Appointment) private userAppointment;\n\n    function isSameAppointment(Appointment memory a, Appointment storage o) internal view returns (bool) {\n        return a.userId == o.userId && a.dealerId == o.dealerId && encode(a.carPlate) == encode(o.carPlate) && a.time == o.time;\n    }\n\n    function getIndexOfAppointment(Appointment memory appointment) internal verified(appointment.dealerId) view returns(uint){\n        for(uint i = 0; i < activeAppointments[appointment.dealerId].length; i++){\n            if(isSameAppointment(appointment,activeAppointments[appointment.dealerId][i])){\n                return i;\n            }\n        }\n        return uint(-1);\n    }\n\n    function createAppointment(Appointment memory appointment) public verified(appointment.dealerId) {\n        bytes32 userId = appointment.userId;\n        if(userAppointment[userId].userId != 0){\n            uint aIndex = getIndexOfAppointment(appointment);\n            activeAppointments[appointment.dealerId][aIndex] = appointment;\n        }\n        else{\n            activeAppointments[appointment.dealerId].push(appointment);\n        }\n        userAppointment[userId] = appointment;\n    }\n\n    function completeAppointment(Appointment memory appointment) public verified(appointment.dealerId) {\n        uint aIndex = getIndexOfAppointment(appointment);\n        require(aIndex < uint(-1),\"That appointment does not exist\");\n        //TODO Change time to completed time (Need date time library or smth)\n        dealerAppointmentHistory[appointment.dealerId].push(appointment);\n        cancelAppointment(appointment);\n    }\n\n    function cancelAppointment(Appointment memory appointment) public verified(appointment.dealerId) {\n        uint aIndex = getIndexOfAppointment(appointment);\n        require(aIndex < uint(-1),\"That appointment does not exist\");\n        removeAppointment(appointment.dealerId,aIndex);\n        userAppointment[appointment.userId] = Appointment(0,0,\"\",0);\n    }\n\n    function removeAppointment(bytes32 dealerId, uint index) internal verified(dealerId) {\n        for(uint i = index + 1; i < activeAppointments[dealerId].length; i++){\n            activeAppointments[dealerId][i-1] = activeAppointments[dealerId][i];\n        }\n        activeAppointments[dealerId].length--;\n    }\n\n    function getAppointmentHistory(bytes32 dealerId) public view verified(dealerId) returns (Appointment[] memory){\n        return dealerAppointmentHistory[dealerId];\n    }\n\n    function getPendingAppointments(bytes32 dealerId) public view verified(dealerId) returns (Appointment[] memory){\n        return activeAppointments[dealerId];\n    }\n\n    function getUserAppointment(bytes32 userId) public view returns (Appointment memory) {\n        return userAppointment[userId];\n    }\n}",
  "sourcePath": "/home/brandon/Documents/_Important/Uni/Blockchain/Final project/contracts/AppointmentHandler.sol",
  "compiler": {
    "name": "solc",
    "version": "0.5.12+commit.7709ece9.Emscripten.clang"
  },
  "schemaVersion": "3.0.19",
  "updatedAt": "2019-11-28T07:49:26.720Z",
  "networkType": "ethereum",
  "devdoc": {
    "methods": {}
  },
  "userdoc": {
    "methods": {}
  }
}