{
  "contractName": "DealerContract",
  "abi": [
    {
      "anonymous": false,
      "inputs": [
        {
          "components": [
            {
              "internalType": "string",
              "name": "dealerName",
              "type": "string"
            },
            {
              "internalType": "string",
              "name": "firstName",
              "type": "string"
            },
            {
              "internalType": "string",
              "name": "lastName",
              "type": "string"
            },
            {
              "internalType": "string",
              "name": "addr",
              "type": "string"
            },
            {
              "internalType": "string",
              "name": "location",
              "type": "string"
            },
            {
              "internalType": "string",
              "name": "phoneNo",
              "type": "string"
            },
            {
              "internalType": "string",
              "name": "bestSeller",
              "type": "string"
            },
            {
              "internalType": "string",
              "name": "promotion",
              "type": "string"
            },
            {
              "internalType": "string",
              "name": "otherServices",
              "type": "string"
            },
            {
              "internalType": "string[]",
              "name": "availableServices",
              "type": "string[]"
            },
            {
              "internalType": "string[][]",
              "name": "availableSubServices",
              "type": "string[][]"
            }
          ],
          "indexed": false,
          "internalType": "struct DealerContract.DealerInfo",
          "name": "info",
          "type": "tuple"
        },
        {
          "indexed": false,
          "internalType": "bytes32",
          "name": "id",
          "type": "bytes32"
        }
      ],
      "name": "CreateDealerApplication",
      "type": "event"
    },
    {
      "constant": true,
      "inputs": [
        {
          "internalType": "string",
          "name": "id",
          "type": "string"
        }
      ],
      "name": "getHash",
      "outputs": [
        {
          "internalType": "bytes32",
          "name": "",
          "type": "bytes32"
        }
      ],
      "payable": false,
      "stateMutability": "pure",
      "type": "function"
    },
    {
      "constant": true,
      "inputs": [],
      "name": "owner",
      "outputs": [
        {
          "internalType": "address",
          "name": "",
          "type": "address"
        }
      ],
      "payable": false,
      "stateMutability": "view",
      "type": "function"
    },
    {
      "constant": false,
      "inputs": [
        {
          "internalType": "address",
          "name": "newOwner",
          "type": "address"
        }
      ],
      "name": "transferOwner",
      "outputs": [],
      "payable": false,
      "stateMutability": "nonpayable",
      "type": "function"
    },
    {
      "constant": false,
      "inputs": [
        {
          "components": [
            {
              "internalType": "string",
              "name": "dealerName",
              "type": "string"
            },
            {
              "internalType": "string",
              "name": "firstName",
              "type": "string"
            },
            {
              "internalType": "string",
              "name": "lastName",
              "type": "string"
            },
            {
              "internalType": "string",
              "name": "addr",
              "type": "string"
            },
            {
              "internalType": "string",
              "name": "location",
              "type": "string"
            },
            {
              "internalType": "string",
              "name": "phoneNo",
              "type": "string"
            },
            {
              "internalType": "string",
              "name": "bestSeller",
              "type": "string"
            },
            {
              "internalType": "string",
              "name": "promotion",
              "type": "string"
            },
            {
              "internalType": "string",
              "name": "otherServices",
              "type": "string"
            },
            {
              "internalType": "string[]",
              "name": "availableServices",
              "type": "string[]"
            },
            {
              "internalType": "string[][]",
              "name": "availableSubServices",
              "type": "string[][]"
            }
          ],
          "internalType": "struct DealerContract.DealerInfo",
          "name": "info",
          "type": "tuple"
        },
        {
          "internalType": "bytes32",
          "name": "id",
          "type": "bytes32"
        }
      ],
      "name": "createDealerApplication",
      "outputs": [],
      "payable": false,
      "stateMutability": "nonpayable",
      "type": "function"
    },
    {
      "constant": false,
      "inputs": [
        {
          "components": [
            {
              "internalType": "string",
              "name": "dealerName",
              "type": "string"
            },
            {
              "internalType": "string",
              "name": "firstName",
              "type": "string"
            },
            {
              "internalType": "string",
              "name": "lastName",
              "type": "string"
            },
            {
              "internalType": "string",
              "name": "addr",
              "type": "string"
            },
            {
              "internalType": "string",
              "name": "location",
              "type": "string"
            },
            {
              "internalType": "string",
              "name": "phoneNo",
              "type": "string"
            },
            {
              "internalType": "string",
              "name": "bestSeller",
              "type": "string"
            },
            {
              "internalType": "string",
              "name": "promotion",
              "type": "string"
            },
            {
              "internalType": "string",
              "name": "otherServices",
              "type": "string"
            },
            {
              "internalType": "string[]",
              "name": "availableServices",
              "type": "string[]"
            },
            {
              "internalType": "string[][]",
              "name": "availableSubServices",
              "type": "string[][]"
            }
          ],
          "internalType": "struct DealerContract.DealerInfo",
          "name": "info",
          "type": "tuple"
        },
        {
          "internalType": "bytes32",
          "name": "id",
          "type": "bytes32"
        }
      ],
      "name": "editDealerInfo",
      "outputs": [],
      "payable": false,
      "stateMutability": "nonpayable",
      "type": "function"
    },
    {
      "constant": true,
      "inputs": [
        {
          "internalType": "bytes32",
          "name": "id",
          "type": "bytes32"
        }
      ],
      "name": "getDealerInfo",
      "outputs": [
        {
          "components": [
            {
              "internalType": "string",
              "name": "dealerName",
              "type": "string"
            },
            {
              "internalType": "string",
              "name": "firstName",
              "type": "string"
            },
            {
              "internalType": "string",
              "name": "lastName",
              "type": "string"
            },
            {
              "internalType": "string",
              "name": "addr",
              "type": "string"
            },
            {
              "internalType": "string",
              "name": "location",
              "type": "string"
            },
            {
              "internalType": "string",
              "name": "phoneNo",
              "type": "string"
            },
            {
              "internalType": "string",
              "name": "bestSeller",
              "type": "string"
            },
            {
              "internalType": "string",
              "name": "promotion",
              "type": "string"
            },
            {
              "internalType": "string",
              "name": "otherServices",
              "type": "string"
            },
            {
              "internalType": "string[]",
              "name": "availableServices",
              "type": "string[]"
            },
            {
              "internalType": "string[][]",
              "name": "availableSubServices",
              "type": "string[][]"
            }
          ],
          "internalType": "struct DealerContract.DealerInfo",
          "name": "",
          "type": "tuple"
        }
      ],
      "payable": false,
      "stateMutability": "view",
      "type": "function"
    },
    {
      "constant": false,
      "inputs": [
        {
          "internalType": "bytes32",
          "name": "dealershipId",
          "type": "bytes32"
        },
        {
          "internalType": "bytes32",
          "name": "otherId",
          "type": "bytes32"
        }
      ],
      "name": "transferDealershipOwner",
      "outputs": [],
      "payable": false,
      "stateMutability": "nonpayable",
      "type": "function"
    },
    {
      "constant": true,
      "inputs": [],
      "name": "getAllDealerApplications",
      "outputs": [
        {
          "internalType": "bytes32[]",
          "name": "",
          "type": "bytes32[]"
        }
      ],
      "payable": false,
      "stateMutability": "view",
      "type": "function"
    },
    {
      "constant": false,
      "inputs": [
        {
          "internalType": "bytes32",
          "name": "adr",
          "type": "bytes32"
        }
      ],
      "name": "approveApplication",
      "outputs": [],
      "payable": false,
      "stateMutability": "nonpayable",
      "type": "function"
    },
    {
      "constant": true,
      "inputs": [
        {
          "internalType": "bytes32",
          "name": "adr",
          "type": "bytes32"
        }
      ],
      "name": "isVerified",
      "outputs": [
        {
          "internalType": "bool",
          "name": "",
          "type": "bool"
        }
      ],
      "payable": false,
      "stateMutability": "view",
      "type": "function"
    },
    {
      "constant": false,
      "inputs": [
        {
          "internalType": "bytes32",
          "name": "dealerId",
          "type": "bytes32"
        },
        {
          "internalType": "bytes32",
          "name": "adr",
          "type": "bytes32"
        }
      ],
      "name": "addDealerEmployee",
      "outputs": [],
      "payable": false,
      "stateMutability": "nonpayable",
      "type": "function"
    }
  ],
  "bytecode": "0x6080604052336000806101000a81548173ffffffffffffffffffffffffffffffffffffffff021916908373ffffffffffffffffffffffffffffffffffffffff160217905550612714806100536000396000f3fe608060405234801561001057600080fd5b50600436106100a95760003560e01c80637d17f13c116100715780637d17f13c1461014e5780637e41667f1461017e57806382d7afbd1461019c5780638da5cb5b146101b8578063c181b273146101d6578063e445268c14610206576100a9565b806307681038146100ae5780631b8f47fe146100ca5780632d4afc7b146100e65780634fb2e45d146101025780635b6beeb91461011e575b600080fd5b6100c860048036036100c39190810190611cdc565b610222565b005b6100e460048036036100df9190810190611c0d565b610445565b005b61010060048036036100fb9190810190611cdc565b61056f565b005b61011c60048036036101179190810190611be4565b61072e565b005b61013860048036036101339190810190611c9b565b610800565b6040516101459190612322565b60405180910390f35b61016860048036036101639190810190611c0d565b610878565b60405161017591906123dd565b60405180910390f35b610186611071565b60405161019391906122e5565b60405180910390f35b6101b660048036036101b19190810190611c5f565b611158565b005b6101c06112f6565b6040516101cd91906122ca565b60405180910390f35b6101f060048036036101eb9190810190611c0d565b61131b565b6040516101fd9190612307565b60405180910390f35b610220600480360361021b9190810190611c5f565b611366565b005b6001600082815260200190815260200160002060009054906101000a900460ff1615610283576040517f08c379a000000000000000000000000000000000000000000000000000000000815260040161027a906123bd565b60405180910390fd5b816004600083815260200190815260200160002060008201518160000190805190602001906102b39291906114ed565b5060208201518160010190805190602001906102d09291906114ed565b5060408201518160020190805190602001906102ed9291906114ed565b50606082015181600301908051906020019061030a9291906114ed565b5060808201518160040190805190602001906103279291906114ed565b5060a08201518160050190805190602001906103449291906114ed565b5060c08201518160060190805190602001906103619291906114ed565b5060e082015181600701908051906020019061037e9291906114ed565b5061010082015181600801908051906020019061039c9291906114ed565b506101208201518160090190805190602001906103ba92919061156d565b5061014082015181600a0190805190602001906103d89291906115cd565b5090505060058190806001815401808255809150509060018203906000526020600020016000909192909190915055507f42ab459ad3144922283159073eea05ed3ff810ab23fc94bbad43d99b9332dbb282826040516104399291906123ff565b60405180910390a15050565b6000809054906101000a900473ffffffffffffffffffffffffffffffffffffffff1673ffffffffffffffffffffffffffffffffffffffff163373ffffffffffffffffffffffffffffffffffffffff16146104d4576040517f08c379a00000000000000000000000000000000000000000000000000000000081526004016104cb9061239d565b60405180910390fd5b60006104df82611479565b90506000811215610525576040517f08c379a000000000000000000000000000000000000000000000000000000000815260040161051c9061237d565b60405180910390fd5b600180600084815260200190815260200160002060006101000a81548160ff0219169083151502179055506005818154811061055d57fe5b90600052602060002001600090555050565b806001600082815260200190815260200160002060009054906101000a900460ff166105d0576040517f08c379a00000000000000000000000000000000000000000000000000000000081526004016105c79061235d565b60405180910390fd5b826004600084815260200190815260200160002060008201518160000190805190602001906106009291906114ed565b50602082015181600101908051906020019061061d9291906114ed565b50604082015181600201908051906020019061063a9291906114ed565b5060608201518160030190805190602001906106579291906114ed565b5060808201518160040190805190602001906106749291906114ed565b5060a08201518160050190805190602001906106919291906114ed565b5060c08201518160060190805190602001906106ae9291906114ed565b5060e08201518160070190805190602001906106cb9291906114ed565b506101008201518160080190805190602001906106e99291906114ed565b5061012082015181600901908051906020019061070792919061156d565b5061014082015181600a0190805190602001906107259291906115cd565b50905050505050565b6000809054906101000a900473ffffffffffffffffffffffffffffffffffffffff1673ffffffffffffffffffffffffffffffffffffffff163373ffffffffffffffffffffffffffffffffffffffff16146107bd576040517f08c379a00000000000000000000000000000000000000000000000000000000081526004016107b49061239d565b60405180910390fd5b806000806101000a81548173ffffffffffffffffffffffffffffffffffffffff021916908373ffffffffffffffffffffffffffffffffffffffff16021790555050565b600060028260405160200161081591906122b3565b604051602081830303815290604052604051610831919061229c565b602060405180830381855afa15801561084e573d6000803e3d6000fd5b5050506040513d601f19601f820116820180604052506108719190810190611c36565b9050919050565b61088061162d565b6004600083815260200190815260200160002060405180610160016040529081600082018054600181600116156101000203166002900480601f0160208091040260200160405190810160405280929190818152602001828054600181600116156101000203166002900480156109385780601f1061090d57610100808354040283529160200191610938565b820191906000526020600020905b81548152906001019060200180831161091b57829003601f168201915b50505050508152602001600182018054600181600116156101000203166002900480601f0160208091040260200160405190810160405280929190818152602001828054600181600116156101000203166002900480156109da5780601f106109af576101008083540402835291602001916109da565b820191906000526020600020905b8154815290600101906020018083116109bd57829003601f168201915b50505050508152602001600282018054600181600116156101000203166002900480601f016020809104026020016040519081016040528092919081815260200182805460018160011615610100020316600290048015610a7c5780601f10610a5157610100808354040283529160200191610a7c565b820191906000526020600020905b815481529060010190602001808311610a5f57829003601f168201915b50505050508152602001600382018054600181600116156101000203166002900480601f016020809104026020016040519081016040528092919081815260200182805460018160011615610100020316600290048015610b1e5780601f10610af357610100808354040283529160200191610b1e565b820191906000526020600020905b815481529060010190602001808311610b0157829003601f168201915b50505050508152602001600482018054600181600116156101000203166002900480601f016020809104026020016040519081016040528092919081815260200182805460018160011615610100020316600290048015610bc05780601f10610b9557610100808354040283529160200191610bc0565b820191906000526020600020905b815481529060010190602001808311610ba357829003601f168201915b50505050508152602001600582018054600181600116156101000203166002900480601f016020809104026020016040519081016040528092919081815260200182805460018160011615610100020316600290048015610c625780601f10610c3757610100808354040283529160200191610c62565b820191906000526020600020905b815481529060010190602001808311610c4557829003601f168201915b50505050508152602001600682018054600181600116156101000203166002900480601f016020809104026020016040519081016040528092919081815260200182805460018160011615610100020316600290048015610d045780601f10610cd957610100808354040283529160200191610d04565b820191906000526020600020905b815481529060010190602001808311610ce757829003601f168201915b50505050508152602001600782018054600181600116156101000203166002900480601f016020809104026020016040519081016040528092919081815260200182805460018160011615610100020316600290048015610da65780601f10610d7b57610100808354040283529160200191610da6565b820191906000526020600020905b815481529060010190602001808311610d8957829003601f168201915b50505050508152602001600882018054600181600116156101000203166002900480601f016020809104026020016040519081016040528092919081815260200182805460018160011615610100020316600290048015610e485780601f10610e1d57610100808354040283529160200191610e48565b820191906000526020600020905b815481529060010190602001808311610e2b57829003601f168201915b5050505050815260200160098201805480602002602001604051908101604052809291908181526020016000905b82821015610f32578382906000526020600020018054600181600116156101000203166002900480601f016020809104026020016040519081016040528092919081815260200182805460018160011615610100020316600290048015610f1e5780601f10610ef357610100808354040283529160200191610f1e565b820191906000526020600020905b815481529060010190602001808311610f0157829003601f168201915b505050505081526020019060010190610e76565b505050508152602001600a8201805480602002602001604051908101604052809291908181526020016000905b8282101561106257838290600052602060002001805480602002602001604051908101604052809291908181526020016000905b8282101561104f578382906000526020600020018054600181600116156101000203166002900480601f01602080910402602001604051908101604052809291908181526020018280546001816001161561010002031660029004801561103b5780601f106110105761010080835404028352916020019161103b565b820191906000526020600020905b81548152906001019060200180831161101e57829003601f168201915b505050505081526020019060010190610f93565b5050505081526020019060010190610f5f565b50505050815250509050919050565b60606000809054906101000a900473ffffffffffffffffffffffffffffffffffffffff1673ffffffffffffffffffffffffffffffffffffffff163373ffffffffffffffffffffffffffffffffffffffff1614611102576040517f08c379a00000000000000000000000000000000000000000000000000000000081526004016110f99061239d565b60405180910390fd5b600580548060200260200160405190810160405280929190818152602001828054801561114e57602002820191906000526020600020905b81548152602001906001019080831161113a575b5050505050905090565b816001600082815260200190815260200160002060009054906101000a900460ff166111b9576040517f08c379a00000000000000000000000000000000000000000000000000000000081526004016111b09061235d565b60405180910390fd5b600180600084815260200190815260200160002060006101000a81548160ff02191690831515021790555060006001600085815260200190815260200160002060006101000a81548160ff0219169083151502179055506000801b6003600084815260200190815260200160002081905550600260008481526020019081526020016000206002600084815260200190815260200160002090805461125f929190611687565b5060026000848152602001908152602001600020600061127f91906116d9565b60008090505b60026000848152602001908152602001600020805490508110156112f05782600360006002600087815260200190815260200160002084815481106112c657fe5b90600052602060002001548152602001908152602001600020819055508080600101915050611285565b50505050565b6000809054906101000a900473ffffffffffffffffffffffffffffffffffffffff1681565b60006001600083815260200190815260200160002060009054906101000a900460ff168061135f57506000801b600360008481526020019081526020016000205414155b9050919050565b816001600082815260200190815260200160002060009054906101000a900460ff166113c7576040517f08c379a00000000000000000000000000000000000000000000000000000000081526004016113be9061235d565b60405180910390fd5b6000801b60036000848152602001908152602001600020541461141f576040517f08c379a00000000000000000000000000000000000000000000000000000000081526004016114169061233d565b60405180910390fd5b60026000848152602001908152602001600020829080600181540180825580915050906001820390600052602060002001600090919290919091505550826003600084815260200190815260200160002081905550505050565b600080600090505b6005805490508110156114c357826005828154811061149c57fe5b906000526020600020015414156114b657809150506114e8565b8080600101915050611481565b507fffffffffffffffffffffffffffffffffffffffffffffffffffffffffffffffff90505b919050565b828054600181600116156101000203166002900490600052602060002090601f016020900481019282601f1061152e57805160ff191683800117855561155c565b8280016001018555821561155c579182015b8281111561155b578251825591602001919060010190611540565b5b50905061156991906116fa565b5090565b8280548282559060005260206000209081019282156115bc579160200282015b828111156115bb5782518290805190602001906115ab9291906114ed565b509160200191906001019061158d565b5b5090506115c9919061171f565b5090565b82805482825590600052602060002090810192821561161c579160200282015b8281111561161b57825182908051906020019061160b92919061156d565b50916020019190600101906115ed565b5b509050611629919061174b565b5090565b60405180610160016040528060608152602001606081526020016060815260200160608152602001606081526020016060815260200160608152602001606081526020016060815260200160608152602001606081525090565b8280548282559060005260206000209081019282156116c85760005260206000209182015b828111156116c75782548255916001019190600101906116ac565b5b5090506116d59190611777565b5090565b50805460008255906000526020600020908101906116f79190611777565b50565b61171c91905b80821115611718576000816000905550600101611700565b5090565b90565b61174891905b80821115611744576000818161173b919061179c565b50600101611725565b5090565b90565b61177491905b80821115611770576000818161176791906117e4565b50600101611751565b5090565b90565b61179991905b8082111561179557600081600090555060010161177d565b5090565b90565b50805460018160011615610100020316600290046000825580601f106117c257506117e1565b601f0160209004906000526020600020908101906117e091906116fa565b5b50565b5080546000825590600052602060002090810190611802919061171f565b50565b600081359050611814816126a3565b92915050565b600082601f83011261182b57600080fd5b813561183e6118398261245c565b61242f565b9150818183526020840193506020810190508360005b83811015611884578135860161186a888261188e565b845260208401935060208301925050600181019050611854565b5050505092915050565b600082601f83011261189f57600080fd5b81356118b26118ad82612484565b61242f565b9150818183526020840193506020810190508360005b838110156118f857813586016118de888261192c565b8452602084019350602083019250506001810190506118c8565b5050505092915050565b600081359050611911816126ba565b92915050565b600081519050611926816126ba565b92915050565b600082601f83011261193d57600080fd5b813561195061194b826124ac565b61242f565b9150808252602083016020830185838301111561196c57600080fd5b611977838284612650565b50505092915050565b600082601f83011261199157600080fd5b81356119a461199f826124d8565b61242f565b915080825260208301602083018583830111156119c057600080fd5b6119cb838284612650565b50505092915050565b600061016082840312156119e757600080fd5b6119f261016061242f565b9050600082013567ffffffffffffffff811115611a0e57600080fd5b611a1a8482850161192c565b600083015250602082013567ffffffffffffffff811115611a3a57600080fd5b611a468482850161192c565b602083015250604082013567ffffffffffffffff811115611a6657600080fd5b611a728482850161192c565b604083015250606082013567ffffffffffffffff811115611a9257600080fd5b611a9e8482850161192c565b606083015250608082013567ffffffffffffffff811115611abe57600080fd5b611aca8482850161192c565b60808301525060a082013567ffffffffffffffff811115611aea57600080fd5b611af68482850161192c565b60a08301525060c082013567ffffffffffffffff811115611b1657600080fd5b611b228482850161192c565b60c08301525060e082013567ffffffffffffffff811115611b4257600080fd5b611b4e8482850161192c565b60e08301525061010082013567ffffffffffffffff811115611b6f57600080fd5b611b7b8482850161192c565b6101008301525061012082013567ffffffffffffffff811115611b9d57600080fd5b611ba98482850161188e565b6101208301525061014082013567ffffffffffffffff811115611bcb57600080fd5b611bd78482850161181a565b6101408301525092915050565b600060208284031215611bf657600080fd5b6000611c0484828501611805565b91505092915050565b600060208284031215611c1f57600080fd5b6000611c2d84828501611902565b91505092915050565b600060208284031215611c4857600080fd5b6000611c5684828501611917565b91505092915050565b60008060408385031215611c7257600080fd5b6000611c8085828601611902565b9250506020611c9185828601611902565b9150509250929050565b600060208284031215611cad57600080fd5b600082013567ffffffffffffffff811115611cc757600080fd5b611cd384828501611980565b91505092915050565b60008060408385031215611cef57600080fd5b600083013567ffffffffffffffff811115611d0957600080fd5b611d15858286016119d4565b9250506020611d2685828601611902565b9150509250929050565b6000611d3c8383611e52565b905092915050565b6000611d508383611ed6565b60208301905092915050565b6000611d688383611f56565b905092915050565b611d7981612608565b82525050565b6000611d8a82612534565b611d94818561259d565b935083602082028501611da685612504565b8060005b85811015611de25784840389528151611dc38582611d30565b9450611dce83612576565b925060208a01995050600181019050611daa565b50829750879550505050505092915050565b6000611dff8261253f565b611e0981856125ae565b9350611e1483612514565b8060005b83811015611e45578151611e2c8882611d44565b9750611e3783612583565b925050600181019050611e18565b5085935050505092915050565b6000611e5d8261254a565b611e6781856125bf565b935083602082028501611e7985612524565b8060005b85811015611eb55784840389528151611e968582611d5c565b9450611ea183612590565b925060208a01995050600181019050611e7d565b50829750879550505050505092915050565b611ed08161261a565b82525050565b611edf81612626565b82525050565b611eee81612626565b82525050565b6000611eff82612555565b611f0981856125d0565b9350611f1981856020860161265f565b80840191505092915050565b6000611f308261256b565b611f3a81856125fd565b9350611f4a81856020860161265f565b80840191505092915050565b6000611f6182612560565b611f6b81856125db565b9350611f7b81856020860161265f565b611f8481612692565b840191505092915050565b6000611f9c6021836125ec565b91507f5468617420656d706c6f79656520616c726561647920776f726b73207468657260008301527f65000000000000000000000000000000000000000000000000000000000000006020830152604082019050919050565b60006120026029836125ec565b91507f596f75206d7573742062652061206465616c657273686970206f776e6572207460008301527f6f20646f207468697300000000000000000000000000000000000000000000006020830152604082019050919050565b60006120686021836125ec565b91507f4e6f206170706c69636174696f6e2065786973747320666f722074686174206960008301527f64000000000000000000000000000000000000000000000000000000000000006020830152604082019050919050565b60006120ce6015836125ec565b91507f596f7520617265206e6f7420746865206f776e657200000000000000000000006000830152602082019050919050565b600061210e6022836125ec565b91507f54686174206164647265737320697320616c726561647920726567697374657260008301527f65640000000000000000000000000000000000000000000000000000000000006020830152604082019050919050565b60006101608301600083015184820360008601526121858282611f56565b9150506020830151848203602086015261219f8282611f56565b915050604083015184820360408601526121b98282611f56565b915050606083015184820360608601526121d38282611f56565b915050608083015184820360808601526121ed8282611f56565b91505060a083015184820360a08601526122078282611f56565b91505060c083015184820360c08601526122218282611f56565b91505060e083015184820360e086015261223b8282611f56565b9150506101008301518482036101008601526122578282611f56565b9150506101208301518482036101208601526122738282611e52565b91505061014083015184820361014086015261228f8282611d7f565b9150508091505092915050565b60006122a88284611ef4565b915081905092915050565b60006122bf8284611f25565b915081905092915050565b60006020820190506122df6000830184611d70565b92915050565b600060208201905081810360008301526122ff8184611df4565b905092915050565b600060208201905061231c6000830184611ec7565b92915050565b60006020820190506123376000830184611ee5565b92915050565b6000602082019050818103600083015261235681611f8f565b9050919050565b6000602082019050818103600083015261237681611ff5565b9050919050565b600060208201905081810360008301526123968161205b565b9050919050565b600060208201905081810360008301526123b6816120c1565b9050919050565b600060208201905081810360008301526123d681612101565b9050919050565b600060208201905081810360008301526123f78184612167565b905092915050565b600060408201905081810360008301526124198185612167565b90506124286020830184611ee5565b9392505050565b6000604051905081810181811067ffffffffffffffff8211171561245257600080fd5b8060405250919050565b600067ffffffffffffffff82111561247357600080fd5b602082029050602081019050919050565b600067ffffffffffffffff82111561249b57600080fd5b602082029050602081019050919050565b600067ffffffffffffffff8211156124c357600080fd5b601f19601f8301169050602081019050919050565b600067ffffffffffffffff8211156124ef57600080fd5b601f19601f8301169050602081019050919050565b6000819050602082019050919050565b6000819050602082019050919050565b6000819050602082019050919050565b600081519050919050565b600081519050919050565b600081519050919050565b600081519050919050565b600081519050919050565b600081519050919050565b6000602082019050919050565b6000602082019050919050565b6000602082019050919050565b600082825260208201905092915050565b600082825260208201905092915050565b600082825260208201905092915050565b600081905092915050565b600082825260208201905092915050565b600082825260208201905092915050565b600081905092915050565b600061261382612630565b9050919050565b60008115159050919050565b6000819050919050565b600073ffffffffffffffffffffffffffffffffffffffff82169050919050565b82818337600083830152505050565b60005b8381101561267d578082015181840152602081019050612662565b8381111561268c576000848401525b50505050565b6000601f19601f8301169050919050565b6126ac81612608565b81146126b757600080fd5b50565b6126c381612626565b81146126ce57600080fd5b5056fea365627a7a72315820813b4211ef5ef38fa500fbe1e45179a155b6c902445b37d8fac0782869e099fa6c6578706572696d656e74616cf564736f6c634300050c0040",
  "source": "pragma solidity ^0.5.11;\npragma experimental ABIEncoderV2;\n\nimport \"./Ownable.sol\";\n\ncontract DealerContract is Ownable {\n\n\n    event CreateDealerApplication(DealerInfo info, bytes32 id);\n\n    struct DealerInfo{\n        string dealerName;\n        string firstName;\n        string lastName;\n        string addr;\n        string location;\n        string phoneNo;\n        string bestSeller;\n        string promotion;\n        string otherServices;\n        string[] availableServices;\n        string[][] availableSubServices;\n    }\n\n    mapping(bytes32 => bool) verifiedDealers;\n    mapping(bytes32 => bytes32[]) private dealerToEmployees;\n    mapping(bytes32 => bytes32) private employeeToDealer;\n\n\n    modifier verified(bytes32 dealerId) {\n        require(isVerified(dealerId),\"You must be a verified dealer to do this\");\n        _;\n    }\n\n    modifier dealershipOwner(bytes32 dealerId){\n        require(verifiedDealers[dealerId],\"You must be a dealership owner to do this\");\n        _;\n    }\n\n    mapping(bytes32 => DealerInfo) private dealerInfoMap;\n    bytes32[] dealerApplications;\n\n    //Function for dealer to create new application\n    function createDealerApplication(DealerInfo memory info, bytes32 id) public {\n        require(!verifiedDealers[id],\"That address is already registered\");\n        dealerInfoMap[id] = info;\n        dealerApplications.push(id);\n        emit CreateDealerApplication(info, id);\n    }\n\n    function editDealerInfo(DealerInfo memory info, bytes32 id) public dealershipOwner(id) {\n        dealerInfoMap[id] = info;\n    }\n\n    function getDealerInfo(bytes32 id) public view returns(DealerInfo memory) {\n        return dealerInfoMap[id];\n    }\n\n    //Transfer dealership owner to another id\n    function transferDealershipOwner(bytes32 dealershipId, bytes32 otherId) public dealershipOwner(dealershipId){\n        verifiedDealers[otherId] = true;\n        verifiedDealers[dealershipId] = false;\n        employeeToDealer[otherId] = 0;\n        dealerToEmployees[otherId] = dealerToEmployees[dealershipId];\n        delete dealerToEmployees[dealershipId];\n        for(uint i = 0; i < dealerToEmployees[otherId].length; i++){\n            employeeToDealer[dealerToEmployees[otherId][i]] = otherId;\n        }\n    }\n\n    //Get all current dealer applications\n    function getAllDealerApplications() public view ownerOnly returns (bytes32[] memory){\n        return dealerApplications;\n    }\n\n    function getApplicationIndex(bytes32 id) internal view returns (int) {\n        for(uint i = 0; i < dealerApplications.length; i++) {\n            if(dealerApplications[i] == id){\n                return int(i);\n            }\n        }\n        return -1;\n    }\n\n    //Approve a dealer application. Rejected if no application exists\n    function approveApplication(bytes32 adr) public ownerOnly {\n        int i = getApplicationIndex(adr);\n        require(i >= 0,\"No application exists for that id\");\n        verifiedDealers[adr] = true;\n        delete dealerApplications[uint(i)];\n    }\n\n    //Function to see if a dealer is verified or works for a dealership\n    function isVerified(bytes32 adr) public view returns (bool) {\n        return verifiedDealers[adr] || employeeToDealer[adr] != 0;\n    }\n\n    //Add employee to dealership who will have access to verified() functions\n    function addDealerEmployee(bytes32 dealerId, bytes32 adr) public dealershipOwner(dealerId) {\n        require(employeeToDealer[adr] == 0,\"That employee already works there\");\n        dealerToEmployees[dealerId].push(adr);\n        employeeToDealer[adr] = dealerId;\n    }\n\n}\n",
  "sourcePath": "/Users/natwit/repos/blockchain-project-2019/contracts/DealerContract.sol",
  "compiler": {
    "name": "solc",
    "version": "0.5.12+commit.7709ece9.Emscripten.clang"
  },
  "schemaVersion": "3.0.19",
  "updatedAt": "2019-11-25T16:30:09.164Z",
  "networkType": "ethereum",
  "devdoc": {
    "methods": {}
  },
  "userdoc": {
    "methods": {}
  }
}