{
  "contractName": "DealerContract",
  "abi": [
    {
      "anonymous": false,
      "inputs": [
        {
          "components": [
            {
              "internalType": "string",
              "name": "dealerName",
              "type": "string"
            },
            {
              "internalType": "string",
              "name": "firstName",
              "type": "string"
            },
            {
              "internalType": "string",
              "name": "lastName",
              "type": "string"
            },
            {
              "internalType": "string",
              "name": "addr",
              "type": "string"
            },
            {
              "internalType": "string[2]",
              "name": "location",
              "type": "string[2]"
            },
            {
              "internalType": "string",
              "name": "phoneNo",
              "type": "string"
            },
            {
              "internalType": "string",
              "name": "bestSeller",
              "type": "string"
            },
            {
              "internalType": "string",
              "name": "promotion",
              "type": "string"
            },
            {
              "internalType": "string",
              "name": "otherServices",
              "type": "string"
            },
            {
              "internalType": "string[]",
              "name": "availableServices",
              "type": "string[]"
            },
            {
              "internalType": "string[][]",
              "name": "availableSubServices",
              "type": "string[][]"
            }
          ],
          "indexed": false,
          "internalType": "struct DealerContract.DealerInfo",
          "name": "info",
          "type": "tuple"
        },
        {
          "indexed": false,
          "internalType": "bytes32",
          "name": "id",
          "type": "bytes32"
        }
      ],
      "name": "ApplicationApproved",
      "type": "event"
    },
    {
      "anonymous": false,
      "inputs": [
        {
          "components": [
            {
              "internalType": "string",
              "name": "dealerName",
              "type": "string"
            },
            {
              "internalType": "string",
              "name": "firstName",
              "type": "string"
            },
            {
              "internalType": "string",
              "name": "lastName",
              "type": "string"
            },
            {
              "internalType": "string",
              "name": "addr",
              "type": "string"
            },
            {
              "internalType": "string[2]",
              "name": "location",
              "type": "string[2]"
            },
            {
              "internalType": "string",
              "name": "phoneNo",
              "type": "string"
            },
            {
              "internalType": "string",
              "name": "bestSeller",
              "type": "string"
            },
            {
              "internalType": "string",
              "name": "promotion",
              "type": "string"
            },
            {
              "internalType": "string",
              "name": "otherServices",
              "type": "string"
            },
            {
              "internalType": "string[]",
              "name": "availableServices",
              "type": "string[]"
            },
            {
              "internalType": "string[][]",
              "name": "availableSubServices",
              "type": "string[][]"
            }
          ],
          "indexed": false,
          "internalType": "struct DealerContract.DealerInfo",
          "name": "info",
          "type": "tuple"
        },
        {
          "indexed": false,
          "internalType": "bytes32",
          "name": "id",
          "type": "bytes32"
        }
      ],
      "name": "ApplicationRejected",
      "type": "event"
    },
    {
      "anonymous": false,
      "inputs": [
        {
          "components": [
            {
              "internalType": "string",
              "name": "dealerName",
              "type": "string"
            },
            {
              "internalType": "string",
              "name": "firstName",
              "type": "string"
            },
            {
              "internalType": "string",
              "name": "lastName",
              "type": "string"
            },
            {
              "internalType": "string",
              "name": "addr",
              "type": "string"
            },
            {
              "internalType": "string[2]",
              "name": "location",
              "type": "string[2]"
            },
            {
              "internalType": "string",
              "name": "phoneNo",
              "type": "string"
            },
            {
              "internalType": "string",
              "name": "bestSeller",
              "type": "string"
            },
            {
              "internalType": "string",
              "name": "promotion",
              "type": "string"
            },
            {
              "internalType": "string",
              "name": "otherServices",
              "type": "string"
            },
            {
              "internalType": "string[]",
              "name": "availableServices",
              "type": "string[]"
            },
            {
              "internalType": "string[][]",
              "name": "availableSubServices",
              "type": "string[][]"
            }
          ],
          "indexed": false,
          "internalType": "struct DealerContract.DealerInfo",
          "name": "info",
          "type": "tuple"
        },
        {
          "indexed": false,
          "internalType": "bytes32",
          "name": "id",
          "type": "bytes32"
        }
      ],
      "name": "CreateDealerApplication",
      "type": "event"
    },
    {
      "constant": true,
      "inputs": [
        {
          "internalType": "string",
          "name": "id",
          "type": "string"
        }
      ],
      "name": "getHash",
      "outputs": [
        {
          "internalType": "bytes32",
          "name": "",
          "type": "bytes32"
        }
      ],
      "payable": false,
      "stateMutability": "pure",
      "type": "function"
    },
    {
      "constant": true,
      "inputs": [],
      "name": "owner",
      "outputs": [
        {
          "internalType": "address",
          "name": "",
          "type": "address"
        }
      ],
      "payable": false,
      "stateMutability": "view",
      "type": "function"
    },
    {
      "constant": false,
      "inputs": [
        {
          "internalType": "address",
          "name": "newOwner",
          "type": "address"
        }
      ],
      "name": "transferOwner",
      "outputs": [],
      "payable": false,
      "stateMutability": "nonpayable",
      "type": "function"
    },
    {
      "constant": false,
      "inputs": [
        {
          "components": [
            {
              "internalType": "string",
              "name": "dealerName",
              "type": "string"
            },
            {
              "internalType": "string",
              "name": "firstName",
              "type": "string"
            },
            {
              "internalType": "string",
              "name": "lastName",
              "type": "string"
            },
            {
              "internalType": "string",
              "name": "addr",
              "type": "string"
            },
            {
              "internalType": "string[2]",
              "name": "location",
              "type": "string[2]"
            },
            {
              "internalType": "string",
              "name": "phoneNo",
              "type": "string"
            },
            {
              "internalType": "string",
              "name": "bestSeller",
              "type": "string"
            },
            {
              "internalType": "string",
              "name": "promotion",
              "type": "string"
            },
            {
              "internalType": "string",
              "name": "otherServices",
              "type": "string"
            },
            {
              "internalType": "string[]",
              "name": "availableServices",
              "type": "string[]"
            },
            {
              "internalType": "string[][]",
              "name": "availableSubServices",
              "type": "string[][]"
            }
          ],
          "internalType": "struct DealerContract.DealerInfo",
          "name": "info",
          "type": "tuple"
        },
        {
          "internalType": "bytes32",
          "name": "id",
          "type": "bytes32"
        }
      ],
      "name": "createDealerApplication",
      "outputs": [],
      "payable": false,
      "stateMutability": "nonpayable",
      "type": "function"
    },
    {
      "constant": false,
      "inputs": [
        {
          "components": [
            {
              "internalType": "string",
              "name": "dealerName",
              "type": "string"
            },
            {
              "internalType": "string",
              "name": "firstName",
              "type": "string"
            },
            {
              "internalType": "string",
              "name": "lastName",
              "type": "string"
            },
            {
              "internalType": "string",
              "name": "addr",
              "type": "string"
            },
            {
              "internalType": "string[2]",
              "name": "location",
              "type": "string[2]"
            },
            {
              "internalType": "string",
              "name": "phoneNo",
              "type": "string"
            },
            {
              "internalType": "string",
              "name": "bestSeller",
              "type": "string"
            },
            {
              "internalType": "string",
              "name": "promotion",
              "type": "string"
            },
            {
              "internalType": "string",
              "name": "otherServices",
              "type": "string"
            },
            {
              "internalType": "string[]",
              "name": "availableServices",
              "type": "string[]"
            },
            {
              "internalType": "string[][]",
              "name": "availableSubServices",
              "type": "string[][]"
            }
          ],
          "internalType": "struct DealerContract.DealerInfo",
          "name": "info",
          "type": "tuple"
        },
        {
          "internalType": "bytes32",
          "name": "id",
          "type": "bytes32"
        }
      ],
      "name": "editDealerInfo",
      "outputs": [],
      "payable": false,
      "stateMutability": "nonpayable",
      "type": "function"
    },
    {
      "constant": true,
      "inputs": [
        {
          "internalType": "bytes32",
          "name": "id",
          "type": "bytes32"
        }
      ],
      "name": "getDealerInfo",
      "outputs": [
        {
          "components": [
            {
              "internalType": "string",
              "name": "dealerName",
              "type": "string"
            },
            {
              "internalType": "string",
              "name": "firstName",
              "type": "string"
            },
            {
              "internalType": "string",
              "name": "lastName",
              "type": "string"
            },
            {
              "internalType": "string",
              "name": "addr",
              "type": "string"
            },
            {
              "internalType": "string[2]",
              "name": "location",
              "type": "string[2]"
            },
            {
              "internalType": "string",
              "name": "phoneNo",
              "type": "string"
            },
            {
              "internalType": "string",
              "name": "bestSeller",
              "type": "string"
            },
            {
              "internalType": "string",
              "name": "promotion",
              "type": "string"
            },
            {
              "internalType": "string",
              "name": "otherServices",
              "type": "string"
            },
            {
              "internalType": "string[]",
              "name": "availableServices",
              "type": "string[]"
            },
            {
              "internalType": "string[][]",
              "name": "availableSubServices",
              "type": "string[][]"
            }
          ],
          "internalType": "struct DealerContract.DealerInfo",
          "name": "",
          "type": "tuple"
        }
      ],
      "payable": false,
      "stateMutability": "view",
      "type": "function"
    },
    {
      "constant": false,
      "inputs": [
        {
          "internalType": "bytes32",
          "name": "dealershipId",
          "type": "bytes32"
        },
        {
          "internalType": "bytes32",
          "name": "otherId",
          "type": "bytes32"
        }
      ],
      "name": "transferDealershipOwner",
      "outputs": [],
      "payable": false,
      "stateMutability": "nonpayable",
      "type": "function"
    },
    {
      "constant": true,
      "inputs": [],
      "name": "getAllDealerApplications",
      "outputs": [
        {
          "internalType": "bytes32[]",
          "name": "",
          "type": "bytes32[]"
        }
      ],
      "payable": false,
      "stateMutability": "view",
      "type": "function"
    },
    {
      "constant": false,
      "inputs": [
        {
          "internalType": "bytes32",
          "name": "adr",
          "type": "bytes32"
        }
      ],
      "name": "approveApplication",
      "outputs": [],
      "payable": false,
      "stateMutability": "nonpayable",
      "type": "function"
    },
    {
      "constant": false,
      "inputs": [
        {
          "internalType": "bytes32",
          "name": "adr",
          "type": "bytes32"
        }
      ],
      "name": "rejectApplication",
      "outputs": [],
      "payable": false,
      "stateMutability": "nonpayable",
      "type": "function"
    },
    {
      "constant": true,
      "inputs": [
        {
          "internalType": "bytes32",
          "name": "adr",
          "type": "bytes32"
        }
      ],
      "name": "isVerified",
      "outputs": [
        {
          "internalType": "bool",
          "name": "",
          "type": "bool"
        }
      ],
      "payable": false,
      "stateMutability": "view",
      "type": "function"
    },
    {
      "constant": false,
      "inputs": [
        {
          "internalType": "bytes32",
          "name": "dealerId",
          "type": "bytes32"
        },
        {
          "internalType": "bytes32",
          "name": "adr",
          "type": "bytes32"
        }
      ],
      "name": "addDealerEmployee",
      "outputs": [],
      "payable": false,
      "stateMutability": "nonpayable",
      "type": "function"
    }
  ],
  "bytecode": "0x6080604052600080546001600160a01b0319163317905561237a806100256000396000f3fe608060405234801561001057600080fd5b50600436106100b45760003560e01c80637e41667f116100715780637e41667f1461015057806382d7afbd146101655780638da5cb5b14610178578063c181b2731461018d578063e445268c146101ad578063fcda35f9146101c0576100b4565b80631118127a146100b95780631b8f47fe146100ce5780634fb2e45d146100e15780635b6beeb9146100f4578063752326c11461011d5780637d17f13c14610130575b600080fd5b6100cc6100c736600461195f565b6101d3565b005b6100cc6100dc3660046118b5565b6103ca565b6100cc6100ef36600461188f565b6104aa565b61010761010236600461192b565b6104f6565b6040516101149190612163565b60405180910390f35b6100cc61012b36600461195f565b61056d565b61014361013e3660046118b5565b6106dc565b60405161011491906121c1565b610158610e66565b6040516101149190612144565b6100cc6101733660046118f1565b610eea565b610180610fec565b6040516101149190612136565b6101a061019b3660046118b5565b610ffb565b6040516101149190612155565b6100cc6101bb3660046118f1565b611028565b6100cc6101ce3660046118b5565b6110b3565b60008181526001602052604090205460ff161561020b5760405162461bcd60e51b8152600401610202906121b1565b60405180910390fd5b60008181526004602090815260409091208351805185936102309284929101906111bc565b50602082810151805161024992600185019201906111bc565b50604082015180516102659160028401916020909101906111bc565b50606082015180516102819160038401916020909101906111bc565b506080820151610297906004830190600261123a565b5060a082015180516102b39160068401916020909101906111bc565b5060c082015180516102cf9160078401916020909101906111bc565b5060e082015180516102eb9160088401916020909101906111bc565b5061010082015180516103089160098401916020909101906111bc565b50610120820151805161032591600a840191602090910190611286565b50610140820151805161034291600b8401916020909101906112d3565b50905050600061035182611176565b121561038d57600580546001810182556000919091527f036b6384b5eca791c62761152d0c79bb0604c104a5fb6f4eb0703f3154bb3db0018190555b7fbcb28ce223d1d07df7ff015302f0aee0306ad6362ede3db7aa3c6d40a651f00882826040516103be9291906121d2565b60405180910390a15050565b6000546001600160a01b031633146103f45760405162461bcd60e51b8152600401610202906121a1565b60006103ff82611176565b905060008112156104225760405162461bcd60e51b815260040161020290612191565b6000828152600160208190526040909120805460ff19169091179055600580548290811061044c57fe5b6000918252602082200155600580549061046a90600019830161132c565b506000828152600460205260409081902090517ff0447ca0275a7a763cd2739e8753770648c2f2178ce48fdcdfb68ab2a119efda916103be9185906121f2565b6000546001600160a01b031633146104d45760405162461bcd60e51b8152600401610202906121a1565b600080546001600160a01b0319166001600160a01b0392909216919091179055565b600060028260405160200161050b919061212a565b60408051601f19818403018152908290526105259161212a565b602060405180830381855afa158015610542573d6000803e3d6000fd5b5050506040513d601f19601f8201168201806040525061056591908101906118d3565b90505b919050565b600081815260016020526040902054819060ff1661059d5760405162461bcd60e51b815260040161020290612181565b60008281526004602090815260409091208451805186936105c29284929101906111bc565b5060208281015180516105db92600185019201906111bc565b50604082015180516105f79160028401916020909101906111bc565b50606082015180516106139160038401916020909101906111bc565b506080820151610629906004830190600261123a565b5060a082015180516106459160068401916020909101906111bc565b5060c082015180516106619160078401916020909101906111bc565b5060e0820151805161067d9160088401916020909101906111bc565b50610100820151805161069a9160098401916020909101906111bc565b5061012082015180516106b791600a840191602090910190611286565b5061014082015180516106d491600b8401916020909101906112d3565b505050505050565b6106e4611355565b6000828152600460209081526040918290208251815460026001821615610100026000190190911604601f8101849004909302810161018090810190945261016081018381529093919284928491908401828280156107845780601f1061075957610100808354040283529160200191610784565b820191906000526020600020905b81548152906001019060200180831161076757829003601f168201915b50505050508152602001600182018054600181600116156101000203166002900480601f0160208091040260200160405190810160405280929190818152602001828054600181600116156101000203166002900480156108265780601f106107fb57610100808354040283529160200191610826565b820191906000526020600020905b81548152906001019060200180831161080957829003601f168201915b5050509183525050600282810180546040805160206001841615610100026000190190931694909404601f810183900483028501830190915280845293810193908301828280156108b85780601f1061088d576101008083540402835291602001916108b8565b820191906000526020600020905b81548152906001019060200180831161089b57829003601f168201915b505050918352505060038201805460408051602060026001851615610100026000190190941693909304601f810184900484028201840190925281815293820193929183018282801561094c5780601f106109215761010080835404028352916020019161094c565b820191906000526020600020905b81548152906001019060200180831161092f57829003601f168201915b5050509183525050604080518082019091526020909101906004830160026000835b82821015610a1157838201805460408051602060026001851615610100026000190190941693909304601f810184900484028201840190925281815292918301828280156109fd5780601f106109d2576101008083540402835291602001916109fd565b820191906000526020600020905b8154815290600101906020018083116109e057829003601f168201915b50505050508152602001906001019061096e565b5050509082525060068201805460408051602060026001851615610100026000190190941693909304601f8101849004840282018401909252818152938201939291830182828015610aa45780601f10610a7957610100808354040283529160200191610aa4565b820191906000526020600020905b815481529060010190602001808311610a8757829003601f168201915b505050918352505060078201805460408051602060026001851615610100026000190190941693909304601f8101849004840282018401909252818152938201939291830182828015610b385780601f10610b0d57610100808354040283529160200191610b38565b820191906000526020600020905b815481529060010190602001808311610b1b57829003601f168201915b505050918352505060088201805460408051602060026001851615610100026000190190941693909304601f8101849004840282018401909252818152938201939291830182828015610bcc5780601f10610ba157610100808354040283529160200191610bcc565b820191906000526020600020905b815481529060010190602001808311610baf57829003601f168201915b505050918352505060098201805460408051602060026001851615610100026000190190941693909304601f8101849004840282018401909252818152938201939291830182828015610c605780601f10610c3557610100808354040283529160200191610c60565b820191906000526020600020905b815481529060010190602001808311610c4357829003601f168201915b50505050508152602001600a8201805480602002602001604051908101604052809291908181526020016000905b82821015610d395760008481526020908190208301805460408051601f6002600019610100600187161502019094169390930492830185900485028101850190915281815292830182828015610d255780601f10610cfa57610100808354040283529160200191610d25565b820191906000526020600020905b815481529060010190602001808311610d0857829003601f168201915b505050505081526020019060010190610c8e565b505050508152602001600b8201805480602002602001604051908101604052809291908181526020016000905b82821015610e5857838290600052602060002001805480602002602001604051908101604052809291908181526020016000905b82821015610e455760008481526020908190208301805460408051601f6002600019610100600187161502019094169390930492830185900485028101850190915281815292830182828015610e315780601f10610e0657610100808354040283529160200191610e31565b820191906000526020600020905b815481529060010190602001808311610e1457829003601f168201915b505050505081526020019060010190610d9a565b5050505081526020019060010190610d66565b505050915250909392505050565b6000546060906001600160a01b03163314610e935760405162461bcd60e51b8152600401610202906121a1565b6005805480602002602001604051908101604052809291908181526020018280548015610edf57602002820191906000526020600020905b815481526020019060010190808311610ecb575b505050505090505b90565b600082815260016020526040902054829060ff16610f1a5760405162461bcd60e51b815260040161020290612181565b6000828152600160208181526040808420805460ff1990811690941790558684528084208054909316909255848352600381528183208390558583526002905280822084835291208154610f6e92906113b5565b506000838152600260205260408120610f86916113f5565b60005b600083815260026020526040902054811015610fe6578260036000600260008781526020019081526020016000208481548110610fc257fe5b60009182526020808320909101548352820192909252604001902055600101610f89565b50505050565b6000546001600160a01b031681565b60008181526001602052604081205460ff1680610565575050600090815260036020526040902054151590565b600082815260016020526040902054829060ff166110585760405162461bcd60e51b815260040161020290612181565b600082815260036020526040902054156110845760405162461bcd60e51b815260040161020290612171565b506000828152600260209081526040808320805460018101825590845282842001849055928252600390522055565b6000546001600160a01b031633146110dd5760405162461bcd60e51b8152600401610202906121a1565b60006110e882611176565b9050600081121561110b5760405162461bcd60e51b815260040161020290612191565b6005818154811061111857fe5b6000918252602082200155600580549061113690600019830161132c565b506000828152600460205260409081902090517fcfb420e6e825355362483fbe9ffa1ccb2e0686c46057781725aff63aeb58d56d916103be9185906121f2565b6000805b6005548110156111b257826005828154811061119257fe5b906000526020600020015414156111aa579050610568565b60010161117a565b5060001992915050565b828054600181600116156101000203166002900490600052602060002090601f016020900481019282601f106111fd57805160ff191683800117855561122a565b8280016001018555821561122a579182015b8281111561122a57825182559160200191906001019061120f565b50611236929150611416565b5090565b826002810192821561127a579160200282015b8281111561127a578251805161126a9184916020909101906111bc565b509160200191906001019061124d565b50611236929150611430565b82805482825590600052602060002090810192821561127a579160200282015b8281111561127a57825180516112c39184916020909101906111bc565b50916020019190600101906112a6565b828054828255906000526020600020908101928215611320579160200282015b828111156113205782518051611310918491602090910190611286565b50916020019190600101906112f3565b50611236929150611453565b81548183558181111561135057600083815260209020611350918101908301611416565b505050565b60405180610160016040528060608152602001606081526020016060815260200160608152602001611385611476565b81526020016060815260200160608152602001606081526020016060815260200160608152602001606081525090565b82805482825590600052602060002090810192821561122a5760005260206000209182015b8281111561122a5782548255916001019190600101906113da565b50805460008255906000526020600020908101906114139190611416565b50565b610ee791905b80821115611236576000815560010161141c565b610ee791905b8082111561123657600061144a828261149d565b50600101611436565b610ee791905b8082111561123657600061146d82826114e1565b50600101611459565b60405180604001604052806002905b60608152602001906001900390816114855790505090565b50805460018160011615610100020316600290046000825580601f106114c35750611413565b601f0160209004906000526020600020908101906114139190611416565b50805460008255906000526020600020908101906114139190611430565b803561150a8161231a565b92915050565b600082601f83011261152157600080fd5b813561153461152f82612229565b612203565b81815260209384019390925082018360005b83811015611572578135860161155c88826115ce565b8452506020928301929190910190600101611546565b5050505092915050565b600082601f83011261158d57600080fd5b600261159b61152f82612249565b9150818360005b8381101561157257813586016115b88882611641565b84525060209283019291909101906001016115a2565b600082601f8301126115df57600080fd5b81356115ed61152f82612229565b81815260209384019390925082018360005b8381101561157257813586016116158882611641565b84525060209283019291909101906001016115ff565b803561150a8161232e565b805161150a8161232e565b600082601f83011261165257600080fd5b813561166061152f82612266565b9150808252602083016020830185838301111561167c57600080fd5b6116878382846122d8565b50505092915050565b600061016082840312156116a357600080fd5b6116ae610160612203565b905081356001600160401b038111156116c657600080fd5b6116d284828501611641565b82525060208201356001600160401b038111156116ee57600080fd5b6116fa84828501611641565b60208301525060408201356001600160401b0381111561171957600080fd5b61172584828501611641565b60408301525060608201356001600160401b0381111561174457600080fd5b61175084828501611641565b60608301525060808201356001600160401b0381111561176f57600080fd5b61177b8482850161157c565b60808301525060a08201356001600160401b0381111561179a57600080fd5b6117a684828501611641565b60a08301525060c08201356001600160401b038111156117c557600080fd5b6117d184828501611641565b60c08301525060e08201356001600160401b038111156117f057600080fd5b6117fc84828501611641565b60e0830152506101008201356001600160401b0381111561181c57600080fd5b61182884828501611641565b610100830152506101208201356001600160401b0381111561184957600080fd5b611855848285016115ce565b610120830152506101408201356001600160401b0381111561187657600080fd5b61188284828501611510565b6101408301525092915050565b6000602082840312156118a157600080fd5b60006118ad84846114ff565b949350505050565b6000602082840312156118c757600080fd5b60006118ad848461162b565b6000602082840312156118e557600080fd5b60006118ad8484611636565b6000806040838503121561190457600080fd5b6000611910858561162b565b92505060206119218582860161162b565b9150509250929050565b60006020828403121561193d57600080fd5b81356001600160401b0381111561195357600080fd5b6118ad84828501611641565b6000806040838503121561197257600080fd5b82356001600160401b0381111561198857600080fd5b61191085828601611690565b60006119a08383611b76565b9392505050565b60006119a08383611c37565b60006119bf8383611ca0565b505060200190565b60006119a08383611cd8565b60006119a08383611d10565b6119e8816122bc565b82525050565b60006119f98261229f565b611a0381856122b3565b935083602082028501611a158561228d565b8060005b85811015611a4f5784840389528151611a328582611994565b9450611a3d8361228d565b60209a909a0199925050600101611a19565b5091979650505050505050565b6000611a67826122a3565b611a7181856122b3565b935083602082028501611a8385612293565b8060005b85811015611a4f57848403895281611a9f85826119a7565b9450611aaa836122ad565b60209a909a0199925050600101611a87565b6000611ac78261229f565b611ad181856122b3565b9350611adc8361228d565b8060005b83811015611b0a578151611af488826119b3565b9750611aff8361228d565b925050600101611ae0565b509495945050505050565b6000611b20826122a7565b611b2a8185610568565b935083602082028501611b3c85610ee7565b8060005b85811015611a4f5784840389528151611b5985826119c7565b9450611b648361228d565b60209a909a0199925050600101611b40565b6000611b818261229f565b611b8b81856122b3565b935083602082028501611b9d8561228d565b8060005b85811015611a4f5784840389528151611bba85826119c7565b9450611bc58361228d565b60209a909a0199925050600101611ba1565b6000611be2826122a7565b611bec8185610568565b935083602082028501611bfe85610ee7565b8060005b85811015611a4f57848403895281611c1a85826119d3565b9450611c25836122ad565b60209a909a0199925050600101611c02565b6000611c42826122a3565b611c4c81856122b3565b935083602082028501611c5e85612293565b8060005b85811015611a4f57848403895281611c7a85826119d3565b9450611c85836122ad565b60209a909a0199925050600101611c62565b6119e8816122c7565b6119e881610ee7565b6000611cb48261229f565b611cbe8185610568565b9350611cce8185602086016122e4565b9290920192915050565b6000611ce38261229f565b611ced81856122b3565b9350611cfd8185602086016122e4565b611d0681612310565b9093019392505050565b600081546001811660008114611d2d5760018114611d5357611d92565b607f6002830416611d3e81876122b3565b60ff1984168152955050602085019250611d92565b60028204611d6181876122b3565b9550611d6c85612293565b60005b82811015611d8b57815488820152600190910190602001611d6f565b8701945050505b505092915050565b6000611da76021836122b3565b7f5468617420656d706c6f79656520616c726561647920776f726b7320746865728152606560f81b602082015260400192915050565b6000611dea6029836122b3565b7f596f75206d7573742062652061206465616c657273686970206f776e657220748152686f20646f207468697360b81b602082015260400192915050565b6000611e356021836122b3565b7f4e6f206170706c69636174696f6e2065786973747320666f72207468617420698152601960fa1b602082015260400192915050565b6000611e786015836122b3565b742cb7ba9030b932903737ba103a34329037bbb732b960591b815260200192915050565b6000611ea96022836122b3565b7f54686174206164647265737320697320616c7265616479207265676973746572815261195960f21b602082015260400192915050565b805161016080845260009190840190611ef98282611cd8565b91505060208301518482036020860152611f138282611cd8565b91505060408301518482036040860152611f2d8282611cd8565b91505060608301518482036060860152611f478282611cd8565b91505060808301518482036080860152611f618282611b15565b91505060a083015184820360a0860152611f7b8282611cd8565b91505060c083015184820360c0860152611f958282611cd8565b91505060e083015184820360e0860152611faf8282611cd8565b915050610100830151848203610100860152611fcb8282611cd8565b915050610120830151848203610120860152611fe78282611b76565b91505061014083015184820361014086015261200382826119ee565b95945050505050565b610160808352600090830181836120238382611d10565b92505060018401858303602087015261203c8382611d10565b9250506002840185830360408701526120558382611d10565b92505060038401858303606087015261206e8382611d10565b9250506004840185830360808701526120878382611bd7565b9250506006840185830360a08701526120a08382611d10565b9250506007840185830360c08701526120b98382611d10565b9250506008840185830360e08701526120d28382611d10565b925050600984018583036101008701526120ec8382611d10565b925050600a84018583036101208701526121068382611c37565b925050600b84018583036101408701526121208382611a5c565b9695505050505050565b60006119a08284611ca9565b6020810161150a82846119df565b602080825281016119a08184611abc565b6020810161150a8284611c97565b6020810161150a8284611ca0565b6020808252810161056581611d9a565b6020808252810161056581611ddd565b6020808252810161056581611e28565b6020808252810161056581611e6b565b6020808252810161056581611e9c565b602080825281016119a08184611ee0565b604080825281016121e38185611ee0565b90506119a06020830184611ca0565b604080825281016121e3818561200c565b6040518181016001600160401b038111828210171561222157600080fd5b604052919050565b60006001600160401b0382111561223f57600080fd5b5060209081020190565b60006001600160401b0382111561225f57600080fd5b5060200290565b60006001600160401b0382111561227c57600080fd5b506020601f91909101601f19160190565b60200190565b60009081526020902090565b5190565b5490565b50600290565b60010190565b90815260200190565b6000610565826122cc565b151590565b6001600160a01b031690565b82818337506000910152565b60005b838110156122ff5781810151838201526020016122e7565b83811115610fe65750506000910152565b601f01601f191690565b612323816122bc565b811461141357600080fd5b61232381610ee756fea365627a7a723158204d6e27d26fa034b4e152038b08df753784185a953c14bf7c69fb2fd5cf9882686c6578706572696d656e74616cf564736f6c634300050c0040",
  "source": "pragma solidity ^0.5.11;\npragma experimental ABIEncoderV2;\n\nimport \"./Ownable.sol\";\n\ncontract DealerContract is Ownable {\n\n\n    event CreateDealerApplication(DealerInfo info, bytes32 id);\n    event ApplicationApproved(DealerInfo info, bytes32 id);\n    event ApplicationRejected(DealerInfo info, bytes32 id);\n\n    struct DealerInfo{\n        string dealerName;\n        string firstName;\n        string lastName;\n        string addr;\n        string[2] location; //Lat & Long\n        string phoneNo;\n        string bestSeller;\n        string promotion;\n        string otherServices;\n        string[] availableServices;\n        string[][] availableSubServices;\n    }\n\n    mapping(bytes32 => bool) verifiedDealers;\n    mapping(bytes32 => bytes32[]) private dealerToEmployees;\n    mapping(bytes32 => bytes32) private employeeToDealer;\n\n\n    modifier verified(bytes32 dealerId) {\n        require(isVerified(dealerId),\"You must be a verified dealer to do this\");\n        _;\n    }\n\n    modifier dealershipOwner(bytes32 dealerId){\n        require(verifiedDealers[dealerId],\"You must be a dealership owner to do this\");\n        _;\n    }\n\n    mapping(bytes32 => DealerInfo) private dealerInfoMap;\n    bytes32[] dealerApplications;\n\n    //Function for dealer to create new application\n    function createDealerApplication(DealerInfo memory info, bytes32 id) public {\n        require(!verifiedDealers[id],\"That address is already registered\");\n        dealerInfoMap[id] = info;\n        if(getApplicationIndex(id) < 0){\n            dealerApplications.push(id);\n        }\n        emit CreateDealerApplication(info, id);\n    }\n\n    function editDealerInfo(DealerInfo memory info, bytes32 id) public dealershipOwner(id) {\n        dealerInfoMap[id] = info;\n    }\n\n    function getDealerInfo(bytes32 id) public view returns(DealerInfo memory) {\n        return dealerInfoMap[id];\n    }\n\n    //Transfer dealership owner to another id\n    function transferDealershipOwner(bytes32 dealershipId, bytes32 otherId) public dealershipOwner(dealershipId){\n        verifiedDealers[otherId] = true;\n        verifiedDealers[dealershipId] = false;\n        employeeToDealer[otherId] = 0;\n        dealerToEmployees[otherId] = dealerToEmployees[dealershipId];\n        delete dealerToEmployees[dealershipId];\n        for(uint i = 0; i < dealerToEmployees[otherId].length; i++){\n            employeeToDealer[dealerToEmployees[otherId][i]] = otherId;\n        }\n    }\n\n    //Get all current dealer applications\n    function getAllDealerApplications() public view ownerOnly returns (bytes32[] memory){\n        return dealerApplications;\n    }\n\n    function getApplicationIndex(bytes32 id) internal view returns (int) {\n        for(uint i = 0; i < dealerApplications.length; i++) {\n            if(dealerApplications[i] == id){\n                return int(i);\n            }\n        }\n        return -1;\n    }\n\n    //Approve a dealer application. Rejected if no application exists\n    function approveApplication(bytes32 adr) public ownerOnly {\n        int i = getApplicationIndex(adr);\n        require(i >= 0,\"No application exists for that id\");\n        verifiedDealers[adr] = true;\n        delete dealerApplications[uint(i)];\n        dealerApplications.length--;\n        emit ApplicationApproved(dealerInfoMap[adr],adr);\n    }\n\n    function rejectApplication(bytes32 adr) public ownerOnly {\n        int i = getApplicationIndex(adr);\n        require(i >= 0,\"No application exists for that id\");\n        delete dealerApplications[uint(i)];\n        dealerApplications.length--;\n        emit ApplicationRejected(dealerInfoMap[adr],adr);\n    }\n\n    //Function to see if a dealer is verified or works for a dealership\n    function isVerified(bytes32 adr) public view returns (bool) {\n        return verifiedDealers[adr] || employeeToDealer[adr] != 0;\n    }\n\n    //Add employee to dealership who will have access to verified() functions\n    function addDealerEmployee(bytes32 dealerId, bytes32 adr) public dealershipOwner(dealerId) {\n        require(employeeToDealer[adr] == 0,\"That employee already works there\");\n        dealerToEmployees[dealerId].push(adr);\n        employeeToDealer[adr] = dealerId;\n    }\n\n}\n",
  "sourcePath": "/Users/natwit/repos/blockchain-project-2019/contracts/DealerContract.sol",
  "compiler": {
    "name": "solc",
    "version": "0.5.12+commit.7709ece9.Emscripten.clang"
  },
  "schemaVersion": "3.0.19",
  "updatedAt": "2019-12-04T17:18:35.964Z",
  "networkType": "ethereum",
  "devdoc": {
    "methods": {}
  },
  "userdoc": {
    "methods": {}
  }
}