{
  "contractName": "DealerContract",
  "abi": [
    {
      "constant": true,
      "inputs": [
        {
          "internalType": "string",
          "name": "id",
          "type": "string"
        }
      ],
      "name": "getHash",
      "outputs": [
        {
          "internalType": "bytes32",
          "name": "",
          "type": "bytes32"
        }
      ],
      "payable": false,
      "stateMutability": "pure",
      "type": "function"
    },
    {
      "constant": false,
      "inputs": [
        {
          "internalType": "address",
          "name": "newOwner",
          "type": "address"
        }
      ],
      "name": "transferOwner",
      "outputs": [],
      "payable": false,
      "stateMutability": "nonpayable",
      "type": "function"
    },
    {
      "constant": false,
      "inputs": [
        {
          "components": [
            {
              "internalType": "string",
              "name": "dealerName",
              "type": "string"
            },
            {
              "internalType": "string",
              "name": "firstName",
              "type": "string"
            },
            {
              "internalType": "string",
              "name": "lastName",
              "type": "string"
            },
            {
              "internalType": "string",
              "name": "addr",
              "type": "string"
            },
            {
              "internalType": "string",
              "name": "location",
              "type": "string"
            },
            {
              "internalType": "string",
              "name": "phoneNo",
              "type": "string"
            },
            {
              "internalType": "string",
              "name": "bestSeller",
              "type": "string"
            },
            {
              "internalType": "string",
              "name": "promotion",
              "type": "string"
            },
            {
              "internalType": "string",
              "name": "otherServices",
              "type": "string"
            },
            {
              "internalType": "string[]",
              "name": "availableServices",
              "type": "string[]"
            },
            {
              "internalType": "string[][]",
              "name": "availableSubServices",
              "type": "string[][]"
            }
          ],
          "internalType": "struct DealerContract.DealerInfo",
          "name": "info",
          "type": "tuple"
        },
        {
          "internalType": "bytes32",
          "name": "id",
          "type": "bytes32"
        }
      ],
      "name": "createDealerApplication",
      "outputs": [],
      "payable": false,
      "stateMutability": "nonpayable",
      "type": "function"
    },
    {
      "constant": false,
      "inputs": [
        {
          "components": [
            {
              "internalType": "string",
              "name": "dealerName",
              "type": "string"
            },
            {
              "internalType": "string",
              "name": "firstName",
              "type": "string"
            },
            {
              "internalType": "string",
              "name": "lastName",
              "type": "string"
            },
            {
              "internalType": "string",
              "name": "addr",
              "type": "string"
            },
            {
              "internalType": "string",
              "name": "location",
              "type": "string"
            },
            {
              "internalType": "string",
              "name": "phoneNo",
              "type": "string"
            },
            {
              "internalType": "string",
              "name": "bestSeller",
              "type": "string"
            },
            {
              "internalType": "string",
              "name": "promotion",
              "type": "string"
            },
            {
              "internalType": "string",
              "name": "otherServices",
              "type": "string"
            },
            {
              "internalType": "string[]",
              "name": "availableServices",
              "type": "string[]"
            },
            {
              "internalType": "string[][]",
              "name": "availableSubServices",
              "type": "string[][]"
            }
          ],
          "internalType": "struct DealerContract.DealerInfo",
          "name": "info",
          "type": "tuple"
        },
        {
          "internalType": "bytes32",
          "name": "id",
          "type": "bytes32"
        }
      ],
      "name": "editDealerInfo",
      "outputs": [],
      "payable": false,
      "stateMutability": "nonpayable",
      "type": "function"
    },
    {
      "constant": true,
      "inputs": [
        {
          "internalType": "bytes32",
          "name": "id",
          "type": "bytes32"
        }
      ],
      "name": "getDealerInfo",
      "outputs": [
        {
          "components": [
            {
              "internalType": "string",
              "name": "dealerName",
              "type": "string"
            },
            {
              "internalType": "string",
              "name": "firstName",
              "type": "string"
            },
            {
              "internalType": "string",
              "name": "lastName",
              "type": "string"
            },
            {
              "internalType": "string",
              "name": "addr",
              "type": "string"
            },
            {
              "internalType": "string",
              "name": "location",
              "type": "string"
            },
            {
              "internalType": "string",
              "name": "phoneNo",
              "type": "string"
            },
            {
              "internalType": "string",
              "name": "bestSeller",
              "type": "string"
            },
            {
              "internalType": "string",
              "name": "promotion",
              "type": "string"
            },
            {
              "internalType": "string",
              "name": "otherServices",
              "type": "string"
            },
            {
              "internalType": "string[]",
              "name": "availableServices",
              "type": "string[]"
            },
            {
              "internalType": "string[][]",
              "name": "availableSubServices",
              "type": "string[][]"
            }
          ],
          "internalType": "struct DealerContract.DealerInfo",
          "name": "",
          "type": "tuple"
        }
      ],
      "payable": false,
      "stateMutability": "view",
      "type": "function"
    },
    {
      "constant": false,
      "inputs": [
        {
          "internalType": "bytes32",
          "name": "dealershipId",
          "type": "bytes32"
        },
        {
          "internalType": "bytes32",
          "name": "otherId",
          "type": "bytes32"
        }
      ],
      "name": "transferDealershipOwner",
      "outputs": [],
      "payable": false,
      "stateMutability": "nonpayable",
      "type": "function"
    },
    {
      "constant": true,
      "inputs": [],
      "name": "getAllDealerApplications",
      "outputs": [
        {
          "internalType": "bytes32[]",
          "name": "",
          "type": "bytes32[]"
        }
      ],
      "payable": false,
      "stateMutability": "view",
      "type": "function"
    },
    {
      "constant": false,
      "inputs": [
        {
          "internalType": "bytes32",
          "name": "adr",
          "type": "bytes32"
        }
      ],
      "name": "approveApplication",
      "outputs": [],
      "payable": false,
      "stateMutability": "nonpayable",
      "type": "function"
    },
    {
      "constant": true,
      "inputs": [
        {
          "internalType": "bytes32",
          "name": "adr",
          "type": "bytes32"
        }
      ],
      "name": "isVerified",
      "outputs": [
        {
          "internalType": "bool",
          "name": "",
          "type": "bool"
        }
      ],
      "payable": false,
      "stateMutability": "view",
      "type": "function"
    },
    {
      "constant": false,
      "inputs": [
        {
          "internalType": "bytes32",
          "name": "dealerId",
          "type": "bytes32"
        },
        {
          "internalType": "bytes32",
          "name": "adr",
          "type": "bytes32"
        }
      ],
      "name": "addDealerEmployee",
      "outputs": [],
      "payable": false,
      "stateMutability": "nonpayable",
      "type": "function"
    }
  ],
  "bytecode": "0x6080604052336000806101000a81548173ffffffffffffffffffffffffffffffffffffffff021916908373ffffffffffffffffffffffffffffffffffffffff160217905550612633806100536000396000f3fe608060405234801561001057600080fd5b506004361061009e5760003560e01c80637d17f13c116100665780637d17f13c146101435780637e41667f1461017357806382d7afbd14610191578063c181b273146101ad578063e445268c146101dd5761009e565b806307681038146100a35780631b8f47fe146100bf5780632d4afc7b146100db5780634fb2e45d146100f75780635b6beeb914610113575b600080fd5b6100bd60048036036100b89190810190611c55565b6101f9565b005b6100d960048036036100d49190810190611b86565b6103e3565b005b6100f560048036036100f09190810190611c55565b61050d565b005b610111600480360361010c9190810190611b5d565b6106cc565b005b61012d60048036036101289190810190611c14565b61079e565b60405161013a9190612271565b60405180910390f35b61015d60048036036101589190810190611b86565b610816565b60405161016a919061232c565b60405180910390f35b61017b61100f565b6040516101889190612234565b60405180910390f35b6101ab60048036036101a69190810190611bd8565b6110f6565b005b6101c760048036036101c29190810190611b86565b611294565b6040516101d49190612256565b60405180910390f35b6101f760048036036101f29190810190611bd8565b6112df565b005b6001600082815260200190815260200160002060009054906101000a900460ff161561025a576040517f08c379a00000000000000000000000000000000000000000000000000000000081526004016102519061230c565b60405180910390fd5b8160046000838152602001908152602001600020600082015181600001908051906020019061028a929190611466565b5060208201518160010190805190602001906102a7929190611466565b5060408201518160020190805190602001906102c4929190611466565b5060608201518160030190805190602001906102e1929190611466565b5060808201518160040190805190602001906102fe929190611466565b5060a082015181600501908051906020019061031b929190611466565b5060c0820151816006019080519060200190610338929190611466565b5060e0820151816007019080519060200190610355929190611466565b50610100820151816008019080519060200190610373929190611466565b506101208201518160090190805190602001906103919291906114e6565b5061014082015181600a0190805190602001906103af929190611546565b5090505060058190806001815401808255809150509060018203906000526020600020016000909192909190915055505050565b6000809054906101000a900473ffffffffffffffffffffffffffffffffffffffff1673ffffffffffffffffffffffffffffffffffffffff163373ffffffffffffffffffffffffffffffffffffffff1614610472576040517f08c379a0000000000000000000000000000000000000000000000000000000008152600401610469906122ec565b60405180910390fd5b600061047d826113f2565b905060008112156104c3576040517f08c379a00000000000000000000000000000000000000000000000000000000081526004016104ba906122cc565b60405180910390fd5b600180600084815260200190815260200160002060006101000a81548160ff021916908315150217905550600581815481106104fb57fe5b90600052602060002001600090555050565b806001600082815260200190815260200160002060009054906101000a900460ff1661056e576040517f08c379a0000000000000000000000000000000000000000000000000000000008152600401610565906122ac565b60405180910390fd5b8260046000848152602001908152602001600020600082015181600001908051906020019061059e929190611466565b5060208201518160010190805190602001906105bb929190611466565b5060408201518160020190805190602001906105d8929190611466565b5060608201518160030190805190602001906105f5929190611466565b506080820151816004019080519060200190610612929190611466565b5060a082015181600501908051906020019061062f929190611466565b5060c082015181600601908051906020019061064c929190611466565b5060e0820151816007019080519060200190610669929190611466565b50610100820151816008019080519060200190610687929190611466565b506101208201518160090190805190602001906106a59291906114e6565b5061014082015181600a0190805190602001906106c3929190611546565b50905050505050565b6000809054906101000a900473ffffffffffffffffffffffffffffffffffffffff1673ffffffffffffffffffffffffffffffffffffffff163373ffffffffffffffffffffffffffffffffffffffff161461075b576040517f08c379a0000000000000000000000000000000000000000000000000000000008152600401610752906122ec565b60405180910390fd5b806000806101000a81548173ffffffffffffffffffffffffffffffffffffffff021916908373ffffffffffffffffffffffffffffffffffffffff16021790555050565b60006002826040516020016107b3919061221d565b6040516020818303038152906040526040516107cf9190612206565b602060405180830381855afa1580156107ec573d6000803e3d6000fd5b5050506040513d601f19601f8201168201806040525061080f9190810190611baf565b9050919050565b61081e6115a6565b6004600083815260200190815260200160002060405180610160016040529081600082018054600181600116156101000203166002900480601f0160208091040260200160405190810160405280929190818152602001828054600181600116156101000203166002900480156108d65780601f106108ab576101008083540402835291602001916108d6565b820191906000526020600020905b8154815290600101906020018083116108b957829003601f168201915b50505050508152602001600182018054600181600116156101000203166002900480601f0160208091040260200160405190810160405280929190818152602001828054600181600116156101000203166002900480156109785780601f1061094d57610100808354040283529160200191610978565b820191906000526020600020905b81548152906001019060200180831161095b57829003601f168201915b50505050508152602001600282018054600181600116156101000203166002900480601f016020809104026020016040519081016040528092919081815260200182805460018160011615610100020316600290048015610a1a5780601f106109ef57610100808354040283529160200191610a1a565b820191906000526020600020905b8154815290600101906020018083116109fd57829003601f168201915b50505050508152602001600382018054600181600116156101000203166002900480601f016020809104026020016040519081016040528092919081815260200182805460018160011615610100020316600290048015610abc5780601f10610a9157610100808354040283529160200191610abc565b820191906000526020600020905b815481529060010190602001808311610a9f57829003601f168201915b50505050508152602001600482018054600181600116156101000203166002900480601f016020809104026020016040519081016040528092919081815260200182805460018160011615610100020316600290048015610b5e5780601f10610b3357610100808354040283529160200191610b5e565b820191906000526020600020905b815481529060010190602001808311610b4157829003601f168201915b50505050508152602001600582018054600181600116156101000203166002900480601f016020809104026020016040519081016040528092919081815260200182805460018160011615610100020316600290048015610c005780601f10610bd557610100808354040283529160200191610c00565b820191906000526020600020905b815481529060010190602001808311610be357829003601f168201915b50505050508152602001600682018054600181600116156101000203166002900480601f016020809104026020016040519081016040528092919081815260200182805460018160011615610100020316600290048015610ca25780601f10610c7757610100808354040283529160200191610ca2565b820191906000526020600020905b815481529060010190602001808311610c8557829003601f168201915b50505050508152602001600782018054600181600116156101000203166002900480601f016020809104026020016040519081016040528092919081815260200182805460018160011615610100020316600290048015610d445780601f10610d1957610100808354040283529160200191610d44565b820191906000526020600020905b815481529060010190602001808311610d2757829003601f168201915b50505050508152602001600882018054600181600116156101000203166002900480601f016020809104026020016040519081016040528092919081815260200182805460018160011615610100020316600290048015610de65780601f10610dbb57610100808354040283529160200191610de6565b820191906000526020600020905b815481529060010190602001808311610dc957829003601f168201915b5050505050815260200160098201805480602002602001604051908101604052809291908181526020016000905b82821015610ed0578382906000526020600020018054600181600116156101000203166002900480601f016020809104026020016040519081016040528092919081815260200182805460018160011615610100020316600290048015610ebc5780601f10610e9157610100808354040283529160200191610ebc565b820191906000526020600020905b815481529060010190602001808311610e9f57829003601f168201915b505050505081526020019060010190610e14565b505050508152602001600a8201805480602002602001604051908101604052809291908181526020016000905b8282101561100057838290600052602060002001805480602002602001604051908101604052809291908181526020016000905b82821015610fed578382906000526020600020018054600181600116156101000203166002900480601f016020809104026020016040519081016040528092919081815260200182805460018160011615610100020316600290048015610fd95780601f10610fae57610100808354040283529160200191610fd9565b820191906000526020600020905b815481529060010190602001808311610fbc57829003601f168201915b505050505081526020019060010190610f31565b5050505081526020019060010190610efd565b50505050815250509050919050565b60606000809054906101000a900473ffffffffffffffffffffffffffffffffffffffff1673ffffffffffffffffffffffffffffffffffffffff163373ffffffffffffffffffffffffffffffffffffffff16146110a0576040517f08c379a0000000000000000000000000000000000000000000000000000000008152600401611097906122ec565b60405180910390fd5b60058054806020026020016040519081016040528092919081815260200182805480156110ec57602002820191906000526020600020905b8154815260200190600101908083116110d8575b5050505050905090565b816001600082815260200190815260200160002060009054906101000a900460ff16611157576040517f08c379a000000000000000000000000000000000000000000000000000000000815260040161114e906122ac565b60405180910390fd5b600180600084815260200190815260200160002060006101000a81548160ff02191690831515021790555060006001600085815260200190815260200160002060006101000a81548160ff0219169083151502179055506000801b600360008481526020019081526020016000208190555060026000848152602001908152602001600020600260008481526020019081526020016000209080546111fd929190611600565b5060026000848152602001908152602001600020600061121d9190611652565b60008090505b600260008481526020019081526020016000208054905081101561128e57826003600060026000878152602001908152602001600020848154811061126457fe5b90600052602060002001548152602001908152602001600020819055508080600101915050611223565b50505050565b60006001600083815260200190815260200160002060009054906101000a900460ff16806112d857506000801b600360008481526020019081526020016000205414155b9050919050565b816001600082815260200190815260200160002060009054906101000a900460ff16611340576040517f08c379a0000000000000000000000000000000000000000000000000000000008152600401611337906122ac565b60405180910390fd5b6000801b600360008481526020019081526020016000205414611398576040517f08c379a000000000000000000000000000000000000000000000000000000000815260040161138f9061228c565b60405180910390fd5b60026000848152602001908152602001600020829080600181540180825580915050906001820390600052602060002001600090919290919091505550826003600084815260200190815260200160002081905550505050565b600080600090505b60058054905081101561143c57826005828154811061141557fe5b9060005260206000200154141561142f5780915050611461565b80806001019150506113fa565b507fffffffffffffffffffffffffffffffffffffffffffffffffffffffffffffffff90505b919050565b828054600181600116156101000203166002900490600052602060002090601f016020900481019282601f106114a757805160ff19168380011785556114d5565b828001600101855582156114d5579182015b828111156114d45782518255916020019190600101906114b9565b5b5090506114e29190611673565b5090565b828054828255906000526020600020908101928215611535579160200282015b82811115611534578251829080519060200190611524929190611466565b5091602001919060010190611506565b5b5090506115429190611698565b5090565b828054828255906000526020600020908101928215611595579160200282015b828111156115945782518290805190602001906115849291906114e6565b5091602001919060010190611566565b5b5090506115a291906116c4565b5090565b60405180610160016040528060608152602001606081526020016060815260200160608152602001606081526020016060815260200160608152602001606081526020016060815260200160608152602001606081525090565b8280548282559060005260206000209081019282156116415760005260206000209182015b82811115611640578254825591600101919060010190611625565b5b50905061164e91906116f0565b5090565b508054600082559060005260206000209081019061167091906116f0565b50565b61169591905b80821115611691576000816000905550600101611679565b5090565b90565b6116c191905b808211156116bd57600081816116b49190611715565b5060010161169e565b5090565b90565b6116ed91905b808211156116e957600081816116e0919061175d565b506001016116ca565b5090565b90565b61171291905b8082111561170e5760008160009055506001016116f6565b5090565b90565b50805460018160011615610100020316600290046000825580601f1061173b575061175a565b601f0160209004906000526020600020908101906117599190611673565b5b50565b508054600082559060005260206000209081019061177b9190611698565b50565b60008135905061178d816125c2565b92915050565b600082601f8301126117a457600080fd5b81356117b76117b28261237b565b61234e565b9150818183526020840193506020810190508360005b838110156117fd57813586016117e38882611807565b8452602084019350602083019250506001810190506117cd565b5050505092915050565b600082601f83011261181857600080fd5b813561182b611826826123a3565b61234e565b9150818183526020840193506020810190508360005b83811015611871578135860161185788826118a5565b845260208401935060208301925050600181019050611841565b5050505092915050565b60008135905061188a816125d9565b92915050565b60008151905061189f816125d9565b92915050565b600082601f8301126118b657600080fd5b81356118c96118c4826123cb565b61234e565b915080825260208301602083018583830111156118e557600080fd5b6118f083828461256f565b50505092915050565b600082601f83011261190a57600080fd5b813561191d611918826123f7565b61234e565b9150808252602083016020830185838301111561193957600080fd5b61194483828461256f565b50505092915050565b6000610160828403121561196057600080fd5b61196b61016061234e565b9050600082013567ffffffffffffffff81111561198757600080fd5b611993848285016118a5565b600083015250602082013567ffffffffffffffff8111156119b357600080fd5b6119bf848285016118a5565b602083015250604082013567ffffffffffffffff8111156119df57600080fd5b6119eb848285016118a5565b604083015250606082013567ffffffffffffffff811115611a0b57600080fd5b611a17848285016118a5565b606083015250608082013567ffffffffffffffff811115611a3757600080fd5b611a43848285016118a5565b60808301525060a082013567ffffffffffffffff811115611a6357600080fd5b611a6f848285016118a5565b60a08301525060c082013567ffffffffffffffff811115611a8f57600080fd5b611a9b848285016118a5565b60c08301525060e082013567ffffffffffffffff811115611abb57600080fd5b611ac7848285016118a5565b60e08301525061010082013567ffffffffffffffff811115611ae857600080fd5b611af4848285016118a5565b6101008301525061012082013567ffffffffffffffff811115611b1657600080fd5b611b2284828501611807565b6101208301525061014082013567ffffffffffffffff811115611b4457600080fd5b611b5084828501611793565b6101408301525092915050565b600060208284031215611b6f57600080fd5b6000611b7d8482850161177e565b91505092915050565b600060208284031215611b9857600080fd5b6000611ba68482850161187b565b91505092915050565b600060208284031215611bc157600080fd5b6000611bcf84828501611890565b91505092915050565b60008060408385031215611beb57600080fd5b6000611bf98582860161187b565b9250506020611c0a8582860161187b565b9150509250929050565b600060208284031215611c2657600080fd5b600082013567ffffffffffffffff811115611c4057600080fd5b611c4c848285016118f9565b91505092915050565b60008060408385031215611c6857600080fd5b600083013567ffffffffffffffff811115611c8257600080fd5b611c8e8582860161194d565b9250506020611c9f8582860161187b565b9150509250929050565b6000611cb58383611dbc565b905092915050565b6000611cc98383611e40565b60208301905092915050565b6000611ce18383611ec0565b905092915050565b6000611cf482612453565b611cfe81856124bc565b935083602082028501611d1085612423565b8060005b85811015611d4c5784840389528151611d2d8582611ca9565b9450611d3883612495565b925060208a01995050600181019050611d14565b50829750879550505050505092915050565b6000611d698261245e565b611d7381856124cd565b9350611d7e83612433565b8060005b83811015611daf578151611d968882611cbd565b9750611da1836124a2565b925050600181019050611d82565b5085935050505092915050565b6000611dc782612469565b611dd181856124de565b935083602082028501611de385612443565b8060005b85811015611e1f5784840389528151611e008582611cd5565b9450611e0b836124af565b925060208a01995050600181019050611de7565b50829750879550505050505092915050565b611e3a81612539565b82525050565b611e4981612545565b82525050565b611e5881612545565b82525050565b6000611e6982612474565b611e7381856124ef565b9350611e8381856020860161257e565b80840191505092915050565b6000611e9a8261248a565b611ea4818561251c565b9350611eb481856020860161257e565b80840191505092915050565b6000611ecb8261247f565b611ed581856124fa565b9350611ee581856020860161257e565b611eee816125b1565b840191505092915050565b6000611f0660218361250b565b91507f5468617420656d706c6f79656520616c726561647920776f726b73207468657260008301527f65000000000000000000000000000000000000000000000000000000000000006020830152604082019050919050565b6000611f6c60298361250b565b91507f596f75206d7573742062652061206465616c657273686970206f776e6572207460008301527f6f20646f207468697300000000000000000000000000000000000000000000006020830152604082019050919050565b6000611fd260218361250b565b91507f4e6f206170706c69636174696f6e2065786973747320666f722074686174206960008301527f64000000000000000000000000000000000000000000000000000000000000006020830152604082019050919050565b600061203860158361250b565b91507f596f7520617265206e6f7420746865206f776e657200000000000000000000006000830152602082019050919050565b600061207860228361250b565b91507f54686174206164647265737320697320616c726561647920726567697374657260008301527f65640000000000000000000000000000000000000000000000000000000000006020830152604082019050919050565b60006101608301600083015184820360008601526120ef8282611ec0565b915050602083015184820360208601526121098282611ec0565b915050604083015184820360408601526121238282611ec0565b9150506060830151848203606086015261213d8282611ec0565b915050608083015184820360808601526121578282611ec0565b91505060a083015184820360a08601526121718282611ec0565b91505060c083015184820360c086015261218b8282611ec0565b91505060e083015184820360e08601526121a58282611ec0565b9150506101008301518482036101008601526121c18282611ec0565b9150506101208301518482036101208601526121dd8282611dbc565b9150506101408301518482036101408601526121f98282611ce9565b9150508091505092915050565b60006122128284611e5e565b915081905092915050565b60006122298284611e8f565b915081905092915050565b6000602082019050818103600083015261224e8184611d5e565b905092915050565b600060208201905061226b6000830184611e31565b92915050565b60006020820190506122866000830184611e4f565b92915050565b600060208201905081810360008301526122a581611ef9565b9050919050565b600060208201905081810360008301526122c581611f5f565b9050919050565b600060208201905081810360008301526122e581611fc5565b9050919050565b600060208201905081810360008301526123058161202b565b9050919050565b600060208201905081810360008301526123258161206b565b9050919050565b6000602082019050818103600083015261234681846120d1565b905092915050565b6000604051905081810181811067ffffffffffffffff8211171561237157600080fd5b8060405250919050565b600067ffffffffffffffff82111561239257600080fd5b602082029050602081019050919050565b600067ffffffffffffffff8211156123ba57600080fd5b602082029050602081019050919050565b600067ffffffffffffffff8211156123e257600080fd5b601f19601f8301169050602081019050919050565b600067ffffffffffffffff82111561240e57600080fd5b601f19601f8301169050602081019050919050565b6000819050602082019050919050565b6000819050602082019050919050565b6000819050602082019050919050565b600081519050919050565b600081519050919050565b600081519050919050565b600081519050919050565b600081519050919050565b600081519050919050565b6000602082019050919050565b6000602082019050919050565b6000602082019050919050565b600082825260208201905092915050565b600082825260208201905092915050565b600082825260208201905092915050565b600081905092915050565b600082825260208201905092915050565b600082825260208201905092915050565b600081905092915050565b60006125328261254f565b9050919050565b60008115159050919050565b6000819050919050565b600073ffffffffffffffffffffffffffffffffffffffff82169050919050565b82818337600083830152505050565b60005b8381101561259c578082015181840152602081019050612581565b838111156125ab576000848401525b50505050565b6000601f19601f8301169050919050565b6125cb81612527565b81146125d657600080fd5b50565b6125e281612545565b81146125ed57600080fd5b5056fea365627a7a723158207ab7b7a64e773bd14b87bafa969cad667e08562112f9b0a67e14ccee08de751d6c6578706572696d656e74616cf564736f6c634300050c0040",
  "source": "pragma solidity ^0.5.11;\npragma experimental ABIEncoderV2;\n\nimport \"./Ownable.sol\";\n\ncontract DealerContract is Ownable {\n\n    struct DealerInfo{\n        string dealerName;\n        string firstName;\n        string lastName;\n        string addr;\n        string location;\n        string phoneNo;\n        string bestSeller;\n        string promotion;\n        string otherServices;\n        string[] availableServices;\n        string[][] availableSubServices;\n    }\n\n    mapping(bytes32 => bool) verifiedDealers;\n    mapping(bytes32 => bytes32[]) private dealerToEmployees;\n    mapping(bytes32 => bytes32) private employeeToDealer;\n\n\n    modifier verified(bytes32 dealerId) {\n        require(isVerified(dealerId),\"You must be a verified dealer to do this\");\n        _;\n    }\n\n    modifier dealershipOwner(bytes32 dealerId){\n        require(verifiedDealers[dealerId],\"You must be a dealership owner to do this\");\n        _;\n    }\n\n    mapping(bytes32 => DealerInfo) private dealerInfoMap;\n    bytes32[] dealerApplications;\n\n    //Function for dealer to create new application\n    function createDealerApplication(DealerInfo memory info, bytes32 id) public {\n        require(!verifiedDealers[id],\"That address is already registered\");\n        dealerInfoMap[id] = info;\n        dealerApplications.push(id);\n    }\n\n    function editDealerInfo(DealerInfo memory info, bytes32 id) public dealershipOwner(id) {\n        dealerInfoMap[id] = info;\n    }\n\n    function getDealerInfo(bytes32 id) public view returns(DealerInfo memory) {\n        return dealerInfoMap[id];\n    }\n\n    //Transfer dealership owner to another id\n    function transferDealershipOwner(bytes32 dealershipId, bytes32 otherId) public dealershipOwner(dealershipId){\n        verifiedDealers[otherId] = true;\n        verifiedDealers[dealershipId] = false;\n        employeeToDealer[otherId] = 0;\n        dealerToEmployees[otherId] = dealerToEmployees[dealershipId];\n        delete dealerToEmployees[dealershipId];\n        for(uint i = 0; i < dealerToEmployees[otherId].length; i++){\n            employeeToDealer[dealerToEmployees[otherId][i]] = otherId;\n        }\n    }\n\n    //Get all current dealer applications\n    function getAllDealerApplications() public view ownerOnly returns (bytes32[] memory){\n        return dealerApplications;\n    }\n\n    function getApplicationIndex(bytes32 id) internal view returns (int) {\n        for(uint i = 0; i < dealerApplications.length; i++) {\n            if(dealerApplications[i] == id){\n                return int(i);\n            }\n        }\n        return -1;\n    }\n\n    //Approve a dealer application. Rejected if no application exists\n    function approveApplication(bytes32 adr) public ownerOnly {\n        int i = getApplicationIndex(adr);\n        require(i >= 0,\"No application exists for that id\");\n        verifiedDealers[adr] = true;\n        delete dealerApplications[uint(i)];\n    }\n\n    //Function to see if a dealer is verified or works for a dealership\n    function isVerified(bytes32 adr) public view returns (bool) {\n        return verifiedDealers[adr] || employeeToDealer[adr] != 0;\n    }\n\n    //Add employee to dealership who will have access to verified() functions\n    function addDealerEmployee(bytes32 dealerId, bytes32 adr) public dealershipOwner(dealerId) {\n        require(employeeToDealer[adr] == 0,\"That employee already works there\");\n        dealerToEmployees[dealerId].push(adr);\n        employeeToDealer[adr] = dealerId;\n    }\n\n}\n",
  "sourcePath": "/Users/mapring/Documents/school/blockchain/blockchain-project-2019/contracts/DealerContract.sol",
  "compiler": {
    "name": "solc",
    "version": "0.5.12+commit.7709ece9.Emscripten.clang"
  },
  "schemaVersion": "3.0.19",
  "updatedAt": "2019-11-22T16:28:46.629Z",
  "networkType": "ethereum",
  "devdoc": {
    "methods": {}
  },
  "userdoc": {
    "methods": {}
  }
}