{
  "contractName": "DealerContract",
  "abi": [
    {
      "anonymous": false,
      "inputs": [
        {
          "components": [
            {
              "internalType": "string",
              "name": "dealerName",
              "type": "string"
            },
            {
              "internalType": "string",
              "name": "firstName",
              "type": "string"
            },
            {
              "internalType": "string",
              "name": "lastName",
              "type": "string"
            },
            {
              "internalType": "string",
              "name": "addr",
              "type": "string"
            },
            {
              "internalType": "string",
              "name": "location",
              "type": "string"
            },
            {
              "internalType": "string",
              "name": "phoneNo",
              "type": "string"
            },
            {
              "internalType": "string",
              "name": "bestSeller",
              "type": "string"
            },
            {
              "internalType": "string",
              "name": "promotion",
              "type": "string"
            },
            {
              "internalType": "string",
              "name": "otherServices",
              "type": "string"
            },
            {
              "internalType": "string[]",
              "name": "availableServices",
              "type": "string[]"
            },
            {
              "internalType": "string[][]",
              "name": "availableSubServices",
              "type": "string[][]"
            }
          ],
          "indexed": false,
          "internalType": "struct DealerContract.DealerInfo",
          "name": "info",
          "type": "tuple"
        },
        {
          "indexed": false,
          "internalType": "bytes32",
          "name": "id",
          "type": "bytes32"
        }
      ],
      "name": "CreateDealerApplication",
      "type": "event"
    },
    {
      "constant": true,
      "inputs": [
        {
          "internalType": "string",
          "name": "id",
          "type": "string"
        }
      ],
      "name": "getHash",
      "outputs": [
        {
          "internalType": "bytes32",
          "name": "",
          "type": "bytes32"
        }
      ],
      "payable": false,
      "stateMutability": "pure",
      "type": "function"
    },
    {
      "constant": true,
      "inputs": [],
      "name": "owner",
      "outputs": [
        {
          "internalType": "address",
          "name": "",
          "type": "address"
        }
      ],
      "payable": false,
      "stateMutability": "view",
      "type": "function"
    },
    {
      "constant": false,
      "inputs": [
        {
          "internalType": "address",
          "name": "newOwner",
          "type": "address"
        }
      ],
      "name": "transferOwner",
      "outputs": [],
      "payable": false,
      "stateMutability": "nonpayable",
      "type": "function"
    },
    {
      "constant": false,
      "inputs": [
        {
          "components": [
            {
              "internalType": "string",
              "name": "dealerName",
              "type": "string"
            },
            {
              "internalType": "string",
              "name": "firstName",
              "type": "string"
            },
            {
              "internalType": "string",
              "name": "lastName",
              "type": "string"
            },
            {
              "internalType": "string",
              "name": "addr",
              "type": "string"
            },
            {
              "internalType": "string",
              "name": "location",
              "type": "string"
            },
            {
              "internalType": "string",
              "name": "phoneNo",
              "type": "string"
            },
            {
              "internalType": "string",
              "name": "bestSeller",
              "type": "string"
            },
            {
              "internalType": "string",
              "name": "promotion",
              "type": "string"
            },
            {
              "internalType": "string",
              "name": "otherServices",
              "type": "string"
            },
            {
              "internalType": "string[]",
              "name": "availableServices",
              "type": "string[]"
            },
            {
              "internalType": "string[][]",
              "name": "availableSubServices",
              "type": "string[][]"
            }
          ],
          "internalType": "struct DealerContract.DealerInfo",
          "name": "info",
          "type": "tuple"
        },
        {
          "internalType": "bytes32",
          "name": "id",
          "type": "bytes32"
        }
      ],
      "name": "createDealerApplication",
      "outputs": [],
      "payable": false,
      "stateMutability": "nonpayable",
      "type": "function"
    },
    {
      "constant": false,
      "inputs": [
        {
          "components": [
            {
              "internalType": "string",
              "name": "dealerName",
              "type": "string"
            },
            {
              "internalType": "string",
              "name": "firstName",
              "type": "string"
            },
            {
              "internalType": "string",
              "name": "lastName",
              "type": "string"
            },
            {
              "internalType": "string",
              "name": "addr",
              "type": "string"
            },
            {
              "internalType": "string",
              "name": "location",
              "type": "string"
            },
            {
              "internalType": "string",
              "name": "phoneNo",
              "type": "string"
            },
            {
              "internalType": "string",
              "name": "bestSeller",
              "type": "string"
            },
            {
              "internalType": "string",
              "name": "promotion",
              "type": "string"
            },
            {
              "internalType": "string",
              "name": "otherServices",
              "type": "string"
            },
            {
              "internalType": "string[]",
              "name": "availableServices",
              "type": "string[]"
            },
            {
              "internalType": "string[][]",
              "name": "availableSubServices",
              "type": "string[][]"
            }
          ],
          "internalType": "struct DealerContract.DealerInfo",
          "name": "info",
          "type": "tuple"
        },
        {
          "internalType": "bytes32",
          "name": "id",
          "type": "bytes32"
        }
      ],
      "name": "editDealerInfo",
      "outputs": [],
      "payable": false,
      "stateMutability": "nonpayable",
      "type": "function"
    },
    {
      "constant": true,
      "inputs": [
        {
          "internalType": "bytes32",
          "name": "id",
          "type": "bytes32"
        }
      ],
      "name": "getDealerInfo",
      "outputs": [
        {
          "components": [
            {
              "internalType": "string",
              "name": "dealerName",
              "type": "string"
            },
            {
              "internalType": "string",
              "name": "firstName",
              "type": "string"
            },
            {
              "internalType": "string",
              "name": "lastName",
              "type": "string"
            },
            {
              "internalType": "string",
              "name": "addr",
              "type": "string"
            },
            {
              "internalType": "string",
              "name": "location",
              "type": "string"
            },
            {
              "internalType": "string",
              "name": "phoneNo",
              "type": "string"
            },
            {
              "internalType": "string",
              "name": "bestSeller",
              "type": "string"
            },
            {
              "internalType": "string",
              "name": "promotion",
              "type": "string"
            },
            {
              "internalType": "string",
              "name": "otherServices",
              "type": "string"
            },
            {
              "internalType": "string[]",
              "name": "availableServices",
              "type": "string[]"
            },
            {
              "internalType": "string[][]",
              "name": "availableSubServices",
              "type": "string[][]"
            }
          ],
          "internalType": "struct DealerContract.DealerInfo",
          "name": "",
          "type": "tuple"
        }
      ],
      "payable": false,
      "stateMutability": "view",
      "type": "function"
    },
    {
      "constant": false,
      "inputs": [
        {
          "internalType": "bytes32",
          "name": "dealershipId",
          "type": "bytes32"
        },
        {
          "internalType": "bytes32",
          "name": "otherId",
          "type": "bytes32"
        }
      ],
      "name": "transferDealershipOwner",
      "outputs": [],
      "payable": false,
      "stateMutability": "nonpayable",
      "type": "function"
    },
    {
      "constant": true,
      "inputs": [],
      "name": "getAllDealerApplications",
      "outputs": [
        {
          "internalType": "bytes32[]",
          "name": "",
          "type": "bytes32[]"
        }
      ],
      "payable": false,
      "stateMutability": "view",
      "type": "function"
    },
    {
      "constant": false,
      "inputs": [
        {
          "internalType": "bytes32",
          "name": "adr",
          "type": "bytes32"
        }
      ],
      "name": "approveApplication",
      "outputs": [],
      "payable": false,
      "stateMutability": "nonpayable",
      "type": "function"
    },
    {
      "constant": true,
      "inputs": [
        {
          "internalType": "bytes32",
          "name": "adr",
          "type": "bytes32"
        }
      ],
      "name": "isVerified",
      "outputs": [
        {
          "internalType": "bool",
          "name": "",
          "type": "bool"
        }
      ],
      "payable": false,
      "stateMutability": "view",
      "type": "function"
    },
    {
      "constant": false,
      "inputs": [
        {
          "internalType": "bytes32",
          "name": "dealerId",
          "type": "bytes32"
        },
        {
          "internalType": "bytes32",
          "name": "adr",
          "type": "bytes32"
        }
      ],
      "name": "addDealerEmployee",
      "outputs": [],
      "payable": false,
      "stateMutability": "nonpayable",
      "type": "function"
    }
  ],
  "bytecode": "0x6080604052600080546001600160a01b03191633179055611db3806100256000396000f3fe608060405234801561001057600080fd5b50600436106100a95760003560e01c80637d17f13c116100715780637d17f13c146101255780637e41667f1461014557806382d7afbd1461015a5780638da5cb5b1461016d578063c181b27314610182578063e445268c146101a2576100a9565b806307681038146100ae5780631b8f47fe146100c35780632d4afc7b146100d65780634fb2e45d146100e95780635b6beeb9146100fc575b600080fd5b6100c16100bc366004611723565b6101b5565b005b6100c16100d1366004611679565b6103b2565b6100c16100e4366004611723565b610443565b6100c16100f7366004611653565b6105b8565b61010f61010a3660046116ef565b610604565b60405161011c9190611be6565b60405180910390f35b610138610133366004611679565b61067b565b60405161011c9190611c44565b61014d610dd5565b60405161011c9190611bc7565b6100c16101683660046116b5565b610e59565b610175610f5b565b60405161011c9190611bb9565b610195610190366004611679565b610f6a565b60405161011c9190611bd8565b6100c16101b03660046116b5565b610f97565b60008181526001602052604090205460ff16156101ed5760405162461bcd60e51b81526004016101e490611c34565b60405180910390fd5b6000818152600460209081526040909120835180518593610212928492910190611068565b50602082810151805161022b9260018501920190611068565b5060408201518051610247916002840191602090910190611068565b5060608201518051610263916003840191602090910190611068565b506080820151805161027f916004840191602090910190611068565b5060a0820151805161029b916005840191602090910190611068565b5060c082015180516102b7916006840191602090910190611068565b5060e082015180516102d3916007840191602090910190611068565b5061010082015180516102f0916008840191602090910190611068565b50610120820151805161030d9160098401916020909101906110e6565b50610140820151805161032a91600a84019160209091019061113f565b50905050600061033982611022565b121561037557600580546001810182556000919091527f036b6384b5eca791c62761152d0c79bb0604c104a5fb6f4eb0703f3154bb3db0018190555b7f42ab459ad3144922283159073eea05ed3ff810ab23fc94bbad43d99b9332dbb282826040516103a6929190611c55565b60405180910390a15050565b6000546001600160a01b031633146103dc5760405162461bcd60e51b81526004016101e490611c24565b60006103e782611022565b9050600081121561040a5760405162461bcd60e51b81526004016101e490611c14565b6000828152600160208190526040909120805460ff19169091179055600580548290811061043457fe5b60009182526020822001555050565b600081815260016020526040902054819060ff166104735760405162461bcd60e51b81526004016101e490611c04565b6000828152600460209081526040909120845180518693610498928492910190611068565b5060208281015180516104b19260018501920190611068565b50604082015180516104cd916002840191602090910190611068565b50606082015180516104e9916003840191602090910190611068565b5060808201518051610505916004840191602090910190611068565b5060a08201518051610521916005840191602090910190611068565b5060c0820151805161053d916006840191602090910190611068565b5060e08201518051610559916007840191602090910190611068565b506101008201518051610576916008840191602090910190611068565b5061012082015180516105939160098401916020909101906110e6565b5061014082015180516105b091600a84019160209091019061113f565b505050505050565b6000546001600160a01b031633146105e25760405162461bcd60e51b81526004016101e490611c24565b600080546001600160a01b0319166001600160a01b0392909216919091179055565b60006002826040516020016106199190611bad565b60408051601f198184030181529082905261063391611bad565b602060405180830381855afa158015610650573d6000803e3d6000fd5b5050506040513d601f19601f820116820180604052506106739190810190611697565b90505b919050565b610683611198565b6000828152600460209081526040918290208251815460026001821615610100026000190190911604601f8101849004909302810161018090810190945261016081018381529093919284928491908401828280156107235780601f106106f857610100808354040283529160200191610723565b820191906000526020600020905b81548152906001019060200180831161070657829003601f168201915b50505050508152602001600182018054600181600116156101000203166002900480601f0160208091040260200160405190810160405280929190818152602001828054600181600116156101000203166002900480156107c55780601f1061079a576101008083540402835291602001916107c5565b820191906000526020600020905b8154815290600101906020018083116107a857829003601f168201915b5050509183525050600282810180546040805160206001841615610100026000190190931694909404601f810183900483028501830190915280845293810193908301828280156108575780601f1061082c57610100808354040283529160200191610857565b820191906000526020600020905b81548152906001019060200180831161083a57829003601f168201915b505050918352505060038201805460408051602060026001851615610100026000190190941693909304601f81018490048402820184019092528181529382019392918301828280156108eb5780601f106108c0576101008083540402835291602001916108eb565b820191906000526020600020905b8154815290600101906020018083116108ce57829003601f168201915b505050918352505060048201805460408051602060026001851615610100026000190190941693909304601f810184900484028201840190925281815293820193929183018282801561097f5780601f106109545761010080835404028352916020019161097f565b820191906000526020600020905b81548152906001019060200180831161096257829003601f168201915b505050918352505060058201805460408051602060026001851615610100026000190190941693909304601f8101849004840282018401909252818152938201939291830182828015610a135780601f106109e857610100808354040283529160200191610a13565b820191906000526020600020905b8154815290600101906020018083116109f657829003601f168201915b505050918352505060068201805460408051602060026001851615610100026000190190941693909304601f8101849004840282018401909252818152938201939291830182828015610aa75780601f10610a7c57610100808354040283529160200191610aa7565b820191906000526020600020905b815481529060010190602001808311610a8a57829003601f168201915b505050918352505060078201805460408051602060026001851615610100026000190190941693909304601f8101849004840282018401909252818152938201939291830182828015610b3b5780601f10610b1057610100808354040283529160200191610b3b565b820191906000526020600020905b815481529060010190602001808311610b1e57829003601f168201915b505050918352505060088201805460408051602060026001851615610100026000190190941693909304601f8101849004840282018401909252818152938201939291830182828015610bcf5780601f10610ba457610100808354040283529160200191610bcf565b820191906000526020600020905b815481529060010190602001808311610bb257829003601f168201915b5050505050815260200160098201805480602002602001604051908101604052809291908181526020016000905b82821015610ca85760008481526020908190208301805460408051601f6002600019610100600187161502019094169390930492830185900485028101850190915281815292830182828015610c945780601f10610c6957610100808354040283529160200191610c94565b820191906000526020600020905b815481529060010190602001808311610c7757829003601f168201915b505050505081526020019060010190610bfd565b505050508152602001600a8201805480602002602001604051908101604052809291908181526020016000905b82821015610dc757838290600052602060002001805480602002602001604051908101604052809291908181526020016000905b82821015610db45760008481526020908190208301805460408051601f6002600019610100600187161502019094169390930492830185900485028101850190915281815292830182828015610da05780601f10610d7557610100808354040283529160200191610da0565b820191906000526020600020905b815481529060010190602001808311610d8357829003601f168201915b505050505081526020019060010190610d09565b5050505081526020019060010190610cd5565b505050915250909392505050565b6000546060906001600160a01b03163314610e025760405162461bcd60e51b81526004016101e490611c24565b6005805480602002602001604051908101604052809291908181526020018280548015610e4e57602002820191906000526020600020905b815481526020019060010190808311610e3a575b505050505090505b90565b600082815260016020526040902054829060ff16610e895760405162461bcd60e51b81526004016101e490611c04565b6000828152600160208181526040808420805460ff1990811690941790558684528084208054909316909255848352600381528183208390558583526002905280822084835291208154610edd92906111f2565b506000838152600260205260408120610ef591611232565b60005b600083815260026020526040902054811015610f55578260036000600260008781526020019081526020016000208481548110610f3157fe5b60009182526020808320909101548352820192909252604001902055600101610ef8565b50505050565b6000546001600160a01b031681565b60008181526001602052604081205460ff1680610673575050600090815260036020526040902054151590565b600082815260016020526040902054829060ff16610fc75760405162461bcd60e51b81526004016101e490611c04565b60008281526003602052604090205415610ff35760405162461bcd60e51b81526004016101e490611bf4565b506000828152600260209081526040808320805460018101825590845282842001849055928252600390522055565b6000805b60055481101561105e57826005828154811061103e57fe5b90600052602060002001541415611056579050610676565b600101611026565b5060001992915050565b828054600181600116156101000203166002900490600052602060002090601f016020900481019282601f106110a957805160ff19168380011785556110d6565b828001600101855582156110d6579182015b828111156110d65782518255916020019190600101906110bb565b506110e2929150611253565b5090565b828054828255906000526020600020908101928215611133579160200282015b828111156111335782518051611123918491602090910190611068565b5091602001919060010190611106565b506110e292915061126d565b82805482825590600052602060002090810192821561118c579160200282015b8281111561118c578251805161117c9184916020909101906110e6565b509160200191906001019061115f565b506110e2929150611290565b60405180610160016040528060608152602001606081526020016060815260200160608152602001606081526020016060815260200160608152602001606081526020016060815260200160608152602001606081525090565b8280548282559060005260206000209081019282156110d65760005260206000209182015b828111156110d6578254825591600101919060010190611217565b50805460008255906000526020600020908101906112509190611253565b50565b610e5691905b808211156110e25760008155600101611259565b610e5691905b808211156110e257600061128782826112b3565b50600101611273565b610e5691905b808211156110e25760006112aa82826112f7565b50600101611296565b50805460018160011615610100020316600290046000825580601f106112d95750611250565b601f0160209004906000526020600020908101906112509190611253565b5080546000825590600052602060002090810190611250919061126d565b803561132081611d53565b92915050565b600082601f83011261133757600080fd5b813561134a61134582611c9b565b611c75565b81815260209384019390925082018360005b8381101561138857813586016113728882611392565b845250602092830192919091019060010161135c565b5050505092915050565b600082601f8301126113a357600080fd5b81356113b161134582611c9b565b81815260209384019390925082018360005b8381101561138857813586016113d98882611405565b84525060209283019291909101906001016113c3565b803561132081611d67565b805161132081611d67565b600082601f83011261141657600080fd5b813561142461134582611cbb565b9150808252602083016020830185838301111561144057600080fd5b61144b838284611d11565b50505092915050565b6000610160828403121561146757600080fd5b611472610160611c75565b905081356001600160401b0381111561148a57600080fd5b61149684828501611405565b82525060208201356001600160401b038111156114b257600080fd5b6114be84828501611405565b60208301525060408201356001600160401b038111156114dd57600080fd5b6114e984828501611405565b60408301525060608201356001600160401b0381111561150857600080fd5b61151484828501611405565b60608301525060808201356001600160401b0381111561153357600080fd5b61153f84828501611405565b60808301525060a08201356001600160401b0381111561155e57600080fd5b61156a84828501611405565b60a08301525060c08201356001600160401b0381111561158957600080fd5b61159584828501611405565b60c08301525060e08201356001600160401b038111156115b457600080fd5b6115c084828501611405565b60e0830152506101008201356001600160401b038111156115e057600080fd5b6115ec84828501611405565b610100830152506101208201356001600160401b0381111561160d57600080fd5b61161984828501611392565b610120830152506101408201356001600160401b0381111561163a57600080fd5b61164684828501611326565b6101408301525092915050565b60006020828403121561166557600080fd5b60006116718484611315565b949350505050565b60006020828403121561168b57600080fd5b600061167184846113ef565b6000602082840312156116a957600080fd5b600061167184846113fa565b600080604083850312156116c857600080fd5b60006116d485856113ef565b92505060206116e5858286016113ef565b9150509250929050565b60006020828403121561170157600080fd5b81356001600160401b0381111561171757600080fd5b61167184828501611405565b6000806040838503121561173657600080fd5b82356001600160401b0381111561174c57600080fd5b6116d485828601611454565b60006117648383611861565b9392505050565b600061177783836118cb565b505060200190565b60006117648383611903565b61179481611cf5565b82525050565b60006117a582611ce8565b6117af8185611cec565b9350836020820285016117c185611ce2565b8060005b858110156117fb57848403895281516117de8582611758565b94506117e983611ce2565b60209a909a01999250506001016117c5565b5091979650505050505050565b600061181382611ce8565b61181d8185611cec565b935061182883611ce2565b8060005b83811015611856578151611840888261176b565b975061184b83611ce2565b92505060010161182c565b509495945050505050565b600061186c82611ce8565b6118768185611cec565b93508360208202850161188885611ce2565b8060005b858110156117fb57848403895281516118a5858261177f565b94506118b083611ce2565b60209a909a019992505060010161188c565b61179481611d00565b61179481610e56565b60006118df82611ce8565b6118e98185610676565b93506118f9818560208601611d1d565b9290920192915050565b600061190e82611ce8565b6119188185611cec565b9350611928818560208601611d1d565b61193181611d49565b9093019392505050565b6000611948602183611cec565b7f5468617420656d706c6f79656520616c726561647920776f726b7320746865728152606560f81b602082015260400192915050565b600061198b602983611cec565b7f596f75206d7573742062652061206465616c657273686970206f776e657220748152686f20646f207468697360b81b602082015260400192915050565b60006119d6602183611cec565b7f4e6f206170706c69636174696f6e2065786973747320666f72207468617420698152601960fa1b602082015260400192915050565b6000611a19601583611cec565b742cb7ba9030b932903737ba103a34329037bbb732b960591b815260200192915050565b6000611a4a602283611cec565b7f54686174206164647265737320697320616c7265616479207265676973746572815261195960f21b602082015260400192915050565b805161016080845260009190840190611a9a8282611903565b91505060208301518482036020860152611ab48282611903565b91505060408301518482036040860152611ace8282611903565b91505060608301518482036060860152611ae88282611903565b91505060808301518482036080860152611b028282611903565b91505060a083015184820360a0860152611b1c8282611903565b91505060c083015184820360c0860152611b368282611903565b91505060e083015184820360e0860152611b508282611903565b915050610100830151848203610100860152611b6c8282611903565b915050610120830151848203610120860152611b888282611861565b915050610140830151848203610140860152611ba4828261179a565b95945050505050565b600061176482846118d4565b60208101611320828461178b565b602080825281016117648184611808565b6020810161132082846118c2565b6020810161132082846118cb565b602080825281016106738161193b565b602080825281016106738161197e565b60208082528101610673816119c9565b6020808252810161067381611a0c565b6020808252810161067381611a3d565b602080825281016117648184611a81565b60408082528101611c668185611a81565b905061176460208301846118cb565b6040518181016001600160401b0381118282101715611c9357600080fd5b604052919050565b60006001600160401b03821115611cb157600080fd5b5060209081020190565b60006001600160401b03821115611cd157600080fd5b506020601f91909101601f19160190565b60200190565b5190565b90815260200190565b600061067382611d05565b151590565b6001600160a01b031690565b82818337506000910152565b60005b83811015611d38578181015183820152602001611d20565b83811115610f555750506000910152565b601f01601f191690565b611d5c81611cf5565b811461125057600080fd5b611d5c81610e5656fea365627a7a723158208010cbe664b76a497fce2a9d8c645f04dca9180920f04fcb8b109b490e1304fb6c6578706572696d656e74616cf564736f6c634300050c0040",
  "source": "pragma solidity ^0.5.11;\npragma experimental ABIEncoderV2;\n\nimport \"./Ownable.sol\";\n\ncontract DealerContract is Ownable {\n\n\n    event CreateDealerApplication(DealerInfo info, bytes32 id);\n\n    struct DealerInfo{\n        string dealerName;\n        string firstName;\n        string lastName;\n        string addr;\n        string location;\n        string phoneNo;\n        string bestSeller;\n        string promotion;\n        string otherServices;\n        string[] availableServices;\n        string[][] availableSubServices;\n    }\n\n    mapping(bytes32 => bool) verifiedDealers;\n    mapping(bytes32 => bytes32[]) private dealerToEmployees;\n    mapping(bytes32 => bytes32) private employeeToDealer;\n\n\n    modifier verified(bytes32 dealerId) {\n        require(isVerified(dealerId),\"You must be a verified dealer to do this\");\n        _;\n    }\n\n    modifier dealershipOwner(bytes32 dealerId){\n        require(verifiedDealers[dealerId],\"You must be a dealership owner to do this\");\n        _;\n    }\n\n    mapping(bytes32 => DealerInfo) private dealerInfoMap;\n    bytes32[] dealerApplications;\n\n    //Function for dealer to create new application\n    function createDealerApplication(DealerInfo memory info, bytes32 id) public {\n        require(!verifiedDealers[id],\"That address is already registered\");\n        dealerInfoMap[id] = info;\n        if(getApplicationIndex(id) < 0){\n            dealerApplications.push(id);\n        }\n        emit CreateDealerApplication(info, id);\n    }\n\n    function editDealerInfo(DealerInfo memory info, bytes32 id) public dealershipOwner(id) {\n        dealerInfoMap[id] = info;\n    }\n\n    function getDealerInfo(bytes32 id) public view returns(DealerInfo memory) {\n        return dealerInfoMap[id];\n    }\n\n    //Transfer dealership owner to another id\n    function transferDealershipOwner(bytes32 dealershipId, bytes32 otherId) public dealershipOwner(dealershipId){\n        verifiedDealers[otherId] = true;\n        verifiedDealers[dealershipId] = false;\n        employeeToDealer[otherId] = 0;\n        dealerToEmployees[otherId] = dealerToEmployees[dealershipId];\n        delete dealerToEmployees[dealershipId];\n        for(uint i = 0; i < dealerToEmployees[otherId].length; i++){\n            employeeToDealer[dealerToEmployees[otherId][i]] = otherId;\n        }\n    }\n\n    //Get all current dealer applications\n    function getAllDealerApplications() public view ownerOnly returns (bytes32[] memory){\n        return dealerApplications;\n    }\n\n    function getApplicationIndex(bytes32 id) internal view returns (int) {\n        for(uint i = 0; i < dealerApplications.length; i++) {\n            if(dealerApplications[i] == id){\n                return int(i);\n            }\n        }\n        return -1;\n    }\n\n    //Approve a dealer application. Rejected if no application exists\n    function approveApplication(bytes32 adr) public ownerOnly {\n        int i = getApplicationIndex(adr);\n        require(i >= 0,\"No application exists for that id\");\n        verifiedDealers[adr] = true;\n        delete dealerApplications[uint(i)];\n    }\n\n    //Function to see if a dealer is verified or works for a dealership\n    function isVerified(bytes32 adr) public view returns (bool) {\n        return verifiedDealers[adr] || employeeToDealer[adr] != 0;\n    }\n\n    //Add employee to dealership who will have access to verified() functions\n    function addDealerEmployee(bytes32 dealerId, bytes32 adr) public dealershipOwner(dealerId) {\n        require(employeeToDealer[adr] == 0,\"That employee already works there\");\n        dealerToEmployees[dealerId].push(adr);\n        employeeToDealer[adr] = dealerId;\n    }\n\n}\n",
  "sourcePath": "/Users/natwit/repos/blockchain-project-2019/contracts/DealerContract.sol",
  "compiler": {
    "name": "solc",
    "version": "0.5.12+commit.7709ece9.Emscripten.clang"
  },
  "schemaVersion": "3.0.19",
  "updatedAt": "2019-11-28T13:51:01.740Z",
  "networkType": "ethereum",
  "devdoc": {
    "methods": {}
  },
  "userdoc": {
    "methods": {}
  }
}