{
  "contractName": "DealerContract",
  "abi": [
    {
      "constant": true,
      "inputs": [
        {
          "internalType": "string",
          "name": "id",
          "type": "string"
        }
      ],
      "name": "getHash",
      "outputs": [
        {
          "internalType": "bytes32",
          "name": "",
          "type": "bytes32"
        }
      ],
      "payable": false,
      "stateMutability": "pure",
      "type": "function"
    },
    {
      "constant": false,
      "inputs": [
        {
          "internalType": "address",
          "name": "newOwner",
          "type": "address"
        }
      ],
      "name": "transferOwner",
      "outputs": [],
      "payable": false,
      "stateMutability": "nonpayable",
      "type": "function"
    },
    {
      "constant": false,
      "inputs": [
        {
          "components": [
            {
              "internalType": "string",
              "name": "dealerName",
              "type": "string"
            },
            {
              "internalType": "string",
              "name": "addr",
              "type": "string"
            },
            {
              "internalType": "string",
              "name": "location",
              "type": "string"
            },
            {
              "internalType": "string",
              "name": "phoneNo",
              "type": "string"
            },
            {
              "internalType": "string[]",
              "name": "availableServices",
              "type": "string[]"
            },
            {
              "internalType": "string[][]",
              "name": "availableSubServices",
              "type": "string[][]"
            }
          ],
          "internalType": "struct DealerContract.DealerInfo",
          "name": "info",
          "type": "tuple"
        },
        {
          "internalType": "bytes32",
          "name": "id",
          "type": "bytes32"
        }
      ],
      "name": "createDealerApplication",
      "outputs": [],
      "payable": false,
      "stateMutability": "nonpayable",
      "type": "function"
    },
    {
      "constant": false,
      "inputs": [
        {
          "components": [
            {
              "internalType": "string",
              "name": "dealerName",
              "type": "string"
            },
            {
              "internalType": "string",
              "name": "addr",
              "type": "string"
            },
            {
              "internalType": "string",
              "name": "location",
              "type": "string"
            },
            {
              "internalType": "string",
              "name": "phoneNo",
              "type": "string"
            },
            {
              "internalType": "string[]",
              "name": "availableServices",
              "type": "string[]"
            },
            {
              "internalType": "string[][]",
              "name": "availableSubServices",
              "type": "string[][]"
            }
          ],
          "internalType": "struct DealerContract.DealerInfo",
          "name": "info",
          "type": "tuple"
        },
        {
          "internalType": "bytes32",
          "name": "id",
          "type": "bytes32"
        }
      ],
      "name": "editDealerInfo",
      "outputs": [],
      "payable": false,
      "stateMutability": "nonpayable",
      "type": "function"
    },
    {
      "constant": true,
      "inputs": [
        {
          "internalType": "bytes32",
          "name": "id",
          "type": "bytes32"
        }
      ],
      "name": "getDealerInfo",
      "outputs": [
        {
          "components": [
            {
              "internalType": "string",
              "name": "dealerName",
              "type": "string"
            },
            {
              "internalType": "string",
              "name": "addr",
              "type": "string"
            },
            {
              "internalType": "string",
              "name": "location",
              "type": "string"
            },
            {
              "internalType": "string",
              "name": "phoneNo",
              "type": "string"
            },
            {
              "internalType": "string[]",
              "name": "availableServices",
              "type": "string[]"
            },
            {
              "internalType": "string[][]",
              "name": "availableSubServices",
              "type": "string[][]"
            }
          ],
          "internalType": "struct DealerContract.DealerInfo",
          "name": "",
          "type": "tuple"
        }
      ],
      "payable": false,
      "stateMutability": "view",
      "type": "function"
    },
    {
      "constant": false,
      "inputs": [
        {
          "internalType": "bytes32",
          "name": "dealershipId",
          "type": "bytes32"
        },
        {
          "internalType": "bytes32",
          "name": "otherId",
          "type": "bytes32"
        }
      ],
      "name": "transferDealershipOwner",
      "outputs": [],
      "payable": false,
      "stateMutability": "nonpayable",
      "type": "function"
    },
    {
      "constant": true,
      "inputs": [],
      "name": "getAllDealerApplications",
      "outputs": [
        {
          "internalType": "bytes32[]",
          "name": "",
          "type": "bytes32[]"
        }
      ],
      "payable": false,
      "stateMutability": "view",
      "type": "function"
    },
    {
      "constant": false,
      "inputs": [
        {
          "internalType": "bytes32",
          "name": "adr",
          "type": "bytes32"
        }
      ],
      "name": "approveApplication",
      "outputs": [],
      "payable": false,
      "stateMutability": "nonpayable",
      "type": "function"
    },
    {
      "constant": true,
      "inputs": [
        {
          "internalType": "bytes32",
          "name": "adr",
          "type": "bytes32"
        }
      ],
      "name": "isVerified",
      "outputs": [
        {
          "internalType": "bool",
          "name": "",
          "type": "bool"
        }
      ],
      "payable": false,
      "stateMutability": "view",
      "type": "function"
    },
    {
      "constant": false,
      "inputs": [
        {
          "internalType": "bytes32",
          "name": "dealerId",
          "type": "bytes32"
        },
        {
          "internalType": "bytes32",
          "name": "adr",
          "type": "bytes32"
        }
      ],
      "name": "addDealerEmployee",
      "outputs": [],
      "payable": false,
      "stateMutability": "nonpayable",
      "type": "function"
    }
  ],
  "bytecode": "0x6080604052336000806101000a81548173ffffffffffffffffffffffffffffffffffffffff021916908373ffffffffffffffffffffffffffffffffffffffff16021790555061204f806100536000396000f3fe608060405234801561001057600080fd5b506004361061009e5760003560e01c806382d7afbd1161006657806382d7afbd1461015957806390f3d74414610175578063ba2ab17d14610191578063c181b273146101ad578063e445268c146101dd5761009e565b80631b8f47fe146100a35780634fb2e45d146100bf5780635b6beeb9146100db5780637d17f13c1461010b5780637e41667f1461013b575b600080fd5b6100bd60048036036100b8919081019061162b565b6101f9565b005b6100d960048036036100d49190810190611602565b610323565b005b6100f560048036036100f091908101906116b9565b6103f5565b6040516101029190611c8d565b60405180910390f35b6101256004803603610120919081019061162b565b61046d565b6040516101329190611d48565b60405180910390f35b61014361093b565b6040516101509190611c50565b60405180910390f35b610173600480360361016e919081019061167d565b610a22565b005b61018f600480360361018a91908101906116fa565b610bc0565b005b6101ab60048036036101a691908101906116fa565b610ceb565b005b6101c760048036036101c2919081019061162b565b610e41565b6040516101d49190611c72565b60405180910390f35b6101f760048036036101f2919081019061167d565b610e8c565b005b6000809054906101000a900473ffffffffffffffffffffffffffffffffffffffff1673ffffffffffffffffffffffffffffffffffffffff163373ffffffffffffffffffffffffffffffffffffffff1614610288576040517f08c379a000000000000000000000000000000000000000000000000000000000815260040161027f90611d08565b60405180910390fd5b600061029382610f9f565b905060008112156102d9576040517f08c379a00000000000000000000000000000000000000000000000000000000081526004016102d090611ce8565b60405180910390fd5b600180600084815260200190815260200160002060006101000a81548160ff0219169083151502179055506005818154811061031157fe5b90600052602060002001600090555050565b6000809054906101000a900473ffffffffffffffffffffffffffffffffffffffff1673ffffffffffffffffffffffffffffffffffffffff163373ffffffffffffffffffffffffffffffffffffffff16146103b2576040517f08c379a00000000000000000000000000000000000000000000000000000000081526004016103a990611d08565b60405180910390fd5b806000806101000a81548173ffffffffffffffffffffffffffffffffffffffff021916908373ffffffffffffffffffffffffffffffffffffffff16021790555050565b600060028260405160200161040a9190611c39565b6040516020818303038152906040526040516104269190611c22565b602060405180830381855afa158015610443573d6000803e3d6000fd5b5050506040513d601f19601f820116820180604052506104669190810190611654565b9050919050565b610475611013565b600460008381526020019081526020016000206040518060c0016040529081600082018054600181600116156101000203166002900480601f01602080910402602001604051908101604052809291908181526020018280546001816001161561010002031660029004801561052c5780601f106105015761010080835404028352916020019161052c565b820191906000526020600020905b81548152906001019060200180831161050f57829003601f168201915b50505050508152602001600182018054600181600116156101000203166002900480601f0160208091040260200160405190810160405280929190818152602001828054600181600116156101000203166002900480156105ce5780601f106105a3576101008083540402835291602001916105ce565b820191906000526020600020905b8154815290600101906020018083116105b157829003601f168201915b50505050508152602001600282018054600181600116156101000203166002900480601f0160208091040260200160405190810160405280929190818152602001828054600181600116156101000203166002900480156106705780601f1061064557610100808354040283529160200191610670565b820191906000526020600020905b81548152906001019060200180831161065357829003601f168201915b50505050508152602001600382018054600181600116156101000203166002900480601f0160208091040260200160405190810160405280929190818152602001828054600181600116156101000203166002900480156107125780601f106106e757610100808354040283529160200191610712565b820191906000526020600020905b8154815290600101906020018083116106f557829003601f168201915b5050505050815260200160048201805480602002602001604051908101604052809291908181526020016000905b828210156107fc578382906000526020600020018054600181600116156101000203166002900480601f0160208091040260200160405190810160405280929190818152602001828054600181600116156101000203166002900480156107e85780601f106107bd576101008083540402835291602001916107e8565b820191906000526020600020905b8154815290600101906020018083116107cb57829003601f168201915b505050505081526020019060010190610740565b50505050815260200160058201805480602002602001604051908101604052809291908181526020016000905b8282101561092c57838290600052602060002001805480602002602001604051908101604052809291908181526020016000905b82821015610919578382906000526020600020018054600181600116156101000203166002900480601f0160208091040260200160405190810160405280929190818152602001828054600181600116156101000203166002900480156109055780601f106108da57610100808354040283529160200191610905565b820191906000526020600020905b8154815290600101906020018083116108e857829003601f168201915b50505050508152602001906001019061085d565b5050505081526020019060010190610829565b50505050815250509050919050565b60606000809054906101000a900473ffffffffffffffffffffffffffffffffffffffff1673ffffffffffffffffffffffffffffffffffffffff163373ffffffffffffffffffffffffffffffffffffffff16146109cc576040517f08c379a00000000000000000000000000000000000000000000000000000000081526004016109c390611d08565b60405180910390fd5b6005805480602002602001604051908101604052809291908181526020018280548015610a1857602002820191906000526020600020905b815481526020019060010190808311610a04575b5050505050905090565b816001600082815260200190815260200160002060009054906101000a900460ff16610a83576040517f08c379a0000000000000000000000000000000000000000000000000000000008152600401610a7a90611cc8565b60405180910390fd5b600180600084815260200190815260200160002060006101000a81548160ff02191690831515021790555060006001600085815260200190815260200160002060006101000a81548160ff0219169083151502179055506000801b60036000848152602001908152602001600020819055506002600084815260200190815260200160002060026000848152602001908152602001600020908054610b29929190611049565b50600260008481526020019081526020016000206000610b49919061109b565b60008090505b6002600084815260200190815260200160002080549050811015610bba578260036000600260008781526020019081526020016000208481548110610b9057fe5b90600052602060002001548152602001908152602001600020819055508080600101915050610b4f565b50505050565b806001600082815260200190815260200160002060009054906101000a900460ff16610c21576040517f08c379a0000000000000000000000000000000000000000000000000000000008152600401610c1890611cc8565b60405180910390fd5b82600460008481526020019081526020016000206000820151816000019080519060200190610c519291906110bc565b506020820151816001019080519060200190610c6e9291906110bc565b506040820151816002019080519060200190610c8b9291906110bc565b506060820151816003019080519060200190610ca89291906110bc565b506080820151816004019080519060200190610cc592919061113c565b5060a0820151816005019080519060200190610ce292919061119c565b50905050505050565b6001600082815260200190815260200160002060009054906101000a900460ff1615610d4c576040517f08c379a0000000000000000000000000000000000000000000000000000000008152600401610d4390611d28565b60405180910390fd5b81600460008381526020019081526020016000206000820151816000019080519060200190610d7c9291906110bc565b506020820151816001019080519060200190610d999291906110bc565b506040820151816002019080519060200190610db69291906110bc565b506060820151816003019080519060200190610dd39291906110bc565b506080820151816004019080519060200190610df092919061113c565b5060a0820151816005019080519060200190610e0d92919061119c565b5090505060058190806001815401808255809150509060018203906000526020600020016000909192909190915055505050565b60006001600083815260200190815260200160002060009054906101000a900460ff1680610e8557506000801b600360008481526020019081526020016000205414155b9050919050565b816001600082815260200190815260200160002060009054906101000a900460ff16610eed576040517f08c379a0000000000000000000000000000000000000000000000000000000008152600401610ee490611cc8565b60405180910390fd5b6000801b600360008481526020019081526020016000205414610f45576040517f08c379a0000000000000000000000000000000000000000000000000000000008152600401610f3c90611ca8565b60405180910390fd5b60026000848152602001908152602001600020829080600181540180825580915050906001820390600052602060002001600090919290919091505550826003600084815260200190815260200160002081905550505050565b600080600090505b600580549050811015610fe9578260058281548110610fc257fe5b90600052602060002001541415610fdc578091505061100e565b8080600101915050610fa7565b507fffffffffffffffffffffffffffffffffffffffffffffffffffffffffffffffff90505b919050565b6040518060c001604052806060815260200160608152602001606081526020016060815260200160608152602001606081525090565b82805482825590600052602060002090810192821561108a5760005260206000209182015b8281111561108957825482559160010191906001019061106e565b5b50905061109791906111fc565b5090565b50805460008255906000526020600020908101906110b991906111fc565b50565b828054600181600116156101000203166002900490600052602060002090601f016020900481019282601f106110fd57805160ff191683800117855561112b565b8280016001018555821561112b579182015b8281111561112a57825182559160200191906001019061110f565b5b5090506111389190611221565b5090565b82805482825590600052602060002090810192821561118b579160200282015b8281111561118a57825182908051906020019061117a9291906110bc565b509160200191906001019061115c565b5b5090506111989190611246565b5090565b8280548282559060005260206000209081019282156111eb579160200282015b828111156111ea5782518290805190602001906111da92919061113c565b50916020019190600101906111bc565b5b5090506111f89190611272565b5090565b61121e91905b8082111561121a576000816000905550600101611202565b5090565b90565b61124391905b8082111561123f576000816000905550600101611227565b5090565b90565b61126f91905b8082111561126b5760008181611262919061129e565b5060010161124c565b5090565b90565b61129b91905b80821115611297576000818161128e91906112e6565b50600101611278565b5090565b90565b50805460018160011615610100020316600290046000825580601f106112c457506112e3565b601f0160209004906000526020600020908101906112e29190611221565b5b50565b50805460008255906000526020600020908101906113049190611246565b50565b60008135905061131681611fde565b92915050565b600082601f83011261132d57600080fd5b813561134061133b82611d97565b611d6a565b9150818183526020840193506020810190508360005b83811015611386578135860161136c8882611390565b845260208401935060208301925050600181019050611356565b5050505092915050565b600082601f8301126113a157600080fd5b81356113b46113af82611dbf565b611d6a565b9150818183526020840193506020810190508360005b838110156113fa57813586016113e0888261142e565b8452602084019350602083019250506001810190506113ca565b5050505092915050565b60008135905061141381611ff5565b92915050565b60008151905061142881611ff5565b92915050565b600082601f83011261143f57600080fd5b813561145261144d82611de7565b611d6a565b9150808252602083016020830185838301111561146e57600080fd5b611479838284611f8b565b50505092915050565b600082601f83011261149357600080fd5b81356114a66114a182611e13565b611d6a565b915080825260208301602083018583830111156114c257600080fd5b6114cd838284611f8b565b50505092915050565b600060c082840312156114e857600080fd5b6114f260c0611d6a565b9050600082013567ffffffffffffffff81111561150e57600080fd5b61151a8482850161142e565b600083015250602082013567ffffffffffffffff81111561153a57600080fd5b6115468482850161142e565b602083015250604082013567ffffffffffffffff81111561156657600080fd5b6115728482850161142e565b604083015250606082013567ffffffffffffffff81111561159257600080fd5b61159e8482850161142e565b606083015250608082013567ffffffffffffffff8111156115be57600080fd5b6115ca84828501611390565b60808301525060a082013567ffffffffffffffff8111156115ea57600080fd5b6115f68482850161131c565b60a08301525092915050565b60006020828403121561161457600080fd5b600061162284828501611307565b91505092915050565b60006020828403121561163d57600080fd5b600061164b84828501611404565b91505092915050565b60006020828403121561166657600080fd5b600061167484828501611419565b91505092915050565b6000806040838503121561169057600080fd5b600061169e85828601611404565b92505060206116af85828601611404565b9150509250929050565b6000602082840312156116cb57600080fd5b600082013567ffffffffffffffff8111156116e557600080fd5b6116f184828501611482565b91505092915050565b6000806040838503121561170d57600080fd5b600083013567ffffffffffffffff81111561172757600080fd5b611733858286016114d6565b925050602061174485828601611404565b9150509250929050565b600061175a8383611861565b905092915050565b600061176e83836118e5565b60208301905092915050565b60006117868383611965565b905092915050565b600061179982611e6f565b6117a38185611ed8565b9350836020820285016117b585611e3f565b8060005b858110156117f157848403895281516117d2858261174e565b94506117dd83611eb1565b925060208a019950506001810190506117b9565b50829750879550505050505092915050565b600061180e82611e7a565b6118188185611ee9565b935061182383611e4f565b8060005b8381101561185457815161183b8882611762565b975061184683611ebe565b925050600181019050611827565b5085935050505092915050565b600061186c82611e85565b6118768185611efa565b93508360208202850161188885611e5f565b8060005b858110156118c457848403895281516118a5858261177a565b94506118b083611ecb565b925060208a0199505060018101905061188c565b50829750879550505050505092915050565b6118df81611f55565b82525050565b6118ee81611f61565b82525050565b6118fd81611f61565b82525050565b600061190e82611e90565b6119188185611f0b565b9350611928818560208601611f9a565b80840191505092915050565b600061193f82611ea6565b6119498185611f38565b9350611959818560208601611f9a565b80840191505092915050565b600061197082611e9b565b61197a8185611f16565b935061198a818560208601611f9a565b61199381611fcd565b840191505092915050565b60006119ab602183611f27565b91507f5468617420656d706c6f79656520616c726561647920776f726b73207468657260008301527f65000000000000000000000000000000000000000000000000000000000000006020830152604082019050919050565b6000611a11602983611f27565b91507f596f75206d7573742062652061206465616c657273686970206f776e6572207460008301527f6f20646f207468697300000000000000000000000000000000000000000000006020830152604082019050919050565b6000611a77602183611f27565b91507f4e6f206170706c69636174696f6e2065786973747320666f722074686174206960008301527f64000000000000000000000000000000000000000000000000000000000000006020830152604082019050919050565b6000611add601583611f27565b91507f596f7520617265206e6f7420746865206f776e657200000000000000000000006000830152602082019050919050565b6000611b1d602283611f27565b91507f54686174206164647265737320697320616c726561647920726567697374657260008301527f65640000000000000000000000000000000000000000000000000000000000006020830152604082019050919050565b600060c0830160008301518482036000860152611b938282611965565b91505060208301518482036020860152611bad8282611965565b91505060408301518482036040860152611bc78282611965565b91505060608301518482036060860152611be18282611965565b91505060808301518482036080860152611bfb8282611861565b91505060a083015184820360a0860152611c15828261178e565b9150508091505092915050565b6000611c2e8284611903565b915081905092915050565b6000611c458284611934565b915081905092915050565b60006020820190508181036000830152611c6a8184611803565b905092915050565b6000602082019050611c8760008301846118d6565b92915050565b6000602082019050611ca260008301846118f4565b92915050565b60006020820190508181036000830152611cc18161199e565b9050919050565b60006020820190508181036000830152611ce181611a04565b9050919050565b60006020820190508181036000830152611d0181611a6a565b9050919050565b60006020820190508181036000830152611d2181611ad0565b9050919050565b60006020820190508181036000830152611d4181611b10565b9050919050565b60006020820190508181036000830152611d628184611b76565b905092915050565b6000604051905081810181811067ffffffffffffffff82111715611d8d57600080fd5b8060405250919050565b600067ffffffffffffffff821115611dae57600080fd5b602082029050602081019050919050565b600067ffffffffffffffff821115611dd657600080fd5b602082029050602081019050919050565b600067ffffffffffffffff821115611dfe57600080fd5b601f19601f8301169050602081019050919050565b600067ffffffffffffffff821115611e2a57600080fd5b601f19601f8301169050602081019050919050565b6000819050602082019050919050565b6000819050602082019050919050565b6000819050602082019050919050565b600081519050919050565b600081519050919050565b600081519050919050565b600081519050919050565b600081519050919050565b600081519050919050565b6000602082019050919050565b6000602082019050919050565b6000602082019050919050565b600082825260208201905092915050565b600082825260208201905092915050565b600082825260208201905092915050565b600081905092915050565b600082825260208201905092915050565b600082825260208201905092915050565b600081905092915050565b6000611f4e82611f6b565b9050919050565b60008115159050919050565b6000819050919050565b600073ffffffffffffffffffffffffffffffffffffffff82169050919050565b82818337600083830152505050565b60005b83811015611fb8578082015181840152602081019050611f9d565b83811115611fc7576000848401525b50505050565b6000601f19601f8301169050919050565b611fe781611f43565b8114611ff257600080fd5b50565b611ffe81611f61565b811461200957600080fd5b5056fea365627a7a723158206d20855c1927bd636b1a7f53555750e64717232fe5a56a7579ec46941ed660296c6578706572696d656e74616cf564736f6c634300050c0040",
  "source": "pragma solidity ^0.5.11;\npragma experimental ABIEncoderV2;\n\nimport \"./Ownable.sol\";\n\ncontract DealerContract is Ownable {\n\n    struct DealerInfo{\n        string dealerName;\n        string addr;\n        string location;\n        string phoneNo;\n        string[] availableServices;\n        string[][] availableSubServices;\n    }\n\n    mapping(bytes32 => bool) verifiedDealers;\n    mapping(bytes32 => bytes32[]) private dealerToEmployees;\n    mapping(bytes32 => bytes32) private employeeToDealer;\n\n\n    modifier verified(bytes32 dealerId) {\n        require(isVerified(dealerId),\"You must be a verified dealer to do this\");\n        _;\n    }\n\n    modifier dealershipOwner(bytes32 dealerId){\n        require(verifiedDealers[dealerId],\"You must be a dealership owner to do this\");\n        _;\n    }\n\n    mapping(bytes32 => DealerInfo) private dealerInfoMap;\n    bytes32[] dealerApplications;\n\n    //Function for dealer to create new application\n    function createDealerApplication(DealerInfo memory info, bytes32 id) public{\n        require(!verifiedDealers[id],\"That address is already registered\");\n        dealerInfoMap[id] = info;\n        dealerApplications.push(id);\n    }\n\n    function editDealerInfo(DealerInfo memory info, bytes32 id) public dealershipOwner(id){\n        dealerInfoMap[id] = info;\n    }\n\n    function getDealerInfo(bytes32 id) public view returns(DealerInfo memory){\n        return dealerInfoMap[id];\n    }\n\n    //Transfer dealership owner to another id\n    function transferDealershipOwner(bytes32 dealershipId, bytes32 otherId) public dealershipOwner(dealershipId){\n        verifiedDealers[otherId] = true;\n        verifiedDealers[dealershipId] = false;\n        employeeToDealer[otherId] = 0;\n        dealerToEmployees[otherId] = dealerToEmployees[dealershipId];\n        delete dealerToEmployees[dealershipId];\n        for(uint i = 0; i < dealerToEmployees[otherId].length; i++){\n            employeeToDealer[dealerToEmployees[otherId][i]] = otherId;\n        }\n    }\n\n    //Get all current dealer applications\n    function getAllDealerApplications() public view ownerOnly returns (bytes32[] memory){\n        return dealerApplications;\n    }\n\n    function getApplicationIndex(bytes32 id) internal view returns (int) {\n        for(uint i = 0; i < dealerApplications.length; i++){\n            if(dealerApplications[i] == id){\n                return int(i);\n            }\n        }\n        return -1;\n    }\n\n    //Approve a dealer application. Rejected if no application exists\n    function approveApplication(bytes32 adr) public ownerOnly{\n        int i = getApplicationIndex(adr);\n        require(i >= 0,\"No application exists for that id\");\n        verifiedDealers[adr] = true;\n        delete dealerApplications[uint(i)];\n    }\n\n    //Function to see if a dealer is verified or works for a dealership\n    function isVerified(bytes32 adr) public view returns (bool) {\n        return verifiedDealers[adr] || employeeToDealer[adr] != 0;\n    }\n\n    //Add employee to dealership who will have access to verified() functions\n    function addDealerEmployee(bytes32 dealerId, bytes32 adr) public dealershipOwner(dealerId) {\n        require(employeeToDealer[adr] == 0,\"That employee already works there\");\n        dealerToEmployees[dealerId].push(adr);\n        employeeToDealer[adr] = dealerId;\n    }\n\n}\n",
  "sourcePath": "/Users/mapring/Documents/school/blockchain/blockchain-project-2019/contracts/DealerContract.sol",
  "compiler": {
    "name": "solc",
    "version": "0.5.12+commit.7709ece9.Emscripten.clang"
  },
  "schemaVersion": "3.0.19",
  "updatedAt": "2019-11-21T13:00:58.539Z",
  "networkType": "ethereum",
  "devdoc": {
    "methods": {}
  },
  "userdoc": {
    "methods": {}
  }
}