{
  "contractName": "NotificationHandler",
  "abi": [
    {
      "anonymous": false,
      "inputs": [
        {
          "components": [
            {
              "internalType": "string",
              "name": "dealerName",
              "type": "string"
            },
            {
              "internalType": "string",
              "name": "firstName",
              "type": "string"
            },
            {
              "internalType": "string",
              "name": "lastName",
              "type": "string"
            },
            {
              "internalType": "string",
              "name": "addr",
              "type": "string"
            },
            {
              "internalType": "string[2]",
              "name": "location",
              "type": "string[2]"
            },
            {
              "internalType": "string",
              "name": "phoneNo",
              "type": "string"
            },
            {
              "internalType": "string",
              "name": "bestSeller",
              "type": "string"
            },
            {
              "internalType": "string",
              "name": "promotion",
              "type": "string"
            },
            {
              "internalType": "string",
              "name": "otherServices",
              "type": "string"
            },
            {
              "internalType": "string[]",
              "name": "availableServices",
              "type": "string[]"
            },
            {
              "internalType": "string[][]",
              "name": "availableSubServices",
              "type": "string[][]"
            }
          ],
          "indexed": false,
          "internalType": "struct DealerContract.DealerInfo",
          "name": "info",
          "type": "tuple"
        },
        {
          "indexed": false,
          "internalType": "bytes32",
          "name": "id",
          "type": "bytes32"
        }
      ],
      "name": "CreateDealerApplication",
      "type": "event"
    },
    {
      "constant": false,
      "inputs": [
        {
          "internalType": "bytes32",
          "name": "dealerId",
          "type": "bytes32"
        },
        {
          "internalType": "bytes32",
          "name": "adr",
          "type": "bytes32"
        }
      ],
      "name": "addDealerEmployee",
      "outputs": [],
      "payable": false,
      "stateMutability": "nonpayable",
      "type": "function"
    },
    {
      "constant": false,
      "inputs": [
        {
          "internalType": "string",
          "name": "serviceName",
          "type": "string"
        }
      ],
      "name": "addService",
      "outputs": [],
      "payable": false,
      "stateMutability": "nonpayable",
      "type": "function"
    },
    {
      "constant": false,
      "inputs": [
        {
          "internalType": "string",
          "name": "serviceName",
          "type": "string"
        },
        {
          "internalType": "string",
          "name": "subServiceName",
          "type": "string"
        }
      ],
      "name": "addSubService",
      "outputs": [],
      "payable": false,
      "stateMutability": "nonpayable",
      "type": "function"
    },
    {
      "constant": false,
      "inputs": [
        {
          "internalType": "bytes32",
          "name": "adr",
          "type": "bytes32"
        }
      ],
      "name": "approveApplication",
      "outputs": [],
      "payable": false,
      "stateMutability": "nonpayable",
      "type": "function"
    },
    {
      "constant": false,
      "inputs": [
        {
          "components": [
            {
              "internalType": "bytes32",
              "name": "userId",
              "type": "bytes32"
            },
            {
              "internalType": "bytes32",
              "name": "dealerId",
              "type": "bytes32"
            },
            {
              "internalType": "string",
              "name": "carPlate",
              "type": "string"
            },
            {
              "internalType": "int256",
              "name": "time",
              "type": "int256"
            }
          ],
          "internalType": "struct AppointmentHandler.Appointment",
          "name": "appointment",
          "type": "tuple"
        }
      ],
      "name": "cancelAppointment",
      "outputs": [],
      "payable": false,
      "stateMutability": "nonpayable",
      "type": "function"
    },
    {
      "constant": false,
      "inputs": [
        {
          "components": [
            {
              "internalType": "bytes32",
              "name": "userId",
              "type": "bytes32"
            },
            {
              "internalType": "bytes32",
              "name": "dealerId",
              "type": "bytes32"
            },
            {
              "internalType": "string",
              "name": "carPlate",
              "type": "string"
            },
            {
              "internalType": "int256",
              "name": "time",
              "type": "int256"
            }
          ],
          "internalType": "struct AppointmentHandler.Appointment",
          "name": "appointment",
          "type": "tuple"
        }
      ],
      "name": "completeAppointment",
      "outputs": [],
      "payable": false,
      "stateMutability": "nonpayable",
      "type": "function"
    },
    {
      "constant": false,
      "inputs": [
        {
          "components": [
            {
              "internalType": "bytes32",
              "name": "userId",
              "type": "bytes32"
            },
            {
              "internalType": "bytes32",
              "name": "dealerId",
              "type": "bytes32"
            },
            {
              "internalType": "string",
              "name": "carPlate",
              "type": "string"
            },
            {
              "internalType": "int256",
              "name": "time",
              "type": "int256"
            }
          ],
          "internalType": "struct AppointmentHandler.Appointment",
          "name": "appointment",
          "type": "tuple"
        }
      ],
      "name": "createAppointment",
      "outputs": [],
      "payable": false,
      "stateMutability": "nonpayable",
      "type": "function"
    },
    {
      "constant": false,
      "inputs": [
        {
          "components": [
            {
              "internalType": "string",
              "name": "dealerName",
              "type": "string"
            },
            {
              "internalType": "string",
              "name": "firstName",
              "type": "string"
            },
            {
              "internalType": "string",
              "name": "lastName",
              "type": "string"
            },
            {
              "internalType": "string",
              "name": "addr",
              "type": "string"
            },
            {
              "internalType": "string[2]",
              "name": "location",
              "type": "string[2]"
            },
            {
              "internalType": "string",
              "name": "phoneNo",
              "type": "string"
            },
            {
              "internalType": "string",
              "name": "bestSeller",
              "type": "string"
            },
            {
              "internalType": "string",
              "name": "promotion",
              "type": "string"
            },
            {
              "internalType": "string",
              "name": "otherServices",
              "type": "string"
            },
            {
              "internalType": "string[]",
              "name": "availableServices",
              "type": "string[]"
            },
            {
              "internalType": "string[][]",
              "name": "availableSubServices",
              "type": "string[][]"
            }
          ],
          "internalType": "struct DealerContract.DealerInfo",
          "name": "info",
          "type": "tuple"
        },
        {
          "internalType": "bytes32",
          "name": "id",
          "type": "bytes32"
        }
      ],
      "name": "createDealerApplication",
      "outputs": [],
      "payable": false,
      "stateMutability": "nonpayable",
      "type": "function"
    },
    {
      "constant": false,
      "inputs": [
        {
          "internalType": "string",
          "name": "serviceName",
          "type": "string"
        }
      ],
      "name": "deleteService",
      "outputs": [],
      "payable": false,
      "stateMutability": "nonpayable",
      "type": "function"
    },
    {
      "constant": false,
      "inputs": [
        {
          "internalType": "string",
          "name": "serviceName",
          "type": "string"
        },
        {
          "internalType": "string",
          "name": "subServiceName",
          "type": "string"
        }
      ],
      "name": "deleteSubService",
      "outputs": [],
      "payable": false,
      "stateMutability": "nonpayable",
      "type": "function"
    },
    {
      "constant": false,
      "inputs": [
        {
          "internalType": "bytes32",
          "name": "userId",
          "type": "bytes32"
        },
        {
          "internalType": "string",
          "name": "noPlate",
          "type": "string"
        },
        {
          "components": [
            {
              "internalType": "string",
              "name": "brand",
              "type": "string"
            },
            {
              "internalType": "string",
              "name": "model",
              "type": "string"
            },
            {
              "internalType": "string",
              "name": "year",
              "type": "string"
            }
          ],
          "internalType": "struct UserContract.CarInfo",
          "name": "carInfo",
          "type": "tuple"
        }
      ],
      "name": "editCarDetails",
      "outputs": [],
      "payable": false,
      "stateMutability": "nonpayable",
      "type": "function"
    },
    {
      "constant": false,
      "inputs": [
        {
          "components": [
            {
              "internalType": "string",
              "name": "dealerName",
              "type": "string"
            },
            {
              "internalType": "string",
              "name": "firstName",
              "type": "string"
            },
            {
              "internalType": "string",
              "name": "lastName",
              "type": "string"
            },
            {
              "internalType": "string",
              "name": "addr",
              "type": "string"
            },
            {
              "internalType": "string[2]",
              "name": "location",
              "type": "string[2]"
            },
            {
              "internalType": "string",
              "name": "phoneNo",
              "type": "string"
            },
            {
              "internalType": "string",
              "name": "bestSeller",
              "type": "string"
            },
            {
              "internalType": "string",
              "name": "promotion",
              "type": "string"
            },
            {
              "internalType": "string",
              "name": "otherServices",
              "type": "string"
            },
            {
              "internalType": "string[]",
              "name": "availableServices",
              "type": "string[]"
            },
            {
              "internalType": "string[][]",
              "name": "availableSubServices",
              "type": "string[][]"
            }
          ],
          "internalType": "struct DealerContract.DealerInfo",
          "name": "info",
          "type": "tuple"
        },
        {
          "internalType": "bytes32",
          "name": "id",
          "type": "bytes32"
        }
      ],
      "name": "editDealerInfo",
      "outputs": [],
      "payable": false,
      "stateMutability": "nonpayable",
      "type": "function"
    },
    {
      "constant": false,
      "inputs": [
        {
          "internalType": "string",
          "name": "oldName",
          "type": "string"
        },
        {
          "internalType": "string",
          "name": "newName",
          "type": "string"
        }
      ],
      "name": "editServiceName",
      "outputs": [],
      "payable": false,
      "stateMutability": "nonpayable",
      "type": "function"
    },
    {
      "constant": false,
      "inputs": [
        {
          "internalType": "string",
          "name": "serviceName",
          "type": "string"
        },
        {
          "internalType": "string",
          "name": "oldName",
          "type": "string"
        },
        {
          "internalType": "string",
          "name": "newName",
          "type": "string"
        }
      ],
      "name": "editSubServiceName",
      "outputs": [],
      "payable": false,
      "stateMutability": "nonpayable",
      "type": "function"
    },
    {
      "constant": false,
      "inputs": [
        {
          "internalType": "bytes32",
          "name": "userId",
          "type": "bytes32"
        },
        {
          "components": [
            {
              "internalType": "string",
              "name": "firstName",
              "type": "string"
            },
            {
              "internalType": "string",
              "name": "lastName",
              "type": "string"
            },
            {
              "internalType": "string",
              "name": "adr",
              "type": "string"
            },
            {
              "internalType": "string",
              "name": "phNo",
              "type": "string"
            },
            {
              "internalType": "string",
              "name": "email",
              "type": "string"
            }
          ],
          "internalType": "struct UserContract.UserInfo",
          "name": "info",
          "type": "tuple"
        }
      ],
      "name": "editUserInfo",
      "outputs": [],
      "payable": false,
      "stateMutability": "nonpayable",
      "type": "function"
    },
    {
      "constant": true,
      "inputs": [],
      "name": "getAllDealerApplications",
      "outputs": [
        {
          "internalType": "bytes32[]",
          "name": "",
          "type": "bytes32[]"
        }
      ],
      "payable": false,
      "stateMutability": "view",
      "type": "function"
    },
    {
      "constant": true,
      "inputs": [
        {
          "internalType": "bytes32",
          "name": "dealerId",
          "type": "bytes32"
        }
      ],
      "name": "getAppointmentHistory",
      "outputs": [
        {
          "components": [
            {
              "internalType": "bytes32",
              "name": "userId",
              "type": "bytes32"
            },
            {
              "internalType": "bytes32",
              "name": "dealerId",
              "type": "bytes32"
            },
            {
              "internalType": "string",
              "name": "carPlate",
              "type": "string"
            },
            {
              "internalType": "int256",
              "name": "time",
              "type": "int256"
            }
          ],
          "internalType": "struct AppointmentHandler.Appointment[]",
          "name": "",
          "type": "tuple[]"
        }
      ],
      "payable": false,
      "stateMutability": "view",
      "type": "function"
    },
    {
      "constant": true,
      "inputs": [
        {
          "internalType": "string",
          "name": "noPlate",
          "type": "string"
        }
      ],
      "name": "getCarDetails",
      "outputs": [
        {
          "components": [
            {
              "internalType": "string",
              "name": "brand",
              "type": "string"
            },
            {
              "internalType": "string",
              "name": "model",
              "type": "string"
            },
            {
              "internalType": "string",
              "name": "year",
              "type": "string"
            }
          ],
          "internalType": "struct UserContract.CarInfo",
          "name": "",
          "type": "tuple"
        }
      ],
      "payable": false,
      "stateMutability": "view",
      "type": "function"
    },
    {
      "constant": true,
      "inputs": [
        {
          "internalType": "bytes32",
          "name": "userId",
          "type": "bytes32"
        }
      ],
      "name": "getCarPlates",
      "outputs": [
        {
          "internalType": "string[]",
          "name": "",
          "type": "string[]"
        }
      ],
      "payable": false,
      "stateMutability": "view",
      "type": "function"
    },
    {
      "constant": true,
      "inputs": [
        {
          "internalType": "bytes32",
          "name": "userId",
          "type": "bytes32"
        }
      ],
      "name": "getCars",
      "outputs": [
        {
          "components": [
            {
              "internalType": "string",
              "name": "brand",
              "type": "string"
            },
            {
              "internalType": "string",
              "name": "model",
              "type": "string"
            },
            {
              "internalType": "string",
              "name": "year",
              "type": "string"
            }
          ],
          "internalType": "struct UserContract.CarInfo[]",
          "name": "",
          "type": "tuple[]"
        }
      ],
      "payable": false,
      "stateMutability": "view",
      "type": "function"
    },
    {
      "constant": true,
      "inputs": [
        {
          "internalType": "bytes32",
          "name": "id",
          "type": "bytes32"
        }
      ],
      "name": "getDealerInfo",
      "outputs": [
        {
          "components": [
            {
              "internalType": "string",
              "name": "dealerName",
              "type": "string"
            },
            {
              "internalType": "string",
              "name": "firstName",
              "type": "string"
            },
            {
              "internalType": "string",
              "name": "lastName",
              "type": "string"
            },
            {
              "internalType": "string",
              "name": "addr",
              "type": "string"
            },
            {
              "internalType": "string[2]",
              "name": "location",
              "type": "string[2]"
            },
            {
              "internalType": "string",
              "name": "phoneNo",
              "type": "string"
            },
            {
              "internalType": "string",
              "name": "bestSeller",
              "type": "string"
            },
            {
              "internalType": "string",
              "name": "promotion",
              "type": "string"
            },
            {
              "internalType": "string",
              "name": "otherServices",
              "type": "string"
            },
            {
              "internalType": "string[]",
              "name": "availableServices",
              "type": "string[]"
            },
            {
              "internalType": "string[][]",
              "name": "availableSubServices",
              "type": "string[][]"
            }
          ],
          "internalType": "struct DealerContract.DealerInfo",
          "name": "",
          "type": "tuple"
        }
      ],
      "payable": false,
      "stateMutability": "view",
      "type": "function"
    },
    {
      "constant": true,
      "inputs": [
        {
          "internalType": "string",
          "name": "id",
          "type": "string"
        }
      ],
      "name": "getHash",
      "outputs": [
        {
          "internalType": "bytes32",
          "name": "",
          "type": "bytes32"
        }
      ],
      "payable": false,
      "stateMutability": "pure",
      "type": "function"
    },
    {
      "constant": true,
      "inputs": [
        {
          "internalType": "bytes32",
          "name": "dealerId",
          "type": "bytes32"
        }
      ],
      "name": "getPendingAppointments",
      "outputs": [
        {
          "components": [
            {
              "internalType": "bytes32",
              "name": "userId",
              "type": "bytes32"
            },
            {
              "internalType": "bytes32",
              "name": "dealerId",
              "type": "bytes32"
            },
            {
              "internalType": "string",
              "name": "carPlate",
              "type": "string"
            },
            {
              "internalType": "int256",
              "name": "time",
              "type": "int256"
            }
          ],
          "internalType": "struct AppointmentHandler.Appointment[]",
          "name": "",
          "type": "tuple[]"
        }
      ],
      "payable": false,
      "stateMutability": "view",
      "type": "function"
    },
    {
      "constant": true,
      "inputs": [
        {
          "internalType": "string",
          "name": "noPlate",
          "type": "string"
        }
      ],
      "name": "getRecords",
      "outputs": [
        {
          "components": [
            {
              "internalType": "string[]",
              "name": "services",
              "type": "string[]"
            },
            {
              "internalType": "string[]",
              "name": "subservices",
              "type": "string[]"
            },
            {
              "internalType": "string",
              "name": "comment",
              "type": "string"
            },
            {
              "internalType": "uint256",
              "name": "timeStamp",
              "type": "uint256"
            }
          ],
          "internalType": "struct UserContract.RecordInternal[]",
          "name": "",
          "type": "tuple[]"
        }
      ],
      "payable": false,
      "stateMutability": "view",
      "type": "function"
    },
    {
      "constant": true,
      "inputs": [],
      "name": "getServices",
      "outputs": [
        {
          "internalType": "string[]",
          "name": "",
          "type": "string[]"
        }
      ],
      "payable": false,
      "stateMutability": "view",
      "type": "function"
    },
    {
      "constant": true,
      "inputs": [
        {
          "internalType": "string",
          "name": "serviceName",
          "type": "string"
        }
      ],
      "name": "getSubServices",
      "outputs": [
        {
          "internalType": "string[]",
          "name": "",
          "type": "string[]"
        }
      ],
      "payable": false,
      "stateMutability": "view",
      "type": "function"
    },
    {
      "constant": true,
      "inputs": [
        {
          "internalType": "bytes32",
          "name": "userId",
          "type": "bytes32"
        }
      ],
      "name": "getUserAppointment",
      "outputs": [
        {
          "components": [
            {
              "internalType": "bytes32",
              "name": "userId",
              "type": "bytes32"
            },
            {
              "internalType": "bytes32",
              "name": "dealerId",
              "type": "bytes32"
            },
            {
              "internalType": "string",
              "name": "carPlate",
              "type": "string"
            },
            {
              "internalType": "int256",
              "name": "time",
              "type": "int256"
            }
          ],
          "internalType": "struct AppointmentHandler.Appointment",
          "name": "",
          "type": "tuple"
        }
      ],
      "payable": false,
      "stateMutability": "view",
      "type": "function"
    },
    {
      "constant": true,
      "inputs": [
        {
          "internalType": "bytes32",
          "name": "userId",
          "type": "bytes32"
        }
      ],
      "name": "getUserInfo",
      "outputs": [
        {
          "components": [
            {
              "internalType": "string",
              "name": "firstName",
              "type": "string"
            },
            {
              "internalType": "string",
              "name": "lastName",
              "type": "string"
            },
            {
              "internalType": "string",
              "name": "adr",
              "type": "string"
            },
            {
              "internalType": "string",
              "name": "phNo",
              "type": "string"
            },
            {
              "internalType": "string",
              "name": "email",
              "type": "string"
            }
          ],
          "internalType": "struct UserContract.UserInfo",
          "name": "",
          "type": "tuple"
        }
      ],
      "payable": false,
      "stateMutability": "view",
      "type": "function"
    },
    {
      "constant": true,
      "inputs": [
        {
          "internalType": "bytes32",
          "name": "adr",
          "type": "bytes32"
        }
      ],
      "name": "isVerified",
      "outputs": [
        {
          "internalType": "bool",
          "name": "",
          "type": "bool"
        }
      ],
      "payable": false,
      "stateMutability": "view",
      "type": "function"
    },
    {
      "constant": true,
      "inputs": [
        {
          "internalType": "string",
          "name": "",
          "type": "string"
        }
      ],
      "name": "notificationTimes",
      "outputs": [
        {
          "internalType": "uint256",
          "name": "",
          "type": "uint256"
        }
      ],
      "payable": false,
      "stateMutability": "view",
      "type": "function"
    },
    {
      "constant": true,
      "inputs": [],
      "name": "owner",
      "outputs": [
        {
          "internalType": "address",
          "name": "",
          "type": "address"
        }
      ],
      "payable": false,
      "stateMutability": "view",
      "type": "function"
    },
    {
      "constant": false,
      "inputs": [
        {
          "internalType": "bytes32",
          "name": "dealershipId",
          "type": "bytes32"
        },
        {
          "internalType": "bytes32",
          "name": "otherId",
          "type": "bytes32"
        }
      ],
      "name": "transferDealershipOwner",
      "outputs": [],
      "payable": false,
      "stateMutability": "nonpayable",
      "type": "function"
    },
    {
      "constant": false,
      "inputs": [
        {
          "internalType": "address",
          "name": "newOwner",
          "type": "address"
        }
      ],
      "name": "transferOwner",
      "outputs": [],
      "payable": false,
      "stateMutability": "nonpayable",
      "type": "function"
    },
    {
      "constant": false,
      "inputs": [
        {
          "internalType": "bytes32",
          "name": "dealerId",
          "type": "bytes32"
        },
        {
          "internalType": "bytes32",
          "name": "id",
          "type": "bytes32"
        },
        {
          "internalType": "string",
          "name": "noPlate",
          "type": "string"
        },
        {
          "internalType": "string[]",
          "name": "services",
          "type": "string[]"
        },
        {
          "internalType": "string[]",
          "name": "subservices",
          "type": "string[]"
        },
        {
          "internalType": "string",
          "name": "comment",
          "type": "string"
        },
        {
          "internalType": "uint256",
          "name": "timeStamp",
          "type": "uint256"
        }
      ],
      "name": "insertRecord",
      "outputs": [],
      "payable": false,
      "stateMutability": "nonpayable",
      "type": "function"
    },
    {
      "constant": false,
      "inputs": [
        {
          "internalType": "string",
          "name": "serviceName",
          "type": "string"
        },
        {
          "internalType": "uint256",
          "name": "time",
          "type": "uint256"
        }
      ],
      "name": "setServiceNotificationTime",
      "outputs": [],
      "payable": false,
      "stateMutability": "nonpayable",
      "type": "function"
    }
  ],
  "bytecode": "0x60806040526006805461fe0061ff0019909116179055600080546001600160a01b031916331790556153d7806100366000396000f3fe608060405234801561001057600080fd5b50600436106102115760003560e01c80637e41667f11610125578063adff8b0f116100ad578063c4e91d171161007c578063c4e91d17146104af578063c9b54a58146104c2578063d872acac146104e2578063ddb5f47614610502578063e445268c1461052257610211565b8063adff8b0f14610449578063b2c9ae6014610469578063b63e01d21461047c578063c181b2731461048f57610211565b80638da5cb5b116100f45780638da5cb5b146103db5780638ee24214146103f05780638f2b51441461040357806399ec14f814610416578063a44e4c701461042957610211565b80637e41667f1461038057806382d7afbd1461039557806386e80b71146103a857806388fcd194146103c857610211565b80634fb2e45d116101a857806360e9480b1161017757806360e9480b1461031f5780636fd7d2b514610332578063752326c11461034557806375417851146103585780637d17f13c1461036057610211565b80634fb2e45d146102c657806350fb95e3146102d95780635a82610c146102ec5780635b6beeb9146102ff57610211565b80631b8f47fe116101e45780631b8f47fe1461026457806335f5dbd414610277578063369bfce41461028a578063431a65fc1461029d57610211565b80630ad5be91146102165780630eb7bc8f1461022b5780631118127a1461023e5780631a4c85be14610251575b600080fd5b61022961022436600461421c565b610535565b005b61022961023936600461440a565b6105df565b61022961024c366004614557565b61066a565b61022961025f3660046143d6565b610858565b6102296102723660046141a6565b610909565b6102296102853660046144ee565b61099a565b61022961029836600461440a565b6109e9565b6102b06102ab3660046143d6565b610a83565b6040516102bd91906150b6565b60405180910390f35b6102296102d4366004614180565b610b7a565b6102296102e736600461440a565b610bc6565b6102296102fa366004614523565b610ca9565b61031261030d3660046143d6565b610d7f565b6040516102bd9190615108565b61022961032d366004614523565b610df4565b610229610340366004614467565b61106a565b610229610353366004614557565b611114565b6102b061127b565b61037361036e3660046141a6565b6113d0565b6040516102bd9190615228565b610388611b5a565b6040516102bd91906150a5565b6102296103a33660046141e2565b611bdd565b6103bb6103b63660046143d6565b611cd9565b6040516102bd91906150e9565b6102296103d63660046143d6565b611f97565b6103e36120a5565b6040516102bd9190615097565b6102296103fe366004614314565b6120b4565b6102b06104113660046141a6565b6121bb565b6103126104243660046143d6565b61229b565b61043c6104373660046141a6565b6122b8565b6040516102bd91906150c7565b61045c6104573660046141a6565b612408565b6040516102bd9190615259565b610229610477366004614523565b61271a565b61043c61048a3660046141a6565b6127dd565b6104a261049d3660046141a6565b612920565b6040516102bd91906150fa565b6102296104bd36600461438f565b61294d565b6104d56104d03660046141a6565b6129df565b6040516102bd91906150d8565b6104f56104f03660046143d6565b612c81565b6040516102bd9190615217565b6105156105103660046141a6565b612e3d565b6040516102bd9190615206565b6102296105303660046141e2565b612f2a565b8661053f81612920565b6105645760405162461bcd60e51b815260040161055b906151f6565b60405180910390fd5b61057388888888888888612fb5565b60005b85518110156105d457600061059d87838151811061059057fe5b6020026020010151613102565b60008a81526011602052604090208054919250859160ff84169081106105bf57fe5b60009182526020909120015550600101610576565b505050505050505050565b6000546001600160a01b031633146106095760405162461bcd60e51b815260040161055b90615196565b8161061381613221565b61062f5760405162461bcd60e51b815260040161055b906151b6565b816007600061063d86613102565b60ff1660ff1681526020019081526020016000209080519060200190610664929190613716565b50505050565b60008181526001602052604090205460ff16156106995760405162461bcd60e51b815260040161055b906151c6565b60008181526004602090815260409091208351805185936106be928492910190613716565b5060208281015180516106d79260018501920190613716565b50604082015180516106f3916002840191602090910190613716565b506060820151805161070f916003840191602090910190613716565b5060808201516107259060048301906002613794565b5060a08201518051610741916006840191602090910190613716565b5060c0820151805161075d916007840191602090910190613716565b5060e08201518051610779916008840191602090910190613716565b506101008201518051610796916009840191602090910190613716565b5061012082015180516107b391600a8401916020909101906137e0565b5061014082015180516107d091600b84019160209091019061382d565b5090505060006107df82613242565b121561081b57600580546001810182556000919091527f036b6384b5eca791c62761152d0c79bb0604c104a5fb6f4eb0703f3154bb3db0018190555b7fbcb28ce223d1d07df7ff015302f0aee0306ad6362ede3db7aa3c6d40a651f008828260405161084c929190615239565b60405180910390a15050565b6000546001600160a01b031633146108825760405162461bcd60e51b815260040161055b90615196565b8061088c81613221565b6108a85760405162461bcd60e51b815260040161055b906151b6565b60405180602001604052806000815250600760006108c585613102565b60ff1660ff16815260200190815260200160002090805190602001906108ec929190613716565b50506006805460ff19811660ff9182166000190190911617905550565b6000546001600160a01b031633146109335760405162461bcd60e51b815260040161055b90615196565b600061093e82613242565b905060008112156109615760405162461bcd60e51b815260040161055b90615146565b6000828152600160208190526040909120805460ff19169091179055600580548290811061098b57fe5b60009182526020822001555050565b6000546001600160a01b031633146109c45760405162461bcd60e51b815260040161055b90615196565b806010836040516109d5919061507f565b908152604051908190036020019020555050565b6000546001600160a01b03163314610a135760405162461bcd60e51b815260040161055b90615196565b8181610a1f8282613288565b610a3b5760405162461bcd60e51b815260040161055b906151a6565b600884604051610a4b919061507f565b9081526020016040518091039020610a63858561329e565b81548110610a6d57fe5b9060005260206000200160006106649190613886565b6060600882604051610a95919061507f565b9081526020016040518091039020805480602002602001604051908101604052809291908181526020016000905b82821015610b6e5760008481526020908190208301805460408051601f6002600019610100600187161502019094169390930492830185900485028101850190915281815292830182828015610b5a5780601f10610b2f57610100808354040283529160200191610b5a565b820191906000526020600020905b815481529060010190602001808311610b3d57829003601f168201915b505050505081526020019060010190610ac3565b5050505090505b919050565b6000546001600160a01b03163314610ba45760405162461bcd60e51b815260040161055b90615196565b600080546001600160a01b0319166001600160a01b0392909216919091179055565b8160ff600882604051610bd9919061507f565b9081526040519081900360200190205410610c065760405162461bcd60e51b815260040161055b90615176565b8282610c128282613288565b15610c2f5760405162461bcd60e51b815260040161055b90615136565b6000546001600160a01b03163314610c595760405162461bcd60e51b815260040161055b90615196565b600885604051610c69919061507f565b9081526040516020918190038201902080546001810180835560009283529183902087519293610ca0939190920191880190613716565b50505050505050565b8060200151610cb781612920565b610cd35760405162461bcd60e51b815260040161055b906151f6565b6000610cde8361337f565b90506000198110610d015760405162461bcd60e51b815260040161055b90615166565b610d0f836020015182613422565b6040805160808101825260008082526020808301828152845180830186528381528486019081526060850184905288518452600f83529490922083518155915160018301559251805192939192610d6c9260028501920190613716565b5060608201518160030155905050505050565b6000600282604051602001610d94919061507f565b60408051601f1981840301815290829052610dae9161507f565b602060405180830381855afa158015610dcb573d6000803e3d6000fd5b5050506040513d601f19601f82011682018060405250610dee91908101906141c4565b92915050565b8060200151610e0281612920565b610e1e5760405162461bcd60e51b815260040161055b906151f6565b81516000818152600f602052604090205415610fce576000610e438460000151613527565b9050610e4d6138cd565b84516000908152600f6020908152604091829020825160808101845281548152600180830154828501526002808401805487519381161561010002600019011691909104601f81018690048602830186018752808352929593949386019391929091830182828015610f005780601f10610ed557610100808354040283529160200191610f00565b820191906000526020600020905b815481529060010190602001808311610ee357829003601f168201915b505050505081526020016003820154815250509050600e6000826020015181526020019081526020016000208281548110610f3757fe5b6000918252602082206004909102018181556001810182905590610f5e6002830182613886565b506000600391909101819055602080870180518352600e8252604080842080546001818101808455928752958590208b5160049092020190815592519483019490945588015180518993610fb9926002850192910190613716565b50606082015181600301555050505050611031565b602080840180516000908152600e8352604080822080546001818101808455928552938690208951600490920201908155935192840192909255860151805191938793926110229260028501920190613716565b50606082015181600301555050505b6000818152600f602090815260409182902085518155818601516001820155918501518051869392610d6c926002850192910190613716565b82826110768282613288565b6110925760405162461bcd60e51b815260040161055b906151a6565b6000546001600160a01b031633146110bc5760405162461bcd60e51b815260040161055b90615196565b826008866040516110cd919061507f565b90815260200160405180910390206110e5878761329e565b815481106110ef57fe5b90600052602060002001908051906020019061110c929190613716565b505050505050565b600081815260016020526040902054819060ff166111445760405162461bcd60e51b815260040161055b90615126565b6000828152600460209081526040909120845180518693611169928492910190613716565b5060208281015180516111829260018501920190613716565b506040820151805161119e916002840191602090910190613716565b50606082015180516111ba916003840191602090910190613716565b5060808201516111d09060048301906002613794565b5060a082015180516111ec916006840191602090910190613716565b5060c08201518051611208916007840191602090910190613716565b5060e08201518051611224916008840191602090910190613716565b506101008201518051611241916009840191602090910190613716565b50610120820151805161125e91600a8401916020909101906137e0565b50610140820151805161110c91600b84019160209091019061382d565b6006546040805160ff9092168083526020808202840101909152606091829180156112ba57816020015b60608152602001906001900390816112a55790505b5090506000805b60065460ff610100909104811690821610156113c75760ff811660009081526007602052604090205460026000196101006001841615020190911604156113bf5760ff811660009081526007602090815260409182902080548351601f6002600019610100600186161502019093169290920491820184900484028101840190945280845290918301828280156113995780601f1061136e57610100808354040283529160200191611399565b820191906000526020600020905b81548152906001019060200180831161137c57829003601f168201915b5050505050838380600101945060ff16815181106113b357fe5b60200260200101819052505b6001016112c1565b50909150505b90565b6113d86138f5565b6000828152600460209081526040918290208251815460026001821615610100026000190190911604601f8101849004909302810161018090810190945261016081018381529093919284928491908401828280156114785780601f1061144d57610100808354040283529160200191611478565b820191906000526020600020905b81548152906001019060200180831161145b57829003601f168201915b50505050508152602001600182018054600181600116156101000203166002900480601f01602080910402602001604051908101604052809291908181526020018280546001816001161561010002031660029004801561151a5780601f106114ef5761010080835404028352916020019161151a565b820191906000526020600020905b8154815290600101906020018083116114fd57829003601f168201915b5050509183525050600282810180546040805160206001841615610100026000190190931694909404601f810183900483028501830190915280845293810193908301828280156115ac5780601f10611581576101008083540402835291602001916115ac565b820191906000526020600020905b81548152906001019060200180831161158f57829003601f168201915b505050918352505060038201805460408051602060026001851615610100026000190190941693909304601f81018490048402820184019092528181529382019392918301828280156116405780601f1061161557610100808354040283529160200191611640565b820191906000526020600020905b81548152906001019060200180831161162357829003601f168201915b5050509183525050604080518082019091526020909101906004830160026000835b8282101561170557838201805460408051602060026001851615610100026000190190941693909304601f810184900484028201840190925281815292918301828280156116f15780601f106116c6576101008083540402835291602001916116f1565b820191906000526020600020905b8154815290600101906020018083116116d457829003601f168201915b505050505081526020019060010190611662565b5050509082525060068201805460408051602060026001851615610100026000190190941693909304601f81018490048402820184019092528181529382019392918301828280156117985780601f1061176d57610100808354040283529160200191611798565b820191906000526020600020905b81548152906001019060200180831161177b57829003601f168201915b505050918352505060078201805460408051602060026001851615610100026000190190941693909304601f810184900484028201840190925281815293820193929183018282801561182c5780601f106118015761010080835404028352916020019161182c565b820191906000526020600020905b81548152906001019060200180831161180f57829003601f168201915b505050918352505060088201805460408051602060026001851615610100026000190190941693909304601f81018490048402820184019092528181529382019392918301828280156118c05780601f10611895576101008083540402835291602001916118c0565b820191906000526020600020905b8154815290600101906020018083116118a357829003601f168201915b505050918352505060098201805460408051602060026001851615610100026000190190941693909304601f81018490048402820184019092528181529382019392918301828280156119545780601f1061192957610100808354040283529160200191611954565b820191906000526020600020905b81548152906001019060200180831161193757829003601f168201915b50505050508152602001600a8201805480602002602001604051908101604052809291908181526020016000905b82821015611a2d5760008481526020908190208301805460408051601f6002600019610100600187161502019094169390930492830185900485028101850190915281815292830182828015611a195780601f106119ee57610100808354040283529160200191611a19565b820191906000526020600020905b8154815290600101906020018083116119fc57829003601f168201915b505050505081526020019060010190611982565b505050508152602001600b8201805480602002602001604051908101604052809291908181526020016000905b82821015611b4c57838290600052602060002001805480602002602001604051908101604052809291908181526020016000905b82821015611b395760008481526020908190208301805460408051601f6002600019610100600187161502019094169390930492830185900485028101850190915281815292830182828015611b255780601f10611afa57610100808354040283529160200191611b25565b820191906000526020600020905b815481529060010190602001808311611b0857829003601f168201915b505050505081526020019060010190611a8e565b5050505081526020019060010190611a5a565b505050915250909392505050565b6000546060906001600160a01b03163314611b875760405162461bcd60e51b815260040161055b90615196565b6005805480602002602001604051908101604052809291908181526020018280548015611bd357602002820191906000526020600020905b815481526020019060010190808311611bbf575b5050505050905090565b600082815260016020526040902054829060ff16611c0d5760405162461bcd60e51b815260040161055b90615126565b6000828152600160208181526040808420805460ff1990811690941790558684528084208054909316909255848352600381528183208390558583526002905280822084835291208154611c619290613955565b506000838152600260205260408120611c7991613995565b60005b600083815260026020526040902054811015610664578260036000600260008781526020019081526020016000208481548110611cb557fe5b60009182526020808320909101548352820192909252604001902055600101611c7c565b6060600982604051611ceb919061507f565b9081526020016040518091039020805480602002602001604051908101604052809291908181526020016000905b82821015610b6e578382906000526020600020906004020160405180608001604052908160008201805480602002602001604051908101604052809291908181526020016000905b82821015611e0c5760008481526020908190208301805460408051601f6002600019610100600187161502019094169390930492830185900485028101850190915281815292830182828015611df85780601f10611dcd57610100808354040283529160200191611df8565b820191906000526020600020905b815481529060010190602001808311611ddb57829003601f168201915b505050505081526020019060010190611d61565b50505050815260200160018201805480602002602001604051908101604052809291908181526020016000905b82821015611ee45760008481526020908190208301805460408051601f6002600019610100600187161502019094169390930492830185900485028101850190915281815292830182828015611ed05780601f10611ea557610100808354040283529160200191611ed0565b820191906000526020600020905b815481529060010190602001808311611eb357829003601f168201915b505050505081526020019060010190611e39565b50505090825250600282810180546040805160206001841615610100026000190190931694909404601f81018390048302850183019091528084529381019390830182828015611f755780601f10611f4a57610100808354040283529160200191611f75565b820191906000526020600020905b815481529060010190602001808311611f5857829003601f168201915b5050505050815260200160038201548152505081526020019060010190611d19565b6000546001600160a01b03163314611fc15760405162461bcd60e51b815260040161055b90615196565b80611fcb81613221565b15611fe85760405162461bcd60e51b815260040161055b906151d6565b60065460ff61010082048116911611156120145760405162461bcd60e51b815260040161055b906151e6565b60005b60065460ff6101009091048116908216101561209f5760ff8116600090815260076020526040902054600260001961010060018416150201909116046120975760ff81166000908152600760209081526040909120845161207a92860190613716565b50506006805460ff8082166001011660ff199091161790556120a1565b600101612017565b505b5050565b6000546001600160a01b031681565b80600c836040516120c5919061507f565b908152602001604051809103902060008201518160000190805190602001906120ef929190613716565b5060208281015180516121089260018501920190613716565b5060408201518051612124916002840191602090910190613716565b50905050600061213484846135c9565b9050600081121561217a576000848152600b60209081526040822080546001810180835591845292829020865191936121739391019190870190613716565b5050610664565b6000848152600b6020526040902080548491908390811061219757fe5b9060005260206000200190805190602001906121b4929190613716565b5050505050565b6060600b6000838152602001908152602001600020805480602002602001604051908101604052809291908181526020016000905b82821015610b6e5760008481526020908190208301805460408051601f60026000196101006001871615020190941693909304928301859004850281018501909152818152928301828280156122875780601f1061225c57610100808354040283529160200191612287565b820191906000526020600020905b81548152906001019060200180831161226a57829003601f168201915b5050505050815260200190600101906121f0565b805160208183018101805160108252928201919093012091525481565b6060816122c481612920565b6122e05760405162461bcd60e51b815260040161055b906151f6565b6000838152600e6020908152604080832080548251818502810185019093528083529193909284015b828210156123fb57838290600052602060002090600402016040518060800160405290816000820154815260200160018201548152602001600282018054600181600116156101000203166002900480601f0160208091040260200160405190810160405280929190818152602001828054600181600116156101000203166002900480156123d95780601f106123ae576101008083540402835291602001916123d9565b820191906000526020600020905b8154815290600101906020018083116123bc57829003601f168201915b5050505050815260200160038201548152505081526020019060010190612309565b5050505091505b50919050565b6124106139b3565b6000828152600a60209081526040918290208251815460026001821615610100026000190190911604601f8101849004909302810160c090810190945260a081018381529093919284928491908401828280156124ae5780601f10612483576101008083540402835291602001916124ae565b820191906000526020600020905b81548152906001019060200180831161249157829003601f168201915b50505050508152602001600182018054600181600116156101000203166002900480601f0160208091040260200160405190810160405280929190818152602001828054600181600116156101000203166002900480156125505780601f1061252557610100808354040283529160200191612550565b820191906000526020600020905b81548152906001019060200180831161253357829003601f168201915b5050509183525050600282810180546040805160206001841615610100026000190190931694909404601f810183900483028501830190915280845293810193908301828280156125e25780601f106125b7576101008083540402835291602001916125e2565b820191906000526020600020905b8154815290600101906020018083116125c557829003601f168201915b505050918352505060038201805460408051602060026001851615610100026000190190941693909304601f81018490048402820184019092528181529382019392918301828280156126765780601f1061264b57610100808354040283529160200191612676565b820191906000526020600020905b81548152906001019060200180831161265957829003601f168201915b505050918352505060048201805460408051602060026001851615610100026000190190941693909304601f810184900484028201840190925281815293820193929183018282801561270a5780601f106126df5761010080835404028352916020019161270a565b820191906000526020600020905b8154815290600101906020018083116126ed57829003601f168201915b5050505050815250509050919050565b806020015161272881612920565b6127445760405162461bcd60e51b815260040161055b906151f6565b600061274f8361337f565b905060001981106127725760405162461bcd60e51b815260040161055b90615166565b602080840180516000908152600d8352604080822080546001818101808455928552938690208951600490920201908155935192840192909255860151805191938793926127c69260028501920190613716565b506060820151816003015550505061209f83610ca9565b6060816127e981612920565b6128055760405162461bcd60e51b815260040161055b906151f6565b6000838152600d6020908152604080832080548251818502810185019093528083529193909284015b828210156123fb57838290600052602060002090600402016040518060800160405290816000820154815260200160018201548152602001600282018054600181600116156101000203166002900480601f0160208091040260200160405190810160405280929190818152602001828054600181600116156101000203166002900480156128fe5780601f106128d3576101008083540402835291602001916128fe565b820191906000526020600020905b8154815290600101906020018083116128e157829003601f168201915b505050505081526020016003820154815250508152602001906001019061282e565b60008181526001602052604081205460ff1680610dee575050600090815260036020526040902054151590565b6000828152600a60209081526040909120825180518493612972928492910190613716565b50602082810151805161298b9260018501920190613716565b50604082015180516129a7916002840191602090910190613716565b50606082015180516129c3916003840191602090910190613716565b50608082015180516121b4916004840191602090910190613716565b606080600b600084815260200190815260200160002080549050604051908082528060200260200182016040528015612a3257816020015b612a1f6139e2565b815260200190600190039081612a175790505b50905060005b6000848152600b6020526040902054811015612c7a576000848152600b602052604090208054600c919083908110612a6c57fe5b90600052602060002001604051612a83919061508b565b9081526040805160209281900383018120805460026001821615610100026000190190911604601f81018590049094028201608090810190935260608201848152919390928492918491840182828015612b1e5780601f10612af357610100808354040283529160200191612b1e565b820191906000526020600020905b815481529060010190602001808311612b0157829003601f168201915b50505050508152602001600182018054600181600116156101000203166002900480601f016020809104026020016040519081016040528092919081815260200182805460018160011615610100020316600290048015612bc05780601f10612b9557610100808354040283529160200191612bc0565b820191906000526020600020905b815481529060010190602001808311612ba357829003601f168201915b5050509183525050600282810180546040805160206001841615610100026000190190931694909404601f81018390048302850183019091528084529381019390830182828015612c525780601f10612c2757610100808354040283529160200191612c52565b820191906000526020600020905b815481529060010190602001808311612c3557829003601f168201915b505050505081525050828281518110612c6757fe5b6020908102919091010152600101612a38565b5092915050565b612c896139e2565b600c82604051612c99919061507f565b9081526040805160209281900383018120805460026001821615610100026000190190911604601f81018590049094028201608090810190935260608201848152919390928492918491840182828015612d345780601f10612d0957610100808354040283529160200191612d34565b820191906000526020600020905b815481529060010190602001808311612d1757829003601f168201915b50505050508152602001600182018054600181600116156101000203166002900480601f016020809104026020016040519081016040528092919081815260200182805460018160011615610100020316600290048015612dd65780601f10612dab57610100808354040283529160200191612dd6565b820191906000526020600020905b815481529060010190602001808311612db957829003601f168201915b5050509183525050600282810180546040805160206001841615610100026000190190931694909404601f8101839004830285018301909152808452938101939083018282801561270a5780601f106126df5761010080835404028352916020019161270a565b612e456138cd565b600f60008381526020019081526020016000206040518060800160405290816000820154815260200160018201548152602001600282018054600181600116156101000203166002900480601f016020809104026020016040519081016040528092919081815260200182805460018160011615610100020316600290048015612f105780601f10612ee557610100808354040283529160200191612f10565b820191906000526020600020905b815481529060010190602001808311612ef357829003601f168201915b505050505081526020016003820154815250509050919050565b600082815260016020526040902054829060ff16612f5a5760405162461bcd60e51b815260040161055b90615126565b60008281526003602052604090205415612f865760405162461bcd60e51b815260040161055b90615116565b506000828152600260209081526040808320805460018101825590845282842001849055928252600390522055565b86612fbf81612920565b612fdb5760405162461bcd60e51b815260040161055b906151f6565b845184511115612ffd5760405162461bcd60e51b815260040161055b90615186565b600061300988886135c9565b1215613046576000878152600b602090815260408220805460018101808355918452928290208951919361304393910191908a0190613716565b50505b600986604051613056919061507f565b90815260408051918290036020908101832060808401835288845283820188905291830186905260608301859052815460018101808455600093845292829020845180519495946004909302909101926130b5928492909101906137e0565b5060208281015180516130ce92600185019201906137e0565b50604082015180516130ea916002840191602090910190613716565b50606082015181600301555050505050505050505050565b60008061310e8361363b565b905060005b60065460ff610100909104811690821610156132175760ff81166000908152600760205260409020546002600019610100600184161502019091160415801590613201575060ff81166000908152600760209081526040918290208054835160026001831615610100026000190190921691909104601f810184900484028201840190945283815285936131ff939192918301828280156131f55780601f106131ca576101008083540402835291602001916131f5565b820191906000526020600020905b8154815290600101906020018083116131d857829003601f168201915b505050505061363b565b145b1561320f579150610b759050565b600101613113565b5060ff9392505050565b600654600090610100900460ff1661323883613102565b60ff161092915050565b6000805b60055481101561327e57826005828154811061325e57fe5b90600052602060002001541415613276579050610b75565b600101613246565b5060001992915050565b600060ff613296848461329e565b109392505050565b6000805b6008846040516132b2919061507f565b9081526040519081900360200190205460ff82161015613217576132d58361363b565b6133676008866040516132e8919061507f565b90815260200160405180910390208360ff168154811061330457fe5b600091825260209182902001805460408051601f60026000196101006001871615020190941693909304928301859004850281018501909152818152928301828280156131f55780601f106131ca576101008083540402835291602001916131f5565b14156133775760ff169050610dee565b6001016132a2565b6000816020015161338f81612920565b6133ab5760405162461bcd60e51b815260040161055b906151f6565b60005b6020808501516000908152600e90915260409020548110156134175761340384600e60008760200151815260200190815260200160002083815481106133f057fe5b906000526020600020906004020161366b565b1561340f579150612402565b6001016133ae565b506000199392505050565b8161342c81612920565b6134485760405162461bcd60e51b815260040161055b906151f6565b600182015b6000848152600e6020526040902054811015613507576000848152600e6020526040902080548290811061347d57fe5b9060005260206000209060040201600e600086815260200190815260200160002060018303815481106134ac57fe5b90600052602060002090600402016000820154816000015560018201548160010155600282018160020190805460018160011615610100020316600290046134f5929190613a03565b5060039182015491015560010161344d565b506000838152600e60205260409020805490610664906000198301613a77565b6000818152600f60205260408120546135525760405162461bcd60e51b815260040161055b90615156565b6000828152600f60205260408120905b60018201546000908152600e60205260409020548110156134175783600e60008460010154815260200190815260200160002082815481106135a057fe5b90600052602060002090600402016000015414156135c1579150610b759050565b600101613562565b6000805b6000848152600b60205260409020546001600160801b0382161015613417576135f58361363b565b6000858152600b60205260409020805461361d91906001600160801b03851690811061330457fe5b1415613633576001600160801b03169050610dee565b6001016135cd565b60008160405160200161364e919061507f565b604051602081830303815290604052805190602001209050919050565b80548251600091148015613686575081600101548360200151145b80156136fc5750600282810180546040805160206001841615610100026000190190931694909404601f81018390048302850183019091528084526136ed9392918301828280156131f55780601f106131ca576101008083540402835291602001916131f5565b6136fa846040015161363b565b145b801561370f575081600301548360600151145b9392505050565b828054600181600116156101000203166002900490600052602060002090601f016020900481019282601f1061375757805160ff1916838001178555613784565b82800160010185558215613784579182015b82811115613784578251825591602001919060010190613769565b50613790929150613aa3565b5090565b82600281019282156137d4579160200282015b828111156137d457825180516137c4918491602090910190613716565b50916020019190600101906137a7565b50613790929150613abd565b8280548282559060005260206000209081019282156137d4579160200282015b828111156137d4578251805161381d918491602090910190613716565b5091602001919060010190613800565b82805482825590600052602060002090810192821561387a579160200282015b8281111561387a578251805161386a9184916020909101906137e0565b509160200191906001019061384d565b50613790929150613ae0565b50805460018160011615610100020316600290046000825580601f106138ac57506138ca565b601f0160209004906000526020600020908101906138ca9190613aa3565b50565b6040805160808101825260008082526020820181905260609282018390529181019190915290565b60405180610160016040528060608152602001606081526020016060815260200160608152602001613925613b03565b81526020016060815260200160608152602001606081526020016060815260200160608152602001606081525090565b8280548282559060005260206000209081019282156137845760005260206000209182015b8281111561378457825482559160010191906001019061397a565b50805460008255906000526020600020908101906138ca9190613aa3565b6040518060a0016040528060608152602001606081526020016060815260200160608152602001606081525090565b60405180606001604052806060815260200160608152602001606081525090565b828054600181600116156101000203166002900490600052602060002090601f016020900481019282601f10613a3c5780548555613784565b8280016001018555821561378457600052602060002091601f016020900482018281111561378457825482559160010191906001019061397a565b81548183558181111561209f5760040281600402836000526020600020918201910161209f9190613b2a565b6113cd91905b808211156137905760008155600101613aa9565b6113cd91905b80821115613790576000613ad78282613886565b50600101613ac3565b6113cd91905b80821115613790576000613afa8282613b61565b50600101613ae6565b60405180604001604052806002905b6060815260200190600190039081613b125790505090565b6113cd91905b8082111561379057600080825560018201819055613b516002830182613886565b5060006003820155600401613b30565b50805460008255906000526020600020908101906138ca9190613abd565b8035610dee81615377565b600082601f830112613b9b57600080fd5b8135613bae613ba982615290565b61526a565b81815260209384019390925082018360005b83811015613bec5781358601613bd68882613c48565b8452506020928301929190910190600101613bc0565b5050505092915050565b600082601f830112613c0757600080fd5b6002613c15613ba9826152b0565b9150818360005b83811015613bec5781358601613c328882613d18565b8452506020928301929190910190600101613c1c565b600082601f830112613c5957600080fd5b8135613c67613ba982615290565b81815260209384019390925082018360005b83811015613bec5781358601613c8f8882613d18565b8452506020928301929190910190600101613c79565b600082601f830112613cb657600080fd5b8135613cc4613ba982615290565b81815260209384019390925082018360005b83811015613bec5781358601613cec8882613d18565b8452506020928301929190910190600101613cd6565b8035610dee8161538b565b8051610dee8161538b565b600082601f830112613d2957600080fd5b8135613d37613ba9826152cd565b91508082526020830160208301858383011115613d5357600080fd5b613d5e838284615335565b50505092915050565b600060808284031215613d7957600080fd5b613d83608061526a565b90506000613d918484613d02565b8252506020613da284848301613d02565b60208301525060408201356001600160401b03811115613dc157600080fd5b613dcd84828501613d18565b6040830152506060613de184828501613d02565b60608301525092915050565b600060608284031215613dff57600080fd5b613e09606061526a565b905081356001600160401b03811115613e2157600080fd5b613e2d84828501613d18565b82525060208201356001600160401b03811115613e4957600080fd5b613e5584828501613d18565b60208301525060408201356001600160401b03811115613e7457600080fd5b613e8084828501613d18565b60408301525092915050565b60006101608284031215613e9f57600080fd5b613eaa61016061526a565b905081356001600160401b03811115613ec257600080fd5b613ece84828501613d18565b82525060208201356001600160401b03811115613eea57600080fd5b613ef684828501613d18565b60208301525060408201356001600160401b03811115613f1557600080fd5b613f2184828501613d18565b60408301525060608201356001600160401b03811115613f4057600080fd5b613f4c84828501613d18565b60608301525060808201356001600160401b03811115613f6b57600080fd5b613f7784828501613bf6565b60808301525060a08201356001600160401b03811115613f9657600080fd5b613fa284828501613d18565b60a08301525060c08201356001600160401b03811115613fc157600080fd5b613fcd84828501613d18565b60c08301525060e08201356001600160401b03811115613fec57600080fd5b613ff884828501613d18565b60e0830152506101008201356001600160401b0381111561401857600080fd5b61402484828501613d18565b610100830152506101208201356001600160401b0381111561404557600080fd5b61405184828501613c48565b610120830152506101408201356001600160401b0381111561407257600080fd5b61407e84828501613b8a565b6101408301525092915050565b600060a0828403121561409d57600080fd5b6140a760a061526a565b905081356001600160401b038111156140bf57600080fd5b6140cb84828501613d18565b82525060208201356001600160401b038111156140e757600080fd5b6140f384828501613d18565b60208301525060408201356001600160401b0381111561411257600080fd5b61411e84828501613d18565b60408301525060608201356001600160401b0381111561413d57600080fd5b61414984828501613d18565b60608301525060808201356001600160401b0381111561416857600080fd5b61417484828501613d18565b60808301525092915050565b60006020828403121561419257600080fd5b600061419e8484613b7f565b949350505050565b6000602082840312156141b857600080fd5b600061419e8484613d02565b6000602082840312156141d657600080fd5b600061419e8484613d0d565b600080604083850312156141f557600080fd5b60006142018585613d02565b925050602061421285828601613d02565b9150509250929050565b600080600080600080600060e0888a03121561423757600080fd5b60006142438a8a613d02565b97505060206142548a828b01613d02565b96505060408801356001600160401b0381111561427057600080fd5b61427c8a828b01613d18565b95505060608801356001600160401b0381111561429857600080fd5b6142a48a828b01613ca5565b94505060808801356001600160401b038111156142c057600080fd5b6142cc8a828b01613ca5565b93505060a08801356001600160401b038111156142e857600080fd5b6142f48a828b01613d18565b92505060c06143058a828b01613d02565b91505092959891949750929550565b60008060006060848603121561432957600080fd5b60006143358686613d02565b93505060208401356001600160401b0381111561435157600080fd5b61435d86828701613d18565b92505060408401356001600160401b0381111561437957600080fd5b61438586828701613ded565b9150509250925092565b600080604083850312156143a257600080fd5b60006143ae8585613d02565b92505060208301356001600160401b038111156143ca57600080fd5b6142128582860161408b565b6000602082840312156143e857600080fd5b81356001600160401b038111156143fe57600080fd5b61419e84828501613d18565b6000806040838503121561441d57600080fd5b82356001600160401b0381111561443357600080fd5b61443f85828601613d18565b92505060208301356001600160401b0381111561445b57600080fd5b61421285828601613d18565b60008060006060848603121561447c57600080fd5b83356001600160401b0381111561449257600080fd5b61449e86828701613d18565b93505060208401356001600160401b038111156144ba57600080fd5b6144c686828701613d18565b92505060408401356001600160401b038111156144e257600080fd5b61438586828701613d18565b6000806040838503121561450157600080fd5b82356001600160401b0381111561451757600080fd5b61420185828601613d18565b60006020828403121561453557600080fd5b81356001600160401b0381111561454b57600080fd5b61419e84828501613d67565b6000806040838503121561456a57600080fd5b82356001600160401b0381111561458057600080fd5b61420185828601613e8c565b600061370f8383614774565b60006145a48383614901565b505060200190565b600061370f8383614939565b600061370f8383614ddf565b600061370f8383614e3b565b600061370f8383614fb3565b6145e581615319565b82525050565b60006145f682615306565b6146008185615310565b935083602082028501614612856152f4565b8060005b8581101561464c578484038952815161462f858261458c565b945061463a836152f4565b60209a909a0199925050600101614616565b5091979650505050505050565b600061466482615306565b61466e8185615310565b9350614679836152f4565b8060005b838110156146a75781516146918882614598565b975061469c836152f4565b92505060010161467d565b509495945050505050565b60006146bd8261530a565b6146c78185610b75565b9350836020820285016146d9856113cd565b8060005b8581101561464c57848403895281516146f685826145ac565b9450614701836152f4565b60209a909a01999250506001016146dd565b600061471e82615306565b6147288185615310565b93508360208202850161473a856152f4565b8060005b8581101561464c578484038952815161475785826145ac565b9450614762836152f4565b60209a909a019992505060010161473e565b600061477f82615306565b6147898185615310565b93508360208202850161479b856152f4565b8060005b8581101561464c57848403895281516147b885826145ac565b94506147c3836152f4565b60209a909a019992505060010161479f565b60006147e082615306565b6147ea8185615310565b9350836020820285016147fc856152f4565b8060005b8581101561464c578484038952815161481985826145b8565b9450614824836152f4565b60209a909a0199925050600101614800565b600061484182615306565b61484b8185615310565b93508360208202850161485d856152f4565b8060005b8581101561464c578484038952815161487a85826145c4565b9450614885836152f4565b60209a909a0199925050600101614861565b60006148a282615306565b6148ac8185615310565b9350836020820285016148be856152f4565b8060005b8581101561464c57848403895281516148db85826145d0565b94506148e6836152f4565b60209a909a01999250506001016148c2565b6145e581615324565b6145e5816113cd565b600061491582615306565b61491f8185610b75565b935061492f818560208601615341565b9290920192915050565b600061494482615306565b61494e8185615310565b935061495e818560208601615341565b6149678161536d565b9093019392505050565b60008154600181166000811461498e57600181146149b1576149f0565b607f600283041661499f8187610b75565b60ff19841681529550850192506149f0565b600282046149bf8187610b75565b95506149ca856152fa565b60005b828110156149e9578154888201526001909101906020016149cd565b5050850192505b505092915050565b6000614a05602183615310565b7f5468617420656d706c6f79656520616c726561647920776f726b7320746865728152606560f81b602082015260400192915050565b6000614a48602983615310565b7f596f75206d7573742062652061206465616c657273686970206f776e657220748152686f20646f207468697360b81b602082015260400192915050565b6000614a93601e83615310565b7f54686174207375627365727669636520616c7265616479206578697374730000815260200192915050565b6000614acc602183615310565b7f4e6f206170706c69636174696f6e2065786973747320666f72207468617420698152601960fa1b602082015260400192915050565b6000614b0f602183615310565b7f5573657220646f6573206e6f74206861766520616e206170706f696e746d656e8152601d60fa1b602082015260400192915050565b6000614b52601f83615310565b7f54686174206170706f696e746d656e7420646f6573206e6f7420657869737400815260200192915050565b6000614b8b602183615310565b7f4d6178696d756d207375627365727669636520616d6f756e74207265616368658152601960fa1b602082015260400192915050565b6000614bce603383615310565b7f4e756d626572206f6620737562736572766963657320646f6573206e6f74206d8152720c2e8c6d040e6cae4ecd2c6ca40d8cadccee8d606b1b602082015260400192915050565b6000614c23601583615310565b742cb7ba9030b932903737ba103a34329037bbb732b960591b815260200192915050565b6000614c54602c83615310565b7f54686174207375627365727669636520646f65736e7420657869737420696e2081526b1d1a1a5cc818dbdb9d195e1d60a21b602082015260400192915050565b6000614ca2601b83615310565b7f54686174207365727669636520646f6573206e6f742065786973740000000000815260200192915050565b6000614cdb602283615310565b7f54686174206164647265737320697320616c7265616479207265676973746572815261195960f21b602082015260400192915050565b6000614d1f601b83615310565b7f54686174207365727669636520616c7265616479206578697374730000000000815260200192915050565b6000614d58602883615310565b7f54686572652061726520746865206d6178696d756d206e756d626572206f6620815267736572766963657360c01b602082015260400192915050565b6000614da2602883615310565b7f596f75206d7573742062652061207665726966696564206465616c657220746f81526720646f207468697360c01b602082015260400192915050565b80516000906080840190614df38582614901565b506020830151614e066020860182614901565b5060408301518482036040860152614e1e8282614939565b9150506060830151614e336060860182614901565b509392505050565b8051606080845260009190840190614e538282614939565b91505060208301518482036020860152614e6d8282614939565b91505060408301518482036040860152614e878282614939565b95945050505050565b805161016080845260009190840190614ea98282614939565b91505060208301518482036020860152614ec38282614939565b91505060408301518482036040860152614edd8282614939565b91505060608301518482036060860152614ef78282614939565b91505060808301518482036080860152614f1182826146b2565b91505060a083015184820360a0860152614f2b8282614939565b91505060c083015184820360c0860152614f458282614939565b91505060e083015184820360e0860152614f5f8282614939565b915050610100830151848203610100860152614f7b8282614939565b915050610120830151848203610120860152614f978282614774565b915050610140830151848203610140860152614e8782826145eb565b8051608080845260009190840190614fcb8282614774565b91505060208301518482036020860152614fe58282614774565b91505060408301518482036040860152614e1e8282614939565b805160a0808452600091908401906150178282614939565b915050602083015184820360208601526150318282614939565b9150506040830151848203604086015261504b8282614939565b915050606083015184820360608601526150658282614939565b91505060808301518482036080860152614e878282614939565b600061370f828461490a565b600061370f8284614971565b60208101610dee82846145dc565b6020808252810161370f8184614659565b6020808252810161370f8184614713565b6020808252810161370f81846147d5565b6020808252810161370f8184614836565b6020808252810161370f8184614897565b60208101610dee82846148f8565b60208101610dee8284614901565b60208082528101610dee816149f8565b60208082528101610dee81614a3b565b60208082528101610dee81614a86565b60208082528101610dee81614abf565b60208082528101610dee81614b02565b60208082528101610dee81614b45565b60208082528101610dee81614b7e565b60208082528101610dee81614bc1565b60208082528101610dee81614c16565b60208082528101610dee81614c47565b60208082528101610dee81614c95565b60208082528101610dee81614cce565b60208082528101610dee81614d12565b60208082528101610dee81614d4b565b60208082528101610dee81614d95565b6020808252810161370f8184614ddf565b6020808252810161370f8184614e3b565b6020808252810161370f8184614e90565b6040808252810161524a8185614e90565b905061370f6020830184614901565b6020808252810161370f8184614fff565b6040518181016001600160401b038111828210171561528857600080fd5b604052919050565b60006001600160401b038211156152a657600080fd5b5060209081020190565b60006001600160401b038211156152c657600080fd5b5060200290565b60006001600160401b038211156152e357600080fd5b506020601f91909101601f19160190565b60200190565b60009081526020902090565b5190565b50600290565b90815260200190565b6000610dee82615329565b151590565b6001600160a01b031690565b82818337506000910152565b60005b8381101561535c578181015183820152602001615344565b838111156106645750506000910152565b601f01601f191690565b61538081615319565b81146138ca57600080fd5b615380816113cd56fea365627a7a72315820d452c6e50a8ed81efcabd607d1958f3d2d59e8e8e9512afeb0830f31fd8b0c616c6578706572696d656e74616cf564736f6c634300050c0040",
  "source": "pragma solidity ^0.5.11;\npragma experimental ABIEncoderV2;\n\nimport \"./AppointmentHandler.sol\";\n\ncontract NotificationHandler is AppointmentHandler {\n\n    mapping(string => uint) public notificationTimes;\n    mapping(bytes32 => uint[]) private userNotificationTime;\n\n    function insertRecord(bytes32 dealerId, bytes32 id, string memory noPlate,\n     string[] memory services, string[] memory subservices, string memory comment, uint timeStamp)\n        public verified(dealerId) {\n        super.insertRecord(dealerId,id,noPlate,services,subservices,comment,timeStamp);\n        for(uint i = 0; i < services.length; i++){\n            uint8 serviceIndex = getIndexOfService(services[i]);\n            userNotificationTime[id][serviceIndex] = timeStamp;\n        }\n    }\n\n    function setServiceNotificationTime(string memory serviceName, uint time) public ownerOnly {\n        notificationTimes[serviceName] = time;\n    }\n}",
  "sourcePath": "/home/brandon/Documents/_Important/Uni/Blockchain/Final project/contracts/NotificationHandler.sol",
  "compiler": {
    "name": "solc",
    "version": "0.5.12+commit.7709ece9.Emscripten.clang"
  },
  "schemaVersion": "3.0.19",
  "updatedAt": "2019-11-29T09:37:05.575Z",
  "networkType": "ethereum",
  "devdoc": {
    "methods": {}
  },
  "userdoc": {
    "methods": {}
  }
}