{
  "contractName": "NotificationHandler",
  "abi": [
    {
      "anonymous": false,
      "inputs": [
        {
          "components": [
            {
              "internalType": "string",
              "name": "dealerName",
              "type": "string"
            },
            {
              "internalType": "string",
              "name": "firstName",
              "type": "string"
            },
            {
              "internalType": "string",
              "name": "lastName",
              "type": "string"
            },
            {
              "internalType": "string",
              "name": "addr",
              "type": "string"
            },
            {
              "internalType": "string[2]",
              "name": "location",
              "type": "string[2]"
            },
            {
              "internalType": "string",
              "name": "phoneNo",
              "type": "string"
            },
            {
              "internalType": "string",
              "name": "bestSeller",
              "type": "string"
            },
            {
              "internalType": "string",
              "name": "promotion",
              "type": "string"
            },
            {
              "internalType": "string",
              "name": "otherServices",
              "type": "string"
            },
            {
              "internalType": "string[]",
              "name": "availableServices",
              "type": "string[]"
            },
            {
              "internalType": "string[][]",
              "name": "availableSubServices",
              "type": "string[][]"
            }
          ],
          "indexed": false,
          "internalType": "struct DealerContract.DealerInfo",
          "name": "info",
          "type": "tuple"
        },
        {
          "indexed": false,
          "internalType": "bytes32",
          "name": "id",
          "type": "bytes32"
        }
      ],
      "name": "ApplicationApproved",
      "type": "event"
    },
    {
      "anonymous": false,
      "inputs": [
        {
          "components": [
            {
              "internalType": "string",
              "name": "dealerName",
              "type": "string"
            },
            {
              "internalType": "string",
              "name": "firstName",
              "type": "string"
            },
            {
              "internalType": "string",
              "name": "lastName",
              "type": "string"
            },
            {
              "internalType": "string",
              "name": "addr",
              "type": "string"
            },
            {
              "internalType": "string[2]",
              "name": "location",
              "type": "string[2]"
            },
            {
              "internalType": "string",
              "name": "phoneNo",
              "type": "string"
            },
            {
              "internalType": "string",
              "name": "bestSeller",
              "type": "string"
            },
            {
              "internalType": "string",
              "name": "promotion",
              "type": "string"
            },
            {
              "internalType": "string",
              "name": "otherServices",
              "type": "string"
            },
            {
              "internalType": "string[]",
              "name": "availableServices",
              "type": "string[]"
            },
            {
              "internalType": "string[][]",
              "name": "availableSubServices",
              "type": "string[][]"
            }
          ],
          "indexed": false,
          "internalType": "struct DealerContract.DealerInfo",
          "name": "info",
          "type": "tuple"
        },
        {
          "indexed": false,
          "internalType": "bytes32",
          "name": "id",
          "type": "bytes32"
        }
      ],
      "name": "ApplicationRejected",
      "type": "event"
    },
    {
      "anonymous": false,
      "inputs": [
        {
          "components": [
            {
              "internalType": "string",
              "name": "dealerName",
              "type": "string"
            },
            {
              "internalType": "string",
              "name": "firstName",
              "type": "string"
            },
            {
              "internalType": "string",
              "name": "lastName",
              "type": "string"
            },
            {
              "internalType": "string",
              "name": "addr",
              "type": "string"
            },
            {
              "internalType": "string[2]",
              "name": "location",
              "type": "string[2]"
            },
            {
              "internalType": "string",
              "name": "phoneNo",
              "type": "string"
            },
            {
              "internalType": "string",
              "name": "bestSeller",
              "type": "string"
            },
            {
              "internalType": "string",
              "name": "promotion",
              "type": "string"
            },
            {
              "internalType": "string",
              "name": "otherServices",
              "type": "string"
            },
            {
              "internalType": "string[]",
              "name": "availableServices",
              "type": "string[]"
            },
            {
              "internalType": "string[][]",
              "name": "availableSubServices",
              "type": "string[][]"
            }
          ],
          "indexed": false,
          "internalType": "struct DealerContract.DealerInfo",
          "name": "info",
          "type": "tuple"
        },
        {
          "indexed": false,
          "internalType": "bytes32",
          "name": "id",
          "type": "bytes32"
        }
      ],
      "name": "CreateDealerApplication",
      "type": "event"
    },
    {
      "constant": false,
      "inputs": [
        {
          "internalType": "bytes32",
          "name": "dealerId",
          "type": "bytes32"
        },
        {
          "internalType": "bytes32",
          "name": "adr",
          "type": "bytes32"
        }
      ],
      "name": "addDealerEmployee",
      "outputs": [],
      "payable": false,
      "stateMutability": "nonpayable",
      "type": "function"
    },
    {
      "constant": false,
      "inputs": [
        {
          "internalType": "string",
          "name": "serviceName",
          "type": "string"
        }
      ],
      "name": "addService",
      "outputs": [],
      "payable": false,
      "stateMutability": "nonpayable",
      "type": "function"
    },
    {
      "constant": false,
      "inputs": [
        {
          "internalType": "string",
          "name": "serviceName",
          "type": "string"
        },
        {
          "internalType": "string",
          "name": "subServiceName",
          "type": "string"
        }
      ],
      "name": "addSubService",
      "outputs": [],
      "payable": false,
      "stateMutability": "nonpayable",
      "type": "function"
    },
    {
      "constant": false,
      "inputs": [
        {
          "internalType": "bytes32",
          "name": "adr",
          "type": "bytes32"
        }
      ],
      "name": "approveApplication",
      "outputs": [],
      "payable": false,
      "stateMutability": "nonpayable",
      "type": "function"
    },
    {
      "constant": false,
      "inputs": [
        {
          "components": [
            {
              "internalType": "bytes32",
              "name": "userId",
              "type": "bytes32"
            },
            {
              "internalType": "bytes32",
              "name": "dealerId",
              "type": "bytes32"
            },
            {
              "internalType": "string",
              "name": "carPlate",
              "type": "string"
            },
            {
              "internalType": "int256",
              "name": "time",
              "type": "int256"
            }
          ],
          "internalType": "struct AppointmentHandler.Appointment",
          "name": "appointment",
          "type": "tuple"
        }
      ],
      "name": "cancelAppointment",
      "outputs": [],
      "payable": false,
      "stateMutability": "nonpayable",
      "type": "function"
    },
    {
      "constant": false,
      "inputs": [
        {
          "components": [
            {
              "internalType": "bytes32",
              "name": "userId",
              "type": "bytes32"
            },
            {
              "internalType": "bytes32",
              "name": "dealerId",
              "type": "bytes32"
            },
            {
              "internalType": "string",
              "name": "carPlate",
              "type": "string"
            },
            {
              "internalType": "int256",
              "name": "time",
              "type": "int256"
            }
          ],
          "internalType": "struct AppointmentHandler.Appointment",
          "name": "appointment",
          "type": "tuple"
        }
      ],
      "name": "completeAppointment",
      "outputs": [],
      "payable": false,
      "stateMutability": "nonpayable",
      "type": "function"
    },
    {
      "constant": false,
      "inputs": [
        {
          "components": [
            {
              "internalType": "bytes32",
              "name": "userId",
              "type": "bytes32"
            },
            {
              "internalType": "bytes32",
              "name": "dealerId",
              "type": "bytes32"
            },
            {
              "internalType": "string",
              "name": "carPlate",
              "type": "string"
            },
            {
              "internalType": "int256",
              "name": "time",
              "type": "int256"
            }
          ],
          "internalType": "struct AppointmentHandler.Appointment",
          "name": "appointment",
          "type": "tuple"
        }
      ],
      "name": "createAppointment",
      "outputs": [],
      "payable": false,
      "stateMutability": "nonpayable",
      "type": "function"
    },
    {
      "constant": false,
      "inputs": [
        {
          "components": [
            {
              "internalType": "string",
              "name": "dealerName",
              "type": "string"
            },
            {
              "internalType": "string",
              "name": "firstName",
              "type": "string"
            },
            {
              "internalType": "string",
              "name": "lastName",
              "type": "string"
            },
            {
              "internalType": "string",
              "name": "addr",
              "type": "string"
            },
            {
              "internalType": "string[2]",
              "name": "location",
              "type": "string[2]"
            },
            {
              "internalType": "string",
              "name": "phoneNo",
              "type": "string"
            },
            {
              "internalType": "string",
              "name": "bestSeller",
              "type": "string"
            },
            {
              "internalType": "string",
              "name": "promotion",
              "type": "string"
            },
            {
              "internalType": "string",
              "name": "otherServices",
              "type": "string"
            },
            {
              "internalType": "string[]",
              "name": "availableServices",
              "type": "string[]"
            },
            {
              "internalType": "string[][]",
              "name": "availableSubServices",
              "type": "string[][]"
            }
          ],
          "internalType": "struct DealerContract.DealerInfo",
          "name": "info",
          "type": "tuple"
        },
        {
          "internalType": "bytes32",
          "name": "id",
          "type": "bytes32"
        }
      ],
      "name": "createDealerApplication",
      "outputs": [],
      "payable": false,
      "stateMutability": "nonpayable",
      "type": "function"
    },
    {
      "constant": false,
      "inputs": [
        {
          "internalType": "string",
          "name": "serviceName",
          "type": "string"
        }
      ],
      "name": "deleteService",
      "outputs": [],
      "payable": false,
      "stateMutability": "nonpayable",
      "type": "function"
    },
    {
      "constant": false,
      "inputs": [
        {
          "internalType": "string",
          "name": "serviceName",
          "type": "string"
        },
        {
          "internalType": "string",
          "name": "subServiceName",
          "type": "string"
        }
      ],
      "name": "deleteSubService",
      "outputs": [],
      "payable": false,
      "stateMutability": "nonpayable",
      "type": "function"
    },
    {
      "constant": false,
      "inputs": [
        {
          "internalType": "bytes32",
          "name": "userId",
          "type": "bytes32"
        },
        {
          "internalType": "string",
          "name": "noPlate",
          "type": "string"
        },
        {
          "components": [
            {
              "internalType": "string",
              "name": "brand",
              "type": "string"
            },
            {
              "internalType": "string",
              "name": "model",
              "type": "string"
            },
            {
              "internalType": "string",
              "name": "year",
              "type": "string"
            }
          ],
          "internalType": "struct UserContract.CarInfo",
          "name": "carInfo",
          "type": "tuple"
        }
      ],
      "name": "editCarDetails",
      "outputs": [],
      "payable": false,
      "stateMutability": "nonpayable",
      "type": "function"
    },
    {
      "constant": false,
      "inputs": [
        {
          "components": [
            {
              "internalType": "string",
              "name": "dealerName",
              "type": "string"
            },
            {
              "internalType": "string",
              "name": "firstName",
              "type": "string"
            },
            {
              "internalType": "string",
              "name": "lastName",
              "type": "string"
            },
            {
              "internalType": "string",
              "name": "addr",
              "type": "string"
            },
            {
              "internalType": "string[2]",
              "name": "location",
              "type": "string[2]"
            },
            {
              "internalType": "string",
              "name": "phoneNo",
              "type": "string"
            },
            {
              "internalType": "string",
              "name": "bestSeller",
              "type": "string"
            },
            {
              "internalType": "string",
              "name": "promotion",
              "type": "string"
            },
            {
              "internalType": "string",
              "name": "otherServices",
              "type": "string"
            },
            {
              "internalType": "string[]",
              "name": "availableServices",
              "type": "string[]"
            },
            {
              "internalType": "string[][]",
              "name": "availableSubServices",
              "type": "string[][]"
            }
          ],
          "internalType": "struct DealerContract.DealerInfo",
          "name": "info",
          "type": "tuple"
        },
        {
          "internalType": "bytes32",
          "name": "id",
          "type": "bytes32"
        }
      ],
      "name": "editDealerInfo",
      "outputs": [],
      "payable": false,
      "stateMutability": "nonpayable",
      "type": "function"
    },
    {
      "constant": false,
      "inputs": [
        {
          "internalType": "string",
          "name": "oldName",
          "type": "string"
        },
        {
          "internalType": "string",
          "name": "newName",
          "type": "string"
        }
      ],
      "name": "editServiceName",
      "outputs": [],
      "payable": false,
      "stateMutability": "nonpayable",
      "type": "function"
    },
    {
      "constant": false,
      "inputs": [
        {
          "internalType": "string",
          "name": "serviceName",
          "type": "string"
        },
        {
          "internalType": "string",
          "name": "oldName",
          "type": "string"
        },
        {
          "internalType": "string",
          "name": "newName",
          "type": "string"
        }
      ],
      "name": "editSubServiceName",
      "outputs": [],
      "payable": false,
      "stateMutability": "nonpayable",
      "type": "function"
    },
    {
      "constant": false,
      "inputs": [
        {
          "internalType": "bytes32",
          "name": "userId",
          "type": "bytes32"
        },
        {
          "components": [
            {
              "internalType": "string",
              "name": "firstName",
              "type": "string"
            },
            {
              "internalType": "string",
              "name": "lastName",
              "type": "string"
            },
            {
              "internalType": "string",
              "name": "adr",
              "type": "string"
            },
            {
              "internalType": "string",
              "name": "phNo",
              "type": "string"
            },
            {
              "internalType": "string",
              "name": "email",
              "type": "string"
            }
          ],
          "internalType": "struct UserContract.UserInfo",
          "name": "info",
          "type": "tuple"
        }
      ],
      "name": "editUserInfo",
      "outputs": [],
      "payable": false,
      "stateMutability": "nonpayable",
      "type": "function"
    },
    {
      "constant": true,
      "inputs": [],
      "name": "getAllDealerApplications",
      "outputs": [
        {
          "internalType": "bytes32[]",
          "name": "",
          "type": "bytes32[]"
        }
      ],
      "payable": false,
      "stateMutability": "view",
      "type": "function"
    },
    {
      "constant": true,
      "inputs": [],
      "name": "getAllUsers",
      "outputs": [
        {
          "internalType": "bytes32[]",
          "name": "",
          "type": "bytes32[]"
        }
      ],
      "payable": false,
      "stateMutability": "view",
      "type": "function"
    },
    {
      "constant": true,
      "inputs": [
        {
          "internalType": "bytes32",
          "name": "dealerId",
          "type": "bytes32"
        }
      ],
      "name": "getAppointmentHistory",
      "outputs": [
        {
          "components": [
            {
              "internalType": "bytes32",
              "name": "userId",
              "type": "bytes32"
            },
            {
              "internalType": "bytes32",
              "name": "dealerId",
              "type": "bytes32"
            },
            {
              "internalType": "string",
              "name": "carPlate",
              "type": "string"
            },
            {
              "internalType": "int256",
              "name": "time",
              "type": "int256"
            }
          ],
          "internalType": "struct AppointmentHandler.Appointment[]",
          "name": "",
          "type": "tuple[]"
        }
      ],
      "payable": false,
      "stateMutability": "view",
      "type": "function"
    },
    {
      "constant": true,
      "inputs": [
        {
          "internalType": "string",
          "name": "noPlate",
          "type": "string"
        }
      ],
      "name": "getCarDetails",
      "outputs": [
        {
          "components": [
            {
              "internalType": "string",
              "name": "brand",
              "type": "string"
            },
            {
              "internalType": "string",
              "name": "model",
              "type": "string"
            },
            {
              "internalType": "string",
              "name": "year",
              "type": "string"
            }
          ],
          "internalType": "struct UserContract.CarInfo",
          "name": "",
          "type": "tuple"
        }
      ],
      "payable": false,
      "stateMutability": "view",
      "type": "function"
    },
    {
      "constant": true,
      "inputs": [
        {
          "internalType": "bytes32",
          "name": "userId",
          "type": "bytes32"
        }
      ],
      "name": "getCarPlates",
      "outputs": [
        {
          "internalType": "string[]",
          "name": "",
          "type": "string[]"
        }
      ],
      "payable": false,
      "stateMutability": "view",
      "type": "function"
    },
    {
      "constant": true,
      "inputs": [
        {
          "internalType": "bytes32",
          "name": "userId",
          "type": "bytes32"
        }
      ],
      "name": "getCars",
      "outputs": [
        {
          "components": [
            {
              "internalType": "string",
              "name": "brand",
              "type": "string"
            },
            {
              "internalType": "string",
              "name": "model",
              "type": "string"
            },
            {
              "internalType": "string",
              "name": "year",
              "type": "string"
            }
          ],
          "internalType": "struct UserContract.CarInfo[]",
          "name": "",
          "type": "tuple[]"
        }
      ],
      "payable": false,
      "stateMutability": "view",
      "type": "function"
    },
    {
      "constant": true,
      "inputs": [
        {
          "internalType": "bytes32",
          "name": "id",
          "type": "bytes32"
        }
      ],
      "name": "getDealerInfo",
      "outputs": [
        {
          "components": [
            {
              "internalType": "string",
              "name": "dealerName",
              "type": "string"
            },
            {
              "internalType": "string",
              "name": "firstName",
              "type": "string"
            },
            {
              "internalType": "string",
              "name": "lastName",
              "type": "string"
            },
            {
              "internalType": "string",
              "name": "addr",
              "type": "string"
            },
            {
              "internalType": "string[2]",
              "name": "location",
              "type": "string[2]"
            },
            {
              "internalType": "string",
              "name": "phoneNo",
              "type": "string"
            },
            {
              "internalType": "string",
              "name": "bestSeller",
              "type": "string"
            },
            {
              "internalType": "string",
              "name": "promotion",
              "type": "string"
            },
            {
              "internalType": "string",
              "name": "otherServices",
              "type": "string"
            },
            {
              "internalType": "string[]",
              "name": "availableServices",
              "type": "string[]"
            },
            {
              "internalType": "string[][]",
              "name": "availableSubServices",
              "type": "string[][]"
            }
          ],
          "internalType": "struct DealerContract.DealerInfo",
          "name": "",
          "type": "tuple"
        }
      ],
      "payable": false,
      "stateMutability": "view",
      "type": "function"
    },
    {
      "constant": true,
      "inputs": [
        {
          "internalType": "string",
          "name": "id",
          "type": "string"
        }
      ],
      "name": "getHash",
      "outputs": [
        {
          "internalType": "bytes32",
          "name": "",
          "type": "bytes32"
        }
      ],
      "payable": false,
      "stateMutability": "pure",
      "type": "function"
    },
    {
      "constant": true,
      "inputs": [
        {
          "internalType": "bytes32",
          "name": "dealerId",
          "type": "bytes32"
        }
      ],
      "name": "getPendingAppointments",
      "outputs": [
        {
          "components": [
            {
              "internalType": "bytes32",
              "name": "userId",
              "type": "bytes32"
            },
            {
              "internalType": "bytes32",
              "name": "dealerId",
              "type": "bytes32"
            },
            {
              "internalType": "string",
              "name": "carPlate",
              "type": "string"
            },
            {
              "internalType": "int256",
              "name": "time",
              "type": "int256"
            }
          ],
          "internalType": "struct AppointmentHandler.Appointment[]",
          "name": "",
          "type": "tuple[]"
        }
      ],
      "payable": false,
      "stateMutability": "view",
      "type": "function"
    },
    {
      "constant": true,
      "inputs": [
        {
          "internalType": "string",
          "name": "noPlate",
          "type": "string"
        }
      ],
      "name": "getRecords",
      "outputs": [
        {
          "components": [
            {
              "internalType": "bytes32",
              "name": "dealerId",
              "type": "bytes32"
            },
            {
              "internalType": "string[]",
              "name": "services",
              "type": "string[]"
            },
            {
              "internalType": "string[]",
              "name": "subservices",
              "type": "string[]"
            },
            {
              "internalType": "string",
              "name": "comment",
              "type": "string"
            },
            {
              "internalType": "uint256",
              "name": "timeStamp",
              "type": "uint256"
            }
          ],
          "internalType": "struct UserContract.RecordInternal[]",
          "name": "",
          "type": "tuple[]"
        }
      ],
      "payable": false,
      "stateMutability": "view",
      "type": "function"
    },
    {
      "constant": true,
      "inputs": [],
      "name": "getServices",
      "outputs": [
        {
          "internalType": "string[]",
          "name": "",
          "type": "string[]"
        }
      ],
      "payable": false,
      "stateMutability": "view",
      "type": "function"
    },
    {
      "constant": true,
      "inputs": [
        {
          "internalType": "string",
          "name": "serviceName",
          "type": "string"
        }
      ],
      "name": "getSubServices",
      "outputs": [
        {
          "internalType": "string[]",
          "name": "",
          "type": "string[]"
        }
      ],
      "payable": false,
      "stateMutability": "view",
      "type": "function"
    },
    {
      "constant": true,
      "inputs": [
        {
          "internalType": "bytes32",
          "name": "userId",
          "type": "bytes32"
        }
      ],
      "name": "getUserAppointment",
      "outputs": [
        {
          "components": [
            {
              "internalType": "bytes32",
              "name": "userId",
              "type": "bytes32"
            },
            {
              "internalType": "bytes32",
              "name": "dealerId",
              "type": "bytes32"
            },
            {
              "internalType": "string",
              "name": "carPlate",
              "type": "string"
            },
            {
              "internalType": "int256",
              "name": "time",
              "type": "int256"
            }
          ],
          "internalType": "struct AppointmentHandler.Appointment",
          "name": "",
          "type": "tuple"
        }
      ],
      "payable": false,
      "stateMutability": "view",
      "type": "function"
    },
    {
      "constant": true,
      "inputs": [
        {
          "internalType": "bytes32",
          "name": "userId",
          "type": "bytes32"
        }
      ],
      "name": "getUserInfo",
      "outputs": [
        {
          "components": [
            {
              "internalType": "string",
              "name": "firstName",
              "type": "string"
            },
            {
              "internalType": "string",
              "name": "lastName",
              "type": "string"
            },
            {
              "internalType": "string",
              "name": "adr",
              "type": "string"
            },
            {
              "internalType": "string",
              "name": "phNo",
              "type": "string"
            },
            {
              "internalType": "string",
              "name": "email",
              "type": "string"
            }
          ],
          "internalType": "struct UserContract.UserInfo",
          "name": "",
          "type": "tuple"
        }
      ],
      "payable": false,
      "stateMutability": "view",
      "type": "function"
    },
    {
      "constant": true,
      "inputs": [
        {
          "internalType": "bytes32",
          "name": "adr",
          "type": "bytes32"
        }
      ],
      "name": "isVerified",
      "outputs": [
        {
          "internalType": "bool",
          "name": "",
          "type": "bool"
        }
      ],
      "payable": false,
      "stateMutability": "view",
      "type": "function"
    },
    {
      "constant": true,
      "inputs": [
        {
          "internalType": "string",
          "name": "",
          "type": "string"
        }
      ],
      "name": "notificationTimes",
      "outputs": [
        {
          "internalType": "uint256",
          "name": "",
          "type": "uint256"
        }
      ],
      "payable": false,
      "stateMutability": "view",
      "type": "function"
    },
    {
      "constant": true,
      "inputs": [],
      "name": "owner",
      "outputs": [
        {
          "internalType": "address",
          "name": "",
          "type": "address"
        }
      ],
      "payable": false,
      "stateMutability": "view",
      "type": "function"
    },
    {
      "constant": false,
      "inputs": [
        {
          "internalType": "bytes32",
          "name": "adr",
          "type": "bytes32"
        }
      ],
      "name": "rejectApplication",
      "outputs": [],
      "payable": false,
      "stateMutability": "nonpayable",
      "type": "function"
    },
    {
      "constant": false,
      "inputs": [
        {
          "internalType": "bytes32",
          "name": "dealershipId",
          "type": "bytes32"
        },
        {
          "internalType": "bytes32",
          "name": "otherId",
          "type": "bytes32"
        }
      ],
      "name": "transferDealershipOwner",
      "outputs": [],
      "payable": false,
      "stateMutability": "nonpayable",
      "type": "function"
    },
    {
      "constant": false,
      "inputs": [
        {
          "internalType": "address",
          "name": "newOwner",
          "type": "address"
        }
      ],
      "name": "transferOwner",
      "outputs": [],
      "payable": false,
      "stateMutability": "nonpayable",
      "type": "function"
    },
    {
      "constant": false,
      "inputs": [
        {
          "internalType": "bytes32",
          "name": "dealerId",
          "type": "bytes32"
        },
        {
          "internalType": "bytes32",
          "name": "id",
          "type": "bytes32"
        },
        {
          "internalType": "string",
          "name": "noPlate",
          "type": "string"
        },
        {
          "internalType": "string[]",
          "name": "services",
          "type": "string[]"
        },
        {
          "internalType": "string[]",
          "name": "subservices",
          "type": "string[]"
        },
        {
          "internalType": "string",
          "name": "comment",
          "type": "string"
        },
        {
          "internalType": "uint256",
          "name": "timeStamp",
          "type": "uint256"
        }
      ],
      "name": "insertRecord",
      "outputs": [],
      "payable": false,
      "stateMutability": "nonpayable",
      "type": "function"
    },
    {
      "constant": true,
      "inputs": [
        {
          "internalType": "bytes32",
          "name": "userId",
          "type": "bytes32"
        }
      ],
      "name": "getLastServiceTimes",
      "outputs": [
        {
          "internalType": "uint256[255]",
          "name": "",
          "type": "uint256[255]"
        }
      ],
      "payable": false,
      "stateMutability": "view",
      "type": "function"
    },
    {
      "constant": false,
      "inputs": [
        {
          "internalType": "string",
          "name": "serviceName",
          "type": "string"
        },
        {
          "internalType": "uint256",
          "name": "time",
          "type": "uint256"
        }
      ],
      "name": "setServiceNotificationTime",
      "outputs": [],
      "payable": false,
      "stateMutability": "nonpayable",
      "type": "function"
    }
  ],
  "bytecode": "0x60806040526006805461fe0061ff0019909116179055600080546001600160a01b03191633179055615b94806100366000396000f3fe608060405234801561001057600080fd5b50600436106102325760003560e01c806382d7afbd11610130578063b2c9ae60116100b8578063d872acac1161007c578063d872acac14610523578063ddb5f47614610543578063e2842d7914610563578063e445268c1461056b578063fcda35f91461057e57610232565b8063b2c9ae60146104aa578063b63e01d2146104bd578063c181b273146104d0578063c4e91d17146104f0578063c9b54a581461050357610232565b80638ee24214116100ff5780638ee24214146104315780638f2b51441461044457806399ec14f814610457578063a44e4c701461046a578063adff8b0f1461048a57610232565b806382d7afbd146103d657806386e80b71146103e957806388fcd194146104095780638da5cb5b1461041c57610232565b806350fb95e3116101be5780636fd7d2b5116101825780636fd7d2b514610373578063752326c11461038657806375417851146103995780637d17f13c146103a15780637e41667f146103c157610232565b806350fb95e3146102fa5780635a82610c1461030d5780635b6beeb91461032057806360e9480b146103405780636b350edc1461035357610232565b80631b8f47fe116102055780631b8f47fe1461028557806335f5dbd414610298578063369bfce4146102ab578063431a65fc146102be5780634fb2e45d146102e757610232565b80630ad5be91146102375780630eb7bc8f1461024c5780631118127a1461025f5780631a4c85be14610272575b600080fd5b61024a610245366004614656565b610591565b005b61024a61025a366004614844565b610630565b61024a61026d366004614991565b6106bb565b61024a610280366004614810565b6108a9565b61024a6102933660046145e0565b61097c565b61024a6102a6366004614928565b610a5c565b61024a6102b9366004614844565b610aab565b6102d16102cc366004614810565b610c32565b6040516102de9190615843565b60405180910390f35b61024a6102f53660046145ba565b610d29565b61024a610308366004614844565b610d75565b61024a61031b36600461495d565b610e4f565b61033361032e366004614810565b610f25565b6040516102de91906158a4565b61024a61034e36600461495d565b610f9a565b6103666103613660046145e0565b611210565b6040516102de9190615887565b61024a6103813660046148a1565b611259565b61024a610394366004614991565b611303565b6102d161146a565b6103b46103af3660046145e0565b6115bf565b6040516102de91906159c4565b6103c9611d49565b6040516102de9190615832565b61024a6103e436600461461c565b611dcc565b6103fc6103f7366004614810565b611ec8565b6040516102de9190615876565b61024a610417366004614810565b612192565b6104246122a0565b6040516102de9190615824565b61024a61043f36600461474e565b6122af565b6102d16104523660046145e0565b6123b6565b610333610465366004614810565b612496565b61047d6104783660046145e0565b6124b3565b6040516102de9190615854565b61049d6104983660046145e0565b612603565b6040516102de9190615a06565b61024a6104b836600461495d565b612915565b61047d6104cb3660046145e0565b6129d8565b6104e36104de3660046145e0565b612b1b565b6040516102de9190615896565b61024a6104fe3660046147c9565b612b48565b6105166105113660046145e0565b612bda565b6040516102de9190615865565b610536610531366004614810565b612e7c565b6040516102de91906159b3565b6105566105513660046145e0565b613038565b6040516102de91906159a2565b6103c9613125565b61024a61057936600461461c565b6131a6565b61024a61058c3660046145e0565b613231565b8661059b81612b1b565b6105c05760405162461bcd60e51b81526004016105b790615992565b60405180910390fd5b6105cf888888888888886132f4565b60005b85518110156106255760006105f98783815181106105ec57fe5b6020026020010151613499565b60008a8152601260205260409020909150849060ff80841690811061061a57fe5b0155506001016105d2565b505050505050505050565b6000546001600160a01b0316331461065a5760405162461bcd60e51b81526004016105b790615932565b81610664816135b8565b6106805760405162461bcd60e51b81526004016105b790615952565b816007600061068e86613499565b60ff1660ff16815260200190815260200160002090805190602001906106b5929190613ae9565b50505050565b60008181526001602052604090205460ff16156106ea5760405162461bcd60e51b81526004016105b790615962565b600081815260046020908152604090912083518051859361070f928492910190613ae9565b5060208281015180516107289260018501920190613ae9565b5060408201518051610744916002840191602090910190613ae9565b5060608201518051610760916003840191602090910190613ae9565b5060808201516107769060048301906002613b67565b5060a08201518051610792916006840191602090910190613ae9565b5060c082015180516107ae916007840191602090910190613ae9565b5060e082015180516107ca916008840191602090910190613ae9565b5061010082015180516107e7916009840191602090910190613ae9565b50610120820151805161080491600a840191602090910190613bb3565b50610140820151805161082191600b840191602090910190613c00565b509050506000610830826135d9565b121561086c57600580546001810182556000919091527f036b6384b5eca791c62761152d0c79bb0604c104a5fb6f4eb0703f3154bb3db0018190555b7fbcb28ce223d1d07df7ff015302f0aee0306ad6362ede3db7aa3c6d40a651f008828260405161089d9291906159d5565b60405180910390a15050565b6000546001600160a01b031633146108d35760405162461bcd60e51b81526004016105b790615932565b806108dd816135b8565b6108f95760405162461bcd60e51b81526004016105b790615952565b600061090483613499565b604080516020808201808452600080845260ff861681526007909252929020905192935061093492909190613ae9565b50600883604051610945919061580c565b9081526020016040518091039020600061095f9190613c59565b50506006805460ff19811660ff9182166000190190911617905550565b6000546001600160a01b031633146109a65760405162461bcd60e51b81526004016105b790615932565b60006109b1826135d9565b905060008112156109d45760405162461bcd60e51b81526004016105b7906158e2565b6000828152600160208190526040909120805460ff1916909117905560058054829081106109fe57fe5b60009182526020822001556005805490610a1c906000198301613c7a565b506000828152600460205260409081902090517ff0447ca0275a7a763cd2739e8753770648c2f2178ce48fdcdfb68ab2a119efda9161089d9185906159f5565b6000546001600160a01b03163314610a865760405162461bcd60e51b81526004016105b790615932565b80601183604051610a97919061580c565b908152604051908190036020019020555050565b6000546001600160a01b03163314610ad55760405162461bcd60e51b81526004016105b790615932565b8181610ae1828261361f565b610afd5760405162461bcd60e51b81526004016105b790615942565b6000610b098585613635565b905060006001600887604051610b1f919061580c565b908152602001604051809103902080549050039050600886604051610b44919061580c565b90815260200160405180910390208181548110610b5d57fe5b90600052602060002001600887604051610b77919061580c565b90815260200160405180910390208381548110610b9057fe5b906000526020600020019080546001816001161561010002031660029004610bb9929190613c9e565b50600886604051610bca919061580c565b90815260200160405180910390208181548110610be357fe5b906000526020600020016000610bf99190613d13565b600886604051610c09919061580c565b908152604051908190036020019020805490610c29906000198301613d57565b50505050505050565b6060600882604051610c44919061580c565b9081526020016040518091039020805480602002602001604051908101604052809291908181526020016000905b82821015610d1d5760008481526020908190208301805460408051601f6002600019610100600187161502019094169390930492830185900485028101850190915281815292830182828015610d095780601f10610cde57610100808354040283529160200191610d09565b820191906000526020600020905b815481529060010190602001808311610cec57829003601f168201915b505050505081526020019060010190610c72565b5050505090505b919050565b6000546001600160a01b03163314610d535760405162461bcd60e51b81526004016105b790615932565b600080546001600160a01b0319166001600160a01b0392909216919091179055565b8160ff600882604051610d88919061580c565b9081526040519081900360200190205410610db55760405162461bcd60e51b81526004016105b790615912565b8282610dc1828261361f565b15610dde5760405162461bcd60e51b81526004016105b7906158d2565b6000546001600160a01b03163314610e085760405162461bcd60e51b81526004016105b790615932565b600885604051610e18919061580c565b9081526040516020918190038201902080546001810180835560009283529183902087519293610c29939190920191880190613ae9565b8060200151610e5d81612b1b565b610e795760405162461bcd60e51b81526004016105b790615992565b6000610e8483613716565b90506000198110610ea75760405162461bcd60e51b81526004016105b790615902565b610eb58360200151826137b9565b6040805160808101825260008082526020808301828152845180830186528381528486019081526060850184905288518452601083529490922083518155915160018301559251805192939192610f129260028501920190613ae9565b5060608201518160030155905050505050565b6000600282604051602001610f3a919061580c565b60408051601f1981840301815290829052610f549161580c565b602060405180830381855afa158015610f71573d6000803e3d6000fd5b5050506040513d601f19601f82011682018060405250610f9491908101906145fe565b92915050565b8060200151610fa881612b1b565b610fc45760405162461bcd60e51b81526004016105b790615992565b815160008181526010602052604090205415611174576000610fe984600001516138be565b9050610ff3613d7b565b8451600090815260106020908152604091829020825160808101845281548152600180830154828501526002808401805487519381161561010002600019011691909104601f810186900486028301860187528083529295939493860193919290918301828280156110a65780601f1061107b576101008083540402835291602001916110a6565b820191906000526020600020905b81548152906001019060200180831161108957829003601f168201915b505050505081526020016003820154815250509050600f60008260200151815260200190815260200160002082815481106110dd57fe5b60009182526020822060049091020181815560018101829055906111046002830182613d13565b506000600391909101819055602080870180518352600f8252604080842080546001818101808455928752958590208b516004909202019081559251948301949094558801518051899361115f926002850192910190613ae9565b506060820151816003015550505050506111d7565b602080840180516000908152600f8352604080822080546001818101808455928552938690208951600490920201908155935192840192909255860151805191938793926111c89260028501920190613ae9565b50606082015181600301555050505b60008181526010602090815260409182902085518155818601516001820155918501518051869392610f12926002850192910190613ae9565b611218613da3565b600082815260126020526040908190208151611fe08101928390529160ff9082845b81548152602001906001019080831161123a5750505050509050919050565b8282611265828261361f565b6112815760405162461bcd60e51b81526004016105b790615942565b6000546001600160a01b031633146112ab5760405162461bcd60e51b81526004016105b790615932565b826008866040516112bc919061580c565b90815260200160405180910390206112d48787613635565b815481106112de57fe5b9060005260206000200190805190602001906112fb929190613ae9565b505050505050565b600081815260016020526040902054819060ff166113335760405162461bcd60e51b81526004016105b7906158c2565b6000828152600460209081526040909120845180518693611358928492910190613ae9565b5060208281015180516113719260018501920190613ae9565b506040820151805161138d916002840191602090910190613ae9565b50606082015180516113a9916003840191602090910190613ae9565b5060808201516113bf9060048301906002613b67565b5060a082015180516113db916006840191602090910190613ae9565b5060c082015180516113f7916007840191602090910190613ae9565b5060e08201518051611413916008840191602090910190613ae9565b506101008201518051611430916009840191602090910190613ae9565b50610120820151805161144d91600a840191602090910190613bb3565b5061014082015180516112fb91600b840191602090910190613c00565b6006546040805160ff9092168083526020808202840101909152606091829180156114a957816020015b60608152602001906001900390816114945790505b5090506000805b60065460ff610100909104811690821610156115b65760ff811660009081526007602052604090205460026000196101006001841615020190911604156115ae5760ff811660009081526007602090815260409182902080548351601f6002600019610100600186161502019093169290920491820184900484028101840190945280845290918301828280156115885780601f1061155d57610100808354040283529160200191611588565b820191906000526020600020905b81548152906001019060200180831161156b57829003601f168201915b5050505050838380600101945060ff16815181106115a257fe5b60200260200101819052505b6001016114b0565b50909150505b90565b6115c7613dc2565b6000828152600460209081526040918290208251815460026001821615610100026000190190911604601f8101849004909302810161018090810190945261016081018381529093919284928491908401828280156116675780601f1061163c57610100808354040283529160200191611667565b820191906000526020600020905b81548152906001019060200180831161164a57829003601f168201915b50505050508152602001600182018054600181600116156101000203166002900480601f0160208091040260200160405190810160405280929190818152602001828054600181600116156101000203166002900480156117095780601f106116de57610100808354040283529160200191611709565b820191906000526020600020905b8154815290600101906020018083116116ec57829003601f168201915b5050509183525050600282810180546040805160206001841615610100026000190190931694909404601f8101839004830285018301909152808452938101939083018282801561179b5780601f106117705761010080835404028352916020019161179b565b820191906000526020600020905b81548152906001019060200180831161177e57829003601f168201915b505050918352505060038201805460408051602060026001851615610100026000190190941693909304601f810184900484028201840190925281815293820193929183018282801561182f5780601f106118045761010080835404028352916020019161182f565b820191906000526020600020905b81548152906001019060200180831161181257829003601f168201915b5050509183525050604080518082019091526020909101906004830160026000835b828210156118f457838201805460408051602060026001851615610100026000190190941693909304601f810184900484028201840190925281815292918301828280156118e05780601f106118b5576101008083540402835291602001916118e0565b820191906000526020600020905b8154815290600101906020018083116118c357829003601f168201915b505050505081526020019060010190611851565b5050509082525060068201805460408051602060026001851615610100026000190190941693909304601f81018490048402820184019092528181529382019392918301828280156119875780601f1061195c57610100808354040283529160200191611987565b820191906000526020600020905b81548152906001019060200180831161196a57829003601f168201915b505050918352505060078201805460408051602060026001851615610100026000190190941693909304601f8101849004840282018401909252818152938201939291830182828015611a1b5780601f106119f057610100808354040283529160200191611a1b565b820191906000526020600020905b8154815290600101906020018083116119fe57829003601f168201915b505050918352505060088201805460408051602060026001851615610100026000190190941693909304601f8101849004840282018401909252818152938201939291830182828015611aaf5780601f10611a8457610100808354040283529160200191611aaf565b820191906000526020600020905b815481529060010190602001808311611a9257829003601f168201915b505050918352505060098201805460408051602060026001851615610100026000190190941693909304601f8101849004840282018401909252818152938201939291830182828015611b435780601f10611b1857610100808354040283529160200191611b43565b820191906000526020600020905b815481529060010190602001808311611b2657829003601f168201915b50505050508152602001600a8201805480602002602001604051908101604052809291908181526020016000905b82821015611c1c5760008481526020908190208301805460408051601f6002600019610100600187161502019094169390930492830185900485028101850190915281815292830182828015611c085780601f10611bdd57610100808354040283529160200191611c08565b820191906000526020600020905b815481529060010190602001808311611beb57829003601f168201915b505050505081526020019060010190611b71565b505050508152602001600b8201805480602002602001604051908101604052809291908181526020016000905b82821015611d3b57838290600052602060002001805480602002602001604051908101604052809291908181526020016000905b82821015611d285760008481526020908190208301805460408051601f6002600019610100600187161502019094169390930492830185900485028101850190915281815292830182828015611d145780601f10611ce957610100808354040283529160200191611d14565b820191906000526020600020905b815481529060010190602001808311611cf757829003601f168201915b505050505081526020019060010190611c7d565b5050505081526020019060010190611c49565b505050915250909392505050565b6000546060906001600160a01b03163314611d765760405162461bcd60e51b81526004016105b790615932565b6005805480602002602001604051908101604052809291908181526020018280548015611dc257602002820191906000526020600020905b815481526020019060010190808311611dae575b5050505050905090565b600082815260016020526040902054829060ff16611dfc5760405162461bcd60e51b81526004016105b7906158c2565b6000828152600160208181526040808420805460ff1990811690941790558684528084208054909316909255848352600381528183208390558583526002905280822084835291208154611e509290613e22565b506000838152600260205260408120611e6891613e61565b60005b6000838152600260205260409020548110156106b5578260036000600260008781526020019081526020016000208481548110611ea457fe5b60009182526020808320909101548352820192909252604001902055600101611e6b565b6060600982604051611eda919061580c565b9081526020016040518091039020805480602002602001604051908101604052809291908181526020016000905b82821015610d1d57838290600052602060002090600502016040518060a00160405290816000820154815260200160018201805480602002602001604051908101604052809291908181526020016000905b828210156120055760008481526020908190208301805460408051601f6002600019610100600187161502019094169390930492830185900485028101850190915281815292830182828015611ff15780601f10611fc657610100808354040283529160200191611ff1565b820191906000526020600020905b815481529060010190602001808311611fd457829003601f168201915b505050505081526020019060010190611f5a565b50505050815260200160028201805480602002602001604051908101604052809291908181526020016000905b828210156120dd5760008481526020908190208301805460408051601f60026000196101006001871615020190941693909304928301859004850281018501909152818152928301828280156120c95780601f1061209e576101008083540402835291602001916120c9565b820191906000526020600020905b8154815290600101906020018083116120ac57829003601f168201915b505050505081526020019060010190612032565b5050509082525060038201805460408051602060026001851615610100026000190190941693909304601f81018490048402820184019092528181529382019392918301828280156121705780601f1061214557610100808354040283529160200191612170565b820191906000526020600020905b81548152906001019060200180831161215357829003601f168201915b5050505050815260200160048201548152505081526020019060010190611f08565b6000546001600160a01b031633146121bc5760405162461bcd60e51b81526004016105b790615932565b806121c6816135b8565b156121e35760405162461bcd60e51b81526004016105b790615972565b60065460ff610100820481169116111561220f5760405162461bcd60e51b81526004016105b790615982565b60005b60065460ff6101009091048116908216101561229a5760ff8116600090815260076020526040902054600260001961010060018416150201909116046122925760ff81166000908152600760209081526040909120845161227592860190613ae9565b50506006805460ff8082166001011660ff1990911617905561229c565b600101612212565b505b5050565b6000546001600160a01b031681565b80600c836040516122c0919061580c565b908152602001604051809103902060008201518160000190805190602001906122ea929190613ae9565b5060208281015180516123039260018501920190613ae9565b506040820151805161231f916002840191602090910190613ae9565b50905050600061232f8484613960565b90506000811215612375576000848152600b602090815260408220805460018101808355918452928290208651919361236e9391019190870190613ae9565b50506106b5565b6000848152600b6020526040902080548491908390811061239257fe5b9060005260206000200190805190602001906123af929190613ae9565b5050505050565b6060600b6000838152602001908152602001600020805480602002602001604051908101604052809291908181526020016000905b82821015610d1d5760008481526020908190208301805460408051601f60026000196101006001871615020190941693909304928301859004850281018501909152818152928301828280156124825780601f1061245757610100808354040283529160200191612482565b820191906000526020600020905b81548152906001019060200180831161246557829003601f168201915b5050505050815260200190600101906123eb565b805160208183018101805160118252928201919093012091525481565b6060816124bf81612b1b565b6124db5760405162461bcd60e51b81526004016105b790615992565b6000838152600f6020908152604080832080548251818502810185019093528083529193909284015b828210156125f657838290600052602060002090600402016040518060800160405290816000820154815260200160018201548152602001600282018054600181600116156101000203166002900480601f0160208091040260200160405190810160405280929190818152602001828054600181600116156101000203166002900480156125d45780601f106125a9576101008083540402835291602001916125d4565b820191906000526020600020905b8154815290600101906020018083116125b757829003601f168201915b5050505050815260200160038201548152505081526020019060010190612504565b5050505091505b50919050565b61260b613e7f565b6000828152600a60209081526040918290208251815460026001821615610100026000190190911604601f8101849004909302810160c090810190945260a081018381529093919284928491908401828280156126a95780601f1061267e576101008083540402835291602001916126a9565b820191906000526020600020905b81548152906001019060200180831161268c57829003601f168201915b50505050508152602001600182018054600181600116156101000203166002900480601f01602080910402602001604051908101604052809291908181526020018280546001816001161561010002031660029004801561274b5780601f106127205761010080835404028352916020019161274b565b820191906000526020600020905b81548152906001019060200180831161272e57829003601f168201915b5050509183525050600282810180546040805160206001841615610100026000190190931694909404601f810183900483028501830190915280845293810193908301828280156127dd5780601f106127b2576101008083540402835291602001916127dd565b820191906000526020600020905b8154815290600101906020018083116127c057829003601f168201915b505050918352505060038201805460408051602060026001851615610100026000190190941693909304601f81018490048402820184019092528181529382019392918301828280156128715780601f1061284657610100808354040283529160200191612871565b820191906000526020600020905b81548152906001019060200180831161285457829003601f168201915b505050918352505060048201805460408051602060026001851615610100026000190190941693909304601f81018490048402820184019092528181529382019392918301828280156129055780601f106128da57610100808354040283529160200191612905565b820191906000526020600020905b8154815290600101906020018083116128e857829003601f168201915b5050505050815250509050919050565b806020015161292381612b1b565b61293f5760405162461bcd60e51b81526004016105b790615992565b600061294a83613716565b9050600019811061296d5760405162461bcd60e51b81526004016105b790615902565b602080840180516000908152600e8352604080822080546001818101808455928552938690208951600490920201908155935192840192909255860151805191938793926129c19260028501920190613ae9565b506060820151816003015550505061229a83610e4f565b6060816129e481612b1b565b612a005760405162461bcd60e51b81526004016105b790615992565b6000838152600e6020908152604080832080548251818502810185019093528083529193909284015b828210156125f657838290600052602060002090600402016040518060800160405290816000820154815260200160018201548152602001600282018054600181600116156101000203166002900480601f016020809104026020016040519081016040528092919081815260200182805460018160011615610100020316600290048015612af95780601f10612ace57610100808354040283529160200191612af9565b820191906000526020600020905b815481529060010190602001808311612adc57829003601f168201915b5050505050815260200160038201548152505081526020019060010190612a29565b60008181526001602052604081205460ff1680610f94575050600090815260036020526040902054151590565b6000828152600a60209081526040909120825180518493612b6d928492910190613ae9565b506020828101518051612b869260018501920190613ae9565b5060408201518051612ba2916002840191602090910190613ae9565b5060608201518051612bbe916003840191602090910190613ae9565b50608082015180516123af916004840191602090910190613ae9565b606080600b600084815260200190815260200160002080549050604051908082528060200260200182016040528015612c2d57816020015b612c1a613eae565b815260200190600190039081612c125790505b50905060005b6000848152600b6020526040902054811015612e75576000848152600b602052604090208054600c919083908110612c6757fe5b90600052602060002001604051612c7e9190615818565b9081526040805160209281900383018120805460026001821615610100026000190190911604601f81018590049094028201608090810190935260608201848152919390928492918491840182828015612d195780601f10612cee57610100808354040283529160200191612d19565b820191906000526020600020905b815481529060010190602001808311612cfc57829003601f168201915b50505050508152602001600182018054600181600116156101000203166002900480601f016020809104026020016040519081016040528092919081815260200182805460018160011615610100020316600290048015612dbb5780601f10612d9057610100808354040283529160200191612dbb565b820191906000526020600020905b815481529060010190602001808311612d9e57829003601f168201915b5050509183525050600282810180546040805160206001841615610100026000190190931694909404601f81018390048302850183019091528084529381019390830182828015612e4d5780601f10612e2257610100808354040283529160200191612e4d565b820191906000526020600020905b815481529060010190602001808311612e3057829003601f168201915b505050505081525050828281518110612e6257fe5b6020908102919091010152600101612c33565b5092915050565b612e84613eae565b600c82604051612e94919061580c565b9081526040805160209281900383018120805460026001821615610100026000190190911604601f81018590049094028201608090810190935260608201848152919390928492918491840182828015612f2f5780601f10612f0457610100808354040283529160200191612f2f565b820191906000526020600020905b815481529060010190602001808311612f1257829003601f168201915b50505050508152602001600182018054600181600116156101000203166002900480601f016020809104026020016040519081016040528092919081815260200182805460018160011615610100020316600290048015612fd15780601f10612fa657610100808354040283529160200191612fd1565b820191906000526020600020905b815481529060010190602001808311612fb457829003601f168201915b5050509183525050600282810180546040805160206001841615610100026000190190931694909404601f810183900483028501830190915280845293810193908301828280156129055780601f106128da57610100808354040283529160200191612905565b613040613d7b565b601060008381526020019081526020016000206040518060800160405290816000820154815260200160018201548152602001600282018054600181600116156101000203166002900480601f01602080910402602001604051908101604052809291908181526020018280546001816001161561010002031660029004801561310b5780601f106130e05761010080835404028352916020019161310b565b820191906000526020600020905b8154815290600101906020018083116130ee57829003601f168201915b505050505081526020016003820154815250509050919050565b6000546060906001600160a01b031633146131525760405162461bcd60e51b81526004016105b790615932565b600d805480602002602001604051908101604052809291908181526020018280548015611dc25760200282019190600052602060002090815481526020019060010190808311611dae575050505050905090565b600082815260016020526040902054829060ff166131d65760405162461bcd60e51b81526004016105b7906158c2565b600082815260036020526040902054156132025760405162461bcd60e51b81526004016105b7906158b2565b506000828152600260209081526040808320805460018101825590845282842001849055928252600390522055565b6000546001600160a01b0316331461325b5760405162461bcd60e51b81526004016105b790615932565b6000613266826135d9565b905060008112156132895760405162461bcd60e51b81526004016105b7906158e2565b6005818154811061329657fe5b600091825260208220015560058054906132b4906000198301613c7a565b506000828152600460205260409081902090517fcfb420e6e825355362483fbe9ffa1ccb2e0686c46057781725aff63aeb58d56d9161089d9185906159f5565b866132fe81612b1b565b61331a5760405162461bcd60e51b81526004016105b790615992565b84518451111561333c5760405162461bcd60e51b81526004016105b790615922565b60006133488888613960565b1215613385576000878152600b602090815260408220805460018101808355918452928290208951919361338293910191908a0190613ae9565b50505b600986604051613395919061580c565b90815260408051918290036020908101832060a0840183528b845283820189815292840188905260608401879052608084018690528054600181810180845560009384529284902086516005909302019182559351805192959491936134019392850192910190613bb3565b506040820151805161341d916002840191602090910190613bb3565b5060608201518051613439916003840191602090910190613ae9565b5060808201518160040155505050600019613453886139d2565b141561348f57600d80546001810182556000919091527fd7b6990105719101dabeb77144f2a3385c8033acd3af97e9423a695e81ad1eb5018790555b5050505050505050565b6000806134a583613a0e565b905060005b60065460ff610100909104811690821610156135ae5760ff81166000908152600760205260409020546002600019610100600184161502019091160415801590613598575060ff81166000908152600760209081526040918290208054835160026001831615610100026000190190921691909104601f810184900484028201840190945283815285936135969391929183018282801561358c5780601f106135615761010080835404028352916020019161358c565b820191906000526020600020905b81548152906001019060200180831161356f57829003601f168201915b5050505050613a0e565b145b156135a6579150610d249050565b6001016134aa565b5060ff9392505050565b600654600090610100900460ff166135cf83613499565b60ff161092915050565b6000805b6005548110156136155782600582815481106135f557fe5b9060005260206000200154141561360d579050610d24565b6001016135dd565b5060001992915050565b600060ff61362d8484613635565b109392505050565b6000805b600884604051613649919061580c565b9081526040519081900360200190205460ff821610156135ae5761366c83613a0e565b6136fe60088660405161367f919061580c565b90815260200160405180910390208360ff168154811061369b57fe5b600091825260209182902001805460408051601f600260001961010060018716150201909416939093049283018590048502810185019091528181529283018282801561358c5780601f106135615761010080835404028352916020019161358c565b141561370e5760ff169050610f94565b600101613639565b6000816020015161372681612b1b565b6137425760405162461bcd60e51b81526004016105b790615992565b60005b6020808501516000908152600f90915260409020548110156137ae5761379a84600f600087602001518152602001908152602001600020838154811061378757fe5b9060005260206000209060040201613a3e565b156137a65791506125fd565b600101613745565b506000199392505050565b816137c381612b1b565b6137df5760405162461bcd60e51b81526004016105b790615992565b600182015b6000848152600f602052604090205481101561389e576000848152600f6020526040902080548290811061381457fe5b9060005260206000209060040201600f6000868152602001908152602001600020600183038154811061384357fe5b906000526020600020906004020160008201548160000155600182015481600101556002820181600201908054600181600116156101000203166002900461388c929190613c9e565b506003918201549101556001016137e4565b506000838152600f602052604090208054906106b5906000198301613ecf565b6000818152601060205260408120546138e95760405162461bcd60e51b81526004016105b7906158f2565b6000828152601060205260408120905b60018201546000908152600f60205260409020548110156137ae5783600f600084600101548152602001908152602001600020828154811061393757fe5b9060005260206000209060040201600001541415613958579150610d249050565b6001016138f9565b6000805b6000848152600b60205260409020546001600160801b03821610156137ae5761398c83613a0e565b6000858152600b6020526040902080546139b491906001600160801b03851690811061369b57fe5b14156139ca576001600160801b03169050610f94565b600101613964565b6000805b600d548110156136155782600d82815481106139ee57fe5b90600052602060002001541415613a06579050610d24565b6001016139d6565b600081604051602001613a21919061580c565b604051602081830303815290604052805190602001209050919050565b80548251600091148015613a59575081600101548360200151145b8015613acf5750600282810180546040805160206001841615610100026000190190931694909404601f8101839004830285018301909152808452613ac093929183018282801561358c5780601f106135615761010080835404028352916020019161358c565b613acd8460400151613a0e565b145b8015613ae2575081600301548360600151145b9392505050565b828054600181600116156101000203166002900490600052602060002090601f016020900481019282601f10613b2a57805160ff1916838001178555613b57565b82800160010185558215613b57579182015b82811115613b57578251825591602001919060010190613b3c565b50613b63929150613efb565b5090565b8260028101928215613ba7579160200282015b82811115613ba75782518051613b97918491602090910190613ae9565b5091602001919060010190613b7a565b50613b63929150613f15565b828054828255906000526020600020908101928215613ba7579160200282015b82811115613ba75782518051613bf0918491602090910190613ae9565b5091602001919060010190613bd3565b828054828255906000526020600020908101928215613c4d579160200282015b82811115613c4d5782518051613c3d918491602090910190613bb3565b5091602001919060010190613c20565b50613b63929150613f38565b5080546000825590600052602060002090810190613c779190613f15565b50565b81548183558181111561229a5760008381526020902061229a918101908301613efb565b828054600181600116156101000203166002900490600052602060002090601f016020900481019282601f10613cd75780548555613b57565b82800160010185558215613b5757600052602060002091601f016020900482015b82811115613b57578254825591600101919060010190613cf8565b50805460018160011615610100020316600290046000825580601f10613d395750613c77565b601f016020900490600052602060002090810190613c779190613efb565b81548183558181111561229a5760008381526020902061229a918101908301613f15565b6040805160808101825260008082526020820181905260609282018390529181019190915290565b60405180611fe0016040528060ff906020820280388339509192915050565b60405180610160016040528060608152602001606081526020016060815260200160608152602001613df2613f5b565b81526020016060815260200160608152602001606081526020016060815260200160608152602001606081525090565b828054828255906000526020600020908101928215613b5757600052602060002091820182811115613b57578254825591600101919060010190613cf8565b5080546000825590600052602060002090810190613c779190613efb565b6040518060a0016040528060608152602001606081526020016060815260200160608152602001606081525090565b60405180606001604052806060815260200160608152602001606081525090565b81548183558181111561229a5760040281600402836000526020600020918201910161229a9190613f82565b6115bc91905b80821115613b635760008155600101613f01565b6115bc91905b80821115613b63576000613f2f8282613d13565b50600101613f1b565b6115bc91905b80821115613b63576000613f528282613c59565b50600101613f3e565b60405180604001604052806002905b6060815260200190600190039081613f6a5790505090565b6115bc91905b80821115613b6357600080825560018201819055613fa96002830182613d13565b5060006003820155600401613f88565b8035610f9481615b34565b600082601f830112613fd557600080fd5b8135613fe8613fe382615a3d565b615a17565b81815260209384019390925082018360005b8381101561402657813586016140108882614082565b8452506020928301929190910190600101613ffa565b5050505092915050565b600082601f83011261404157600080fd5b600261404f613fe382615a5d565b9150818360005b83811015614026578135860161406c8882614152565b8452506020928301929190910190600101614056565b600082601f83011261409357600080fd5b81356140a1613fe382615a3d565b81815260209384019390925082018360005b8381101561402657813586016140c98882614152565b84525060209283019291909101906001016140b3565b600082601f8301126140f057600080fd5b81356140fe613fe382615a3d565b81815260209384019390925082018360005b8381101561402657813586016141268882614152565b8452506020928301929190910190600101614110565b8035610f9481615b48565b8051610f9481615b48565b600082601f83011261416357600080fd5b8135614171613fe382615a7a565b9150808252602083016020830185838301111561418d57600080fd5b614198838284615af2565b50505092915050565b6000608082840312156141b357600080fd5b6141bd6080615a17565b905060006141cb848461413c565b82525060206141dc8484830161413c565b60208301525060408201356001600160401b038111156141fb57600080fd5b61420784828501614152565b604083015250606061421b8482850161413c565b60608301525092915050565b60006060828403121561423957600080fd5b6142436060615a17565b905081356001600160401b0381111561425b57600080fd5b61426784828501614152565b82525060208201356001600160401b0381111561428357600080fd5b61428f84828501614152565b60208301525060408201356001600160401b038111156142ae57600080fd5b6142ba84828501614152565b60408301525092915050565b600061016082840312156142d957600080fd5b6142e4610160615a17565b905081356001600160401b038111156142fc57600080fd5b61430884828501614152565b82525060208201356001600160401b0381111561432457600080fd5b61433084828501614152565b60208301525060408201356001600160401b0381111561434f57600080fd5b61435b84828501614152565b60408301525060608201356001600160401b0381111561437a57600080fd5b61438684828501614152565b60608301525060808201356001600160401b038111156143a557600080fd5b6143b184828501614030565b60808301525060a08201356001600160401b038111156143d057600080fd5b6143dc84828501614152565b60a08301525060c08201356001600160401b038111156143fb57600080fd5b61440784828501614152565b60c08301525060e08201356001600160401b0381111561442657600080fd5b61443284828501614152565b60e0830152506101008201356001600160401b0381111561445257600080fd5b61445e84828501614152565b610100830152506101208201356001600160401b0381111561447f57600080fd5b61448b84828501614082565b610120830152506101408201356001600160401b038111156144ac57600080fd5b6144b884828501613fc4565b6101408301525092915050565b600060a082840312156144d757600080fd5b6144e160a0615a17565b905081356001600160401b038111156144f957600080fd5b61450584828501614152565b82525060208201356001600160401b0381111561452157600080fd5b61452d84828501614152565b60208301525060408201356001600160401b0381111561454c57600080fd5b61455884828501614152565b60408301525060608201356001600160401b0381111561457757600080fd5b61458384828501614152565b60608301525060808201356001600160401b038111156145a257600080fd5b6145ae84828501614152565b60808301525092915050565b6000602082840312156145cc57600080fd5b60006145d88484613fb9565b949350505050565b6000602082840312156145f257600080fd5b60006145d8848461413c565b60006020828403121561461057600080fd5b60006145d88484614147565b6000806040838503121561462f57600080fd5b600061463b858561413c565b925050602061464c8582860161413c565b9150509250929050565b600080600080600080600060e0888a03121561467157600080fd5b600061467d8a8a61413c565b975050602061468e8a828b0161413c565b96505060408801356001600160401b038111156146aa57600080fd5b6146b68a828b01614152565b95505060608801356001600160401b038111156146d257600080fd5b6146de8a828b016140df565b94505060808801356001600160401b038111156146fa57600080fd5b6147068a828b016140df565b93505060a08801356001600160401b0381111561472257600080fd5b61472e8a828b01614152565b92505060c061473f8a828b0161413c565b91505092959891949750929550565b60008060006060848603121561476357600080fd5b600061476f868661413c565b93505060208401356001600160401b0381111561478b57600080fd5b61479786828701614152565b92505060408401356001600160401b038111156147b357600080fd5b6147bf86828701614227565b9150509250925092565b600080604083850312156147dc57600080fd5b60006147e8858561413c565b92505060208301356001600160401b0381111561480457600080fd5b61464c858286016144c5565b60006020828403121561482257600080fd5b81356001600160401b0381111561483857600080fd5b6145d884828501614152565b6000806040838503121561485757600080fd5b82356001600160401b0381111561486d57600080fd5b61487985828601614152565b92505060208301356001600160401b0381111561489557600080fd5b61464c85828601614152565b6000806000606084860312156148b657600080fd5b83356001600160401b038111156148cc57600080fd5b6148d886828701614152565b93505060208401356001600160401b038111156148f457600080fd5b61490086828701614152565b92505060408401356001600160401b0381111561491c57600080fd5b6147bf86828701614152565b6000806040838503121561493b57600080fd5b82356001600160401b0381111561495157600080fd5b61463b85828601614152565b60006020828403121561496f57600080fd5b81356001600160401b0381111561498557600080fd5b6145d8848285016141a1565b600080604083850312156149a457600080fd5b82356001600160401b038111156149ba57600080fd5b61463b858286016142c6565b6000613ae28383614c26565b6000613ae28383614ce7565b60006149ea8383614ebf565b505060200190565b6000613ae28383614ef7565b6000613ae28383614f2f565b6000613ae28383615425565b6000613ae28383615481565b6000613ae28383615717565b614a3781615ad6565b82525050565b6000614a4882615ab3565b614a528185615acd565b935083602082028501614a6485615aa1565b8060005b85811015614a9e5784840389528151614a8185826149c6565b9450614a8c83615aa1565b60209a909a0199925050600101614a68565b5091979650505050505050565b6000614ab682615ab7565b614ac08185615acd565b935083602082028501614ad285615aa7565b8060005b85811015614a9e57848403895281614aee85826149d2565b9450614af983615ac7565b60209a909a0199925050600101614ad6565b6000614b1682615ab3565b614b208185615acd565b9350614b2b83615aa1565b8060005b83811015614b59578151614b4388826149de565b9750614b4e83615aa1565b925050600101614b2f565b509495945050505050565b6000614b6f82615abb565b614b798185610d24565b935083602082028501614b8b856115bc565b8060005b85811015614a9e5784840389528151614ba885826149f2565b9450614bb383615aa1565b60209a909a0199925050600101614b8f565b6000614bd082615ab3565b614bda8185615acd565b935083602082028501614bec85615aa1565b8060005b85811015614a9e5784840389528151614c0985826149f2565b9450614c1483615aa1565b60209a909a0199925050600101614bf0565b6000614c3182615ab3565b614c3b8185615acd565b935083602082028501614c4d85615aa1565b8060005b85811015614a9e5784840389528151614c6a85826149f2565b9450614c7583615aa1565b60209a909a0199925050600101614c51565b6000614c9282615abb565b614c9c8185610d24565b935083602082028501614cae856115bc565b8060005b85811015614a9e57848403895281614cca85826149fe565b9450614cd583615ac7565b60209a909a0199925050600101614cb2565b6000614cf282615ab7565b614cfc8185615acd565b935083602082028501614d0e85615aa7565b8060005b85811015614a9e57848403895281614d2a85826149fe565b9450614d3583615ac7565b60209a909a0199925050600101614d12565b6000614d5282615ab3565b614d5c8185615acd565b935083602082028501614d6e85615aa1565b8060005b85811015614a9e5784840389528151614d8b8582614a0a565b9450614d9683615aa1565b60209a909a0199925050600101614d72565b6000614db382615ab3565b614dbd8185615acd565b935083602082028501614dcf85615aa1565b8060005b85811015614a9e5784840389528151614dec8582614a16565b9450614df783615aa1565b60209a909a0199925050600101614dd3565b6000614e1482615ab3565b614e1e8185615acd565b935083602082028501614e3085615aa1565b8060005b85811015614a9e5784840389528151614e4d8582614a22565b9450614e5883615aa1565b60209a909a0199925050600101614e34565b614e7381615ac1565b614e7d8184610d24565b9250614e88826115bc565b8060005b838110156112fb578151614ea087826149de565b9650614eab83615aa1565b925050600101614e8c565b614a3781615ae1565b614a37816115bc565b6000614ed382615ab3565b614edd8185610d24565b9350614eed818560208601615afe565b9290920192915050565b6000614f0282615ab3565b614f0c8185615acd565b9350614f1c818560208601615afe565b614f2581615b2a565b9093019392505050565b600081546001811660008114614f4c5760018114614f7257614fb1565b607f6002830416614f5d8187615acd565b60ff1984168152955050602085019250614fb1565b60028204614f808187615acd565b9550614f8b85615aa7565b60005b82811015614faa57815488820152600190910190602001614f8e565b8701945050505b505092915050565b600081546001811660008114614fd65760018114614ff957614fb1565b607f6002830416614fe78187610d24565b60ff1984168152955085019250614fb1565b600282046150078187610d24565b955061501285615aa7565b60005b8281101561503157815488820152600190910190602001615015565b5050909401949350505050565b600061504b602183615acd565b7f5468617420656d706c6f79656520616c726561647920776f726b7320746865728152606560f81b602082015260400192915050565b600061508e602983615acd565b7f596f75206d7573742062652061206465616c657273686970206f776e657220748152686f20646f207468697360b81b602082015260400192915050565b60006150d9601e83615acd565b7f54686174207375627365727669636520616c7265616479206578697374730000815260200192915050565b6000615112602183615acd565b7f4e6f206170706c69636174696f6e2065786973747320666f72207468617420698152601960fa1b602082015260400192915050565b6000615155602183615acd565b7f5573657220646f6573206e6f74206861766520616e206170706f696e746d656e8152601d60fa1b602082015260400192915050565b6000615198601f83615acd565b7f54686174206170706f696e746d656e7420646f6573206e6f7420657869737400815260200192915050565b60006151d1602183615acd565b7f4d6178696d756d207375627365727669636520616d6f756e74207265616368658152601960fa1b602082015260400192915050565b6000615214603383615acd565b7f4e756d626572206f6620737562736572766963657320646f6573206e6f74206d8152720c2e8c6d040e6cae4ecd2c6ca40d8cadccee8d606b1b602082015260400192915050565b6000615269601583615acd565b742cb7ba9030b932903737ba103a34329037bbb732b960591b815260200192915050565b600061529a602c83615acd565b7f54686174207375627365727669636520646f65736e7420657869737420696e2081526b1d1a1a5cc818dbdb9d195e1d60a21b602082015260400192915050565b60006152e8601b83615acd565b7f54686174207365727669636520646f6573206e6f742065786973740000000000815260200192915050565b6000615321602283615acd565b7f54686174206164647265737320697320616c7265616479207265676973746572815261195960f21b602082015260400192915050565b6000615365601b83615acd565b7f54686174207365727669636520616c7265616479206578697374730000000000815260200192915050565b600061539e602883615acd565b7f54686572652061726520746865206d6178696d756d206e756d626572206f6620815267736572766963657360c01b602082015260400192915050565b60006153e8602883615acd565b7f596f75206d7573742062652061207665726966696564206465616c657220746f81526720646f207468697360c01b602082015260400192915050565b805160009060808401906154398582614ebf565b50602083015161544c6020860182614ebf565b50604083015184820360408601526154648282614ef7565b91505060608301516154796060860182614ebf565b509392505050565b80516060808452600091908401906154998282614ef7565b915050602083015184820360208601526154b38282614ef7565b915050604083015184820360408601526154cd8282614ef7565b95945050505050565b8051610160808452600091908401906154ef8282614ef7565b915050602083015184820360208601526155098282614ef7565b915050604083015184820360408601526155238282614ef7565b9150506060830151848203606086015261553d8282614ef7565b915050608083015184820360808601526155578282614b64565b91505060a083015184820360a08601526155718282614ef7565b91505060c083015184820360c086015261558b8282614ef7565b91505060e083015184820360e08601526155a58282614ef7565b9150506101008301518482036101008601526155c18282614ef7565b9150506101208301518482036101208601526155dd8282614c26565b9150506101408301518482036101408601526154cd8282614a3d565b610160808352600090830181836156108382614f2f565b9250506001840185830360208701526156298382614f2f565b9250506002840185830360408701526156428382614f2f565b92505060038401858303606087015261565b8382614f2f565b9250506004840185830360808701526156748382614c87565b9250506006840185830360a087015261568d8382614f2f565b9250506007840185830360c08701526156a68382614f2f565b9250506008840185830360e08701526156bf8382614f2f565b925050600984018583036101008701526156d98382614f2f565b925050600a84018583036101208701526156f38382614ce7565b925050600b840185830361014087015261570d8382614aab565b9695505050505050565b805160009060a084019061572b8582614ebf565b50602083015184820360208601526157438282614c26565b9150506040830151848203604086015261575d8282614c26565b915050606083015184820360608601526157778282614ef7565b91505060808301516154796080860182614ebf565b805160a0808452600091908401906157a48282614ef7565b915050602083015184820360208601526157be8282614ef7565b915050604083015184820360408601526157d88282614ef7565b915050606083015184820360608601526157f28282614ef7565b915050608083015184820360808601526154cd8282614ef7565b6000613ae28284614ec8565b6000613ae28284614fb9565b60208101610f948284614a2e565b60208082528101613ae28184614b0b565b60208082528101613ae28184614bc5565b60208082528101613ae28184614d47565b60208082528101613ae28184614da8565b60208082528101613ae28184614e09565b611fe08101610f948284614e6a565b60208101610f948284614eb6565b60208101610f948284614ebf565b60208082528101610f948161503e565b60208082528101610f9481615081565b60208082528101610f94816150cc565b60208082528101610f9481615105565b60208082528101610f9481615148565b60208082528101610f948161518b565b60208082528101610f94816151c4565b60208082528101610f9481615207565b60208082528101610f948161525c565b60208082528101610f948161528d565b60208082528101610f94816152db565b60208082528101610f9481615314565b60208082528101610f9481615358565b60208082528101610f9481615391565b60208082528101610f94816153db565b60208082528101613ae28184615425565b60208082528101613ae28184615481565b60208082528101613ae281846154d6565b604080825281016159e681856154d6565b9050613ae26020830184614ebf565b604080825281016159e681856155f9565b60208082528101613ae2818461578c565b6040518181016001600160401b0381118282101715615a3557600080fd5b604052919050565b60006001600160401b03821115615a5357600080fd5b5060209081020190565b60006001600160401b03821115615a7357600080fd5b5060200290565b60006001600160401b03821115615a9057600080fd5b506020601f91909101601f19160190565b60200190565b60009081526020902090565b5190565b5490565b50600290565b5060ff90565b60010190565b90815260200190565b6000610f9482615ae6565b151590565b6001600160a01b031690565b82818337506000910152565b60005b83811015615b19578181015183820152602001615b01565b838111156106b55750506000910152565b601f01601f191690565b615b3d81615ad6565b8114613c7757600080fd5b615b3d816115bc56fea365627a7a723158202465c81d83894403c6748f19d6148ff4dadb2324113f9484667ae1a1aa49f58e6c6578706572696d656e74616cf564736f6c634300050c0040",
  "source": "pragma solidity ^0.5.11;\npragma experimental ABIEncoderV2;\n\nimport \"./AppointmentHandler.sol\";\n\ncontract NotificationHandler is AppointmentHandler {\n\n    mapping(string => uint) public notificationTimes;\n    mapping(bytes32 => uint[255]) private userNotificationTime;\n\n    function insertRecord(bytes32 dealerId, bytes32 id, string memory noPlate,\n     string[] memory services, string[] memory subservices, string memory comment, uint timeStamp)\n        public verified(dealerId) {\n        super.insertRecord(dealerId,id,noPlate,services,subservices,comment,timeStamp);\n        for(uint i = 0; i < services.length; i++){\n            uint8 serviceIndex = getIndexOfService(services[i]);\n            userNotificationTime[id][serviceIndex] = timeStamp;\n        }\n    }\n\n    function getLastServiceTimes(bytes32 userId) public view returns(uint[255] memory) {\n        return userNotificationTime[userId];\n    }\n\n    function setServiceNotificationTime(string memory serviceName, uint time) public ownerOnly {\n        notificationTimes[serviceName] = time;\n    }\n}",
  "sourcePath": "/home/brandon/Documents/_Important/Uni/Blockchain/Final project/contracts/NotificationHandler.sol",
  "compiler": {
    "name": "solc",
    "version": "0.5.12+commit.7709ece9.Emscripten.clang"
  },
  "schemaVersion": "3.0.19",
  "updatedAt": "2019-11-29T20:09:06.095Z",
  "networkType": "ethereum",
  "devdoc": {
    "methods": {}
  },
  "userdoc": {
    "methods": {}
  }
}