{
  "contractName": "NotificationHandler",
  "abi": [
    {
      "anonymous": false,
      "inputs": [
        {
          "components": [
            {
              "internalType": "string",
              "name": "dealerName",
              "type": "string"
            },
            {
              "internalType": "string",
              "name": "firstName",
              "type": "string"
            },
            {
              "internalType": "string",
              "name": "lastName",
              "type": "string"
            },
            {
              "internalType": "string",
              "name": "addr",
              "type": "string"
            },
            {
              "internalType": "string[2]",
              "name": "location",
              "type": "string[2]"
            },
            {
              "internalType": "string",
              "name": "phoneNo",
              "type": "string"
            },
            {
              "internalType": "string",
              "name": "bestSeller",
              "type": "string"
            },
            {
              "internalType": "string",
              "name": "promotion",
              "type": "string"
            },
            {
              "internalType": "string",
              "name": "otherServices",
              "type": "string"
            },
            {
              "internalType": "string[]",
              "name": "availableServices",
              "type": "string[]"
            },
            {
              "internalType": "string[][]",
              "name": "availableSubServices",
              "type": "string[][]"
            }
          ],
          "indexed": false,
          "internalType": "struct DealerContract.DealerInfo",
          "name": "info",
          "type": "tuple"
        },
        {
          "indexed": false,
          "internalType": "bytes32",
          "name": "id",
          "type": "bytes32"
        }
      ],
      "name": "CreateDealerApplication",
      "type": "event"
    },
    {
      "constant": false,
      "inputs": [
        {
          "internalType": "bytes32",
          "name": "dealerId",
          "type": "bytes32"
        },
        {
          "internalType": "bytes32",
          "name": "adr",
          "type": "bytes32"
        }
      ],
      "name": "addDealerEmployee",
      "outputs": [],
      "payable": false,
      "stateMutability": "nonpayable",
      "type": "function"
    },
    {
      "constant": false,
      "inputs": [
        {
          "internalType": "string",
          "name": "serviceName",
          "type": "string"
        }
      ],
      "name": "addService",
      "outputs": [],
      "payable": false,
      "stateMutability": "nonpayable",
      "type": "function"
    },
    {
      "constant": false,
      "inputs": [
        {
          "internalType": "string",
          "name": "serviceName",
          "type": "string"
        },
        {
          "internalType": "string",
          "name": "subServiceName",
          "type": "string"
        }
      ],
      "name": "addSubService",
      "outputs": [],
      "payable": false,
      "stateMutability": "nonpayable",
      "type": "function"
    },
    {
      "constant": false,
      "inputs": [
        {
          "internalType": "bytes32",
          "name": "adr",
          "type": "bytes32"
        }
      ],
      "name": "approveApplication",
      "outputs": [],
      "payable": false,
      "stateMutability": "nonpayable",
      "type": "function"
    },
    {
      "constant": false,
      "inputs": [
        {
          "components": [
            {
              "internalType": "bytes32",
              "name": "userId",
              "type": "bytes32"
            },
            {
              "internalType": "bytes32",
              "name": "dealerId",
              "type": "bytes32"
            },
            {
              "internalType": "string",
              "name": "carPlate",
              "type": "string"
            },
            {
              "internalType": "int256",
              "name": "time",
              "type": "int256"
            }
          ],
          "internalType": "struct AppointmentHandler.Appointment",
          "name": "appointment",
          "type": "tuple"
        }
      ],
      "name": "cancelAppointment",
      "outputs": [],
      "payable": false,
      "stateMutability": "nonpayable",
      "type": "function"
    },
    {
      "constant": false,
      "inputs": [
        {
          "components": [
            {
              "internalType": "bytes32",
              "name": "userId",
              "type": "bytes32"
            },
            {
              "internalType": "bytes32",
              "name": "dealerId",
              "type": "bytes32"
            },
            {
              "internalType": "string",
              "name": "carPlate",
              "type": "string"
            },
            {
              "internalType": "int256",
              "name": "time",
              "type": "int256"
            }
          ],
          "internalType": "struct AppointmentHandler.Appointment",
          "name": "appointment",
          "type": "tuple"
        }
      ],
      "name": "completeAppointment",
      "outputs": [],
      "payable": false,
      "stateMutability": "nonpayable",
      "type": "function"
    },
    {
      "constant": false,
      "inputs": [
        {
          "components": [
            {
              "internalType": "bytes32",
              "name": "userId",
              "type": "bytes32"
            },
            {
              "internalType": "bytes32",
              "name": "dealerId",
              "type": "bytes32"
            },
            {
              "internalType": "string",
              "name": "carPlate",
              "type": "string"
            },
            {
              "internalType": "int256",
              "name": "time",
              "type": "int256"
            }
          ],
          "internalType": "struct AppointmentHandler.Appointment",
          "name": "appointment",
          "type": "tuple"
        }
      ],
      "name": "createAppointment",
      "outputs": [],
      "payable": false,
      "stateMutability": "nonpayable",
      "type": "function"
    },
    {
      "constant": false,
      "inputs": [
        {
          "components": [
            {
              "internalType": "string",
              "name": "dealerName",
              "type": "string"
            },
            {
              "internalType": "string",
              "name": "firstName",
              "type": "string"
            },
            {
              "internalType": "string",
              "name": "lastName",
              "type": "string"
            },
            {
              "internalType": "string",
              "name": "addr",
              "type": "string"
            },
            {
              "internalType": "string[2]",
              "name": "location",
              "type": "string[2]"
            },
            {
              "internalType": "string",
              "name": "phoneNo",
              "type": "string"
            },
            {
              "internalType": "string",
              "name": "bestSeller",
              "type": "string"
            },
            {
              "internalType": "string",
              "name": "promotion",
              "type": "string"
            },
            {
              "internalType": "string",
              "name": "otherServices",
              "type": "string"
            },
            {
              "internalType": "string[]",
              "name": "availableServices",
              "type": "string[]"
            },
            {
              "internalType": "string[][]",
              "name": "availableSubServices",
              "type": "string[][]"
            }
          ],
          "internalType": "struct DealerContract.DealerInfo",
          "name": "info",
          "type": "tuple"
        },
        {
          "internalType": "bytes32",
          "name": "id",
          "type": "bytes32"
        }
      ],
      "name": "createDealerApplication",
      "outputs": [],
      "payable": false,
      "stateMutability": "nonpayable",
      "type": "function"
    },
    {
      "constant": false,
      "inputs": [
        {
          "internalType": "string",
          "name": "serviceName",
          "type": "string"
        }
      ],
      "name": "deleteService",
      "outputs": [],
      "payable": false,
      "stateMutability": "nonpayable",
      "type": "function"
    },
    {
      "constant": false,
      "inputs": [
        {
          "internalType": "string",
          "name": "serviceName",
          "type": "string"
        },
        {
          "internalType": "string",
          "name": "subServiceName",
          "type": "string"
        }
      ],
      "name": "deleteSubService",
      "outputs": [],
      "payable": false,
      "stateMutability": "nonpayable",
      "type": "function"
    },
    {
      "constant": false,
      "inputs": [
        {
          "internalType": "bytes32",
          "name": "userId",
          "type": "bytes32"
        },
        {
          "internalType": "string",
          "name": "noPlate",
          "type": "string"
        },
        {
          "components": [
            {
              "internalType": "string",
              "name": "brand",
              "type": "string"
            },
            {
              "internalType": "string",
              "name": "model",
              "type": "string"
            },
            {
              "internalType": "string",
              "name": "year",
              "type": "string"
            }
          ],
          "internalType": "struct UserContract.CarInfo",
          "name": "carInfo",
          "type": "tuple"
        }
      ],
      "name": "editCarDetails",
      "outputs": [],
      "payable": false,
      "stateMutability": "nonpayable",
      "type": "function"
    },
    {
      "constant": false,
      "inputs": [
        {
          "components": [
            {
              "internalType": "string",
              "name": "dealerName",
              "type": "string"
            },
            {
              "internalType": "string",
              "name": "firstName",
              "type": "string"
            },
            {
              "internalType": "string",
              "name": "lastName",
              "type": "string"
            },
            {
              "internalType": "string",
              "name": "addr",
              "type": "string"
            },
            {
              "internalType": "string[2]",
              "name": "location",
              "type": "string[2]"
            },
            {
              "internalType": "string",
              "name": "phoneNo",
              "type": "string"
            },
            {
              "internalType": "string",
              "name": "bestSeller",
              "type": "string"
            },
            {
              "internalType": "string",
              "name": "promotion",
              "type": "string"
            },
            {
              "internalType": "string",
              "name": "otherServices",
              "type": "string"
            },
            {
              "internalType": "string[]",
              "name": "availableServices",
              "type": "string[]"
            },
            {
              "internalType": "string[][]",
              "name": "availableSubServices",
              "type": "string[][]"
            }
          ],
          "internalType": "struct DealerContract.DealerInfo",
          "name": "info",
          "type": "tuple"
        },
        {
          "internalType": "bytes32",
          "name": "id",
          "type": "bytes32"
        }
      ],
      "name": "editDealerInfo",
      "outputs": [],
      "payable": false,
      "stateMutability": "nonpayable",
      "type": "function"
    },
    {
      "constant": false,
      "inputs": [
        {
          "internalType": "string",
          "name": "oldName",
          "type": "string"
        },
        {
          "internalType": "string",
          "name": "newName",
          "type": "string"
        }
      ],
      "name": "editServiceName",
      "outputs": [],
      "payable": false,
      "stateMutability": "nonpayable",
      "type": "function"
    },
    {
      "constant": false,
      "inputs": [
        {
          "internalType": "string",
          "name": "serviceName",
          "type": "string"
        },
        {
          "internalType": "string",
          "name": "oldName",
          "type": "string"
        },
        {
          "internalType": "string",
          "name": "newName",
          "type": "string"
        }
      ],
      "name": "editSubServiceName",
      "outputs": [],
      "payable": false,
      "stateMutability": "nonpayable",
      "type": "function"
    },
    {
      "constant": false,
      "inputs": [
        {
          "internalType": "bytes32",
          "name": "userId",
          "type": "bytes32"
        },
        {
          "components": [
            {
              "internalType": "string",
              "name": "firstName",
              "type": "string"
            },
            {
              "internalType": "string",
              "name": "lastName",
              "type": "string"
            },
            {
              "internalType": "string",
              "name": "adr",
              "type": "string"
            },
            {
              "internalType": "string",
              "name": "phNo",
              "type": "string"
            },
            {
              "internalType": "string",
              "name": "email",
              "type": "string"
            }
          ],
          "internalType": "struct UserContract.UserInfo",
          "name": "info",
          "type": "tuple"
        }
      ],
      "name": "editUserInfo",
      "outputs": [],
      "payable": false,
      "stateMutability": "nonpayable",
      "type": "function"
    },
    {
      "constant": true,
      "inputs": [],
      "name": "getAllDealerApplications",
      "outputs": [
        {
          "internalType": "bytes32[]",
          "name": "",
          "type": "bytes32[]"
        }
      ],
      "payable": false,
      "stateMutability": "view",
      "type": "function"
    },
    {
      "constant": true,
      "inputs": [
        {
          "internalType": "bytes32",
          "name": "dealerId",
          "type": "bytes32"
        }
      ],
      "name": "getAppointmentHistory",
      "outputs": [
        {
          "components": [
            {
              "internalType": "bytes32",
              "name": "userId",
              "type": "bytes32"
            },
            {
              "internalType": "bytes32",
              "name": "dealerId",
              "type": "bytes32"
            },
            {
              "internalType": "string",
              "name": "carPlate",
              "type": "string"
            },
            {
              "internalType": "int256",
              "name": "time",
              "type": "int256"
            }
          ],
          "internalType": "struct AppointmentHandler.Appointment[]",
          "name": "",
          "type": "tuple[]"
        }
      ],
      "payable": false,
      "stateMutability": "view",
      "type": "function"
    },
    {
      "constant": true,
      "inputs": [
        {
          "internalType": "string",
          "name": "noPlate",
          "type": "string"
        }
      ],
      "name": "getCarDetails",
      "outputs": [
        {
          "components": [
            {
              "internalType": "string",
              "name": "brand",
              "type": "string"
            },
            {
              "internalType": "string",
              "name": "model",
              "type": "string"
            },
            {
              "internalType": "string",
              "name": "year",
              "type": "string"
            }
          ],
          "internalType": "struct UserContract.CarInfo",
          "name": "",
          "type": "tuple"
        }
      ],
      "payable": false,
      "stateMutability": "view",
      "type": "function"
    },
    {
      "constant": true,
      "inputs": [
        {
          "internalType": "bytes32",
          "name": "userId",
          "type": "bytes32"
        }
      ],
      "name": "getCarPlates",
      "outputs": [
        {
          "internalType": "string[]",
          "name": "",
          "type": "string[]"
        }
      ],
      "payable": false,
      "stateMutability": "view",
      "type": "function"
    },
    {
      "constant": true,
      "inputs": [
        {
          "internalType": "bytes32",
          "name": "userId",
          "type": "bytes32"
        }
      ],
      "name": "getCars",
      "outputs": [
        {
          "components": [
            {
              "internalType": "string",
              "name": "brand",
              "type": "string"
            },
            {
              "internalType": "string",
              "name": "model",
              "type": "string"
            },
            {
              "internalType": "string",
              "name": "year",
              "type": "string"
            }
          ],
          "internalType": "struct UserContract.CarInfo[]",
          "name": "",
          "type": "tuple[]"
        }
      ],
      "payable": false,
      "stateMutability": "view",
      "type": "function"
    },
    {
      "constant": true,
      "inputs": [
        {
          "internalType": "bytes32",
          "name": "id",
          "type": "bytes32"
        }
      ],
      "name": "getDealerInfo",
      "outputs": [
        {
          "components": [
            {
              "internalType": "string",
              "name": "dealerName",
              "type": "string"
            },
            {
              "internalType": "string",
              "name": "firstName",
              "type": "string"
            },
            {
              "internalType": "string",
              "name": "lastName",
              "type": "string"
            },
            {
              "internalType": "string",
              "name": "addr",
              "type": "string"
            },
            {
              "internalType": "string[2]",
              "name": "location",
              "type": "string[2]"
            },
            {
              "internalType": "string",
              "name": "phoneNo",
              "type": "string"
            },
            {
              "internalType": "string",
              "name": "bestSeller",
              "type": "string"
            },
            {
              "internalType": "string",
              "name": "promotion",
              "type": "string"
            },
            {
              "internalType": "string",
              "name": "otherServices",
              "type": "string"
            },
            {
              "internalType": "string[]",
              "name": "availableServices",
              "type": "string[]"
            },
            {
              "internalType": "string[][]",
              "name": "availableSubServices",
              "type": "string[][]"
            }
          ],
          "internalType": "struct DealerContract.DealerInfo",
          "name": "",
          "type": "tuple"
        }
      ],
      "payable": false,
      "stateMutability": "view",
      "type": "function"
    },
    {
      "constant": true,
      "inputs": [
        {
          "internalType": "string",
          "name": "id",
          "type": "string"
        }
      ],
      "name": "getHash",
      "outputs": [
        {
          "internalType": "bytes32",
          "name": "",
          "type": "bytes32"
        }
      ],
      "payable": false,
      "stateMutability": "pure",
      "type": "function"
    },
    {
      "constant": true,
      "inputs": [
        {
          "internalType": "bytes32",
          "name": "dealerId",
          "type": "bytes32"
        }
      ],
      "name": "getPendingAppointments",
      "outputs": [
        {
          "components": [
            {
              "internalType": "bytes32",
              "name": "userId",
              "type": "bytes32"
            },
            {
              "internalType": "bytes32",
              "name": "dealerId",
              "type": "bytes32"
            },
            {
              "internalType": "string",
              "name": "carPlate",
              "type": "string"
            },
            {
              "internalType": "int256",
              "name": "time",
              "type": "int256"
            }
          ],
          "internalType": "struct AppointmentHandler.Appointment[]",
          "name": "",
          "type": "tuple[]"
        }
      ],
      "payable": false,
      "stateMutability": "view",
      "type": "function"
    },
    {
      "constant": true,
      "inputs": [
        {
          "internalType": "string",
          "name": "noPlate",
          "type": "string"
        }
      ],
      "name": "getRecords",
      "outputs": [
        {
          "components": [
            {
              "internalType": "bytes32",
              "name": "dealerId",
              "type": "bytes32"
            },
            {
              "internalType": "string[]",
              "name": "services",
              "type": "string[]"
            },
            {
              "internalType": "string[]",
              "name": "subservices",
              "type": "string[]"
            },
            {
              "internalType": "string",
              "name": "comment",
              "type": "string"
            },
            {
              "internalType": "uint256",
              "name": "timeStamp",
              "type": "uint256"
            }
          ],
          "internalType": "struct UserContract.RecordInternal[]",
          "name": "",
          "type": "tuple[]"
        }
      ],
      "payable": false,
      "stateMutability": "view",
      "type": "function"
    },
    {
      "constant": true,
      "inputs": [],
      "name": "getServices",
      "outputs": [
        {
          "internalType": "string[]",
          "name": "",
          "type": "string[]"
        }
      ],
      "payable": false,
      "stateMutability": "view",
      "type": "function"
    },
    {
      "constant": true,
      "inputs": [
        {
          "internalType": "string",
          "name": "serviceName",
          "type": "string"
        }
      ],
      "name": "getSubServices",
      "outputs": [
        {
          "internalType": "string[]",
          "name": "",
          "type": "string[]"
        }
      ],
      "payable": false,
      "stateMutability": "view",
      "type": "function"
    },
    {
      "constant": true,
      "inputs": [
        {
          "internalType": "bytes32",
          "name": "userId",
          "type": "bytes32"
        }
      ],
      "name": "getUserAppointment",
      "outputs": [
        {
          "components": [
            {
              "internalType": "bytes32",
              "name": "userId",
              "type": "bytes32"
            },
            {
              "internalType": "bytes32",
              "name": "dealerId",
              "type": "bytes32"
            },
            {
              "internalType": "string",
              "name": "carPlate",
              "type": "string"
            },
            {
              "internalType": "int256",
              "name": "time",
              "type": "int256"
            }
          ],
          "internalType": "struct AppointmentHandler.Appointment",
          "name": "",
          "type": "tuple"
        }
      ],
      "payable": false,
      "stateMutability": "view",
      "type": "function"
    },
    {
      "constant": true,
      "inputs": [
        {
          "internalType": "bytes32",
          "name": "userId",
          "type": "bytes32"
        }
      ],
      "name": "getUserInfo",
      "outputs": [
        {
          "components": [
            {
              "internalType": "string",
              "name": "firstName",
              "type": "string"
            },
            {
              "internalType": "string",
              "name": "lastName",
              "type": "string"
            },
            {
              "internalType": "string",
              "name": "adr",
              "type": "string"
            },
            {
              "internalType": "string",
              "name": "phNo",
              "type": "string"
            },
            {
              "internalType": "string",
              "name": "email",
              "type": "string"
            }
          ],
          "internalType": "struct UserContract.UserInfo",
          "name": "",
          "type": "tuple"
        }
      ],
      "payable": false,
      "stateMutability": "view",
      "type": "function"
    },
    {
      "constant": true,
      "inputs": [
        {
          "internalType": "bytes32",
          "name": "adr",
          "type": "bytes32"
        }
      ],
      "name": "isVerified",
      "outputs": [
        {
          "internalType": "bool",
          "name": "",
          "type": "bool"
        }
      ],
      "payable": false,
      "stateMutability": "view",
      "type": "function"
    },
    {
      "constant": true,
      "inputs": [
        {
          "internalType": "string",
          "name": "",
          "type": "string"
        }
      ],
      "name": "notificationTimes",
      "outputs": [
        {
          "internalType": "uint256",
          "name": "",
          "type": "uint256"
        }
      ],
      "payable": false,
      "stateMutability": "view",
      "type": "function"
    },
    {
      "constant": true,
      "inputs": [],
      "name": "owner",
      "outputs": [
        {
          "internalType": "address",
          "name": "",
          "type": "address"
        }
      ],
      "payable": false,
      "stateMutability": "view",
      "type": "function"
    },
    {
      "constant": false,
      "inputs": [
        {
          "internalType": "bytes32",
          "name": "dealershipId",
          "type": "bytes32"
        },
        {
          "internalType": "bytes32",
          "name": "otherId",
          "type": "bytes32"
        }
      ],
      "name": "transferDealershipOwner",
      "outputs": [],
      "payable": false,
      "stateMutability": "nonpayable",
      "type": "function"
    },
    {
      "constant": false,
      "inputs": [
        {
          "internalType": "address",
          "name": "newOwner",
          "type": "address"
        }
      ],
      "name": "transferOwner",
      "outputs": [],
      "payable": false,
      "stateMutability": "nonpayable",
      "type": "function"
    },
    {
      "constant": false,
      "inputs": [
        {
          "internalType": "bytes32",
          "name": "dealerId",
          "type": "bytes32"
        },
        {
          "internalType": "bytes32",
          "name": "id",
          "type": "bytes32"
        },
        {
          "internalType": "string",
          "name": "noPlate",
          "type": "string"
        },
        {
          "internalType": "string[]",
          "name": "services",
          "type": "string[]"
        },
        {
          "internalType": "string[]",
          "name": "subservices",
          "type": "string[]"
        },
        {
          "internalType": "string",
          "name": "comment",
          "type": "string"
        },
        {
          "internalType": "uint256",
          "name": "timeStamp",
          "type": "uint256"
        }
      ],
      "name": "insertRecord",
      "outputs": [],
      "payable": false,
      "stateMutability": "nonpayable",
      "type": "function"
    },
    {
      "constant": true,
      "inputs": [
        {
          "internalType": "bytes32",
          "name": "userId",
          "type": "bytes32"
        }
      ],
      "name": "getLastServiceTimes",
      "outputs": [
        {
          "internalType": "uint256[255]",
          "name": "",
          "type": "uint256[255]"
        }
      ],
      "payable": false,
      "stateMutability": "view",
      "type": "function"
    },
    {
      "constant": false,
      "inputs": [
        {
          "internalType": "string",
          "name": "serviceName",
          "type": "string"
        },
        {
          "internalType": "uint256",
          "name": "time",
          "type": "uint256"
        }
      ],
      "name": "setServiceNotificationTime",
      "outputs": [],
      "payable": false,
      "stateMutability": "nonpayable",
      "type": "function"
    }
  ],
  "bytecode": "0x60806040526006805461fe0061ff0019909116179055600080546001600160a01b03191633179055615505806100366000396000f3fe608060405234801561001057600080fd5b506004361061021c5760003560e01c80637e41667f11610125578063adff8b0f116100ad578063c4e91d171161007c578063c4e91d17146104da578063c9b54a58146104ed578063d872acac1461050d578063ddb5f4761461052d578063e445268c1461054d5761021c565b8063adff8b0f14610474578063b2c9ae6014610494578063b63e01d2146104a7578063c181b273146104ba5761021c565b80638da5cb5b116100f45780638da5cb5b146104065780638ee242141461041b5780638f2b51441461042e57806399ec14f814610441578063a44e4c70146104545761021c565b80637e41667f146103ab57806382d7afbd146103c057806386e80b71146103d357806388fcd194146103f35761021c565b806350fb95e3116101a85780636b350edc116101775780636b350edc1461033d5780636fd7d2b51461035d578063752326c11461037057806375417851146103835780637d17f13c1461038b5761021c565b806350fb95e3146102e45780635a82610c146102f75780635b6beeb91461030a57806360e9480b1461032a5761021c565b80631b8f47fe116101ef5780631b8f47fe1461026f57806335f5dbd414610282578063369bfce414610295578063431a65fc146102a85780634fb2e45d146102d15761021c565b80630ad5be91146102215780630eb7bc8f146102365780631118127a146102495780631a4c85be1461025c575b600080fd5b61023461022f3660046142c0565b610560565b005b6102346102443660046144ae565b6105ff565b6102346102573660046145fb565b61068a565b61023461026a36600461447a565b610878565b61023461027d36600461424a565b610929565b610234610290366004614592565b6109ba565b6102346102a33660046144ae565b610a09565b6102bb6102b636600461447a565b610aa3565b6040516102c891906151cf565b60405180910390f35b6102346102df366004614224565b610b9a565b6102346102f23660046144ae565b610be6565b6102346103053660046145c7565b610cc9565b61031d61031836600461447a565b610d9f565b6040516102c89190615230565b6102346103383660046145c7565b610e14565b61035061034b36600461424a565b61108a565b6040516102c89190615213565b61023461036b36600461450b565b6110d3565b61023461037e3660046145fb565b61117d565b6102bb6112e4565b61039e61039936600461424a565b611439565b6040516102c89190615350565b6103b3611bc3565b6040516102c891906151be565b6102346103ce366004614286565b611c46565b6103e66103e136600461447a565b611d42565b6040516102c89190615202565b61023461040136600461447a565b61200c565b61040e61211a565b6040516102c891906151b0565b6102346104293660046143b8565b612129565b6102bb61043c36600461424a565b612230565b61031d61044f36600461447a565b612310565b61046761046236600461424a565b61232d565b6040516102c891906151e0565b61048761048236600461424a565b61247d565b6040516102c89190615381565b6102346104a23660046145c7565b61278f565b6104676104b536600461424a565b612852565b6104cd6104c836600461424a565b612995565b6040516102c89190615222565b6102346104e8366004614433565b6129c2565b6105006104fb36600461424a565b612a54565b6040516102c891906151f1565b61052061051b36600461447a565b612cf6565b6040516102c8919061533f565b61054061053b36600461424a565b612eb2565b6040516102c8919061532e565b61023461055b366004614286565b612f9f565b8661056a81612995565b61058f5760405162461bcd60e51b81526004016105869061531e565b60405180910390fd5b61059e8888888888888861302a565b60005b85518110156105f45760006105c88783815181106105bb57fe5b6020026020010151613187565b60008a8152601160205260409020909150849060ff8084169081106105e957fe5b0155506001016105a1565b505050505050505050565b6000546001600160a01b031633146106295760405162461bcd60e51b8152600401610586906152be565b81610633816132a6565b61064f5760405162461bcd60e51b8152600401610586906152de565b816007600061065d86613187565b60ff1660ff168152602001908152602001600020908051906020019061068492919061379b565b50505050565b60008181526001602052604090205460ff16156106b95760405162461bcd60e51b8152600401610586906152ee565b60008181526004602090815260409091208351805185936106de92849291019061379b565b5060208281015180516106f7926001850192019061379b565b506040820151805161071391600284019160209091019061379b565b506060820151805161072f91600384019160209091019061379b565b5060808201516107459060048301906002613819565b5060a0820151805161076191600684019160209091019061379b565b5060c0820151805161077d91600784019160209091019061379b565b5060e0820151805161079991600884019160209091019061379b565b5061010082015180516107b691600984019160209091019061379b565b5061012082015180516107d391600a840191602090910190613865565b5061014082015180516107f091600b8401916020909101906138b2565b5090505060006107ff826132c7565b121561083b57600580546001810182556000919091527f036b6384b5eca791c62761152d0c79bb0604c104a5fb6f4eb0703f3154bb3db0018190555b7fbcb28ce223d1d07df7ff015302f0aee0306ad6362ede3db7aa3c6d40a651f008828260405161086c929190615361565b60405180910390a15050565b6000546001600160a01b031633146108a25760405162461bcd60e51b8152600401610586906152be565b806108ac816132a6565b6108c85760405162461bcd60e51b8152600401610586906152de565b60405180602001604052806000815250600760006108e585613187565b60ff1660ff168152602001908152602001600020908051906020019061090c92919061379b565b50506006805460ff19811660ff9182166000190190911617905550565b6000546001600160a01b031633146109535760405162461bcd60e51b8152600401610586906152be565b600061095e826132c7565b905060008112156109815760405162461bcd60e51b81526004016105869061526e565b6000828152600160208190526040909120805460ff1916909117905560058054829081106109ab57fe5b60009182526020822001555050565b6000546001600160a01b031633146109e45760405162461bcd60e51b8152600401610586906152be565b806010836040516109f59190615198565b908152604051908190036020019020555050565b6000546001600160a01b03163314610a335760405162461bcd60e51b8152600401610586906152be565b8181610a3f828261330d565b610a5b5760405162461bcd60e51b8152600401610586906152ce565b600884604051610a6b9190615198565b9081526020016040518091039020610a838585613323565b81548110610a8d57fe5b906000526020600020016000610684919061390b565b6060600882604051610ab59190615198565b9081526020016040518091039020805480602002602001604051908101604052809291908181526020016000905b82821015610b8e5760008481526020908190208301805460408051601f6002600019610100600187161502019094169390930492830185900485028101850190915281815292830182828015610b7a5780601f10610b4f57610100808354040283529160200191610b7a565b820191906000526020600020905b815481529060010190602001808311610b5d57829003601f168201915b505050505081526020019060010190610ae3565b5050505090505b919050565b6000546001600160a01b03163314610bc45760405162461bcd60e51b8152600401610586906152be565b600080546001600160a01b0319166001600160a01b0392909216919091179055565b8160ff600882604051610bf99190615198565b9081526040519081900360200190205410610c265760405162461bcd60e51b81526004016105869061529e565b8282610c32828261330d565b15610c4f5760405162461bcd60e51b81526004016105869061525e565b6000546001600160a01b03163314610c795760405162461bcd60e51b8152600401610586906152be565b600885604051610c899190615198565b9081526040516020918190038201902080546001810180835560009283529183902087519293610cc093919092019188019061379b565b50505050505050565b8060200151610cd781612995565b610cf35760405162461bcd60e51b81526004016105869061531e565b6000610cfe83613404565b90506000198110610d215760405162461bcd60e51b81526004016105869061528e565b610d2f8360200151826134a7565b6040805160808101825260008082526020808301828152845180830186528381528486019081526060850184905288518452600f83529490922083518155915160018301559251805192939192610d8c926002850192019061379b565b5060608201518160030155905050505050565b6000600282604051602001610db49190615198565b60408051601f1981840301815290829052610dce91615198565b602060405180830381855afa158015610deb573d6000803e3d6000fd5b5050506040513d601f19601f82011682018060405250610e0e9190810190614268565b92915050565b8060200151610e2281612995565b610e3e5760405162461bcd60e51b81526004016105869061531e565b81516000818152600f602052604090205415610fee576000610e6384600001516135ac565b9050610e6d613952565b84516000908152600f6020908152604091829020825160808101845281548152600180830154828501526002808401805487519381161561010002600019011691909104601f81018690048602830186018752808352929593949386019391929091830182828015610f205780601f10610ef557610100808354040283529160200191610f20565b820191906000526020600020905b815481529060010190602001808311610f0357829003601f168201915b505050505081526020016003820154815250509050600e6000826020015181526020019081526020016000208281548110610f5757fe5b6000918252602082206004909102018181556001810182905590610f7e600283018261390b565b506000600391909101819055602080870180518352600e8252604080842080546001818101808455928752958590208b5160049092020190815592519483019490945588015180518993610fd992600285019291019061379b565b50606082015181600301555050505050611051565b602080840180516000908152600e835260408082208054600181810180845592855293869020895160049092020190815593519284019290925586015180519193879392611042926002850192019061379b565b50606082015181600301555050505b6000818152600f602090815260409182902085518155818601516001820155918501518051869392610d8c92600285019291019061379b565b61109261397a565b600082815260116020526040908190208151611fe08101928390529160ff9082845b8154815260200190600101908083116110b45750505050509050919050565b82826110df828261330d565b6110fb5760405162461bcd60e51b8152600401610586906152ce565b6000546001600160a01b031633146111255760405162461bcd60e51b8152600401610586906152be565b826008866040516111369190615198565b908152602001604051809103902061114e8787613323565b8154811061115857fe5b90600052602060002001908051906020019061117592919061379b565b505050505050565b600081815260016020526040902054819060ff166111ad5760405162461bcd60e51b81526004016105869061524e565b60008281526004602090815260409091208451805186936111d292849291019061379b565b5060208281015180516111eb926001850192019061379b565b506040820151805161120791600284019160209091019061379b565b506060820151805161122391600384019160209091019061379b565b5060808201516112399060048301906002613819565b5060a0820151805161125591600684019160209091019061379b565b5060c0820151805161127191600784019160209091019061379b565b5060e0820151805161128d91600884019160209091019061379b565b5061010082015180516112aa91600984019160209091019061379b565b5061012082015180516112c791600a840191602090910190613865565b50610140820151805161117591600b8401916020909101906138b2565b6006546040805160ff90921680835260208082028401019091526060918291801561132357816020015b606081526020019060019003908161130e5790505b5090506000805b60065460ff610100909104811690821610156114305760ff811660009081526007602052604090205460026000196101006001841615020190911604156114285760ff811660009081526007602090815260409182902080548351601f6002600019610100600186161502019093169290920491820184900484028101840190945280845290918301828280156114025780601f106113d757610100808354040283529160200191611402565b820191906000526020600020905b8154815290600101906020018083116113e557829003601f168201915b5050505050838380600101945060ff168151811061141c57fe5b60200260200101819052505b60010161132a565b50909150505b90565b611441613999565b6000828152600460209081526040918290208251815460026001821615610100026000190190911604601f8101849004909302810161018090810190945261016081018381529093919284928491908401828280156114e15780601f106114b6576101008083540402835291602001916114e1565b820191906000526020600020905b8154815290600101906020018083116114c457829003601f168201915b50505050508152602001600182018054600181600116156101000203166002900480601f0160208091040260200160405190810160405280929190818152602001828054600181600116156101000203166002900480156115835780601f1061155857610100808354040283529160200191611583565b820191906000526020600020905b81548152906001019060200180831161156657829003601f168201915b5050509183525050600282810180546040805160206001841615610100026000190190931694909404601f810183900483028501830190915280845293810193908301828280156116155780601f106115ea57610100808354040283529160200191611615565b820191906000526020600020905b8154815290600101906020018083116115f857829003601f168201915b505050918352505060038201805460408051602060026001851615610100026000190190941693909304601f81018490048402820184019092528181529382019392918301828280156116a95780601f1061167e576101008083540402835291602001916116a9565b820191906000526020600020905b81548152906001019060200180831161168c57829003601f168201915b5050509183525050604080518082019091526020909101906004830160026000835b8282101561176e57838201805460408051602060026001851615610100026000190190941693909304601f8101849004840282018401909252818152929183018282801561175a5780601f1061172f5761010080835404028352916020019161175a565b820191906000526020600020905b81548152906001019060200180831161173d57829003601f168201915b5050505050815260200190600101906116cb565b5050509082525060068201805460408051602060026001851615610100026000190190941693909304601f81018490048402820184019092528181529382019392918301828280156118015780601f106117d657610100808354040283529160200191611801565b820191906000526020600020905b8154815290600101906020018083116117e457829003601f168201915b505050918352505060078201805460408051602060026001851615610100026000190190941693909304601f81018490048402820184019092528181529382019392918301828280156118955780601f1061186a57610100808354040283529160200191611895565b820191906000526020600020905b81548152906001019060200180831161187857829003601f168201915b505050918352505060088201805460408051602060026001851615610100026000190190941693909304601f81018490048402820184019092528181529382019392918301828280156119295780601f106118fe57610100808354040283529160200191611929565b820191906000526020600020905b81548152906001019060200180831161190c57829003601f168201915b505050918352505060098201805460408051602060026001851615610100026000190190941693909304601f81018490048402820184019092528181529382019392918301828280156119bd5780601f10611992576101008083540402835291602001916119bd565b820191906000526020600020905b8154815290600101906020018083116119a057829003601f168201915b50505050508152602001600a8201805480602002602001604051908101604052809291908181526020016000905b82821015611a965760008481526020908190208301805460408051601f6002600019610100600187161502019094169390930492830185900485028101850190915281815292830182828015611a825780601f10611a5757610100808354040283529160200191611a82565b820191906000526020600020905b815481529060010190602001808311611a6557829003601f168201915b5050505050815260200190600101906119eb565b505050508152602001600b8201805480602002602001604051908101604052809291908181526020016000905b82821015611bb557838290600052602060002001805480602002602001604051908101604052809291908181526020016000905b82821015611ba25760008481526020908190208301805460408051601f6002600019610100600187161502019094169390930492830185900485028101850190915281815292830182828015611b8e5780601f10611b6357610100808354040283529160200191611b8e565b820191906000526020600020905b815481529060010190602001808311611b7157829003601f168201915b505050505081526020019060010190611af7565b5050505081526020019060010190611ac3565b505050915250909392505050565b6000546060906001600160a01b03163314611bf05760405162461bcd60e51b8152600401610586906152be565b6005805480602002602001604051908101604052809291908181526020018280548015611c3c57602002820191906000526020600020905b815481526020019060010190808311611c28575b5050505050905090565b600082815260016020526040902054829060ff16611c765760405162461bcd60e51b81526004016105869061524e565b6000828152600160208181526040808420805460ff1990811690941790558684528084208054909316909255848352600381528183208390558583526002905280822084835291208154611cca92906139f9565b506000838152600260205260408120611ce291613a39565b60005b600083815260026020526040902054811015610684578260036000600260008781526020019081526020016000208481548110611d1e57fe5b60009182526020808320909101548352820192909252604001902055600101611ce5565b6060600982604051611d549190615198565b9081526020016040518091039020805480602002602001604051908101604052809291908181526020016000905b82821015610b8e57838290600052602060002090600502016040518060a00160405290816000820154815260200160018201805480602002602001604051908101604052809291908181526020016000905b82821015611e7f5760008481526020908190208301805460408051601f6002600019610100600187161502019094169390930492830185900485028101850190915281815292830182828015611e6b5780601f10611e4057610100808354040283529160200191611e6b565b820191906000526020600020905b815481529060010190602001808311611e4e57829003601f168201915b505050505081526020019060010190611dd4565b50505050815260200160028201805480602002602001604051908101604052809291908181526020016000905b82821015611f575760008481526020908190208301805460408051601f6002600019610100600187161502019094169390930492830185900485028101850190915281815292830182828015611f435780601f10611f1857610100808354040283529160200191611f43565b820191906000526020600020905b815481529060010190602001808311611f2657829003601f168201915b505050505081526020019060010190611eac565b5050509082525060038201805460408051602060026001851615610100026000190190941693909304601f8101849004840282018401909252818152938201939291830182828015611fea5780601f10611fbf57610100808354040283529160200191611fea565b820191906000526020600020905b815481529060010190602001808311611fcd57829003601f168201915b5050505050815260200160048201548152505081526020019060010190611d82565b6000546001600160a01b031633146120365760405162461bcd60e51b8152600401610586906152be565b80612040816132a6565b1561205d5760405162461bcd60e51b8152600401610586906152fe565b60065460ff61010082048116911611156120895760405162461bcd60e51b81526004016105869061530e565b60005b60065460ff610100909104811690821610156121145760ff81166000908152600760205260409020546002600019610100600184161502019091160461210c5760ff8116600090815260076020908152604090912084516120ef9286019061379b565b50506006805460ff8082166001011660ff19909116179055612116565b60010161208c565b505b5050565b6000546001600160a01b031681565b80600c8360405161213a9190615198565b9081526020016040518091039020600082015181600001908051906020019061216492919061379b565b50602082810151805161217d926001850192019061379b565b506040820151805161219991600284019160209091019061379b565b5090505060006121a9848461364e565b905060008112156121ef576000848152600b60209081526040822080546001810180835591845292829020865191936121e8939101919087019061379b565b5050610684565b6000848152600b6020526040902080548491908390811061220c57fe5b90600052602060002001908051906020019061222992919061379b565b5050505050565b6060600b6000838152602001908152602001600020805480602002602001604051908101604052809291908181526020016000905b82821015610b8e5760008481526020908190208301805460408051601f60026000196101006001871615020190941693909304928301859004850281018501909152818152928301828280156122fc5780601f106122d1576101008083540402835291602001916122fc565b820191906000526020600020905b8154815290600101906020018083116122df57829003601f168201915b505050505081526020019060010190612265565b805160208183018101805160108252928201919093012091525481565b60608161233981612995565b6123555760405162461bcd60e51b81526004016105869061531e565b6000838152600e6020908152604080832080548251818502810185019093528083529193909284015b8282101561247057838290600052602060002090600402016040518060800160405290816000820154815260200160018201548152602001600282018054600181600116156101000203166002900480601f01602080910402602001604051908101604052809291908181526020018280546001816001161561010002031660029004801561244e5780601f106124235761010080835404028352916020019161244e565b820191906000526020600020905b81548152906001019060200180831161243157829003601f168201915b505050505081526020016003820154815250508152602001906001019061237e565b5050505091505b50919050565b612485613a57565b6000828152600a60209081526040918290208251815460026001821615610100026000190190911604601f8101849004909302810160c090810190945260a081018381529093919284928491908401828280156125235780601f106124f857610100808354040283529160200191612523565b820191906000526020600020905b81548152906001019060200180831161250657829003601f168201915b50505050508152602001600182018054600181600116156101000203166002900480601f0160208091040260200160405190810160405280929190818152602001828054600181600116156101000203166002900480156125c55780601f1061259a576101008083540402835291602001916125c5565b820191906000526020600020905b8154815290600101906020018083116125a857829003601f168201915b5050509183525050600282810180546040805160206001841615610100026000190190931694909404601f810183900483028501830190915280845293810193908301828280156126575780601f1061262c57610100808354040283529160200191612657565b820191906000526020600020905b81548152906001019060200180831161263a57829003601f168201915b505050918352505060038201805460408051602060026001851615610100026000190190941693909304601f81018490048402820184019092528181529382019392918301828280156126eb5780601f106126c0576101008083540402835291602001916126eb565b820191906000526020600020905b8154815290600101906020018083116126ce57829003601f168201915b505050918352505060048201805460408051602060026001851615610100026000190190941693909304601f810184900484028201840190925281815293820193929183018282801561277f5780601f106127545761010080835404028352916020019161277f565b820191906000526020600020905b81548152906001019060200180831161276257829003601f168201915b5050505050815250509050919050565b806020015161279d81612995565b6127b95760405162461bcd60e51b81526004016105869061531e565b60006127c483613404565b905060001981106127e75760405162461bcd60e51b81526004016105869061528e565b602080840180516000908152600d83526040808220805460018181018084559285529386902089516004909202019081559351928401929092558601518051919387939261283b926002850192019061379b565b506060820151816003015550505061211483610cc9565b60608161285e81612995565b61287a5760405162461bcd60e51b81526004016105869061531e565b6000838152600d6020908152604080832080548251818502810185019093528083529193909284015b8282101561247057838290600052602060002090600402016040518060800160405290816000820154815260200160018201548152602001600282018054600181600116156101000203166002900480601f0160208091040260200160405190810160405280929190818152602001828054600181600116156101000203166002900480156129735780601f1061294857610100808354040283529160200191612973565b820191906000526020600020905b81548152906001019060200180831161295657829003601f168201915b50505050508152602001600382015481525050815260200190600101906128a3565b60008181526001602052604081205460ff1680610e0e575050600090815260036020526040902054151590565b6000828152600a602090815260409091208251805184936129e792849291019061379b565b506020828101518051612a00926001850192019061379b565b5060408201518051612a1c91600284019160209091019061379b565b5060608201518051612a3891600384019160209091019061379b565b506080820151805161222991600484019160209091019061379b565b606080600b600084815260200190815260200160002080549050604051908082528060200260200182016040528015612aa757816020015b612a94613a86565b815260200190600190039081612a8c5790505b50905060005b6000848152600b6020526040902054811015612cef576000848152600b602052604090208054600c919083908110612ae157fe5b90600052602060002001604051612af891906151a4565b9081526040805160209281900383018120805460026001821615610100026000190190911604601f81018590049094028201608090810190935260608201848152919390928492918491840182828015612b935780601f10612b6857610100808354040283529160200191612b93565b820191906000526020600020905b815481529060010190602001808311612b7657829003601f168201915b50505050508152602001600182018054600181600116156101000203166002900480601f016020809104026020016040519081016040528092919081815260200182805460018160011615610100020316600290048015612c355780601f10612c0a57610100808354040283529160200191612c35565b820191906000526020600020905b815481529060010190602001808311612c1857829003601f168201915b5050509183525050600282810180546040805160206001841615610100026000190190931694909404601f81018390048302850183019091528084529381019390830182828015612cc75780601f10612c9c57610100808354040283529160200191612cc7565b820191906000526020600020905b815481529060010190602001808311612caa57829003601f168201915b505050505081525050828281518110612cdc57fe5b6020908102919091010152600101612aad565b5092915050565b612cfe613a86565b600c82604051612d0e9190615198565b9081526040805160209281900383018120805460026001821615610100026000190190911604601f81018590049094028201608090810190935260608201848152919390928492918491840182828015612da95780601f10612d7e57610100808354040283529160200191612da9565b820191906000526020600020905b815481529060010190602001808311612d8c57829003601f168201915b50505050508152602001600182018054600181600116156101000203166002900480601f016020809104026020016040519081016040528092919081815260200182805460018160011615610100020316600290048015612e4b5780601f10612e2057610100808354040283529160200191612e4b565b820191906000526020600020905b815481529060010190602001808311612e2e57829003601f168201915b5050509183525050600282810180546040805160206001841615610100026000190190931694909404601f8101839004830285018301909152808452938101939083018282801561277f5780601f106127545761010080835404028352916020019161277f565b612eba613952565b600f60008381526020019081526020016000206040518060800160405290816000820154815260200160018201548152602001600282018054600181600116156101000203166002900480601f016020809104026020016040519081016040528092919081815260200182805460018160011615610100020316600290048015612f855780601f10612f5a57610100808354040283529160200191612f85565b820191906000526020600020905b815481529060010190602001808311612f6857829003601f168201915b505050505081526020016003820154815250509050919050565b600082815260016020526040902054829060ff16612fcf5760405162461bcd60e51b81526004016105869061524e565b60008281526003602052604090205415612ffb5760405162461bcd60e51b81526004016105869061523e565b506000828152600260209081526040808320805460018101825590845282842001849055928252600390522055565b8661303481612995565b6130505760405162461bcd60e51b81526004016105869061531e565b8451845111156130725760405162461bcd60e51b8152600401610586906152ae565b600061307e888861364e565b12156130bb576000878152600b60209081526040822080546001810180835591845292829020895191936130b893910191908a019061379b565b50505b6009866040516130cb9190615198565b90815260408051918290036020908101832060a0840183528b845283820189815292840188905260608401879052608084018690528054600181810180845560009384529284902086516005909302019182559351805192959491936131379392850192910190613865565b5060408201518051613153916002840191602090910190613865565b506060820151805161316f91600384019160209091019061379b565b50608082015181600401555050505050505050505050565b600080613193836136c0565b905060005b60065460ff6101009091048116908216101561329c5760ff81166000908152600760205260409020546002600019610100600184161502019091160415801590613286575060ff81166000908152600760209081526040918290208054835160026001831615610100026000190190921691909104601f810184900484028201840190945283815285936132849391929183018282801561327a5780601f1061324f5761010080835404028352916020019161327a565b820191906000526020600020905b81548152906001019060200180831161325d57829003601f168201915b50505050506136c0565b145b15613294579150610b959050565b600101613198565b5060ff9392505050565b600654600090610100900460ff166132bd83613187565b60ff161092915050565b6000805b6005548110156133035782600582815481106132e357fe5b906000526020600020015414156132fb579050610b95565b6001016132cb565b5060001992915050565b600060ff61331b8484613323565b109392505050565b6000805b6008846040516133379190615198565b9081526040519081900360200190205460ff8216101561329c5761335a836136c0565b6133ec60088660405161336d9190615198565b90815260200160405180910390208360ff168154811061338957fe5b600091825260209182902001805460408051601f600260001961010060018716150201909416939093049283018590048502810185019091528181529283018282801561327a5780601f1061324f5761010080835404028352916020019161327a565b14156133fc5760ff169050610e0e565b600101613327565b6000816020015161341481612995565b6134305760405162461bcd60e51b81526004016105869061531e565b60005b6020808501516000908152600e909152604090205481101561349c5761348884600e600087602001518152602001908152602001600020838154811061347557fe5b90600052602060002090600402016136f0565b15613494579150612477565b600101613433565b506000199392505050565b816134b181612995565b6134cd5760405162461bcd60e51b81526004016105869061531e565b600182015b6000848152600e602052604090205481101561358c576000848152600e6020526040902080548290811061350257fe5b9060005260206000209060040201600e6000868152602001908152602001600020600183038154811061353157fe5b906000526020600020906004020160008201548160000155600182015481600101556002820181600201908054600181600116156101000203166002900461357a929190613aa7565b506003918201549101556001016134d2565b506000838152600e60205260409020805490610684906000198301613b1b565b6000818152600f60205260408120546135d75760405162461bcd60e51b81526004016105869061527e565b6000828152600f60205260408120905b60018201546000908152600e602052604090205481101561349c5783600e600084600101548152602001908152602001600020828154811061362557fe5b9060005260206000209060040201600001541415613646579150610b959050565b6001016135e7565b6000805b6000848152600b60205260409020546001600160801b038216101561349c5761367a836136c0565b6000858152600b6020526040902080546136a291906001600160801b03851690811061338957fe5b14156136b8576001600160801b03169050610e0e565b600101613652565b6000816040516020016136d39190615198565b604051602081830303815290604052805190602001209050919050565b8054825160009114801561370b575081600101548360200151145b80156137815750600282810180546040805160206001841615610100026000190190931694909404601f810183900483028501830190915280845261377293929183018282801561327a5780601f1061324f5761010080835404028352916020019161327a565b61377f84604001516136c0565b145b8015613794575081600301548360600151145b9392505050565b828054600181600116156101000203166002900490600052602060002090601f016020900481019282601f106137dc57805160ff1916838001178555613809565b82800160010185558215613809579182015b828111156138095782518255916020019190600101906137ee565b50613815929150613b47565b5090565b8260028101928215613859579160200282015b82811115613859578251805161384991849160209091019061379b565b509160200191906001019061382c565b50613815929150613b61565b828054828255906000526020600020908101928215613859579160200282015b8281111561385957825180516138a291849160209091019061379b565b5091602001919060010190613885565b8280548282559060005260206000209081019282156138ff579160200282015b828111156138ff57825180516138ef918491602090910190613865565b50916020019190600101906138d2565b50613815929150613b84565b50805460018160011615610100020316600290046000825580601f10613931575061394f565b601f01602090049060005260206000209081019061394f9190613b47565b50565b6040805160808101825260008082526020820181905260609282018390529181019190915290565b60405180611fe0016040528060ff906020820280388339509192915050565b604051806101600160405280606081526020016060815260200160608152602001606081526020016139c9613ba7565b81526020016060815260200160608152602001606081526020016060815260200160608152602001606081525090565b8280548282559060005260206000209081019282156138095760005260206000209182015b82811115613809578254825591600101919060010190613a1e565b508054600082559060005260206000209081019061394f9190613b47565b6040518060a0016040528060608152602001606081526020016060815260200160608152602001606081525090565b60405180606001604052806060815260200160608152602001606081525090565b828054600181600116156101000203166002900490600052602060002090601f016020900481019282601f10613ae05780548555613809565b8280016001018555821561380957600052602060002091601f0160209004820182811115613809578254825591600101919060010190613a1e565b815481835581811115612114576004028160040283600052602060002091820191016121149190613bce565b61143691905b808211156138155760008155600101613b4d565b61143691905b80821115613815576000613b7b828261390b565b50600101613b67565b61143691905b80821115613815576000613b9e8282613c05565b50600101613b8a565b60405180604001604052806002905b6060815260200190600190039081613bb65790505090565b61143691905b8082111561381557600080825560018201819055613bf5600283018261390b565b5060006003820155600401613bd4565b508054600082559060005260206000209081019061394f9190613b61565b8035610e0e816154a5565b600082601f830112613c3f57600080fd5b8135613c52613c4d826153b8565b615392565b81815260209384019390925082018360005b83811015613c905781358601613c7a8882613cec565b8452506020928301929190910190600101613c64565b5050505092915050565b600082601f830112613cab57600080fd5b6002613cb9613c4d826153d8565b9150818360005b83811015613c905781358601613cd68882613dbc565b8452506020928301929190910190600101613cc0565b600082601f830112613cfd57600080fd5b8135613d0b613c4d826153b8565b81815260209384019390925082018360005b83811015613c905781358601613d338882613dbc565b8452506020928301929190910190600101613d1d565b600082601f830112613d5a57600080fd5b8135613d68613c4d826153b8565b81815260209384019390925082018360005b83811015613c905781358601613d908882613dbc565b8452506020928301929190910190600101613d7a565b8035610e0e816154b9565b8051610e0e816154b9565b600082601f830112613dcd57600080fd5b8135613ddb613c4d826153f5565b91508082526020830160208301858383011115613df757600080fd5b613e02838284615463565b50505092915050565b600060808284031215613e1d57600080fd5b613e276080615392565b90506000613e358484613da6565b8252506020613e4684848301613da6565b60208301525060408201356001600160401b03811115613e6557600080fd5b613e7184828501613dbc565b6040830152506060613e8584828501613da6565b60608301525092915050565b600060608284031215613ea357600080fd5b613ead6060615392565b905081356001600160401b03811115613ec557600080fd5b613ed184828501613dbc565b82525060208201356001600160401b03811115613eed57600080fd5b613ef984828501613dbc565b60208301525060408201356001600160401b03811115613f1857600080fd5b613f2484828501613dbc565b60408301525092915050565b60006101608284031215613f4357600080fd5b613f4e610160615392565b905081356001600160401b03811115613f6657600080fd5b613f7284828501613dbc565b82525060208201356001600160401b03811115613f8e57600080fd5b613f9a84828501613dbc565b60208301525060408201356001600160401b03811115613fb957600080fd5b613fc584828501613dbc565b60408301525060608201356001600160401b03811115613fe457600080fd5b613ff084828501613dbc565b60608301525060808201356001600160401b0381111561400f57600080fd5b61401b84828501613c9a565b60808301525060a08201356001600160401b0381111561403a57600080fd5b61404684828501613dbc565b60a08301525060c08201356001600160401b0381111561406557600080fd5b61407184828501613dbc565b60c08301525060e08201356001600160401b0381111561409057600080fd5b61409c84828501613dbc565b60e0830152506101008201356001600160401b038111156140bc57600080fd5b6140c884828501613dbc565b610100830152506101208201356001600160401b038111156140e957600080fd5b6140f584828501613cec565b610120830152506101408201356001600160401b0381111561411657600080fd5b61412284828501613c2e565b6101408301525092915050565b600060a0828403121561414157600080fd5b61414b60a0615392565b905081356001600160401b0381111561416357600080fd5b61416f84828501613dbc565b82525060208201356001600160401b0381111561418b57600080fd5b61419784828501613dbc565b60208301525060408201356001600160401b038111156141b657600080fd5b6141c284828501613dbc565b60408301525060608201356001600160401b038111156141e157600080fd5b6141ed84828501613dbc565b60608301525060808201356001600160401b0381111561420c57600080fd5b61421884828501613dbc565b60808301525092915050565b60006020828403121561423657600080fd5b60006142428484613c23565b949350505050565b60006020828403121561425c57600080fd5b60006142428484613da6565b60006020828403121561427a57600080fd5b60006142428484613db1565b6000806040838503121561429957600080fd5b60006142a58585613da6565b92505060206142b685828601613da6565b9150509250929050565b600080600080600080600060e0888a0312156142db57600080fd5b60006142e78a8a613da6565b97505060206142f88a828b01613da6565b96505060408801356001600160401b0381111561431457600080fd5b6143208a828b01613dbc565b95505060608801356001600160401b0381111561433c57600080fd5b6143488a828b01613d49565b94505060808801356001600160401b0381111561436457600080fd5b6143708a828b01613d49565b93505060a08801356001600160401b0381111561438c57600080fd5b6143988a828b01613dbc565b92505060c06143a98a828b01613da6565b91505092959891949750929550565b6000806000606084860312156143cd57600080fd5b60006143d98686613da6565b93505060208401356001600160401b038111156143f557600080fd5b61440186828701613dbc565b92505060408401356001600160401b0381111561441d57600080fd5b61442986828701613e91565b9150509250925092565b6000806040838503121561444657600080fd5b60006144528585613da6565b92505060208301356001600160401b0381111561446e57600080fd5b6142b68582860161412f565b60006020828403121561448c57600080fd5b81356001600160401b038111156144a257600080fd5b61424284828501613dbc565b600080604083850312156144c157600080fd5b82356001600160401b038111156144d757600080fd5b6144e385828601613dbc565b92505060208301356001600160401b038111156144ff57600080fd5b6142b685828601613dbc565b60008060006060848603121561452057600080fd5b83356001600160401b0381111561453657600080fd5b61454286828701613dbc565b93505060208401356001600160401b0381111561455e57600080fd5b61456a86828701613dbc565b92505060408401356001600160401b0381111561458657600080fd5b61442986828701613dbc565b600080604083850312156145a557600080fd5b82356001600160401b038111156145bb57600080fd5b6142a585828601613dbc565b6000602082840312156145d957600080fd5b81356001600160401b038111156145ef57600080fd5b61424284828501613e0b565b6000806040838503121561460e57600080fd5b82356001600160401b0381111561462457600080fd5b6142a585828601613f30565b60006137948383614818565b600061464883836149f1565b505060200190565b60006137948383614a29565b60006137948383614ecf565b60006137948383614f2b565b600061379483836150a3565b61468981615447565b82525050565b600061469a8261542e565b6146a4818561543e565b9350836020820285016146b68561541c565b8060005b858110156146f057848403895281516146d38582614630565b94506146de8361541c565b60209a909a01999250506001016146ba565b5091979650505050505050565b60006147088261542e565b614712818561543e565b935061471d8361541c565b8060005b8381101561474b578151614735888261463c565b97506147408361541c565b925050600101614721565b509495945050505050565b600061476182615432565b61476b8185610b95565b93508360208202850161477d85611436565b8060005b858110156146f0578484038952815161479a8582614650565b94506147a58361541c565b60209a909a0199925050600101614781565b60006147c28261542e565b6147cc818561543e565b9350836020820285016147de8561541c565b8060005b858110156146f057848403895281516147fb8582614650565b94506148068361541c565b60209a909a01999250506001016147e2565b60006148238261542e565b61482d818561543e565b93508360208202850161483f8561541c565b8060005b858110156146f0578484038952815161485c8582614650565b94506148678361541c565b60209a909a0199925050600101614843565b60006148848261542e565b61488e818561543e565b9350836020820285016148a08561541c565b8060005b858110156146f057848403895281516148bd858261465c565b94506148c88361541c565b60209a909a01999250506001016148a4565b60006148e58261542e565b6148ef818561543e565b9350836020820285016149018561541c565b8060005b858110156146f0578484038952815161491e8582614668565b94506149298361541c565b60209a909a0199925050600101614905565b60006149468261542e565b614950818561543e565b9350836020820285016149628561541c565b8060005b858110156146f0578484038952815161497f8582614674565b945061498a8361541c565b60209a909a0199925050600101614966565b6149a581615438565b6149af8184610b95565b92506149ba82611436565b8060005b838110156111755781516149d2878261463c565b96506149dd8361541c565b9250506001016149be565b61468981615452565b61468981611436565b6000614a058261542e565b614a0f8185610b95565b9350614a1f81856020860161546f565b9290920192915050565b6000614a348261542e565b614a3e818561543e565b9350614a4e81856020860161546f565b614a578161549b565b9093019392505050565b600081546001811660008114614a7e5760018114614aa157614ae0565b607f6002830416614a8f8187610b95565b60ff1984168152955085019250614ae0565b60028204614aaf8187610b95565b9550614aba85615422565b60005b82811015614ad957815488820152600190910190602001614abd565b5050850192505b505092915050565b6000614af560218361543e565b7f5468617420656d706c6f79656520616c726561647920776f726b7320746865728152606560f81b602082015260400192915050565b6000614b3860298361543e565b7f596f75206d7573742062652061206465616c657273686970206f776e657220748152686f20646f207468697360b81b602082015260400192915050565b6000614b83601e8361543e565b7f54686174207375627365727669636520616c7265616479206578697374730000815260200192915050565b6000614bbc60218361543e565b7f4e6f206170706c69636174696f6e2065786973747320666f72207468617420698152601960fa1b602082015260400192915050565b6000614bff60218361543e565b7f5573657220646f6573206e6f74206861766520616e206170706f696e746d656e8152601d60fa1b602082015260400192915050565b6000614c42601f8361543e565b7f54686174206170706f696e746d656e7420646f6573206e6f7420657869737400815260200192915050565b6000614c7b60218361543e565b7f4d6178696d756d207375627365727669636520616d6f756e74207265616368658152601960fa1b602082015260400192915050565b6000614cbe60338361543e565b7f4e756d626572206f6620737562736572766963657320646f6573206e6f74206d8152720c2e8c6d040e6cae4ecd2c6ca40d8cadccee8d606b1b602082015260400192915050565b6000614d1360158361543e565b742cb7ba9030b932903737ba103a34329037bbb732b960591b815260200192915050565b6000614d44602c8361543e565b7f54686174207375627365727669636520646f65736e7420657869737420696e2081526b1d1a1a5cc818dbdb9d195e1d60a21b602082015260400192915050565b6000614d92601b8361543e565b7f54686174207365727669636520646f6573206e6f742065786973740000000000815260200192915050565b6000614dcb60228361543e565b7f54686174206164647265737320697320616c7265616479207265676973746572815261195960f21b602082015260400192915050565b6000614e0f601b8361543e565b7f54686174207365727669636520616c7265616479206578697374730000000000815260200192915050565b6000614e4860288361543e565b7f54686572652061726520746865206d6178696d756d206e756d626572206f6620815267736572766963657360c01b602082015260400192915050565b6000614e9260288361543e565b7f596f75206d7573742062652061207665726966696564206465616c657220746f81526720646f207468697360c01b602082015260400192915050565b80516000906080840190614ee385826149f1565b506020830151614ef660208601826149f1565b5060408301518482036040860152614f0e8282614a29565b9150506060830151614f2360608601826149f1565b509392505050565b8051606080845260009190840190614f438282614a29565b91505060208301518482036020860152614f5d8282614a29565b91505060408301518482036040860152614f778282614a29565b95945050505050565b805161016080845260009190840190614f998282614a29565b91505060208301518482036020860152614fb38282614a29565b91505060408301518482036040860152614fcd8282614a29565b91505060608301518482036060860152614fe78282614a29565b915050608083015184820360808601526150018282614756565b91505060a083015184820360a086015261501b8282614a29565b91505060c083015184820360c08601526150358282614a29565b91505060e083015184820360e086015261504f8282614a29565b91505061010083015184820361010086015261506b8282614a29565b9150506101208301518482036101208601526150878282614818565b915050610140830151848203610140860152614f77828261468f565b805160009060a08401906150b785826149f1565b50602083015184820360208601526150cf8282614818565b915050604083015184820360408601526150e98282614818565b915050606083015184820360608601526151038282614a29565b9150506080830151614f2360808601826149f1565b805160a0808452600091908401906151308282614a29565b9150506020830151848203602086015261514a8282614a29565b915050604083015184820360408601526151648282614a29565b9150506060830151848203606086015261517e8282614a29565b91505060808301518482036080860152614f778282614a29565b600061379482846149fa565b60006137948284614a61565b60208101610e0e8284614680565b6020808252810161379481846146fd565b6020808252810161379481846147b7565b602080825281016137948184614879565b6020808252810161379481846148da565b60208082528101613794818461493b565b611fe08101610e0e828461499c565b60208101610e0e82846149e8565b60208101610e0e82846149f1565b60208082528101610e0e81614ae8565b60208082528101610e0e81614b2b565b60208082528101610e0e81614b76565b60208082528101610e0e81614baf565b60208082528101610e0e81614bf2565b60208082528101610e0e81614c35565b60208082528101610e0e81614c6e565b60208082528101610e0e81614cb1565b60208082528101610e0e81614d06565b60208082528101610e0e81614d37565b60208082528101610e0e81614d85565b60208082528101610e0e81614dbe565b60208082528101610e0e81614e02565b60208082528101610e0e81614e3b565b60208082528101610e0e81614e85565b602080825281016137948184614ecf565b602080825281016137948184614f2b565b602080825281016137948184614f80565b604080825281016153728185614f80565b905061379460208301846149f1565b602080825281016137948184615118565b6040518181016001600160401b03811182821017156153b057600080fd5b604052919050565b60006001600160401b038211156153ce57600080fd5b5060209081020190565b60006001600160401b038211156153ee57600080fd5b5060200290565b60006001600160401b0382111561540b57600080fd5b506020601f91909101601f19160190565b60200190565b60009081526020902090565b5190565b50600290565b5060ff90565b90815260200190565b6000610e0e82615457565b151590565b6001600160a01b031690565b82818337506000910152565b60005b8381101561548a578181015183820152602001615472565b838111156106845750506000910152565b601f01601f191690565b6154ae81615447565b811461394f57600080fd5b6154ae8161143656fea365627a7a723158205349f6fd75d3d5a37ee2d552ae6b04bafcbea2ea41344171486d26f74b78a8f76c6578706572696d656e74616cf564736f6c634300050c0040",
  "source": "pragma solidity ^0.5.11;\npragma experimental ABIEncoderV2;\n\nimport \"./AppointmentHandler.sol\";\n\ncontract NotificationHandler is AppointmentHandler {\n\n    mapping(string => uint) public notificationTimes;\n    mapping(bytes32 => uint[255]) private userNotificationTime;\n\n    function insertRecord(bytes32 dealerId, bytes32 id, string memory noPlate,\n     string[] memory services, string[] memory subservices, string memory comment, uint timeStamp)\n        public verified(dealerId) {\n        super.insertRecord(dealerId,id,noPlate,services,subservices,comment,timeStamp);\n        for(uint i = 0; i < services.length; i++){\n            uint8 serviceIndex = getIndexOfService(services[i]);\n            userNotificationTime[id][serviceIndex] = timeStamp;\n        }\n    }\n\n    function getLastServiceTimes(bytes32 userId) public view returns(uint[255] memory) {\n        return userNotificationTime[userId];\n    }\n\n    function setServiceNotificationTime(string memory serviceName, uint time) public ownerOnly {\n        notificationTimes[serviceName] = time;\n    }\n}",
  "sourcePath": "/home/brandon/Documents/_Important/Uni/Blockchain/Final project/contracts/NotificationHandler.sol",
  "compiler": {
    "name": "solc",
    "version": "0.5.12+commit.7709ece9.Emscripten.clang"
  },
  "schemaVersion": "3.0.19",
  "updatedAt": "2019-11-29T14:40:04.997Z",
  "networkType": "ethereum",
  "devdoc": {
    "methods": {}
  },
  "userdoc": {
    "methods": {}
  }
}