{
  "contractName": "ServiceHandler",
  "abi": [
    {
      "anonymous": false,
      "inputs": [
        {
          "components": [
            {
              "internalType": "string",
              "name": "dealerName",
              "type": "string"
            },
            {
              "internalType": "string",
              "name": "firstName",
              "type": "string"
            },
            {
              "internalType": "string",
              "name": "lastName",
              "type": "string"
            },
            {
              "internalType": "string",
              "name": "addr",
              "type": "string"
            },
            {
              "internalType": "string",
              "name": "location",
              "type": "string"
            },
            {
              "internalType": "string",
              "name": "phoneNo",
              "type": "string"
            },
            {
              "internalType": "string",
              "name": "bestSeller",
              "type": "string"
            },
            {
              "internalType": "string",
              "name": "promotion",
              "type": "string"
            },
            {
              "internalType": "string",
              "name": "otherServices",
              "type": "string"
            },
            {
              "internalType": "string[]",
              "name": "availableServices",
              "type": "string[]"
            },
            {
              "internalType": "string[][]",
              "name": "availableSubServices",
              "type": "string[][]"
            }
          ],
          "indexed": false,
          "internalType": "struct DealerContract.DealerInfo",
          "name": "info",
          "type": "tuple"
        },
        {
          "indexed": false,
          "internalType": "bytes32",
          "name": "id",
          "type": "bytes32"
        }
      ],
      "name": "CreateDealerApplication",
      "type": "event"
    },
    {
      "constant": false,
      "inputs": [
        {
          "internalType": "bytes32",
          "name": "dealerId",
          "type": "bytes32"
        },
        {
          "internalType": "bytes32",
          "name": "adr",
          "type": "bytes32"
        }
      ],
      "name": "addDealerEmployee",
      "outputs": [],
      "payable": false,
      "stateMutability": "nonpayable",
      "type": "function"
    },
    {
      "constant": false,
      "inputs": [
        {
          "internalType": "bytes32",
          "name": "adr",
          "type": "bytes32"
        }
      ],
      "name": "approveApplication",
      "outputs": [],
      "payable": false,
      "stateMutability": "nonpayable",
      "type": "function"
    },
    {
      "constant": false,
      "inputs": [
        {
          "components": [
            {
              "internalType": "string",
              "name": "dealerName",
              "type": "string"
            },
            {
              "internalType": "string",
              "name": "firstName",
              "type": "string"
            },
            {
              "internalType": "string",
              "name": "lastName",
              "type": "string"
            },
            {
              "internalType": "string",
              "name": "addr",
              "type": "string"
            },
            {
              "internalType": "string",
              "name": "location",
              "type": "string"
            },
            {
              "internalType": "string",
              "name": "phoneNo",
              "type": "string"
            },
            {
              "internalType": "string",
              "name": "bestSeller",
              "type": "string"
            },
            {
              "internalType": "string",
              "name": "promotion",
              "type": "string"
            },
            {
              "internalType": "string",
              "name": "otherServices",
              "type": "string"
            },
            {
              "internalType": "string[]",
              "name": "availableServices",
              "type": "string[]"
            },
            {
              "internalType": "string[][]",
              "name": "availableSubServices",
              "type": "string[][]"
            }
          ],
          "internalType": "struct DealerContract.DealerInfo",
          "name": "info",
          "type": "tuple"
        },
        {
          "internalType": "bytes32",
          "name": "id",
          "type": "bytes32"
        }
      ],
      "name": "createDealerApplication",
      "outputs": [],
      "payable": false,
      "stateMutability": "nonpayable",
      "type": "function"
    },
    {
      "constant": false,
      "inputs": [
        {
          "components": [
            {
              "internalType": "string",
              "name": "dealerName",
              "type": "string"
            },
            {
              "internalType": "string",
              "name": "firstName",
              "type": "string"
            },
            {
              "internalType": "string",
              "name": "lastName",
              "type": "string"
            },
            {
              "internalType": "string",
              "name": "addr",
              "type": "string"
            },
            {
              "internalType": "string",
              "name": "location",
              "type": "string"
            },
            {
              "internalType": "string",
              "name": "phoneNo",
              "type": "string"
            },
            {
              "internalType": "string",
              "name": "bestSeller",
              "type": "string"
            },
            {
              "internalType": "string",
              "name": "promotion",
              "type": "string"
            },
            {
              "internalType": "string",
              "name": "otherServices",
              "type": "string"
            },
            {
              "internalType": "string[]",
              "name": "availableServices",
              "type": "string[]"
            },
            {
              "internalType": "string[][]",
              "name": "availableSubServices",
              "type": "string[][]"
            }
          ],
          "internalType": "struct DealerContract.DealerInfo",
          "name": "info",
          "type": "tuple"
        },
        {
          "internalType": "bytes32",
          "name": "id",
          "type": "bytes32"
        }
      ],
      "name": "editDealerInfo",
      "outputs": [],
      "payable": false,
      "stateMutability": "nonpayable",
      "type": "function"
    },
    {
      "constant": true,
      "inputs": [],
      "name": "getAllDealerApplications",
      "outputs": [
        {
          "internalType": "bytes32[]",
          "name": "",
          "type": "bytes32[]"
        }
      ],
      "payable": false,
      "stateMutability": "view",
      "type": "function"
    },
    {
      "constant": true,
      "inputs": [
        {
          "internalType": "bytes32",
          "name": "id",
          "type": "bytes32"
        }
      ],
      "name": "getDealerInfo",
      "outputs": [
        {
          "components": [
            {
              "internalType": "string",
              "name": "dealerName",
              "type": "string"
            },
            {
              "internalType": "string",
              "name": "firstName",
              "type": "string"
            },
            {
              "internalType": "string",
              "name": "lastName",
              "type": "string"
            },
            {
              "internalType": "string",
              "name": "addr",
              "type": "string"
            },
            {
              "internalType": "string",
              "name": "location",
              "type": "string"
            },
            {
              "internalType": "string",
              "name": "phoneNo",
              "type": "string"
            },
            {
              "internalType": "string",
              "name": "bestSeller",
              "type": "string"
            },
            {
              "internalType": "string",
              "name": "promotion",
              "type": "string"
            },
            {
              "internalType": "string",
              "name": "otherServices",
              "type": "string"
            },
            {
              "internalType": "string[]",
              "name": "availableServices",
              "type": "string[]"
            },
            {
              "internalType": "string[][]",
              "name": "availableSubServices",
              "type": "string[][]"
            }
          ],
          "internalType": "struct DealerContract.DealerInfo",
          "name": "",
          "type": "tuple"
        }
      ],
      "payable": false,
      "stateMutability": "view",
      "type": "function"
    },
    {
      "constant": true,
      "inputs": [
        {
          "internalType": "string",
          "name": "id",
          "type": "string"
        }
      ],
      "name": "getHash",
      "outputs": [
        {
          "internalType": "bytes32",
          "name": "",
          "type": "bytes32"
        }
      ],
      "payable": false,
      "stateMutability": "pure",
      "type": "function"
    },
    {
      "constant": true,
      "inputs": [
        {
          "internalType": "bytes32",
          "name": "adr",
          "type": "bytes32"
        }
      ],
      "name": "isVerified",
      "outputs": [
        {
          "internalType": "bool",
          "name": "",
          "type": "bool"
        }
      ],
      "payable": false,
      "stateMutability": "view",
      "type": "function"
    },
    {
      "constant": false,
      "inputs": [
        {
          "internalType": "bytes32",
          "name": "dealershipId",
          "type": "bytes32"
        },
        {
          "internalType": "bytes32",
          "name": "otherId",
          "type": "bytes32"
        }
      ],
      "name": "transferDealershipOwner",
      "outputs": [],
      "payable": false,
      "stateMutability": "nonpayable",
      "type": "function"
    },
    {
      "constant": false,
      "inputs": [
        {
          "internalType": "address",
          "name": "newOwner",
          "type": "address"
        }
      ],
      "name": "transferOwner",
      "outputs": [],
      "payable": false,
      "stateMutability": "nonpayable",
      "type": "function"
    },
    {
      "constant": false,
      "inputs": [
        {
          "internalType": "string",
          "name": "serviceName",
          "type": "string"
        }
      ],
      "name": "addService",
      "outputs": [],
      "payable": false,
      "stateMutability": "nonpayable",
      "type": "function"
    },
    {
      "constant": false,
      "inputs": [
        {
          "internalType": "string",
          "name": "oldName",
          "type": "string"
        },
        {
          "internalType": "string",
          "name": "newName",
          "type": "string"
        }
      ],
      "name": "editServiceName",
      "outputs": [],
      "payable": false,
      "stateMutability": "nonpayable",
      "type": "function"
    },
    {
      "constant": false,
      "inputs": [
        {
          "internalType": "string",
          "name": "serviceName",
          "type": "string"
        }
      ],
      "name": "deleteService",
      "outputs": [],
      "payable": false,
      "stateMutability": "nonpayable",
      "type": "function"
    },
    {
      "constant": true,
      "inputs": [],
      "name": "getServices",
      "outputs": [
        {
          "internalType": "string[]",
          "name": "",
          "type": "string[]"
        }
      ],
      "payable": false,
      "stateMutability": "view",
      "type": "function"
    },
    {
      "constant": false,
      "inputs": [
        {
          "internalType": "string",
          "name": "serviceName",
          "type": "string"
        },
        {
          "internalType": "string",
          "name": "subServiceName",
          "type": "string"
        }
      ],
      "name": "addSubService",
      "outputs": [],
      "payable": false,
      "stateMutability": "nonpayable",
      "type": "function"
    },
    {
      "constant": false,
      "inputs": [
        {
          "internalType": "string",
          "name": "serviceName",
          "type": "string"
        },
        {
          "internalType": "string",
          "name": "oldName",
          "type": "string"
        },
        {
          "internalType": "string",
          "name": "newName",
          "type": "string"
        }
      ],
      "name": "editSubServiceName",
      "outputs": [],
      "payable": false,
      "stateMutability": "nonpayable",
      "type": "function"
    },
    {
      "constant": false,
      "inputs": [
        {
          "internalType": "string",
          "name": "serviceName",
          "type": "string"
        },
        {
          "internalType": "string",
          "name": "subServiceName",
          "type": "string"
        }
      ],
      "name": "deleteSubService",
      "outputs": [],
      "payable": false,
      "stateMutability": "nonpayable",
      "type": "function"
    },
    {
      "constant": true,
      "inputs": [
        {
          "internalType": "string",
          "name": "serviceName",
          "type": "string"
        }
      ],
      "name": "getSubServices",
      "outputs": [
        {
          "internalType": "string[]",
          "name": "",
          "type": "string[]"
        }
      ],
      "payable": false,
      "stateMutability": "view",
      "type": "function"
    }
  ],
  "bytecode": "0x608060405260fe600660016101000a81548160ff021916908360ff160217905550336000806101000a81548173ffffffffffffffffffffffffffffffffffffffff021916908373ffffffffffffffffffffffffffffffffffffffff160217905550613b1a8061006f6000396000f3fe608060405234801561001057600080fd5b50600436106101165760003560e01c80635b6beeb9116100a25780637e41667f116100715780637e41667f146102c557806382d7afbd146102e357806388fcd194146102ff578063c181b2731461031b578063e445268c1461034b57610116565b80635b6beeb91461022b5780636fd7d2b51461025b57806375417851146102775780637d17f13c1461029557610116565b80632d4afc7b116100e95780632d4afc7b1461018b578063369bfce4146101a7578063431a65fc146101c35780634fb2e45d146101f357806350fb95e31461020f57610116565b8063076810381461011b5780630eb7bc8f146101375780631a4c85be146101535780631b8f47fe1461016f575b600080fd5b61013560048036036101309190810190612d8a565b610367565b005b610151600480360361014c9190810190612c87565b61058a565b005b61016d60048036036101689190810190612c46565b61069d565b005b61018960048036036101849190810190612bb8565b6107f1565b005b6101a560048036036101a09190810190612d8a565b61091b565b005b6101c160048036036101bc9190810190612c87565b610ada565b005b6101dd60048036036101d89190810190612c46565b610c02565b6040516101ea91906135f2565b60405180910390f35b61020d60048036036102089190810190612b8f565b610d09565b005b61022960048036036102249190810190612c87565b610ddb565b005b61024560048036036102409190810190612c46565b610f7d565b604051610252919061362f565b60405180910390f35b61027560048036036102709190810190612cf3565b610ff5565b005b61027f611127565b60405161028c91906135f2565b60405180910390f35b6102af60048036036102aa9190810190612bb8565b6112ba565b6040516102bc91906137aa565b60405180910390f35b6102cd611ab3565b6040516102da91906135d0565b60405180910390f35b6102fd60048036036102f89190810190612c0a565b611b9a565b005b61031960048036036103149190810190612c46565b611d38565b005b61033560048036036103309190810190612bb8565b611f49565b6040516103429190613614565b60405180910390f35b61036560048036036103609190810190612c0a565b611f94565b005b6001600082815260200190815260200160002060009054906101000a900460ff16156103c8576040517f08c379a00000000000000000000000000000000000000000000000000000000081526004016103bf9061374a565b60405180910390fd5b816004600083815260200190815260200160002060008201518160000190805190602001906103f8929190612418565b506020820151816001019080519060200190610415929190612418565b506040820151816002019080519060200190610432929190612418565b50606082015181600301908051906020019061044f929190612418565b50608082015181600401908051906020019061046c929190612418565b5060a0820151816005019080519060200190610489929190612418565b5060c08201518160060190805190602001906104a6929190612418565b5060e08201518160070190805190602001906104c3929190612418565b506101008201518160080190805190602001906104e1929190612418565b506101208201518160090190805190602001906104ff929190612498565b5061014082015181600a01908051906020019061051d9291906124f8565b5090505060058190806001815401808255809150509060018203906000526020600020016000909192909190915055507f42ab459ad3144922283159073eea05ed3ff810ab23fc94bbad43d99b9332dbb2828260405161057e9291906137cc565b60405180910390a15050565b6000809054906101000a900473ffffffffffffffffffffffffffffffffffffffff1673ffffffffffffffffffffffffffffffffffffffff163373ffffffffffffffffffffffffffffffffffffffff1614610619576040517f08c379a0000000000000000000000000000000000000000000000000000000008152600401610610906136ea565b60405180910390fd5b81610623816120a7565b610662576040517f08c379a00000000000000000000000000000000000000000000000000000000081526004016106599061372a565b60405180910390fd5b8160076000610670866120d0565b60ff1660ff1681526020019081526020016000209080519060200190610697929190612558565b50505050565b6000809054906101000a900473ffffffffffffffffffffffffffffffffffffffff1673ffffffffffffffffffffffffffffffffffffffff163373ffffffffffffffffffffffffffffffffffffffff161461072c576040517f08c379a0000000000000000000000000000000000000000000000000000000008152600401610723906136ea565b60405180910390fd5b80610736816120a7565b610775576040517f08c379a000000000000000000000000000000000000000000000000000000000815260040161076c9061372a565b60405180910390fd5b6040518060200160405280600081525060076000610792856120d0565b60ff1660ff16815260200190815260200160002090805190602001906107b9929190612558565b506006600081819054906101000a900460ff16809291906001900391906101000a81548160ff021916908360ff160217905550505050565b6000809054906101000a900473ffffffffffffffffffffffffffffffffffffffff1673ffffffffffffffffffffffffffffffffffffffff163373ffffffffffffffffffffffffffffffffffffffff1614610880576040517f08c379a0000000000000000000000000000000000000000000000000000000008152600401610877906136ea565b60405180910390fd5b600061088b8261221e565b905060008112156108d1576040517f08c379a00000000000000000000000000000000000000000000000000000000081526004016108c8906136aa565b60405180910390fd5b600180600084815260200190815260200160002060006101000a81548160ff0219169083151502179055506005818154811061090957fe5b90600052602060002001600090555050565b806001600082815260200190815260200160002060009054906101000a900460ff1661097c576040517f08c379a00000000000000000000000000000000000000000000000000000000081526004016109739061366a565b60405180910390fd5b826004600084815260200190815260200160002060008201518160000190805190602001906109ac929190612418565b5060208201518160010190805190602001906109c9929190612418565b5060408201518160020190805190602001906109e6929190612418565b506060820151816003019080519060200190610a03929190612418565b506080820151816004019080519060200190610a20929190612418565b5060a0820151816005019080519060200190610a3d929190612418565b5060c0820151816006019080519060200190610a5a929190612418565b5060e0820151816007019080519060200190610a77929190612418565b50610100820151816008019080519060200190610a95929190612418565b50610120820151816009019080519060200190610ab3929190612498565b5061014082015181600a019080519060200190610ad19291906124f8565b50905050505050565b6000809054906101000a900473ffffffffffffffffffffffffffffffffffffffff1673ffffffffffffffffffffffffffffffffffffffff163373ffffffffffffffffffffffffffffffffffffffff1614610b69576040517f08c379a0000000000000000000000000000000000000000000000000000000008152600401610b60906136ea565b60405180910390fd5b8181610b758282612292565b610bb4576040517f08c379a0000000000000000000000000000000000000000000000000000000008152600401610bab9061370a565b60405180910390fd5b600884604051610bc491906135b9565b9081526020016040518091039020610bdc85856122a9565b81548110610be657fe5b906000526020600020016000610bfc91906125d8565b50505050565b6060600882604051610c1491906135b9565b9081526020016040518091039020805480602002602001604051908101604052809291908181526020016000905b82821015610cfe578382906000526020600020018054600181600116156101000203166002900480601f016020809104026020016040519081016040528092919081815260200182805460018160011615610100020316600290048015610cea5780601f10610cbf57610100808354040283529160200191610cea565b820191906000526020600020905b815481529060010190602001808311610ccd57829003601f168201915b505050505081526020019060010190610c42565b505050509050919050565b6000809054906101000a900473ffffffffffffffffffffffffffffffffffffffff1673ffffffffffffffffffffffffffffffffffffffff163373ffffffffffffffffffffffffffffffffffffffff1614610d98576040517f08c379a0000000000000000000000000000000000000000000000000000000008152600401610d8f906136ea565b60405180910390fd5b806000806101000a81548173ffffffffffffffffffffffffffffffffffffffff021916908373ffffffffffffffffffffffffffffffffffffffff16021790555050565b8160ff600882604051610dee91906135b9565b90815260200160405180910390208054905010610e40576040517f08c379a0000000000000000000000000000000000000000000000000000000008152600401610e37906136ca565b60405180910390fd5b8282610e4c8282612292565b15610e8c576040517f08c379a0000000000000000000000000000000000000000000000000000000008152600401610e839061368a565b60405180910390fd5b6000809054906101000a900473ffffffffffffffffffffffffffffffffffffffff1673ffffffffffffffffffffffffffffffffffffffff163373ffffffffffffffffffffffffffffffffffffffff1614610f1b576040517f08c379a0000000000000000000000000000000000000000000000000000000008152600401610f12906136ea565b60405180910390fd5b600885604051610f2b91906135b9565b9081526020016040518091039020849080600181540180825580915050906001820390600052602060002001600090919290919091509080519060200190610f74929190612558565b50505050505050565b6000600282604051602001610f9291906135b9565b604051602081830303815290604052604051610fae91906135a2565b602060405180830381855afa158015610fcb573d6000803e3d6000fd5b5050506040513d601f19601f82011682018060405250610fee9190810190612be1565b9050919050565b82826110018282612292565b611040576040517f08c379a00000000000000000000000000000000000000000000000000000000081526004016110379061370a565b60405180910390fd5b6000809054906101000a900473ffffffffffffffffffffffffffffffffffffffff1673ffffffffffffffffffffffffffffffffffffffff163373ffffffffffffffffffffffffffffffffffffffff16146110cf576040517f08c379a00000000000000000000000000000000000000000000000000000000081526004016110c6906136ea565b60405180910390fd5b826008866040516110e091906135b9565b90815260200160405180910390206110f887876122a9565b8154811061110257fe5b90600052602060002001908051906020019061111f929190612558565b505050505050565b606080600660009054906101000a900460ff1660ff1660405190808252806020026020018201604052801561117057816020015b606081526020019060019003908161115b5790505b509050600080905060008090505b600660019054906101000a900460ff1660ff168160ff1610156112b1576000600760008360ff1660ff16815260200190815260200160002080546001816001161561010002031660029004905011156112a457600760008260ff1660ff1681526020019081526020016000208054600181600116156101000203166002900480601f01602080910402602001604051908101604052809291908181526020018280546001816001161561010002031660029004801561127e5780601f106112535761010080835404028352916020019161127e565b820191906000526020600020905b81548152906001019060200180831161126157829003601f168201915b5050505050838380600101945060ff168151811061129857fe5b60200260200101819052505b808060010191505061117e565b50819250505090565b6112c2612620565b6004600083815260200190815260200160002060405180610160016040529081600082018054600181600116156101000203166002900480601f01602080910402602001604051908101604052809291908181526020018280546001816001161561010002031660029004801561137a5780601f1061134f5761010080835404028352916020019161137a565b820191906000526020600020905b81548152906001019060200180831161135d57829003601f168201915b50505050508152602001600182018054600181600116156101000203166002900480601f01602080910402602001604051908101604052809291908181526020018280546001816001161561010002031660029004801561141c5780601f106113f15761010080835404028352916020019161141c565b820191906000526020600020905b8154815290600101906020018083116113ff57829003601f168201915b50505050508152602001600282018054600181600116156101000203166002900480601f0160208091040260200160405190810160405280929190818152602001828054600181600116156101000203166002900480156114be5780601f10611493576101008083540402835291602001916114be565b820191906000526020600020905b8154815290600101906020018083116114a157829003601f168201915b50505050508152602001600382018054600181600116156101000203166002900480601f0160208091040260200160405190810160405280929190818152602001828054600181600116156101000203166002900480156115605780601f1061153557610100808354040283529160200191611560565b820191906000526020600020905b81548152906001019060200180831161154357829003601f168201915b50505050508152602001600482018054600181600116156101000203166002900480601f0160208091040260200160405190810160405280929190818152602001828054600181600116156101000203166002900480156116025780601f106115d757610100808354040283529160200191611602565b820191906000526020600020905b8154815290600101906020018083116115e557829003601f168201915b50505050508152602001600582018054600181600116156101000203166002900480601f0160208091040260200160405190810160405280929190818152602001828054600181600116156101000203166002900480156116a45780601f10611679576101008083540402835291602001916116a4565b820191906000526020600020905b81548152906001019060200180831161168757829003601f168201915b50505050508152602001600682018054600181600116156101000203166002900480601f0160208091040260200160405190810160405280929190818152602001828054600181600116156101000203166002900480156117465780601f1061171b57610100808354040283529160200191611746565b820191906000526020600020905b81548152906001019060200180831161172957829003601f168201915b50505050508152602001600782018054600181600116156101000203166002900480601f0160208091040260200160405190810160405280929190818152602001828054600181600116156101000203166002900480156117e85780601f106117bd576101008083540402835291602001916117e8565b820191906000526020600020905b8154815290600101906020018083116117cb57829003601f168201915b50505050508152602001600882018054600181600116156101000203166002900480601f01602080910402602001604051908101604052809291908181526020018280546001816001161561010002031660029004801561188a5780601f1061185f5761010080835404028352916020019161188a565b820191906000526020600020905b81548152906001019060200180831161186d57829003601f168201915b5050505050815260200160098201805480602002602001604051908101604052809291908181526020016000905b82821015611974578382906000526020600020018054600181600116156101000203166002900480601f0160208091040260200160405190810160405280929190818152602001828054600181600116156101000203166002900480156119605780601f1061193557610100808354040283529160200191611960565b820191906000526020600020905b81548152906001019060200180831161194357829003601f168201915b5050505050815260200190600101906118b8565b505050508152602001600a8201805480602002602001604051908101604052809291908181526020016000905b82821015611aa457838290600052602060002001805480602002602001604051908101604052809291908181526020016000905b82821015611a91578382906000526020600020018054600181600116156101000203166002900480601f016020809104026020016040519081016040528092919081815260200182805460018160011615610100020316600290048015611a7d5780601f10611a5257610100808354040283529160200191611a7d565b820191906000526020600020905b815481529060010190602001808311611a6057829003601f168201915b5050505050815260200190600101906119d5565b50505050815260200190600101906119a1565b50505050815250509050919050565b60606000809054906101000a900473ffffffffffffffffffffffffffffffffffffffff1673ffffffffffffffffffffffffffffffffffffffff163373ffffffffffffffffffffffffffffffffffffffff1614611b44576040517f08c379a0000000000000000000000000000000000000000000000000000000008152600401611b3b906136ea565b60405180910390fd5b6005805480602002602001604051908101604052809291908181526020018280548015611b9057602002820191906000526020600020905b815481526020019060010190808311611b7c575b5050505050905090565b816001600082815260200190815260200160002060009054906101000a900460ff16611bfb576040517f08c379a0000000000000000000000000000000000000000000000000000000008152600401611bf29061366a565b60405180910390fd5b600180600084815260200190815260200160002060006101000a81548160ff02191690831515021790555060006001600085815260200190815260200160002060006101000a81548160ff0219169083151502179055506000801b60036000848152602001908152602001600020819055506002600084815260200190815260200160002060026000848152602001908152602001600020908054611ca192919061267a565b50600260008481526020019081526020016000206000611cc191906126cc565b60008090505b6002600084815260200190815260200160002080549050811015611d32578260036000600260008781526020019081526020016000208481548110611d0857fe5b90600052602060002001548152602001908152602001600020819055508080600101915050611cc7565b50505050565b6000809054906101000a900473ffffffffffffffffffffffffffffffffffffffff1673ffffffffffffffffffffffffffffffffffffffff163373ffffffffffffffffffffffffffffffffffffffff1614611dc7576040517f08c379a0000000000000000000000000000000000000000000000000000000008152600401611dbe906136ea565b60405180910390fd5b80611dd1816120a7565b15611e11576040517f08c379a0000000000000000000000000000000000000000000000000000000008152600401611e089061376a565b60405180910390fd5b600660019054906101000a900460ff1660ff16600660009054906101000a900460ff1660ff161115611e78576040517f08c379a0000000000000000000000000000000000000000000000000000000008152600401611e6f9061378a565b60405180910390fd5b60008090505b600660019054906101000a900460ff1660ff168160ff161015611f43576000600760008360ff1660ff16815260200190815260200160002080546001816001161561010002031660029004905011611f365782600760008360ff1660ff1681526020019081526020016000209080519060200190611efd929190612558565b506006600081819054906101000a900460ff168092919060010191906101000a81548160ff021916908360ff1602179055505050611f45565b8080600101915050611e7e565b505b5050565b60006001600083815260200190815260200160002060009054906101000a900460ff1680611f8d57506000801b600360008481526020019081526020016000205414155b9050919050565b816001600082815260200190815260200160002060009054906101000a900460ff16611ff5576040517f08c379a0000000000000000000000000000000000000000000000000000000008152600401611fec9061366a565b60405180910390fd5b6000801b60036000848152602001908152602001600020541461204d576040517f08c379a00000000000000000000000000000000000000000000000000000000081526004016120449061364a565b60405180910390fd5b60026000848152602001908152602001600020829080600181540180825580915050906001820390600052602060002001600090919290919091505550826003600084815260200190815260200160002081905550505050565b6000600660019054906101000a900460ff1660ff166120c5836120d0565b60ff16109050919050565b6000806120dc836123e8565b905060008090505b600660019054906101000a900460ff1660ff168160ff161015612212576000600760008360ff1660ff1681526020019081526020016000208054600181600116156101000203166002900490501180156121f65750816121f4600760008460ff1660ff1681526020019081526020016000208054600181600116156101000203166002900480601f0160208091040260200160405190810160405280929190818152602001828054600181600116156101000203166002900480156121ea5780601f106121bf576101008083540402835291602001916121ea565b820191906000526020600020905b8154815290600101906020018083116121cd57829003601f168201915b50505050506123e8565b145b15612205578092505050612219565b80806001019150506120e4565b5060ff9150505b919050565b600080600090505b60058054905081101561226857826005828154811061224157fe5b9060005260206000200154141561225b578091505061228d565b8080600101915050612226565b507fffffffffffffffffffffffffffffffffffffffffffffffffffffffffffffffff90505b919050565b600060ff6122a084846122a9565b10905092915050565b600080600090505b6008846040516122c191906135b9565b9081526020016040518091039020805490508160ff1610156123dc576122e6836123e8565b6123bd6008866040516122f991906135b9565b90815260200160405180910390208360ff168154811061231557fe5b906000526020600020018054600181600116156101000203166002900480601f0160208091040260200160405190810160405280929190818152602001828054600181600116156101000203166002900480156123b35780601f10612388576101008083540402835291602001916123b3565b820191906000526020600020905b81548152906001019060200180831161239657829003601f168201915b50505050506123e8565b14156123cf578060ff169150506123e2565b80806001019150506122b1565b5060ff90505b92915050565b6000816040516020016123fb91906135b9565b604051602081830303815290604052805190602001209050919050565b828054600181600116156101000203166002900490600052602060002090601f016020900481019282601f1061245957805160ff1916838001178555612487565b82800160010185558215612487579182015b8281111561248657825182559160200191906001019061246b565b5b50905061249491906126ed565b5090565b8280548282559060005260206000209081019282156124e7579160200282015b828111156124e65782518290805190602001906124d6929190612418565b50916020019190600101906124b8565b5b5090506124f49190612712565b5090565b828054828255906000526020600020908101928215612547579160200282015b82811115612546578251829080519060200190612536929190612498565b5091602001919060010190612518565b5b509050612554919061273e565b5090565b828054600181600116156101000203166002900490600052602060002090601f016020900481019282601f1061259957805160ff19168380011785556125c7565b828001600101855582156125c7579182015b828111156125c65782518255916020019190600101906125ab565b5b5090506125d491906126ed565b5090565b50805460018160011615610100020316600290046000825580601f106125fe575061261d565b601f01602090049060005260206000209081019061261c91906126ed565b5b50565b60405180610160016040528060608152602001606081526020016060815260200160608152602001606081526020016060815260200160608152602001606081526020016060815260200160608152602001606081525090565b8280548282559060005260206000209081019282156126bb5760005260206000209182015b828111156126ba57825482559160010191906001019061269f565b5b5090506126c8919061276a565b5090565b50805460008255906000526020600020908101906126ea919061276a565b50565b61270f91905b8082111561270b5760008160009055506001016126f3565b5090565b90565b61273b91905b80821115612737576000818161272e91906125d8565b50600101612718565b5090565b90565b61276791905b80821115612763576000818161275a919061278f565b50600101612744565b5090565b90565b61278c91905b80821115612788576000816000905550600101612770565b5090565b90565b50805460008255906000526020600020908101906127ad9190612712565b50565b6000813590506127bf81613aa9565b92915050565b600082601f8301126127d657600080fd5b81356127e96127e482613829565b6137fc565b9150818183526020840193506020810190508360005b8381101561282f57813586016128158882612839565b8452602084019350602083019250506001810190506127ff565b5050505092915050565b600082601f83011261284a57600080fd5b813561285d61285882613851565b6137fc565b9150818183526020840193506020810190508360005b838110156128a3578135860161288988826128d7565b845260208401935060208301925050600181019050612873565b5050505092915050565b6000813590506128bc81613ac0565b92915050565b6000815190506128d181613ac0565b92915050565b600082601f8301126128e857600080fd5b81356128fb6128f682613879565b6137fc565b9150808252602083016020830185838301111561291757600080fd5b612922838284613a56565b50505092915050565b600082601f83011261293c57600080fd5b813561294f61294a826138a5565b6137fc565b9150808252602083016020830185838301111561296b57600080fd5b612976838284613a56565b50505092915050565b6000610160828403121561299257600080fd5b61299d6101606137fc565b9050600082013567ffffffffffffffff8111156129b957600080fd5b6129c5848285016128d7565b600083015250602082013567ffffffffffffffff8111156129e557600080fd5b6129f1848285016128d7565b602083015250604082013567ffffffffffffffff811115612a1157600080fd5b612a1d848285016128d7565b604083015250606082013567ffffffffffffffff811115612a3d57600080fd5b612a49848285016128d7565b606083015250608082013567ffffffffffffffff811115612a6957600080fd5b612a75848285016128d7565b60808301525060a082013567ffffffffffffffff811115612a9557600080fd5b612aa1848285016128d7565b60a08301525060c082013567ffffffffffffffff811115612ac157600080fd5b612acd848285016128d7565b60c08301525060e082013567ffffffffffffffff811115612aed57600080fd5b612af9848285016128d7565b60e08301525061010082013567ffffffffffffffff811115612b1a57600080fd5b612b26848285016128d7565b6101008301525061012082013567ffffffffffffffff811115612b4857600080fd5b612b5484828501612839565b6101208301525061014082013567ffffffffffffffff811115612b7657600080fd5b612b82848285016127c5565b6101408301525092915050565b600060208284031215612ba157600080fd5b6000612baf848285016127b0565b91505092915050565b600060208284031215612bca57600080fd5b6000612bd8848285016128ad565b91505092915050565b600060208284031215612bf357600080fd5b6000612c01848285016128c2565b91505092915050565b60008060408385031215612c1d57600080fd5b6000612c2b858286016128ad565b9250506020612c3c858286016128ad565b9150509250929050565b600060208284031215612c5857600080fd5b600082013567ffffffffffffffff811115612c7257600080fd5b612c7e8482850161292b565b91505092915050565b60008060408385031215612c9a57600080fd5b600083013567ffffffffffffffff811115612cb457600080fd5b612cc08582860161292b565b925050602083013567ffffffffffffffff811115612cdd57600080fd5b612ce98582860161292b565b9150509250929050565b600080600060608486031215612d0857600080fd5b600084013567ffffffffffffffff811115612d2257600080fd5b612d2e8682870161292b565b935050602084013567ffffffffffffffff811115612d4b57600080fd5b612d578682870161292b565b925050604084013567ffffffffffffffff811115612d7457600080fd5b612d808682870161292b565b9150509250925092565b60008060408385031215612d9d57600080fd5b600083013567ffffffffffffffff811115612db757600080fd5b612dc38582860161297f565b9250506020612dd4858286016128ad565b9150509250929050565b6000612dea8383612f66565b905092915050565b6000612dfe8383612fea565b60208301905092915050565b6000612e16838361306a565b905092915050565b6000612e2982613911565b612e338185613992565b935083602082028501612e45856138d1565b8060005b85811015612e815784840389528151612e628582612dde565b9450612e6d8361395e565b925060208a01995050600181019050612e49565b50829750879550505050505092915050565b6000612e9e8261391c565b612ea881856139a3565b9350612eb3836138e1565b8060005b83811015612ee4578151612ecb8882612df2565b9750612ed68361396b565b925050600181019050612eb7565b5085935050505092915050565b6000612efc82613932565b612f0681856139c5565b935083602082028501612f1885613901565b8060005b85811015612f545784840389528151612f358582612e0a565b9450612f4083613985565b925060208a01995050600181019050612f1c565b50829750879550505050505092915050565b6000612f7182613927565b612f7b81856139b4565b935083602082028501612f8d856138f1565b8060005b85811015612fc95784840389528151612faa8582612e0a565b9450612fb583613978565b925060208a01995050600181019050612f91565b50829750879550505050505092915050565b612fe481613a20565b82525050565b612ff381613a2c565b82525050565b61300281613a2c565b82525050565b60006130138261393d565b61301d81856139d6565b935061302d818560208601613a65565b80840191505092915050565b600061304482613953565b61304e8185613a03565b935061305e818560208601613a65565b80840191505092915050565b600061307582613948565b61307f81856139e1565b935061308f818560208601613a65565b61309881613a98565b840191505092915050565b60006130b06021836139f2565b91507f5468617420656d706c6f79656520616c726561647920776f726b73207468657260008301527f65000000000000000000000000000000000000000000000000000000000000006020830152604082019050919050565b60006131166029836139f2565b91507f596f75206d7573742062652061206465616c657273686970206f776e6572207460008301527f6f20646f207468697300000000000000000000000000000000000000000000006020830152604082019050919050565b600061317c601e836139f2565b91507f54686174207375627365727669636520616c72656164792065786973747300006000830152602082019050919050565b60006131bc6021836139f2565b91507f4e6f206170706c69636174696f6e2065786973747320666f722074686174206960008301527f64000000000000000000000000000000000000000000000000000000000000006020830152604082019050919050565b60006132226021836139f2565b91507f4d6178696d756d207375627365727669636520616d6f756e742072656163686560008301527f64000000000000000000000000000000000000000000000000000000000000006020830152604082019050919050565b60006132886015836139f2565b91507f596f7520617265206e6f7420746865206f776e657200000000000000000000006000830152602082019050919050565b60006132c8602c836139f2565b91507f54686174207375627365727669636520646f65736e7420657869737420696e2060008301527f7468697320636f6e7465787400000000000000000000000000000000000000006020830152604082019050919050565b600061332e601b836139f2565b91507f54686174207365727669636520646f6573206e6f7420657869737400000000006000830152602082019050919050565b600061336e6022836139f2565b91507f54686174206164647265737320697320616c726561647920726567697374657260008301527f65640000000000000000000000000000000000000000000000000000000000006020830152604082019050919050565b60006133d4601b836139f2565b91507f54686174207365727669636520616c72656164792065786973747300000000006000830152602082019050919050565b60006134146028836139f2565b91507f54686572652061726520746865206d6178696d756d206e756d626572206f662060008301527f73657276696365730000000000000000000000000000000000000000000000006020830152604082019050919050565b600061016083016000830151848203600086015261348b828261306a565b915050602083015184820360208601526134a5828261306a565b915050604083015184820360408601526134bf828261306a565b915050606083015184820360608601526134d9828261306a565b915050608083015184820360808601526134f3828261306a565b91505060a083015184820360a086015261350d828261306a565b91505060c083015184820360c0860152613527828261306a565b91505060e083015184820360e0860152613541828261306a565b91505061010083015184820361010086015261355d828261306a565b9150506101208301518482036101208601526135798282612f66565b9150506101408301518482036101408601526135958282612e1e565b9150508091505092915050565b60006135ae8284613008565b915081905092915050565b60006135c58284613039565b915081905092915050565b600060208201905081810360008301526135ea8184612e93565b905092915050565b6000602082019050818103600083015261360c8184612ef1565b905092915050565b60006020820190506136296000830184612fdb565b92915050565b60006020820190506136446000830184612ff9565b92915050565b60006020820190508181036000830152613663816130a3565b9050919050565b6000602082019050818103600083015261368381613109565b9050919050565b600060208201905081810360008301526136a38161316f565b9050919050565b600060208201905081810360008301526136c3816131af565b9050919050565b600060208201905081810360008301526136e381613215565b9050919050565b600060208201905081810360008301526137038161327b565b9050919050565b60006020820190508181036000830152613723816132bb565b9050919050565b6000602082019050818103600083015261374381613321565b9050919050565b6000602082019050818103600083015261376381613361565b9050919050565b60006020820190508181036000830152613783816133c7565b9050919050565b600060208201905081810360008301526137a381613407565b9050919050565b600060208201905081810360008301526137c4818461346d565b905092915050565b600060408201905081810360008301526137e6818561346d565b90506137f56020830184612ff9565b9392505050565b6000604051905081810181811067ffffffffffffffff8211171561381f57600080fd5b8060405250919050565b600067ffffffffffffffff82111561384057600080fd5b602082029050602081019050919050565b600067ffffffffffffffff82111561386857600080fd5b602082029050602081019050919050565b600067ffffffffffffffff82111561389057600080fd5b601f19601f8301169050602081019050919050565b600067ffffffffffffffff8211156138bc57600080fd5b601f19601f8301169050602081019050919050565b6000819050602082019050919050565b6000819050602082019050919050565b6000819050602082019050919050565b6000819050602082019050919050565b600081519050919050565b600081519050919050565b600081519050919050565b600081519050919050565b600081519050919050565b600081519050919050565b600081519050919050565b6000602082019050919050565b6000602082019050919050565b6000602082019050919050565b6000602082019050919050565b600082825260208201905092915050565b600082825260208201905092915050565b600082825260208201905092915050565b600082825260208201905092915050565b600081905092915050565b600082825260208201905092915050565b600082825260208201905092915050565b600081905092915050565b6000613a1982613a36565b9050919050565b60008115159050919050565b6000819050919050565b600073ffffffffffffffffffffffffffffffffffffffff82169050919050565b82818337600083830152505050565b60005b83811015613a83578082015181840152602081019050613a68565b83811115613a92576000848401525b50505050565b6000601f19601f8301169050919050565b613ab281613a0e565b8114613abd57600080fd5b50565b613ac981613a2c565b8114613ad457600080fd5b5056fea365627a7a7231582007253cf48fd2c02233d9a868a84f680277f3387cd2e7e1592e4544a3e2bc685d6c6578706572696d656e74616cf564736f6c634300050c0040",
  "source": "pragma solidity ^0.5.11;\npragma experimental ABIEncoderV2;\n\nimport \"./DealerContract.sol\";\n\ncontract ServiceHandler is DealerContract {\n\n    function encode(string memory str) internal pure returns (bytes32) {\n        return keccak256(abi.encodePacked(str));\n    }\n\n    uint8 noOfServices;\n    uint8 totalNoServices = 254;\n\n    modifier serviceExists(string memory serviceName){\n        require(containsService(serviceName),\"That service does not exist\");\n        _;\n    }\n\n    modifier serviceNotExists(string memory serviceName){\n        require(!containsService(serviceName),\"That service already exists\");\n        _;\n    }\n\n    modifier servicesNotFull{\n        require(noOfServices <= totalNoServices,\"There are the maximum number of services\");\n        _;\n    }\n\n    mapping(uint8 => string) private services;\n\n    function getIndexOfService(string memory serviceName) internal view returns (uint8) {\n        bytes32 service = encode(serviceName);\n        for(uint8 i = 0; i < totalNoServices; i++){\n            if(bytes(services[i]).length > 0 && encode(services[i]) == service){\n                return i;\n            }\n        }\n        return 255;\n    }\n\n    function containsService(string memory serviceName) internal view returns (bool){\n        return getIndexOfService(serviceName) < totalNoServices;\n    }\n\n    function addService(string memory serviceName) public ownerOnly serviceNotExists(serviceName) servicesNotFull {\n        //Returns true if service was successfully added\n        //False if service already exists\n        for(uint8 i = 0; i < totalNoServices; i++){\n            if(bytes(services[i]).length <= 0){\n                services[i] = serviceName;\n                noOfServices++;\n                return;\n            }\n        }\n    }\n\n    function editServiceName(string memory oldName, string memory newName) public ownerOnly serviceExists(oldName) {\n        services[getIndexOfService(oldName)] = newName;\n    }\n\n    function deleteService(string memory serviceName) public ownerOnly serviceExists(serviceName) {\n        services[getIndexOfService(serviceName)] = \"\";\n        noOfServices--;\n    }\n\n    function getServices() public view returns (string[] memory) {\n        string[] memory existingServices = new string[](noOfServices);\n        uint8 serviceIndex = 0;\n        for(uint8 i = 0; i < totalNoServices; i++){\n            if(bytes(services[i]).length > 0){\n                existingServices[serviceIndex++] = services[i];\n            }\n        }\n        return existingServices;\n    }\n\n    //-----------------------------_Subservices_----------------------------\n\n    mapping(string => string[]) private subServices;\n\n    modifier subServiceExists(string memory serviceName, string memory subServiceName){\n        require(containsSubService(serviceName,subServiceName),\"That subservice doesnt exist in this context\");\n        _;\n    }\n    modifier subServiceNotExists(string memory serviceName, string memory subServiceName){\n        require(!containsSubService(serviceName,subServiceName),\"That subservice already exists\");\n        _;\n    }\n\n    modifier subservicesNotFull(string memory serviceName){\n        require(subServices[serviceName].length < 255,\"Maximum subservice amount reached\");\n        _;\n    }\n\n    function getIndexOfSubService(string memory serviceName, string memory subServiceName) internal view returns (uint) {\n        for(uint8 i = 0; i < subServices[serviceName].length; i++){\n            if(encode(subServices[serviceName][i]) == encode(subServiceName)){\n                return i;\n            }\n        }\n        return 255;\n    }\n\n    function containsSubService(string memory serviceName, string memory subServiceName) internal view returns (bool) {\n        return getIndexOfSubService(serviceName,subServiceName) < 255;\n    }\n\n    function addSubService(string memory serviceName, string memory subServiceName)\n     public subservicesNotFull(serviceName) subServiceNotExists(serviceName,subServiceName) ownerOnly {\n        //Returns true if service does not already exist\n        subServices[serviceName].push(subServiceName);\n    }\n\n    function editSubServiceName(string memory serviceName, string memory oldName, string memory newName)\n     public subServiceExists(serviceName,oldName) ownerOnly {\n        subServices[serviceName][getIndexOfSubService(serviceName,oldName)] = newName;\n    }\n\n    function deleteSubService(string memory serviceName, string memory subServiceName)\n     public ownerOnly subServiceExists(serviceName,subServiceName) {\n        //TODO Shift elements manually\n        delete subServices[serviceName][getIndexOfSubService(serviceName,subServiceName)];\n    }\n\n    function getSubServices(string memory serviceName) public view returns (string[] memory) {\n        return subServices[serviceName];\n    }\n}\n",
  "sourcePath": "/Users/mapring/Documents/school/blockchain/blockchain-project-2019/contracts/ServiceHandler.sol",
  "compiler": {
    "name": "solc",
    "version": "0.5.12+commit.7709ece9.Emscripten.clang"
  },
  "schemaVersion": "3.0.19",
  "updatedAt": "2019-11-23T08:11:19.976Z",
  "networkType": "ethereum",
  "devdoc": {
    "methods": {}
  },
  "userdoc": {
    "methods": {}
  }
}