{
  "contractName": "ServiceHandler",
  "abi": [
    {
      "anonymous": false,
      "inputs": [
        {
          "components": [
            {
              "internalType": "string",
              "name": "dealerName",
              "type": "string"
            },
            {
              "internalType": "string",
              "name": "firstName",
              "type": "string"
            },
            {
              "internalType": "string",
              "name": "lastName",
              "type": "string"
            },
            {
              "internalType": "string",
              "name": "addr",
              "type": "string"
            },
            {
              "internalType": "string[2]",
              "name": "location",
              "type": "string[2]"
            },
            {
              "internalType": "string",
              "name": "phoneNo",
              "type": "string"
            },
            {
              "internalType": "string",
              "name": "bestSeller",
              "type": "string"
            },
            {
              "internalType": "string",
              "name": "promotion",
              "type": "string"
            },
            {
              "internalType": "string",
              "name": "otherServices",
              "type": "string"
            },
            {
              "internalType": "string[]",
              "name": "availableServices",
              "type": "string[]"
            },
            {
              "internalType": "string[][]",
              "name": "availableSubServices",
              "type": "string[][]"
            }
          ],
          "indexed": false,
          "internalType": "struct DealerContract.DealerInfo",
          "name": "info",
          "type": "tuple"
        },
        {
          "indexed": false,
          "internalType": "bytes32",
          "name": "id",
          "type": "bytes32"
        }
      ],
      "name": "CreateDealerApplication",
      "type": "event"
    },
    {
      "constant": false,
      "inputs": [
        {
          "internalType": "bytes32",
          "name": "dealerId",
          "type": "bytes32"
        },
        {
          "internalType": "bytes32",
          "name": "adr",
          "type": "bytes32"
        }
      ],
      "name": "addDealerEmployee",
      "outputs": [],
      "payable": false,
      "stateMutability": "nonpayable",
      "type": "function"
    },
    {
      "constant": false,
      "inputs": [
        {
          "internalType": "bytes32",
          "name": "adr",
          "type": "bytes32"
        }
      ],
      "name": "approveApplication",
      "outputs": [],
      "payable": false,
      "stateMutability": "nonpayable",
      "type": "function"
    },
    {
      "constant": false,
      "inputs": [
        {
          "components": [
            {
              "internalType": "string",
              "name": "dealerName",
              "type": "string"
            },
            {
              "internalType": "string",
              "name": "firstName",
              "type": "string"
            },
            {
              "internalType": "string",
              "name": "lastName",
              "type": "string"
            },
            {
              "internalType": "string",
              "name": "addr",
              "type": "string"
            },
            {
              "internalType": "string[2]",
              "name": "location",
              "type": "string[2]"
            },
            {
              "internalType": "string",
              "name": "phoneNo",
              "type": "string"
            },
            {
              "internalType": "string",
              "name": "bestSeller",
              "type": "string"
            },
            {
              "internalType": "string",
              "name": "promotion",
              "type": "string"
            },
            {
              "internalType": "string",
              "name": "otherServices",
              "type": "string"
            },
            {
              "internalType": "string[]",
              "name": "availableServices",
              "type": "string[]"
            },
            {
              "internalType": "string[][]",
              "name": "availableSubServices",
              "type": "string[][]"
            }
          ],
          "internalType": "struct DealerContract.DealerInfo",
          "name": "info",
          "type": "tuple"
        },
        {
          "internalType": "bytes32",
          "name": "id",
          "type": "bytes32"
        }
      ],
      "name": "createDealerApplication",
      "outputs": [],
      "payable": false,
      "stateMutability": "nonpayable",
      "type": "function"
    },
    {
      "constant": false,
      "inputs": [
        {
          "components": [
            {
              "internalType": "string",
              "name": "dealerName",
              "type": "string"
            },
            {
              "internalType": "string",
              "name": "firstName",
              "type": "string"
            },
            {
              "internalType": "string",
              "name": "lastName",
              "type": "string"
            },
            {
              "internalType": "string",
              "name": "addr",
              "type": "string"
            },
            {
              "internalType": "string[2]",
              "name": "location",
              "type": "string[2]"
            },
            {
              "internalType": "string",
              "name": "phoneNo",
              "type": "string"
            },
            {
              "internalType": "string",
              "name": "bestSeller",
              "type": "string"
            },
            {
              "internalType": "string",
              "name": "promotion",
              "type": "string"
            },
            {
              "internalType": "string",
              "name": "otherServices",
              "type": "string"
            },
            {
              "internalType": "string[]",
              "name": "availableServices",
              "type": "string[]"
            },
            {
              "internalType": "string[][]",
              "name": "availableSubServices",
              "type": "string[][]"
            }
          ],
          "internalType": "struct DealerContract.DealerInfo",
          "name": "info",
          "type": "tuple"
        },
        {
          "internalType": "bytes32",
          "name": "id",
          "type": "bytes32"
        }
      ],
      "name": "editDealerInfo",
      "outputs": [],
      "payable": false,
      "stateMutability": "nonpayable",
      "type": "function"
    },
    {
      "constant": true,
      "inputs": [],
      "name": "getAllDealerApplications",
      "outputs": [
        {
          "internalType": "bytes32[]",
          "name": "",
          "type": "bytes32[]"
        }
      ],
      "payable": false,
      "stateMutability": "view",
      "type": "function"
    },
    {
      "constant": true,
      "inputs": [
        {
          "internalType": "bytes32",
          "name": "id",
          "type": "bytes32"
        }
      ],
      "name": "getDealerInfo",
      "outputs": [
        {
          "components": [
            {
              "internalType": "string",
              "name": "dealerName",
              "type": "string"
            },
            {
              "internalType": "string",
              "name": "firstName",
              "type": "string"
            },
            {
              "internalType": "string",
              "name": "lastName",
              "type": "string"
            },
            {
              "internalType": "string",
              "name": "addr",
              "type": "string"
            },
            {
              "internalType": "string[2]",
              "name": "location",
              "type": "string[2]"
            },
            {
              "internalType": "string",
              "name": "phoneNo",
              "type": "string"
            },
            {
              "internalType": "string",
              "name": "bestSeller",
              "type": "string"
            },
            {
              "internalType": "string",
              "name": "promotion",
              "type": "string"
            },
            {
              "internalType": "string",
              "name": "otherServices",
              "type": "string"
            },
            {
              "internalType": "string[]",
              "name": "availableServices",
              "type": "string[]"
            },
            {
              "internalType": "string[][]",
              "name": "availableSubServices",
              "type": "string[][]"
            }
          ],
          "internalType": "struct DealerContract.DealerInfo",
          "name": "",
          "type": "tuple"
        }
      ],
      "payable": false,
      "stateMutability": "view",
      "type": "function"
    },
    {
      "constant": true,
      "inputs": [
        {
          "internalType": "string",
          "name": "id",
          "type": "string"
        }
      ],
      "name": "getHash",
      "outputs": [
        {
          "internalType": "bytes32",
          "name": "",
          "type": "bytes32"
        }
      ],
      "payable": false,
      "stateMutability": "pure",
      "type": "function"
    },
    {
      "constant": true,
      "inputs": [
        {
          "internalType": "bytes32",
          "name": "adr",
          "type": "bytes32"
        }
      ],
      "name": "isVerified",
      "outputs": [
        {
          "internalType": "bool",
          "name": "",
          "type": "bool"
        }
      ],
      "payable": false,
      "stateMutability": "view",
      "type": "function"
    },
    {
      "constant": true,
      "inputs": [],
      "name": "owner",
      "outputs": [
        {
          "internalType": "address",
          "name": "",
          "type": "address"
        }
      ],
      "payable": false,
      "stateMutability": "view",
      "type": "function"
    },
    {
      "constant": false,
      "inputs": [
        {
          "internalType": "bytes32",
          "name": "dealershipId",
          "type": "bytes32"
        },
        {
          "internalType": "bytes32",
          "name": "otherId",
          "type": "bytes32"
        }
      ],
      "name": "transferDealershipOwner",
      "outputs": [],
      "payable": false,
      "stateMutability": "nonpayable",
      "type": "function"
    },
    {
      "constant": false,
      "inputs": [
        {
          "internalType": "address",
          "name": "newOwner",
          "type": "address"
        }
      ],
      "name": "transferOwner",
      "outputs": [],
      "payable": false,
      "stateMutability": "nonpayable",
      "type": "function"
    },
    {
      "constant": false,
      "inputs": [
        {
          "internalType": "string",
          "name": "serviceName",
          "type": "string"
        }
      ],
      "name": "addService",
      "outputs": [],
      "payable": false,
      "stateMutability": "nonpayable",
      "type": "function"
    },
    {
      "constant": false,
      "inputs": [
        {
          "internalType": "string",
          "name": "oldName",
          "type": "string"
        },
        {
          "internalType": "string",
          "name": "newName",
          "type": "string"
        }
      ],
      "name": "editServiceName",
      "outputs": [],
      "payable": false,
      "stateMutability": "nonpayable",
      "type": "function"
    },
    {
      "constant": false,
      "inputs": [
        {
          "internalType": "string",
          "name": "serviceName",
          "type": "string"
        }
      ],
      "name": "deleteService",
      "outputs": [],
      "payable": false,
      "stateMutability": "nonpayable",
      "type": "function"
    },
    {
      "constant": true,
      "inputs": [],
      "name": "getServices",
      "outputs": [
        {
          "internalType": "string[]",
          "name": "",
          "type": "string[]"
        }
      ],
      "payable": false,
      "stateMutability": "view",
      "type": "function"
    },
    {
      "constant": false,
      "inputs": [
        {
          "internalType": "string",
          "name": "serviceName",
          "type": "string"
        },
        {
          "internalType": "string",
          "name": "subServiceName",
          "type": "string"
        }
      ],
      "name": "addSubService",
      "outputs": [],
      "payable": false,
      "stateMutability": "nonpayable",
      "type": "function"
    },
    {
      "constant": false,
      "inputs": [
        {
          "internalType": "string",
          "name": "serviceName",
          "type": "string"
        },
        {
          "internalType": "string",
          "name": "oldName",
          "type": "string"
        },
        {
          "internalType": "string",
          "name": "newName",
          "type": "string"
        }
      ],
      "name": "editSubServiceName",
      "outputs": [],
      "payable": false,
      "stateMutability": "nonpayable",
      "type": "function"
    },
    {
      "constant": false,
      "inputs": [
        {
          "internalType": "string",
          "name": "serviceName",
          "type": "string"
        },
        {
          "internalType": "string",
          "name": "subServiceName",
          "type": "string"
        }
      ],
      "name": "deleteSubService",
      "outputs": [],
      "payable": false,
      "stateMutability": "nonpayable",
      "type": "function"
    },
    {
      "constant": true,
      "inputs": [
        {
          "internalType": "string",
          "name": "serviceName",
          "type": "string"
        }
      ],
      "name": "getSubServices",
      "outputs": [
        {
          "internalType": "string[]",
          "name": "",
          "type": "string[]"
        }
      ],
      "payable": false,
      "stateMutability": "view",
      "type": "function"
    }
  ],
  "bytecode": "0x60806040526006805461fe0061ff0019909116179055600080546001600160a01b03191633179055612dc5806100366000396000f3fe608060405234801561001057600080fd5b50600436106101215760003560e01c80636fd7d2b5116100ad57806382d7afbd1161007157806382d7afbd1461025957806388fcd1941461026c5780638da5cb5b1461027f578063c181b27314610294578063e445268c146102b457610121565b80636fd7d2b5146101f6578063752326c114610209578063754178511461021c5780637d17f13c146102245780637e41667f1461024457610121565b8063369bfce4116100f4578063369bfce414610174578063431a65fc146101875780634fb2e45d146101b057806350fb95e3146101c35780635b6beeb9146101d657610121565b80630eb7bc8f146101265780631118127a1461013b5780631a4c85be1461014e5780631b8f47fe14610161575b600080fd5b61013961013436600461236b565b6102c7565b005b610139610149366004612459565b61035b565b61013961015c366004612337565b610549565b61013961016f3660046122c1565b61061c565b61013961018236600461236b565b6106ad565b61019a610195366004612337565b610803565b6040516101a79190612b56565b60405180910390f35b6101396101be36600461229b565b6108fa565b6101396101d136600461236b565b610946565b6101e96101e4366004612337565b610a29565b6040516101a79190612b75565b6101396102043660046123c8565b610a9e565b610139610217366004612459565b610b40565b61019a610ca7565b6102376102323660046122c1565b610dfc565b6040516101a79190612c33565b61024c611586565b6040516101a79190612b45565b6101396102673660046122fd565b611609565b61013961027a366004612337565b611705565b610287611813565b6040516101a79190612b37565b6102a76102a23660046122c1565b611822565b6040516101a79190612b67565b6101396102c23660046122fd565b61184f565b6000546001600160a01b031633146102fa5760405162461bcd60e51b81526004016102f190612bd3565b60405180910390fd5b81610304816118da565b6103205760405162461bcd60e51b81526004016102f190612bf3565b816007600061032e866118fb565b60ff1660ff1681526020019081526020016000209080519060200190610355929190611b87565b50505050565b60008181526001602052604090205460ff161561038a5760405162461bcd60e51b81526004016102f190612c03565b60008181526004602090815260409091208351805185936103af928492910190611b87565b5060208281015180516103c89260018501920190611b87565b50604082015180516103e4916002840191602090910190611b87565b5060608201518051610400916003840191602090910190611b87565b5060808201516104169060048301906002611c05565b5060a08201518051610432916006840191602090910190611b87565b5060c0820151805161044e916007840191602090910190611b87565b5060e0820151805161046a916008840191602090910190611b87565b506101008201518051610487916009840191602090910190611b87565b5061012082015180516104a491600a840191602090910190611c51565b5061014082015180516104c191600b840191602090910190611c9e565b5090505060006104d082611a1a565b121561050c57600580546001810182556000919091527f036b6384b5eca791c62761152d0c79bb0604c104a5fb6f4eb0703f3154bb3db0018190555b7fbcb28ce223d1d07df7ff015302f0aee0306ad6362ede3db7aa3c6d40a651f008828260405161053d929190612c44565b60405180910390a15050565b6000546001600160a01b031633146105735760405162461bcd60e51b81526004016102f190612bd3565b8061057d816118da565b6105995760405162461bcd60e51b81526004016102f190612bf3565b60006105a4836118fb565b604080516020808201808452600080845260ff86168152600790925292902090519293506105d492909190611b87565b506008836040516105e59190612b2b565b908152602001604051809103902060006105ff9190611cf7565b50506006805460ff19811660ff9182166000190190911617905550565b6000546001600160a01b031633146106465760405162461bcd60e51b81526004016102f190612bd3565b600061065182611a1a565b905060008112156106745760405162461bcd60e51b81526004016102f190612bb3565b6000828152600160208190526040909120805460ff19169091179055600580548290811061069e57fe5b60009182526020822001555050565b6000546001600160a01b031633146106d75760405162461bcd60e51b81526004016102f190612bd3565b81816106e38282611a60565b6106ff5760405162461bcd60e51b81526004016102f190612be3565b600061070b8585611a76565b9050600060016008876040516107219190612b2b565b9081526020016040518091039020805490500390506008866040516107469190612b2b565b9081526020016040518091039020818154811061075f57fe5b906000526020600020016008876040516107799190612b2b565b9081526020016040518091039020838154811061079257fe5b9060005260206000200190805460018160011615610100020316600290046107bb929190611d18565b506008866040516107cc9190612b2b565b908152602001604051809103902081815481106107e557fe5b9060005260206000200160006107fb9190611d8d565b505050505050565b60606008826040516108159190612b2b565b9081526020016040518091039020805480602002602001604051908101604052809291908181526020016000905b828210156108ee5760008481526020908190208301805460408051601f60026000196101006001871615020190941693909304928301859004850281018501909152818152928301828280156108da5780601f106108af576101008083540402835291602001916108da565b820191906000526020600020905b8154815290600101906020018083116108bd57829003601f168201915b505050505081526020019060010190610843565b5050505090505b919050565b6000546001600160a01b031633146109245760405162461bcd60e51b81526004016102f190612bd3565b600080546001600160a01b0319166001600160a01b0392909216919091179055565b8160ff6008826040516109599190612b2b565b90815260405190819003602001902054106109865760405162461bcd60e51b81526004016102f190612bc3565b82826109928282611a60565b156109af5760405162461bcd60e51b81526004016102f190612ba3565b6000546001600160a01b031633146109d95760405162461bcd60e51b81526004016102f190612bd3565b6008856040516109e99190612b2b565b9081526040516020918190038201902080546001810180835560009283529183902087519293610a20939190920191880190611b87565b50505050505050565b6000600282604051602001610a3e9190612b2b565b60408051601f1981840301815290829052610a5891612b2b565b602060405180830381855afa158015610a75573d6000803e3d6000fd5b5050506040513d601f19601f82011682018060405250610a9891908101906122df565b92915050565b8282610aaa8282611a60565b610ac65760405162461bcd60e51b81526004016102f190612be3565b6000546001600160a01b03163314610af05760405162461bcd60e51b81526004016102f190612bd3565b82600886604051610b019190612b2b565b9081526020016040518091039020610b198787611a76565b81548110610b2357fe5b9060005260206000200190805190602001906107fb929190611b87565b600081815260016020526040902054819060ff16610b705760405162461bcd60e51b81526004016102f190612b93565b6000828152600460209081526040909120845180518693610b95928492910190611b87565b506020828101518051610bae9260018501920190611b87565b5060408201518051610bca916002840191602090910190611b87565b5060608201518051610be6916003840191602090910190611b87565b506080820151610bfc9060048301906002611c05565b5060a08201518051610c18916006840191602090910190611b87565b5060c08201518051610c34916007840191602090910190611b87565b5060e08201518051610c50916008840191602090910190611b87565b506101008201518051610c6d916009840191602090910190611b87565b506101208201518051610c8a91600a840191602090910190611c51565b5061014082015180516107fb91600b840191602090910190611c9e565b6006546040805160ff909216808352602080820284010190915260609182918015610ce657816020015b6060815260200190600190039081610cd15790505b5090506000805b60065460ff61010090910481169082161015610df35760ff81166000908152600760205260409020546002600019610100600184161502019091160415610deb5760ff811660009081526007602090815260409182902080548351601f600260001961010060018616150201909316929092049182018490048402810184019094528084529091830182828015610dc55780601f10610d9a57610100808354040283529160200191610dc5565b820191906000526020600020905b815481529060010190602001808311610da857829003601f168201915b5050505050838380600101945060ff1681518110610ddf57fe5b60200260200101819052505b600101610ced565b50909150505b90565b610e04611dd1565b6000828152600460209081526040918290208251815460026001821615610100026000190190911604601f810184900490930281016101809081019094526101608101838152909391928492849190840182828015610ea45780601f10610e7957610100808354040283529160200191610ea4565b820191906000526020600020905b815481529060010190602001808311610e8757829003601f168201915b50505050508152602001600182018054600181600116156101000203166002900480601f016020809104026020016040519081016040528092919081815260200182805460018160011615610100020316600290048015610f465780601f10610f1b57610100808354040283529160200191610f46565b820191906000526020600020905b815481529060010190602001808311610f2957829003601f168201915b5050509183525050600282810180546040805160206001841615610100026000190190931694909404601f81018390048302850183019091528084529381019390830182828015610fd85780601f10610fad57610100808354040283529160200191610fd8565b820191906000526020600020905b815481529060010190602001808311610fbb57829003601f168201915b505050918352505060038201805460408051602060026001851615610100026000190190941693909304601f810184900484028201840190925281815293820193929183018282801561106c5780601f106110415761010080835404028352916020019161106c565b820191906000526020600020905b81548152906001019060200180831161104f57829003601f168201915b5050509183525050604080518082019091526020909101906004830160026000835b8282101561113157838201805460408051602060026001851615610100026000190190941693909304601f8101849004840282018401909252818152929183018282801561111d5780601f106110f25761010080835404028352916020019161111d565b820191906000526020600020905b81548152906001019060200180831161110057829003601f168201915b50505050508152602001906001019061108e565b5050509082525060068201805460408051602060026001851615610100026000190190941693909304601f81018490048402820184019092528181529382019392918301828280156111c45780601f10611199576101008083540402835291602001916111c4565b820191906000526020600020905b8154815290600101906020018083116111a757829003601f168201915b505050918352505060078201805460408051602060026001851615610100026000190190941693909304601f81018490048402820184019092528181529382019392918301828280156112585780601f1061122d57610100808354040283529160200191611258565b820191906000526020600020905b81548152906001019060200180831161123b57829003601f168201915b505050918352505060088201805460408051602060026001851615610100026000190190941693909304601f81018490048402820184019092528181529382019392918301828280156112ec5780601f106112c1576101008083540402835291602001916112ec565b820191906000526020600020905b8154815290600101906020018083116112cf57829003601f168201915b505050918352505060098201805460408051602060026001851615610100026000190190941693909304601f81018490048402820184019092528181529382019392918301828280156113805780601f1061135557610100808354040283529160200191611380565b820191906000526020600020905b81548152906001019060200180831161136357829003601f168201915b50505050508152602001600a8201805480602002602001604051908101604052809291908181526020016000905b828210156114595760008481526020908190208301805460408051601f60026000196101006001871615020190941693909304928301859004850281018501909152818152928301828280156114455780601f1061141a57610100808354040283529160200191611445565b820191906000526020600020905b81548152906001019060200180831161142857829003601f168201915b5050505050815260200190600101906113ae565b505050508152602001600b8201805480602002602001604051908101604052809291908181526020016000905b8282101561157857838290600052602060002001805480602002602001604051908101604052809291908181526020016000905b828210156115655760008481526020908190208301805460408051601f60026000196101006001871615020190941693909304928301859004850281018501909152818152928301828280156115515780601f1061152657610100808354040283529160200191611551565b820191906000526020600020905b81548152906001019060200180831161153457829003601f168201915b5050505050815260200190600101906114ba565b5050505081526020019060010190611486565b505050915250909392505050565b6000546060906001600160a01b031633146115b35760405162461bcd60e51b81526004016102f190612bd3565b60058054806020026020016040519081016040528092919081815260200182805480156115ff57602002820191906000526020600020905b8154815260200190600101908083116115eb575b5050505050905090565b600082815260016020526040902054829060ff166116395760405162461bcd60e51b81526004016102f190612b93565b6000828152600160208181526040808420805460ff199081169094179055868452808420805490931690925584835260038152818320839055858352600290528082208483529120815461168d9290611e31565b5060008381526002602052604081206116a591611e70565b60005b6000838152600260205260409020548110156103555782600360006002600087815260200190815260200160002084815481106116e157fe5b600091825260208083209091015483528201929092526040019020556001016116a8565b6000546001600160a01b0316331461172f5760405162461bcd60e51b81526004016102f190612bd3565b80611739816118da565b156117565760405162461bcd60e51b81526004016102f190612c13565b60065460ff61010082048116911611156117825760405162461bcd60e51b81526004016102f190612c23565b60005b60065460ff6101009091048116908216101561180d5760ff8116600090815260076020526040902054600260001961010060018416150201909116046118055760ff8116600090815260076020908152604090912084516117e892860190611b87565b50506006805460ff8082166001011660ff1990911617905561180f565b600101611785565b505b5050565b6000546001600160a01b031681565b60008181526001602052604081205460ff1680610a98575050600090815260036020526040902054151590565b600082815260016020526040902054829060ff1661187f5760405162461bcd60e51b81526004016102f190612b93565b600082815260036020526040902054156118ab5760405162461bcd60e51b81526004016102f190612b83565b506000828152600260209081526040808320805460018101825590845282842001849055928252600390522055565b600654600090610100900460ff166118f1836118fb565b60ff161092915050565b60008061190783611b57565b905060005b60065460ff61010090910481169082161015611a105760ff811660009081526007602052604090205460026000196101006001841615020190911604158015906119fa575060ff81166000908152600760209081526040918290208054835160026001831615610100026000190190921691909104601f810184900484028201840190945283815285936119f8939192918301828280156119ee5780601f106119c3576101008083540402835291602001916119ee565b820191906000526020600020905b8154815290600101906020018083116119d157829003601f168201915b5050505050611b57565b145b15611a085791506108f59050565b60010161190c565b5060ff9392505050565b6000805b600554811015611a56578260058281548110611a3657fe5b90600052602060002001541415611a4e5790506108f5565b600101611a1e565b5060001992915050565b600060ff611a6e8484611a76565b109392505050565b6000805b600884604051611a8a9190612b2b565b9081526040519081900360200190205460ff82161015611a1057611aad83611b57565b611b3f600886604051611ac09190612b2b565b90815260200160405180910390208360ff1681548110611adc57fe5b600091825260209182902001805460408051601f60026000196101006001871615020190941693909304928301859004850281018501909152818152928301828280156119ee5780601f106119c3576101008083540402835291602001916119ee565b1415611b4f5760ff169050610a98565b600101611a7a565b600081604051602001611b6a9190612b2b565b604051602081830303815290604052805190602001209050919050565b828054600181600116156101000203166002900490600052602060002090601f016020900481019282601f10611bc857805160ff1916838001178555611bf5565b82800160010185558215611bf5579182015b82811115611bf5578251825591602001919060010190611bda565b50611c01929150611e8a565b5090565b8260028101928215611c45579160200282015b82811115611c455782518051611c35918491602090910190611b87565b5091602001919060010190611c18565b50611c01929150611ea4565b828054828255906000526020600020908101928215611c45579160200282015b82811115611c455782518051611c8e918491602090910190611b87565b5091602001919060010190611c71565b828054828255906000526020600020908101928215611ceb579160200282015b82811115611ceb5782518051611cdb918491602090910190611c51565b5091602001919060010190611cbe565b50611c01929150611ec7565b5080546000825590600052602060002090810190611d159190611ea4565b50565b828054600181600116156101000203166002900490600052602060002090601f016020900481019282601f10611d515780548555611bf5565b82800160010185558215611bf557600052602060002091601f016020900482015b82811115611bf5578254825591600101919060010190611d72565b50805460018160011615610100020316600290046000825580601f10611db35750611d15565b601f016020900490600052602060002090810190611d159190611e8a565b60405180610160016040528060608152602001606081526020016060815260200160608152602001611e01611eea565b81526020016060815260200160608152602001606081526020016060815260200160608152602001606081525090565b828054828255906000526020600020908101928215611bf557600052602060002091820182811115611bf5578254825591600101919060010190611d72565b5080546000825590600052602060002090810190611d1591905b610df991905b80821115611c015760008155600101611e90565b610df991905b80821115611c01576000611ebe8282611d8d565b50600101611eaa565b610df991905b80821115611c01576000611ee18282611cf7565b50600101611ecd565b60405180604001604052806002905b6060815260200190600190039081611ef95790505090565b8035610a9881612d65565b600082601f830112611f2d57600080fd5b8135611f40611f3b82612c8a565b612c64565b81815260209384019390925082018360005b83811015611f7e5781358601611f688882611fda565b8452506020928301929190910190600101611f52565b5050505092915050565b600082601f830112611f9957600080fd5b6002611fa7611f3b82612caa565b9150818360005b83811015611f7e5781358601611fc4888261204d565b8452506020928301929190910190600101611fae565b600082601f830112611feb57600080fd5b8135611ff9611f3b82612c8a565b81815260209384019390925082018360005b83811015611f7e5781358601612021888261204d565b845250602092830192919091019060010161200b565b8035610a9881612d79565b8051610a9881612d79565b600082601f83011261205e57600080fd5b813561206c611f3b82612cc7565b9150808252602083016020830185838301111561208857600080fd5b612093838284612d23565b50505092915050565b600061016082840312156120af57600080fd5b6120ba610160612c64565b905081356001600160401b038111156120d257600080fd5b6120de8482850161204d565b82525060208201356001600160401b038111156120fa57600080fd5b6121068482850161204d565b60208301525060408201356001600160401b0381111561212557600080fd5b6121318482850161204d565b60408301525060608201356001600160401b0381111561215057600080fd5b61215c8482850161204d565b60608301525060808201356001600160401b0381111561217b57600080fd5b61218784828501611f88565b60808301525060a08201356001600160401b038111156121a657600080fd5b6121b28482850161204d565b60a08301525060c08201356001600160401b038111156121d157600080fd5b6121dd8482850161204d565b60c08301525060e08201356001600160401b038111156121fc57600080fd5b6122088482850161204d565b60e0830152506101008201356001600160401b0381111561222857600080fd5b6122348482850161204d565b610100830152506101208201356001600160401b0381111561225557600080fd5b61226184828501611fda565b610120830152506101408201356001600160401b0381111561228257600080fd5b61228e84828501611f1c565b6101408301525092915050565b6000602082840312156122ad57600080fd5b60006122b98484611f11565b949350505050565b6000602082840312156122d357600080fd5b60006122b98484612037565b6000602082840312156122f157600080fd5b60006122b98484612042565b6000806040838503121561231057600080fd5b600061231c8585612037565b925050602061232d85828601612037565b9150509250929050565b60006020828403121561234957600080fd5b81356001600160401b0381111561235f57600080fd5b6122b98482850161204d565b6000806040838503121561237e57600080fd5b82356001600160401b0381111561239457600080fd5b6123a08582860161204d565b92505060208301356001600160401b038111156123bc57600080fd5b61232d8582860161204d565b6000806000606084860312156123dd57600080fd5b83356001600160401b038111156123f357600080fd5b6123ff8682870161204d565b93505060208401356001600160401b0381111561241b57600080fd5b6124278682870161204d565b92505060408401356001600160401b0381111561244357600080fd5b61244f8682870161204d565b9150509250925092565b6000806040838503121561246c57600080fd5b82356001600160401b0381111561248257600080fd5b61231c8582860161209c565b600061249a8383612659565b9392505050565b60006124ad83836126c3565b505060200190565b600061249a83836126fb565b6124ca81612d07565b82525050565b60006124db82612cf4565b6124e58185612cfe565b9350836020820285016124f785612cee565b8060005b858110156125315784840389528151612514858261248e565b945061251f83612cee565b60209a909a01999250506001016124fb565b5091979650505050505050565b600061254982612cf4565b6125538185612cfe565b935061255e83612cee565b8060005b8381101561258c57815161257688826124a1565b975061258183612cee565b925050600101612562565b509495945050505050565b60006125a282612cf8565b6125ac81856108f5565b9350836020820285016125be85610df9565b8060005b8581101561253157848403895281516125db85826124b5565b94506125e683612cee565b60209a909a01999250506001016125c2565b600061260382612cf4565b61260d8185612cfe565b93508360208202850161261f85612cee565b8060005b85811015612531578484038952815161263c85826124b5565b945061264783612cee565b60209a909a0199925050600101612623565b600061266482612cf4565b61266e8185612cfe565b93508360208202850161268085612cee565b8060005b85811015612531578484038952815161269d85826124b5565b94506126a883612cee565b60209a909a0199925050600101612684565b6124ca81612d12565b6124ca81610df9565b60006126d782612cf4565b6126e181856108f5565b93506126f1818560208601612d2f565b9290920192915050565b600061270682612cf4565b6127108185612cfe565b9350612720818560208601612d2f565b61272981612d5b565b9093019392505050565b6000612740602183612cfe565b7f5468617420656d706c6f79656520616c726561647920776f726b7320746865728152606560f81b602082015260400192915050565b6000612783602983612cfe565b7f596f75206d7573742062652061206465616c657273686970206f776e657220748152686f20646f207468697360b81b602082015260400192915050565b60006127ce601e83612cfe565b7f54686174207375627365727669636520616c7265616479206578697374730000815260200192915050565b6000612807602183612cfe565b7f4e6f206170706c69636174696f6e2065786973747320666f72207468617420698152601960fa1b602082015260400192915050565b600061284a602183612cfe565b7f4d6178696d756d207375627365727669636520616d6f756e74207265616368658152601960fa1b602082015260400192915050565b600061288d601583612cfe565b742cb7ba9030b932903737ba103a34329037bbb732b960591b815260200192915050565b60006128be602c83612cfe565b7f54686174207375627365727669636520646f65736e7420657869737420696e2081526b1d1a1a5cc818dbdb9d195e1d60a21b602082015260400192915050565b600061290c601b83612cfe565b7f54686174207365727669636520646f6573206e6f742065786973740000000000815260200192915050565b6000612945602283612cfe565b7f54686174206164647265737320697320616c7265616479207265676973746572815261195960f21b602082015260400192915050565b6000612989601b83612cfe565b7f54686174207365727669636520616c7265616479206578697374730000000000815260200192915050565b60006129c2602883612cfe565b7f54686572652061726520746865206d6178696d756d206e756d626572206f6620815267736572766963657360c01b602082015260400192915050565b805161016080845260009190840190612a1882826126fb565b91505060208301518482036020860152612a3282826126fb565b91505060408301518482036040860152612a4c82826126fb565b91505060608301518482036060860152612a6682826126fb565b91505060808301518482036080860152612a808282612597565b91505060a083015184820360a0860152612a9a82826126fb565b91505060c083015184820360c0860152612ab482826126fb565b91505060e083015184820360e0860152612ace82826126fb565b915050610100830151848203610100860152612aea82826126fb565b915050610120830151848203610120860152612b068282612659565b915050610140830151848203610140860152612b2282826124d0565b95945050505050565b600061249a82846126cc565b60208101610a9882846124c1565b6020808252810161249a818461253e565b6020808252810161249a81846125f8565b60208101610a9882846126ba565b60208101610a9882846126c3565b60208082528101610a9881612733565b60208082528101610a9881612776565b60208082528101610a98816127c1565b60208082528101610a98816127fa565b60208082528101610a988161283d565b60208082528101610a9881612880565b60208082528101610a98816128b1565b60208082528101610a98816128ff565b60208082528101610a9881612938565b60208082528101610a988161297c565b60208082528101610a98816129b5565b6020808252810161249a81846129ff565b60408082528101612c5581856129ff565b905061249a60208301846126c3565b6040518181016001600160401b0381118282101715612c8257600080fd5b604052919050565b60006001600160401b03821115612ca057600080fd5b5060209081020190565b60006001600160401b03821115612cc057600080fd5b5060200290565b60006001600160401b03821115612cdd57600080fd5b506020601f91909101601f19160190565b60200190565b5190565b50600290565b90815260200190565b6000610a9882612d17565b151590565b6001600160a01b031690565b82818337506000910152565b60005b83811015612d4a578181015183820152602001612d32565b838111156103555750506000910152565b601f01601f191690565b612d6e81612d07565b8114611d1557600080fd5b612d6e81610df956fea365627a7a72315820dbf194349c2e9f45872e42d00a70d9860a65340fee4299049af693aa70d442496c6578706572696d656e74616cf564736f6c634300050c0040",
  "source": "pragma solidity ^0.5.11;\npragma experimental ABIEncoderV2;\n\nimport \"./DealerContract.sol\";\n\ncontract ServiceHandler is DealerContract {\n\n    function encode(string memory str) internal pure returns (bytes32) {\n        return keccak256(abi.encodePacked(str));\n    }\n\n    uint8 noOfServices;\n    uint8 totalNoServices = 254;\n\n    modifier serviceExists(string memory serviceName){\n        require(containsService(serviceName),\"That service does not exist\");\n        _;\n    }\n\n    modifier serviceNotExists(string memory serviceName){\n        require(!containsService(serviceName),\"That service already exists\");\n        _;\n    }\n\n    modifier servicesNotFull{\n        require(noOfServices <= totalNoServices,\"There are the maximum number of services\");\n        _;\n    }\n\n    mapping(uint8 => string) private services;\n\n    function getIndexOfService(string memory serviceName) internal view returns (uint8) {\n        bytes32 service = encode(serviceName);\n        for(uint8 i = 0; i < totalNoServices; i++){\n            if(bytes(services[i]).length > 0 && encode(services[i]) == service){\n                return i;\n            }\n        }\n        return 255;\n    }\n\n    function containsService(string memory serviceName) internal view returns (bool){\n        return getIndexOfService(serviceName) < totalNoServices;\n    }\n\n    function addService(string memory serviceName) public ownerOnly serviceNotExists(serviceName) servicesNotFull {\n        //Returns true if service was successfully added\n        //False if service already exists\n        for(uint8 i = 0; i < totalNoServices; i++){\n            if(bytes(services[i]).length <= 0){\n                services[i] = serviceName;\n                noOfServices++;\n                return;\n            }\n        }\n    }\n\n    function editServiceName(string memory oldName, string memory newName) public ownerOnly serviceExists(oldName) {\n        services[getIndexOfService(oldName)] = newName;\n    }\n\n    function deleteService(string memory serviceName) public ownerOnly serviceExists(serviceName) {\n        uint8 serviceIndex = getIndexOfService(serviceName);\n        services[serviceIndex] = \"\";\n        delete subServices[serviceName];\n        noOfServices--;\n    }\n\n    function getServices() public view returns (string[] memory) {\n        string[] memory existingServices = new string[](noOfServices);\n        uint8 serviceIndex = 0;\n        for(uint8 i = 0; i < totalNoServices; i++){\n            if(bytes(services[i]).length > 0){\n                existingServices[serviceIndex++] = services[i];\n            }\n        }\n        return existingServices;\n    }\n\n    //-----------------------------_Subservices_----------------------------\n\n    mapping(string => string[]) private subServices;\n\n    modifier subServiceExists(string memory serviceName, string memory subServiceName){\n        require(containsSubService(serviceName,subServiceName),\"That subservice doesnt exist in this context\");\n        _;\n    }\n    modifier subServiceNotExists(string memory serviceName, string memory subServiceName){\n        require(!containsSubService(serviceName,subServiceName),\"That subservice already exists\");\n        _;\n    }\n\n    modifier subservicesNotFull(string memory serviceName){\n        require(subServices[serviceName].length < 255,\"Maximum subservice amount reached\");\n        _;\n    }\n\n    function getIndexOfSubService(string memory serviceName, string memory subServiceName) internal view returns (uint) {\n        for(uint8 i = 0; i < subServices[serviceName].length; i++){\n            if(encode(subServices[serviceName][i]) == encode(subServiceName)){\n                return i;\n            }\n        }\n        return 255;\n    }\n\n    function containsSubService(string memory serviceName, string memory subServiceName) internal view returns (bool) {\n        return getIndexOfSubService(serviceName,subServiceName) < 255;\n    }\n\n    function addSubService(string memory serviceName, string memory subServiceName)\n     public subservicesNotFull(serviceName) subServiceNotExists(serviceName,subServiceName) ownerOnly {\n        //Returns true if service does not already exist\n        subServices[serviceName].push(subServiceName);\n    }\n\n    function editSubServiceName(string memory serviceName, string memory oldName, string memory newName)\n     public subServiceExists(serviceName,oldName) ownerOnly {\n        subServices[serviceName][getIndexOfSubService(serviceName,oldName)] = newName;\n    }\n\n    function deleteSubService(string memory serviceName, string memory subServiceName)\n     public ownerOnly subServiceExists(serviceName,subServiceName) {\n        uint index = getIndexOfSubService(serviceName,subServiceName);\n        uint lastIndex = subServices[serviceName].length - 1;\n        subServices[serviceName][index] = subServices[serviceName][lastIndex];\n        delete subServices[serviceName][lastIndex];\n    }\n\n    function getSubServices(string memory serviceName) public view returns (string[] memory) {\n        return subServices[serviceName];\n    }\n}\n",
  "sourcePath": "/home/brandon/Documents/_Important/Uni/Blockchain/Final project/contracts/ServiceHandler.sol",
  "compiler": {
    "name": "solc",
    "version": "0.5.12+commit.7709ece9.Emscripten.clang"
  },
  "schemaVersion": "3.0.19",
  "updatedAt": "2019-11-29T18:25:05.552Z",
  "networkType": "ethereum",
  "devdoc": {
    "methods": {}
  },
  "userdoc": {
    "methods": {}
  }
}