{
  "contractName": "ServiceHandler",
  "abi": [
    {
      "anonymous": false,
      "inputs": [
        {
          "components": [
            {
              "internalType": "string",
              "name": "dealerName",
              "type": "string"
            },
            {
              "internalType": "string",
              "name": "firstName",
              "type": "string"
            },
            {
              "internalType": "string",
              "name": "lastName",
              "type": "string"
            },
            {
              "internalType": "string",
              "name": "addr",
              "type": "string"
            },
            {
              "internalType": "string[2]",
              "name": "location",
              "type": "string[2]"
            },
            {
              "internalType": "string",
              "name": "phoneNo",
              "type": "string"
            },
            {
              "internalType": "string",
              "name": "bestSeller",
              "type": "string"
            },
            {
              "internalType": "string",
              "name": "promotion",
              "type": "string"
            },
            {
              "internalType": "string",
              "name": "otherServices",
              "type": "string"
            },
            {
              "internalType": "string[]",
              "name": "availableServices",
              "type": "string[]"
            },
            {
              "internalType": "string[][]",
              "name": "availableSubServices",
              "type": "string[][]"
            }
          ],
          "indexed": false,
          "internalType": "struct DealerContract.DealerInfo",
          "name": "info",
          "type": "tuple"
        },
        {
          "indexed": false,
          "internalType": "bytes32",
          "name": "id",
          "type": "bytes32"
        }
      ],
      "name": "ApplicationApproved",
      "type": "event"
    },
    {
      "anonymous": false,
      "inputs": [
        {
          "components": [
            {
              "internalType": "string",
              "name": "dealerName",
              "type": "string"
            },
            {
              "internalType": "string",
              "name": "firstName",
              "type": "string"
            },
            {
              "internalType": "string",
              "name": "lastName",
              "type": "string"
            },
            {
              "internalType": "string",
              "name": "addr",
              "type": "string"
            },
            {
              "internalType": "string[2]",
              "name": "location",
              "type": "string[2]"
            },
            {
              "internalType": "string",
              "name": "phoneNo",
              "type": "string"
            },
            {
              "internalType": "string",
              "name": "bestSeller",
              "type": "string"
            },
            {
              "internalType": "string",
              "name": "promotion",
              "type": "string"
            },
            {
              "internalType": "string",
              "name": "otherServices",
              "type": "string"
            },
            {
              "internalType": "string[]",
              "name": "availableServices",
              "type": "string[]"
            },
            {
              "internalType": "string[][]",
              "name": "availableSubServices",
              "type": "string[][]"
            }
          ],
          "indexed": false,
          "internalType": "struct DealerContract.DealerInfo",
          "name": "info",
          "type": "tuple"
        },
        {
          "indexed": false,
          "internalType": "bytes32",
          "name": "id",
          "type": "bytes32"
        }
      ],
      "name": "ApplicationRejected",
      "type": "event"
    },
    {
      "anonymous": false,
      "inputs": [
        {
          "components": [
            {
              "internalType": "string",
              "name": "dealerName",
              "type": "string"
            },
            {
              "internalType": "string",
              "name": "firstName",
              "type": "string"
            },
            {
              "internalType": "string",
              "name": "lastName",
              "type": "string"
            },
            {
              "internalType": "string",
              "name": "addr",
              "type": "string"
            },
            {
              "internalType": "string[2]",
              "name": "location",
              "type": "string[2]"
            },
            {
              "internalType": "string",
              "name": "phoneNo",
              "type": "string"
            },
            {
              "internalType": "string",
              "name": "bestSeller",
              "type": "string"
            },
            {
              "internalType": "string",
              "name": "promotion",
              "type": "string"
            },
            {
              "internalType": "string",
              "name": "otherServices",
              "type": "string"
            },
            {
              "internalType": "string[]",
              "name": "availableServices",
              "type": "string[]"
            },
            {
              "internalType": "string[][]",
              "name": "availableSubServices",
              "type": "string[][]"
            }
          ],
          "indexed": false,
          "internalType": "struct DealerContract.DealerInfo",
          "name": "info",
          "type": "tuple"
        },
        {
          "indexed": false,
          "internalType": "bytes32",
          "name": "id",
          "type": "bytes32"
        }
      ],
      "name": "CreateDealerApplication",
      "type": "event"
    },
    {
      "constant": false,
      "inputs": [
        {
          "internalType": "bytes32",
          "name": "dealerId",
          "type": "bytes32"
        },
        {
          "internalType": "bytes32",
          "name": "adr",
          "type": "bytes32"
        }
      ],
      "name": "addDealerEmployee",
      "outputs": [],
      "payable": false,
      "stateMutability": "nonpayable",
      "type": "function"
    },
    {
      "constant": false,
      "inputs": [
        {
          "internalType": "bytes32",
          "name": "adr",
          "type": "bytes32"
        }
      ],
      "name": "approveApplication",
      "outputs": [],
      "payable": false,
      "stateMutability": "nonpayable",
      "type": "function"
    },
    {
      "constant": false,
      "inputs": [
        {
          "components": [
            {
              "internalType": "string",
              "name": "dealerName",
              "type": "string"
            },
            {
              "internalType": "string",
              "name": "firstName",
              "type": "string"
            },
            {
              "internalType": "string",
              "name": "lastName",
              "type": "string"
            },
            {
              "internalType": "string",
              "name": "addr",
              "type": "string"
            },
            {
              "internalType": "string[2]",
              "name": "location",
              "type": "string[2]"
            },
            {
              "internalType": "string",
              "name": "phoneNo",
              "type": "string"
            },
            {
              "internalType": "string",
              "name": "bestSeller",
              "type": "string"
            },
            {
              "internalType": "string",
              "name": "promotion",
              "type": "string"
            },
            {
              "internalType": "string",
              "name": "otherServices",
              "type": "string"
            },
            {
              "internalType": "string[]",
              "name": "availableServices",
              "type": "string[]"
            },
            {
              "internalType": "string[][]",
              "name": "availableSubServices",
              "type": "string[][]"
            }
          ],
          "internalType": "struct DealerContract.DealerInfo",
          "name": "info",
          "type": "tuple"
        },
        {
          "internalType": "bytes32",
          "name": "id",
          "type": "bytes32"
        }
      ],
      "name": "createDealerApplication",
      "outputs": [],
      "payable": false,
      "stateMutability": "nonpayable",
      "type": "function"
    },
    {
      "constant": false,
      "inputs": [
        {
          "components": [
            {
              "internalType": "string",
              "name": "dealerName",
              "type": "string"
            },
            {
              "internalType": "string",
              "name": "firstName",
              "type": "string"
            },
            {
              "internalType": "string",
              "name": "lastName",
              "type": "string"
            },
            {
              "internalType": "string",
              "name": "addr",
              "type": "string"
            },
            {
              "internalType": "string[2]",
              "name": "location",
              "type": "string[2]"
            },
            {
              "internalType": "string",
              "name": "phoneNo",
              "type": "string"
            },
            {
              "internalType": "string",
              "name": "bestSeller",
              "type": "string"
            },
            {
              "internalType": "string",
              "name": "promotion",
              "type": "string"
            },
            {
              "internalType": "string",
              "name": "otherServices",
              "type": "string"
            },
            {
              "internalType": "string[]",
              "name": "availableServices",
              "type": "string[]"
            },
            {
              "internalType": "string[][]",
              "name": "availableSubServices",
              "type": "string[][]"
            }
          ],
          "internalType": "struct DealerContract.DealerInfo",
          "name": "info",
          "type": "tuple"
        },
        {
          "internalType": "bytes32",
          "name": "id",
          "type": "bytes32"
        }
      ],
      "name": "editDealerInfo",
      "outputs": [],
      "payable": false,
      "stateMutability": "nonpayable",
      "type": "function"
    },
    {
      "constant": true,
      "inputs": [],
      "name": "getAllDealerApplications",
      "outputs": [
        {
          "internalType": "bytes32[]",
          "name": "",
          "type": "bytes32[]"
        }
      ],
      "payable": false,
      "stateMutability": "view",
      "type": "function"
    },
    {
      "constant": true,
      "inputs": [
        {
          "internalType": "bytes32",
          "name": "id",
          "type": "bytes32"
        }
      ],
      "name": "getDealerInfo",
      "outputs": [
        {
          "components": [
            {
              "internalType": "string",
              "name": "dealerName",
              "type": "string"
            },
            {
              "internalType": "string",
              "name": "firstName",
              "type": "string"
            },
            {
              "internalType": "string",
              "name": "lastName",
              "type": "string"
            },
            {
              "internalType": "string",
              "name": "addr",
              "type": "string"
            },
            {
              "internalType": "string[2]",
              "name": "location",
              "type": "string[2]"
            },
            {
              "internalType": "string",
              "name": "phoneNo",
              "type": "string"
            },
            {
              "internalType": "string",
              "name": "bestSeller",
              "type": "string"
            },
            {
              "internalType": "string",
              "name": "promotion",
              "type": "string"
            },
            {
              "internalType": "string",
              "name": "otherServices",
              "type": "string"
            },
            {
              "internalType": "string[]",
              "name": "availableServices",
              "type": "string[]"
            },
            {
              "internalType": "string[][]",
              "name": "availableSubServices",
              "type": "string[][]"
            }
          ],
          "internalType": "struct DealerContract.DealerInfo",
          "name": "",
          "type": "tuple"
        }
      ],
      "payable": false,
      "stateMutability": "view",
      "type": "function"
    },
    {
      "constant": true,
      "inputs": [
        {
          "internalType": "string",
          "name": "id",
          "type": "string"
        }
      ],
      "name": "getHash",
      "outputs": [
        {
          "internalType": "bytes32",
          "name": "",
          "type": "bytes32"
        }
      ],
      "payable": false,
      "stateMutability": "pure",
      "type": "function"
    },
    {
      "constant": true,
      "inputs": [
        {
          "internalType": "bytes32",
          "name": "adr",
          "type": "bytes32"
        }
      ],
      "name": "isVerified",
      "outputs": [
        {
          "internalType": "bool",
          "name": "",
          "type": "bool"
        }
      ],
      "payable": false,
      "stateMutability": "view",
      "type": "function"
    },
    {
      "constant": true,
      "inputs": [],
      "name": "owner",
      "outputs": [
        {
          "internalType": "address",
          "name": "",
          "type": "address"
        }
      ],
      "payable": false,
      "stateMutability": "view",
      "type": "function"
    },
    {
      "constant": false,
      "inputs": [
        {
          "internalType": "bytes32",
          "name": "adr",
          "type": "bytes32"
        }
      ],
      "name": "rejectApplication",
      "outputs": [],
      "payable": false,
      "stateMutability": "nonpayable",
      "type": "function"
    },
    {
      "constant": false,
      "inputs": [
        {
          "internalType": "bytes32",
          "name": "dealershipId",
          "type": "bytes32"
        },
        {
          "internalType": "bytes32",
          "name": "otherId",
          "type": "bytes32"
        }
      ],
      "name": "transferDealershipOwner",
      "outputs": [],
      "payable": false,
      "stateMutability": "nonpayable",
      "type": "function"
    },
    {
      "constant": false,
      "inputs": [
        {
          "internalType": "address",
          "name": "newOwner",
          "type": "address"
        }
      ],
      "name": "transferOwner",
      "outputs": [],
      "payable": false,
      "stateMutability": "nonpayable",
      "type": "function"
    },
    {
      "constant": false,
      "inputs": [
        {
          "internalType": "string",
          "name": "serviceName",
          "type": "string"
        }
      ],
      "name": "addService",
      "outputs": [],
      "payable": false,
      "stateMutability": "nonpayable",
      "type": "function"
    },
    {
      "constant": false,
      "inputs": [
        {
          "internalType": "string",
          "name": "oldName",
          "type": "string"
        },
        {
          "internalType": "string",
          "name": "newName",
          "type": "string"
        }
      ],
      "name": "editServiceName",
      "outputs": [],
      "payable": false,
      "stateMutability": "nonpayable",
      "type": "function"
    },
    {
      "constant": false,
      "inputs": [
        {
          "internalType": "string",
          "name": "serviceName",
          "type": "string"
        }
      ],
      "name": "deleteService",
      "outputs": [],
      "payable": false,
      "stateMutability": "nonpayable",
      "type": "function"
    },
    {
      "constant": true,
      "inputs": [],
      "name": "getServices",
      "outputs": [
        {
          "internalType": "string[]",
          "name": "",
          "type": "string[]"
        }
      ],
      "payable": false,
      "stateMutability": "view",
      "type": "function"
    },
    {
      "constant": false,
      "inputs": [
        {
          "internalType": "string",
          "name": "serviceName",
          "type": "string"
        },
        {
          "internalType": "string",
          "name": "subServiceName",
          "type": "string"
        }
      ],
      "name": "addSubService",
      "outputs": [],
      "payable": false,
      "stateMutability": "nonpayable",
      "type": "function"
    },
    {
      "constant": false,
      "inputs": [
        {
          "internalType": "string",
          "name": "serviceName",
          "type": "string"
        },
        {
          "internalType": "string",
          "name": "oldName",
          "type": "string"
        },
        {
          "internalType": "string",
          "name": "newName",
          "type": "string"
        }
      ],
      "name": "editSubServiceName",
      "outputs": [],
      "payable": false,
      "stateMutability": "nonpayable",
      "type": "function"
    },
    {
      "constant": false,
      "inputs": [
        {
          "internalType": "string",
          "name": "serviceName",
          "type": "string"
        },
        {
          "internalType": "string",
          "name": "subServiceName",
          "type": "string"
        }
      ],
      "name": "deleteSubService",
      "outputs": [],
      "payable": false,
      "stateMutability": "nonpayable",
      "type": "function"
    },
    {
      "constant": true,
      "inputs": [
        {
          "internalType": "string",
          "name": "serviceName",
          "type": "string"
        }
      ],
      "name": "getSubServices",
      "outputs": [
        {
          "internalType": "string[]",
          "name": "",
          "type": "string[]"
        }
      ],
      "payable": false,
      "stateMutability": "view",
      "type": "function"
    }
  ],
  "bytecode": "0x60806040526006805461fe0061ff0019909116179055600080546001600160a01b03191633179055613274806100366000396000f3fe608060405234801561001057600080fd5b506004361061012c5760003560e01c8063752326c1116100ad57806388fcd1941161007157806388fcd194146102775780638da5cb5b1461028a578063c181b2731461029f578063e445268c146102bf578063fcda35f9146102d25761012c565b8063752326c11461021457806375417851146102275780637d17f13c1461022f5780637e41667f1461024f57806382d7afbd146102645761012c565b8063431a65fc116100f4578063431a65fc146101925780634fb2e45d146101bb57806350fb95e3146101ce5780635b6beeb9146101e15780636fd7d2b5146102015761012c565b80630eb7bc8f146101315780631118127a146101465780631a4c85be146101595780631b8f47fe1461016c578063369bfce41461017f575b600080fd5b61014461013f366004612513565b6102e5565b005b610144610154366004612601565b610379565b6101446101673660046124df565b610567565b61014461017a366004612469565b61063a565b61014461018d366004612513565b61071a565b6101a56101a03660046124df565b6108a1565b6040516101b29190612fde565b60405180910390f35b6101446101c9366004612443565b610998565b6101446101dc366004612513565b6109e4565b6101f46101ef3660046124df565b610abe565b6040516101b29190612ffd565b61014461020f366004612570565b610b33565b610144610222366004612601565b610bdd565b6101a5610d44565b61024261023d366004612469565b610e99565b6040516101b291906130bb565b610257611623565b6040516101b29190612fcd565b6101446102723660046124a5565b6116a6565b6101446102853660046124df565b6117a2565b6102926118b0565b6040516101b29190612fbf565b6102b26102ad366004612469565b6118bf565b6040516101b29190612fef565b6101446102cd3660046124a5565b6118ec565b6101446102e0366004612469565b611977565b6000546001600160a01b031633146103185760405162461bcd60e51b815260040161030f9061305b565b60405180910390fd5b8161032281611a3a565b61033e5760405162461bcd60e51b815260040161030f9061307b565b816007600061034c86611a5b565b60ff1660ff1681526020019081526020016000209080519060200190610373929190611ce7565b50505050565b60008181526001602052604090205460ff16156103a85760405162461bcd60e51b815260040161030f9061308b565b60008181526004602090815260409091208351805185936103cd928492910190611ce7565b5060208281015180516103e69260018501920190611ce7565b5060408201518051610402916002840191602090910190611ce7565b506060820151805161041e916003840191602090910190611ce7565b5060808201516104349060048301906002611d65565b5060a08201518051610450916006840191602090910190611ce7565b5060c0820151805161046c916007840191602090910190611ce7565b5060e08201518051610488916008840191602090910190611ce7565b5061010082015180516104a5916009840191602090910190611ce7565b5061012082015180516104c291600a840191602090910190611db1565b5061014082015180516104df91600b840191602090910190611dfe565b5090505060006104ee82611b7a565b121561052a57600580546001810182556000919091527f036b6384b5eca791c62761152d0c79bb0604c104a5fb6f4eb0703f3154bb3db0018190555b7fbcb28ce223d1d07df7ff015302f0aee0306ad6362ede3db7aa3c6d40a651f008828260405161055b9291906130cc565b60405180910390a15050565b6000546001600160a01b031633146105915760405162461bcd60e51b815260040161030f9061305b565b8061059b81611a3a565b6105b75760405162461bcd60e51b815260040161030f9061307b565b60006105c283611a5b565b604080516020808201808452600080845260ff86168152600790925292902090519293506105f292909190611ce7565b506008836040516106039190612fb3565b9081526020016040518091039020600061061d9190611e57565b50506006805460ff19811660ff9182166000190190911617905550565b6000546001600160a01b031633146106645760405162461bcd60e51b815260040161030f9061305b565b600061066f82611b7a565b905060008112156106925760405162461bcd60e51b815260040161030f9061303b565b6000828152600160208190526040909120805460ff1916909117905560058054829081106106bc57fe5b600091825260208220015560058054906106da906000198301611e78565b506000828152600460205260409081902090517ff0447ca0275a7a763cd2739e8753770648c2f2178ce48fdcdfb68ab2a119efda9161055b9185906130ec565b6000546001600160a01b031633146107445760405162461bcd60e51b815260040161030f9061305b565b81816107508282611bc0565b61076c5760405162461bcd60e51b815260040161030f9061306b565b60006107788585611bd6565b90506000600160088760405161078e9190612fb3565b9081526020016040518091039020805490500390506008866040516107b39190612fb3565b908152602001604051809103902081815481106107cc57fe5b906000526020600020016008876040516107e69190612fb3565b908152602001604051809103902083815481106107ff57fe5b906000526020600020019080546001816001161561010002031660029004610828929190611e9c565b506008866040516108399190612fb3565b9081526020016040518091039020818154811061085257fe5b9060005260206000200160006108689190611f11565b6008866040516108789190612fb3565b908152604051908190036020019020805490610898906000198301611f55565b50505050505050565b60606008826040516108b39190612fb3565b9081526020016040518091039020805480602002602001604051908101604052809291908181526020016000905b8282101561098c5760008481526020908190208301805460408051601f60026000196101006001871615020190941693909304928301859004850281018501909152818152928301828280156109785780601f1061094d57610100808354040283529160200191610978565b820191906000526020600020905b81548152906001019060200180831161095b57829003601f168201915b5050505050815260200190600101906108e1565b5050505090505b919050565b6000546001600160a01b031633146109c25760405162461bcd60e51b815260040161030f9061305b565b600080546001600160a01b0319166001600160a01b0392909216919091179055565b8160ff6008826040516109f79190612fb3565b9081526040519081900360200190205410610a245760405162461bcd60e51b815260040161030f9061304b565b8282610a308282611bc0565b15610a4d5760405162461bcd60e51b815260040161030f9061302b565b6000546001600160a01b03163314610a775760405162461bcd60e51b815260040161030f9061305b565b600885604051610a879190612fb3565b9081526040516020918190038201902080546001810180835560009283529183902087519293610898939190920191880190611ce7565b6000600282604051602001610ad39190612fb3565b60408051601f1981840301815290829052610aed91612fb3565b602060405180830381855afa158015610b0a573d6000803e3d6000fd5b5050506040513d601f19601f82011682018060405250610b2d9190810190612487565b92915050565b8282610b3f8282611bc0565b610b5b5760405162461bcd60e51b815260040161030f9061306b565b6000546001600160a01b03163314610b855760405162461bcd60e51b815260040161030f9061305b565b82600886604051610b969190612fb3565b9081526020016040518091039020610bae8787611bd6565b81548110610bb857fe5b906000526020600020019080519060200190610bd5929190611ce7565b505050505050565b600081815260016020526040902054819060ff16610c0d5760405162461bcd60e51b815260040161030f9061301b565b6000828152600460209081526040909120845180518693610c32928492910190611ce7565b506020828101518051610c4b9260018501920190611ce7565b5060408201518051610c67916002840191602090910190611ce7565b5060608201518051610c83916003840191602090910190611ce7565b506080820151610c999060048301906002611d65565b5060a08201518051610cb5916006840191602090910190611ce7565b5060c08201518051610cd1916007840191602090910190611ce7565b5060e08201518051610ced916008840191602090910190611ce7565b506101008201518051610d0a916009840191602090910190611ce7565b506101208201518051610d2791600a840191602090910190611db1565b506101408201518051610bd591600b840191602090910190611dfe565b6006546040805160ff909216808352602080820284010190915260609182918015610d8357816020015b6060815260200190600190039081610d6e5790505b5090506000805b60065460ff61010090910481169082161015610e905760ff81166000908152600760205260409020546002600019610100600184161502019091160415610e885760ff811660009081526007602090815260409182902080548351601f600260001961010060018616150201909316929092049182018490048402810184019094528084529091830182828015610e625780601f10610e3757610100808354040283529160200191610e62565b820191906000526020600020905b815481529060010190602001808311610e4557829003601f168201915b5050505050838380600101945060ff1681518110610e7c57fe5b60200260200101819052505b600101610d8a565b50909150505b90565b610ea1611f79565b6000828152600460209081526040918290208251815460026001821615610100026000190190911604601f810184900490930281016101809081019094526101608101838152909391928492849190840182828015610f415780601f10610f1657610100808354040283529160200191610f41565b820191906000526020600020905b815481529060010190602001808311610f2457829003601f168201915b50505050508152602001600182018054600181600116156101000203166002900480601f016020809104026020016040519081016040528092919081815260200182805460018160011615610100020316600290048015610fe35780601f10610fb857610100808354040283529160200191610fe3565b820191906000526020600020905b815481529060010190602001808311610fc657829003601f168201915b5050509183525050600282810180546040805160206001841615610100026000190190931694909404601f810183900483028501830190915280845293810193908301828280156110755780601f1061104a57610100808354040283529160200191611075565b820191906000526020600020905b81548152906001019060200180831161105857829003601f168201915b505050918352505060038201805460408051602060026001851615610100026000190190941693909304601f81018490048402820184019092528181529382019392918301828280156111095780601f106110de57610100808354040283529160200191611109565b820191906000526020600020905b8154815290600101906020018083116110ec57829003601f168201915b5050509183525050604080518082019091526020909101906004830160026000835b828210156111ce57838201805460408051602060026001851615610100026000190190941693909304601f810184900484028201840190925281815292918301828280156111ba5780601f1061118f576101008083540402835291602001916111ba565b820191906000526020600020905b81548152906001019060200180831161119d57829003601f168201915b50505050508152602001906001019061112b565b5050509082525060068201805460408051602060026001851615610100026000190190941693909304601f81018490048402820184019092528181529382019392918301828280156112615780601f1061123657610100808354040283529160200191611261565b820191906000526020600020905b81548152906001019060200180831161124457829003601f168201915b505050918352505060078201805460408051602060026001851615610100026000190190941693909304601f81018490048402820184019092528181529382019392918301828280156112f55780601f106112ca576101008083540402835291602001916112f5565b820191906000526020600020905b8154815290600101906020018083116112d857829003601f168201915b505050918352505060088201805460408051602060026001851615610100026000190190941693909304601f81018490048402820184019092528181529382019392918301828280156113895780601f1061135e57610100808354040283529160200191611389565b820191906000526020600020905b81548152906001019060200180831161136c57829003601f168201915b505050918352505060098201805460408051602060026001851615610100026000190190941693909304601f810184900484028201840190925281815293820193929183018282801561141d5780601f106113f25761010080835404028352916020019161141d565b820191906000526020600020905b81548152906001019060200180831161140057829003601f168201915b50505050508152602001600a8201805480602002602001604051908101604052809291908181526020016000905b828210156114f65760008481526020908190208301805460408051601f60026000196101006001871615020190941693909304928301859004850281018501909152818152928301828280156114e25780601f106114b7576101008083540402835291602001916114e2565b820191906000526020600020905b8154815290600101906020018083116114c557829003601f168201915b50505050508152602001906001019061144b565b505050508152602001600b8201805480602002602001604051908101604052809291908181526020016000905b8282101561161557838290600052602060002001805480602002602001604051908101604052809291908181526020016000905b828210156116025760008481526020908190208301805460408051601f60026000196101006001871615020190941693909304928301859004850281018501909152818152928301828280156115ee5780601f106115c3576101008083540402835291602001916115ee565b820191906000526020600020905b8154815290600101906020018083116115d157829003601f168201915b505050505081526020019060010190611557565b5050505081526020019060010190611523565b505050915250909392505050565b6000546060906001600160a01b031633146116505760405162461bcd60e51b815260040161030f9061305b565b600580548060200260200160405190810160405280929190818152602001828054801561169c57602002820191906000526020600020905b815481526020019060010190808311611688575b5050505050905090565b600082815260016020526040902054829060ff166116d65760405162461bcd60e51b815260040161030f9061301b565b6000828152600160208181526040808420805460ff199081169094179055868452808420805490931690925584835260038152818320839055858352600290528082208483529120815461172a9290611fd9565b50600083815260026020526040812061174291612018565b60005b60008381526002602052604090205481101561037357826003600060026000878152602001908152602001600020848154811061177e57fe5b60009182526020808320909101548352820192909252604001902055600101611745565b6000546001600160a01b031633146117cc5760405162461bcd60e51b815260040161030f9061305b565b806117d681611a3a565b156117f35760405162461bcd60e51b815260040161030f9061309b565b60065460ff610100820481169116111561181f5760405162461bcd60e51b815260040161030f906130ab565b60005b60065460ff610100909104811690821610156118aa5760ff8116600090815260076020526040902054600260001961010060018416150201909116046118a25760ff81166000908152600760209081526040909120845161188592860190611ce7565b50506006805460ff8082166001011660ff199091161790556118ac565b600101611822565b505b5050565b6000546001600160a01b031681565b60008181526001602052604081205460ff1680610b2d575050600090815260036020526040902054151590565b600082815260016020526040902054829060ff1661191c5760405162461bcd60e51b815260040161030f9061301b565b600082815260036020526040902054156119485760405162461bcd60e51b815260040161030f9061300b565b506000828152600260209081526040808320805460018101825590845282842001849055928252600390522055565b6000546001600160a01b031633146119a15760405162461bcd60e51b815260040161030f9061305b565b60006119ac82611b7a565b905060008112156119cf5760405162461bcd60e51b815260040161030f9061303b565b600581815481106119dc57fe5b600091825260208220015560058054906119fa906000198301611e78565b506000828152600460205260409081902090517fcfb420e6e825355362483fbe9ffa1ccb2e0686c46057781725aff63aeb58d56d9161055b9185906130ec565b600654600090610100900460ff16611a5183611a5b565b60ff161092915050565b600080611a6783611cb7565b905060005b60065460ff61010090910481169082161015611b705760ff81166000908152600760205260409020546002600019610100600184161502019091160415801590611b5a575060ff81166000908152600760209081526040918290208054835160026001831615610100026000190190921691909104601f81018490048402820184019094528381528593611b5893919291830182828015611b4e5780601f10611b2357610100808354040283529160200191611b4e565b820191906000526020600020905b815481529060010190602001808311611b3157829003601f168201915b5050505050611cb7565b145b15611b685791506109939050565b600101611a6c565b5060ff9392505050565b6000805b600554811015611bb6578260058281548110611b9657fe5b90600052602060002001541415611bae579050610993565b600101611b7e565b5060001992915050565b600060ff611bce8484611bd6565b109392505050565b6000805b600884604051611bea9190612fb3565b9081526040519081900360200190205460ff82161015611b7057611c0d83611cb7565b611c9f600886604051611c209190612fb3565b90815260200160405180910390208360ff1681548110611c3c57fe5b600091825260209182902001805460408051601f6002600019610100600187161502019094169390930492830185900485028101850190915281815292830182828015611b4e5780601f10611b2357610100808354040283529160200191611b4e565b1415611caf5760ff169050610b2d565b600101611bda565b600081604051602001611cca9190612fb3565b604051602081830303815290604052805190602001209050919050565b828054600181600116156101000203166002900490600052602060002090601f016020900481019282601f10611d2857805160ff1916838001178555611d55565b82800160010185558215611d55579182015b82811115611d55578251825591602001919060010190611d3a565b50611d61929150612032565b5090565b8260028101928215611da5579160200282015b82811115611da55782518051611d95918491602090910190611ce7565b5091602001919060010190611d78565b50611d6192915061204c565b828054828255906000526020600020908101928215611da5579160200282015b82811115611da55782518051611dee918491602090910190611ce7565b5091602001919060010190611dd1565b828054828255906000526020600020908101928215611e4b579160200282015b82811115611e4b5782518051611e3b918491602090910190611db1565b5091602001919060010190611e1e565b50611d6192915061206f565b5080546000825590600052602060002090810190611e75919061204c565b50565b8154818355818111156118aa576000838152602090206118aa918101908301612032565b828054600181600116156101000203166002900490600052602060002090601f016020900481019282601f10611ed55780548555611d55565b82800160010185558215611d5557600052602060002091601f016020900482015b82811115611d55578254825591600101919060010190611ef6565b50805460018160011615610100020316600290046000825580601f10611f375750611e75565b601f016020900490600052602060002090810190611e759190612032565b8154818355818111156118aa576000838152602090206118aa91810190830161204c565b60405180610160016040528060608152602001606081526020016060815260200160608152602001611fa9612092565b81526020016060815260200160608152602001606081526020016060815260200160608152602001606081525090565b828054828255906000526020600020908101928215611d5557600052602060002091820182811115611d55578254825591600101919060010190611ef6565b5080546000825590600052602060002090810190611e7591905b610e9691905b80821115611d615760008155600101612038565b610e9691905b80821115611d615760006120668282611f11565b50600101612052565b610e9691905b80821115611d615760006120898282611e57565b50600101612075565b60405180604001604052806002905b60608152602001906001900390816120a15790505090565b8035610b2d81613214565b600082601f8301126120d557600080fd5b81356120e86120e382613123565b6130fd565b81815260209384019390925082018360005b8381101561212657813586016121108882612182565b84525060209283019291909101906001016120fa565b5050505092915050565b600082601f83011261214157600080fd5b600261214f6120e382613143565b9150818360005b83811015612126578135860161216c88826121f5565b8452506020928301929190910190600101612156565b600082601f83011261219357600080fd5b81356121a16120e382613123565b81815260209384019390925082018360005b8381101561212657813586016121c988826121f5565b84525060209283019291909101906001016121b3565b8035610b2d81613228565b8051610b2d81613228565b600082601f83011261220657600080fd5b81356122146120e382613160565b9150808252602083016020830185838301111561223057600080fd5b61223b8382846131d2565b50505092915050565b6000610160828403121561225757600080fd5b6122626101606130fd565b905081356001600160401b0381111561227a57600080fd5b612286848285016121f5565b82525060208201356001600160401b038111156122a257600080fd5b6122ae848285016121f5565b60208301525060408201356001600160401b038111156122cd57600080fd5b6122d9848285016121f5565b60408301525060608201356001600160401b038111156122f857600080fd5b612304848285016121f5565b60608301525060808201356001600160401b0381111561232357600080fd5b61232f84828501612130565b60808301525060a08201356001600160401b0381111561234e57600080fd5b61235a848285016121f5565b60a08301525060c08201356001600160401b0381111561237957600080fd5b612385848285016121f5565b60c08301525060e08201356001600160401b038111156123a457600080fd5b6123b0848285016121f5565b60e0830152506101008201356001600160401b038111156123d057600080fd5b6123dc848285016121f5565b610100830152506101208201356001600160401b038111156123fd57600080fd5b61240984828501612182565b610120830152506101408201356001600160401b0381111561242a57600080fd5b612436848285016120c4565b6101408301525092915050565b60006020828403121561245557600080fd5b600061246184846120b9565b949350505050565b60006020828403121561247b57600080fd5b600061246184846121df565b60006020828403121561249957600080fd5b600061246184846121ea565b600080604083850312156124b857600080fd5b60006124c485856121df565b92505060206124d5858286016121df565b9150509250929050565b6000602082840312156124f157600080fd5b81356001600160401b0381111561250757600080fd5b612461848285016121f5565b6000806040838503121561252657600080fd5b82356001600160401b0381111561253c57600080fd5b612548858286016121f5565b92505060208301356001600160401b0381111561256457600080fd5b6124d5858286016121f5565b60008060006060848603121561258557600080fd5b83356001600160401b0381111561259b57600080fd5b6125a7868287016121f5565b93505060208401356001600160401b038111156125c357600080fd5b6125cf868287016121f5565b92505060408401356001600160401b038111156125eb57600080fd5b6125f7868287016121f5565b9150509250925092565b6000806040838503121561261457600080fd5b82356001600160401b0381111561262a57600080fd5b6124c485828601612244565b60006126428383612879565b9392505050565b6000612642838361293a565b600061266183836129a3565b505060200190565b600061264283836129db565b60006126428383612a13565b61268a816131b6565b82525050565b600061269b82613199565b6126a581856131ad565b9350836020820285016126b785613187565b8060005b858110156126f157848403895281516126d48582612636565b94506126df83613187565b60209a909a01999250506001016126bb565b5091979650505050505050565b60006127098261319d565b61271381856131ad565b9350836020820285016127258561318d565b8060005b858110156126f1578484038952816127418582612649565b945061274c836131a7565b60209a909a0199925050600101612729565b600061276982613199565b61277381856131ad565b935061277e83613187565b8060005b838110156127ac5781516127968882612655565b97506127a183613187565b925050600101612782565b509495945050505050565b60006127c2826131a1565b6127cc8185610993565b9350836020820285016127de85610e96565b8060005b858110156126f157848403895281516127fb8582612669565b945061280683613187565b60209a909a01999250506001016127e2565b600061282382613199565b61282d81856131ad565b93508360208202850161283f85613187565b8060005b858110156126f1578484038952815161285c8582612669565b945061286783613187565b60209a909a0199925050600101612843565b600061288482613199565b61288e81856131ad565b9350836020820285016128a085613187565b8060005b858110156126f157848403895281516128bd8582612669565b94506128c883613187565b60209a909a01999250506001016128a4565b60006128e5826131a1565b6128ef8185610993565b93508360208202850161290185610e96565b8060005b858110156126f15784840389528161291d8582612675565b9450612928836131a7565b60209a909a0199925050600101612905565b60006129458261319d565b61294f81856131ad565b9350836020820285016129618561318d565b8060005b858110156126f15784840389528161297d8582612675565b9450612988836131a7565b60209a909a0199925050600101612965565b61268a816131c1565b61268a81610e96565b60006129b782613199565b6129c18185610993565b93506129d18185602086016131de565b9290920192915050565b60006129e682613199565b6129f081856131ad565b9350612a008185602086016131de565b612a098161320a565b9093019392505050565b600081546001811660008114612a305760018114612a5657612a95565b607f6002830416612a4181876131ad565b60ff1984168152955050602085019250612a95565b60028204612a6481876131ad565b9550612a6f8561318d565b60005b82811015612a8e57815488820152600190910190602001612a72565b8701945050505b505092915050565b6000612aaa6021836131ad565b7f5468617420656d706c6f79656520616c726561647920776f726b7320746865728152606560f81b602082015260400192915050565b6000612aed6029836131ad565b7f596f75206d7573742062652061206465616c657273686970206f776e657220748152686f20646f207468697360b81b602082015260400192915050565b6000612b38601e836131ad565b7f54686174207375627365727669636520616c7265616479206578697374730000815260200192915050565b6000612b716021836131ad565b7f4e6f206170706c69636174696f6e2065786973747320666f72207468617420698152601960fa1b602082015260400192915050565b6000612bb46021836131ad565b7f4d6178696d756d207375627365727669636520616d6f756e74207265616368658152601960fa1b602082015260400192915050565b6000612bf76015836131ad565b742cb7ba9030b932903737ba103a34329037bbb732b960591b815260200192915050565b6000612c28602c836131ad565b7f54686174207375627365727669636520646f65736e7420657869737420696e2081526b1d1a1a5cc818dbdb9d195e1d60a21b602082015260400192915050565b6000612c76601b836131ad565b7f54686174207365727669636520646f6573206e6f742065786973740000000000815260200192915050565b6000612caf6022836131ad565b7f54686174206164647265737320697320616c7265616479207265676973746572815261195960f21b602082015260400192915050565b6000612cf3601b836131ad565b7f54686174207365727669636520616c7265616479206578697374730000000000815260200192915050565b6000612d2c6028836131ad565b7f54686572652061726520746865206d6178696d756d206e756d626572206f6620815267736572766963657360c01b602082015260400192915050565b805161016080845260009190840190612d8282826129db565b91505060208301518482036020860152612d9c82826129db565b91505060408301518482036040860152612db682826129db565b91505060608301518482036060860152612dd082826129db565b91505060808301518482036080860152612dea82826127b7565b91505060a083015184820360a0860152612e0482826129db565b91505060c083015184820360c0860152612e1e82826129db565b91505060e083015184820360e0860152612e3882826129db565b915050610100830151848203610100860152612e5482826129db565b915050610120830151848203610120860152612e708282612879565b915050610140830151848203610140860152612e8c8282612690565b95945050505050565b61016080835260009083018183612eac8382612a13565b925050600184018583036020870152612ec58382612a13565b925050600284018583036040870152612ede8382612a13565b925050600384018583036060870152612ef78382612a13565b925050600484018583036080870152612f1083826128da565b9250506006840185830360a0870152612f298382612a13565b9250506007840185830360c0870152612f428382612a13565b9250506008840185830360e0870152612f5b8382612a13565b92505060098401858303610100870152612f758382612a13565b925050600a8401858303610120870152612f8f838261293a565b925050600b8401858303610140870152612fa983826126fe565b9695505050505050565b600061264282846129ac565b60208101610b2d8284612681565b60208082528101612642818461275e565b602080825281016126428184612818565b60208101610b2d828461299a565b60208101610b2d82846129a3565b60208082528101610b2d81612a9d565b60208082528101610b2d81612ae0565b60208082528101610b2d81612b2b565b60208082528101610b2d81612b64565b60208082528101610b2d81612ba7565b60208082528101610b2d81612bea565b60208082528101610b2d81612c1b565b60208082528101610b2d81612c69565b60208082528101610b2d81612ca2565b60208082528101610b2d81612ce6565b60208082528101610b2d81612d1f565b602080825281016126428184612d69565b604080825281016130dd8185612d69565b905061264260208301846129a3565b604080825281016130dd8185612e95565b6040518181016001600160401b038111828210171561311b57600080fd5b604052919050565b60006001600160401b0382111561313957600080fd5b5060209081020190565b60006001600160401b0382111561315957600080fd5b5060200290565b60006001600160401b0382111561317657600080fd5b506020601f91909101601f19160190565b60200190565b60009081526020902090565b5190565b5490565b50600290565b60010190565b90815260200190565b6000610b2d826131c6565b151590565b6001600160a01b031690565b82818337506000910152565b60005b838110156131f95781810151838201526020016131e1565b838111156103735750506000910152565b601f01601f191690565b61321d816131b6565b8114611e7557600080fd5b61321d81610e9656fea365627a7a7231582081905150d7b762b9ff040e9d9c2e60b46bfaa95fca43748918dfc1c50f5e5aeb6c6578706572696d656e74616cf564736f6c634300050c0040",
  "source": "pragma solidity ^0.5.11;\npragma experimental ABIEncoderV2;\n\nimport \"./DealerContract.sol\";\n\ncontract ServiceHandler is DealerContract {\n\n    function encode(string memory str) internal pure returns (bytes32) {\n        return keccak256(abi.encodePacked(str));\n    }\n\n    uint8 noOfServices;\n    uint8 totalNoServices = 254;\n\n    modifier serviceExists(string memory serviceName){\n        require(containsService(serviceName),\"That service does not exist\");\n        _;\n    }\n\n    modifier serviceNotExists(string memory serviceName){\n        require(!containsService(serviceName),\"That service already exists\");\n        _;\n    }\n\n    modifier servicesNotFull{\n        require(noOfServices <= totalNoServices,\"There are the maximum number of services\");\n        _;\n    }\n\n    mapping(uint8 => string) private services;\n\n    function getIndexOfService(string memory serviceName) internal view returns (uint8) {\n        bytes32 service = encode(serviceName);\n        for(uint8 i = 0; i < totalNoServices; i++){\n            if(bytes(services[i]).length > 0 && encode(services[i]) == service){\n                return i;\n            }\n        }\n        return 255;\n    }\n\n    function containsService(string memory serviceName) internal view returns (bool){\n        return getIndexOfService(serviceName) < totalNoServices;\n    }\n\n    function addService(string memory serviceName) public ownerOnly serviceNotExists(serviceName) servicesNotFull {\n        //Returns true if service was successfully added\n        //False if service already exists\n        for(uint8 i = 0; i < totalNoServices; i++){\n            if(bytes(services[i]).length <= 0){\n                services[i] = serviceName;\n                noOfServices++;\n                return;\n            }\n        }\n    }\n\n    function editServiceName(string memory oldName, string memory newName) public ownerOnly serviceExists(oldName) {\n        services[getIndexOfService(oldName)] = newName;\n    }\n\n    function deleteService(string memory serviceName) public ownerOnly serviceExists(serviceName) {\n        uint8 serviceIndex = getIndexOfService(serviceName);\n        services[serviceIndex] = \"\";\n        delete subServices[serviceName];\n        noOfServices--;\n    }\n\n    function getServices() public view returns (string[] memory) {\n        string[] memory existingServices = new string[](noOfServices);\n        uint8 serviceIndex = 0;\n        for(uint8 i = 0; i < totalNoServices; i++){\n            if(bytes(services[i]).length > 0){\n                existingServices[serviceIndex++] = services[i];\n            }\n        }\n        return existingServices;\n    }\n\n    //-----------------------------_Subservices_----------------------------\n\n    mapping(string => string[]) private subServices;\n\n    modifier subServiceExists(string memory serviceName, string memory subServiceName){\n        require(containsSubService(serviceName,subServiceName),\"That subservice doesnt exist in this context\");\n        _;\n    }\n    modifier subServiceNotExists(string memory serviceName, string memory subServiceName){\n        require(!containsSubService(serviceName,subServiceName),\"That subservice already exists\");\n        _;\n    }\n\n    modifier subservicesNotFull(string memory serviceName){\n        require(subServices[serviceName].length < 255,\"Maximum subservice amount reached\");\n        _;\n    }\n\n    function getIndexOfSubService(string memory serviceName, string memory subServiceName) internal view returns (uint) {\n        for(uint8 i = 0; i < subServices[serviceName].length; i++){\n            if(encode(subServices[serviceName][i]) == encode(subServiceName)){\n                return i;\n            }\n        }\n        return 255;\n    }\n\n    function containsSubService(string memory serviceName, string memory subServiceName) internal view returns (bool) {\n        return getIndexOfSubService(serviceName,subServiceName) < 255;\n    }\n\n    function addSubService(string memory serviceName, string memory subServiceName)\n     public subservicesNotFull(serviceName) subServiceNotExists(serviceName,subServiceName) ownerOnly {\n        //Returns true if service does not already exist\n        subServices[serviceName].push(subServiceName);\n    }\n\n    function editSubServiceName(string memory serviceName, string memory oldName, string memory newName)\n     public subServiceExists(serviceName,oldName) ownerOnly {\n        subServices[serviceName][getIndexOfSubService(serviceName,oldName)] = newName;\n    }\n\n    function deleteSubService(string memory serviceName, string memory subServiceName)\n     public ownerOnly subServiceExists(serviceName,subServiceName) {\n        uint index = getIndexOfSubService(serviceName,subServiceName);\n        uint lastIndex = subServices[serviceName].length - 1;\n        subServices[serviceName][index] = subServices[serviceName][lastIndex];\n        delete subServices[serviceName][lastIndex];\n        subServices[serviceName].length--;\n    }\n\n    function getSubServices(string memory serviceName) public view returns (string[] memory) {\n        return subServices[serviceName];\n    }\n}\n",
  "sourcePath": "/Users/natwit/repos/blockchain-project-2019/contracts/ServiceHandler.sol",
  "compiler": {
    "name": "solc",
    "version": "0.5.12+commit.7709ece9.Emscripten.clang"
  },
  "schemaVersion": "3.0.19",
  "updatedAt": "2019-12-04T17:19:03.893Z",
  "networkType": "ethereum",
  "devdoc": {
    "methods": {}
  },
  "userdoc": {
    "methods": {}
  }
}