{
  "contractName": "ServiceHandler",
  "abi": [
    {
      "constant": false,
      "inputs": [
        {
          "internalType": "bytes32",
          "name": "dealerId",
          "type": "bytes32"
        },
        {
          "internalType": "bytes32",
          "name": "adr",
          "type": "bytes32"
        }
      ],
      "name": "addDealerEmployee",
      "outputs": [],
      "payable": false,
      "stateMutability": "nonpayable",
      "type": "function"
    },
    {
      "constant": false,
      "inputs": [
        {
          "internalType": "bytes32",
          "name": "adr",
          "type": "bytes32"
        }
      ],
      "name": "approveApplication",
      "outputs": [],
      "payable": false,
      "stateMutability": "nonpayable",
      "type": "function"
    },
    {
      "constant": false,
      "inputs": [
        {
          "components": [
            {
              "internalType": "string",
              "name": "dealerName",
              "type": "string"
            },
            {
              "internalType": "string",
              "name": "firstName",
              "type": "string"
            },
            {
              "internalType": "string",
              "name": "lastName",
              "type": "string"
            },
            {
              "internalType": "string",
              "name": "addr",
              "type": "string"
            },
            {
              "internalType": "string",
              "name": "location",
              "type": "string"
            },
            {
              "internalType": "string",
              "name": "phoneNo",
              "type": "string"
            },
            {
              "internalType": "string",
              "name": "bestSeller",
              "type": "string"
            },
            {
              "internalType": "string",
              "name": "promotion",
              "type": "string"
            },
            {
              "internalType": "string",
              "name": "otherServices",
              "type": "string"
            },
            {
              "internalType": "string[]",
              "name": "availableServices",
              "type": "string[]"
            },
            {
              "internalType": "string[][]",
              "name": "availableSubServices",
              "type": "string[][]"
            }
          ],
          "internalType": "struct DealerContract.DealerInfo",
          "name": "info",
          "type": "tuple"
        },
        {
          "internalType": "bytes32",
          "name": "id",
          "type": "bytes32"
        }
      ],
      "name": "createDealerApplication",
      "outputs": [],
      "payable": false,
      "stateMutability": "nonpayable",
      "type": "function"
    },
    {
      "constant": false,
      "inputs": [
        {
          "components": [
            {
              "internalType": "string",
              "name": "dealerName",
              "type": "string"
            },
            {
              "internalType": "string",
              "name": "firstName",
              "type": "string"
            },
            {
              "internalType": "string",
              "name": "lastName",
              "type": "string"
            },
            {
              "internalType": "string",
              "name": "addr",
              "type": "string"
            },
            {
              "internalType": "string",
              "name": "location",
              "type": "string"
            },
            {
              "internalType": "string",
              "name": "phoneNo",
              "type": "string"
            },
            {
              "internalType": "string",
              "name": "bestSeller",
              "type": "string"
            },
            {
              "internalType": "string",
              "name": "promotion",
              "type": "string"
            },
            {
              "internalType": "string",
              "name": "otherServices",
              "type": "string"
            },
            {
              "internalType": "string[]",
              "name": "availableServices",
              "type": "string[]"
            },
            {
              "internalType": "string[][]",
              "name": "availableSubServices",
              "type": "string[][]"
            }
          ],
          "internalType": "struct DealerContract.DealerInfo",
          "name": "info",
          "type": "tuple"
        },
        {
          "internalType": "bytes32",
          "name": "id",
          "type": "bytes32"
        }
      ],
      "name": "editDealerInfo",
      "outputs": [],
      "payable": false,
      "stateMutability": "nonpayable",
      "type": "function"
    },
    {
      "constant": true,
      "inputs": [],
      "name": "getAllDealerApplications",
      "outputs": [
        {
          "internalType": "bytes32[]",
          "name": "",
          "type": "bytes32[]"
        }
      ],
      "payable": false,
      "stateMutability": "view",
      "type": "function"
    },
    {
      "constant": true,
      "inputs": [
        {
          "internalType": "bytes32",
          "name": "id",
          "type": "bytes32"
        }
      ],
      "name": "getDealerInfo",
      "outputs": [
        {
          "components": [
            {
              "internalType": "string",
              "name": "dealerName",
              "type": "string"
            },
            {
              "internalType": "string",
              "name": "firstName",
              "type": "string"
            },
            {
              "internalType": "string",
              "name": "lastName",
              "type": "string"
            },
            {
              "internalType": "string",
              "name": "addr",
              "type": "string"
            },
            {
              "internalType": "string",
              "name": "location",
              "type": "string"
            },
            {
              "internalType": "string",
              "name": "phoneNo",
              "type": "string"
            },
            {
              "internalType": "string",
              "name": "bestSeller",
              "type": "string"
            },
            {
              "internalType": "string",
              "name": "promotion",
              "type": "string"
            },
            {
              "internalType": "string",
              "name": "otherServices",
              "type": "string"
            },
            {
              "internalType": "string[]",
              "name": "availableServices",
              "type": "string[]"
            },
            {
              "internalType": "string[][]",
              "name": "availableSubServices",
              "type": "string[][]"
            }
          ],
          "internalType": "struct DealerContract.DealerInfo",
          "name": "",
          "type": "tuple"
        }
      ],
      "payable": false,
      "stateMutability": "view",
      "type": "function"
    },
    {
      "constant": true,
      "inputs": [
        {
          "internalType": "string",
          "name": "id",
          "type": "string"
        }
      ],
      "name": "getHash",
      "outputs": [
        {
          "internalType": "bytes32",
          "name": "",
          "type": "bytes32"
        }
      ],
      "payable": false,
      "stateMutability": "pure",
      "type": "function"
    },
    {
      "constant": true,
      "inputs": [
        {
          "internalType": "bytes32",
          "name": "adr",
          "type": "bytes32"
        }
      ],
      "name": "isVerified",
      "outputs": [
        {
          "internalType": "bool",
          "name": "",
          "type": "bool"
        }
      ],
      "payable": false,
      "stateMutability": "view",
      "type": "function"
    },
    {
      "constant": false,
      "inputs": [
        {
          "internalType": "bytes32",
          "name": "dealershipId",
          "type": "bytes32"
        },
        {
          "internalType": "bytes32",
          "name": "otherId",
          "type": "bytes32"
        }
      ],
      "name": "transferDealershipOwner",
      "outputs": [],
      "payable": false,
      "stateMutability": "nonpayable",
      "type": "function"
    },
    {
      "constant": false,
      "inputs": [
        {
          "internalType": "address",
          "name": "newOwner",
          "type": "address"
        }
      ],
      "name": "transferOwner",
      "outputs": [],
      "payable": false,
      "stateMutability": "nonpayable",
      "type": "function"
    },
    {
      "constant": false,
      "inputs": [
        {
          "internalType": "string",
          "name": "serviceName",
          "type": "string"
        }
      ],
      "name": "addService",
      "outputs": [],
      "payable": false,
      "stateMutability": "nonpayable",
      "type": "function"
    },
    {
      "constant": false,
      "inputs": [
        {
          "internalType": "string",
          "name": "oldName",
          "type": "string"
        },
        {
          "internalType": "string",
          "name": "newName",
          "type": "string"
        }
      ],
      "name": "editServiceName",
      "outputs": [],
      "payable": false,
      "stateMutability": "nonpayable",
      "type": "function"
    },
    {
      "constant": false,
      "inputs": [
        {
          "internalType": "string",
          "name": "serviceName",
          "type": "string"
        }
      ],
      "name": "deleteService",
      "outputs": [],
      "payable": false,
      "stateMutability": "nonpayable",
      "type": "function"
    },
    {
      "constant": true,
      "inputs": [],
      "name": "getServices",
      "outputs": [
        {
          "internalType": "string[]",
          "name": "",
          "type": "string[]"
        }
      ],
      "payable": false,
      "stateMutability": "view",
      "type": "function"
    },
    {
      "constant": false,
      "inputs": [
        {
          "internalType": "string",
          "name": "serviceName",
          "type": "string"
        },
        {
          "internalType": "string",
          "name": "subServiceName",
          "type": "string"
        }
      ],
      "name": "addSubService",
      "outputs": [],
      "payable": false,
      "stateMutability": "nonpayable",
      "type": "function"
    },
    {
      "constant": false,
      "inputs": [
        {
          "internalType": "string",
          "name": "serviceName",
          "type": "string"
        },
        {
          "internalType": "string",
          "name": "oldName",
          "type": "string"
        },
        {
          "internalType": "string",
          "name": "newName",
          "type": "string"
        }
      ],
      "name": "editSubServiceName",
      "outputs": [],
      "payable": false,
      "stateMutability": "nonpayable",
      "type": "function"
    },
    {
      "constant": false,
      "inputs": [
        {
          "internalType": "string",
          "name": "serviceName",
          "type": "string"
        },
        {
          "internalType": "string",
          "name": "subServiceName",
          "type": "string"
        }
      ],
      "name": "deleteSubService",
      "outputs": [],
      "payable": false,
      "stateMutability": "nonpayable",
      "type": "function"
    },
    {
      "constant": true,
      "inputs": [
        {
          "internalType": "string",
          "name": "serviceName",
          "type": "string"
        }
      ],
      "name": "getSubServices",
      "outputs": [
        {
          "internalType": "string[]",
          "name": "",
          "type": "string[]"
        }
      ],
      "payable": false,
      "stateMutability": "view",
      "type": "function"
    }
  ],
  "bytecode": "0x608060405260fe600660016101000a81548160ff021916908360ff160217905550336000806101000a81548173ffffffffffffffffffffffffffffffffffffffff021916908373ffffffffffffffffffffffffffffffffffffffff160217905550613ab18061006f6000396000f3fe608060405234801561001057600080fd5b50600436106101165760003560e01c80635b6beeb9116100a25780637e41667f116100715780637e41667f146102c557806382d7afbd146102e357806388fcd194146102ff578063c181b2731461031b578063e445268c1461034b57610116565b80635b6beeb91461022b5780636fd7d2b51461025b57806375417851146102775780637d17f13c1461029557610116565b80632d4afc7b116100e95780632d4afc7b1461018b578063369bfce4146101a7578063431a65fc146101c35780634fb2e45d146101f357806350fb95e31461020f57610116565b8063076810381461011b5780630eb7bc8f146101375780631a4c85be146101535780631b8f47fe1461016f575b600080fd5b61013560048036036101309190810190612d51565b610367565b005b610151600480360361014c9190810190612c4e565b610551565b005b61016d60048036036101689190810190612c0d565b610664565b005b61018960048036036101849190810190612b7f565b6107b8565b005b6101a560048036036101a09190810190612d51565b6108e2565b005b6101c160048036036101bc9190810190612c4e565b610aa1565b005b6101dd60048036036101d89190810190612c0d565b610bc9565b6040516101ea91906135b9565b60405180910390f35b61020d60048036036102089190810190612b56565b610cd0565b005b61022960048036036102249190810190612c4e565b610da2565b005b61024560048036036102409190810190612c0d565b610f44565b60405161025291906135f6565b60405180910390f35b61027560048036036102709190810190612cba565b610fbc565b005b61027f6110ee565b60405161028c91906135b9565b60405180910390f35b6102af60048036036102aa9190810190612b7f565b611281565b6040516102bc9190613771565b60405180910390f35b6102cd611a7a565b6040516102da9190613597565b60405180910390f35b6102fd60048036036102f89190810190612bd1565b611b61565b005b61031960048036036103149190810190612c0d565b611cff565b005b61033560048036036103309190810190612b7f565b611f10565b60405161034291906135db565b60405180910390f35b61036560048036036103609190810190612bd1565b611f5b565b005b6001600082815260200190815260200160002060009054906101000a900460ff16156103c8576040517f08c379a00000000000000000000000000000000000000000000000000000000081526004016103bf90613711565b60405180910390fd5b816004600083815260200190815260200160002060008201518160000190805190602001906103f89291906123df565b5060208201518160010190805190602001906104159291906123df565b5060408201518160020190805190602001906104329291906123df565b50606082015181600301908051906020019061044f9291906123df565b50608082015181600401908051906020019061046c9291906123df565b5060a08201518160050190805190602001906104899291906123df565b5060c08201518160060190805190602001906104a69291906123df565b5060e08201518160070190805190602001906104c39291906123df565b506101008201518160080190805190602001906104e19291906123df565b506101208201518160090190805190602001906104ff92919061245f565b5061014082015181600a01908051906020019061051d9291906124bf565b5090505060058190806001815401808255809150509060018203906000526020600020016000909192909190915055505050565b6000809054906101000a900473ffffffffffffffffffffffffffffffffffffffff1673ffffffffffffffffffffffffffffffffffffffff163373ffffffffffffffffffffffffffffffffffffffff16146105e0576040517f08c379a00000000000000000000000000000000000000000000000000000000081526004016105d7906136b1565b60405180910390fd5b816105ea8161206e565b610629576040517f08c379a0000000000000000000000000000000000000000000000000000000008152600401610620906136f1565b60405180910390fd5b816007600061063786612097565b60ff1660ff168152602001908152602001600020908051906020019061065e92919061251f565b50505050565b6000809054906101000a900473ffffffffffffffffffffffffffffffffffffffff1673ffffffffffffffffffffffffffffffffffffffff163373ffffffffffffffffffffffffffffffffffffffff16146106f3576040517f08c379a00000000000000000000000000000000000000000000000000000000081526004016106ea906136b1565b60405180910390fd5b806106fd8161206e565b61073c576040517f08c379a0000000000000000000000000000000000000000000000000000000008152600401610733906136f1565b60405180910390fd5b604051806020016040528060008152506007600061075985612097565b60ff1660ff168152602001908152602001600020908051906020019061078092919061251f565b506006600081819054906101000a900460ff16809291906001900391906101000a81548160ff021916908360ff160217905550505050565b6000809054906101000a900473ffffffffffffffffffffffffffffffffffffffff1673ffffffffffffffffffffffffffffffffffffffff163373ffffffffffffffffffffffffffffffffffffffff1614610847576040517f08c379a000000000000000000000000000000000000000000000000000000000815260040161083e906136b1565b60405180910390fd5b6000610852826121e5565b90506000811215610898576040517f08c379a000000000000000000000000000000000000000000000000000000000815260040161088f90613671565b60405180910390fd5b600180600084815260200190815260200160002060006101000a81548160ff021916908315150217905550600581815481106108d057fe5b90600052602060002001600090555050565b806001600082815260200190815260200160002060009054906101000a900460ff16610943576040517f08c379a000000000000000000000000000000000000000000000000000000000815260040161093a90613631565b60405180910390fd5b826004600084815260200190815260200160002060008201518160000190805190602001906109739291906123df565b5060208201518160010190805190602001906109909291906123df565b5060408201518160020190805190602001906109ad9291906123df565b5060608201518160030190805190602001906109ca9291906123df565b5060808201518160040190805190602001906109e79291906123df565b5060a0820151816005019080519060200190610a049291906123df565b5060c0820151816006019080519060200190610a219291906123df565b5060e0820151816007019080519060200190610a3e9291906123df565b50610100820151816008019080519060200190610a5c9291906123df565b50610120820151816009019080519060200190610a7a92919061245f565b5061014082015181600a019080519060200190610a989291906124bf565b50905050505050565b6000809054906101000a900473ffffffffffffffffffffffffffffffffffffffff1673ffffffffffffffffffffffffffffffffffffffff163373ffffffffffffffffffffffffffffffffffffffff1614610b30576040517f08c379a0000000000000000000000000000000000000000000000000000000008152600401610b27906136b1565b60405180910390fd5b8181610b3c8282612259565b610b7b576040517f08c379a0000000000000000000000000000000000000000000000000000000008152600401610b72906136d1565b60405180910390fd5b600884604051610b8b9190613580565b9081526020016040518091039020610ba38585612270565b81548110610bad57fe5b906000526020600020016000610bc3919061259f565b50505050565b6060600882604051610bdb9190613580565b9081526020016040518091039020805480602002602001604051908101604052809291908181526020016000905b82821015610cc5578382906000526020600020018054600181600116156101000203166002900480601f016020809104026020016040519081016040528092919081815260200182805460018160011615610100020316600290048015610cb15780601f10610c8657610100808354040283529160200191610cb1565b820191906000526020600020905b815481529060010190602001808311610c9457829003601f168201915b505050505081526020019060010190610c09565b505050509050919050565b6000809054906101000a900473ffffffffffffffffffffffffffffffffffffffff1673ffffffffffffffffffffffffffffffffffffffff163373ffffffffffffffffffffffffffffffffffffffff1614610d5f576040517f08c379a0000000000000000000000000000000000000000000000000000000008152600401610d56906136b1565b60405180910390fd5b806000806101000a81548173ffffffffffffffffffffffffffffffffffffffff021916908373ffffffffffffffffffffffffffffffffffffffff16021790555050565b8160ff600882604051610db59190613580565b90815260200160405180910390208054905010610e07576040517f08c379a0000000000000000000000000000000000000000000000000000000008152600401610dfe90613691565b60405180910390fd5b8282610e138282612259565b15610e53576040517f08c379a0000000000000000000000000000000000000000000000000000000008152600401610e4a90613651565b60405180910390fd5b6000809054906101000a900473ffffffffffffffffffffffffffffffffffffffff1673ffffffffffffffffffffffffffffffffffffffff163373ffffffffffffffffffffffffffffffffffffffff1614610ee2576040517f08c379a0000000000000000000000000000000000000000000000000000000008152600401610ed9906136b1565b60405180910390fd5b600885604051610ef29190613580565b9081526020016040518091039020849080600181540180825580915050906001820390600052602060002001600090919290919091509080519060200190610f3b92919061251f565b50505050505050565b6000600282604051602001610f599190613580565b604051602081830303815290604052604051610f759190613569565b602060405180830381855afa158015610f92573d6000803e3d6000fd5b5050506040513d601f19601f82011682018060405250610fb59190810190612ba8565b9050919050565b8282610fc88282612259565b611007576040517f08c379a0000000000000000000000000000000000000000000000000000000008152600401610ffe906136d1565b60405180910390fd5b6000809054906101000a900473ffffffffffffffffffffffffffffffffffffffff1673ffffffffffffffffffffffffffffffffffffffff163373ffffffffffffffffffffffffffffffffffffffff1614611096576040517f08c379a000000000000000000000000000000000000000000000000000000000815260040161108d906136b1565b60405180910390fd5b826008866040516110a79190613580565b90815260200160405180910390206110bf8787612270565b815481106110c957fe5b9060005260206000200190805190602001906110e692919061251f565b505050505050565b606080600660009054906101000a900460ff1660ff1660405190808252806020026020018201604052801561113757816020015b60608152602001906001900390816111225790505b509050600080905060008090505b600660019054906101000a900460ff1660ff168160ff161015611278576000600760008360ff1660ff168152602001908152602001600020805460018160011615610100020316600290049050111561126b57600760008260ff1660ff1681526020019081526020016000208054600181600116156101000203166002900480601f0160208091040260200160405190810160405280929190818152602001828054600181600116156101000203166002900480156112455780601f1061121a57610100808354040283529160200191611245565b820191906000526020600020905b81548152906001019060200180831161122857829003601f168201915b5050505050838380600101945060ff168151811061125f57fe5b60200260200101819052505b8080600101915050611145565b50819250505090565b6112896125e7565b6004600083815260200190815260200160002060405180610160016040529081600082018054600181600116156101000203166002900480601f0160208091040260200160405190810160405280929190818152602001828054600181600116156101000203166002900480156113415780601f1061131657610100808354040283529160200191611341565b820191906000526020600020905b81548152906001019060200180831161132457829003601f168201915b50505050508152602001600182018054600181600116156101000203166002900480601f0160208091040260200160405190810160405280929190818152602001828054600181600116156101000203166002900480156113e35780601f106113b8576101008083540402835291602001916113e3565b820191906000526020600020905b8154815290600101906020018083116113c657829003601f168201915b50505050508152602001600282018054600181600116156101000203166002900480601f0160208091040260200160405190810160405280929190818152602001828054600181600116156101000203166002900480156114855780601f1061145a57610100808354040283529160200191611485565b820191906000526020600020905b81548152906001019060200180831161146857829003601f168201915b50505050508152602001600382018054600181600116156101000203166002900480601f0160208091040260200160405190810160405280929190818152602001828054600181600116156101000203166002900480156115275780601f106114fc57610100808354040283529160200191611527565b820191906000526020600020905b81548152906001019060200180831161150a57829003601f168201915b50505050508152602001600482018054600181600116156101000203166002900480601f0160208091040260200160405190810160405280929190818152602001828054600181600116156101000203166002900480156115c95780601f1061159e576101008083540402835291602001916115c9565b820191906000526020600020905b8154815290600101906020018083116115ac57829003601f168201915b50505050508152602001600582018054600181600116156101000203166002900480601f01602080910402602001604051908101604052809291908181526020018280546001816001161561010002031660029004801561166b5780601f106116405761010080835404028352916020019161166b565b820191906000526020600020905b81548152906001019060200180831161164e57829003601f168201915b50505050508152602001600682018054600181600116156101000203166002900480601f01602080910402602001604051908101604052809291908181526020018280546001816001161561010002031660029004801561170d5780601f106116e25761010080835404028352916020019161170d565b820191906000526020600020905b8154815290600101906020018083116116f057829003601f168201915b50505050508152602001600782018054600181600116156101000203166002900480601f0160208091040260200160405190810160405280929190818152602001828054600181600116156101000203166002900480156117af5780601f10611784576101008083540402835291602001916117af565b820191906000526020600020905b81548152906001019060200180831161179257829003601f168201915b50505050508152602001600882018054600181600116156101000203166002900480601f0160208091040260200160405190810160405280929190818152602001828054600181600116156101000203166002900480156118515780601f1061182657610100808354040283529160200191611851565b820191906000526020600020905b81548152906001019060200180831161183457829003601f168201915b5050505050815260200160098201805480602002602001604051908101604052809291908181526020016000905b8282101561193b578382906000526020600020018054600181600116156101000203166002900480601f0160208091040260200160405190810160405280929190818152602001828054600181600116156101000203166002900480156119275780601f106118fc57610100808354040283529160200191611927565b820191906000526020600020905b81548152906001019060200180831161190a57829003601f168201915b50505050508152602001906001019061187f565b505050508152602001600a8201805480602002602001604051908101604052809291908181526020016000905b82821015611a6b57838290600052602060002001805480602002602001604051908101604052809291908181526020016000905b82821015611a58578382906000526020600020018054600181600116156101000203166002900480601f016020809104026020016040519081016040528092919081815260200182805460018160011615610100020316600290048015611a445780601f10611a1957610100808354040283529160200191611a44565b820191906000526020600020905b815481529060010190602001808311611a2757829003601f168201915b50505050508152602001906001019061199c565b5050505081526020019060010190611968565b50505050815250509050919050565b60606000809054906101000a900473ffffffffffffffffffffffffffffffffffffffff1673ffffffffffffffffffffffffffffffffffffffff163373ffffffffffffffffffffffffffffffffffffffff1614611b0b576040517f08c379a0000000000000000000000000000000000000000000000000000000008152600401611b02906136b1565b60405180910390fd5b6005805480602002602001604051908101604052809291908181526020018280548015611b5757602002820191906000526020600020905b815481526020019060010190808311611b43575b5050505050905090565b816001600082815260200190815260200160002060009054906101000a900460ff16611bc2576040517f08c379a0000000000000000000000000000000000000000000000000000000008152600401611bb990613631565b60405180910390fd5b600180600084815260200190815260200160002060006101000a81548160ff02191690831515021790555060006001600085815260200190815260200160002060006101000a81548160ff0219169083151502179055506000801b60036000848152602001908152602001600020819055506002600084815260200190815260200160002060026000848152602001908152602001600020908054611c68929190612641565b50600260008481526020019081526020016000206000611c889190612693565b60008090505b6002600084815260200190815260200160002080549050811015611cf9578260036000600260008781526020019081526020016000208481548110611ccf57fe5b90600052602060002001548152602001908152602001600020819055508080600101915050611c8e565b50505050565b6000809054906101000a900473ffffffffffffffffffffffffffffffffffffffff1673ffffffffffffffffffffffffffffffffffffffff163373ffffffffffffffffffffffffffffffffffffffff1614611d8e576040517f08c379a0000000000000000000000000000000000000000000000000000000008152600401611d85906136b1565b60405180910390fd5b80611d988161206e565b15611dd8576040517f08c379a0000000000000000000000000000000000000000000000000000000008152600401611dcf90613731565b60405180910390fd5b600660019054906101000a900460ff1660ff16600660009054906101000a900460ff1660ff161115611e3f576040517f08c379a0000000000000000000000000000000000000000000000000000000008152600401611e3690613751565b60405180910390fd5b60008090505b600660019054906101000a900460ff1660ff168160ff161015611f0a576000600760008360ff1660ff16815260200190815260200160002080546001816001161561010002031660029004905011611efd5782600760008360ff1660ff1681526020019081526020016000209080519060200190611ec492919061251f565b506006600081819054906101000a900460ff168092919060010191906101000a81548160ff021916908360ff1602179055505050611f0c565b8080600101915050611e45565b505b5050565b60006001600083815260200190815260200160002060009054906101000a900460ff1680611f5457506000801b600360008481526020019081526020016000205414155b9050919050565b816001600082815260200190815260200160002060009054906101000a900460ff16611fbc576040517f08c379a0000000000000000000000000000000000000000000000000000000008152600401611fb390613631565b60405180910390fd5b6000801b600360008481526020019081526020016000205414612014576040517f08c379a000000000000000000000000000000000000000000000000000000000815260040161200b90613611565b60405180910390fd5b60026000848152602001908152602001600020829080600181540180825580915050906001820390600052602060002001600090919290919091505550826003600084815260200190815260200160002081905550505050565b6000600660019054906101000a900460ff1660ff1661208c83612097565b60ff16109050919050565b6000806120a3836123af565b905060008090505b600660019054906101000a900460ff1660ff168160ff1610156121d9576000600760008360ff1660ff1681526020019081526020016000208054600181600116156101000203166002900490501180156121bd5750816121bb600760008460ff1660ff1681526020019081526020016000208054600181600116156101000203166002900480601f0160208091040260200160405190810160405280929190818152602001828054600181600116156101000203166002900480156121b15780601f10612186576101008083540402835291602001916121b1565b820191906000526020600020905b81548152906001019060200180831161219457829003601f168201915b50505050506123af565b145b156121cc5780925050506121e0565b80806001019150506120ab565b5060ff9150505b919050565b600080600090505b60058054905081101561222f57826005828154811061220857fe5b906000526020600020015414156122225780915050612254565b80806001019150506121ed565b507fffffffffffffffffffffffffffffffffffffffffffffffffffffffffffffffff90505b919050565b600060ff6122678484612270565b10905092915050565b600080600090505b6008846040516122889190613580565b9081526020016040518091039020805490508160ff1610156123a3576122ad836123af565b6123846008866040516122c09190613580565b90815260200160405180910390208360ff16815481106122dc57fe5b906000526020600020018054600181600116156101000203166002900480601f01602080910402602001604051908101604052809291908181526020018280546001816001161561010002031660029004801561237a5780601f1061234f5761010080835404028352916020019161237a565b820191906000526020600020905b81548152906001019060200180831161235d57829003601f168201915b50505050506123af565b1415612396578060ff169150506123a9565b8080600101915050612278565b5060ff90505b92915050565b6000816040516020016123c29190613580565b604051602081830303815290604052805190602001209050919050565b828054600181600116156101000203166002900490600052602060002090601f016020900481019282601f1061242057805160ff191683800117855561244e565b8280016001018555821561244e579182015b8281111561244d578251825591602001919060010190612432565b5b50905061245b91906126b4565b5090565b8280548282559060005260206000209081019282156124ae579160200282015b828111156124ad57825182908051906020019061249d9291906123df565b509160200191906001019061247f565b5b5090506124bb91906126d9565b5090565b82805482825590600052602060002090810192821561250e579160200282015b8281111561250d5782518290805190602001906124fd92919061245f565b50916020019190600101906124df565b5b50905061251b9190612705565b5090565b828054600181600116156101000203166002900490600052602060002090601f016020900481019282601f1061256057805160ff191683800117855561258e565b8280016001018555821561258e579182015b8281111561258d578251825591602001919060010190612572565b5b50905061259b91906126b4565b5090565b50805460018160011615610100020316600290046000825580601f106125c557506125e4565b601f0160209004906000526020600020908101906125e391906126b4565b5b50565b60405180610160016040528060608152602001606081526020016060815260200160608152602001606081526020016060815260200160608152602001606081526020016060815260200160608152602001606081525090565b8280548282559060005260206000209081019282156126825760005260206000209182015b82811115612681578254825591600101919060010190612666565b5b50905061268f9190612731565b5090565b50805460008255906000526020600020908101906126b19190612731565b50565b6126d691905b808211156126d25760008160009055506001016126ba565b5090565b90565b61270291905b808211156126fe57600081816126f5919061259f565b506001016126df565b5090565b90565b61272e91905b8082111561272a57600081816127219190612756565b5060010161270b565b5090565b90565b61275391905b8082111561274f576000816000905550600101612737565b5090565b90565b508054600082559060005260206000209081019061277491906126d9565b50565b60008135905061278681613a40565b92915050565b600082601f83011261279d57600080fd5b81356127b06127ab826137c0565b613793565b9150818183526020840193506020810190508360005b838110156127f657813586016127dc8882612800565b8452602084019350602083019250506001810190506127c6565b5050505092915050565b600082601f83011261281157600080fd5b813561282461281f826137e8565b613793565b9150818183526020840193506020810190508360005b8381101561286a5781358601612850888261289e565b84526020840193506020830192505060018101905061283a565b5050505092915050565b60008135905061288381613a57565b92915050565b60008151905061289881613a57565b92915050565b600082601f8301126128af57600080fd5b81356128c26128bd82613810565b613793565b915080825260208301602083018583830111156128de57600080fd5b6128e98382846139ed565b50505092915050565b600082601f83011261290357600080fd5b81356129166129118261383c565b613793565b9150808252602083016020830185838301111561293257600080fd5b61293d8382846139ed565b50505092915050565b6000610160828403121561295957600080fd5b612964610160613793565b9050600082013567ffffffffffffffff81111561298057600080fd5b61298c8482850161289e565b600083015250602082013567ffffffffffffffff8111156129ac57600080fd5b6129b88482850161289e565b602083015250604082013567ffffffffffffffff8111156129d857600080fd5b6129e48482850161289e565b604083015250606082013567ffffffffffffffff811115612a0457600080fd5b612a108482850161289e565b606083015250608082013567ffffffffffffffff811115612a3057600080fd5b612a3c8482850161289e565b60808301525060a082013567ffffffffffffffff811115612a5c57600080fd5b612a688482850161289e565b60a08301525060c082013567ffffffffffffffff811115612a8857600080fd5b612a948482850161289e565b60c08301525060e082013567ffffffffffffffff811115612ab457600080fd5b612ac08482850161289e565b60e08301525061010082013567ffffffffffffffff811115612ae157600080fd5b612aed8482850161289e565b6101008301525061012082013567ffffffffffffffff811115612b0f57600080fd5b612b1b84828501612800565b6101208301525061014082013567ffffffffffffffff811115612b3d57600080fd5b612b498482850161278c565b6101408301525092915050565b600060208284031215612b6857600080fd5b6000612b7684828501612777565b91505092915050565b600060208284031215612b9157600080fd5b6000612b9f84828501612874565b91505092915050565b600060208284031215612bba57600080fd5b6000612bc884828501612889565b91505092915050565b60008060408385031215612be457600080fd5b6000612bf285828601612874565b9250506020612c0385828601612874565b9150509250929050565b600060208284031215612c1f57600080fd5b600082013567ffffffffffffffff811115612c3957600080fd5b612c45848285016128f2565b91505092915050565b60008060408385031215612c6157600080fd5b600083013567ffffffffffffffff811115612c7b57600080fd5b612c87858286016128f2565b925050602083013567ffffffffffffffff811115612ca457600080fd5b612cb0858286016128f2565b9150509250929050565b600080600060608486031215612ccf57600080fd5b600084013567ffffffffffffffff811115612ce957600080fd5b612cf5868287016128f2565b935050602084013567ffffffffffffffff811115612d1257600080fd5b612d1e868287016128f2565b925050604084013567ffffffffffffffff811115612d3b57600080fd5b612d47868287016128f2565b9150509250925092565b60008060408385031215612d6457600080fd5b600083013567ffffffffffffffff811115612d7e57600080fd5b612d8a85828601612946565b9250506020612d9b85828601612874565b9150509250929050565b6000612db18383612f2d565b905092915050565b6000612dc58383612fb1565b60208301905092915050565b6000612ddd8383613031565b905092915050565b6000612df0826138a8565b612dfa8185613929565b935083602082028501612e0c85613868565b8060005b85811015612e485784840389528151612e298582612da5565b9450612e34836138f5565b925060208a01995050600181019050612e10565b50829750879550505050505092915050565b6000612e65826138b3565b612e6f818561393a565b9350612e7a83613878565b8060005b83811015612eab578151612e928882612db9565b9750612e9d83613902565b925050600181019050612e7e565b5085935050505092915050565b6000612ec3826138c9565b612ecd818561395c565b935083602082028501612edf85613898565b8060005b85811015612f1b5784840389528151612efc8582612dd1565b9450612f078361391c565b925060208a01995050600181019050612ee3565b50829750879550505050505092915050565b6000612f38826138be565b612f42818561394b565b935083602082028501612f5485613888565b8060005b85811015612f905784840389528151612f718582612dd1565b9450612f7c8361390f565b925060208a01995050600181019050612f58565b50829750879550505050505092915050565b612fab816139b7565b82525050565b612fba816139c3565b82525050565b612fc9816139c3565b82525050565b6000612fda826138d4565b612fe4818561396d565b9350612ff48185602086016139fc565b80840191505092915050565b600061300b826138ea565b613015818561399a565b93506130258185602086016139fc565b80840191505092915050565b600061303c826138df565b6130468185613978565b93506130568185602086016139fc565b61305f81613a2f565b840191505092915050565b6000613077602183613989565b91507f5468617420656d706c6f79656520616c726561647920776f726b73207468657260008301527f65000000000000000000000000000000000000000000000000000000000000006020830152604082019050919050565b60006130dd602983613989565b91507f596f75206d7573742062652061206465616c657273686970206f776e6572207460008301527f6f20646f207468697300000000000000000000000000000000000000000000006020830152604082019050919050565b6000613143601e83613989565b91507f54686174207375627365727669636520616c72656164792065786973747300006000830152602082019050919050565b6000613183602183613989565b91507f4e6f206170706c69636174696f6e2065786973747320666f722074686174206960008301527f64000000000000000000000000000000000000000000000000000000000000006020830152604082019050919050565b60006131e9602183613989565b91507f4d6178696d756d207375627365727669636520616d6f756e742072656163686560008301527f64000000000000000000000000000000000000000000000000000000000000006020830152604082019050919050565b600061324f601583613989565b91507f596f7520617265206e6f7420746865206f776e657200000000000000000000006000830152602082019050919050565b600061328f602c83613989565b91507f54686174207375627365727669636520646f65736e7420657869737420696e2060008301527f7468697320636f6e7465787400000000000000000000000000000000000000006020830152604082019050919050565b60006132f5601b83613989565b91507f54686174207365727669636520646f6573206e6f7420657869737400000000006000830152602082019050919050565b6000613335602283613989565b91507f54686174206164647265737320697320616c726561647920726567697374657260008301527f65640000000000000000000000000000000000000000000000000000000000006020830152604082019050919050565b600061339b601b83613989565b91507f54686174207365727669636520616c72656164792065786973747300000000006000830152602082019050919050565b60006133db602883613989565b91507f54686572652061726520746865206d6178696d756d206e756d626572206f662060008301527f73657276696365730000000000000000000000000000000000000000000000006020830152604082019050919050565b60006101608301600083015184820360008601526134528282613031565b9150506020830151848203602086015261346c8282613031565b915050604083015184820360408601526134868282613031565b915050606083015184820360608601526134a08282613031565b915050608083015184820360808601526134ba8282613031565b91505060a083015184820360a08601526134d48282613031565b91505060c083015184820360c08601526134ee8282613031565b91505060e083015184820360e08601526135088282613031565b9150506101008301518482036101008601526135248282613031565b9150506101208301518482036101208601526135408282612f2d565b91505061014083015184820361014086015261355c8282612de5565b9150508091505092915050565b60006135758284612fcf565b915081905092915050565b600061358c8284613000565b915081905092915050565b600060208201905081810360008301526135b18184612e5a565b905092915050565b600060208201905081810360008301526135d38184612eb8565b905092915050565b60006020820190506135f06000830184612fa2565b92915050565b600060208201905061360b6000830184612fc0565b92915050565b6000602082019050818103600083015261362a8161306a565b9050919050565b6000602082019050818103600083015261364a816130d0565b9050919050565b6000602082019050818103600083015261366a81613136565b9050919050565b6000602082019050818103600083015261368a81613176565b9050919050565b600060208201905081810360008301526136aa816131dc565b9050919050565b600060208201905081810360008301526136ca81613242565b9050919050565b600060208201905081810360008301526136ea81613282565b9050919050565b6000602082019050818103600083015261370a816132e8565b9050919050565b6000602082019050818103600083015261372a81613328565b9050919050565b6000602082019050818103600083015261374a8161338e565b9050919050565b6000602082019050818103600083015261376a816133ce565b9050919050565b6000602082019050818103600083015261378b8184613434565b905092915050565b6000604051905081810181811067ffffffffffffffff821117156137b657600080fd5b8060405250919050565b600067ffffffffffffffff8211156137d757600080fd5b602082029050602081019050919050565b600067ffffffffffffffff8211156137ff57600080fd5b602082029050602081019050919050565b600067ffffffffffffffff82111561382757600080fd5b601f19601f8301169050602081019050919050565b600067ffffffffffffffff82111561385357600080fd5b601f19601f8301169050602081019050919050565b6000819050602082019050919050565b6000819050602082019050919050565b6000819050602082019050919050565b6000819050602082019050919050565b600081519050919050565b600081519050919050565b600081519050919050565b600081519050919050565b600081519050919050565b600081519050919050565b600081519050919050565b6000602082019050919050565b6000602082019050919050565b6000602082019050919050565b6000602082019050919050565b600082825260208201905092915050565b600082825260208201905092915050565b600082825260208201905092915050565b600082825260208201905092915050565b600081905092915050565b600082825260208201905092915050565b600082825260208201905092915050565b600081905092915050565b60006139b0826139cd565b9050919050565b60008115159050919050565b6000819050919050565b600073ffffffffffffffffffffffffffffffffffffffff82169050919050565b82818337600083830152505050565b60005b83811015613a1a5780820151818401526020810190506139ff565b83811115613a29576000848401525b50505050565b6000601f19601f8301169050919050565b613a49816139a5565b8114613a5457600080fd5b50565b613a60816139c3565b8114613a6b57600080fd5b5056fea365627a7a72315820f37f45d77fd952e909a4455b174eb9c566cb37658f1bcea1381d944001adf2f96c6578706572696d656e74616cf564736f6c634300050c0040",
  "source": "pragma solidity ^0.5.11;\npragma experimental ABIEncoderV2;\n\nimport \"./DealerContract.sol\";\n\ncontract ServiceHandler is DealerContract {\n\n    function encode(string memory str) internal pure returns (bytes32) {\n        return keccak256(abi.encodePacked(str));\n    }\n\n    uint8 noOfServices;\n    uint8 totalNoServices = 254;\n\n    modifier serviceExists(string memory serviceName){\n        require(containsService(serviceName),\"That service does not exist\");\n        _;\n    }\n\n    modifier serviceNotExists(string memory serviceName){\n        require(!containsService(serviceName),\"That service already exists\");\n        _;\n    }\n\n    modifier servicesNotFull{\n        require(noOfServices <= totalNoServices,\"There are the maximum number of services\");\n        _;\n    }\n\n    mapping(uint8 => string) private services;\n\n    function getIndexOfService(string memory serviceName) internal view returns (uint8) {\n        bytes32 service = encode(serviceName);\n        for(uint8 i = 0; i < totalNoServices; i++){\n            if(bytes(services[i]).length > 0 && encode(services[i]) == service){\n                return i;\n            }\n        }\n        return 255;\n    }\n\n    function containsService(string memory serviceName) internal view returns (bool){\n        return getIndexOfService(serviceName) < totalNoServices;\n    }\n\n    function addService(string memory serviceName) public ownerOnly serviceNotExists(serviceName) servicesNotFull {\n        //Returns true if service was successfully added\n        //False if service already exists\n        for(uint8 i = 0; i < totalNoServices; i++){\n            if(bytes(services[i]).length <= 0){\n                services[i] = serviceName;\n                noOfServices++;\n                return;\n            }\n        }\n    }\n\n    function editServiceName(string memory oldName, string memory newName) public ownerOnly serviceExists(oldName) {\n        services[getIndexOfService(oldName)] = newName;\n    }\n\n    function deleteService(string memory serviceName) public ownerOnly serviceExists(serviceName) {\n        services[getIndexOfService(serviceName)] = \"\";\n        noOfServices--;\n    }\n\n    function getServices() public view returns (string[] memory) {\n        string[] memory existingServices = new string[](noOfServices);\n        uint8 serviceIndex = 0;\n        for(uint8 i = 0; i < totalNoServices; i++){\n            if(bytes(services[i]).length > 0){\n                existingServices[serviceIndex++] = services[i];\n            }\n        }\n        return existingServices;\n    }\n\n    //-----------------------------_Subservices_----------------------------\n\n    mapping(string => string[]) private subServices;\n\n    modifier subServiceExists(string memory serviceName, string memory subServiceName){\n        require(containsSubService(serviceName,subServiceName),\"That subservice doesnt exist in this context\");\n        _;\n    }\n    modifier subServiceNotExists(string memory serviceName, string memory subServiceName){\n        require(!containsSubService(serviceName,subServiceName),\"That subservice already exists\");\n        _;\n    }\n\n    modifier subservicesNotFull(string memory serviceName){\n        require(subServices[serviceName].length < 255,\"Maximum subservice amount reached\");\n        _;\n    }\n\n    function getIndexOfSubService(string memory serviceName, string memory subServiceName) internal view returns (uint) {\n        for(uint8 i = 0; i < subServices[serviceName].length; i++){\n            if(encode(subServices[serviceName][i]) == encode(subServiceName)){\n                return i;\n            }\n        }\n        return 255;\n    }\n\n    function containsSubService(string memory serviceName, string memory subServiceName) internal view returns (bool) {\n        return getIndexOfSubService(serviceName,subServiceName) < 255;\n    }\n\n    function addSubService(string memory serviceName, string memory subServiceName)\n     public subservicesNotFull(serviceName) subServiceNotExists(serviceName,subServiceName) ownerOnly {\n        //Returns true if service does not already exist\n        subServices[serviceName].push(subServiceName);\n    }\n\n    function editSubServiceName(string memory serviceName, string memory oldName, string memory newName)\n     public subServiceExists(serviceName,oldName) ownerOnly {\n        subServices[serviceName][getIndexOfSubService(serviceName,oldName)] = newName;\n    }\n\n    function deleteSubService(string memory serviceName, string memory subServiceName)\n     public ownerOnly subServiceExists(serviceName,subServiceName) {\n        //TODO Shift elements manually\n        delete subServices[serviceName][getIndexOfSubService(serviceName,subServiceName)];\n    }\n\n    function getSubServices(string memory serviceName) public view returns (string[] memory) {\n        return subServices[serviceName];\n    }\n}\n",
  "sourcePath": "/Users/mapring/Documents/school/blockchain/blockchain-project-2019/contracts/ServiceHandler.sol",
  "compiler": {
    "name": "solc",
    "version": "0.5.12+commit.7709ece9.Emscripten.clang"
  },
  "schemaVersion": "3.0.19",
  "updatedAt": "2019-11-22T16:29:16.995Z",
  "networkType": "ethereum",
  "devdoc": {
    "methods": {}
  },
  "userdoc": {
    "methods": {}
  }
}