{
  "contractName": "ServiceHandler",
  "abi": [
    {
      "anonymous": false,
      "inputs": [
        {
          "components": [
            {
              "internalType": "string",
              "name": "dealerName",
              "type": "string"
            },
            {
              "internalType": "string",
              "name": "firstName",
              "type": "string"
            },
            {
              "internalType": "string",
              "name": "lastName",
              "type": "string"
            },
            {
              "internalType": "string",
              "name": "addr",
              "type": "string"
            },
            {
              "internalType": "string",
              "name": "location",
              "type": "string"
            },
            {
              "internalType": "string",
              "name": "phoneNo",
              "type": "string"
            },
            {
              "internalType": "string",
              "name": "bestSeller",
              "type": "string"
            },
            {
              "internalType": "string",
              "name": "promotion",
              "type": "string"
            },
            {
              "internalType": "string",
              "name": "otherServices",
              "type": "string"
            },
            {
              "internalType": "string[]",
              "name": "availableServices",
              "type": "string[]"
            },
            {
              "internalType": "string[][]",
              "name": "availableSubServices",
              "type": "string[][]"
            }
          ],
          "indexed": false,
          "internalType": "struct DealerContract.DealerInfo",
          "name": "info",
          "type": "tuple"
        },
        {
          "indexed": false,
          "internalType": "bytes32",
          "name": "id",
          "type": "bytes32"
        }
      ],
      "name": "CreateDealerApplication",
      "type": "event"
    },
    {
      "constant": false,
      "inputs": [
        {
          "internalType": "bytes32",
          "name": "dealerId",
          "type": "bytes32"
        },
        {
          "internalType": "bytes32",
          "name": "adr",
          "type": "bytes32"
        }
      ],
      "name": "addDealerEmployee",
      "outputs": [],
      "payable": false,
      "stateMutability": "nonpayable",
      "type": "function"
    },
    {
      "constant": false,
      "inputs": [
        {
          "internalType": "bytes32",
          "name": "adr",
          "type": "bytes32"
        }
      ],
      "name": "approveApplication",
      "outputs": [],
      "payable": false,
      "stateMutability": "nonpayable",
      "type": "function"
    },
    {
      "constant": false,
      "inputs": [
        {
          "components": [
            {
              "internalType": "string",
              "name": "dealerName",
              "type": "string"
            },
            {
              "internalType": "string",
              "name": "firstName",
              "type": "string"
            },
            {
              "internalType": "string",
              "name": "lastName",
              "type": "string"
            },
            {
              "internalType": "string",
              "name": "addr",
              "type": "string"
            },
            {
              "internalType": "string",
              "name": "location",
              "type": "string"
            },
            {
              "internalType": "string",
              "name": "phoneNo",
              "type": "string"
            },
            {
              "internalType": "string",
              "name": "bestSeller",
              "type": "string"
            },
            {
              "internalType": "string",
              "name": "promotion",
              "type": "string"
            },
            {
              "internalType": "string",
              "name": "otherServices",
              "type": "string"
            },
            {
              "internalType": "string[]",
              "name": "availableServices",
              "type": "string[]"
            },
            {
              "internalType": "string[][]",
              "name": "availableSubServices",
              "type": "string[][]"
            }
          ],
          "internalType": "struct DealerContract.DealerInfo",
          "name": "info",
          "type": "tuple"
        },
        {
          "internalType": "bytes32",
          "name": "id",
          "type": "bytes32"
        }
      ],
      "name": "createDealerApplication",
      "outputs": [],
      "payable": false,
      "stateMutability": "nonpayable",
      "type": "function"
    },
    {
      "constant": false,
      "inputs": [
        {
          "components": [
            {
              "internalType": "string",
              "name": "dealerName",
              "type": "string"
            },
            {
              "internalType": "string",
              "name": "firstName",
              "type": "string"
            },
            {
              "internalType": "string",
              "name": "lastName",
              "type": "string"
            },
            {
              "internalType": "string",
              "name": "addr",
              "type": "string"
            },
            {
              "internalType": "string",
              "name": "location",
              "type": "string"
            },
            {
              "internalType": "string",
              "name": "phoneNo",
              "type": "string"
            },
            {
              "internalType": "string",
              "name": "bestSeller",
              "type": "string"
            },
            {
              "internalType": "string",
              "name": "promotion",
              "type": "string"
            },
            {
              "internalType": "string",
              "name": "otherServices",
              "type": "string"
            },
            {
              "internalType": "string[]",
              "name": "availableServices",
              "type": "string[]"
            },
            {
              "internalType": "string[][]",
              "name": "availableSubServices",
              "type": "string[][]"
            }
          ],
          "internalType": "struct DealerContract.DealerInfo",
          "name": "info",
          "type": "tuple"
        },
        {
          "internalType": "bytes32",
          "name": "id",
          "type": "bytes32"
        }
      ],
      "name": "editDealerInfo",
      "outputs": [],
      "payable": false,
      "stateMutability": "nonpayable",
      "type": "function"
    },
    {
      "constant": true,
      "inputs": [],
      "name": "getAllDealerApplications",
      "outputs": [
        {
          "internalType": "bytes32[]",
          "name": "",
          "type": "bytes32[]"
        }
      ],
      "payable": false,
      "stateMutability": "view",
      "type": "function"
    },
    {
      "constant": true,
      "inputs": [
        {
          "internalType": "bytes32",
          "name": "id",
          "type": "bytes32"
        }
      ],
      "name": "getDealerInfo",
      "outputs": [
        {
          "components": [
            {
              "internalType": "string",
              "name": "dealerName",
              "type": "string"
            },
            {
              "internalType": "string",
              "name": "firstName",
              "type": "string"
            },
            {
              "internalType": "string",
              "name": "lastName",
              "type": "string"
            },
            {
              "internalType": "string",
              "name": "addr",
              "type": "string"
            },
            {
              "internalType": "string",
              "name": "location",
              "type": "string"
            },
            {
              "internalType": "string",
              "name": "phoneNo",
              "type": "string"
            },
            {
              "internalType": "string",
              "name": "bestSeller",
              "type": "string"
            },
            {
              "internalType": "string",
              "name": "promotion",
              "type": "string"
            },
            {
              "internalType": "string",
              "name": "otherServices",
              "type": "string"
            },
            {
              "internalType": "string[]",
              "name": "availableServices",
              "type": "string[]"
            },
            {
              "internalType": "string[][]",
              "name": "availableSubServices",
              "type": "string[][]"
            }
          ],
          "internalType": "struct DealerContract.DealerInfo",
          "name": "",
          "type": "tuple"
        }
      ],
      "payable": false,
      "stateMutability": "view",
      "type": "function"
    },
    {
      "constant": true,
      "inputs": [
        {
          "internalType": "string",
          "name": "id",
          "type": "string"
        }
      ],
      "name": "getHash",
      "outputs": [
        {
          "internalType": "bytes32",
          "name": "",
          "type": "bytes32"
        }
      ],
      "payable": false,
      "stateMutability": "pure",
      "type": "function"
    },
    {
      "constant": true,
      "inputs": [
        {
          "internalType": "bytes32",
          "name": "adr",
          "type": "bytes32"
        }
      ],
      "name": "isVerified",
      "outputs": [
        {
          "internalType": "bool",
          "name": "",
          "type": "bool"
        }
      ],
      "payable": false,
      "stateMutability": "view",
      "type": "function"
    },
    {
      "constant": true,
      "inputs": [],
      "name": "owner",
      "outputs": [
        {
          "internalType": "address",
          "name": "",
          "type": "address"
        }
      ],
      "payable": false,
      "stateMutability": "view",
      "type": "function"
    },
    {
      "constant": false,
      "inputs": [
        {
          "internalType": "bytes32",
          "name": "dealershipId",
          "type": "bytes32"
        },
        {
          "internalType": "bytes32",
          "name": "otherId",
          "type": "bytes32"
        }
      ],
      "name": "transferDealershipOwner",
      "outputs": [],
      "payable": false,
      "stateMutability": "nonpayable",
      "type": "function"
    },
    {
      "constant": false,
      "inputs": [
        {
          "internalType": "address",
          "name": "newOwner",
          "type": "address"
        }
      ],
      "name": "transferOwner",
      "outputs": [],
      "payable": false,
      "stateMutability": "nonpayable",
      "type": "function"
    },
    {
      "constant": false,
      "inputs": [
        {
          "internalType": "string",
          "name": "serviceName",
          "type": "string"
        }
      ],
      "name": "addService",
      "outputs": [],
      "payable": false,
      "stateMutability": "nonpayable",
      "type": "function"
    },
    {
      "constant": false,
      "inputs": [
        {
          "internalType": "string",
          "name": "oldName",
          "type": "string"
        },
        {
          "internalType": "string",
          "name": "newName",
          "type": "string"
        }
      ],
      "name": "editServiceName",
      "outputs": [],
      "payable": false,
      "stateMutability": "nonpayable",
      "type": "function"
    },
    {
      "constant": false,
      "inputs": [
        {
          "internalType": "string",
          "name": "serviceName",
          "type": "string"
        }
      ],
      "name": "deleteService",
      "outputs": [],
      "payable": false,
      "stateMutability": "nonpayable",
      "type": "function"
    },
    {
      "constant": true,
      "inputs": [],
      "name": "getServices",
      "outputs": [
        {
          "internalType": "string[]",
          "name": "",
          "type": "string[]"
        }
      ],
      "payable": false,
      "stateMutability": "view",
      "type": "function"
    },
    {
      "constant": false,
      "inputs": [
        {
          "internalType": "string",
          "name": "serviceName",
          "type": "string"
        },
        {
          "internalType": "string",
          "name": "subServiceName",
          "type": "string"
        }
      ],
      "name": "addSubService",
      "outputs": [],
      "payable": false,
      "stateMutability": "nonpayable",
      "type": "function"
    },
    {
      "constant": false,
      "inputs": [
        {
          "internalType": "string",
          "name": "serviceName",
          "type": "string"
        },
        {
          "internalType": "string",
          "name": "oldName",
          "type": "string"
        },
        {
          "internalType": "string",
          "name": "newName",
          "type": "string"
        }
      ],
      "name": "editSubServiceName",
      "outputs": [],
      "payable": false,
      "stateMutability": "nonpayable",
      "type": "function"
    },
    {
      "constant": false,
      "inputs": [
        {
          "internalType": "string",
          "name": "serviceName",
          "type": "string"
        },
        {
          "internalType": "string",
          "name": "subServiceName",
          "type": "string"
        }
      ],
      "name": "deleteSubService",
      "outputs": [],
      "payable": false,
      "stateMutability": "nonpayable",
      "type": "function"
    },
    {
      "constant": true,
      "inputs": [
        {
          "internalType": "string",
          "name": "serviceName",
          "type": "string"
        }
      ],
      "name": "getSubServices",
      "outputs": [
        {
          "internalType": "string[]",
          "name": "",
          "type": "string[]"
        }
      ],
      "payable": false,
      "stateMutability": "view",
      "type": "function"
    }
  ],
  "bytecode": "0x608060405260fe600660016101000a81548160ff021916908360ff160217905550336000806101000a81548173ffffffffffffffffffffffffffffffffffffffff021916908373ffffffffffffffffffffffffffffffffffffffff160217905550613b928061006f6000396000f3fe608060405234801561001057600080fd5b50600436106101215760003560e01c80635b6beeb9116100ad57806382d7afbd1161007157806382d7afbd146102ee57806388fcd1941461030a5780638da5cb5b14610326578063c181b27314610344578063e445268c1461037457610121565b80635b6beeb9146102365780636fd7d2b51461026657806375417851146102825780637d17f13c146102a05780637e41667f146102d057610121565b80632d4afc7b116100f45780632d4afc7b14610196578063369bfce4146101b2578063431a65fc146101ce5780634fb2e45d146101fe57806350fb95e31461021a57610121565b806307681038146101265780630eb7bc8f146101425780631a4c85be1461015e5780631b8f47fe1461017a575b600080fd5b610140600480360361013b9190810190612dd8565b610390565b005b61015c60048036036101579190810190612cd5565b6105b3565b005b61017860048036036101739190810190612c94565b6106c6565b005b610194600480360361018f9190810190612c06565b61081a565b005b6101b060048036036101ab9190810190612dd8565b610944565b005b6101cc60048036036101c79190810190612cd5565b610b03565b005b6101e860048036036101e39190810190612c94565b610c2b565b6040516101f5919061366a565b60405180910390f35b61021860048036036102139190810190612bdd565b610d32565b005b610234600480360361022f9190810190612cd5565b610e04565b005b610250600480360361024b9190810190612c94565b610fa6565b60405161025d91906136a7565b60405180910390f35b610280600480360361027b9190810190612d41565b61101e565b005b61028a611150565b604051610297919061366a565b60405180910390f35b6102ba60048036036102b59190810190612c06565b6112e3565b6040516102c79190613822565b60405180910390f35b6102d8611adc565b6040516102e59190613648565b60405180910390f35b61030860048036036103039190810190612c58565b611bc3565b005b610324600480360361031f9190810190612c94565b611d61565b005b61032e611f72565b60405161033b919061362d565b60405180910390f35b61035e60048036036103599190810190612c06565b611f97565b60405161036b919061368c565b60405180910390f35b61038e60048036036103899190810190612c58565b611fe2565b005b6001600082815260200190815260200160002060009054906101000a900460ff16156103f1576040517f08c379a00000000000000000000000000000000000000000000000000000000081526004016103e8906137c2565b60405180910390fd5b81600460008381526020019081526020016000206000820151816000019080519060200190610421929190612466565b50602082015181600101908051906020019061043e929190612466565b50604082015181600201908051906020019061045b929190612466565b506060820151816003019080519060200190610478929190612466565b506080820151816004019080519060200190610495929190612466565b5060a08201518160050190805190602001906104b2929190612466565b5060c08201518160060190805190602001906104cf929190612466565b5060e08201518160070190805190602001906104ec929190612466565b5061010082015181600801908051906020019061050a929190612466565b506101208201518160090190805190602001906105289291906124e6565b5061014082015181600a019080519060200190610546929190612546565b5090505060058190806001815401808255809150509060018203906000526020600020016000909192909190915055507f42ab459ad3144922283159073eea05ed3ff810ab23fc94bbad43d99b9332dbb282826040516105a7929190613844565b60405180910390a15050565b6000809054906101000a900473ffffffffffffffffffffffffffffffffffffffff1673ffffffffffffffffffffffffffffffffffffffff163373ffffffffffffffffffffffffffffffffffffffff1614610642576040517f08c379a000000000000000000000000000000000000000000000000000000000815260040161063990613762565b60405180910390fd5b8161064c816120f5565b61068b576040517f08c379a0000000000000000000000000000000000000000000000000000000008152600401610682906137a2565b60405180910390fd5b81600760006106998661211e565b60ff1660ff16815260200190815260200160002090805190602001906106c09291906125a6565b50505050565b6000809054906101000a900473ffffffffffffffffffffffffffffffffffffffff1673ffffffffffffffffffffffffffffffffffffffff163373ffffffffffffffffffffffffffffffffffffffff1614610755576040517f08c379a000000000000000000000000000000000000000000000000000000000815260040161074c90613762565b60405180910390fd5b8061075f816120f5565b61079e576040517f08c379a0000000000000000000000000000000000000000000000000000000008152600401610795906137a2565b60405180910390fd5b60405180602001604052806000815250600760006107bb8561211e565b60ff1660ff16815260200190815260200160002090805190602001906107e29291906125a6565b506006600081819054906101000a900460ff16809291906001900391906101000a81548160ff021916908360ff160217905550505050565b6000809054906101000a900473ffffffffffffffffffffffffffffffffffffffff1673ffffffffffffffffffffffffffffffffffffffff163373ffffffffffffffffffffffffffffffffffffffff16146108a9576040517f08c379a00000000000000000000000000000000000000000000000000000000081526004016108a090613762565b60405180910390fd5b60006108b48261226c565b905060008112156108fa576040517f08c379a00000000000000000000000000000000000000000000000000000000081526004016108f190613722565b60405180910390fd5b600180600084815260200190815260200160002060006101000a81548160ff0219169083151502179055506005818154811061093257fe5b90600052602060002001600090555050565b806001600082815260200190815260200160002060009054906101000a900460ff166109a5576040517f08c379a000000000000000000000000000000000000000000000000000000000815260040161099c906136e2565b60405180910390fd5b826004600084815260200190815260200160002060008201518160000190805190602001906109d5929190612466565b5060208201518160010190805190602001906109f2929190612466565b506040820151816002019080519060200190610a0f929190612466565b506060820151816003019080519060200190610a2c929190612466565b506080820151816004019080519060200190610a49929190612466565b5060a0820151816005019080519060200190610a66929190612466565b5060c0820151816006019080519060200190610a83929190612466565b5060e0820151816007019080519060200190610aa0929190612466565b50610100820151816008019080519060200190610abe929190612466565b50610120820151816009019080519060200190610adc9291906124e6565b5061014082015181600a019080519060200190610afa929190612546565b50905050505050565b6000809054906101000a900473ffffffffffffffffffffffffffffffffffffffff1673ffffffffffffffffffffffffffffffffffffffff163373ffffffffffffffffffffffffffffffffffffffff1614610b92576040517f08c379a0000000000000000000000000000000000000000000000000000000008152600401610b8990613762565b60405180910390fd5b8181610b9e82826122e0565b610bdd576040517f08c379a0000000000000000000000000000000000000000000000000000000008152600401610bd490613782565b60405180910390fd5b600884604051610bed9190613616565b9081526020016040518091039020610c0585856122f7565b81548110610c0f57fe5b906000526020600020016000610c259190612626565b50505050565b6060600882604051610c3d9190613616565b9081526020016040518091039020805480602002602001604051908101604052809291908181526020016000905b82821015610d27578382906000526020600020018054600181600116156101000203166002900480601f016020809104026020016040519081016040528092919081815260200182805460018160011615610100020316600290048015610d135780601f10610ce857610100808354040283529160200191610d13565b820191906000526020600020905b815481529060010190602001808311610cf657829003601f168201915b505050505081526020019060010190610c6b565b505050509050919050565b6000809054906101000a900473ffffffffffffffffffffffffffffffffffffffff1673ffffffffffffffffffffffffffffffffffffffff163373ffffffffffffffffffffffffffffffffffffffff1614610dc1576040517f08c379a0000000000000000000000000000000000000000000000000000000008152600401610db890613762565b60405180910390fd5b806000806101000a81548173ffffffffffffffffffffffffffffffffffffffff021916908373ffffffffffffffffffffffffffffffffffffffff16021790555050565b8160ff600882604051610e179190613616565b90815260200160405180910390208054905010610e69576040517f08c379a0000000000000000000000000000000000000000000000000000000008152600401610e6090613742565b60405180910390fd5b8282610e7582826122e0565b15610eb5576040517f08c379a0000000000000000000000000000000000000000000000000000000008152600401610eac90613702565b60405180910390fd5b6000809054906101000a900473ffffffffffffffffffffffffffffffffffffffff1673ffffffffffffffffffffffffffffffffffffffff163373ffffffffffffffffffffffffffffffffffffffff1614610f44576040517f08c379a0000000000000000000000000000000000000000000000000000000008152600401610f3b90613762565b60405180910390fd5b600885604051610f549190613616565b9081526020016040518091039020849080600181540180825580915050906001820390600052602060002001600090919290919091509080519060200190610f9d9291906125a6565b50505050505050565b6000600282604051602001610fbb9190613616565b604051602081830303815290604052604051610fd791906135ff565b602060405180830381855afa158015610ff4573d6000803e3d6000fd5b5050506040513d601f19601f820116820180604052506110179190810190612c2f565b9050919050565b828261102a82826122e0565b611069576040517f08c379a000000000000000000000000000000000000000000000000000000000815260040161106090613782565b60405180910390fd5b6000809054906101000a900473ffffffffffffffffffffffffffffffffffffffff1673ffffffffffffffffffffffffffffffffffffffff163373ffffffffffffffffffffffffffffffffffffffff16146110f8576040517f08c379a00000000000000000000000000000000000000000000000000000000081526004016110ef90613762565b60405180910390fd5b826008866040516111099190613616565b908152602001604051809103902061112187876122f7565b8154811061112b57fe5b9060005260206000200190805190602001906111489291906125a6565b505050505050565b606080600660009054906101000a900460ff1660ff1660405190808252806020026020018201604052801561119957816020015b60608152602001906001900390816111845790505b509050600080905060008090505b600660019054906101000a900460ff1660ff168160ff1610156112da576000600760008360ff1660ff16815260200190815260200160002080546001816001161561010002031660029004905011156112cd57600760008260ff1660ff1681526020019081526020016000208054600181600116156101000203166002900480601f0160208091040260200160405190810160405280929190818152602001828054600181600116156101000203166002900480156112a75780601f1061127c576101008083540402835291602001916112a7565b820191906000526020600020905b81548152906001019060200180831161128a57829003601f168201915b5050505050838380600101945060ff16815181106112c157fe5b60200260200101819052505b80806001019150506111a7565b50819250505090565b6112eb61266e565b6004600083815260200190815260200160002060405180610160016040529081600082018054600181600116156101000203166002900480601f0160208091040260200160405190810160405280929190818152602001828054600181600116156101000203166002900480156113a35780601f10611378576101008083540402835291602001916113a3565b820191906000526020600020905b81548152906001019060200180831161138657829003601f168201915b50505050508152602001600182018054600181600116156101000203166002900480601f0160208091040260200160405190810160405280929190818152602001828054600181600116156101000203166002900480156114455780601f1061141a57610100808354040283529160200191611445565b820191906000526020600020905b81548152906001019060200180831161142857829003601f168201915b50505050508152602001600282018054600181600116156101000203166002900480601f0160208091040260200160405190810160405280929190818152602001828054600181600116156101000203166002900480156114e75780601f106114bc576101008083540402835291602001916114e7565b820191906000526020600020905b8154815290600101906020018083116114ca57829003601f168201915b50505050508152602001600382018054600181600116156101000203166002900480601f0160208091040260200160405190810160405280929190818152602001828054600181600116156101000203166002900480156115895780601f1061155e57610100808354040283529160200191611589565b820191906000526020600020905b81548152906001019060200180831161156c57829003601f168201915b50505050508152602001600482018054600181600116156101000203166002900480601f01602080910402602001604051908101604052809291908181526020018280546001816001161561010002031660029004801561162b5780601f106116005761010080835404028352916020019161162b565b820191906000526020600020905b81548152906001019060200180831161160e57829003601f168201915b50505050508152602001600582018054600181600116156101000203166002900480601f0160208091040260200160405190810160405280929190818152602001828054600181600116156101000203166002900480156116cd5780601f106116a2576101008083540402835291602001916116cd565b820191906000526020600020905b8154815290600101906020018083116116b057829003601f168201915b50505050508152602001600682018054600181600116156101000203166002900480601f01602080910402602001604051908101604052809291908181526020018280546001816001161561010002031660029004801561176f5780601f106117445761010080835404028352916020019161176f565b820191906000526020600020905b81548152906001019060200180831161175257829003601f168201915b50505050508152602001600782018054600181600116156101000203166002900480601f0160208091040260200160405190810160405280929190818152602001828054600181600116156101000203166002900480156118115780601f106117e657610100808354040283529160200191611811565b820191906000526020600020905b8154815290600101906020018083116117f457829003601f168201915b50505050508152602001600882018054600181600116156101000203166002900480601f0160208091040260200160405190810160405280929190818152602001828054600181600116156101000203166002900480156118b35780601f10611888576101008083540402835291602001916118b3565b820191906000526020600020905b81548152906001019060200180831161189657829003601f168201915b5050505050815260200160098201805480602002602001604051908101604052809291908181526020016000905b8282101561199d578382906000526020600020018054600181600116156101000203166002900480601f0160208091040260200160405190810160405280929190818152602001828054600181600116156101000203166002900480156119895780601f1061195e57610100808354040283529160200191611989565b820191906000526020600020905b81548152906001019060200180831161196c57829003601f168201915b5050505050815260200190600101906118e1565b505050508152602001600a8201805480602002602001604051908101604052809291908181526020016000905b82821015611acd57838290600052602060002001805480602002602001604051908101604052809291908181526020016000905b82821015611aba578382906000526020600020018054600181600116156101000203166002900480601f016020809104026020016040519081016040528092919081815260200182805460018160011615610100020316600290048015611aa65780601f10611a7b57610100808354040283529160200191611aa6565b820191906000526020600020905b815481529060010190602001808311611a8957829003601f168201915b5050505050815260200190600101906119fe565b50505050815260200190600101906119ca565b50505050815250509050919050565b60606000809054906101000a900473ffffffffffffffffffffffffffffffffffffffff1673ffffffffffffffffffffffffffffffffffffffff163373ffffffffffffffffffffffffffffffffffffffff1614611b6d576040517f08c379a0000000000000000000000000000000000000000000000000000000008152600401611b6490613762565b60405180910390fd5b6005805480602002602001604051908101604052809291908181526020018280548015611bb957602002820191906000526020600020905b815481526020019060010190808311611ba5575b5050505050905090565b816001600082815260200190815260200160002060009054906101000a900460ff16611c24576040517f08c379a0000000000000000000000000000000000000000000000000000000008152600401611c1b906136e2565b60405180910390fd5b600180600084815260200190815260200160002060006101000a81548160ff02191690831515021790555060006001600085815260200190815260200160002060006101000a81548160ff0219169083151502179055506000801b60036000848152602001908152602001600020819055506002600084815260200190815260200160002060026000848152602001908152602001600020908054611cca9291906126c8565b50600260008481526020019081526020016000206000611cea919061271a565b60008090505b6002600084815260200190815260200160002080549050811015611d5b578260036000600260008781526020019081526020016000208481548110611d3157fe5b90600052602060002001548152602001908152602001600020819055508080600101915050611cf0565b50505050565b6000809054906101000a900473ffffffffffffffffffffffffffffffffffffffff1673ffffffffffffffffffffffffffffffffffffffff163373ffffffffffffffffffffffffffffffffffffffff1614611df0576040517f08c379a0000000000000000000000000000000000000000000000000000000008152600401611de790613762565b60405180910390fd5b80611dfa816120f5565b15611e3a576040517f08c379a0000000000000000000000000000000000000000000000000000000008152600401611e31906137e2565b60405180910390fd5b600660019054906101000a900460ff1660ff16600660009054906101000a900460ff1660ff161115611ea1576040517f08c379a0000000000000000000000000000000000000000000000000000000008152600401611e9890613802565b60405180910390fd5b60008090505b600660019054906101000a900460ff1660ff168160ff161015611f6c576000600760008360ff1660ff16815260200190815260200160002080546001816001161561010002031660029004905011611f5f5782600760008360ff1660ff1681526020019081526020016000209080519060200190611f269291906125a6565b506006600081819054906101000a900460ff168092919060010191906101000a81548160ff021916908360ff1602179055505050611f6e565b8080600101915050611ea7565b505b5050565b6000809054906101000a900473ffffffffffffffffffffffffffffffffffffffff1681565b60006001600083815260200190815260200160002060009054906101000a900460ff1680611fdb57506000801b600360008481526020019081526020016000205414155b9050919050565b816001600082815260200190815260200160002060009054906101000a900460ff16612043576040517f08c379a000000000000000000000000000000000000000000000000000000000815260040161203a906136e2565b60405180910390fd5b6000801b60036000848152602001908152602001600020541461209b576040517f08c379a0000000000000000000000000000000000000000000000000000000008152600401612092906136c2565b60405180910390fd5b60026000848152602001908152602001600020829080600181540180825580915050906001820390600052602060002001600090919290919091505550826003600084815260200190815260200160002081905550505050565b6000600660019054906101000a900460ff1660ff166121138361211e565b60ff16109050919050565b60008061212a83612436565b905060008090505b600660019054906101000a900460ff1660ff168160ff161015612260576000600760008360ff1660ff168152602001908152602001600020805460018160011615610100020316600290049050118015612244575081612242600760008460ff1660ff1681526020019081526020016000208054600181600116156101000203166002900480601f0160208091040260200160405190810160405280929190818152602001828054600181600116156101000203166002900480156122385780601f1061220d57610100808354040283529160200191612238565b820191906000526020600020905b81548152906001019060200180831161221b57829003601f168201915b5050505050612436565b145b15612253578092505050612267565b8080600101915050612132565b5060ff9150505b919050565b600080600090505b6005805490508110156122b657826005828154811061228f57fe5b906000526020600020015414156122a957809150506122db565b8080600101915050612274565b507fffffffffffffffffffffffffffffffffffffffffffffffffffffffffffffffff90505b919050565b600060ff6122ee84846122f7565b10905092915050565b600080600090505b60088460405161230f9190613616565b9081526020016040518091039020805490508160ff16101561242a5761233483612436565b61240b6008866040516123479190613616565b90815260200160405180910390208360ff168154811061236357fe5b906000526020600020018054600181600116156101000203166002900480601f0160208091040260200160405190810160405280929190818152602001828054600181600116156101000203166002900480156124015780601f106123d657610100808354040283529160200191612401565b820191906000526020600020905b8154815290600101906020018083116123e457829003601f168201915b5050505050612436565b141561241d578060ff16915050612430565b80806001019150506122ff565b5060ff90505b92915050565b6000816040516020016124499190613616565b604051602081830303815290604052805190602001209050919050565b828054600181600116156101000203166002900490600052602060002090601f016020900481019282601f106124a757805160ff19168380011785556124d5565b828001600101855582156124d5579182015b828111156124d45782518255916020019190600101906124b9565b5b5090506124e2919061273b565b5090565b828054828255906000526020600020908101928215612535579160200282015b82811115612534578251829080519060200190612524929190612466565b5091602001919060010190612506565b5b5090506125429190612760565b5090565b828054828255906000526020600020908101928215612595579160200282015b828111156125945782518290805190602001906125849291906124e6565b5091602001919060010190612566565b5b5090506125a2919061278c565b5090565b828054600181600116156101000203166002900490600052602060002090601f016020900481019282601f106125e757805160ff1916838001178555612615565b82800160010185558215612615579182015b828111156126145782518255916020019190600101906125f9565b5b509050612622919061273b565b5090565b50805460018160011615610100020316600290046000825580601f1061264c575061266b565b601f01602090049060005260206000209081019061266a919061273b565b5b50565b60405180610160016040528060608152602001606081526020016060815260200160608152602001606081526020016060815260200160608152602001606081526020016060815260200160608152602001606081525090565b8280548282559060005260206000209081019282156127095760005260206000209182015b828111156127085782548255916001019190600101906126ed565b5b50905061271691906127b8565b5090565b508054600082559060005260206000209081019061273891906127b8565b50565b61275d91905b80821115612759576000816000905550600101612741565b5090565b90565b61278991905b80821115612785576000818161277c9190612626565b50600101612766565b5090565b90565b6127b591905b808211156127b157600081816127a891906127dd565b50600101612792565b5090565b90565b6127da91905b808211156127d65760008160009055506001016127be565b5090565b90565b50805460008255906000526020600020908101906127fb9190612760565b50565b60008135905061280d81613b21565b92915050565b600082601f83011261282457600080fd5b8135612837612832826138a1565b613874565b9150818183526020840193506020810190508360005b8381101561287d57813586016128638882612887565b84526020840193506020830192505060018101905061284d565b5050505092915050565b600082601f83011261289857600080fd5b81356128ab6128a6826138c9565b613874565b9150818183526020840193506020810190508360005b838110156128f157813586016128d78882612925565b8452602084019350602083019250506001810190506128c1565b5050505092915050565b60008135905061290a81613b38565b92915050565b60008151905061291f81613b38565b92915050565b600082601f83011261293657600080fd5b8135612949612944826138f1565b613874565b9150808252602083016020830185838301111561296557600080fd5b612970838284613ace565b50505092915050565b600082601f83011261298a57600080fd5b813561299d6129988261391d565b613874565b915080825260208301602083018583830111156129b957600080fd5b6129c4838284613ace565b50505092915050565b600061016082840312156129e057600080fd5b6129eb610160613874565b9050600082013567ffffffffffffffff811115612a0757600080fd5b612a1384828501612925565b600083015250602082013567ffffffffffffffff811115612a3357600080fd5b612a3f84828501612925565b602083015250604082013567ffffffffffffffff811115612a5f57600080fd5b612a6b84828501612925565b604083015250606082013567ffffffffffffffff811115612a8b57600080fd5b612a9784828501612925565b606083015250608082013567ffffffffffffffff811115612ab757600080fd5b612ac384828501612925565b60808301525060a082013567ffffffffffffffff811115612ae357600080fd5b612aef84828501612925565b60a08301525060c082013567ffffffffffffffff811115612b0f57600080fd5b612b1b84828501612925565b60c08301525060e082013567ffffffffffffffff811115612b3b57600080fd5b612b4784828501612925565b60e08301525061010082013567ffffffffffffffff811115612b6857600080fd5b612b7484828501612925565b6101008301525061012082013567ffffffffffffffff811115612b9657600080fd5b612ba284828501612887565b6101208301525061014082013567ffffffffffffffff811115612bc457600080fd5b612bd084828501612813565b6101408301525092915050565b600060208284031215612bef57600080fd5b6000612bfd848285016127fe565b91505092915050565b600060208284031215612c1857600080fd5b6000612c26848285016128fb565b91505092915050565b600060208284031215612c4157600080fd5b6000612c4f84828501612910565b91505092915050565b60008060408385031215612c6b57600080fd5b6000612c79858286016128fb565b9250506020612c8a858286016128fb565b9150509250929050565b600060208284031215612ca657600080fd5b600082013567ffffffffffffffff811115612cc057600080fd5b612ccc84828501612979565b91505092915050565b60008060408385031215612ce857600080fd5b600083013567ffffffffffffffff811115612d0257600080fd5b612d0e85828601612979565b925050602083013567ffffffffffffffff811115612d2b57600080fd5b612d3785828601612979565b9150509250929050565b600080600060608486031215612d5657600080fd5b600084013567ffffffffffffffff811115612d7057600080fd5b612d7c86828701612979565b935050602084013567ffffffffffffffff811115612d9957600080fd5b612da586828701612979565b925050604084013567ffffffffffffffff811115612dc257600080fd5b612dce86828701612979565b9150509250925092565b60008060408385031215612deb57600080fd5b600083013567ffffffffffffffff811115612e0557600080fd5b612e11858286016129cd565b9250506020612e22858286016128fb565b9150509250929050565b6000612e388383612fc3565b905092915050565b6000612e4c8383613047565b60208301905092915050565b6000612e6483836130c7565b905092915050565b612e7581613a86565b82525050565b6000612e8682613989565b612e908185613a0a565b935083602082028501612ea285613949565b8060005b85811015612ede5784840389528151612ebf8582612e2c565b9450612eca836139d6565b925060208a01995050600181019050612ea6565b50829750879550505050505092915050565b6000612efb82613994565b612f058185613a1b565b9350612f1083613959565b8060005b83811015612f41578151612f288882612e40565b9750612f33836139e3565b925050600181019050612f14565b5085935050505092915050565b6000612f59826139aa565b612f638185613a3d565b935083602082028501612f7585613979565b8060005b85811015612fb15784840389528151612f928582612e58565b9450612f9d836139fd565b925060208a01995050600181019050612f79565b50829750879550505050505092915050565b6000612fce8261399f565b612fd88185613a2c565b935083602082028501612fea85613969565b8060005b8581101561302657848403895281516130078582612e58565b9450613012836139f0565b925060208a01995050600181019050612fee565b50829750879550505050505092915050565b61304181613a98565b82525050565b61305081613aa4565b82525050565b61305f81613aa4565b82525050565b6000613070826139b5565b61307a8185613a4e565b935061308a818560208601613add565b80840191505092915050565b60006130a1826139cb565b6130ab8185613a7b565b93506130bb818560208601613add565b80840191505092915050565b60006130d2826139c0565b6130dc8185613a59565b93506130ec818560208601613add565b6130f581613b10565b840191505092915050565b600061310d602183613a6a565b91507f5468617420656d706c6f79656520616c726561647920776f726b73207468657260008301527f65000000000000000000000000000000000000000000000000000000000000006020830152604082019050919050565b6000613173602983613a6a565b91507f596f75206d7573742062652061206465616c657273686970206f776e6572207460008301527f6f20646f207468697300000000000000000000000000000000000000000000006020830152604082019050919050565b60006131d9601e83613a6a565b91507f54686174207375627365727669636520616c72656164792065786973747300006000830152602082019050919050565b6000613219602183613a6a565b91507f4e6f206170706c69636174696f6e2065786973747320666f722074686174206960008301527f64000000000000000000000000000000000000000000000000000000000000006020830152604082019050919050565b600061327f602183613a6a565b91507f4d6178696d756d207375627365727669636520616d6f756e742072656163686560008301527f64000000000000000000000000000000000000000000000000000000000000006020830152604082019050919050565b60006132e5601583613a6a565b91507f596f7520617265206e6f7420746865206f776e657200000000000000000000006000830152602082019050919050565b6000613325602c83613a6a565b91507f54686174207375627365727669636520646f65736e7420657869737420696e2060008301527f7468697320636f6e7465787400000000000000000000000000000000000000006020830152604082019050919050565b600061338b601b83613a6a565b91507f54686174207365727669636520646f6573206e6f7420657869737400000000006000830152602082019050919050565b60006133cb602283613a6a565b91507f54686174206164647265737320697320616c726561647920726567697374657260008301527f65640000000000000000000000000000000000000000000000000000000000006020830152604082019050919050565b6000613431601b83613a6a565b91507f54686174207365727669636520616c72656164792065786973747300000000006000830152602082019050919050565b6000613471602883613a6a565b91507f54686572652061726520746865206d6178696d756d206e756d626572206f662060008301527f73657276696365730000000000000000000000000000000000000000000000006020830152604082019050919050565b60006101608301600083015184820360008601526134e882826130c7565b9150506020830151848203602086015261350282826130c7565b9150506040830151848203604086015261351c82826130c7565b9150506060830151848203606086015261353682826130c7565b9150506080830151848203608086015261355082826130c7565b91505060a083015184820360a086015261356a82826130c7565b91505060c083015184820360c086015261358482826130c7565b91505060e083015184820360e086015261359e82826130c7565b9150506101008301518482036101008601526135ba82826130c7565b9150506101208301518482036101208601526135d68282612fc3565b9150506101408301518482036101408601526135f28282612e7b565b9150508091505092915050565b600061360b8284613065565b915081905092915050565b60006136228284613096565b915081905092915050565b60006020820190506136426000830184612e6c565b92915050565b600060208201905081810360008301526136628184612ef0565b905092915050565b600060208201905081810360008301526136848184612f4e565b905092915050565b60006020820190506136a16000830184613038565b92915050565b60006020820190506136bc6000830184613056565b92915050565b600060208201905081810360008301526136db81613100565b9050919050565b600060208201905081810360008301526136fb81613166565b9050919050565b6000602082019050818103600083015261371b816131cc565b9050919050565b6000602082019050818103600083015261373b8161320c565b9050919050565b6000602082019050818103600083015261375b81613272565b9050919050565b6000602082019050818103600083015261377b816132d8565b9050919050565b6000602082019050818103600083015261379b81613318565b9050919050565b600060208201905081810360008301526137bb8161337e565b9050919050565b600060208201905081810360008301526137db816133be565b9050919050565b600060208201905081810360008301526137fb81613424565b9050919050565b6000602082019050818103600083015261381b81613464565b9050919050565b6000602082019050818103600083015261383c81846134ca565b905092915050565b6000604082019050818103600083015261385e81856134ca565b905061386d6020830184613056565b9392505050565b6000604051905081810181811067ffffffffffffffff8211171561389757600080fd5b8060405250919050565b600067ffffffffffffffff8211156138b857600080fd5b602082029050602081019050919050565b600067ffffffffffffffff8211156138e057600080fd5b602082029050602081019050919050565b600067ffffffffffffffff82111561390857600080fd5b601f19601f8301169050602081019050919050565b600067ffffffffffffffff82111561393457600080fd5b601f19601f8301169050602081019050919050565b6000819050602082019050919050565b6000819050602082019050919050565b6000819050602082019050919050565b6000819050602082019050919050565b600081519050919050565b600081519050919050565b600081519050919050565b600081519050919050565b600081519050919050565b600081519050919050565b600081519050919050565b6000602082019050919050565b6000602082019050919050565b6000602082019050919050565b6000602082019050919050565b600082825260208201905092915050565b600082825260208201905092915050565b600082825260208201905092915050565b600082825260208201905092915050565b600081905092915050565b600082825260208201905092915050565b600082825260208201905092915050565b600081905092915050565b6000613a9182613aae565b9050919050565b60008115159050919050565b6000819050919050565b600073ffffffffffffffffffffffffffffffffffffffff82169050919050565b82818337600083830152505050565b60005b83811015613afb578082015181840152602081019050613ae0565b83811115613b0a576000848401525b50505050565b6000601f19601f8301169050919050565b613b2a81613a86565b8114613b3557600080fd5b50565b613b4181613aa4565b8114613b4c57600080fd5b5056fea365627a7a72315820ee703c5d0ad97636c51e606b20c1a09054a82709fd5d77884d3b1ef50de0e5c06c6578706572696d656e74616cf564736f6c634300050c0040",
  "source": "pragma solidity ^0.5.11;\npragma experimental ABIEncoderV2;\n\nimport \"./DealerContract.sol\";\n\ncontract ServiceHandler is DealerContract {\n\n    function encode(string memory str) internal pure returns (bytes32) {\n        return keccak256(abi.encodePacked(str));\n    }\n\n    uint8 noOfServices;\n    uint8 totalNoServices = 254;\n\n    modifier serviceExists(string memory serviceName){\n        require(containsService(serviceName),\"That service does not exist\");\n        _;\n    }\n\n    modifier serviceNotExists(string memory serviceName){\n        require(!containsService(serviceName),\"That service already exists\");\n        _;\n    }\n\n    modifier servicesNotFull{\n        require(noOfServices <= totalNoServices,\"There are the maximum number of services\");\n        _;\n    }\n\n    mapping(uint8 => string) private services;\n\n    function getIndexOfService(string memory serviceName) internal view returns (uint8) {\n        bytes32 service = encode(serviceName);\n        for(uint8 i = 0; i < totalNoServices; i++){\n            if(bytes(services[i]).length > 0 && encode(services[i]) == service){\n                return i;\n            }\n        }\n        return 255;\n    }\n\n    function containsService(string memory serviceName) internal view returns (bool){\n        return getIndexOfService(serviceName) < totalNoServices;\n    }\n\n    function addService(string memory serviceName) public ownerOnly serviceNotExists(serviceName) servicesNotFull {\n        //Returns true if service was successfully added\n        //False if service already exists\n        for(uint8 i = 0; i < totalNoServices; i++){\n            if(bytes(services[i]).length <= 0){\n                services[i] = serviceName;\n                noOfServices++;\n                return;\n            }\n        }\n    }\n\n    function editServiceName(string memory oldName, string memory newName) public ownerOnly serviceExists(oldName) {\n        services[getIndexOfService(oldName)] = newName;\n    }\n\n    function deleteService(string memory serviceName) public ownerOnly serviceExists(serviceName) {\n        services[getIndexOfService(serviceName)] = \"\";\n        noOfServices--;\n    }\n\n    function getServices() public view returns (string[] memory) {\n        string[] memory existingServices = new string[](noOfServices);\n        uint8 serviceIndex = 0;\n        for(uint8 i = 0; i < totalNoServices; i++){\n            if(bytes(services[i]).length > 0){\n                existingServices[serviceIndex++] = services[i];\n            }\n        }\n        return existingServices;\n    }\n\n    //-----------------------------_Subservices_----------------------------\n\n    mapping(string => string[]) private subServices;\n\n    modifier subServiceExists(string memory serviceName, string memory subServiceName){\n        require(containsSubService(serviceName,subServiceName),\"That subservice doesnt exist in this context\");\n        _;\n    }\n    modifier subServiceNotExists(string memory serviceName, string memory subServiceName){\n        require(!containsSubService(serviceName,subServiceName),\"That subservice already exists\");\n        _;\n    }\n\n    modifier subservicesNotFull(string memory serviceName){\n        require(subServices[serviceName].length < 255,\"Maximum subservice amount reached\");\n        _;\n    }\n\n    function getIndexOfSubService(string memory serviceName, string memory subServiceName) internal view returns (uint) {\n        for(uint8 i = 0; i < subServices[serviceName].length; i++){\n            if(encode(subServices[serviceName][i]) == encode(subServiceName)){\n                return i;\n            }\n        }\n        return 255;\n    }\n\n    function containsSubService(string memory serviceName, string memory subServiceName) internal view returns (bool) {\n        return getIndexOfSubService(serviceName,subServiceName) < 255;\n    }\n\n    function addSubService(string memory serviceName, string memory subServiceName)\n     public subservicesNotFull(serviceName) subServiceNotExists(serviceName,subServiceName) ownerOnly {\n        //Returns true if service does not already exist\n        subServices[serviceName].push(subServiceName);\n    }\n\n    function editSubServiceName(string memory serviceName, string memory oldName, string memory newName)\n     public subServiceExists(serviceName,oldName) ownerOnly {\n        subServices[serviceName][getIndexOfSubService(serviceName,oldName)] = newName;\n    }\n\n    function deleteSubService(string memory serviceName, string memory subServiceName)\n     public ownerOnly subServiceExists(serviceName,subServiceName) {\n        //TODO Shift elements manually\n        delete subServices[serviceName][getIndexOfSubService(serviceName,subServiceName)];\n    }\n\n    function getSubServices(string memory serviceName) public view returns (string[] memory) {\n        return subServices[serviceName];\n    }\n}\n",
  "sourcePath": "/Users/mapring/Documents/school/blockchain/blockchain-project-2019/contracts/ServiceHandler.sol",
  "compiler": {
    "name": "solc",
    "version": "0.5.12+commit.7709ece9.Emscripten.clang"
  },
  "schemaVersion": "3.0.19",
  "updatedAt": "2019-11-23T17:45:06.300Z",
  "networkType": "ethereum",
  "devdoc": {
    "methods": {}
  },
  "userdoc": {
    "methods": {}
  }
}