{
  "contractName": "UserContract",
  "abi": [
    {
      "anonymous": false,
      "inputs": [
        {
          "components": [
            {
              "internalType": "string",
              "name": "dealerName",
              "type": "string"
            },
            {
              "internalType": "string",
              "name": "firstName",
              "type": "string"
            },
            {
              "internalType": "string",
              "name": "lastName",
              "type": "string"
            },
            {
              "internalType": "string",
              "name": "addr",
              "type": "string"
            },
            {
              "internalType": "string",
              "name": "location",
              "type": "string"
            },
            {
              "internalType": "string",
              "name": "phoneNo",
              "type": "string"
            },
            {
              "internalType": "string",
              "name": "bestSeller",
              "type": "string"
            },
            {
              "internalType": "string",
              "name": "promotion",
              "type": "string"
            },
            {
              "internalType": "string",
              "name": "otherServices",
              "type": "string"
            },
            {
              "internalType": "string[]",
              "name": "availableServices",
              "type": "string[]"
            },
            {
              "internalType": "string[][]",
              "name": "availableSubServices",
              "type": "string[][]"
            }
          ],
          "indexed": false,
          "internalType": "struct DealerContract.DealerInfo",
          "name": "info",
          "type": "tuple"
        },
        {
          "indexed": false,
          "internalType": "bytes32",
          "name": "id",
          "type": "bytes32"
        }
      ],
      "name": "CreateDealerApplication",
      "type": "event"
    },
    {
      "constant": false,
      "inputs": [
        {
          "internalType": "bytes32",
          "name": "dealerId",
          "type": "bytes32"
        },
        {
          "internalType": "bytes32",
          "name": "adr",
          "type": "bytes32"
        }
      ],
      "name": "addDealerEmployee",
      "outputs": [],
      "payable": false,
      "stateMutability": "nonpayable",
      "type": "function"
    },
    {
      "constant": false,
      "inputs": [
        {
          "internalType": "string",
          "name": "serviceName",
          "type": "string"
        }
      ],
      "name": "addService",
      "outputs": [],
      "payable": false,
      "stateMutability": "nonpayable",
      "type": "function"
    },
    {
      "constant": false,
      "inputs": [
        {
          "internalType": "string",
          "name": "serviceName",
          "type": "string"
        },
        {
          "internalType": "string",
          "name": "subServiceName",
          "type": "string"
        }
      ],
      "name": "addSubService",
      "outputs": [],
      "payable": false,
      "stateMutability": "nonpayable",
      "type": "function"
    },
    {
      "constant": false,
      "inputs": [
        {
          "internalType": "bytes32",
          "name": "adr",
          "type": "bytes32"
        }
      ],
      "name": "approveApplication",
      "outputs": [],
      "payable": false,
      "stateMutability": "nonpayable",
      "type": "function"
    },
    {
      "constant": false,
      "inputs": [
        {
          "components": [
            {
              "internalType": "string",
              "name": "dealerName",
              "type": "string"
            },
            {
              "internalType": "string",
              "name": "firstName",
              "type": "string"
            },
            {
              "internalType": "string",
              "name": "lastName",
              "type": "string"
            },
            {
              "internalType": "string",
              "name": "addr",
              "type": "string"
            },
            {
              "internalType": "string",
              "name": "location",
              "type": "string"
            },
            {
              "internalType": "string",
              "name": "phoneNo",
              "type": "string"
            },
            {
              "internalType": "string",
              "name": "bestSeller",
              "type": "string"
            },
            {
              "internalType": "string",
              "name": "promotion",
              "type": "string"
            },
            {
              "internalType": "string",
              "name": "otherServices",
              "type": "string"
            },
            {
              "internalType": "string[]",
              "name": "availableServices",
              "type": "string[]"
            },
            {
              "internalType": "string[][]",
              "name": "availableSubServices",
              "type": "string[][]"
            }
          ],
          "internalType": "struct DealerContract.DealerInfo",
          "name": "info",
          "type": "tuple"
        },
        {
          "internalType": "bytes32",
          "name": "id",
          "type": "bytes32"
        }
      ],
      "name": "createDealerApplication",
      "outputs": [],
      "payable": false,
      "stateMutability": "nonpayable",
      "type": "function"
    },
    {
      "constant": false,
      "inputs": [
        {
          "internalType": "string",
          "name": "serviceName",
          "type": "string"
        }
      ],
      "name": "deleteService",
      "outputs": [],
      "payable": false,
      "stateMutability": "nonpayable",
      "type": "function"
    },
    {
      "constant": false,
      "inputs": [
        {
          "internalType": "string",
          "name": "serviceName",
          "type": "string"
        },
        {
          "internalType": "string",
          "name": "subServiceName",
          "type": "string"
        }
      ],
      "name": "deleteSubService",
      "outputs": [],
      "payable": false,
      "stateMutability": "nonpayable",
      "type": "function"
    },
    {
      "constant": false,
      "inputs": [
        {
          "components": [
            {
              "internalType": "string",
              "name": "dealerName",
              "type": "string"
            },
            {
              "internalType": "string",
              "name": "firstName",
              "type": "string"
            },
            {
              "internalType": "string",
              "name": "lastName",
              "type": "string"
            },
            {
              "internalType": "string",
              "name": "addr",
              "type": "string"
            },
            {
              "internalType": "string",
              "name": "location",
              "type": "string"
            },
            {
              "internalType": "string",
              "name": "phoneNo",
              "type": "string"
            },
            {
              "internalType": "string",
              "name": "bestSeller",
              "type": "string"
            },
            {
              "internalType": "string",
              "name": "promotion",
              "type": "string"
            },
            {
              "internalType": "string",
              "name": "otherServices",
              "type": "string"
            },
            {
              "internalType": "string[]",
              "name": "availableServices",
              "type": "string[]"
            },
            {
              "internalType": "string[][]",
              "name": "availableSubServices",
              "type": "string[][]"
            }
          ],
          "internalType": "struct DealerContract.DealerInfo",
          "name": "info",
          "type": "tuple"
        },
        {
          "internalType": "bytes32",
          "name": "id",
          "type": "bytes32"
        }
      ],
      "name": "editDealerInfo",
      "outputs": [],
      "payable": false,
      "stateMutability": "nonpayable",
      "type": "function"
    },
    {
      "constant": false,
      "inputs": [
        {
          "internalType": "string",
          "name": "oldName",
          "type": "string"
        },
        {
          "internalType": "string",
          "name": "newName",
          "type": "string"
        }
      ],
      "name": "editServiceName",
      "outputs": [],
      "payable": false,
      "stateMutability": "nonpayable",
      "type": "function"
    },
    {
      "constant": false,
      "inputs": [
        {
          "internalType": "string",
          "name": "serviceName",
          "type": "string"
        },
        {
          "internalType": "string",
          "name": "oldName",
          "type": "string"
        },
        {
          "internalType": "string",
          "name": "newName",
          "type": "string"
        }
      ],
      "name": "editSubServiceName",
      "outputs": [],
      "payable": false,
      "stateMutability": "nonpayable",
      "type": "function"
    },
    {
      "constant": true,
      "inputs": [],
      "name": "getAllDealerApplications",
      "outputs": [
        {
          "internalType": "bytes32[]",
          "name": "",
          "type": "bytes32[]"
        }
      ],
      "payable": false,
      "stateMutability": "view",
      "type": "function"
    },
    {
      "constant": true,
      "inputs": [
        {
          "internalType": "bytes32",
          "name": "id",
          "type": "bytes32"
        }
      ],
      "name": "getDealerInfo",
      "outputs": [
        {
          "components": [
            {
              "internalType": "string",
              "name": "dealerName",
              "type": "string"
            },
            {
              "internalType": "string",
              "name": "firstName",
              "type": "string"
            },
            {
              "internalType": "string",
              "name": "lastName",
              "type": "string"
            },
            {
              "internalType": "string",
              "name": "addr",
              "type": "string"
            },
            {
              "internalType": "string",
              "name": "location",
              "type": "string"
            },
            {
              "internalType": "string",
              "name": "phoneNo",
              "type": "string"
            },
            {
              "internalType": "string",
              "name": "bestSeller",
              "type": "string"
            },
            {
              "internalType": "string",
              "name": "promotion",
              "type": "string"
            },
            {
              "internalType": "string",
              "name": "otherServices",
              "type": "string"
            },
            {
              "internalType": "string[]",
              "name": "availableServices",
              "type": "string[]"
            },
            {
              "internalType": "string[][]",
              "name": "availableSubServices",
              "type": "string[][]"
            }
          ],
          "internalType": "struct DealerContract.DealerInfo",
          "name": "",
          "type": "tuple"
        }
      ],
      "payable": false,
      "stateMutability": "view",
      "type": "function"
    },
    {
      "constant": true,
      "inputs": [
        {
          "internalType": "string",
          "name": "id",
          "type": "string"
        }
      ],
      "name": "getHash",
      "outputs": [
        {
          "internalType": "bytes32",
          "name": "",
          "type": "bytes32"
        }
      ],
      "payable": false,
      "stateMutability": "pure",
      "type": "function"
    },
    {
      "constant": true,
      "inputs": [],
      "name": "getServices",
      "outputs": [
        {
          "internalType": "string[]",
          "name": "",
          "type": "string[]"
        }
      ],
      "payable": false,
      "stateMutability": "view",
      "type": "function"
    },
    {
      "constant": true,
      "inputs": [
        {
          "internalType": "string",
          "name": "serviceName",
          "type": "string"
        }
      ],
      "name": "getSubServices",
      "outputs": [
        {
          "internalType": "string[]",
          "name": "",
          "type": "string[]"
        }
      ],
      "payable": false,
      "stateMutability": "view",
      "type": "function"
    },
    {
      "constant": true,
      "inputs": [
        {
          "internalType": "bytes32",
          "name": "adr",
          "type": "bytes32"
        }
      ],
      "name": "isVerified",
      "outputs": [
        {
          "internalType": "bool",
          "name": "",
          "type": "bool"
        }
      ],
      "payable": false,
      "stateMutability": "view",
      "type": "function"
    },
    {
      "constant": true,
      "inputs": [],
      "name": "owner",
      "outputs": [
        {
          "internalType": "address",
          "name": "",
          "type": "address"
        }
      ],
      "payable": false,
      "stateMutability": "view",
      "type": "function"
    },
    {
      "constant": false,
      "inputs": [
        {
          "internalType": "bytes32",
          "name": "dealershipId",
          "type": "bytes32"
        },
        {
          "internalType": "bytes32",
          "name": "otherId",
          "type": "bytes32"
        }
      ],
      "name": "transferDealershipOwner",
      "outputs": [],
      "payable": false,
      "stateMutability": "nonpayable",
      "type": "function"
    },
    {
      "constant": false,
      "inputs": [
        {
          "internalType": "address",
          "name": "newOwner",
          "type": "address"
        }
      ],
      "name": "transferOwner",
      "outputs": [],
      "payable": false,
      "stateMutability": "nonpayable",
      "type": "function"
    },
    {
      "constant": false,
      "inputs": [
        {
          "internalType": "bytes32",
          "name": "userId",
          "type": "bytes32"
        },
        {
          "components": [
            {
              "internalType": "string",
              "name": "firstName",
              "type": "string"
            },
            {
              "internalType": "string",
              "name": "lastName",
              "type": "string"
            },
            {
              "internalType": "string",
              "name": "adr",
              "type": "string"
            },
            {
              "internalType": "string",
              "name": "phNo",
              "type": "string"
            },
            {
              "internalType": "string",
              "name": "email",
              "type": "string"
            }
          ],
          "internalType": "struct UserContract.UserInfo",
          "name": "info",
          "type": "tuple"
        }
      ],
      "name": "editUserInfo",
      "outputs": [],
      "payable": false,
      "stateMutability": "nonpayable",
      "type": "function"
    },
    {
      "constant": true,
      "inputs": [
        {
          "internalType": "bytes32",
          "name": "userId",
          "type": "bytes32"
        }
      ],
      "name": "getUserInfo",
      "outputs": [
        {
          "components": [
            {
              "internalType": "string",
              "name": "firstName",
              "type": "string"
            },
            {
              "internalType": "string",
              "name": "lastName",
              "type": "string"
            },
            {
              "internalType": "string",
              "name": "adr",
              "type": "string"
            },
            {
              "internalType": "string",
              "name": "phNo",
              "type": "string"
            },
            {
              "internalType": "string",
              "name": "email",
              "type": "string"
            }
          ],
          "internalType": "struct UserContract.UserInfo",
          "name": "",
          "type": "tuple"
        }
      ],
      "payable": false,
      "stateMutability": "view",
      "type": "function"
    },
    {
      "constant": false,
      "inputs": [
        {
          "internalType": "bytes32",
          "name": "userId",
          "type": "bytes32"
        },
        {
          "internalType": "string",
          "name": "noPlate",
          "type": "string"
        },
        {
          "components": [
            {
              "internalType": "string",
              "name": "brand",
              "type": "string"
            },
            {
              "internalType": "string",
              "name": "model",
              "type": "string"
            },
            {
              "internalType": "string",
              "name": "year",
              "type": "string"
            }
          ],
          "internalType": "struct UserContract.CarInfo",
          "name": "carInfo",
          "type": "tuple"
        }
      ],
      "name": "editCarDetails",
      "outputs": [],
      "payable": false,
      "stateMutability": "nonpayable",
      "type": "function"
    },
    {
      "constant": true,
      "inputs": [
        {
          "internalType": "bytes32",
          "name": "userId",
          "type": "bytes32"
        }
      ],
      "name": "getCars",
      "outputs": [
        {
          "components": [
            {
              "internalType": "string",
              "name": "brand",
              "type": "string"
            },
            {
              "internalType": "string",
              "name": "model",
              "type": "string"
            },
            {
              "internalType": "string",
              "name": "year",
              "type": "string"
            }
          ],
          "internalType": "struct UserContract.CarInfo[]",
          "name": "",
          "type": "tuple[]"
        }
      ],
      "payable": false,
      "stateMutability": "view",
      "type": "function"
    },
    {
      "constant": false,
      "inputs": [
        {
          "internalType": "bytes32",
          "name": "dealerId",
          "type": "bytes32"
        },
        {
          "internalType": "bytes32",
          "name": "id",
          "type": "bytes32"
        },
        {
          "internalType": "string",
          "name": "noPlate",
          "type": "string"
        },
        {
          "internalType": "string[]",
          "name": "services",
          "type": "string[]"
        },
        {
          "internalType": "string[]",
          "name": "subservices",
          "type": "string[]"
        },
        {
          "internalType": "string",
          "name": "comment",
          "type": "string"
        },
        {
          "internalType": "uint256",
          "name": "timeStamp",
          "type": "uint256"
        }
      ],
      "name": "insertRecord",
      "outputs": [],
      "payable": false,
      "stateMutability": "nonpayable",
      "type": "function"
    },
    {
      "constant": true,
      "inputs": [
        {
          "internalType": "string",
          "name": "noPlate",
          "type": "string"
        }
      ],
      "name": "getRecords",
      "outputs": [
        {
          "components": [
            {
              "internalType": "string[]",
              "name": "services",
              "type": "string[]"
            },
            {
              "internalType": "string[]",
              "name": "subservices",
              "type": "string[]"
            },
            {
              "internalType": "string",
              "name": "comment",
              "type": "string"
            },
            {
              "internalType": "uint256",
              "name": "timeStamp",
              "type": "uint256"
            }
          ],
          "internalType": "struct UserContract.RecordInternal[]",
          "name": "",
          "type": "tuple[]"
        }
      ],
      "payable": false,
      "stateMutability": "view",
      "type": "function"
    }
  ],
  "bytecode": "0x608060405260fe600660016101000a81548160ff021916908360ff160217905550336000806101000a81548173ffffffffffffffffffffffffffffffffffffffff021916908373ffffffffffffffffffffffffffffffffffffffff1602179055506154c68061006f6000396000f3fe608060405234801561001057600080fd5b50600436106101735760003560e01c806375417851116100de5780638da5cb5b11610097578063c181b27311610071578063c181b2731461042e578063c4e91d171461045e578063c9b54a581461047a578063e445268c146104aa57610173565b80638da5cb5b146103c45780638ee24214146103e2578063adff8b0f146103fe57610173565b806375417851146102f05780637d17f13c1461030e5780637e41667f1461033e57806382d7afbd1461035c57806386e80b711461037857806388fcd194146103a857610173565b8063369bfce411610130578063369bfce414610220578063431a65fc1461023c5780634fb2e45d1461026c57806350fb95e3146102885780635b6beeb9146102a45780636fd7d2b5146102d457610173565b806307681038146101785780630ad5be91146101945780630eb7bc8f146101b05780631a4c85be146101cc5780631b8f47fe146101e85780632d4afc7b14610204575b600080fd5b610192600480360361018d91908101906141a3565b6104c6565b005b6101ae60048036036101a99190810190613e8e565b6106e9565b005b6101ca60048036036101c591908101906140a0565b6108b2565b005b6101e660048036036101e1919081019061405f565b6109c5565b005b61020260048036036101fd9190810190613e00565b610b19565b005b61021e600480360361021991908101906141a3565b610c43565b005b61023a600480360361023591908101906140a0565b610e02565b005b6102566004803603610251919081019061405f565b610f2a565b6040516102639190614e28565b60405180910390f35b61028660048036036102819190810190613dd7565b611031565b005b6102a2600480360361029d91908101906140a0565b611103565b005b6102be60048036036102b9919081019061405f565b6112a5565b6040516102cb9190614ea9565b60405180910390f35b6102ee60048036036102e9919081019061410c565b61131d565b005b6102f861144f565b6040516103059190614e28565b60405180910390f35b61032860048036036103239190810190613e00565b6115e2565b6040516103359190615064565b60405180910390f35b610346611ddb565b6040516103539190614e06565b60405180910390f35b61037660048036036103719190810190613e52565b611ec2565b005b610392600480360361038d919081019061405f565b612060565b60405161039f9190614e6c565b60405180910390f35b6103c260048036036103bd919081019061405f565b61235b565b005b6103cc61256c565b6040516103d99190614deb565b60405180910390f35b6103fc60048036036103f79190810190613f8c565b612591565b005b61041860048036036104139190810190613e00565b6126ba565b60405161042591906150b6565b60405180910390f35b61044860048036036104439190810190613e00565b612a11565b6040516104559190614e8e565b60405180910390f35b6104786004803603610473919081019061400b565b612a5c565b005b610494600480360361048f9190810190613e00565b612b08565b6040516104a19190614e4a565b60405180910390f35b6104c460048036036104bf9190810190613e52565b612de6565b005b6001600082815260200190815260200160002060009054906101000a900460ff1615610527576040517f08c379a000000000000000000000000000000000000000000000000000000000815260040161051e90614fe4565b60405180910390fd5b816004600083815260200190815260200160002060008201518160000190805190602001906105579291906133df565b5060208201518160010190805190602001906105749291906133df565b5060408201518160020190805190602001906105919291906133df565b5060608201518160030190805190602001906105ae9291906133df565b5060808201518160040190805190602001906105cb9291906133df565b5060a08201518160050190805190602001906105e89291906133df565b5060c08201518160060190805190602001906106059291906133df565b5060e08201518160070190805190602001906106229291906133df565b506101008201518160080190805190602001906106409291906133df565b5061012082015181600901908051906020019061065e92919061345f565b5061014082015181600a01908051906020019061067c9291906134bf565b5090505060058190806001815401808255809150509060018203906000526020600020016000909192909190915055507f42ab459ad3144922283159073eea05ed3ff810ab23fc94bbad43d99b9332dbb282826040516106dd929190615086565b60405180910390a15050565b866106f381612a11565b610732576040517f08c379a000000000000000000000000000000000000000000000000000000000815260040161072990615044565b60405180910390fd5b845184511115610777576040517f08c379a000000000000000000000000000000000000000000000000000000000815260040161076e90614f64565b60405180910390fd5b60006107838888612ef9565b12156107da57600b60008881526020019081526020016000208690806001815401808255809150509060018203906000526020600020016000909192909190915090805190602001906107d792919061351f565b50505b6009866040516107ea9190614dbd565b908152602001604051809103902060405180608001604052808781526020018681526020018581526020018481525090806001815401808255809150509060018203906000526020600020906004020160009091929091909150600082015181600001908051906020019061086092919061345f565b50602082015181600101908051906020019061087d92919061345f565b50604082015181600201908051906020019061089a9291906133df565b50606082015181600301555050505050505050505050565b6000809054906101000a900473ffffffffffffffffffffffffffffffffffffffff1673ffffffffffffffffffffffffffffffffffffffff163373ffffffffffffffffffffffffffffffffffffffff1614610941576040517f08c379a000000000000000000000000000000000000000000000000000000000815260040161093890614f84565b60405180910390fd5b8161094b8161306e565b61098a576040517f08c379a000000000000000000000000000000000000000000000000000000000815260040161098190614fc4565b60405180910390fd5b816007600061099886613097565b60ff1660ff16815260200190815260200160002090805190602001906109bf92919061351f565b50505050565b6000809054906101000a900473ffffffffffffffffffffffffffffffffffffffff1673ffffffffffffffffffffffffffffffffffffffff163373ffffffffffffffffffffffffffffffffffffffff1614610a54576040517f08c379a0000000000000000000000000000000000000000000000000000000008152600401610a4b90614f84565b60405180910390fd5b80610a5e8161306e565b610a9d576040517f08c379a0000000000000000000000000000000000000000000000000000000008152600401610a9490614fc4565b60405180910390fd5b6040518060200160405280600081525060076000610aba85613097565b60ff1660ff1681526020019081526020016000209080519060200190610ae192919061351f565b506006600081819054906101000a900460ff16809291906001900391906101000a81548160ff021916908360ff160217905550505050565b6000809054906101000a900473ffffffffffffffffffffffffffffffffffffffff1673ffffffffffffffffffffffffffffffffffffffff163373ffffffffffffffffffffffffffffffffffffffff1614610ba8576040517f08c379a0000000000000000000000000000000000000000000000000000000008152600401610b9f90614f84565b60405180910390fd5b6000610bb3826131e5565b90506000811215610bf9576040517f08c379a0000000000000000000000000000000000000000000000000000000008152600401610bf090614f24565b60405180910390fd5b600180600084815260200190815260200160002060006101000a81548160ff02191690831515021790555060058181548110610c3157fe5b90600052602060002001600090555050565b806001600082815260200190815260200160002060009054906101000a900460ff16610ca4576040517f08c379a0000000000000000000000000000000000000000000000000000000008152600401610c9b90614ee4565b60405180910390fd5b82600460008481526020019081526020016000206000820151816000019080519060200190610cd49291906133df565b506020820151816001019080519060200190610cf19291906133df565b506040820151816002019080519060200190610d0e9291906133df565b506060820151816003019080519060200190610d2b9291906133df565b506080820151816004019080519060200190610d489291906133df565b5060a0820151816005019080519060200190610d659291906133df565b5060c0820151816006019080519060200190610d829291906133df565b5060e0820151816007019080519060200190610d9f9291906133df565b50610100820151816008019080519060200190610dbd9291906133df565b50610120820151816009019080519060200190610ddb92919061345f565b5061014082015181600a019080519060200190610df99291906134bf565b50905050505050565b6000809054906101000a900473ffffffffffffffffffffffffffffffffffffffff1673ffffffffffffffffffffffffffffffffffffffff163373ffffffffffffffffffffffffffffffffffffffff1614610e91576040517f08c379a0000000000000000000000000000000000000000000000000000000008152600401610e8890614f84565b60405180910390fd5b8181610e9d8282613259565b610edc576040517f08c379a0000000000000000000000000000000000000000000000000000000008152600401610ed390614fa4565b60405180910390fd5b600884604051610eec9190614dbd565b9081526020016040518091039020610f048585613270565b81548110610f0e57fe5b906000526020600020016000610f24919061359f565b50505050565b6060600882604051610f3c9190614dbd565b9081526020016040518091039020805480602002602001604051908101604052809291908181526020016000905b82821015611026578382906000526020600020018054600181600116156101000203166002900480601f0160208091040260200160405190810160405280929190818152602001828054600181600116156101000203166002900480156110125780601f10610fe757610100808354040283529160200191611012565b820191906000526020600020905b815481529060010190602001808311610ff557829003601f168201915b505050505081526020019060010190610f6a565b505050509050919050565b6000809054906101000a900473ffffffffffffffffffffffffffffffffffffffff1673ffffffffffffffffffffffffffffffffffffffff163373ffffffffffffffffffffffffffffffffffffffff16146110c0576040517f08c379a00000000000000000000000000000000000000000000000000000000081526004016110b790614f84565b60405180910390fd5b806000806101000a81548173ffffffffffffffffffffffffffffffffffffffff021916908373ffffffffffffffffffffffffffffffffffffffff16021790555050565b8160ff6008826040516111169190614dbd565b90815260200160405180910390208054905010611168576040517f08c379a000000000000000000000000000000000000000000000000000000000815260040161115f90614f44565b60405180910390fd5b82826111748282613259565b156111b4576040517f08c379a00000000000000000000000000000000000000000000000000000000081526004016111ab90614f04565b60405180910390fd5b6000809054906101000a900473ffffffffffffffffffffffffffffffffffffffff1673ffffffffffffffffffffffffffffffffffffffff163373ffffffffffffffffffffffffffffffffffffffff1614611243576040517f08c379a000000000000000000000000000000000000000000000000000000000815260040161123a90614f84565b60405180910390fd5b6008856040516112539190614dbd565b908152602001604051809103902084908060018154018082558091505090600182039060005260206000200160009091929091909150908051906020019061129c92919061351f565b50505050505050565b60006002826040516020016112ba9190614dbd565b6040516020818303038152906040526040516112d69190614da6565b602060405180830381855afa1580156112f3573d6000803e3d6000fd5b5050506040513d601f19601f820116820180604052506113169190810190613e29565b9050919050565b82826113298282613259565b611368576040517f08c379a000000000000000000000000000000000000000000000000000000000815260040161135f90614fa4565b60405180910390fd5b6000809054906101000a900473ffffffffffffffffffffffffffffffffffffffff1673ffffffffffffffffffffffffffffffffffffffff163373ffffffffffffffffffffffffffffffffffffffff16146113f7576040517f08c379a00000000000000000000000000000000000000000000000000000000081526004016113ee90614f84565b60405180910390fd5b826008866040516114089190614dbd565b90815260200160405180910390206114208787613270565b8154811061142a57fe5b90600052602060002001908051906020019061144792919061351f565b505050505050565b606080600660009054906101000a900460ff1660ff1660405190808252806020026020018201604052801561149857816020015b60608152602001906001900390816114835790505b509050600080905060008090505b600660019054906101000a900460ff1660ff168160ff1610156115d9576000600760008360ff1660ff16815260200190815260200160002080546001816001161561010002031660029004905011156115cc57600760008260ff1660ff1681526020019081526020016000208054600181600116156101000203166002900480601f0160208091040260200160405190810160405280929190818152602001828054600181600116156101000203166002900480156115a65780601f1061157b576101008083540402835291602001916115a6565b820191906000526020600020905b81548152906001019060200180831161158957829003601f168201915b5050505050838380600101945060ff16815181106115c057fe5b60200260200101819052505b80806001019150506114a6565b50819250505090565b6115ea6135e7565b6004600083815260200190815260200160002060405180610160016040529081600082018054600181600116156101000203166002900480601f0160208091040260200160405190810160405280929190818152602001828054600181600116156101000203166002900480156116a25780601f10611677576101008083540402835291602001916116a2565b820191906000526020600020905b81548152906001019060200180831161168557829003601f168201915b50505050508152602001600182018054600181600116156101000203166002900480601f0160208091040260200160405190810160405280929190818152602001828054600181600116156101000203166002900480156117445780601f1061171957610100808354040283529160200191611744565b820191906000526020600020905b81548152906001019060200180831161172757829003601f168201915b50505050508152602001600282018054600181600116156101000203166002900480601f0160208091040260200160405190810160405280929190818152602001828054600181600116156101000203166002900480156117e65780601f106117bb576101008083540402835291602001916117e6565b820191906000526020600020905b8154815290600101906020018083116117c957829003601f168201915b50505050508152602001600382018054600181600116156101000203166002900480601f0160208091040260200160405190810160405280929190818152602001828054600181600116156101000203166002900480156118885780601f1061185d57610100808354040283529160200191611888565b820191906000526020600020905b81548152906001019060200180831161186b57829003601f168201915b50505050508152602001600482018054600181600116156101000203166002900480601f01602080910402602001604051908101604052809291908181526020018280546001816001161561010002031660029004801561192a5780601f106118ff5761010080835404028352916020019161192a565b820191906000526020600020905b81548152906001019060200180831161190d57829003601f168201915b50505050508152602001600582018054600181600116156101000203166002900480601f0160208091040260200160405190810160405280929190818152602001828054600181600116156101000203166002900480156119cc5780601f106119a1576101008083540402835291602001916119cc565b820191906000526020600020905b8154815290600101906020018083116119af57829003601f168201915b50505050508152602001600682018054600181600116156101000203166002900480601f016020809104026020016040519081016040528092919081815260200182805460018160011615610100020316600290048015611a6e5780601f10611a4357610100808354040283529160200191611a6e565b820191906000526020600020905b815481529060010190602001808311611a5157829003601f168201915b50505050508152602001600782018054600181600116156101000203166002900480601f016020809104026020016040519081016040528092919081815260200182805460018160011615610100020316600290048015611b105780601f10611ae557610100808354040283529160200191611b10565b820191906000526020600020905b815481529060010190602001808311611af357829003601f168201915b50505050508152602001600882018054600181600116156101000203166002900480601f016020809104026020016040519081016040528092919081815260200182805460018160011615610100020316600290048015611bb25780601f10611b8757610100808354040283529160200191611bb2565b820191906000526020600020905b815481529060010190602001808311611b9557829003601f168201915b5050505050815260200160098201805480602002602001604051908101604052809291908181526020016000905b82821015611c9c578382906000526020600020018054600181600116156101000203166002900480601f016020809104026020016040519081016040528092919081815260200182805460018160011615610100020316600290048015611c885780601f10611c5d57610100808354040283529160200191611c88565b820191906000526020600020905b815481529060010190602001808311611c6b57829003601f168201915b505050505081526020019060010190611be0565b505050508152602001600a8201805480602002602001604051908101604052809291908181526020016000905b82821015611dcc57838290600052602060002001805480602002602001604051908101604052809291908181526020016000905b82821015611db9578382906000526020600020018054600181600116156101000203166002900480601f016020809104026020016040519081016040528092919081815260200182805460018160011615610100020316600290048015611da55780601f10611d7a57610100808354040283529160200191611da5565b820191906000526020600020905b815481529060010190602001808311611d8857829003601f168201915b505050505081526020019060010190611cfd565b5050505081526020019060010190611cc9565b50505050815250509050919050565b60606000809054906101000a900473ffffffffffffffffffffffffffffffffffffffff1673ffffffffffffffffffffffffffffffffffffffff163373ffffffffffffffffffffffffffffffffffffffff1614611e6c576040517f08c379a0000000000000000000000000000000000000000000000000000000008152600401611e6390614f84565b60405180910390fd5b6005805480602002602001604051908101604052809291908181526020018280548015611eb857602002820191906000526020600020905b815481526020019060010190808311611ea4575b5050505050905090565b816001600082815260200190815260200160002060009054906101000a900460ff16611f23576040517f08c379a0000000000000000000000000000000000000000000000000000000008152600401611f1a90614ee4565b60405180910390fd5b600180600084815260200190815260200160002060006101000a81548160ff02191690831515021790555060006001600085815260200190815260200160002060006101000a81548160ff0219169083151502179055506000801b60036000848152602001908152602001600020819055506002600084815260200190815260200160002060026000848152602001908152602001600020908054611fc9929190613641565b50600260008481526020019081526020016000206000611fe99190613693565b60008090505b600260008481526020019081526020016000208054905081101561205a57826003600060026000878152602001908152602001600020848154811061203057fe5b90600052602060002001548152602001908152602001600020819055508080600101915050611fef565b50505050565b60606009826040516120729190614dbd565b9081526020016040518091039020805480602002602001604051908101604052809291908181526020016000905b82821015612350578382906000526020600020906004020160405180608001604052908160008201805480602002602001604051908101604052809291908181526020016000905b828210156121a4578382906000526020600020018054600181600116156101000203166002900480601f0160208091040260200160405190810160405280929190818152602001828054600181600116156101000203166002900480156121905780601f1061216557610100808354040283529160200191612190565b820191906000526020600020905b81548152906001019060200180831161217357829003601f168201915b5050505050815260200190600101906120e8565b50505050815260200160018201805480602002602001604051908101604052809291908181526020016000905b8282101561228d578382906000526020600020018054600181600116156101000203166002900480601f0160208091040260200160405190810160405280929190818152602001828054600181600116156101000203166002900480156122795780601f1061224e57610100808354040283529160200191612279565b820191906000526020600020905b81548152906001019060200180831161225c57829003601f168201915b5050505050815260200190600101906121d1565b505050508152602001600282018054600181600116156101000203166002900480601f01602080910402602001604051908101604052809291908181526020018280546001816001161561010002031660029004801561232e5780601f106123035761010080835404028352916020019161232e565b820191906000526020600020905b81548152906001019060200180831161231157829003601f168201915b50505050508152602001600382015481525050815260200190600101906120a0565b505050509050919050565b6000809054906101000a900473ffffffffffffffffffffffffffffffffffffffff1673ffffffffffffffffffffffffffffffffffffffff163373ffffffffffffffffffffffffffffffffffffffff16146123ea576040517f08c379a00000000000000000000000000000000000000000000000000000000081526004016123e190614f84565b60405180910390fd5b806123f48161306e565b15612434576040517f08c379a000000000000000000000000000000000000000000000000000000000815260040161242b90615004565b60405180910390fd5b600660019054906101000a900460ff1660ff16600660009054906101000a900460ff1660ff16111561249b576040517f08c379a000000000000000000000000000000000000000000000000000000000815260040161249290615024565b60405180910390fd5b60008090505b600660019054906101000a900460ff1660ff168160ff161015612566576000600760008360ff1660ff168152602001908152602001600020805460018160011615610100020316600290049050116125595782600760008360ff1660ff168152602001908152602001600020908051906020019061252092919061351f565b506006600081819054906101000a900460ff168092919060010191906101000a81548160ff021916908360ff1602179055505050612568565b80806001019150506124a1565b505b5050565b6000809054906101000a900473ffffffffffffffffffffffffffffffffffffffff1681565b80600c836040516125a29190614dbd565b908152602001604051809103902060008201518160000190805190602001906125cc9291906133df565b5060208201518160010190805190602001906125e99291906133df565b5060408201518160020190805190602001906126069291906133df565b5090505060006126168484612ef9565b9050600081121561267657600b600085815260200190815260200160002083908060018154018082558091505090600182039060005260206000200160009091929091909150908051906020019061266f92919061351f565b50506126b4565b82600b6000868152602001908152602001600020828154811061269557fe5b9060005260206000200190805190602001906126b292919061351f565b505b50505050565b6126c26136b4565b600a60008381526020019081526020016000206040518060a0016040529081600082018054600181600116156101000203166002900480601f0160208091040260200160405190810160405280929190818152602001828054600181600116156101000203166002900480156127795780601f1061274e57610100808354040283529160200191612779565b820191906000526020600020905b81548152906001019060200180831161275c57829003601f168201915b50505050508152602001600182018054600181600116156101000203166002900480601f01602080910402602001604051908101604052809291908181526020018280546001816001161561010002031660029004801561281b5780601f106127f05761010080835404028352916020019161281b565b820191906000526020600020905b8154815290600101906020018083116127fe57829003601f168201915b50505050508152602001600282018054600181600116156101000203166002900480601f0160208091040260200160405190810160405280929190818152602001828054600181600116156101000203166002900480156128bd5780601f10612892576101008083540402835291602001916128bd565b820191906000526020600020905b8154815290600101906020018083116128a057829003601f168201915b50505050508152602001600382018054600181600116156101000203166002900480601f01602080910402602001604051908101604052809291908181526020018280546001816001161561010002031660029004801561295f5780601f106129345761010080835404028352916020019161295f565b820191906000526020600020905b81548152906001019060200180831161294257829003601f168201915b50505050508152602001600482018054600181600116156101000203166002900480601f016020809104026020016040519081016040528092919081815260200182805460018160011615610100020316600290048015612a015780601f106129d657610100808354040283529160200191612a01565b820191906000526020600020905b8154815290600101906020018083116129e457829003601f168201915b5050505050815250509050919050565b60006001600083815260200190815260200160002060009054906101000a900460ff1680612a5557506000801b600360008481526020019081526020016000205414155b9050919050565b80600a60008481526020019081526020016000206000820151816000019080519060200190612a8c9291906133df565b506020820151816001019080519060200190612aa99291906133df565b506040820151816002019080519060200190612ac69291906133df565b506060820151816003019080519060200190612ae39291906133df565b506080820151816004019080519060200190612b009291906133df565b509050505050565b606080600b600084815260200190815260200160002080549050604051908082528060200260200182016040528015612b5b57816020015b612b486136e3565b815260200190600190039081612b405790505b50905060008090505b600b600085815260200190815260200160002080549050811015612ddc57600c600b60008681526020019081526020016000208281548110612ba257fe5b90600052602060002001604051612bb99190614dd4565b9081526020016040518091039020604051806060016040529081600082018054600181600116156101000203166002900480601f016020809104026020016040519081016040528092919081815260200182805460018160011615610100020316600290048015612c6b5780601f10612c4057610100808354040283529160200191612c6b565b820191906000526020600020905b815481529060010190602001808311612c4e57829003601f168201915b50505050508152602001600182018054600181600116156101000203166002900480601f016020809104026020016040519081016040528092919081815260200182805460018160011615610100020316600290048015612d0d5780601f10612ce257610100808354040283529160200191612d0d565b820191906000526020600020905b815481529060010190602001808311612cf057829003601f168201915b50505050508152602001600282018054600181600116156101000203166002900480601f016020809104026020016040519081016040528092919081815260200182805460018160011615610100020316600290048015612daf5780601f10612d8457610100808354040283529160200191612daf565b820191906000526020600020905b815481529060010190602001808311612d9257829003601f168201915b505050505081525050828281518110612dc457fe5b60200260200101819052508080600101915050612b64565b5080915050919050565b816001600082815260200190815260200160002060009054906101000a900460ff16612e47576040517f08c379a0000000000000000000000000000000000000000000000000000000008152600401612e3e90614ee4565b60405180910390fd5b6000801b600360008481526020019081526020016000205414612e9f576040517f08c379a0000000000000000000000000000000000000000000000000000000008152600401612e9690614ec4565b60405180910390fd5b60026000848152602001908152602001600020829080600181540180825580915050906001820390600052602060002001600090919290919091505550826003600084815260200190815260200160002081905550505050565b600080600090505b600b600085815260200190815260200160002080549050816fffffffffffffffffffffffffffffffff16101561304357612f3a836133af565b613015600b6000878152602001908152602001600020836fffffffffffffffffffffffffffffffff1681548110612f6d57fe5b906000526020600020018054600181600116156101000203166002900480601f01602080910402602001604051908101604052809291908181526020018280546001816001161561010002031660029004801561300b5780601f10612fe05761010080835404028352916020019161300b565b820191906000526020600020905b815481529060010190602001808311612fee57829003601f168201915b50505050506133af565b141561303657806fffffffffffffffffffffffffffffffff16915050613068565b8080600101915050612f01565b507fffffffffffffffffffffffffffffffffffffffffffffffffffffffffffffffff90505b92915050565b6000600660019054906101000a900460ff1660ff1661308c83613097565b60ff16109050919050565b6000806130a3836133af565b905060008090505b600660019054906101000a900460ff1660ff168160ff1610156131d9576000600760008360ff1660ff1681526020019081526020016000208054600181600116156101000203166002900490501180156131bd5750816131bb600760008460ff1660ff1681526020019081526020016000208054600181600116156101000203166002900480601f0160208091040260200160405190810160405280929190818152602001828054600181600116156101000203166002900480156131b15780601f10613186576101008083540402835291602001916131b1565b820191906000526020600020905b81548152906001019060200180831161319457829003601f168201915b50505050506133af565b145b156131cc5780925050506131e0565b80806001019150506130ab565b5060ff9150505b919050565b600080600090505b60058054905081101561322f57826005828154811061320857fe5b906000526020600020015414156132225780915050613254565b80806001019150506131ed565b507fffffffffffffffffffffffffffffffffffffffffffffffffffffffffffffffff90505b919050565b600060ff6132678484613270565b10905092915050565b600080600090505b6008846040516132889190614dbd565b9081526020016040518091039020805490508160ff1610156133a3576132ad836133af565b6133846008866040516132c09190614dbd565b90815260200160405180910390208360ff16815481106132dc57fe5b906000526020600020018054600181600116156101000203166002900480601f01602080910402602001604051908101604052809291908181526020018280546001816001161561010002031660029004801561337a5780601f1061334f5761010080835404028352916020019161337a565b820191906000526020600020905b81548152906001019060200180831161335d57829003601f168201915b50505050506133af565b1415613396578060ff169150506133a9565b8080600101915050613278565b5060ff90505b92915050565b6000816040516020016133c29190614dbd565b604051602081830303815290604052805190602001209050919050565b828054600181600116156101000203166002900490600052602060002090601f016020900481019282601f1061342057805160ff191683800117855561344e565b8280016001018555821561344e579182015b8281111561344d578251825591602001919060010190613432565b5b50905061345b9190613704565b5090565b8280548282559060005260206000209081019282156134ae579160200282015b828111156134ad57825182908051906020019061349d9291906133df565b509160200191906001019061347f565b5b5090506134bb9190613729565b5090565b82805482825590600052602060002090810192821561350e579160200282015b8281111561350d5782518290805190602001906134fd92919061345f565b50916020019190600101906134df565b5b50905061351b9190613755565b5090565b828054600181600116156101000203166002900490600052602060002090601f016020900481019282601f1061356057805160ff191683800117855561358e565b8280016001018555821561358e579182015b8281111561358d578251825591602001919060010190613572565b5b50905061359b9190613704565b5090565b50805460018160011615610100020316600290046000825580601f106135c557506135e4565b601f0160209004906000526020600020908101906135e39190613704565b5b50565b60405180610160016040528060608152602001606081526020016060815260200160608152602001606081526020016060815260200160608152602001606081526020016060815260200160608152602001606081525090565b8280548282559060005260206000209081019282156136825760005260206000209182015b82811115613681578254825591600101919060010190613666565b5b50905061368f9190613781565b5090565b50805460008255906000526020600020908101906136b19190613781565b50565b6040518060a0016040528060608152602001606081526020016060815260200160608152602001606081525090565b60405180606001604052806060815260200160608152602001606081525090565b61372691905b8082111561372257600081600090555060010161370a565b5090565b90565b61375291905b8082111561374e5760008181613745919061359f565b5060010161372f565b5090565b90565b61377e91905b8082111561377a576000818161377191906137a6565b5060010161375b565b5090565b90565b6137a391905b8082111561379f576000816000905550600101613787565b5090565b90565b50805460008255906000526020600020908101906137c49190613729565b50565b6000813590506137d68161543e565b92915050565b600082601f8301126137ed57600080fd5b81356138006137fb82615105565b6150d8565b9150818183526020840193506020810190508360005b83811015613846578135860161382c8882613850565b845260208401935060208301925050600181019050613816565b5050505092915050565b600082601f83011261386157600080fd5b813561387461386f8261512d565b6150d8565b9150818183526020840193506020810190508360005b838110156138ba57813586016138a08882613962565b84526020840193506020830192505060018101905061388a565b5050505092915050565b600082601f8301126138d557600080fd5b81356138e86138e382615155565b6150d8565b9150818183526020840193506020810190508360005b8381101561392e57813586016139148882613962565b8452602084019350602083019250506001810190506138fe565b5050505092915050565b60008135905061394781615455565b92915050565b60008151905061395c81615455565b92915050565b600082601f83011261397357600080fd5b81356139866139818261517d565b6150d8565b915080825260208301602083018583830111156139a257600080fd5b6139ad8382846153eb565b50505092915050565b600082601f8301126139c757600080fd5b81356139da6139d5826151a9565b6150d8565b915080825260208301602083018583830111156139f657600080fd5b613a018382846153eb565b50505092915050565b600060608284031215613a1c57600080fd5b613a2660606150d8565b9050600082013567ffffffffffffffff811115613a4257600080fd5b613a4e84828501613962565b600083015250602082013567ffffffffffffffff811115613a6e57600080fd5b613a7a84828501613962565b602083015250604082013567ffffffffffffffff811115613a9a57600080fd5b613aa684828501613962565b60408301525092915050565b60006101608284031215613ac557600080fd5b613ad06101606150d8565b9050600082013567ffffffffffffffff811115613aec57600080fd5b613af884828501613962565b600083015250602082013567ffffffffffffffff811115613b1857600080fd5b613b2484828501613962565b602083015250604082013567ffffffffffffffff811115613b4457600080fd5b613b5084828501613962565b604083015250606082013567ffffffffffffffff811115613b7057600080fd5b613b7c84828501613962565b606083015250608082013567ffffffffffffffff811115613b9c57600080fd5b613ba884828501613962565b60808301525060a082013567ffffffffffffffff811115613bc857600080fd5b613bd484828501613962565b60a08301525060c082013567ffffffffffffffff811115613bf457600080fd5b613c0084828501613962565b60c08301525060e082013567ffffffffffffffff811115613c2057600080fd5b613c2c84828501613962565b60e08301525061010082013567ffffffffffffffff811115613c4d57600080fd5b613c5984828501613962565b6101008301525061012082013567ffffffffffffffff811115613c7b57600080fd5b613c8784828501613850565b6101208301525061014082013567ffffffffffffffff811115613ca957600080fd5b613cb5848285016137dc565b6101408301525092915050565b600060a08284031215613cd457600080fd5b613cde60a06150d8565b9050600082013567ffffffffffffffff811115613cfa57600080fd5b613d0684828501613962565b600083015250602082013567ffffffffffffffff811115613d2657600080fd5b613d3284828501613962565b602083015250604082013567ffffffffffffffff811115613d5257600080fd5b613d5e84828501613962565b604083015250606082013567ffffffffffffffff811115613d7e57600080fd5b613d8a84828501613962565b606083015250608082013567ffffffffffffffff811115613daa57600080fd5b613db684828501613962565b60808301525092915050565b600081359050613dd18161546c565b92915050565b600060208284031215613de957600080fd5b6000613df7848285016137c7565b91505092915050565b600060208284031215613e1257600080fd5b6000613e2084828501613938565b91505092915050565b600060208284031215613e3b57600080fd5b6000613e498482850161394d565b91505092915050565b60008060408385031215613e6557600080fd5b6000613e7385828601613938565b9250506020613e8485828601613938565b9150509250929050565b600080600080600080600060e0888a031215613ea957600080fd5b6000613eb78a828b01613938565b9750506020613ec88a828b01613938565b965050604088013567ffffffffffffffff811115613ee557600080fd5b613ef18a828b016139b6565b955050606088013567ffffffffffffffff811115613f0e57600080fd5b613f1a8a828b016138c4565b945050608088013567ffffffffffffffff811115613f3757600080fd5b613f438a828b016138c4565b93505060a088013567ffffffffffffffff811115613f6057600080fd5b613f6c8a828b016139b6565b92505060c0613f7d8a828b01613dc2565b91505092959891949750929550565b600080600060608486031215613fa157600080fd5b6000613faf86828701613938565b935050602084013567ffffffffffffffff811115613fcc57600080fd5b613fd8868287016139b6565b925050604084013567ffffffffffffffff811115613ff557600080fd5b61400186828701613a0a565b9150509250925092565b6000806040838503121561401e57600080fd5b600061402c85828601613938565b925050602083013567ffffffffffffffff81111561404957600080fd5b61405585828601613cc2565b9150509250929050565b60006020828403121561407157600080fd5b600082013567ffffffffffffffff81111561408b57600080fd5b614097848285016139b6565b91505092915050565b600080604083850312156140b357600080fd5b600083013567ffffffffffffffff8111156140cd57600080fd5b6140d9858286016139b6565b925050602083013567ffffffffffffffff8111156140f657600080fd5b614102858286016139b6565b9150509250929050565b60008060006060848603121561412157600080fd5b600084013567ffffffffffffffff81111561413b57600080fd5b614147868287016139b6565b935050602084013567ffffffffffffffff81111561416457600080fd5b614170868287016139b6565b925050604084013567ffffffffffffffff81111561418d57600080fd5b614199868287016139b6565b9150509250925092565b600080604083850312156141b657600080fd5b600083013567ffffffffffffffff8111156141d057600080fd5b6141dc85828601613ab2565b92505060206141ed85828601613938565b9150509250929050565b600061420383836143b6565b905092915050565b60006142178383614524565b60208301905092915050565b600061422f83836145a4565b905092915050565b60006142438383614b01565b905092915050565b60006142578383614c94565b905092915050565b61426881615399565b82525050565b60006142798261524a565b61428381856152fb565b935083602082028501614295856151d5565b8060005b858110156142d157848403895281516142b285826141f7565b94506142bd836152ad565b925060208a01995050600181019050614299565b50829750879550505050505092915050565b60006142ee82615255565b6142f8818561530c565b9350614303836151e5565b8060005b8381101561433457815161431b888261420b565b9750614326836152ba565b925050600181019050614307565b5085935050505092915050565b600061434c8261526b565b614356818561532e565b93508360208202850161436885615205565b8060005b858110156143a457848403895281516143858582614223565b9450614390836152d4565b925060208a0199505060018101905061436c565b50829750879550505050505092915050565b60006143c182615260565b6143cb818561531d565b9350836020820285016143dd856151f5565b8060005b8581101561441957848403895281516143fa8582614223565b9450614405836152c7565b925060208a019950506001810190506143e1565b50829750879550505050505092915050565b600061443682615276565b614440818561533f565b93508360208202850161445285615215565b8060005b8581101561448e578484038952815161446f8582614237565b945061447a836152e1565b925060208a01995050600181019050614456565b50829750879550505050505092915050565b60006144ab82615281565b6144b58185615350565b9350836020820285016144c785615225565b8060005b8581101561450357848403895281516144e4858261424b565b94506144ef836152ee565b925060208a019950506001810190506144cb565b50829750879550505050505092915050565b61451e816153ab565b82525050565b61452d816153b7565b82525050565b61453c816153b7565b82525050565b600061454d8261528c565b6145578185615361565b93506145678185602086016153fa565b80840191505092915050565b600061457e826152a2565b614588818561538e565b93506145988185602086016153fa565b80840191505092915050565b60006145af82615297565b6145b9818561536c565b93506145c98185602086016153fa565b6145d28161542d565b840191505092915050565b6000815460018116600081146145fa576001811461461f57614663565b607f600283041661460b818761538e565b955060ff1983168652808601935050614663565b6002820461462d818761538e565b955061463885615235565b60005b8281101561465a5781548189015260018201915060208101905061463b565b82880195505050505b505092915050565b600061467860218361537d565b91507f5468617420656d706c6f79656520616c726561647920776f726b73207468657260008301527f65000000000000000000000000000000000000000000000000000000000000006020830152604082019050919050565b60006146de60298361537d565b91507f596f75206d7573742062652061206465616c657273686970206f776e6572207460008301527f6f20646f207468697300000000000000000000000000000000000000000000006020830152604082019050919050565b6000614744601e8361537d565b91507f54686174207375627365727669636520616c72656164792065786973747300006000830152602082019050919050565b600061478460218361537d565b91507f4e6f206170706c69636174696f6e2065786973747320666f722074686174206960008301527f64000000000000000000000000000000000000000000000000000000000000006020830152604082019050919050565b60006147ea60218361537d565b91507f4d6178696d756d207375627365727669636520616d6f756e742072656163686560008301527f64000000000000000000000000000000000000000000000000000000000000006020830152604082019050919050565b600061485060338361537d565b91507f4e756d626572206f6620737562736572766963657320646f6573206e6f74206d60008301527f617463682073657276696365206c656e677468000000000000000000000000006020830152604082019050919050565b60006148b660158361537d565b91507f596f7520617265206e6f7420746865206f776e657200000000000000000000006000830152602082019050919050565b60006148f6602c8361537d565b91507f54686174207375627365727669636520646f65736e7420657869737420696e2060008301527f7468697320636f6e7465787400000000000000000000000000000000000000006020830152604082019050919050565b600061495c601b8361537d565b91507f54686174207365727669636520646f6573206e6f7420657869737400000000006000830152602082019050919050565b600061499c60228361537d565b91507f54686174206164647265737320697320616c726561647920726567697374657260008301527f65640000000000000000000000000000000000000000000000000000000000006020830152604082019050919050565b6000614a02601b8361537d565b91507f54686174207365727669636520616c72656164792065786973747300000000006000830152602082019050919050565b6000614a4260288361537d565b91507f54686572652061726520746865206d6178696d756d206e756d626572206f662060008301527f73657276696365730000000000000000000000000000000000000000000000006020830152604082019050919050565b6000614aa860288361537d565b91507f596f75206d7573742062652061207665726966696564206465616c657220746f60008301527f20646f20746869730000000000000000000000000000000000000000000000006020830152604082019050919050565b60006060830160008301518482036000860152614b1e82826145a4565b91505060208301518482036020860152614b3882826145a4565b91505060408301518482036040860152614b5282826145a4565b9150508091505092915050565b6000610160830160008301518482036000860152614b7d82826145a4565b91505060208301518482036020860152614b9782826145a4565b91505060408301518482036040860152614bb182826145a4565b91505060608301518482036060860152614bcb82826145a4565b91505060808301518482036080860152614be582826145a4565b91505060a083015184820360a0860152614bff82826145a4565b91505060c083015184820360c0860152614c1982826145a4565b91505060e083015184820360e0860152614c3382826145a4565b915050610100830151848203610100860152614c4f82826145a4565b915050610120830151848203610120860152614c6b82826143b6565b915050610140830151848203610140860152614c87828261426e565b9150508091505092915050565b60006080830160008301518482036000860152614cb182826143b6565b91505060208301518482036020860152614ccb82826143b6565b91505060408301518482036040860152614ce582826145a4565b9150506060830151614cfa6060860182614d97565b508091505092915050565b600060a0830160008301518482036000860152614d2282826145a4565b91505060208301518482036020860152614d3c82826145a4565b91505060408301518482036040860152614d5682826145a4565b91505060608301518482036060860152614d7082826145a4565b91505060808301518482036080860152614d8a82826145a4565b9150508091505092915050565b614da0816153e1565b82525050565b6000614db28284614542565b915081905092915050565b6000614dc98284614573565b915081905092915050565b6000614de082846145dd565b915081905092915050565b6000602082019050614e00600083018461425f565b92915050565b60006020820190508181036000830152614e2081846142e3565b905092915050565b60006020820190508181036000830152614e428184614341565b905092915050565b60006020820190508181036000830152614e64818461442b565b905092915050565b60006020820190508181036000830152614e8681846144a0565b905092915050565b6000602082019050614ea36000830184614515565b92915050565b6000602082019050614ebe6000830184614533565b92915050565b60006020820190508181036000830152614edd8161466b565b9050919050565b60006020820190508181036000830152614efd816146d1565b9050919050565b60006020820190508181036000830152614f1d81614737565b9050919050565b60006020820190508181036000830152614f3d81614777565b9050919050565b60006020820190508181036000830152614f5d816147dd565b9050919050565b60006020820190508181036000830152614f7d81614843565b9050919050565b60006020820190508181036000830152614f9d816148a9565b9050919050565b60006020820190508181036000830152614fbd816148e9565b9050919050565b60006020820190508181036000830152614fdd8161494f565b9050919050565b60006020820190508181036000830152614ffd8161498f565b9050919050565b6000602082019050818103600083015261501d816149f5565b9050919050565b6000602082019050818103600083015261503d81614a35565b9050919050565b6000602082019050818103600083015261505d81614a9b565b9050919050565b6000602082019050818103600083015261507e8184614b5f565b905092915050565b600060408201905081810360008301526150a08185614b5f565b90506150af6020830184614533565b9392505050565b600060208201905081810360008301526150d08184614d05565b905092915050565b6000604051905081810181811067ffffffffffffffff821117156150fb57600080fd5b8060405250919050565b600067ffffffffffffffff82111561511c57600080fd5b602082029050602081019050919050565b600067ffffffffffffffff82111561514457600080fd5b602082029050602081019050919050565b600067ffffffffffffffff82111561516c57600080fd5b602082029050602081019050919050565b600067ffffffffffffffff82111561519457600080fd5b601f19601f8301169050602081019050919050565b600067ffffffffffffffff8211156151c057600080fd5b601f19601f8301169050602081019050919050565b6000819050602082019050919050565b6000819050602082019050919050565b6000819050602082019050919050565b6000819050602082019050919050565b6000819050602082019050919050565b6000819050602082019050919050565b60008190508160005260206000209050919050565b600081519050919050565b600081519050919050565b600081519050919050565b600081519050919050565b600081519050919050565b600081519050919050565b600081519050919050565b600081519050919050565b600081519050919050565b6000602082019050919050565b6000602082019050919050565b6000602082019050919050565b6000602082019050919050565b6000602082019050919050565b6000602082019050919050565b600082825260208201905092915050565b600082825260208201905092915050565b600082825260208201905092915050565b600082825260208201905092915050565b600082825260208201905092915050565b600082825260208201905092915050565b600081905092915050565b600082825260208201905092915050565b600082825260208201905092915050565b600081905092915050565b60006153a4826153c1565b9050919050565b60008115159050919050565b6000819050919050565b600073ffffffffffffffffffffffffffffffffffffffff82169050919050565b6000819050919050565b82818337600083830152505050565b60005b838110156154185780820151818401526020810190506153fd565b83811115615427576000848401525b50505050565b6000601f19601f8301169050919050565b61544781615399565b811461545257600080fd5b50565b61545e816153b7565b811461546957600080fd5b50565b615475816153e1565b811461548057600080fd5b5056fea365627a7a72315820dac9b47e9a1247a01300e33c3a49ff1a9bc5b39b60fe2bf8a8a2ebc0d11ef3336c6578706572696d656e74616cf564736f6c634300050c0040",
  "source": "pragma solidity ^0.5.11;\npragma experimental ABIEncoderV2;\n\nimport \"./ServiceHandler.sol\";\n\ncontract UserContract is ServiceHandler {\n\n    struct RecordInternal {\n        string[] services;\n        string[] subservices;\n        string comment;\n        uint timeStamp;\n    }\n    struct UserInfo {\n        string firstName;\n        string lastName;\n        string adr;\n        string phNo;\n        string email;\n    }\n    struct CarInfo{\n        string brand;\n        string model;\n        string year;\n    }\n\n    //------------------------------------------------------------_Records_---------------------------------------------\n\n    mapping(string => RecordInternal[]) private records;\n    mapping(bytes32 => UserInfo) private userInfoRecords;\n    mapping(bytes32 => string[]) private userCars;\n    mapping(string => CarInfo) private carDetails;\n\n    function editUserInfo(bytes32 userId, UserInfo memory info) public {\n        userInfoRecords[userId] = info;\n    }\n\n    function getUserInfo(bytes32 userId) public view returns(UserInfo memory) {\n        return userInfoRecords[userId];\n    }\n\n    function editCarDetails(bytes32 userId, string memory noPlate, CarInfo memory carInfo) public{\n        carDetails[noPlate] = carInfo;\n        int index = getCarIndex(userId,noPlate);\n        if(index < 0){\n            userCars[userId].push(noPlate);\n        }\n        else{\n            userCars[userId][uint(index)] = noPlate;\n        }\n    }\n\n    function getCarIndex(bytes32 userId, string memory noPlate) internal view returns (int){\n        for(uint128 i = 0; i < userCars[userId].length; i++) {\n            if(encode(userCars[userId][i]) == encode(noPlate)) return i;\n        }\n        return -1;\n    }\n\n    function getCars(bytes32 userId) public view returns(CarInfo[] memory){\n        CarInfo[] memory cars = new CarInfo[](userCars[userId].length);\n        for(uint i = 0; i < userCars[userId].length;i++) {\n            cars[i] = carDetails[userCars[userId][i]];\n        }\n        return cars;\n    }\n\n    function insertRecord(bytes32 dealerId, bytes32 id, string memory noPlate,\n     string[] memory services, string[] memory subservices, string memory comment, uint timeStamp)\n        public verified(dealerId) {\n        require(subservices.length <= services.length,\"Number of subservices does not match service length\");\n        if(getCarIndex(id,noPlate) < 0){\n            userCars[id].push(noPlate);\n        }\n        records[noPlate].push(RecordInternal(services,subservices,comment,timeStamp));\n    }\n\n    //TODO Change records to be car specific and not user specific\n\n    function getRecords(string memory noPlate) public view returns (RecordInternal[] memory) {\n        return records[noPlate];\n    }\n\n}\n",
  "sourcePath": "/Users/natwit/repos/blockchain-project-2019/contracts/UserContract.sol",
  "compiler": {
    "name": "solc",
    "version": "0.5.12+commit.7709ece9.Emscripten.clang"
  },
  "schemaVersion": "3.0.19",
  "updatedAt": "2019-11-26T09:14:38.329Z",
  "networkType": "ethereum",
  "devdoc": {
    "methods": {}
  },
  "userdoc": {
    "methods": {}
  }
}