{
  "contractName": "UserContract",
  "abi": [
    {
      "anonymous": false,
      "inputs": [
        {
          "components": [
            {
              "internalType": "string",
              "name": "dealerName",
              "type": "string"
            },
            {
              "internalType": "string",
              "name": "firstName",
              "type": "string"
            },
            {
              "internalType": "string",
              "name": "lastName",
              "type": "string"
            },
            {
              "internalType": "string",
              "name": "addr",
              "type": "string"
            },
            {
              "internalType": "string",
              "name": "location",
              "type": "string"
            },
            {
              "internalType": "string",
              "name": "phoneNo",
              "type": "string"
            },
            {
              "internalType": "string",
              "name": "bestSeller",
              "type": "string"
            },
            {
              "internalType": "string",
              "name": "promotion",
              "type": "string"
            },
            {
              "internalType": "string",
              "name": "otherServices",
              "type": "string"
            },
            {
              "internalType": "string[]",
              "name": "availableServices",
              "type": "string[]"
            },
            {
              "internalType": "string[][]",
              "name": "availableSubServices",
              "type": "string[][]"
            }
          ],
          "indexed": false,
          "internalType": "struct DealerContract.DealerInfo",
          "name": "info",
          "type": "tuple"
        },
        {
          "indexed": false,
          "internalType": "bytes32",
          "name": "id",
          "type": "bytes32"
        }
      ],
      "name": "CreateDealerApplication",
      "type": "event"
    },
    {
      "constant": false,
      "inputs": [
        {
          "internalType": "bytes32",
          "name": "dealerId",
          "type": "bytes32"
        },
        {
          "internalType": "bytes32",
          "name": "adr",
          "type": "bytes32"
        }
      ],
      "name": "addDealerEmployee",
      "outputs": [],
      "payable": false,
      "stateMutability": "nonpayable",
      "type": "function"
    },
    {
      "constant": false,
      "inputs": [
        {
          "internalType": "string",
          "name": "serviceName",
          "type": "string"
        }
      ],
      "name": "addService",
      "outputs": [],
      "payable": false,
      "stateMutability": "nonpayable",
      "type": "function"
    },
    {
      "constant": false,
      "inputs": [
        {
          "internalType": "string",
          "name": "serviceName",
          "type": "string"
        },
        {
          "internalType": "string",
          "name": "subServiceName",
          "type": "string"
        }
      ],
      "name": "addSubService",
      "outputs": [],
      "payable": false,
      "stateMutability": "nonpayable",
      "type": "function"
    },
    {
      "constant": false,
      "inputs": [
        {
          "internalType": "bytes32",
          "name": "adr",
          "type": "bytes32"
        }
      ],
      "name": "approveApplication",
      "outputs": [],
      "payable": false,
      "stateMutability": "nonpayable",
      "type": "function"
    },
    {
      "constant": false,
      "inputs": [
        {
          "components": [
            {
              "internalType": "string",
              "name": "dealerName",
              "type": "string"
            },
            {
              "internalType": "string",
              "name": "firstName",
              "type": "string"
            },
            {
              "internalType": "string",
              "name": "lastName",
              "type": "string"
            },
            {
              "internalType": "string",
              "name": "addr",
              "type": "string"
            },
            {
              "internalType": "string",
              "name": "location",
              "type": "string"
            },
            {
              "internalType": "string",
              "name": "phoneNo",
              "type": "string"
            },
            {
              "internalType": "string",
              "name": "bestSeller",
              "type": "string"
            },
            {
              "internalType": "string",
              "name": "promotion",
              "type": "string"
            },
            {
              "internalType": "string",
              "name": "otherServices",
              "type": "string"
            },
            {
              "internalType": "string[]",
              "name": "availableServices",
              "type": "string[]"
            },
            {
              "internalType": "string[][]",
              "name": "availableSubServices",
              "type": "string[][]"
            }
          ],
          "internalType": "struct DealerContract.DealerInfo",
          "name": "info",
          "type": "tuple"
        },
        {
          "internalType": "bytes32",
          "name": "id",
          "type": "bytes32"
        }
      ],
      "name": "createDealerApplication",
      "outputs": [],
      "payable": false,
      "stateMutability": "nonpayable",
      "type": "function"
    },
    {
      "constant": false,
      "inputs": [
        {
          "internalType": "string",
          "name": "serviceName",
          "type": "string"
        }
      ],
      "name": "deleteService",
      "outputs": [],
      "payable": false,
      "stateMutability": "nonpayable",
      "type": "function"
    },
    {
      "constant": false,
      "inputs": [
        {
          "internalType": "string",
          "name": "serviceName",
          "type": "string"
        },
        {
          "internalType": "string",
          "name": "subServiceName",
          "type": "string"
        }
      ],
      "name": "deleteSubService",
      "outputs": [],
      "payable": false,
      "stateMutability": "nonpayable",
      "type": "function"
    },
    {
      "constant": false,
      "inputs": [
        {
          "components": [
            {
              "internalType": "string",
              "name": "dealerName",
              "type": "string"
            },
            {
              "internalType": "string",
              "name": "firstName",
              "type": "string"
            },
            {
              "internalType": "string",
              "name": "lastName",
              "type": "string"
            },
            {
              "internalType": "string",
              "name": "addr",
              "type": "string"
            },
            {
              "internalType": "string",
              "name": "location",
              "type": "string"
            },
            {
              "internalType": "string",
              "name": "phoneNo",
              "type": "string"
            },
            {
              "internalType": "string",
              "name": "bestSeller",
              "type": "string"
            },
            {
              "internalType": "string",
              "name": "promotion",
              "type": "string"
            },
            {
              "internalType": "string",
              "name": "otherServices",
              "type": "string"
            },
            {
              "internalType": "string[]",
              "name": "availableServices",
              "type": "string[]"
            },
            {
              "internalType": "string[][]",
              "name": "availableSubServices",
              "type": "string[][]"
            }
          ],
          "internalType": "struct DealerContract.DealerInfo",
          "name": "info",
          "type": "tuple"
        },
        {
          "internalType": "bytes32",
          "name": "id",
          "type": "bytes32"
        }
      ],
      "name": "editDealerInfo",
      "outputs": [],
      "payable": false,
      "stateMutability": "nonpayable",
      "type": "function"
    },
    {
      "constant": false,
      "inputs": [
        {
          "internalType": "string",
          "name": "oldName",
          "type": "string"
        },
        {
          "internalType": "string",
          "name": "newName",
          "type": "string"
        }
      ],
      "name": "editServiceName",
      "outputs": [],
      "payable": false,
      "stateMutability": "nonpayable",
      "type": "function"
    },
    {
      "constant": false,
      "inputs": [
        {
          "internalType": "string",
          "name": "serviceName",
          "type": "string"
        },
        {
          "internalType": "string",
          "name": "oldName",
          "type": "string"
        },
        {
          "internalType": "string",
          "name": "newName",
          "type": "string"
        }
      ],
      "name": "editSubServiceName",
      "outputs": [],
      "payable": false,
      "stateMutability": "nonpayable",
      "type": "function"
    },
    {
      "constant": true,
      "inputs": [],
      "name": "getAllDealerApplications",
      "outputs": [
        {
          "internalType": "bytes32[]",
          "name": "",
          "type": "bytes32[]"
        }
      ],
      "payable": false,
      "stateMutability": "view",
      "type": "function"
    },
    {
      "constant": true,
      "inputs": [
        {
          "internalType": "bytes32",
          "name": "id",
          "type": "bytes32"
        }
      ],
      "name": "getDealerInfo",
      "outputs": [
        {
          "components": [
            {
              "internalType": "string",
              "name": "dealerName",
              "type": "string"
            },
            {
              "internalType": "string",
              "name": "firstName",
              "type": "string"
            },
            {
              "internalType": "string",
              "name": "lastName",
              "type": "string"
            },
            {
              "internalType": "string",
              "name": "addr",
              "type": "string"
            },
            {
              "internalType": "string",
              "name": "location",
              "type": "string"
            },
            {
              "internalType": "string",
              "name": "phoneNo",
              "type": "string"
            },
            {
              "internalType": "string",
              "name": "bestSeller",
              "type": "string"
            },
            {
              "internalType": "string",
              "name": "promotion",
              "type": "string"
            },
            {
              "internalType": "string",
              "name": "otherServices",
              "type": "string"
            },
            {
              "internalType": "string[]",
              "name": "availableServices",
              "type": "string[]"
            },
            {
              "internalType": "string[][]",
              "name": "availableSubServices",
              "type": "string[][]"
            }
          ],
          "internalType": "struct DealerContract.DealerInfo",
          "name": "",
          "type": "tuple"
        }
      ],
      "payable": false,
      "stateMutability": "view",
      "type": "function"
    },
    {
      "constant": true,
      "inputs": [
        {
          "internalType": "string",
          "name": "id",
          "type": "string"
        }
      ],
      "name": "getHash",
      "outputs": [
        {
          "internalType": "bytes32",
          "name": "",
          "type": "bytes32"
        }
      ],
      "payable": false,
      "stateMutability": "pure",
      "type": "function"
    },
    {
      "constant": true,
      "inputs": [],
      "name": "getServices",
      "outputs": [
        {
          "internalType": "string[]",
          "name": "",
          "type": "string[]"
        }
      ],
      "payable": false,
      "stateMutability": "view",
      "type": "function"
    },
    {
      "constant": true,
      "inputs": [
        {
          "internalType": "string",
          "name": "serviceName",
          "type": "string"
        }
      ],
      "name": "getSubServices",
      "outputs": [
        {
          "internalType": "string[]",
          "name": "",
          "type": "string[]"
        }
      ],
      "payable": false,
      "stateMutability": "view",
      "type": "function"
    },
    {
      "constant": true,
      "inputs": [
        {
          "internalType": "bytes32",
          "name": "adr",
          "type": "bytes32"
        }
      ],
      "name": "isVerified",
      "outputs": [
        {
          "internalType": "bool",
          "name": "",
          "type": "bool"
        }
      ],
      "payable": false,
      "stateMutability": "view",
      "type": "function"
    },
    {
      "constant": true,
      "inputs": [],
      "name": "owner",
      "outputs": [
        {
          "internalType": "address",
          "name": "",
          "type": "address"
        }
      ],
      "payable": false,
      "stateMutability": "view",
      "type": "function"
    },
    {
      "constant": false,
      "inputs": [
        {
          "internalType": "bytes32",
          "name": "dealershipId",
          "type": "bytes32"
        },
        {
          "internalType": "bytes32",
          "name": "otherId",
          "type": "bytes32"
        }
      ],
      "name": "transferDealershipOwner",
      "outputs": [],
      "payable": false,
      "stateMutability": "nonpayable",
      "type": "function"
    },
    {
      "constant": false,
      "inputs": [
        {
          "internalType": "address",
          "name": "newOwner",
          "type": "address"
        }
      ],
      "name": "transferOwner",
      "outputs": [],
      "payable": false,
      "stateMutability": "nonpayable",
      "type": "function"
    },
    {
      "constant": false,
      "inputs": [
        {
          "internalType": "bytes32",
          "name": "userId",
          "type": "bytes32"
        },
        {
          "components": [
            {
              "internalType": "string",
              "name": "firstName",
              "type": "string"
            },
            {
              "internalType": "string",
              "name": "lastName",
              "type": "string"
            },
            {
              "internalType": "string",
              "name": "adr",
              "type": "string"
            },
            {
              "internalType": "string",
              "name": "phNo",
              "type": "string"
            },
            {
              "internalType": "string",
              "name": "email",
              "type": "string"
            }
          ],
          "internalType": "struct UserContract.UserInfo",
          "name": "info",
          "type": "tuple"
        }
      ],
      "name": "editUserInfo",
      "outputs": [],
      "payable": false,
      "stateMutability": "nonpayable",
      "type": "function"
    },
    {
      "constant": true,
      "inputs": [
        {
          "internalType": "bytes32",
          "name": "userId",
          "type": "bytes32"
        }
      ],
      "name": "getUserInfo",
      "outputs": [
        {
          "components": [
            {
              "internalType": "string",
              "name": "firstName",
              "type": "string"
            },
            {
              "internalType": "string",
              "name": "lastName",
              "type": "string"
            },
            {
              "internalType": "string",
              "name": "adr",
              "type": "string"
            },
            {
              "internalType": "string",
              "name": "phNo",
              "type": "string"
            },
            {
              "internalType": "string",
              "name": "email",
              "type": "string"
            }
          ],
          "internalType": "struct UserContract.UserInfo",
          "name": "",
          "type": "tuple"
        }
      ],
      "payable": false,
      "stateMutability": "view",
      "type": "function"
    },
    {
      "constant": false,
      "inputs": [
        {
          "internalType": "bytes32",
          "name": "userId",
          "type": "bytes32"
        },
        {
          "internalType": "string",
          "name": "noPlate",
          "type": "string"
        },
        {
          "components": [
            {
              "internalType": "string",
              "name": "brand",
              "type": "string"
            },
            {
              "internalType": "string",
              "name": "model",
              "type": "string"
            },
            {
              "internalType": "string",
              "name": "year",
              "type": "string"
            }
          ],
          "internalType": "struct UserContract.CarInfo",
          "name": "carInfo",
          "type": "tuple"
        }
      ],
      "name": "editCarDetails",
      "outputs": [],
      "payable": false,
      "stateMutability": "nonpayable",
      "type": "function"
    },
    {
      "constant": true,
      "inputs": [
        {
          "internalType": "bytes32",
          "name": "userId",
          "type": "bytes32"
        }
      ],
      "name": "getCars",
      "outputs": [
        {
          "components": [
            {
              "internalType": "string",
              "name": "brand",
              "type": "string"
            },
            {
              "internalType": "string",
              "name": "model",
              "type": "string"
            },
            {
              "internalType": "string",
              "name": "year",
              "type": "string"
            }
          ],
          "internalType": "struct UserContract.CarInfo[]",
          "name": "",
          "type": "tuple[]"
        }
      ],
      "payable": false,
      "stateMutability": "view",
      "type": "function"
    },
    {
      "constant": false,
      "inputs": [
        {
          "internalType": "bytes32",
          "name": "dealerId",
          "type": "bytes32"
        },
        {
          "internalType": "bytes32",
          "name": "id",
          "type": "bytes32"
        },
        {
          "internalType": "string",
          "name": "noPlate",
          "type": "string"
        },
        {
          "internalType": "string[]",
          "name": "services",
          "type": "string[]"
        },
        {
          "internalType": "string[]",
          "name": "subservices",
          "type": "string[]"
        },
        {
          "internalType": "string",
          "name": "comment",
          "type": "string"
        }
      ],
      "name": "insertRecord",
      "outputs": [],
      "payable": false,
      "stateMutability": "nonpayable",
      "type": "function"
    },
    {
      "constant": true,
      "inputs": [
        {
          "internalType": "bytes32",
          "name": "id",
          "type": "bytes32"
        },
        {
          "internalType": "string",
          "name": "noPlate",
          "type": "string"
        }
      ],
      "name": "getRecords",
      "outputs": [
        {
          "components": [
            {
              "internalType": "string[]",
              "name": "services",
              "type": "string[]"
            },
            {
              "internalType": "string[]",
              "name": "subservices",
              "type": "string[]"
            },
            {
              "internalType": "string",
              "name": "comment",
              "type": "string"
            }
          ],
          "internalType": "struct UserContract.RecordInternal[]",
          "name": "",
          "type": "tuple[]"
        }
      ],
      "payable": false,
      "stateMutability": "view",
      "type": "function"
    }
  ],
  "bytecode": "0x608060405260fe600660016101000a81548160ff021916908360ff160217905550336000806101000a81548173ffffffffffffffffffffffffffffffffffffffff021916908373ffffffffffffffffffffffffffffffffffffffff16021790555061541a8061006f6000396000f3fe608060405234801561001057600080fd5b50600436106101735760003560e01c80637d17f13c116100de578063988aa4e711610097578063c4e91d1711610071578063c4e91d1714610442578063c9b54a581461045e578063e445268c1461048e578063ee2bb8e8146104aa57610173565b8063988aa4e7146103b2578063adff8b0f146103e2578063c181b2731461041257610173565b80637d17f13c146102f25780637e41667f1461032257806382d7afbd1461034057806388fcd1941461035c5780638da5cb5b146103785780638ee242141461039657610173565b8063431a65fc11610130578063431a65fc146102205780634fb2e45d1461025057806350fb95e31461026c5780635b6beeb9146102885780636fd7d2b5146102b857806375417851146102d457610173565b806307681038146101785780630eb7bc8f146101945780631a4c85be146101b05780631b8f47fe146101cc5780632d4afc7b146101e8578063369bfce414610204575b600080fd5b610192600480360361018d919081019061413a565b6104c6565b005b6101ae60048036036101a99190810190614037565b6106e9565b005b6101ca60048036036101c59190810190613ff6565b6107fc565b005b6101e660048036036101e19190810190613d58565b610950565b005b61020260048036036101fd919081019061413a565b610a7a565b005b61021e60048036036102199190810190614037565b610c39565b005b61023a60048036036102359190810190613ff6565b610d61565b6040516102479190614d9d565b60405180910390f35b61026a60048036036102659190810190613d2f565b610e68565b005b61028660048036036102819190810190614037565b610f3a565b005b6102a2600480360361029d9190810190613ff6565b6110dc565b6040516102af9190614e1e565b60405180910390f35b6102d260048036036102cd91908101906140a3565b611154565b005b6102dc611286565b6040516102e99190614d9d565b60405180910390f35b61030c60048036036103079190810190613d58565b611419565b6040516103199190614fd9565b60405180910390f35b61032a611c12565b6040516103379190614d7b565b60405180910390f35b61035a60048036036103559190810190613daa565b611cf9565b005b61037660048036036103719190810190613ff6565b611e97565b005b6103806120a8565b60405161038d9190614d60565b60405180910390f35b6103b060048036036103ab9190810190613f23565b6120cd565b005b6103cc60048036036103c79190810190613ecf565b6121f6565b6040516103d99190614de1565b60405180910390f35b6103fc60048036036103f79190810190613d58565b6124dd565b604051610409919061502b565b60405180910390f35b61042c60048036036104279190810190613d58565b612834565b6040516104399190614e03565b60405180910390f35b61045c60048036036104579190810190613fa2565b61287f565b005b61047860048036036104739190810190613d58565b61292b565b6040516104859190614dbf565b60405180910390f35b6104a860048036036104a39190810190613daa565b612c09565b005b6104c460048036036104bf9190810190613de6565b612d1c565b005b6001600082815260200190815260200160002060009054906101000a900460ff1615610527576040517f08c379a000000000000000000000000000000000000000000000000000000000815260040161051e90614f59565b60405180910390fd5b8160046000838152602001908152602001600020600082015181600001908051906020019061055792919061334c565b50602082015181600101908051906020019061057492919061334c565b50604082015181600201908051906020019061059192919061334c565b5060608201518160030190805190602001906105ae92919061334c565b5060808201518160040190805190602001906105cb92919061334c565b5060a08201518160050190805190602001906105e892919061334c565b5060c082015181600601908051906020019061060592919061334c565b5060e082015181600701908051906020019061062292919061334c565b5061010082015181600801908051906020019061064092919061334c565b5061012082015181600901908051906020019061065e9291906133cc565b5061014082015181600a01908051906020019061067c92919061342c565b5090505060058190806001815401808255809150509060018203906000526020600020016000909192909190915055507f42ab459ad3144922283159073eea05ed3ff810ab23fc94bbad43d99b9332dbb282826040516106dd929190614ffb565b60405180910390a15050565b6000809054906101000a900473ffffffffffffffffffffffffffffffffffffffff1673ffffffffffffffffffffffffffffffffffffffff163373ffffffffffffffffffffffffffffffffffffffff1614610778576040517f08c379a000000000000000000000000000000000000000000000000000000000815260040161076f90614ef9565b60405180910390fd5b8161078281612e66565b6107c1576040517f08c379a00000000000000000000000000000000000000000000000000000000081526004016107b890614f39565b60405180910390fd5b81600760006107cf86612e8f565b60ff1660ff16815260200190815260200160002090805190602001906107f692919061348c565b50505050565b6000809054906101000a900473ffffffffffffffffffffffffffffffffffffffff1673ffffffffffffffffffffffffffffffffffffffff163373ffffffffffffffffffffffffffffffffffffffff161461088b576040517f08c379a000000000000000000000000000000000000000000000000000000000815260040161088290614ef9565b60405180910390fd5b8061089581612e66565b6108d4576040517f08c379a00000000000000000000000000000000000000000000000000000000081526004016108cb90614f39565b60405180910390fd5b60405180602001604052806000815250600760006108f185612e8f565b60ff1660ff168152602001908152602001600020908051906020019061091892919061348c565b506006600081819054906101000a900460ff16809291906001900391906101000a81548160ff021916908360ff160217905550505050565b6000809054906101000a900473ffffffffffffffffffffffffffffffffffffffff1673ffffffffffffffffffffffffffffffffffffffff163373ffffffffffffffffffffffffffffffffffffffff16146109df576040517f08c379a00000000000000000000000000000000000000000000000000000000081526004016109d690614ef9565b60405180910390fd5b60006109ea82612fdd565b90506000811215610a30576040517f08c379a0000000000000000000000000000000000000000000000000000000008152600401610a2790614e99565b60405180910390fd5b600180600084815260200190815260200160002060006101000a81548160ff02191690831515021790555060058181548110610a6857fe5b90600052602060002001600090555050565b806001600082815260200190815260200160002060009054906101000a900460ff16610adb576040517f08c379a0000000000000000000000000000000000000000000000000000000008152600401610ad290614e59565b60405180910390fd5b82600460008481526020019081526020016000206000820151816000019080519060200190610b0b92919061334c565b506020820151816001019080519060200190610b2892919061334c565b506040820151816002019080519060200190610b4592919061334c565b506060820151816003019080519060200190610b6292919061334c565b506080820151816004019080519060200190610b7f92919061334c565b5060a0820151816005019080519060200190610b9c92919061334c565b5060c0820151816006019080519060200190610bb992919061334c565b5060e0820151816007019080519060200190610bd692919061334c565b50610100820151816008019080519060200190610bf492919061334c565b50610120820151816009019080519060200190610c129291906133cc565b5061014082015181600a019080519060200190610c3092919061342c565b50905050505050565b6000809054906101000a900473ffffffffffffffffffffffffffffffffffffffff1673ffffffffffffffffffffffffffffffffffffffff163373ffffffffffffffffffffffffffffffffffffffff1614610cc8576040517f08c379a0000000000000000000000000000000000000000000000000000000008152600401610cbf90614ef9565b60405180910390fd5b8181610cd48282613051565b610d13576040517f08c379a0000000000000000000000000000000000000000000000000000000008152600401610d0a90614f19565b60405180910390fd5b600884604051610d239190614d32565b9081526020016040518091039020610d3b8585613068565b81548110610d4557fe5b906000526020600020016000610d5b919061350c565b50505050565b6060600882604051610d739190614d32565b9081526020016040518091039020805480602002602001604051908101604052809291908181526020016000905b82821015610e5d578382906000526020600020018054600181600116156101000203166002900480601f016020809104026020016040519081016040528092919081815260200182805460018160011615610100020316600290048015610e495780601f10610e1e57610100808354040283529160200191610e49565b820191906000526020600020905b815481529060010190602001808311610e2c57829003601f168201915b505050505081526020019060010190610da1565b505050509050919050565b6000809054906101000a900473ffffffffffffffffffffffffffffffffffffffff1673ffffffffffffffffffffffffffffffffffffffff163373ffffffffffffffffffffffffffffffffffffffff1614610ef7576040517f08c379a0000000000000000000000000000000000000000000000000000000008152600401610eee90614ef9565b60405180910390fd5b806000806101000a81548173ffffffffffffffffffffffffffffffffffffffff021916908373ffffffffffffffffffffffffffffffffffffffff16021790555050565b8160ff600882604051610f4d9190614d32565b90815260200160405180910390208054905010610f9f576040517f08c379a0000000000000000000000000000000000000000000000000000000008152600401610f9690614eb9565b60405180910390fd5b8282610fab8282613051565b15610feb576040517f08c379a0000000000000000000000000000000000000000000000000000000008152600401610fe290614e79565b60405180910390fd5b6000809054906101000a900473ffffffffffffffffffffffffffffffffffffffff1673ffffffffffffffffffffffffffffffffffffffff163373ffffffffffffffffffffffffffffffffffffffff161461107a576040517f08c379a000000000000000000000000000000000000000000000000000000000815260040161107190614ef9565b60405180910390fd5b60088560405161108a9190614d32565b90815260200160405180910390208490806001815401808255809150509060018203906000526020600020016000909192909190915090805190602001906110d392919061348c565b50505050505050565b60006002826040516020016110f19190614d32565b60405160208183030381529060405260405161110d9190614d1b565b602060405180830381855afa15801561112a573d6000803e3d6000fd5b5050506040513d601f19601f8201168201806040525061114d9190810190613d81565b9050919050565b82826111608282613051565b61119f576040517f08c379a000000000000000000000000000000000000000000000000000000000815260040161119690614f19565b60405180910390fd5b6000809054906101000a900473ffffffffffffffffffffffffffffffffffffffff1673ffffffffffffffffffffffffffffffffffffffff163373ffffffffffffffffffffffffffffffffffffffff161461122e576040517f08c379a000000000000000000000000000000000000000000000000000000000815260040161122590614ef9565b60405180910390fd5b8260088660405161123f9190614d32565b90815260200160405180910390206112578787613068565b8154811061126157fe5b90600052602060002001908051906020019061127e92919061348c565b505050505050565b606080600660009054906101000a900460ff1660ff166040519080825280602002602001820160405280156112cf57816020015b60608152602001906001900390816112ba5790505b509050600080905060008090505b600660019054906101000a900460ff1660ff168160ff161015611410576000600760008360ff1660ff168152602001908152602001600020805460018160011615610100020316600290049050111561140357600760008260ff1660ff1681526020019081526020016000208054600181600116156101000203166002900480601f0160208091040260200160405190810160405280929190818152602001828054600181600116156101000203166002900480156113dd5780601f106113b2576101008083540402835291602001916113dd565b820191906000526020600020905b8154815290600101906020018083116113c057829003601f168201915b5050505050838380600101945060ff16815181106113f757fe5b60200260200101819052505b80806001019150506112dd565b50819250505090565b611421613554565b6004600083815260200190815260200160002060405180610160016040529081600082018054600181600116156101000203166002900480601f0160208091040260200160405190810160405280929190818152602001828054600181600116156101000203166002900480156114d95780601f106114ae576101008083540402835291602001916114d9565b820191906000526020600020905b8154815290600101906020018083116114bc57829003601f168201915b50505050508152602001600182018054600181600116156101000203166002900480601f01602080910402602001604051908101604052809291908181526020018280546001816001161561010002031660029004801561157b5780601f106115505761010080835404028352916020019161157b565b820191906000526020600020905b81548152906001019060200180831161155e57829003601f168201915b50505050508152602001600282018054600181600116156101000203166002900480601f01602080910402602001604051908101604052809291908181526020018280546001816001161561010002031660029004801561161d5780601f106115f25761010080835404028352916020019161161d565b820191906000526020600020905b81548152906001019060200180831161160057829003601f168201915b50505050508152602001600382018054600181600116156101000203166002900480601f0160208091040260200160405190810160405280929190818152602001828054600181600116156101000203166002900480156116bf5780601f10611694576101008083540402835291602001916116bf565b820191906000526020600020905b8154815290600101906020018083116116a257829003601f168201915b50505050508152602001600482018054600181600116156101000203166002900480601f0160208091040260200160405190810160405280929190818152602001828054600181600116156101000203166002900480156117615780601f1061173657610100808354040283529160200191611761565b820191906000526020600020905b81548152906001019060200180831161174457829003601f168201915b50505050508152602001600582018054600181600116156101000203166002900480601f0160208091040260200160405190810160405280929190818152602001828054600181600116156101000203166002900480156118035780601f106117d857610100808354040283529160200191611803565b820191906000526020600020905b8154815290600101906020018083116117e657829003601f168201915b50505050508152602001600682018054600181600116156101000203166002900480601f0160208091040260200160405190810160405280929190818152602001828054600181600116156101000203166002900480156118a55780601f1061187a576101008083540402835291602001916118a5565b820191906000526020600020905b81548152906001019060200180831161188857829003601f168201915b50505050508152602001600782018054600181600116156101000203166002900480601f0160208091040260200160405190810160405280929190818152602001828054600181600116156101000203166002900480156119475780601f1061191c57610100808354040283529160200191611947565b820191906000526020600020905b81548152906001019060200180831161192a57829003601f168201915b50505050508152602001600882018054600181600116156101000203166002900480601f0160208091040260200160405190810160405280929190818152602001828054600181600116156101000203166002900480156119e95780601f106119be576101008083540402835291602001916119e9565b820191906000526020600020905b8154815290600101906020018083116119cc57829003601f168201915b5050505050815260200160098201805480602002602001604051908101604052809291908181526020016000905b82821015611ad3578382906000526020600020018054600181600116156101000203166002900480601f016020809104026020016040519081016040528092919081815260200182805460018160011615610100020316600290048015611abf5780601f10611a9457610100808354040283529160200191611abf565b820191906000526020600020905b815481529060010190602001808311611aa257829003601f168201915b505050505081526020019060010190611a17565b505050508152602001600a8201805480602002602001604051908101604052809291908181526020016000905b82821015611c0357838290600052602060002001805480602002602001604051908101604052809291908181526020016000905b82821015611bf0578382906000526020600020018054600181600116156101000203166002900480601f016020809104026020016040519081016040528092919081815260200182805460018160011615610100020316600290048015611bdc5780601f10611bb157610100808354040283529160200191611bdc565b820191906000526020600020905b815481529060010190602001808311611bbf57829003601f168201915b505050505081526020019060010190611b34565b5050505081526020019060010190611b00565b50505050815250509050919050565b60606000809054906101000a900473ffffffffffffffffffffffffffffffffffffffff1673ffffffffffffffffffffffffffffffffffffffff163373ffffffffffffffffffffffffffffffffffffffff1614611ca3576040517f08c379a0000000000000000000000000000000000000000000000000000000008152600401611c9a90614ef9565b60405180910390fd5b6005805480602002602001604051908101604052809291908181526020018280548015611cef57602002820191906000526020600020905b815481526020019060010190808311611cdb575b5050505050905090565b816001600082815260200190815260200160002060009054906101000a900460ff16611d5a576040517f08c379a0000000000000000000000000000000000000000000000000000000008152600401611d5190614e59565b60405180910390fd5b600180600084815260200190815260200160002060006101000a81548160ff02191690831515021790555060006001600085815260200190815260200160002060006101000a81548160ff0219169083151502179055506000801b60036000848152602001908152602001600020819055506002600084815260200190815260200160002060026000848152602001908152602001600020908054611e009291906135ae565b50600260008481526020019081526020016000206000611e209190613600565b60008090505b6002600084815260200190815260200160002080549050811015611e91578260036000600260008781526020019081526020016000208481548110611e6757fe5b90600052602060002001548152602001908152602001600020819055508080600101915050611e26565b50505050565b6000809054906101000a900473ffffffffffffffffffffffffffffffffffffffff1673ffffffffffffffffffffffffffffffffffffffff163373ffffffffffffffffffffffffffffffffffffffff1614611f26576040517f08c379a0000000000000000000000000000000000000000000000000000000008152600401611f1d90614ef9565b60405180910390fd5b80611f3081612e66565b15611f70576040517f08c379a0000000000000000000000000000000000000000000000000000000008152600401611f6790614f79565b60405180910390fd5b600660019054906101000a900460ff1660ff16600660009054906101000a900460ff1660ff161115611fd7576040517f08c379a0000000000000000000000000000000000000000000000000000000008152600401611fce90614f99565b60405180910390fd5b60008090505b600660019054906101000a900460ff1660ff168160ff1610156120a2576000600760008360ff1660ff168152602001908152602001600020805460018160011615610100020316600290049050116120955782600760008360ff1660ff168152602001908152602001600020908051906020019061205c92919061348c565b506006600081819054906101000a900460ff168092919060010191906101000a81548160ff021916908360ff16021790555050506120a4565b8080600101915050611fdd565b505b5050565b6000809054906101000a900473ffffffffffffffffffffffffffffffffffffffff1681565b80600c836040516120de9190614d32565b9081526020016040518091039020600082015181600001908051906020019061210892919061334c565b50602082015181600101908051906020019061212592919061334c565b50604082015181600201908051906020019061214292919061334c565b50905050600061215284846131a7565b905060008112156121b257600b60008581526020019081526020016000208390806001815401808255809150509060018203906000526020600020016000909192909190915090805190602001906121ab92919061348c565b50506121f0565b82600b600086815260200190815260200160002082815481106121d157fe5b9060005260206000200190805190602001906121ee92919061348c565b505b50505050565b606060096000848152602001908152602001600020805480602002602001604051908101604052809291908181526020016000905b828210156124d1578382906000526020600020906003020160405180606001604052908160008201805480602002602001604051908101604052809291908181526020016000905b8282101561232f578382906000526020600020018054600181600116156101000203166002900480601f01602080910402602001604051908101604052809291908181526020018280546001816001161561010002031660029004801561231b5780601f106122f05761010080835404028352916020019161231b565b820191906000526020600020905b8154815290600101906020018083116122fe57829003601f168201915b505050505081526020019060010190612273565b50505050815260200160018201805480602002602001604051908101604052809291908181526020016000905b82821015612418578382906000526020600020018054600181600116156101000203166002900480601f0160208091040260200160405190810160405280929190818152602001828054600181600116156101000203166002900480156124045780601f106123d957610100808354040283529160200191612404565b820191906000526020600020905b8154815290600101906020018083116123e757829003601f168201915b50505050508152602001906001019061235c565b505050508152602001600282018054600181600116156101000203166002900480601f0160208091040260200160405190810160405280929190818152602001828054600181600116156101000203166002900480156124b95780601f1061248e576101008083540402835291602001916124b9565b820191906000526020600020905b81548152906001019060200180831161249c57829003601f168201915b5050505050815250508152602001906001019061222b565b50505050905092915050565b6124e5613621565b600a60008381526020019081526020016000206040518060a0016040529081600082018054600181600116156101000203166002900480601f01602080910402602001604051908101604052809291908181526020018280546001816001161561010002031660029004801561259c5780601f106125715761010080835404028352916020019161259c565b820191906000526020600020905b81548152906001019060200180831161257f57829003601f168201915b50505050508152602001600182018054600181600116156101000203166002900480601f01602080910402602001604051908101604052809291908181526020018280546001816001161561010002031660029004801561263e5780601f106126135761010080835404028352916020019161263e565b820191906000526020600020905b81548152906001019060200180831161262157829003601f168201915b50505050508152602001600282018054600181600116156101000203166002900480601f0160208091040260200160405190810160405280929190818152602001828054600181600116156101000203166002900480156126e05780601f106126b5576101008083540402835291602001916126e0565b820191906000526020600020905b8154815290600101906020018083116126c357829003601f168201915b50505050508152602001600382018054600181600116156101000203166002900480601f0160208091040260200160405190810160405280929190818152602001828054600181600116156101000203166002900480156127825780601f1061275757610100808354040283529160200191612782565b820191906000526020600020905b81548152906001019060200180831161276557829003601f168201915b50505050508152602001600482018054600181600116156101000203166002900480601f0160208091040260200160405190810160405280929190818152602001828054600181600116156101000203166002900480156128245780601f106127f957610100808354040283529160200191612824565b820191906000526020600020905b81548152906001019060200180831161280757829003601f168201915b5050505050815250509050919050565b60006001600083815260200190815260200160002060009054906101000a900460ff168061287857506000801b600360008481526020019081526020016000205414155b9050919050565b80600a600084815260200190815260200160002060008201518160000190805190602001906128af92919061334c565b5060208201518160010190805190602001906128cc92919061334c565b5060408201518160020190805190602001906128e992919061334c565b50606082015181600301908051906020019061290692919061334c565b50608082015181600401908051906020019061292392919061334c565b509050505050565b606080600b60008481526020019081526020016000208054905060405190808252806020026020018201604052801561297e57816020015b61296b613650565b8152602001906001900390816129635790505b50905060008090505b600b600085815260200190815260200160002080549050811015612bff57600c600b600086815260200190815260200160002082815481106129c557fe5b906000526020600020016040516129dc9190614d49565b9081526020016040518091039020604051806060016040529081600082018054600181600116156101000203166002900480601f016020809104026020016040519081016040528092919081815260200182805460018160011615610100020316600290048015612a8e5780601f10612a6357610100808354040283529160200191612a8e565b820191906000526020600020905b815481529060010190602001808311612a7157829003601f168201915b50505050508152602001600182018054600181600116156101000203166002900480601f016020809104026020016040519081016040528092919081815260200182805460018160011615610100020316600290048015612b305780601f10612b0557610100808354040283529160200191612b30565b820191906000526020600020905b815481529060010190602001808311612b1357829003601f168201915b50505050508152602001600282018054600181600116156101000203166002900480601f016020809104026020016040519081016040528092919081815260200182805460018160011615610100020316600290048015612bd25780601f10612ba757610100808354040283529160200191612bd2565b820191906000526020600020905b815481529060010190602001808311612bb557829003601f168201915b505050505081525050828281518110612be757fe5b60200260200101819052508080600101915050612987565b5080915050919050565b816001600082815260200190815260200160002060009054906101000a900460ff16612c6a576040517f08c379a0000000000000000000000000000000000000000000000000000000008152600401612c6190614e59565b60405180910390fd5b6000801b600360008481526020019081526020016000205414612cc2576040517f08c379a0000000000000000000000000000000000000000000000000000000008152600401612cb990614e39565b60405180910390fd5b60026000848152602001908152602001600020829080600181540180825580915050906001820390600052602060002001600090919290919091505550826003600084815260200190815260200160002081905550505050565b85612d2681612834565b612d65576040517f08c379a0000000000000000000000000000000000000000000000000000000008152600401612d5c90614fb9565b60405180910390fd5b835183511115612daa576040517f08c379a0000000000000000000000000000000000000000000000000000000008152600401612da190614ed9565b60405180910390fd5b60096000878152602001908152602001600020604051806060016040528086815260200185815260200184815250908060018154018082558091505090600182039060005260206000209060030201600090919290919091506000820151816000019080519060200190612e1f9291906133cc565b506020820151816001019080519060200190612e3c9291906133cc565b506040820151816002019080519060200190612e5992919061334c565b5050505050505050505050565b6000600660019054906101000a900460ff1660ff16612e8483612e8f565b60ff16109050919050565b600080612e9b8361331c565b905060008090505b600660019054906101000a900460ff1660ff168160ff161015612fd1576000600760008360ff1660ff168152602001908152602001600020805460018160011615610100020316600290049050118015612fb5575081612fb3600760008460ff1660ff1681526020019081526020016000208054600181600116156101000203166002900480601f016020809104026020016040519081016040528092919081815260200182805460018160011615610100020316600290048015612fa95780601f10612f7e57610100808354040283529160200191612fa9565b820191906000526020600020905b815481529060010190602001808311612f8c57829003601f168201915b505050505061331c565b145b15612fc4578092505050612fd8565b8080600101915050612ea3565b5060ff9150505b919050565b600080600090505b60058054905081101561302757826005828154811061300057fe5b9060005260206000200154141561301a578091505061304c565b8080600101915050612fe5565b507fffffffffffffffffffffffffffffffffffffffffffffffffffffffffffffffff90505b919050565b600060ff61305f8484613068565b10905092915050565b600080600090505b6008846040516130809190614d32565b9081526020016040518091039020805490508160ff16101561319b576130a58361331c565b61317c6008866040516130b89190614d32565b90815260200160405180910390208360ff16815481106130d457fe5b906000526020600020018054600181600116156101000203166002900480601f0160208091040260200160405190810160405280929190818152602001828054600181600116156101000203166002900480156131725780601f1061314757610100808354040283529160200191613172565b820191906000526020600020905b81548152906001019060200180831161315557829003601f168201915b505050505061331c565b141561318e578060ff169150506131a1565b8080600101915050613070565b5060ff90505b92915050565b600080600090505b600b600085815260200190815260200160002080549050816fffffffffffffffffffffffffffffffff1610156132f1576131e88361331c565b6132c3600b6000878152602001908152602001600020836fffffffffffffffffffffffffffffffff168154811061321b57fe5b906000526020600020018054600181600116156101000203166002900480601f0160208091040260200160405190810160405280929190818152602001828054600181600116156101000203166002900480156132b95780601f1061328e576101008083540402835291602001916132b9565b820191906000526020600020905b81548152906001019060200180831161329c57829003601f168201915b505050505061331c565b14156132e457806fffffffffffffffffffffffffffffffff16915050613316565b80806001019150506131af565b507fffffffffffffffffffffffffffffffffffffffffffffffffffffffffffffffff90505b92915050565b60008160405160200161332f9190614d32565b604051602081830303815290604052805190602001209050919050565b828054600181600116156101000203166002900490600052602060002090601f016020900481019282601f1061338d57805160ff19168380011785556133bb565b828001600101855582156133bb579182015b828111156133ba57825182559160200191906001019061339f565b5b5090506133c89190613671565b5090565b82805482825590600052602060002090810192821561341b579160200282015b8281111561341a57825182908051906020019061340a92919061334c565b50916020019190600101906133ec565b5b5090506134289190613696565b5090565b82805482825590600052602060002090810192821561347b579160200282015b8281111561347a57825182908051906020019061346a9291906133cc565b509160200191906001019061344c565b5b50905061348891906136c2565b5090565b828054600181600116156101000203166002900490600052602060002090601f016020900481019282601f106134cd57805160ff19168380011785556134fb565b828001600101855582156134fb579182015b828111156134fa5782518255916020019190600101906134df565b5b5090506135089190613671565b5090565b50805460018160011615610100020316600290046000825580601f106135325750613551565b601f0160209004906000526020600020908101906135509190613671565b5b50565b60405180610160016040528060608152602001606081526020016060815260200160608152602001606081526020016060815260200160608152602001606081526020016060815260200160608152602001606081525090565b8280548282559060005260206000209081019282156135ef5760005260206000209182015b828111156135ee5782548255916001019190600101906135d3565b5b5090506135fc91906136ee565b5090565b508054600082559060005260206000209081019061361e91906136ee565b50565b6040518060a0016040528060608152602001606081526020016060815260200160608152602001606081525090565b60405180606001604052806060815260200160608152602001606081525090565b61369391905b8082111561368f576000816000905550600101613677565b5090565b90565b6136bf91905b808211156136bb57600081816136b2919061350c565b5060010161369c565b5090565b90565b6136eb91905b808211156136e757600081816136de9190613713565b506001016136c8565b5090565b90565b61371091905b8082111561370c5760008160009055506001016136f4565b5090565b90565b50805460008255906000526020600020908101906137319190613696565b50565b600081359050613743816153a9565b92915050565b600082601f83011261375a57600080fd5b813561376d6137688261507a565b61504d565b9150818183526020840193506020810190508360005b838110156137b3578135860161379988826137bd565b845260208401935060208301925050600181019050613783565b5050505092915050565b600082601f8301126137ce57600080fd5b81356137e16137dc826150a2565b61504d565b9150818183526020840193506020810190508360005b83811015613827578135860161380d88826138cf565b8452602084019350602083019250506001810190506137f7565b5050505092915050565b600082601f83011261384257600080fd5b8135613855613850826150ca565b61504d565b9150818183526020840193506020810190508360005b8381101561389b578135860161388188826138cf565b84526020840193506020830192505060018101905061386b565b5050505092915050565b6000813590506138b4816153c0565b92915050565b6000815190506138c9816153c0565b92915050565b600082601f8301126138e057600080fd5b81356138f36138ee826150f2565b61504d565b9150808252602083016020830185838301111561390f57600080fd5b61391a838284615356565b50505092915050565b600082601f83011261393457600080fd5b81356139476139428261511e565b61504d565b9150808252602083016020830185838301111561396357600080fd5b61396e838284615356565b50505092915050565b60006060828403121561398957600080fd5b613993606061504d565b9050600082013567ffffffffffffffff8111156139af57600080fd5b6139bb848285016138cf565b600083015250602082013567ffffffffffffffff8111156139db57600080fd5b6139e7848285016138cf565b602083015250604082013567ffffffffffffffff811115613a0757600080fd5b613a13848285016138cf565b60408301525092915050565b60006101608284031215613a3257600080fd5b613a3d61016061504d565b9050600082013567ffffffffffffffff811115613a5957600080fd5b613a65848285016138cf565b600083015250602082013567ffffffffffffffff811115613a8557600080fd5b613a91848285016138cf565b602083015250604082013567ffffffffffffffff811115613ab157600080fd5b613abd848285016138cf565b604083015250606082013567ffffffffffffffff811115613add57600080fd5b613ae9848285016138cf565b606083015250608082013567ffffffffffffffff811115613b0957600080fd5b613b15848285016138cf565b60808301525060a082013567ffffffffffffffff811115613b3557600080fd5b613b41848285016138cf565b60a08301525060c082013567ffffffffffffffff811115613b6157600080fd5b613b6d848285016138cf565b60c08301525060e082013567ffffffffffffffff811115613b8d57600080fd5b613b99848285016138cf565b60e08301525061010082013567ffffffffffffffff811115613bba57600080fd5b613bc6848285016138cf565b6101008301525061012082013567ffffffffffffffff811115613be857600080fd5b613bf4848285016137bd565b6101208301525061014082013567ffffffffffffffff811115613c1657600080fd5b613c2284828501613749565b6101408301525092915050565b600060a08284031215613c4157600080fd5b613c4b60a061504d565b9050600082013567ffffffffffffffff811115613c6757600080fd5b613c73848285016138cf565b600083015250602082013567ffffffffffffffff811115613c9357600080fd5b613c9f848285016138cf565b602083015250604082013567ffffffffffffffff811115613cbf57600080fd5b613ccb848285016138cf565b604083015250606082013567ffffffffffffffff811115613ceb57600080fd5b613cf7848285016138cf565b606083015250608082013567ffffffffffffffff811115613d1757600080fd5b613d23848285016138cf565b60808301525092915050565b600060208284031215613d4157600080fd5b6000613d4f84828501613734565b91505092915050565b600060208284031215613d6a57600080fd5b6000613d78848285016138a5565b91505092915050565b600060208284031215613d9357600080fd5b6000613da1848285016138ba565b91505092915050565b60008060408385031215613dbd57600080fd5b6000613dcb858286016138a5565b9250506020613ddc858286016138a5565b9150509250929050565b60008060008060008060c08789031215613dff57600080fd5b6000613e0d89828a016138a5565b9650506020613e1e89828a016138a5565b955050604087013567ffffffffffffffff811115613e3b57600080fd5b613e4789828a01613923565b945050606087013567ffffffffffffffff811115613e6457600080fd5b613e7089828a01613831565b935050608087013567ffffffffffffffff811115613e8d57600080fd5b613e9989828a01613831565b92505060a087013567ffffffffffffffff811115613eb657600080fd5b613ec289828a01613923565b9150509295509295509295565b60008060408385031215613ee257600080fd5b6000613ef0858286016138a5565b925050602083013567ffffffffffffffff811115613f0d57600080fd5b613f1985828601613923565b9150509250929050565b600080600060608486031215613f3857600080fd5b6000613f46868287016138a5565b935050602084013567ffffffffffffffff811115613f6357600080fd5b613f6f86828701613923565b925050604084013567ffffffffffffffff811115613f8c57600080fd5b613f9886828701613977565b9150509250925092565b60008060408385031215613fb557600080fd5b6000613fc3858286016138a5565b925050602083013567ffffffffffffffff811115613fe057600080fd5b613fec85828601613c2f565b9150509250929050565b60006020828403121561400857600080fd5b600082013567ffffffffffffffff81111561402257600080fd5b61402e84828501613923565b91505092915050565b6000806040838503121561404a57600080fd5b600083013567ffffffffffffffff81111561406457600080fd5b61407085828601613923565b925050602083013567ffffffffffffffff81111561408d57600080fd5b61409985828601613923565b9150509250929050565b6000806000606084860312156140b857600080fd5b600084013567ffffffffffffffff8111156140d257600080fd5b6140de86828701613923565b935050602084013567ffffffffffffffff8111156140fb57600080fd5b61410786828701613923565b925050604084013567ffffffffffffffff81111561412457600080fd5b61413086828701613923565b9150509250925092565b6000806040838503121561414d57600080fd5b600083013567ffffffffffffffff81111561416757600080fd5b61417385828601613a1f565b9250506020614184858286016138a5565b9150509250929050565b600061419a838361434d565b905092915050565b60006141ae83836144bb565b60208301905092915050565b60006141c6838361453b565b905092915050565b60006141da8383614a98565b905092915050565b60006141ee8383614c2b565b905092915050565b6141ff8161530e565b82525050565b6000614210826151bf565b61421a8185615270565b93508360208202850161422c8561514a565b8060005b858110156142685784840389528151614249858261418e565b945061425483615222565b925060208a01995050600181019050614230565b50829750879550505050505092915050565b6000614285826151ca565b61428f8185615281565b935061429a8361515a565b8060005b838110156142cb5781516142b288826141a2565b97506142bd8361522f565b92505060018101905061429e565b5085935050505092915050565b60006142e3826151e0565b6142ed81856152a3565b9350836020820285016142ff8561517a565b8060005b8581101561433b578484038952815161431c85826141ba565b945061432783615249565b925060208a01995050600181019050614303565b50829750879550505050505092915050565b6000614358826151d5565b6143628185615292565b9350836020820285016143748561516a565b8060005b858110156143b0578484038952815161439185826141ba565b945061439c8361523c565b925060208a01995050600181019050614378565b50829750879550505050505092915050565b60006143cd826151eb565b6143d781856152b4565b9350836020820285016143e98561518a565b8060005b85811015614425578484038952815161440685826141ce565b945061441183615256565b925060208a019950506001810190506143ed565b50829750879550505050505092915050565b6000614442826151f6565b61444c81856152c5565b93508360208202850161445e8561519a565b8060005b8581101561449a578484038952815161447b85826141e2565b945061448683615263565b925060208a01995050600181019050614462565b50829750879550505050505092915050565b6144b581615320565b82525050565b6144c48161532c565b82525050565b6144d38161532c565b82525050565b60006144e482615201565b6144ee81856152d6565b93506144fe818560208601615365565b80840191505092915050565b600061451582615217565b61451f8185615303565b935061452f818560208601615365565b80840191505092915050565b60006145468261520c565b61455081856152e1565b9350614560818560208601615365565b61456981615398565b840191505092915050565b60008154600181166000811461459157600181146145b6576145fa565b607f60028304166145a28187615303565b955060ff19831686528086019350506145fa565b600282046145c48187615303565b95506145cf856151aa565b60005b828110156145f1578154818901526001820191506020810190506145d2565b82880195505050505b505092915050565b600061460f6021836152f2565b91507f5468617420656d706c6f79656520616c726561647920776f726b73207468657260008301527f65000000000000000000000000000000000000000000000000000000000000006020830152604082019050919050565b60006146756029836152f2565b91507f596f75206d7573742062652061206465616c657273686970206f776e6572207460008301527f6f20646f207468697300000000000000000000000000000000000000000000006020830152604082019050919050565b60006146db601e836152f2565b91507f54686174207375627365727669636520616c72656164792065786973747300006000830152602082019050919050565b600061471b6021836152f2565b91507f4e6f206170706c69636174696f6e2065786973747320666f722074686174206960008301527f64000000000000000000000000000000000000000000000000000000000000006020830152604082019050919050565b60006147816021836152f2565b91507f4d6178696d756d207375627365727669636520616d6f756e742072656163686560008301527f64000000000000000000000000000000000000000000000000000000000000006020830152604082019050919050565b60006147e76033836152f2565b91507f4e756d626572206f6620737562736572766963657320646f6573206e6f74206d60008301527f617463682073657276696365206c656e677468000000000000000000000000006020830152604082019050919050565b600061484d6015836152f2565b91507f596f7520617265206e6f7420746865206f776e657200000000000000000000006000830152602082019050919050565b600061488d602c836152f2565b91507f54686174207375627365727669636520646f65736e7420657869737420696e2060008301527f7468697320636f6e7465787400000000000000000000000000000000000000006020830152604082019050919050565b60006148f3601b836152f2565b91507f54686174207365727669636520646f6573206e6f7420657869737400000000006000830152602082019050919050565b60006149336022836152f2565b91507f54686174206164647265737320697320616c726561647920726567697374657260008301527f65640000000000000000000000000000000000000000000000000000000000006020830152604082019050919050565b6000614999601b836152f2565b91507f54686174207365727669636520616c72656164792065786973747300000000006000830152602082019050919050565b60006149d96028836152f2565b91507f54686572652061726520746865206d6178696d756d206e756d626572206f662060008301527f73657276696365730000000000000000000000000000000000000000000000006020830152604082019050919050565b6000614a3f6028836152f2565b91507f596f75206d7573742062652061207665726966696564206465616c657220746f60008301527f20646f20746869730000000000000000000000000000000000000000000000006020830152604082019050919050565b60006060830160008301518482036000860152614ab5828261453b565b91505060208301518482036020860152614acf828261453b565b91505060408301518482036040860152614ae9828261453b565b9150508091505092915050565b6000610160830160008301518482036000860152614b14828261453b565b91505060208301518482036020860152614b2e828261453b565b91505060408301518482036040860152614b48828261453b565b91505060608301518482036060860152614b62828261453b565b91505060808301518482036080860152614b7c828261453b565b91505060a083015184820360a0860152614b96828261453b565b91505060c083015184820360c0860152614bb0828261453b565b91505060e083015184820360e0860152614bca828261453b565b915050610100830151848203610100860152614be6828261453b565b915050610120830151848203610120860152614c02828261434d565b915050610140830151848203610140860152614c1e8282614205565b9150508091505092915050565b60006060830160008301518482036000860152614c48828261434d565b91505060208301518482036020860152614c62828261434d565b91505060408301518482036040860152614c7c828261453b565b9150508091505092915050565b600060a0830160008301518482036000860152614ca6828261453b565b91505060208301518482036020860152614cc0828261453b565b91505060408301518482036040860152614cda828261453b565b91505060608301518482036060860152614cf4828261453b565b91505060808301518482036080860152614d0e828261453b565b9150508091505092915050565b6000614d2782846144d9565b915081905092915050565b6000614d3e828461450a565b915081905092915050565b6000614d558284614574565b915081905092915050565b6000602082019050614d7560008301846141f6565b92915050565b60006020820190508181036000830152614d95818461427a565b905092915050565b60006020820190508181036000830152614db781846142d8565b905092915050565b60006020820190508181036000830152614dd981846143c2565b905092915050565b60006020820190508181036000830152614dfb8184614437565b905092915050565b6000602082019050614e1860008301846144ac565b92915050565b6000602082019050614e3360008301846144ca565b92915050565b60006020820190508181036000830152614e5281614602565b9050919050565b60006020820190508181036000830152614e7281614668565b9050919050565b60006020820190508181036000830152614e92816146ce565b9050919050565b60006020820190508181036000830152614eb28161470e565b9050919050565b60006020820190508181036000830152614ed281614774565b9050919050565b60006020820190508181036000830152614ef2816147da565b9050919050565b60006020820190508181036000830152614f1281614840565b9050919050565b60006020820190508181036000830152614f3281614880565b9050919050565b60006020820190508181036000830152614f52816148e6565b9050919050565b60006020820190508181036000830152614f7281614926565b9050919050565b60006020820190508181036000830152614f928161498c565b9050919050565b60006020820190508181036000830152614fb2816149cc565b9050919050565b60006020820190508181036000830152614fd281614a32565b9050919050565b60006020820190508181036000830152614ff38184614af6565b905092915050565b600060408201905081810360008301526150158185614af6565b905061502460208301846144ca565b9392505050565b600060208201905081810360008301526150458184614c89565b905092915050565b6000604051905081810181811067ffffffffffffffff8211171561507057600080fd5b8060405250919050565b600067ffffffffffffffff82111561509157600080fd5b602082029050602081019050919050565b600067ffffffffffffffff8211156150b957600080fd5b602082029050602081019050919050565b600067ffffffffffffffff8211156150e157600080fd5b602082029050602081019050919050565b600067ffffffffffffffff82111561510957600080fd5b601f19601f8301169050602081019050919050565b600067ffffffffffffffff82111561513557600080fd5b601f19601f8301169050602081019050919050565b6000819050602082019050919050565b6000819050602082019050919050565b6000819050602082019050919050565b6000819050602082019050919050565b6000819050602082019050919050565b6000819050602082019050919050565b60008190508160005260206000209050919050565b600081519050919050565b600081519050919050565b600081519050919050565b600081519050919050565b600081519050919050565b600081519050919050565b600081519050919050565b600081519050919050565b600081519050919050565b6000602082019050919050565b6000602082019050919050565b6000602082019050919050565b6000602082019050919050565b6000602082019050919050565b6000602082019050919050565b600082825260208201905092915050565b600082825260208201905092915050565b600082825260208201905092915050565b600082825260208201905092915050565b600082825260208201905092915050565b600082825260208201905092915050565b600081905092915050565b600082825260208201905092915050565b600082825260208201905092915050565b600081905092915050565b600061531982615336565b9050919050565b60008115159050919050565b6000819050919050565b600073ffffffffffffffffffffffffffffffffffffffff82169050919050565b82818337600083830152505050565b60005b83811015615383578082015181840152602081019050615368565b83811115615392576000848401525b50505050565b6000601f19601f8301169050919050565b6153b28161530e565b81146153bd57600080fd5b50565b6153c98161532c565b81146153d457600080fd5b5056fea365627a7a723158207900b54b2901fbdf552f85eb5ed02d50997786de6f6a1d313a24d51c1c5614c86c6578706572696d656e74616cf564736f6c634300050c0040",
  "source": "pragma solidity ^0.5.11;\npragma experimental ABIEncoderV2;\n\nimport \"./ServiceHandler.sol\";\n\ncontract UserContract is ServiceHandler {\n\n    struct RecordInternal {\n        string[] services;\n        string[] subservices;\n        string comment;\n    }\n    struct UserInfo {\n        string firstName;\n        string lastName;\n        string adr;\n        string phNo;\n        string email;\n    }\n    struct CarInfo{\n        string brand;\n        string model;\n        string year;\n    }\n\n    //------------------------------------------------------------_Records_---------------------------------------------\n\n    mapping(bytes32 => RecordInternal[]) private userRecords;\n    mapping(bytes32 => UserInfo) private userInfoRecords;\n    mapping(bytes32 => string[]) private userCars;\n    mapping(string => CarInfo) private carDetails;\n\n    function editUserInfo(bytes32 userId, UserInfo memory info) public {\n        userInfoRecords[userId] = info;\n    }\n\n    function getUserInfo(bytes32 userId) public view returns(UserInfo memory) {\n        return userInfoRecords[userId];\n    }\n\n    function editCarDetails(bytes32 userId, string memory noPlate, CarInfo memory carInfo) public{\n        carDetails[noPlate] = carInfo;\n        int index = getCarIndex(userId,noPlate);\n        if(index < 0){\n            userCars[userId].push(noPlate);\n        }\n        else{\n            userCars[userId][uint(index)] = noPlate;\n        }\n    }\n\n    function getCarIndex(bytes32 userId, string memory noPlate) internal view returns (int){\n        for(uint128 i = 0; i < userCars[userId].length; i++) {\n            if(encode(userCars[userId][i]) == encode(noPlate)) return i;\n        }\n        return -1;\n    }\n\n    function getCars(bytes32 userId) public view returns(CarInfo[] memory){\n        CarInfo[] memory cars = new CarInfo[](userCars[userId].length);\n        for(uint i = 0; i < userCars[userId].length;i++) {\n            cars[i] = carDetails[userCars[userId][i]];\n        }\n        return cars;\n    }\n\n    function insertRecord(bytes32 dealerId, bytes32 id, string memory noPlate,\n     string[] memory services, string[] memory subservices, string memory comment)\n        public verified(dealerId) {\n        require(subservices.length <= services.length,\"Number of subservices does not match service length\");\n        userRecords[id].push(RecordInternal(services,subservices,comment));\n    }\n\n    //TODO Change records to be car specific and not user specific\n\n    function getRecords(bytes32 id, string memory noPlate) public view returns (RecordInternal[] memory) {\n        return userRecords[id];\n    }\n\n}\n",
  "sourcePath": "/Users/mapring/Documents/school/blockchain/blockchain-project-2019/contracts/UserContract.sol",
  "compiler": {
    "name": "solc",
    "version": "0.5.12+commit.7709ece9.Emscripten.clang"
  },
  "schemaVersion": "3.0.19",
  "updatedAt": "2019-11-23T17:46:05.223Z",
  "networkType": "ethereum",
  "devdoc": {
    "methods": {}
  },
  "userdoc": {
    "methods": {}
  }
}