{
  "contractName": "UserContract",
  "abi": [
    {
      "anonymous": false,
      "inputs": [
        {
          "components": [
            {
              "internalType": "string",
              "name": "dealerName",
              "type": "string"
            },
            {
              "internalType": "string",
              "name": "firstName",
              "type": "string"
            },
            {
              "internalType": "string",
              "name": "lastName",
              "type": "string"
            },
            {
              "internalType": "string",
              "name": "addr",
              "type": "string"
            },
            {
              "internalType": "string[2]",
              "name": "location",
              "type": "string[2]"
            },
            {
              "internalType": "string",
              "name": "phoneNo",
              "type": "string"
            },
            {
              "internalType": "string",
              "name": "bestSeller",
              "type": "string"
            },
            {
              "internalType": "string",
              "name": "promotion",
              "type": "string"
            },
            {
              "internalType": "string",
              "name": "otherServices",
              "type": "string"
            },
            {
              "internalType": "string[]",
              "name": "availableServices",
              "type": "string[]"
            },
            {
              "internalType": "string[][]",
              "name": "availableSubServices",
              "type": "string[][]"
            }
          ],
          "indexed": false,
          "internalType": "struct DealerContract.DealerInfo",
          "name": "info",
          "type": "tuple"
        },
        {
          "indexed": false,
          "internalType": "bytes32",
          "name": "id",
          "type": "bytes32"
        }
      ],
      "name": "ApplicationApproved",
      "type": "event"
    },
    {
      "anonymous": false,
      "inputs": [
        {
          "components": [
            {
              "internalType": "string",
              "name": "dealerName",
              "type": "string"
            },
            {
              "internalType": "string",
              "name": "firstName",
              "type": "string"
            },
            {
              "internalType": "string",
              "name": "lastName",
              "type": "string"
            },
            {
              "internalType": "string",
              "name": "addr",
              "type": "string"
            },
            {
              "internalType": "string[2]",
              "name": "location",
              "type": "string[2]"
            },
            {
              "internalType": "string",
              "name": "phoneNo",
              "type": "string"
            },
            {
              "internalType": "string",
              "name": "bestSeller",
              "type": "string"
            },
            {
              "internalType": "string",
              "name": "promotion",
              "type": "string"
            },
            {
              "internalType": "string",
              "name": "otherServices",
              "type": "string"
            },
            {
              "internalType": "string[]",
              "name": "availableServices",
              "type": "string[]"
            },
            {
              "internalType": "string[][]",
              "name": "availableSubServices",
              "type": "string[][]"
            }
          ],
          "indexed": false,
          "internalType": "struct DealerContract.DealerInfo",
          "name": "info",
          "type": "tuple"
        },
        {
          "indexed": false,
          "internalType": "bytes32",
          "name": "id",
          "type": "bytes32"
        }
      ],
      "name": "ApplicationRejected",
      "type": "event"
    },
    {
      "anonymous": false,
      "inputs": [
        {
          "components": [
            {
              "internalType": "string",
              "name": "dealerName",
              "type": "string"
            },
            {
              "internalType": "string",
              "name": "firstName",
              "type": "string"
            },
            {
              "internalType": "string",
              "name": "lastName",
              "type": "string"
            },
            {
              "internalType": "string",
              "name": "addr",
              "type": "string"
            },
            {
              "internalType": "string[2]",
              "name": "location",
              "type": "string[2]"
            },
            {
              "internalType": "string",
              "name": "phoneNo",
              "type": "string"
            },
            {
              "internalType": "string",
              "name": "bestSeller",
              "type": "string"
            },
            {
              "internalType": "string",
              "name": "promotion",
              "type": "string"
            },
            {
              "internalType": "string",
              "name": "otherServices",
              "type": "string"
            },
            {
              "internalType": "string[]",
              "name": "availableServices",
              "type": "string[]"
            },
            {
              "internalType": "string[][]",
              "name": "availableSubServices",
              "type": "string[][]"
            }
          ],
          "indexed": false,
          "internalType": "struct DealerContract.DealerInfo",
          "name": "info",
          "type": "tuple"
        },
        {
          "indexed": false,
          "internalType": "bytes32",
          "name": "id",
          "type": "bytes32"
        }
      ],
      "name": "CreateDealerApplication",
      "type": "event"
    },
    {
      "constant": false,
      "inputs": [
        {
          "internalType": "bytes32",
          "name": "dealerId",
          "type": "bytes32"
        },
        {
          "internalType": "bytes32",
          "name": "adr",
          "type": "bytes32"
        }
      ],
      "name": "addDealerEmployee",
      "outputs": [],
      "payable": false,
      "stateMutability": "nonpayable",
      "type": "function"
    },
    {
      "constant": false,
      "inputs": [
        {
          "internalType": "string",
          "name": "serviceName",
          "type": "string"
        }
      ],
      "name": "addService",
      "outputs": [],
      "payable": false,
      "stateMutability": "nonpayable",
      "type": "function"
    },
    {
      "constant": false,
      "inputs": [
        {
          "internalType": "string",
          "name": "serviceName",
          "type": "string"
        },
        {
          "internalType": "string",
          "name": "subServiceName",
          "type": "string"
        }
      ],
      "name": "addSubService",
      "outputs": [],
      "payable": false,
      "stateMutability": "nonpayable",
      "type": "function"
    },
    {
      "constant": false,
      "inputs": [
        {
          "internalType": "bytes32",
          "name": "adr",
          "type": "bytes32"
        }
      ],
      "name": "approveApplication",
      "outputs": [],
      "payable": false,
      "stateMutability": "nonpayable",
      "type": "function"
    },
    {
      "constant": false,
      "inputs": [
        {
          "components": [
            {
              "internalType": "string",
              "name": "dealerName",
              "type": "string"
            },
            {
              "internalType": "string",
              "name": "firstName",
              "type": "string"
            },
            {
              "internalType": "string",
              "name": "lastName",
              "type": "string"
            },
            {
              "internalType": "string",
              "name": "addr",
              "type": "string"
            },
            {
              "internalType": "string[2]",
              "name": "location",
              "type": "string[2]"
            },
            {
              "internalType": "string",
              "name": "phoneNo",
              "type": "string"
            },
            {
              "internalType": "string",
              "name": "bestSeller",
              "type": "string"
            },
            {
              "internalType": "string",
              "name": "promotion",
              "type": "string"
            },
            {
              "internalType": "string",
              "name": "otherServices",
              "type": "string"
            },
            {
              "internalType": "string[]",
              "name": "availableServices",
              "type": "string[]"
            },
            {
              "internalType": "string[][]",
              "name": "availableSubServices",
              "type": "string[][]"
            }
          ],
          "internalType": "struct DealerContract.DealerInfo",
          "name": "info",
          "type": "tuple"
        },
        {
          "internalType": "bytes32",
          "name": "id",
          "type": "bytes32"
        }
      ],
      "name": "createDealerApplication",
      "outputs": [],
      "payable": false,
      "stateMutability": "nonpayable",
      "type": "function"
    },
    {
      "constant": false,
      "inputs": [
        {
          "internalType": "string",
          "name": "serviceName",
          "type": "string"
        }
      ],
      "name": "deleteService",
      "outputs": [],
      "payable": false,
      "stateMutability": "nonpayable",
      "type": "function"
    },
    {
      "constant": false,
      "inputs": [
        {
          "internalType": "string",
          "name": "serviceName",
          "type": "string"
        },
        {
          "internalType": "string",
          "name": "subServiceName",
          "type": "string"
        }
      ],
      "name": "deleteSubService",
      "outputs": [],
      "payable": false,
      "stateMutability": "nonpayable",
      "type": "function"
    },
    {
      "constant": false,
      "inputs": [
        {
          "components": [
            {
              "internalType": "string",
              "name": "dealerName",
              "type": "string"
            },
            {
              "internalType": "string",
              "name": "firstName",
              "type": "string"
            },
            {
              "internalType": "string",
              "name": "lastName",
              "type": "string"
            },
            {
              "internalType": "string",
              "name": "addr",
              "type": "string"
            },
            {
              "internalType": "string[2]",
              "name": "location",
              "type": "string[2]"
            },
            {
              "internalType": "string",
              "name": "phoneNo",
              "type": "string"
            },
            {
              "internalType": "string",
              "name": "bestSeller",
              "type": "string"
            },
            {
              "internalType": "string",
              "name": "promotion",
              "type": "string"
            },
            {
              "internalType": "string",
              "name": "otherServices",
              "type": "string"
            },
            {
              "internalType": "string[]",
              "name": "availableServices",
              "type": "string[]"
            },
            {
              "internalType": "string[][]",
              "name": "availableSubServices",
              "type": "string[][]"
            }
          ],
          "internalType": "struct DealerContract.DealerInfo",
          "name": "info",
          "type": "tuple"
        },
        {
          "internalType": "bytes32",
          "name": "id",
          "type": "bytes32"
        }
      ],
      "name": "editDealerInfo",
      "outputs": [],
      "payable": false,
      "stateMutability": "nonpayable",
      "type": "function"
    },
    {
      "constant": false,
      "inputs": [
        {
          "internalType": "string",
          "name": "oldName",
          "type": "string"
        },
        {
          "internalType": "string",
          "name": "newName",
          "type": "string"
        }
      ],
      "name": "editServiceName",
      "outputs": [],
      "payable": false,
      "stateMutability": "nonpayable",
      "type": "function"
    },
    {
      "constant": false,
      "inputs": [
        {
          "internalType": "string",
          "name": "serviceName",
          "type": "string"
        },
        {
          "internalType": "string",
          "name": "oldName",
          "type": "string"
        },
        {
          "internalType": "string",
          "name": "newName",
          "type": "string"
        }
      ],
      "name": "editSubServiceName",
      "outputs": [],
      "payable": false,
      "stateMutability": "nonpayable",
      "type": "function"
    },
    {
      "constant": true,
      "inputs": [],
      "name": "getAllDealerApplications",
      "outputs": [
        {
          "internalType": "bytes32[]",
          "name": "",
          "type": "bytes32[]"
        }
      ],
      "payable": false,
      "stateMutability": "view",
      "type": "function"
    },
    {
      "constant": true,
      "inputs": [
        {
          "internalType": "bytes32",
          "name": "id",
          "type": "bytes32"
        }
      ],
      "name": "getDealerInfo",
      "outputs": [
        {
          "components": [
            {
              "internalType": "string",
              "name": "dealerName",
              "type": "string"
            },
            {
              "internalType": "string",
              "name": "firstName",
              "type": "string"
            },
            {
              "internalType": "string",
              "name": "lastName",
              "type": "string"
            },
            {
              "internalType": "string",
              "name": "addr",
              "type": "string"
            },
            {
              "internalType": "string[2]",
              "name": "location",
              "type": "string[2]"
            },
            {
              "internalType": "string",
              "name": "phoneNo",
              "type": "string"
            },
            {
              "internalType": "string",
              "name": "bestSeller",
              "type": "string"
            },
            {
              "internalType": "string",
              "name": "promotion",
              "type": "string"
            },
            {
              "internalType": "string",
              "name": "otherServices",
              "type": "string"
            },
            {
              "internalType": "string[]",
              "name": "availableServices",
              "type": "string[]"
            },
            {
              "internalType": "string[][]",
              "name": "availableSubServices",
              "type": "string[][]"
            }
          ],
          "internalType": "struct DealerContract.DealerInfo",
          "name": "",
          "type": "tuple"
        }
      ],
      "payable": false,
      "stateMutability": "view",
      "type": "function"
    },
    {
      "constant": true,
      "inputs": [
        {
          "internalType": "string",
          "name": "id",
          "type": "string"
        }
      ],
      "name": "getHash",
      "outputs": [
        {
          "internalType": "bytes32",
          "name": "",
          "type": "bytes32"
        }
      ],
      "payable": false,
      "stateMutability": "pure",
      "type": "function"
    },
    {
      "constant": true,
      "inputs": [],
      "name": "getServices",
      "outputs": [
        {
          "internalType": "string[]",
          "name": "",
          "type": "string[]"
        }
      ],
      "payable": false,
      "stateMutability": "view",
      "type": "function"
    },
    {
      "constant": true,
      "inputs": [
        {
          "internalType": "string",
          "name": "serviceName",
          "type": "string"
        }
      ],
      "name": "getSubServices",
      "outputs": [
        {
          "internalType": "string[]",
          "name": "",
          "type": "string[]"
        }
      ],
      "payable": false,
      "stateMutability": "view",
      "type": "function"
    },
    {
      "constant": true,
      "inputs": [
        {
          "internalType": "bytes32",
          "name": "adr",
          "type": "bytes32"
        }
      ],
      "name": "isVerified",
      "outputs": [
        {
          "internalType": "bool",
          "name": "",
          "type": "bool"
        }
      ],
      "payable": false,
      "stateMutability": "view",
      "type": "function"
    },
    {
      "constant": true,
      "inputs": [],
      "name": "owner",
      "outputs": [
        {
          "internalType": "address",
          "name": "",
          "type": "address"
        }
      ],
      "payable": false,
      "stateMutability": "view",
      "type": "function"
    },
    {
      "constant": false,
      "inputs": [
        {
          "internalType": "bytes32",
          "name": "adr",
          "type": "bytes32"
        }
      ],
      "name": "rejectApplication",
      "outputs": [],
      "payable": false,
      "stateMutability": "nonpayable",
      "type": "function"
    },
    {
      "constant": false,
      "inputs": [
        {
          "internalType": "bytes32",
          "name": "dealershipId",
          "type": "bytes32"
        },
        {
          "internalType": "bytes32",
          "name": "otherId",
          "type": "bytes32"
        }
      ],
      "name": "transferDealershipOwner",
      "outputs": [],
      "payable": false,
      "stateMutability": "nonpayable",
      "type": "function"
    },
    {
      "constant": false,
      "inputs": [
        {
          "internalType": "address",
          "name": "newOwner",
          "type": "address"
        }
      ],
      "name": "transferOwner",
      "outputs": [],
      "payable": false,
      "stateMutability": "nonpayable",
      "type": "function"
    },
    {
      "constant": true,
      "inputs": [],
      "name": "getAllUsers",
      "outputs": [
        {
          "internalType": "bytes32[]",
          "name": "",
          "type": "bytes32[]"
        }
      ],
      "payable": false,
      "stateMutability": "view",
      "type": "function"
    },
    {
      "constant": false,
      "inputs": [
        {
          "internalType": "bytes32",
          "name": "userId",
          "type": "bytes32"
        },
        {
          "components": [
            {
              "internalType": "string",
              "name": "firstName",
              "type": "string"
            },
            {
              "internalType": "string",
              "name": "lastName",
              "type": "string"
            },
            {
              "internalType": "string",
              "name": "adr",
              "type": "string"
            },
            {
              "internalType": "string",
              "name": "phNo",
              "type": "string"
            },
            {
              "internalType": "string",
              "name": "email",
              "type": "string"
            }
          ],
          "internalType": "struct UserContract.UserInfo",
          "name": "info",
          "type": "tuple"
        }
      ],
      "name": "editUserInfo",
      "outputs": [],
      "payable": false,
      "stateMutability": "nonpayable",
      "type": "function"
    },
    {
      "constant": true,
      "inputs": [
        {
          "internalType": "bytes32",
          "name": "userId",
          "type": "bytes32"
        }
      ],
      "name": "getUserInfo",
      "outputs": [
        {
          "components": [
            {
              "internalType": "string",
              "name": "firstName",
              "type": "string"
            },
            {
              "internalType": "string",
              "name": "lastName",
              "type": "string"
            },
            {
              "internalType": "string",
              "name": "adr",
              "type": "string"
            },
            {
              "internalType": "string",
              "name": "phNo",
              "type": "string"
            },
            {
              "internalType": "string",
              "name": "email",
              "type": "string"
            }
          ],
          "internalType": "struct UserContract.UserInfo",
          "name": "",
          "type": "tuple"
        }
      ],
      "payable": false,
      "stateMutability": "view",
      "type": "function"
    },
    {
      "constant": false,
      "inputs": [
        {
          "internalType": "bytes32",
          "name": "userId",
          "type": "bytes32"
        },
        {
          "internalType": "string",
          "name": "noPlate",
          "type": "string"
        },
        {
          "components": [
            {
              "internalType": "string",
              "name": "brand",
              "type": "string"
            },
            {
              "internalType": "string",
              "name": "model",
              "type": "string"
            },
            {
              "internalType": "string",
              "name": "year",
              "type": "string"
            }
          ],
          "internalType": "struct UserContract.CarInfo",
          "name": "carInfo",
          "type": "tuple"
        }
      ],
      "name": "editCarDetails",
      "outputs": [],
      "payable": false,
      "stateMutability": "nonpayable",
      "type": "function"
    },
    {
      "constant": true,
      "inputs": [
        {
          "internalType": "bytes32",
          "name": "userId",
          "type": "bytes32"
        }
      ],
      "name": "getCarPlates",
      "outputs": [
        {
          "internalType": "string[]",
          "name": "",
          "type": "string[]"
        }
      ],
      "payable": false,
      "stateMutability": "view",
      "type": "function"
    },
    {
      "constant": true,
      "inputs": [
        {
          "internalType": "bytes32",
          "name": "userId",
          "type": "bytes32"
        }
      ],
      "name": "getCars",
      "outputs": [
        {
          "components": [
            {
              "internalType": "string",
              "name": "brand",
              "type": "string"
            },
            {
              "internalType": "string",
              "name": "model",
              "type": "string"
            },
            {
              "internalType": "string",
              "name": "year",
              "type": "string"
            }
          ],
          "internalType": "struct UserContract.CarInfo[]",
          "name": "",
          "type": "tuple[]"
        }
      ],
      "payable": false,
      "stateMutability": "view",
      "type": "function"
    },
    {
      "constant": true,
      "inputs": [
        {
          "internalType": "string",
          "name": "noPlate",
          "type": "string"
        }
      ],
      "name": "getCarDetails",
      "outputs": [
        {
          "components": [
            {
              "internalType": "string",
              "name": "brand",
              "type": "string"
            },
            {
              "internalType": "string",
              "name": "model",
              "type": "string"
            },
            {
              "internalType": "string",
              "name": "year",
              "type": "string"
            }
          ],
          "internalType": "struct UserContract.CarInfo",
          "name": "",
          "type": "tuple"
        }
      ],
      "payable": false,
      "stateMutability": "view",
      "type": "function"
    },
    {
      "constant": false,
      "inputs": [
        {
          "internalType": "bytes32",
          "name": "dealerId",
          "type": "bytes32"
        },
        {
          "internalType": "bytes32",
          "name": "id",
          "type": "bytes32"
        },
        {
          "internalType": "string",
          "name": "noPlate",
          "type": "string"
        },
        {
          "internalType": "string[]",
          "name": "services",
          "type": "string[]"
        },
        {
          "internalType": "string[]",
          "name": "subservices",
          "type": "string[]"
        },
        {
          "internalType": "string",
          "name": "comment",
          "type": "string"
        },
        {
          "internalType": "uint256",
          "name": "timeStamp",
          "type": "uint256"
        }
      ],
      "name": "insertRecord",
      "outputs": [],
      "payable": false,
      "stateMutability": "nonpayable",
      "type": "function"
    },
    {
      "constant": true,
      "inputs": [
        {
          "internalType": "string",
          "name": "noPlate",
          "type": "string"
        }
      ],
      "name": "getRecords",
      "outputs": [
        {
          "components": [
            {
              "internalType": "bytes32",
              "name": "dealerId",
              "type": "bytes32"
            },
            {
              "internalType": "string[]",
              "name": "services",
              "type": "string[]"
            },
            {
              "internalType": "string[]",
              "name": "subservices",
              "type": "string[]"
            },
            {
              "internalType": "string",
              "name": "comment",
              "type": "string"
            },
            {
              "internalType": "uint256",
              "name": "timeStamp",
              "type": "uint256"
            }
          ],
          "internalType": "struct UserContract.RecordInternal[]",
          "name": "",
          "type": "tuple[]"
        }
      ],
      "payable": false,
      "stateMutability": "view",
      "type": "function"
    }
  ],
  "bytecode": "0x60806040526006805461fe0061ff0019909116179055600080546001600160a01b03191633179055614b29806100366000396000f3fe608060405234801561001057600080fd5b50600436106101cf5760003560e01c80637e41667f11610104578063adff8b0f116100a2578063d872acac11610071578063d872acac1461040e578063e2842d791461042e578063e445268c14610436578063fcda35f914610449576101cf565b8063adff8b0f1461039b578063c181b273146103bb578063c4e91d17146103db578063c9b54a58146103ee576101cf565b806388fcd194116100de57806388fcd1941461034d5780638da5cb5b146103605780638ee24214146103755780638f2b514414610388576101cf565b80637e41667f1461030557806382d7afbd1461031a57806386e80b711461032d576101cf565b80634fb2e45d116101715780636fd7d2b51161014b5780636fd7d2b5146102b7578063752326c1146102ca57806375417851146102dd5780637d17f13c146102e5576101cf565b80634fb2e45d1461027157806350fb95e3146102845780635b6beeb914610297576101cf565b80631a4c85be116101ad5780631a4c85be1461020f5780631b8f47fe14610222578063369bfce414610235578063431a65fc14610248576101cf565b80630ad5be91146101d45780630eb7bc8f146101e95780631118127a146101fc575b600080fd5b6101e76101e236600461382d565b61045c565b005b6101e76101f7366004613a1b565b61060a565b6101e761020a366004613aff565b610695565b6101e761021d3660046139e7565b610883565b6101e76102303660046137b7565b610956565b6101e7610243366004613a1b565b610a36565b61025b6102563660046139e7565b610bbd565b604051610268919061482f565b60405180910390f35b6101e761027f366004613791565b610cb4565b6101e7610292366004613a1b565b610d00565b6102aa6102a53660046139e7565b610dda565b6040516102689190614870565b6101e76102c5366004613a78565b610e4f565b6101e76102d8366004613aff565b610ef9565b61025b611060565b6102f86102f33660046137b7565b6111b5565b604051610268919061495f565b61030d61193f565b604051610268919061481e565b6101e76103283660046137f3565b6119c2565b61034061033b3660046139e7565b611abe565b6040516102689190614851565b6101e761035b3660046139e7565b611d88565b610368611e96565b6040516102689190614810565b6101e7610383366004613925565b611ea5565b61025b6103963660046137b7565b611fac565b6103ae6103a93660046137b7565b61208c565b60405161026891906149a1565b6103ce6103c93660046137b7565b61239e565b6040516102689190614862565b6101e76103e93660046139a0565b6123cb565b6104016103fc3660046137b7565b61245d565b6040516102689190614840565b61042161041c3660046139e7565b6126ff565b604051610268919061494e565b61030d6128bb565b6101e76104443660046137f3565b61293c565b6101e76104573660046137b7565b6129c7565b866104668161239e565b61048b5760405162461bcd60e51b81526004016104829061493e565b60405180910390fd5b8451845111156104ad5760405162461bcd60e51b8152600401610482906148ce565b60006104b98888612a8a565b12156104f6576000878152600b60209081526040822080546001810180835591845292829020895191936104f393910191908a0190612df0565b50505b60098660405161050691906147f8565b90815260408051918290036020908101832060a0840183528b845283820189815292840188905260608401879052608084018690528054600181810180845560009384529284902086516005909302019182559351805192959491936105729392850192910190612e6e565b506040820151805161058e916002840191602090910190612e6e565b50606082015180516105aa916003840191602090910190612df0565b50608082015181600401555050506000196105c488612b9f565b141561060057600d80546001810182556000919091527fd7b6990105719101dabeb77144f2a3385c8033acd3af97e9423a695e81ad1eb5018790555b5050505050505050565b6000546001600160a01b031633146106345760405162461bcd60e51b8152600401610482906148de565b8161063e81612be5565b61065a5760405162461bcd60e51b8152600401610482906148fe565b816007600061066886612c06565b60ff1660ff168152602001908152602001600020908051906020019061068f929190612df0565b50505050565b60008181526001602052604090205460ff16156106c45760405162461bcd60e51b81526004016104829061490e565b60008181526004602090815260409091208351805185936106e9928492910190612df0565b5060208281015180516107029260018501920190612df0565b506040820151805161071e916002840191602090910190612df0565b506060820151805161073a916003840191602090910190612df0565b5060808201516107509060048301906002612ec7565b5060a0820151805161076c916006840191602090910190612df0565b5060c08201518051610788916007840191602090910190612df0565b5060e082015180516107a4916008840191602090910190612df0565b5061010082015180516107c1916009840191602090910190612df0565b5061012082015180516107de91600a840191602090910190612e6e565b5061014082015180516107fb91600b840191602090910190612f07565b50905050600061080a82612cf0565b121561084657600580546001810182556000919091527f036b6384b5eca791c62761152d0c79bb0604c104a5fb6f4eb0703f3154bb3db0018190555b7fbcb28ce223d1d07df7ff015302f0aee0306ad6362ede3db7aa3c6d40a651f0088282604051610877929190614970565b60405180910390a15050565b6000546001600160a01b031633146108ad5760405162461bcd60e51b8152600401610482906148de565b806108b781612be5565b6108d35760405162461bcd60e51b8152600401610482906148fe565b60006108de83612c06565b604080516020808201808452600080845260ff861681526007909252929020905192935061090e92909190612df0565b5060088360405161091f91906147f8565b908152602001604051809103902060006109399190612f60565b50506006805460ff19811660ff9182166000190190911617905550565b6000546001600160a01b031633146109805760405162461bcd60e51b8152600401610482906148de565b600061098b82612cf0565b905060008112156109ae5760405162461bcd60e51b8152600401610482906148ae565b6000828152600160208190526040909120805460ff1916909117905560058054829081106109d857fe5b600091825260208220015560058054906109f6906000198301612f81565b506000828152600460205260409081902090517ff0447ca0275a7a763cd2739e8753770648c2f2178ce48fdcdfb68ab2a119efda91610877918590614990565b6000546001600160a01b03163314610a605760405162461bcd60e51b8152600401610482906148de565b8181610a6c8282612d2c565b610a885760405162461bcd60e51b8152600401610482906148ee565b6000610a948585612d42565b905060006001600887604051610aaa91906147f8565b908152602001604051809103902080549050039050600886604051610acf91906147f8565b90815260200160405180910390208181548110610ae857fe5b90600052602060002001600887604051610b0291906147f8565b90815260200160405180910390208381548110610b1b57fe5b906000526020600020019080546001816001161561010002031660029004610b44929190612fa5565b50600886604051610b5591906147f8565b90815260200160405180910390208181548110610b6e57fe5b906000526020600020016000610b84919061301a565b600886604051610b9491906147f8565b908152604051908190036020019020805490610bb490600019830161305e565b50505050505050565b6060600882604051610bcf91906147f8565b9081526020016040518091039020805480602002602001604051908101604052809291908181526020016000905b82821015610ca85760008481526020908190208301805460408051601f6002600019610100600187161502019094169390930492830185900485028101850190915281815292830182828015610c945780601f10610c6957610100808354040283529160200191610c94565b820191906000526020600020905b815481529060010190602001808311610c7757829003601f168201915b505050505081526020019060010190610bfd565b5050505090505b919050565b6000546001600160a01b03163314610cde5760405162461bcd60e51b8152600401610482906148de565b600080546001600160a01b0319166001600160a01b0392909216919091179055565b8160ff600882604051610d1391906147f8565b9081526040519081900360200190205410610d405760405162461bcd60e51b8152600401610482906148be565b8282610d4c8282612d2c565b15610d695760405162461bcd60e51b81526004016104829061489e565b6000546001600160a01b03163314610d935760405162461bcd60e51b8152600401610482906148de565b600885604051610da391906147f8565b9081526040516020918190038201902080546001810180835560009283529183902087519293610bb4939190920191880190612df0565b6000600282604051602001610def91906147f8565b60408051601f1981840301815290829052610e09916147f8565b602060405180830381855afa158015610e26573d6000803e3d6000fd5b5050506040513d601f19601f82011682018060405250610e4991908101906137d5565b92915050565b8282610e5b8282612d2c565b610e775760405162461bcd60e51b8152600401610482906148ee565b6000546001600160a01b03163314610ea15760405162461bcd60e51b8152600401610482906148de565b82600886604051610eb291906147f8565b9081526020016040518091039020610eca8787612d42565b81548110610ed457fe5b906000526020600020019080519060200190610ef1929190612df0565b505050505050565b600081815260016020526040902054819060ff16610f295760405162461bcd60e51b81526004016104829061488e565b6000828152600460209081526040909120845180518693610f4e928492910190612df0565b506020828101518051610f679260018501920190612df0565b5060408201518051610f83916002840191602090910190612df0565b5060608201518051610f9f916003840191602090910190612df0565b506080820151610fb59060048301906002612ec7565b5060a08201518051610fd1916006840191602090910190612df0565b5060c08201518051610fed916007840191602090910190612df0565b5060e08201518051611009916008840191602090910190612df0565b506101008201518051611026916009840191602090910190612df0565b50610120820151805161104391600a840191602090910190612e6e565b506101408201518051610ef191600b840191602090910190612f07565b6006546040805160ff90921680835260208082028401019091526060918291801561109f57816020015b606081526020019060019003908161108a5790505b5090506000805b60065460ff610100909104811690821610156111ac5760ff811660009081526007602052604090205460026000196101006001841615020190911604156111a45760ff811660009081526007602090815260409182902080548351601f60026000196101006001861615020190931692909204918201849004840281018401909452808452909183018282801561117e5780601f106111535761010080835404028352916020019161117e565b820191906000526020600020905b81548152906001019060200180831161116157829003601f168201915b5050505050838380600101945060ff168151811061119857fe5b60200260200101819052505b6001016110a6565b50909150505b90565b6111bd613082565b6000828152600460209081526040918290208251815460026001821615610100026000190190911604601f81018490049093028101610180908101909452610160810183815290939192849284919084018282801561125d5780601f106112325761010080835404028352916020019161125d565b820191906000526020600020905b81548152906001019060200180831161124057829003601f168201915b50505050508152602001600182018054600181600116156101000203166002900480601f0160208091040260200160405190810160405280929190818152602001828054600181600116156101000203166002900480156112ff5780601f106112d4576101008083540402835291602001916112ff565b820191906000526020600020905b8154815290600101906020018083116112e257829003601f168201915b5050509183525050600282810180546040805160206001841615610100026000190190931694909404601f810183900483028501830190915280845293810193908301828280156113915780601f1061136657610100808354040283529160200191611391565b820191906000526020600020905b81548152906001019060200180831161137457829003601f168201915b505050918352505060038201805460408051602060026001851615610100026000190190941693909304601f81018490048402820184019092528181529382019392918301828280156114255780601f106113fa57610100808354040283529160200191611425565b820191906000526020600020905b81548152906001019060200180831161140857829003601f168201915b5050509183525050604080518082019091526020909101906004830160026000835b828210156114ea57838201805460408051602060026001851615610100026000190190941693909304601f810184900484028201840190925281815292918301828280156114d65780601f106114ab576101008083540402835291602001916114d6565b820191906000526020600020905b8154815290600101906020018083116114b957829003601f168201915b505050505081526020019060010190611447565b5050509082525060068201805460408051602060026001851615610100026000190190941693909304601f810184900484028201840190925281815293820193929183018282801561157d5780601f106115525761010080835404028352916020019161157d565b820191906000526020600020905b81548152906001019060200180831161156057829003601f168201915b505050918352505060078201805460408051602060026001851615610100026000190190941693909304601f81018490048402820184019092528181529382019392918301828280156116115780601f106115e657610100808354040283529160200191611611565b820191906000526020600020905b8154815290600101906020018083116115f457829003601f168201915b505050918352505060088201805460408051602060026001851615610100026000190190941693909304601f81018490048402820184019092528181529382019392918301828280156116a55780601f1061167a576101008083540402835291602001916116a5565b820191906000526020600020905b81548152906001019060200180831161168857829003601f168201915b505050918352505060098201805460408051602060026001851615610100026000190190941693909304601f81018490048402820184019092528181529382019392918301828280156117395780601f1061170e57610100808354040283529160200191611739565b820191906000526020600020905b81548152906001019060200180831161171c57829003601f168201915b50505050508152602001600a8201805480602002602001604051908101604052809291908181526020016000905b828210156118125760008481526020908190208301805460408051601f60026000196101006001871615020190941693909304928301859004850281018501909152818152928301828280156117fe5780601f106117d3576101008083540402835291602001916117fe565b820191906000526020600020905b8154815290600101906020018083116117e157829003601f168201915b505050505081526020019060010190611767565b505050508152602001600b8201805480602002602001604051908101604052809291908181526020016000905b8282101561193157838290600052602060002001805480602002602001604051908101604052809291908181526020016000905b8282101561191e5760008481526020908190208301805460408051601f600260001961010060018716150201909416939093049283018590048502810185019091528181529283018282801561190a5780601f106118df5761010080835404028352916020019161190a565b820191906000526020600020905b8154815290600101906020018083116118ed57829003601f168201915b505050505081526020019060010190611873565b505050508152602001906001019061183f565b505050915250909392505050565b6000546060906001600160a01b0316331461196c5760405162461bcd60e51b8152600401610482906148de565b60058054806020026020016040519081016040528092919081815260200182805480156119b857602002820191906000526020600020905b8154815260200190600101908083116119a4575b5050505050905090565b600082815260016020526040902054829060ff166119f25760405162461bcd60e51b81526004016104829061488e565b6000828152600160208181526040808420805460ff1990811690941790558684528084208054909316909255848352600381528183208390558583526002905280822084835291208154611a4692906130e2565b506000838152600260205260408120611a5e91613121565b60005b60008381526002602052604090205481101561068f578260036000600260008781526020019081526020016000208481548110611a9a57fe5b60009182526020808320909101548352820192909252604001902055600101611a61565b6060600982604051611ad091906147f8565b9081526020016040518091039020805480602002602001604051908101604052809291908181526020016000905b82821015610ca857838290600052602060002090600502016040518060a00160405290816000820154815260200160018201805480602002602001604051908101604052809291908181526020016000905b82821015611bfb5760008481526020908190208301805460408051601f6002600019610100600187161502019094169390930492830185900485028101850190915281815292830182828015611be75780601f10611bbc57610100808354040283529160200191611be7565b820191906000526020600020905b815481529060010190602001808311611bca57829003601f168201915b505050505081526020019060010190611b50565b50505050815260200160028201805480602002602001604051908101604052809291908181526020016000905b82821015611cd35760008481526020908190208301805460408051601f6002600019610100600187161502019094169390930492830185900485028101850190915281815292830182828015611cbf5780601f10611c9457610100808354040283529160200191611cbf565b820191906000526020600020905b815481529060010190602001808311611ca257829003601f168201915b505050505081526020019060010190611c28565b5050509082525060038201805460408051602060026001851615610100026000190190941693909304601f8101849004840282018401909252818152938201939291830182828015611d665780601f10611d3b57610100808354040283529160200191611d66565b820191906000526020600020905b815481529060010190602001808311611d4957829003601f168201915b5050505050815260200160048201548152505081526020019060010190611afe565b6000546001600160a01b03163314611db25760405162461bcd60e51b8152600401610482906148de565b80611dbc81612be5565b15611dd95760405162461bcd60e51b81526004016104829061491e565b60065460ff6101008204811691161115611e055760405162461bcd60e51b81526004016104829061492e565b60005b60065460ff61010090910481169082161015611e905760ff811660009081526007602052604090205460026000196101006001841615020190911604611e885760ff811660009081526007602090815260409091208451611e6b92860190612df0565b50506006805460ff8082166001011660ff19909116179055611e92565b600101611e08565b505b5050565b6000546001600160a01b031681565b80600c83604051611eb691906147f8565b90815260200160405180910390206000820151816000019080519060200190611ee0929190612df0565b506020828101518051611ef99260018501920190612df0565b5060408201518051611f15916002840191602090910190612df0565b509050506000611f258484612a8a565b90506000811215611f6b576000848152600b6020908152604082208054600181018083559184529282902086519193611f649391019190870190612df0565b505061068f565b6000848152600b60205260409020805484919083908110611f8857fe5b906000526020600020019080519060200190611fa5929190612df0565b5050505050565b6060600b6000838152602001908152602001600020805480602002602001604051908101604052809291908181526020016000905b82821015610ca85760008481526020908190208301805460408051601f60026000196101006001871615020190941693909304928301859004850281018501909152818152928301828280156120785780601f1061204d57610100808354040283529160200191612078565b820191906000526020600020905b81548152906001019060200180831161205b57829003601f168201915b505050505081526020019060010190611fe1565b61209461313f565b6000828152600a60209081526040918290208251815460026001821615610100026000190190911604601f8101849004909302810160c090810190945260a081018381529093919284928491908401828280156121325780601f1061210757610100808354040283529160200191612132565b820191906000526020600020905b81548152906001019060200180831161211557829003601f168201915b50505050508152602001600182018054600181600116156101000203166002900480601f0160208091040260200160405190810160405280929190818152602001828054600181600116156101000203166002900480156121d45780601f106121a9576101008083540402835291602001916121d4565b820191906000526020600020905b8154815290600101906020018083116121b757829003601f168201915b5050509183525050600282810180546040805160206001841615610100026000190190931694909404601f810183900483028501830190915280845293810193908301828280156122665780601f1061223b57610100808354040283529160200191612266565b820191906000526020600020905b81548152906001019060200180831161224957829003601f168201915b505050918352505060038201805460408051602060026001851615610100026000190190941693909304601f81018490048402820184019092528181529382019392918301828280156122fa5780601f106122cf576101008083540402835291602001916122fa565b820191906000526020600020905b8154815290600101906020018083116122dd57829003601f168201915b505050918352505060048201805460408051602060026001851615610100026000190190941693909304601f810184900484028201840190925281815293820193929183018282801561238e5780601f106123635761010080835404028352916020019161238e565b820191906000526020600020905b81548152906001019060200180831161237157829003601f168201915b5050505050815250509050919050565b60008181526001602052604081205460ff1680610e49575050600090815260036020526040902054151590565b6000828152600a602090815260409091208251805184936123f0928492910190612df0565b5060208281015180516124099260018501920190612df0565b5060408201518051612425916002840191602090910190612df0565b5060608201518051612441916003840191602090910190612df0565b5060808201518051611fa5916004840191602090910190612df0565b606080600b6000848152602001908152602001600020805490506040519080825280602002602001820160405280156124b057816020015b61249d61316e565b8152602001906001900390816124955790505b50905060005b6000848152600b60205260409020548110156126f8576000848152600b602052604090208054600c9190839081106124ea57fe5b906000526020600020016040516125019190614804565b9081526040805160209281900383018120805460026001821615610100026000190190911604601f8101859004909402820160809081019093526060820184815291939092849291849184018282801561259c5780601f106125715761010080835404028352916020019161259c565b820191906000526020600020905b81548152906001019060200180831161257f57829003601f168201915b50505050508152602001600182018054600181600116156101000203166002900480601f01602080910402602001604051908101604052809291908181526020018280546001816001161561010002031660029004801561263e5780601f106126135761010080835404028352916020019161263e565b820191906000526020600020905b81548152906001019060200180831161262157829003601f168201915b5050509183525050600282810180546040805160206001841615610100026000190190931694909404601f810183900483028501830190915280845293810193908301828280156126d05780601f106126a5576101008083540402835291602001916126d0565b820191906000526020600020905b8154815290600101906020018083116126b357829003601f168201915b5050505050815250508282815181106126e557fe5b60209081029190910101526001016124b6565b5092915050565b61270761316e565b600c8260405161271791906147f8565b9081526040805160209281900383018120805460026001821615610100026000190190911604601f810185900490940282016080908101909352606082018481529193909284929184918401828280156127b25780601f10612787576101008083540402835291602001916127b2565b820191906000526020600020905b81548152906001019060200180831161279557829003601f168201915b50505050508152602001600182018054600181600116156101000203166002900480601f0160208091040260200160405190810160405280929190818152602001828054600181600116156101000203166002900480156128545780601f1061282957610100808354040283529160200191612854565b820191906000526020600020905b81548152906001019060200180831161283757829003601f168201915b5050509183525050600282810180546040805160206001841615610100026000190190931694909404601f8101839004830285018301909152808452938101939083018282801561238e5780601f106123635761010080835404028352916020019161238e565b6000546060906001600160a01b031633146128e85760405162461bcd60e51b8152600401610482906148de565b600d8054806020026020016040519081016040528092919081815260200182805480156119b857602002820191906000526020600020908154815260200190600101908083116119a4575050505050905090565b600082815260016020526040902054829060ff1661296c5760405162461bcd60e51b81526004016104829061488e565b600082815260036020526040902054156129985760405162461bcd60e51b81526004016104829061487e565b506000828152600260209081526040808320805460018101825590845282842001849055928252600390522055565b6000546001600160a01b031633146129f15760405162461bcd60e51b8152600401610482906148de565b60006129fc82612cf0565b90506000811215612a1f5760405162461bcd60e51b8152600401610482906148ae565b60058181548110612a2c57fe5b60009182526020822001556005805490612a4a906000198301612f81565b506000828152600460205260409081902090517fcfb420e6e825355362483fbe9ffa1ccb2e0686c46057781725aff63aeb58d56d91610877918590614990565b6000805b6000848152600b60205260409020546001600160801b0382161015612b9457612ab683612dc0565b6000858152600b602052604090208054612b7691906001600160801b038516908110612ade57fe5b600091825260209182902001805460408051601f6002600019610100600187161502019094169390930492830185900485028101850190915281815292830182828015612b6c5780601f10612b4157610100808354040283529160200191612b6c565b820191906000526020600020905b815481529060010190602001808311612b4f57829003601f168201915b5050505050612dc0565b1415612b8c576001600160801b03169050610e49565b600101612a8e565b506000199392505050565b6000805b600d54811015612bdb5782600d8281548110612bbb57fe5b90600052602060002001541415612bd3579050610caf565b600101612ba3565b5060001992915050565b600654600090610100900460ff16612bfc83612c06565b60ff161092915050565b600080612c1283612dc0565b905060005b60065460ff61010090910481169082161015612ce65760ff81166000908152600760205260409020546002600019610100600184161502019091160415801590612cd0575060ff81166000908152600760209081526040918290208054835160026001831615610100026000190190921691909104601f81018490048402820184019094528381528593612cce93919291830182828015612b6c5780601f10612b4157610100808354040283529160200191612b6c565b145b15612cde579150610caf9050565b600101612c17565b5060ff9392505050565b6000805b600554811015612bdb578260058281548110612d0c57fe5b90600052602060002001541415612d24579050610caf565b600101612cf4565b600060ff612d3a8484612d42565b109392505050565b6000805b600884604051612d5691906147f8565b9081526040519081900360200190205460ff82161015612ce657612d7983612dc0565b612da8600886604051612d8c91906147f8565b90815260200160405180910390208360ff1681548110612ade57fe5b1415612db85760ff169050610e49565b600101612d46565b600081604051602001612dd391906147f8565b604051602081830303815290604052805190602001209050919050565b828054600181600116156101000203166002900490600052602060002090601f016020900481019282601f10612e3157805160ff1916838001178555612e5e565b82800160010185558215612e5e579182015b82811115612e5e578251825591602001919060010190612e43565b50612e6a92915061318f565b5090565b828054828255906000526020600020908101928215612ebb579160200282015b82811115612ebb5782518051612eab918491602090910190612df0565b5091602001919060010190612e8e565b50612e6a9291506131a9565b8260028101928215612ebb579160200282015b82811115612ebb5782518051612ef7918491602090910190612df0565b5091602001919060010190612eda565b828054828255906000526020600020908101928215612f54579160200282015b82811115612f545782518051612f44918491602090910190612e6e565b5091602001919060010190612f27565b50612e6a9291506131cc565b5080546000825590600052602060002090810190612f7e91906131a9565b50565b815481835581811115611e9057600083815260209020611e9091810190830161318f565b828054600181600116156101000203166002900490600052602060002090601f016020900481019282601f10612fde5780548555612e5e565b82800160010185558215612e5e57600052602060002091601f016020900482015b82811115612e5e578254825591600101919060010190612fff565b50805460018160011615610100020316600290046000825580601f106130405750612f7e565b601f016020900490600052602060002090810190612f7e919061318f565b815481835581811115611e9057600083815260209020611e909181019083016131a9565b604051806101600160405280606081526020016060815260200160608152602001606081526020016130b26131ef565b81526020016060815260200160608152602001606081526020016060815260200160608152602001606081525090565b828054828255906000526020600020908101928215612e5e57600052602060002091820182811115612e5e578254825591600101919060010190612fff565b5080546000825590600052602060002090810190612f7e919061318f565b6040518060a0016040528060608152602001606081526020016060815260200160608152602001606081525090565b60405180606001604052806060815260200160608152602001606081525090565b6111b291905b80821115612e6a5760008155600101613195565b6111b291905b80821115612e6a5760006131c3828261301a565b506001016131af565b6111b291905b80821115612e6a5760006131e68282612f60565b506001016131d2565b60405180604001604052806002905b60608152602001906001900390816131fe5790505090565b8035610e4981614ac9565b600082601f83011261323257600080fd5b8135613245613240826149d8565b6149b2565b81815260209384019390925082018360005b83811015613283578135860161326d88826132df565b8452506020928301929190910190600101613257565b5050505092915050565b600082601f83011261329e57600080fd5b60026132ac613240826149f8565b9150818360005b8381101561328357813586016132c988826133af565b84525060209283019291909101906001016132b3565b600082601f8301126132f057600080fd5b81356132fe613240826149d8565b81815260209384019390925082018360005b83811015613283578135860161332688826133af565b8452506020928301929190910190600101613310565b600082601f83011261334d57600080fd5b813561335b613240826149d8565b81815260209384019390925082018360005b83811015613283578135860161338388826133af565b845250602092830192919091019060010161336d565b8035610e4981614add565b8051610e4981614add565b600082601f8301126133c057600080fd5b81356133ce61324082614a15565b915080825260208301602083018583830111156133ea57600080fd5b6133f5838284614a87565b50505092915050565b60006060828403121561341057600080fd5b61341a60606149b2565b905081356001600160401b0381111561343257600080fd5b61343e848285016133af565b82525060208201356001600160401b0381111561345a57600080fd5b613466848285016133af565b60208301525060408201356001600160401b0381111561348557600080fd5b613491848285016133af565b60408301525092915050565b600061016082840312156134b057600080fd5b6134bb6101606149b2565b905081356001600160401b038111156134d357600080fd5b6134df848285016133af565b82525060208201356001600160401b038111156134fb57600080fd5b613507848285016133af565b60208301525060408201356001600160401b0381111561352657600080fd5b613532848285016133af565b60408301525060608201356001600160401b0381111561355157600080fd5b61355d848285016133af565b60608301525060808201356001600160401b0381111561357c57600080fd5b6135888482850161328d565b60808301525060a08201356001600160401b038111156135a757600080fd5b6135b3848285016133af565b60a08301525060c08201356001600160401b038111156135d257600080fd5b6135de848285016133af565b60c08301525060e08201356001600160401b038111156135fd57600080fd5b613609848285016133af565b60e0830152506101008201356001600160401b0381111561362957600080fd5b613635848285016133af565b610100830152506101208201356001600160401b0381111561365657600080fd5b613662848285016132df565b610120830152506101408201356001600160401b0381111561368357600080fd5b61368f84828501613221565b6101408301525092915050565b600060a082840312156136ae57600080fd5b6136b860a06149b2565b905081356001600160401b038111156136d057600080fd5b6136dc848285016133af565b82525060208201356001600160401b038111156136f857600080fd5b613704848285016133af565b60208301525060408201356001600160401b0381111561372357600080fd5b61372f848285016133af565b60408301525060608201356001600160401b0381111561374e57600080fd5b61375a848285016133af565b60608301525060808201356001600160401b0381111561377957600080fd5b613785848285016133af565b60808301525092915050565b6000602082840312156137a357600080fd5b60006137af8484613216565b949350505050565b6000602082840312156137c957600080fd5b60006137af8484613399565b6000602082840312156137e757600080fd5b60006137af84846133a4565b6000806040838503121561380657600080fd5b60006138128585613399565b925050602061382385828601613399565b9150509250929050565b600080600080600080600060e0888a03121561384857600080fd5b60006138548a8a613399565b97505060206138658a828b01613399565b96505060408801356001600160401b0381111561388157600080fd5b61388d8a828b016133af565b95505060608801356001600160401b038111156138a957600080fd5b6138b58a828b0161333c565b94505060808801356001600160401b038111156138d157600080fd5b6138dd8a828b0161333c565b93505060a08801356001600160401b038111156138f957600080fd5b6139058a828b016133af565b92505060c06139168a828b01613399565b91505092959891949750929550565b60008060006060848603121561393a57600080fd5b60006139468686613399565b93505060208401356001600160401b0381111561396257600080fd5b61396e868287016133af565b92505060408401356001600160401b0381111561398a57600080fd5b613996868287016133fe565b9150509250925092565b600080604083850312156139b357600080fd5b60006139bf8585613399565b92505060208301356001600160401b038111156139db57600080fd5b6138238582860161369c565b6000602082840312156139f957600080fd5b81356001600160401b03811115613a0f57600080fd5b6137af848285016133af565b60008060408385031215613a2e57600080fd5b82356001600160401b03811115613a4457600080fd5b613a50858286016133af565b92505060208301356001600160401b03811115613a6c57600080fd5b613823858286016133af565b600080600060608486031215613a8d57600080fd5b83356001600160401b03811115613aa357600080fd5b613aaf868287016133af565b93505060208401356001600160401b03811115613acb57600080fd5b613ad7868287016133af565b92505060408401356001600160401b03811115613af357600080fd5b613996868287016133af565b60008060408385031215613b1257600080fd5b82356001600160401b03811115613b2857600080fd5b6138128582860161349d565b6000613b408383613d8f565b9392505050565b6000613b408383613e50565b6000613b5f8383613f7b565b505060200190565b6000613b408383613fb3565b6000613b408383613feb565b6000613b408383614465565b6000613b4083836146fb565b613ba081614a6b565b82525050565b6000613bb182614a4e565b613bbb8185614a62565b935083602082028501613bcd85614a3c565b8060005b85811015613c075784840389528151613bea8582613b34565b9450613bf583614a3c565b60209a909a0199925050600101613bd1565b5091979650505050505050565b6000613c1f82614a52565b613c298185614a62565b935083602082028501613c3b85614a42565b8060005b85811015613c0757848403895281613c578582613b47565b9450613c6283614a5c565b60209a909a0199925050600101613c3f565b6000613c7f82614a4e565b613c898185614a62565b9350613c9483614a3c565b8060005b83811015613cc2578151613cac8882613b53565b9750613cb783614a3c565b925050600101613c98565b509495945050505050565b6000613cd882614a56565b613ce28185610caf565b935083602082028501613cf4856111b2565b8060005b85811015613c075784840389528151613d118582613b67565b9450613d1c83614a3c565b60209a909a0199925050600101613cf8565b6000613d3982614a4e565b613d438185614a62565b935083602082028501613d5585614a3c565b8060005b85811015613c075784840389528151613d728582613b67565b9450613d7d83614a3c565b60209a909a0199925050600101613d59565b6000613d9a82614a4e565b613da48185614a62565b935083602082028501613db685614a3c565b8060005b85811015613c075784840389528151613dd38582613b67565b9450613dde83614a3c565b60209a909a0199925050600101613dba565b6000613dfb82614a56565b613e058185610caf565b935083602082028501613e17856111b2565b8060005b85811015613c0757848403895281613e338582613b73565b9450613e3e83614a5c565b60209a909a0199925050600101613e1b565b6000613e5b82614a52565b613e658185614a62565b935083602082028501613e7785614a42565b8060005b85811015613c0757848403895281613e938582613b73565b9450613e9e83614a5c565b60209a909a0199925050600101613e7b565b6000613ebb82614a4e565b613ec58185614a62565b935083602082028501613ed785614a3c565b8060005b85811015613c075784840389528151613ef48582613b7f565b9450613eff83614a3c565b60209a909a0199925050600101613edb565b6000613f1c82614a4e565b613f268185614a62565b935083602082028501613f3885614a3c565b8060005b85811015613c075784840389528151613f558582613b8b565b9450613f6083614a3c565b60209a909a0199925050600101613f3c565b613ba081614a76565b613ba0816111b2565b6000613f8f82614a4e565b613f998185610caf565b9350613fa9818560208601614a93565b9290920192915050565b6000613fbe82614a4e565b613fc88185614a62565b9350613fd8818560208601614a93565b613fe181614abf565b9093019392505050565b600081546001811660008114614008576001811461402e5761406d565b607f60028304166140198187614a62565b60ff198416815295505060208501925061406d565b6002820461403c8187614a62565b955061404785614a42565b60005b828110156140665781548882015260019091019060200161404a565b8701945050505b505092915050565b60008154600181166000811461409257600181146140b55761406d565b607f60028304166140a38187610caf565b60ff198416815295508501925061406d565b600282046140c38187610caf565b95506140ce85614a42565b60005b828110156140ed578154888201526001909101906020016140d1565b5050909401949350505050565b6000614107602183614a62565b7f5468617420656d706c6f79656520616c726561647920776f726b7320746865728152606560f81b602082015260400192915050565b600061414a602983614a62565b7f596f75206d7573742062652061206465616c657273686970206f776e657220748152686f20646f207468697360b81b602082015260400192915050565b6000614195601e83614a62565b7f54686174207375627365727669636520616c7265616479206578697374730000815260200192915050565b60006141ce602183614a62565b7f4e6f206170706c69636174696f6e2065786973747320666f72207468617420698152601960fa1b602082015260400192915050565b6000614211602183614a62565b7f4d6178696d756d207375627365727669636520616d6f756e74207265616368658152601960fa1b602082015260400192915050565b6000614254603383614a62565b7f4e756d626572206f6620737562736572766963657320646f6573206e6f74206d8152720c2e8c6d040e6cae4ecd2c6ca40d8cadccee8d606b1b602082015260400192915050565b60006142a9601583614a62565b742cb7ba9030b932903737ba103a34329037bbb732b960591b815260200192915050565b60006142da602c83614a62565b7f54686174207375627365727669636520646f65736e7420657869737420696e2081526b1d1a1a5cc818dbdb9d195e1d60a21b602082015260400192915050565b6000614328601b83614a62565b7f54686174207365727669636520646f6573206e6f742065786973740000000000815260200192915050565b6000614361602283614a62565b7f54686174206164647265737320697320616c7265616479207265676973746572815261195960f21b602082015260400192915050565b60006143a5601b83614a62565b7f54686174207365727669636520616c7265616479206578697374730000000000815260200192915050565b60006143de602883614a62565b7f54686572652061726520746865206d6178696d756d206e756d626572206f6620815267736572766963657360c01b602082015260400192915050565b6000614428602883614a62565b7f596f75206d7573742062652061207665726966696564206465616c657220746f81526720646f207468697360c01b602082015260400192915050565b805160608084526000919084019061447d8282613fb3565b915050602083015184820360208601526144978282613fb3565b915050604083015184820360408601526144b18282613fb3565b95945050505050565b8051610160808452600091908401906144d38282613fb3565b915050602083015184820360208601526144ed8282613fb3565b915050604083015184820360408601526145078282613fb3565b915050606083015184820360608601526145218282613fb3565b9150506080830151848203608086015261453b8282613ccd565b91505060a083015184820360a08601526145558282613fb3565b91505060c083015184820360c086015261456f8282613fb3565b91505060e083015184820360e08601526145898282613fb3565b9150506101008301518482036101008601526145a58282613fb3565b9150506101208301518482036101208601526145c18282613d8f565b9150506101408301518482036101408601526144b18282613ba6565b610160808352600090830181836145f48382613feb565b92505060018401858303602087015261460d8382613feb565b9250506002840185830360408701526146268382613feb565b92505060038401858303606087015261463f8382613feb565b9250506004840185830360808701526146588382613df0565b9250506006840185830360a08701526146718382613feb565b9250506007840185830360c087015261468a8382613feb565b9250506008840185830360e08701526146a38382613feb565b925050600984018583036101008701526146bd8382613feb565b925050600a84018583036101208701526146d78382613e50565b925050600b84018583036101408701526146f18382613c14565b9695505050505050565b805160009060a084019061470f8582613f7b565b50602083015184820360208601526147278282613d8f565b915050604083015184820360408601526147418282613d8f565b9150506060830151848203606086015261475b8282613fb3565b91505060808301516147706080860182613f7b565b509392505050565b805160a0808452600091908401906147908282613fb3565b915050602083015184820360208601526147aa8282613fb3565b915050604083015184820360408601526147c48282613fb3565b915050606083015184820360608601526147de8282613fb3565b915050608083015184820360808601526144b18282613fb3565b6000613b408284613f84565b6000613b408284614075565b60208101610e498284613b97565b60208082528101613b408184613c74565b60208082528101613b408184613d2e565b60208082528101613b408184613eb0565b60208082528101613b408184613f11565b60208101610e498284613f72565b60208101610e498284613f7b565b60208082528101610e49816140fa565b60208082528101610e498161413d565b60208082528101610e4981614188565b60208082528101610e49816141c1565b60208082528101610e4981614204565b60208082528101610e4981614247565b60208082528101610e498161429c565b60208082528101610e49816142cd565b60208082528101610e498161431b565b60208082528101610e4981614354565b60208082528101610e4981614398565b60208082528101610e49816143d1565b60208082528101610e498161441b565b60208082528101613b408184614465565b60208082528101613b4081846144ba565b6040808252810161498181856144ba565b9050613b406020830184613f7b565b6040808252810161498181856145dd565b60208082528101613b408184614778565b6040518181016001600160401b03811182821017156149d057600080fd5b604052919050565b60006001600160401b038211156149ee57600080fd5b5060209081020190565b60006001600160401b03821115614a0e57600080fd5b5060200290565b60006001600160401b03821115614a2b57600080fd5b506020601f91909101601f19160190565b60200190565b60009081526020902090565b5190565b5490565b50600290565b60010190565b90815260200190565b6000610e4982614a7b565b151590565b6001600160a01b031690565b82818337506000910152565b60005b83811015614aae578181015183820152602001614a96565b8381111561068f5750506000910152565b601f01601f191690565b614ad281614a6b565b8114612f7e57600080fd5b614ad2816111b256fea365627a7a723158206623d3947a999c1bf05128066e1c77073f7a6ad2028c4fa7120da378fb0541546c6578706572696d656e74616cf564736f6c634300050c0040",
  "source": "pragma solidity ^0.5.11;\npragma experimental ABIEncoderV2;\n\nimport \"./ServiceHandler.sol\";\n\ncontract UserContract is ServiceHandler {\n\n    struct RecordInternal {\n        bytes32 dealerId;\n        string[] services;\n        string[] subservices;\n        string comment;\n        uint timeStamp;\n    }\n    struct UserInfo {\n        string firstName;\n        string lastName;\n        string adr;\n        string phNo;\n        string email;\n    }\n    struct CarInfo{\n        string brand;\n        string model;\n        string year;\n    }\n\n    //------------------------------------------------------------_Records_---------------------------------------------\n\n    mapping(string => RecordInternal[]) private records;\n    mapping(bytes32 => UserInfo) private userInfoRecords;\n    mapping(bytes32 => string[]) private userCars;\n    mapping(string => CarInfo) private carDetails;\n\n    bytes32[] activeUsers;\n\n    function getAllUsers() public view ownerOnly returns(bytes32[] memory){\n        return activeUsers;\n    }\n\n    function getIndexOfUser(bytes32 user) internal view returns(uint){\n        for(uint i = 0; i < activeUsers.length; i++){\n            if(activeUsers[i] == user){\n                return i;\n            }\n        }\n        return uint(-1);\n    }\n\n    modifier carExists(string memory noPlate) {\n        require(bytes(carDetails[noPlate].brand).length > 0,\"That car does not exist in the chain\");\n        _;\n    }\n\n    function editUserInfo(bytes32 userId, UserInfo memory info) public {\n        userInfoRecords[userId] = info;\n    }\n\n    function getUserInfo(bytes32 userId) public view returns(UserInfo memory) {\n        return userInfoRecords[userId];\n    }\n\n    function editCarDetails(bytes32 userId, string memory noPlate, CarInfo memory carInfo) public{\n        carDetails[noPlate] = carInfo;\n        int index = getCarIndex(userId,noPlate);\n        if(index < 0){\n            userCars[userId].push(noPlate);\n        }\n        else{\n            userCars[userId][uint(index)] = noPlate;\n        }\n    }\n\n    function getCarIndex(bytes32 userId, string memory noPlate) internal view returns (int){\n        for(uint128 i = 0; i < userCars[userId].length; i++) {\n            if(encode(userCars[userId][i]) == encode(noPlate)) return i;\n        }\n        return -1;\n    }\n\n    function getCarPlates(bytes32 userId) public view returns (string[] memory) {\n        return userCars[userId];\n    }\n\n    function getCars(bytes32 userId) public view returns(CarInfo[] memory){\n        CarInfo[] memory cars = new CarInfo[](userCars[userId].length);\n        for(uint i = 0; i < userCars[userId].length;i++) {\n            cars[i] = carDetails[userCars[userId][i]];\n        }\n        return cars;\n    }\n\n    function getCarDetails(string memory noPlate) public view returns(CarInfo memory) {\n        return carDetails[noPlate];\n    }\n\n    function insertRecord(bytes32 dealerId, bytes32 id, string memory noPlate,\n     string[] memory services, string[] memory subservices, string memory comment, uint timeStamp)\n        public verified(dealerId) {\n        require(subservices.length <= services.length,\"Number of subservices does not match service length\");\n        if(getCarIndex(id,noPlate) < 0){\n            userCars[id].push(noPlate);\n        }\n        records[noPlate].push(RecordInternal(dealerId,services,subservices,comment,timeStamp));\n        if(getIndexOfUser(id) == uint(-1)){\n            activeUsers.push(id);\n        }\n    }\n\n    function getRecords(string memory noPlate) public view returns (RecordInternal[] memory) {\n        return records[noPlate];\n    }\n\n}\n",
  "sourcePath": "/Users/natwit/repos/blockchain-project-2019/contracts/UserContract.sol",
  "compiler": {
    "name": "solc",
    "version": "0.5.12+commit.7709ece9.Emscripten.clang"
  },
  "schemaVersion": "3.0.19",
  "updatedAt": "2019-11-30T07:27:39.405Z",
  "networkType": "ethereum",
  "devdoc": {
    "methods": {}
  },
  "userdoc": {
    "methods": {}
  }
}