{
  "contractName": "UserContract",
  "abi": [
    {
      "anonymous": false,
      "inputs": [
        {
          "components": [
            {
              "internalType": "string",
              "name": "dealerName",
              "type": "string"
            },
            {
              "internalType": "string",
              "name": "firstName",
              "type": "string"
            },
            {
              "internalType": "string",
              "name": "lastName",
              "type": "string"
            },
            {
              "internalType": "string",
              "name": "addr",
              "type": "string"
            },
            {
              "internalType": "string[2]",
              "name": "location",
              "type": "string[2]"
            },
            {
              "internalType": "string",
              "name": "phoneNo",
              "type": "string"
            },
            {
              "internalType": "string",
              "name": "bestSeller",
              "type": "string"
            },
            {
              "internalType": "string",
              "name": "promotion",
              "type": "string"
            },
            {
              "internalType": "string",
              "name": "otherServices",
              "type": "string"
            },
            {
              "internalType": "string[]",
              "name": "availableServices",
              "type": "string[]"
            },
            {
              "internalType": "string[][]",
              "name": "availableSubServices",
              "type": "string[][]"
            }
          ],
          "indexed": false,
          "internalType": "struct DealerContract.DealerInfo",
          "name": "info",
          "type": "tuple"
        },
        {
          "indexed": false,
          "internalType": "bytes32",
          "name": "id",
          "type": "bytes32"
        }
      ],
      "name": "CreateDealerApplication",
      "type": "event"
    },
    {
      "constant": false,
      "inputs": [
        {
          "internalType": "bytes32",
          "name": "dealerId",
          "type": "bytes32"
        },
        {
          "internalType": "bytes32",
          "name": "adr",
          "type": "bytes32"
        }
      ],
      "name": "addDealerEmployee",
      "outputs": [],
      "payable": false,
      "stateMutability": "nonpayable",
      "type": "function"
    },
    {
      "constant": false,
      "inputs": [
        {
          "internalType": "string",
          "name": "serviceName",
          "type": "string"
        }
      ],
      "name": "addService",
      "outputs": [],
      "payable": false,
      "stateMutability": "nonpayable",
      "type": "function"
    },
    {
      "constant": false,
      "inputs": [
        {
          "internalType": "string",
          "name": "serviceName",
          "type": "string"
        },
        {
          "internalType": "string",
          "name": "subServiceName",
          "type": "string"
        }
      ],
      "name": "addSubService",
      "outputs": [],
      "payable": false,
      "stateMutability": "nonpayable",
      "type": "function"
    },
    {
      "constant": false,
      "inputs": [
        {
          "internalType": "bytes32",
          "name": "adr",
          "type": "bytes32"
        }
      ],
      "name": "approveApplication",
      "outputs": [],
      "payable": false,
      "stateMutability": "nonpayable",
      "type": "function"
    },
    {
      "constant": false,
      "inputs": [
        {
          "components": [
            {
              "internalType": "string",
              "name": "dealerName",
              "type": "string"
            },
            {
              "internalType": "string",
              "name": "firstName",
              "type": "string"
            },
            {
              "internalType": "string",
              "name": "lastName",
              "type": "string"
            },
            {
              "internalType": "string",
              "name": "addr",
              "type": "string"
            },
            {
              "internalType": "string[2]",
              "name": "location",
              "type": "string[2]"
            },
            {
              "internalType": "string",
              "name": "phoneNo",
              "type": "string"
            },
            {
              "internalType": "string",
              "name": "bestSeller",
              "type": "string"
            },
            {
              "internalType": "string",
              "name": "promotion",
              "type": "string"
            },
            {
              "internalType": "string",
              "name": "otherServices",
              "type": "string"
            },
            {
              "internalType": "string[]",
              "name": "availableServices",
              "type": "string[]"
            },
            {
              "internalType": "string[][]",
              "name": "availableSubServices",
              "type": "string[][]"
            }
          ],
          "internalType": "struct DealerContract.DealerInfo",
          "name": "info",
          "type": "tuple"
        },
        {
          "internalType": "bytes32",
          "name": "id",
          "type": "bytes32"
        }
      ],
      "name": "createDealerApplication",
      "outputs": [],
      "payable": false,
      "stateMutability": "nonpayable",
      "type": "function"
    },
    {
      "constant": false,
      "inputs": [
        {
          "internalType": "string",
          "name": "serviceName",
          "type": "string"
        }
      ],
      "name": "deleteService",
      "outputs": [],
      "payable": false,
      "stateMutability": "nonpayable",
      "type": "function"
    },
    {
      "constant": false,
      "inputs": [
        {
          "internalType": "string",
          "name": "serviceName",
          "type": "string"
        },
        {
          "internalType": "string",
          "name": "subServiceName",
          "type": "string"
        }
      ],
      "name": "deleteSubService",
      "outputs": [],
      "payable": false,
      "stateMutability": "nonpayable",
      "type": "function"
    },
    {
      "constant": false,
      "inputs": [
        {
          "components": [
            {
              "internalType": "string",
              "name": "dealerName",
              "type": "string"
            },
            {
              "internalType": "string",
              "name": "firstName",
              "type": "string"
            },
            {
              "internalType": "string",
              "name": "lastName",
              "type": "string"
            },
            {
              "internalType": "string",
              "name": "addr",
              "type": "string"
            },
            {
              "internalType": "string[2]",
              "name": "location",
              "type": "string[2]"
            },
            {
              "internalType": "string",
              "name": "phoneNo",
              "type": "string"
            },
            {
              "internalType": "string",
              "name": "bestSeller",
              "type": "string"
            },
            {
              "internalType": "string",
              "name": "promotion",
              "type": "string"
            },
            {
              "internalType": "string",
              "name": "otherServices",
              "type": "string"
            },
            {
              "internalType": "string[]",
              "name": "availableServices",
              "type": "string[]"
            },
            {
              "internalType": "string[][]",
              "name": "availableSubServices",
              "type": "string[][]"
            }
          ],
          "internalType": "struct DealerContract.DealerInfo",
          "name": "info",
          "type": "tuple"
        },
        {
          "internalType": "bytes32",
          "name": "id",
          "type": "bytes32"
        }
      ],
      "name": "editDealerInfo",
      "outputs": [],
      "payable": false,
      "stateMutability": "nonpayable",
      "type": "function"
    },
    {
      "constant": false,
      "inputs": [
        {
          "internalType": "string",
          "name": "oldName",
          "type": "string"
        },
        {
          "internalType": "string",
          "name": "newName",
          "type": "string"
        }
      ],
      "name": "editServiceName",
      "outputs": [],
      "payable": false,
      "stateMutability": "nonpayable",
      "type": "function"
    },
    {
      "constant": false,
      "inputs": [
        {
          "internalType": "string",
          "name": "serviceName",
          "type": "string"
        },
        {
          "internalType": "string",
          "name": "oldName",
          "type": "string"
        },
        {
          "internalType": "string",
          "name": "newName",
          "type": "string"
        }
      ],
      "name": "editSubServiceName",
      "outputs": [],
      "payable": false,
      "stateMutability": "nonpayable",
      "type": "function"
    },
    {
      "constant": true,
      "inputs": [],
      "name": "getAllDealerApplications",
      "outputs": [
        {
          "internalType": "bytes32[]",
          "name": "",
          "type": "bytes32[]"
        }
      ],
      "payable": false,
      "stateMutability": "view",
      "type": "function"
    },
    {
      "constant": true,
      "inputs": [
        {
          "internalType": "bytes32",
          "name": "id",
          "type": "bytes32"
        }
      ],
      "name": "getDealerInfo",
      "outputs": [
        {
          "components": [
            {
              "internalType": "string",
              "name": "dealerName",
              "type": "string"
            },
            {
              "internalType": "string",
              "name": "firstName",
              "type": "string"
            },
            {
              "internalType": "string",
              "name": "lastName",
              "type": "string"
            },
            {
              "internalType": "string",
              "name": "addr",
              "type": "string"
            },
            {
              "internalType": "string[2]",
              "name": "location",
              "type": "string[2]"
            },
            {
              "internalType": "string",
              "name": "phoneNo",
              "type": "string"
            },
            {
              "internalType": "string",
              "name": "bestSeller",
              "type": "string"
            },
            {
              "internalType": "string",
              "name": "promotion",
              "type": "string"
            },
            {
              "internalType": "string",
              "name": "otherServices",
              "type": "string"
            },
            {
              "internalType": "string[]",
              "name": "availableServices",
              "type": "string[]"
            },
            {
              "internalType": "string[][]",
              "name": "availableSubServices",
              "type": "string[][]"
            }
          ],
          "internalType": "struct DealerContract.DealerInfo",
          "name": "",
          "type": "tuple"
        }
      ],
      "payable": false,
      "stateMutability": "view",
      "type": "function"
    },
    {
      "constant": true,
      "inputs": [
        {
          "internalType": "string",
          "name": "id",
          "type": "string"
        }
      ],
      "name": "getHash",
      "outputs": [
        {
          "internalType": "bytes32",
          "name": "",
          "type": "bytes32"
        }
      ],
      "payable": false,
      "stateMutability": "pure",
      "type": "function"
    },
    {
      "constant": true,
      "inputs": [],
      "name": "getServices",
      "outputs": [
        {
          "internalType": "string[]",
          "name": "",
          "type": "string[]"
        }
      ],
      "payable": false,
      "stateMutability": "view",
      "type": "function"
    },
    {
      "constant": true,
      "inputs": [
        {
          "internalType": "string",
          "name": "serviceName",
          "type": "string"
        }
      ],
      "name": "getSubServices",
      "outputs": [
        {
          "internalType": "string[]",
          "name": "",
          "type": "string[]"
        }
      ],
      "payable": false,
      "stateMutability": "view",
      "type": "function"
    },
    {
      "constant": true,
      "inputs": [
        {
          "internalType": "bytes32",
          "name": "adr",
          "type": "bytes32"
        }
      ],
      "name": "isVerified",
      "outputs": [
        {
          "internalType": "bool",
          "name": "",
          "type": "bool"
        }
      ],
      "payable": false,
      "stateMutability": "view",
      "type": "function"
    },
    {
      "constant": true,
      "inputs": [],
      "name": "owner",
      "outputs": [
        {
          "internalType": "address",
          "name": "",
          "type": "address"
        }
      ],
      "payable": false,
      "stateMutability": "view",
      "type": "function"
    },
    {
      "constant": false,
      "inputs": [
        {
          "internalType": "bytes32",
          "name": "dealershipId",
          "type": "bytes32"
        },
        {
          "internalType": "bytes32",
          "name": "otherId",
          "type": "bytes32"
        }
      ],
      "name": "transferDealershipOwner",
      "outputs": [],
      "payable": false,
      "stateMutability": "nonpayable",
      "type": "function"
    },
    {
      "constant": false,
      "inputs": [
        {
          "internalType": "address",
          "name": "newOwner",
          "type": "address"
        }
      ],
      "name": "transferOwner",
      "outputs": [],
      "payable": false,
      "stateMutability": "nonpayable",
      "type": "function"
    },
    {
      "constant": true,
      "inputs": [],
      "name": "getAllUsers",
      "outputs": [
        {
          "internalType": "bytes32[]",
          "name": "",
          "type": "bytes32[]"
        }
      ],
      "payable": false,
      "stateMutability": "view",
      "type": "function"
    },
    {
      "constant": false,
      "inputs": [
        {
          "internalType": "bytes32",
          "name": "userId",
          "type": "bytes32"
        },
        {
          "components": [
            {
              "internalType": "string",
              "name": "firstName",
              "type": "string"
            },
            {
              "internalType": "string",
              "name": "lastName",
              "type": "string"
            },
            {
              "internalType": "string",
              "name": "adr",
              "type": "string"
            },
            {
              "internalType": "string",
              "name": "phNo",
              "type": "string"
            },
            {
              "internalType": "string",
              "name": "email",
              "type": "string"
            }
          ],
          "internalType": "struct UserContract.UserInfo",
          "name": "info",
          "type": "tuple"
        }
      ],
      "name": "editUserInfo",
      "outputs": [],
      "payable": false,
      "stateMutability": "nonpayable",
      "type": "function"
    },
    {
      "constant": true,
      "inputs": [
        {
          "internalType": "bytes32",
          "name": "userId",
          "type": "bytes32"
        }
      ],
      "name": "getUserInfo",
      "outputs": [
        {
          "components": [
            {
              "internalType": "string",
              "name": "firstName",
              "type": "string"
            },
            {
              "internalType": "string",
              "name": "lastName",
              "type": "string"
            },
            {
              "internalType": "string",
              "name": "adr",
              "type": "string"
            },
            {
              "internalType": "string",
              "name": "phNo",
              "type": "string"
            },
            {
              "internalType": "string",
              "name": "email",
              "type": "string"
            }
          ],
          "internalType": "struct UserContract.UserInfo",
          "name": "",
          "type": "tuple"
        }
      ],
      "payable": false,
      "stateMutability": "view",
      "type": "function"
    },
    {
      "constant": false,
      "inputs": [
        {
          "internalType": "bytes32",
          "name": "userId",
          "type": "bytes32"
        },
        {
          "internalType": "string",
          "name": "noPlate",
          "type": "string"
        },
        {
          "components": [
            {
              "internalType": "string",
              "name": "brand",
              "type": "string"
            },
            {
              "internalType": "string",
              "name": "model",
              "type": "string"
            },
            {
              "internalType": "string",
              "name": "year",
              "type": "string"
            }
          ],
          "internalType": "struct UserContract.CarInfo",
          "name": "carInfo",
          "type": "tuple"
        }
      ],
      "name": "editCarDetails",
      "outputs": [],
      "payable": false,
      "stateMutability": "nonpayable",
      "type": "function"
    },
    {
      "constant": true,
      "inputs": [
        {
          "internalType": "bytes32",
          "name": "userId",
          "type": "bytes32"
        }
      ],
      "name": "getCarPlates",
      "outputs": [
        {
          "internalType": "string[]",
          "name": "",
          "type": "string[]"
        }
      ],
      "payable": false,
      "stateMutability": "view",
      "type": "function"
    },
    {
      "constant": true,
      "inputs": [
        {
          "internalType": "bytes32",
          "name": "userId",
          "type": "bytes32"
        }
      ],
      "name": "getCars",
      "outputs": [
        {
          "components": [
            {
              "internalType": "string",
              "name": "brand",
              "type": "string"
            },
            {
              "internalType": "string",
              "name": "model",
              "type": "string"
            },
            {
              "internalType": "string",
              "name": "year",
              "type": "string"
            }
          ],
          "internalType": "struct UserContract.CarInfo[]",
          "name": "",
          "type": "tuple[]"
        }
      ],
      "payable": false,
      "stateMutability": "view",
      "type": "function"
    },
    {
      "constant": true,
      "inputs": [
        {
          "internalType": "string",
          "name": "noPlate",
          "type": "string"
        }
      ],
      "name": "getCarDetails",
      "outputs": [
        {
          "components": [
            {
              "internalType": "string",
              "name": "brand",
              "type": "string"
            },
            {
              "internalType": "string",
              "name": "model",
              "type": "string"
            },
            {
              "internalType": "string",
              "name": "year",
              "type": "string"
            }
          ],
          "internalType": "struct UserContract.CarInfo",
          "name": "",
          "type": "tuple"
        }
      ],
      "payable": false,
      "stateMutability": "view",
      "type": "function"
    },
    {
      "constant": false,
      "inputs": [
        {
          "internalType": "bytes32",
          "name": "dealerId",
          "type": "bytes32"
        },
        {
          "internalType": "bytes32",
          "name": "id",
          "type": "bytes32"
        },
        {
          "internalType": "string",
          "name": "noPlate",
          "type": "string"
        },
        {
          "internalType": "string[]",
          "name": "services",
          "type": "string[]"
        },
        {
          "internalType": "string[]",
          "name": "subservices",
          "type": "string[]"
        },
        {
          "internalType": "string",
          "name": "comment",
          "type": "string"
        },
        {
          "internalType": "uint256",
          "name": "timeStamp",
          "type": "uint256"
        }
      ],
      "name": "insertRecord",
      "outputs": [],
      "payable": false,
      "stateMutability": "nonpayable",
      "type": "function"
    },
    {
      "constant": true,
      "inputs": [
        {
          "internalType": "string",
          "name": "noPlate",
          "type": "string"
        }
      ],
      "name": "getRecords",
      "outputs": [
        {
          "components": [
            {
              "internalType": "bytes32",
              "name": "dealerId",
              "type": "bytes32"
            },
            {
              "internalType": "string[]",
              "name": "services",
              "type": "string[]"
            },
            {
              "internalType": "string[]",
              "name": "subservices",
              "type": "string[]"
            },
            {
              "internalType": "string",
              "name": "comment",
              "type": "string"
            },
            {
              "internalType": "uint256",
              "name": "timeStamp",
              "type": "uint256"
            }
          ],
          "internalType": "struct UserContract.RecordInternal[]",
          "name": "",
          "type": "tuple[]"
        }
      ],
      "payable": false,
      "stateMutability": "view",
      "type": "function"
    }
  ],
  "bytecode": "0x60806040526006805461fe0061ff0019909116179055600080546001600160a01b031916331790556146dc806100366000396000f3fe608060405234801561001057600080fd5b50600436106101c45760003560e01c80637e41667f116100f9578063adff8b0f11610097578063c9b54a5811610071578063c9b54a58146103e3578063d872acac14610403578063e2842d7914610423578063e445268c1461042b576101c4565b8063adff8b0f14610390578063c181b273146103b0578063c4e91d17146103d0576101c4565b806388fcd194116100d357806388fcd194146103425780638da5cb5b146103555780638ee242141461036a5780638f2b51441461037d576101c4565b80637e41667f146102fa57806382d7afbd1461030f57806386e80b7114610322576101c4565b80634fb2e45d116101665780636fd7d2b5116101405780636fd7d2b5146102ac578063752326c1146102bf57806375417851146102d25780637d17f13c146102da576101c4565b80634fb2e45d1461026657806350fb95e3146102795780635b6beeb91461028c576101c4565b80631a4c85be116101a25780631a4c85be146102045780631b8f47fe14610217578063369bfce41461022a578063431a65fc1461023d576101c4565b80630ad5be91146101c95780630eb7bc8f146101de5780631118127a146101f1575b600080fd5b6101dc6101d73660046136d9565b61043e565b005b6101dc6101ec3660046138c7565b6105ec565b6101dc6101ff3660046139ab565b610677565b6101dc610212366004613893565b610865565b6101dc610225366004613663565b610938565b6101dc6102383660046138c7565b6109c9565b61025061024b366004613893565b610b50565b60405161025d91906143fd565b60405180910390f35b6101dc61027436600461363d565b610c47565b6101dc6102873660046138c7565b610c93565b61029f61029a366004613893565b610d6d565b60405161025d919061443e565b6101dc6102ba366004613924565b610de2565b6101dc6102cd3660046139ab565b610e8c565b610250610ff3565b6102ed6102e8366004613663565b611148565b60405161025d919061452d565b6103026118d2565b60405161025d91906143ec565b6101dc61031d36600461369f565b611955565b610335610330366004613893565b611a51565b60405161025d919061441f565b6101dc610350366004613893565b611d1b565b61035d611e29565b60405161025d91906143de565b6101dc6103783660046137d1565b611e38565b61025061038b366004613663565b611f3f565b6103a361039e366004613663565b61201f565b60405161025d919061455e565b6103c36103be366004613663565b612331565b60405161025d9190614430565b6101dc6103de36600461384c565b61235e565b6103f66103f1366004613663565b6123f0565b60405161025d919061440e565b610416610411366004613893565b612692565b60405161025d919061451c565b61030261284e565b6101dc61043936600461369f565b6128cf565b8661044881612331565b61046d5760405162461bcd60e51b81526004016104649061450c565b60405180910390fd5b84518451111561048f5760405162461bcd60e51b81526004016104649061449c565b600061049b888861295a565b12156104d8576000878152600b60209081526040822080546001810180835591845292829020895191936104d593910191908a0190612cc0565b50505b6009866040516104e891906143c6565b90815260408051918290036020908101832060a0840183528b845283820189815292840188905260608401879052608084018690528054600181810180845560009384529284902086516005909302019182559351805192959491936105549392850192910190612d3e565b5060408201518051610570916002840191602090910190612d3e565b506060820151805161058c916003840191602090910190612cc0565b50608082015181600401555050506000196105a688612a6f565b14156105e257600d80546001810182556000919091527fd7b6990105719101dabeb77144f2a3385c8033acd3af97e9423a695e81ad1eb5018790555b5050505050505050565b6000546001600160a01b031633146106165760405162461bcd60e51b8152600401610464906144ac565b8161062081612ab5565b61063c5760405162461bcd60e51b8152600401610464906144cc565b816007600061064a86612ad6565b60ff1660ff1681526020019081526020016000209080519060200190610671929190612cc0565b50505050565b60008181526001602052604090205460ff16156106a65760405162461bcd60e51b8152600401610464906144dc565b60008181526004602090815260409091208351805185936106cb928492910190612cc0565b5060208281015180516106e49260018501920190612cc0565b5060408201518051610700916002840191602090910190612cc0565b506060820151805161071c916003840191602090910190612cc0565b5060808201516107329060048301906002612d97565b5060a0820151805161074e916006840191602090910190612cc0565b5060c0820151805161076a916007840191602090910190612cc0565b5060e08201518051610786916008840191602090910190612cc0565b5061010082015180516107a3916009840191602090910190612cc0565b5061012082015180516107c091600a840191602090910190612d3e565b5061014082015180516107dd91600b840191602090910190612dd7565b5090505060006107ec82612bc0565b121561082857600580546001810182556000919091527f036b6384b5eca791c62761152d0c79bb0604c104a5fb6f4eb0703f3154bb3db0018190555b7fbcb28ce223d1d07df7ff015302f0aee0306ad6362ede3db7aa3c6d40a651f008828260405161085992919061453e565b60405180910390a15050565b6000546001600160a01b0316331461088f5760405162461bcd60e51b8152600401610464906144ac565b8061089981612ab5565b6108b55760405162461bcd60e51b8152600401610464906144cc565b60006108c083612ad6565b604080516020808201808452600080845260ff86168152600790925292902090519293506108f092909190612cc0565b5060088360405161090191906143c6565b9081526020016040518091039020600061091b9190612e30565b50506006805460ff19811660ff9182166000190190911617905550565b6000546001600160a01b031633146109625760405162461bcd60e51b8152600401610464906144ac565b600061096d82612bc0565b905060008112156109905760405162461bcd60e51b81526004016104649061447c565b6000828152600160208190526040909120805460ff1916909117905560058054829081106109ba57fe5b60009182526020822001555050565b6000546001600160a01b031633146109f35760405162461bcd60e51b8152600401610464906144ac565b81816109ff8282612bfc565b610a1b5760405162461bcd60e51b8152600401610464906144bc565b6000610a278585612c12565b905060006001600887604051610a3d91906143c6565b908152602001604051809103902080549050039050600886604051610a6291906143c6565b90815260200160405180910390208181548110610a7b57fe5b90600052602060002001600887604051610a9591906143c6565b90815260200160405180910390208381548110610aae57fe5b906000526020600020019080546001816001161561010002031660029004610ad7929190612e51565b50600886604051610ae891906143c6565b90815260200160405180910390208181548110610b0157fe5b906000526020600020016000610b179190612ec6565b600886604051610b2791906143c6565b908152604051908190036020019020805490610b47906000198301612f0a565b50505050505050565b6060600882604051610b6291906143c6565b9081526020016040518091039020805480602002602001604051908101604052809291908181526020016000905b82821015610c3b5760008481526020908190208301805460408051601f6002600019610100600187161502019094169390930492830185900485028101850190915281815292830182828015610c275780601f10610bfc57610100808354040283529160200191610c27565b820191906000526020600020905b815481529060010190602001808311610c0a57829003601f168201915b505050505081526020019060010190610b90565b5050505090505b919050565b6000546001600160a01b03163314610c715760405162461bcd60e51b8152600401610464906144ac565b600080546001600160a01b0319166001600160a01b0392909216919091179055565b8160ff600882604051610ca691906143c6565b9081526040519081900360200190205410610cd35760405162461bcd60e51b81526004016104649061448c565b8282610cdf8282612bfc565b15610cfc5760405162461bcd60e51b81526004016104649061446c565b6000546001600160a01b03163314610d265760405162461bcd60e51b8152600401610464906144ac565b600885604051610d3691906143c6565b9081526040516020918190038201902080546001810180835560009283529183902087519293610b47939190920191880190612cc0565b6000600282604051602001610d8291906143c6565b60408051601f1981840301815290829052610d9c916143c6565b602060405180830381855afa158015610db9573d6000803e3d6000fd5b5050506040513d601f19601f82011682018060405250610ddc9190810190613681565b92915050565b8282610dee8282612bfc565b610e0a5760405162461bcd60e51b8152600401610464906144bc565b6000546001600160a01b03163314610e345760405162461bcd60e51b8152600401610464906144ac565b82600886604051610e4591906143c6565b9081526020016040518091039020610e5d8787612c12565b81548110610e6757fe5b906000526020600020019080519060200190610e84929190612cc0565b505050505050565b600081815260016020526040902054819060ff16610ebc5760405162461bcd60e51b81526004016104649061445c565b6000828152600460209081526040909120845180518693610ee1928492910190612cc0565b506020828101518051610efa9260018501920190612cc0565b5060408201518051610f16916002840191602090910190612cc0565b5060608201518051610f32916003840191602090910190612cc0565b506080820151610f489060048301906002612d97565b5060a08201518051610f64916006840191602090910190612cc0565b5060c08201518051610f80916007840191602090910190612cc0565b5060e08201518051610f9c916008840191602090910190612cc0565b506101008201518051610fb9916009840191602090910190612cc0565b506101208201518051610fd691600a840191602090910190612d3e565b506101408201518051610e8491600b840191602090910190612dd7565b6006546040805160ff90921680835260208082028401019091526060918291801561103257816020015b606081526020019060019003908161101d5790505b5090506000805b60065460ff6101009091048116908216101561113f5760ff811660009081526007602052604090205460026000196101006001841615020190911604156111375760ff811660009081526007602090815260409182902080548351601f6002600019610100600186161502019093169290920491820184900484028101840190945280845290918301828280156111115780601f106110e657610100808354040283529160200191611111565b820191906000526020600020905b8154815290600101906020018083116110f457829003601f168201915b5050505050838380600101945060ff168151811061112b57fe5b60200260200101819052505b600101611039565b50909150505b90565b611150612f2e565b6000828152600460209081526040918290208251815460026001821615610100026000190190911604601f8101849004909302810161018090810190945261016081018381529093919284928491908401828280156111f05780601f106111c5576101008083540402835291602001916111f0565b820191906000526020600020905b8154815290600101906020018083116111d357829003601f168201915b50505050508152602001600182018054600181600116156101000203166002900480601f0160208091040260200160405190810160405280929190818152602001828054600181600116156101000203166002900480156112925780601f1061126757610100808354040283529160200191611292565b820191906000526020600020905b81548152906001019060200180831161127557829003601f168201915b5050509183525050600282810180546040805160206001841615610100026000190190931694909404601f810183900483028501830190915280845293810193908301828280156113245780601f106112f957610100808354040283529160200191611324565b820191906000526020600020905b81548152906001019060200180831161130757829003601f168201915b505050918352505060038201805460408051602060026001851615610100026000190190941693909304601f81018490048402820184019092528181529382019392918301828280156113b85780601f1061138d576101008083540402835291602001916113b8565b820191906000526020600020905b81548152906001019060200180831161139b57829003601f168201915b5050509183525050604080518082019091526020909101906004830160026000835b8282101561147d57838201805460408051602060026001851615610100026000190190941693909304601f810184900484028201840190925281815292918301828280156114695780601f1061143e57610100808354040283529160200191611469565b820191906000526020600020905b81548152906001019060200180831161144c57829003601f168201915b5050505050815260200190600101906113da565b5050509082525060068201805460408051602060026001851615610100026000190190941693909304601f81018490048402820184019092528181529382019392918301828280156115105780601f106114e557610100808354040283529160200191611510565b820191906000526020600020905b8154815290600101906020018083116114f357829003601f168201915b505050918352505060078201805460408051602060026001851615610100026000190190941693909304601f81018490048402820184019092528181529382019392918301828280156115a45780601f10611579576101008083540402835291602001916115a4565b820191906000526020600020905b81548152906001019060200180831161158757829003601f168201915b505050918352505060088201805460408051602060026001851615610100026000190190941693909304601f81018490048402820184019092528181529382019392918301828280156116385780601f1061160d57610100808354040283529160200191611638565b820191906000526020600020905b81548152906001019060200180831161161b57829003601f168201915b505050918352505060098201805460408051602060026001851615610100026000190190941693909304601f81018490048402820184019092528181529382019392918301828280156116cc5780601f106116a1576101008083540402835291602001916116cc565b820191906000526020600020905b8154815290600101906020018083116116af57829003601f168201915b50505050508152602001600a8201805480602002602001604051908101604052809291908181526020016000905b828210156117a55760008481526020908190208301805460408051601f60026000196101006001871615020190941693909304928301859004850281018501909152818152928301828280156117915780601f1061176657610100808354040283529160200191611791565b820191906000526020600020905b81548152906001019060200180831161177457829003601f168201915b5050505050815260200190600101906116fa565b505050508152602001600b8201805480602002602001604051908101604052809291908181526020016000905b828210156118c457838290600052602060002001805480602002602001604051908101604052809291908181526020016000905b828210156118b15760008481526020908190208301805460408051601f600260001961010060018716150201909416939093049283018590048502810185019091528181529283018282801561189d5780601f106118725761010080835404028352916020019161189d565b820191906000526020600020905b81548152906001019060200180831161188057829003601f168201915b505050505081526020019060010190611806565b50505050815260200190600101906117d2565b505050915250909392505050565b6000546060906001600160a01b031633146118ff5760405162461bcd60e51b8152600401610464906144ac565b600580548060200260200160405190810160405280929190818152602001828054801561194b57602002820191906000526020600020905b815481526020019060010190808311611937575b5050505050905090565b600082815260016020526040902054829060ff166119855760405162461bcd60e51b81526004016104649061445c565b6000828152600160208181526040808420805460ff19908116909417905586845280842080549093169092558483526003815281832083905585835260029052808220848352912081546119d99290612f8e565b5060008381526002602052604081206119f191612fcd565b60005b600083815260026020526040902054811015610671578260036000600260008781526020019081526020016000208481548110611a2d57fe5b600091825260208083209091015483528201929092526040019020556001016119f4565b6060600982604051611a6391906143c6565b9081526020016040518091039020805480602002602001604051908101604052809291908181526020016000905b82821015610c3b57838290600052602060002090600502016040518060a00160405290816000820154815260200160018201805480602002602001604051908101604052809291908181526020016000905b82821015611b8e5760008481526020908190208301805460408051601f6002600019610100600187161502019094169390930492830185900485028101850190915281815292830182828015611b7a5780601f10611b4f57610100808354040283529160200191611b7a565b820191906000526020600020905b815481529060010190602001808311611b5d57829003601f168201915b505050505081526020019060010190611ae3565b50505050815260200160028201805480602002602001604051908101604052809291908181526020016000905b82821015611c665760008481526020908190208301805460408051601f6002600019610100600187161502019094169390930492830185900485028101850190915281815292830182828015611c525780601f10611c2757610100808354040283529160200191611c52565b820191906000526020600020905b815481529060010190602001808311611c3557829003601f168201915b505050505081526020019060010190611bbb565b5050509082525060038201805460408051602060026001851615610100026000190190941693909304601f8101849004840282018401909252818152938201939291830182828015611cf95780601f10611cce57610100808354040283529160200191611cf9565b820191906000526020600020905b815481529060010190602001808311611cdc57829003601f168201915b5050505050815260200160048201548152505081526020019060010190611a91565b6000546001600160a01b03163314611d455760405162461bcd60e51b8152600401610464906144ac565b80611d4f81612ab5565b15611d6c5760405162461bcd60e51b8152600401610464906144ec565b60065460ff6101008204811691161115611d985760405162461bcd60e51b8152600401610464906144fc565b60005b60065460ff61010090910481169082161015611e235760ff811660009081526007602052604090205460026000196101006001841615020190911604611e1b5760ff811660009081526007602090815260409091208451611dfe92860190612cc0565b50506006805460ff8082166001011660ff19909116179055611e25565b600101611d9b565b505b5050565b6000546001600160a01b031681565b80600c83604051611e4991906143c6565b90815260200160405180910390206000820151816000019080519060200190611e73929190612cc0565b506020828101518051611e8c9260018501920190612cc0565b5060408201518051611ea8916002840191602090910190612cc0565b509050506000611eb8848461295a565b90506000811215611efe576000848152600b6020908152604082208054600181018083559184529282902086519193611ef79391019190870190612cc0565b5050610671565b6000848152600b60205260409020805484919083908110611f1b57fe5b906000526020600020019080519060200190611f38929190612cc0565b5050505050565b6060600b6000838152602001908152602001600020805480602002602001604051908101604052809291908181526020016000905b82821015610c3b5760008481526020908190208301805460408051601f600260001961010060018716150201909416939093049283018590048502810185019091528181529283018282801561200b5780601f10611fe05761010080835404028352916020019161200b565b820191906000526020600020905b815481529060010190602001808311611fee57829003601f168201915b505050505081526020019060010190611f74565b612027612feb565b6000828152600a60209081526040918290208251815460026001821615610100026000190190911604601f8101849004909302810160c090810190945260a081018381529093919284928491908401828280156120c55780601f1061209a576101008083540402835291602001916120c5565b820191906000526020600020905b8154815290600101906020018083116120a857829003601f168201915b50505050508152602001600182018054600181600116156101000203166002900480601f0160208091040260200160405190810160405280929190818152602001828054600181600116156101000203166002900480156121675780601f1061213c57610100808354040283529160200191612167565b820191906000526020600020905b81548152906001019060200180831161214a57829003601f168201915b5050509183525050600282810180546040805160206001841615610100026000190190931694909404601f810183900483028501830190915280845293810193908301828280156121f95780601f106121ce576101008083540402835291602001916121f9565b820191906000526020600020905b8154815290600101906020018083116121dc57829003601f168201915b505050918352505060038201805460408051602060026001851615610100026000190190941693909304601f810184900484028201840190925281815293820193929183018282801561228d5780601f106122625761010080835404028352916020019161228d565b820191906000526020600020905b81548152906001019060200180831161227057829003601f168201915b505050918352505060048201805460408051602060026001851615610100026000190190941693909304601f81018490048402820184019092528181529382019392918301828280156123215780601f106122f657610100808354040283529160200191612321565b820191906000526020600020905b81548152906001019060200180831161230457829003601f168201915b5050505050815250509050919050565b60008181526001602052604081205460ff1680610ddc575050600090815260036020526040902054151590565b6000828152600a60209081526040909120825180518493612383928492910190612cc0565b50602082810151805161239c9260018501920190612cc0565b50604082015180516123b8916002840191602090910190612cc0565b50606082015180516123d4916003840191602090910190612cc0565b5060808201518051611f38916004840191602090910190612cc0565b606080600b60008481526020019081526020016000208054905060405190808252806020026020018201604052801561244357816020015b61243061301a565b8152602001906001900390816124285790505b50905060005b6000848152600b602052604090205481101561268b576000848152600b602052604090208054600c91908390811061247d57fe5b9060005260206000200160405161249491906143d2565b9081526040805160209281900383018120805460026001821615610100026000190190911604601f8101859004909402820160809081019093526060820184815291939092849291849184018282801561252f5780601f106125045761010080835404028352916020019161252f565b820191906000526020600020905b81548152906001019060200180831161251257829003601f168201915b50505050508152602001600182018054600181600116156101000203166002900480601f0160208091040260200160405190810160405280929190818152602001828054600181600116156101000203166002900480156125d15780601f106125a6576101008083540402835291602001916125d1565b820191906000526020600020905b8154815290600101906020018083116125b457829003601f168201915b5050509183525050600282810180546040805160206001841615610100026000190190931694909404601f810183900483028501830190915280845293810193908301828280156126635780601f1061263857610100808354040283529160200191612663565b820191906000526020600020905b81548152906001019060200180831161264657829003601f168201915b50505050508152505082828151811061267857fe5b6020908102919091010152600101612449565b5092915050565b61269a61301a565b600c826040516126aa91906143c6565b9081526040805160209281900383018120805460026001821615610100026000190190911604601f810185900490940282016080908101909352606082018481529193909284929184918401828280156127455780601f1061271a57610100808354040283529160200191612745565b820191906000526020600020905b81548152906001019060200180831161272857829003601f168201915b50505050508152602001600182018054600181600116156101000203166002900480601f0160208091040260200160405190810160405280929190818152602001828054600181600116156101000203166002900480156127e75780601f106127bc576101008083540402835291602001916127e7565b820191906000526020600020905b8154815290600101906020018083116127ca57829003601f168201915b5050509183525050600282810180546040805160206001841615610100026000190190931694909404601f810183900483028501830190915280845293810193908301828280156123215780601f106122f657610100808354040283529160200191612321565b6000546060906001600160a01b0316331461287b5760405162461bcd60e51b8152600401610464906144ac565b600d80548060200260200160405190810160405280929190818152602001828054801561194b5760200282019190600052602060002090815481526020019060010190808311611937575050505050905090565b600082815260016020526040902054829060ff166128ff5760405162461bcd60e51b81526004016104649061445c565b6000828152600360205260409020541561292b5760405162461bcd60e51b81526004016104649061444c565b506000828152600260209081526040808320805460018101825590845282842001849055928252600390522055565b6000805b6000848152600b60205260409020546001600160801b0382161015612a645761298683612c90565b6000858152600b602052604090208054612a4691906001600160801b0385169081106129ae57fe5b600091825260209182902001805460408051601f6002600019610100600187161502019094169390930492830185900485028101850190915281815292830182828015612a3c5780601f10612a1157610100808354040283529160200191612a3c565b820191906000526020600020905b815481529060010190602001808311612a1f57829003601f168201915b5050505050612c90565b1415612a5c576001600160801b03169050610ddc565b60010161295e565b506000199392505050565b6000805b600d54811015612aab5782600d8281548110612a8b57fe5b90600052602060002001541415612aa3579050610c42565b600101612a73565b5060001992915050565b600654600090610100900460ff16612acc83612ad6565b60ff161092915050565b600080612ae283612c90565b905060005b60065460ff61010090910481169082161015612bb65760ff81166000908152600760205260409020546002600019610100600184161502019091160415801590612ba0575060ff81166000908152600760209081526040918290208054835160026001831615610100026000190190921691909104601f81018490048402820184019094528381528593612b9e93919291830182828015612a3c5780601f10612a1157610100808354040283529160200191612a3c565b145b15612bae579150610c429050565b600101612ae7565b5060ff9392505050565b6000805b600554811015612aab578260058281548110612bdc57fe5b90600052602060002001541415612bf4579050610c42565b600101612bc4565b600060ff612c0a8484612c12565b109392505050565b6000805b600884604051612c2691906143c6565b9081526040519081900360200190205460ff82161015612bb657612c4983612c90565b612c78600886604051612c5c91906143c6565b90815260200160405180910390208360ff16815481106129ae57fe5b1415612c885760ff169050610ddc565b600101612c16565b600081604051602001612ca391906143c6565b604051602081830303815290604052805190602001209050919050565b828054600181600116156101000203166002900490600052602060002090601f016020900481019282601f10612d0157805160ff1916838001178555612d2e565b82800160010185558215612d2e579182015b82811115612d2e578251825591602001919060010190612d13565b50612d3a92915061303b565b5090565b828054828255906000526020600020908101928215612d8b579160200282015b82811115612d8b5782518051612d7b918491602090910190612cc0565b5091602001919060010190612d5e565b50612d3a929150613055565b8260028101928215612d8b579160200282015b82811115612d8b5782518051612dc7918491602090910190612cc0565b5091602001919060010190612daa565b828054828255906000526020600020908101928215612e24579160200282015b82811115612e245782518051612e14918491602090910190612d3e565b5091602001919060010190612df7565b50612d3a929150613078565b5080546000825590600052602060002090810190612e4e9190613055565b50565b828054600181600116156101000203166002900490600052602060002090601f016020900481019282601f10612e8a5780548555612d2e565b82800160010185558215612d2e57600052602060002091601f016020900482015b82811115612d2e578254825591600101919060010190612eab565b50805460018160011615610100020316600290046000825580601f10612eec5750612e4e565b601f016020900490600052602060002090810190612e4e919061303b565b815481835581811115611e2357600083815260209020611e23918101908301613055565b60405180610160016040528060608152602001606081526020016060815260200160608152602001612f5e61309b565b81526020016060815260200160608152602001606081526020016060815260200160608152602001606081525090565b828054828255906000526020600020908101928215612d2e57600052602060002091820182811115612d2e578254825591600101919060010190612eab565b5080546000825590600052602060002090810190612e4e919061303b565b6040518060a0016040528060608152602001606081526020016060815260200160608152602001606081525090565b60405180606001604052806060815260200160608152602001606081525090565b61114591905b80821115612d3a5760008155600101613041565b61114591905b80821115612d3a57600061306f8282612ec6565b5060010161305b565b61114591905b80821115612d3a5760006130928282612e30565b5060010161307e565b60405180604001604052806002905b60608152602001906001900390816130aa5790505090565b8035610ddc8161467c565b600082601f8301126130de57600080fd5b81356130f16130ec82614595565b61456f565b81815260209384019390925082018360005b8381101561312f5781358601613119888261318b565b8452506020928301929190910190600101613103565b5050505092915050565b600082601f83011261314a57600080fd5b60026131586130ec826145b5565b9150818360005b8381101561312f5781358601613175888261325b565b845250602092830192919091019060010161315f565b600082601f83011261319c57600080fd5b81356131aa6130ec82614595565b81815260209384019390925082018360005b8381101561312f57813586016131d2888261325b565b84525060209283019291909101906001016131bc565b600082601f8301126131f957600080fd5b81356132076130ec82614595565b81815260209384019390925082018360005b8381101561312f578135860161322f888261325b565b8452506020928301929190910190600101613219565b8035610ddc81614690565b8051610ddc81614690565b600082601f83011261326c57600080fd5b813561327a6130ec826145d2565b9150808252602083016020830185838301111561329657600080fd5b6132a183828461463a565b50505092915050565b6000606082840312156132bc57600080fd5b6132c6606061456f565b905081356001600160401b038111156132de57600080fd5b6132ea8482850161325b565b82525060208201356001600160401b0381111561330657600080fd5b6133128482850161325b565b60208301525060408201356001600160401b0381111561333157600080fd5b61333d8482850161325b565b60408301525092915050565b6000610160828403121561335c57600080fd5b61336761016061456f565b905081356001600160401b0381111561337f57600080fd5b61338b8482850161325b565b82525060208201356001600160401b038111156133a757600080fd5b6133b38482850161325b565b60208301525060408201356001600160401b038111156133d257600080fd5b6133de8482850161325b565b60408301525060608201356001600160401b038111156133fd57600080fd5b6134098482850161325b565b60608301525060808201356001600160401b0381111561342857600080fd5b61343484828501613139565b60808301525060a08201356001600160401b0381111561345357600080fd5b61345f8482850161325b565b60a08301525060c08201356001600160401b0381111561347e57600080fd5b61348a8482850161325b565b60c08301525060e08201356001600160401b038111156134a957600080fd5b6134b58482850161325b565b60e0830152506101008201356001600160401b038111156134d557600080fd5b6134e18482850161325b565b610100830152506101208201356001600160401b0381111561350257600080fd5b61350e8482850161318b565b610120830152506101408201356001600160401b0381111561352f57600080fd5b61353b848285016130cd565b6101408301525092915050565b600060a0828403121561355a57600080fd5b61356460a061456f565b905081356001600160401b0381111561357c57600080fd5b6135888482850161325b565b82525060208201356001600160401b038111156135a457600080fd5b6135b08482850161325b565b60208301525060408201356001600160401b038111156135cf57600080fd5b6135db8482850161325b565b60408301525060608201356001600160401b038111156135fa57600080fd5b6136068482850161325b565b60608301525060808201356001600160401b0381111561362557600080fd5b6136318482850161325b565b60808301525092915050565b60006020828403121561364f57600080fd5b600061365b84846130c2565b949350505050565b60006020828403121561367557600080fd5b600061365b8484613245565b60006020828403121561369357600080fd5b600061365b8484613250565b600080604083850312156136b257600080fd5b60006136be8585613245565b92505060206136cf85828601613245565b9150509250929050565b600080600080600080600060e0888a0312156136f457600080fd5b60006137008a8a613245565b97505060206137118a828b01613245565b96505060408801356001600160401b0381111561372d57600080fd5b6137398a828b0161325b565b95505060608801356001600160401b0381111561375557600080fd5b6137618a828b016131e8565b94505060808801356001600160401b0381111561377d57600080fd5b6137898a828b016131e8565b93505060a08801356001600160401b038111156137a557600080fd5b6137b18a828b0161325b565b92505060c06137c28a828b01613245565b91505092959891949750929550565b6000806000606084860312156137e657600080fd5b60006137f28686613245565b93505060208401356001600160401b0381111561380e57600080fd5b61381a8682870161325b565b92505060408401356001600160401b0381111561383657600080fd5b613842868287016132aa565b9150509250925092565b6000806040838503121561385f57600080fd5b600061386b8585613245565b92505060208301356001600160401b0381111561388757600080fd5b6136cf85828601613548565b6000602082840312156138a557600080fd5b81356001600160401b038111156138bb57600080fd5b61365b8482850161325b565b600080604083850312156138da57600080fd5b82356001600160401b038111156138f057600080fd5b6138fc8582860161325b565b92505060208301356001600160401b0381111561391857600080fd5b6136cf8582860161325b565b60008060006060848603121561393957600080fd5b83356001600160401b0381111561394f57600080fd5b61395b8682870161325b565b93505060208401356001600160401b0381111561397757600080fd5b6139838682870161325b565b92505060408401356001600160401b0381111561399f57600080fd5b6138428682870161325b565b600080604083850312156139be57600080fd5b82356001600160401b038111156139d457600080fd5b6136be85828601613349565b60006139ec8383613bc3565b9392505050565b60006139ff8383613cef565b505060200190565b60006139ec8383613d27565b60006139ec8383614151565b60006139ec83836142c9565b613a348161461e565b82525050565b6000613a458261460b565b613a4f8185614615565b935083602082028501613a61856145f9565b8060005b85811015613a9b5784840389528151613a7e85826139e0565b9450613a89836145f9565b60209a909a0199925050600101613a65565b5091979650505050505050565b6000613ab38261460b565b613abd8185614615565b9350613ac8836145f9565b8060005b83811015613af6578151613ae088826139f3565b9750613aeb836145f9565b925050600101613acc565b509495945050505050565b6000613b0c8261460f565b613b168185610c42565b935083602082028501613b2885611145565b8060005b85811015613a9b5784840389528151613b458582613a07565b9450613b50836145f9565b60209a909a0199925050600101613b2c565b6000613b6d8261460b565b613b778185614615565b935083602082028501613b89856145f9565b8060005b85811015613a9b5784840389528151613ba68582613a07565b9450613bb1836145f9565b60209a909a0199925050600101613b8d565b6000613bce8261460b565b613bd88185614615565b935083602082028501613bea856145f9565b8060005b85811015613a9b5784840389528151613c078582613a07565b9450613c12836145f9565b60209a909a0199925050600101613bee565b6000613c2f8261460b565b613c398185614615565b935083602082028501613c4b856145f9565b8060005b85811015613a9b5784840389528151613c688582613a13565b9450613c73836145f9565b60209a909a0199925050600101613c4f565b6000613c908261460b565b613c9a8185614615565b935083602082028501613cac856145f9565b8060005b85811015613a9b5784840389528151613cc98582613a1f565b9450613cd4836145f9565b60209a909a0199925050600101613cb0565b613a3481614629565b613a3481611145565b6000613d038261460b565b613d0d8185610c42565b9350613d1d818560208601614646565b9290920192915050565b6000613d328261460b565b613d3c8185614615565b9350613d4c818560208601614646565b613d5581614672565b9093019392505050565b600081546001811660008114613d7c5760018114613d9f57613dde565b607f6002830416613d8d8187610c42565b60ff1984168152955085019250613dde565b60028204613dad8187610c42565b9550613db8856145ff565b60005b82811015613dd757815488820152600190910190602001613dbb565b5050850192505b505092915050565b6000613df3602183614615565b7f5468617420656d706c6f79656520616c726561647920776f726b7320746865728152606560f81b602082015260400192915050565b6000613e36602983614615565b7f596f75206d7573742062652061206465616c657273686970206f776e657220748152686f20646f207468697360b81b602082015260400192915050565b6000613e81601e83614615565b7f54686174207375627365727669636520616c7265616479206578697374730000815260200192915050565b6000613eba602183614615565b7f4e6f206170706c69636174696f6e2065786973747320666f72207468617420698152601960fa1b602082015260400192915050565b6000613efd602183614615565b7f4d6178696d756d207375627365727669636520616d6f756e74207265616368658152601960fa1b602082015260400192915050565b6000613f40603383614615565b7f4e756d626572206f6620737562736572766963657320646f6573206e6f74206d8152720c2e8c6d040e6cae4ecd2c6ca40d8cadccee8d606b1b602082015260400192915050565b6000613f95601583614615565b742cb7ba9030b932903737ba103a34329037bbb732b960591b815260200192915050565b6000613fc6602c83614615565b7f54686174207375627365727669636520646f65736e7420657869737420696e2081526b1d1a1a5cc818dbdb9d195e1d60a21b602082015260400192915050565b6000614014601b83614615565b7f54686174207365727669636520646f6573206e6f742065786973740000000000815260200192915050565b600061404d602283614615565b7f54686174206164647265737320697320616c7265616479207265676973746572815261195960f21b602082015260400192915050565b6000614091601b83614615565b7f54686174207365727669636520616c7265616479206578697374730000000000815260200192915050565b60006140ca602883614615565b7f54686572652061726520746865206d6178696d756d206e756d626572206f6620815267736572766963657360c01b602082015260400192915050565b6000614114602883614615565b7f596f75206d7573742062652061207665726966696564206465616c657220746f81526720646f207468697360c01b602082015260400192915050565b80516060808452600091908401906141698282613d27565b915050602083015184820360208601526141838282613d27565b9150506040830151848203604086015261419d8282613d27565b95945050505050565b8051610160808452600091908401906141bf8282613d27565b915050602083015184820360208601526141d98282613d27565b915050604083015184820360408601526141f38282613d27565b9150506060830151848203606086015261420d8282613d27565b915050608083015184820360808601526142278282613b01565b91505060a083015184820360a08601526142418282613d27565b91505060c083015184820360c086015261425b8282613d27565b91505060e083015184820360e08601526142758282613d27565b9150506101008301518482036101008601526142918282613d27565b9150506101208301518482036101208601526142ad8282613bc3565b91505061014083015184820361014086015261419d8282613a3a565b805160009060a08401906142dd8582613cef565b50602083015184820360208601526142f58282613bc3565b9150506040830151848203604086015261430f8282613bc3565b915050606083015184820360608601526143298282613d27565b915050608083015161433e6080860182613cef565b509392505050565b805160a08084526000919084019061435e8282613d27565b915050602083015184820360208601526143788282613d27565b915050604083015184820360408601526143928282613d27565b915050606083015184820360608601526143ac8282613d27565b9150506080830151848203608086015261419d8282613d27565b60006139ec8284613cf8565b60006139ec8284613d5f565b60208101610ddc8284613a2b565b602080825281016139ec8184613aa8565b602080825281016139ec8184613b62565b602080825281016139ec8184613c24565b602080825281016139ec8184613c85565b60208101610ddc8284613ce6565b60208101610ddc8284613cef565b60208082528101610ddc81613de6565b60208082528101610ddc81613e29565b60208082528101610ddc81613e74565b60208082528101610ddc81613ead565b60208082528101610ddc81613ef0565b60208082528101610ddc81613f33565b60208082528101610ddc81613f88565b60208082528101610ddc81613fb9565b60208082528101610ddc81614007565b60208082528101610ddc81614040565b60208082528101610ddc81614084565b60208082528101610ddc816140bd565b60208082528101610ddc81614107565b602080825281016139ec8184614151565b602080825281016139ec81846141a6565b6040808252810161454f81856141a6565b90506139ec6020830184613cef565b602080825281016139ec8184614346565b6040518181016001600160401b038111828210171561458d57600080fd5b604052919050565b60006001600160401b038211156145ab57600080fd5b5060209081020190565b60006001600160401b038211156145cb57600080fd5b5060200290565b60006001600160401b038211156145e857600080fd5b506020601f91909101601f19160190565b60200190565b60009081526020902090565b5190565b50600290565b90815260200190565b6000610ddc8261462e565b151590565b6001600160a01b031690565b82818337506000910152565b60005b83811015614661578181015183820152602001614649565b838111156106715750506000910152565b601f01601f191690565b6146858161461e565b8114612e4e57600080fd5b6146858161114556fea365627a7a72315820f65890f9f5a1354960282f53f9ff1531626f7a26e55c4e39d45a9c3a5264fab26c6578706572696d656e74616cf564736f6c634300050c0040",
  "source": "pragma solidity ^0.5.11;\npragma experimental ABIEncoderV2;\n\nimport \"./ServiceHandler.sol\";\n\ncontract UserContract is ServiceHandler {\n\n    struct RecordInternal {\n        bytes32 dealerId;\n        string[] services;\n        string[] subservices;\n        string comment;\n        uint timeStamp;\n    }\n    struct UserInfo {\n        string firstName;\n        string lastName;\n        string adr;\n        string phNo;\n        string email;\n    }\n    struct CarInfo{\n        string brand;\n        string model;\n        string year;\n    }\n\n    //------------------------------------------------------------_Records_---------------------------------------------\n\n    mapping(string => RecordInternal[]) private records;\n    mapping(bytes32 => UserInfo) private userInfoRecords;\n    mapping(bytes32 => string[]) private userCars;\n    mapping(string => CarInfo) private carDetails;\n\n    bytes32[] activeUsers;\n\n    function getAllUsers() public view ownerOnly returns(bytes32[] memory){\n        return activeUsers;\n    }\n\n    function getIndexOfUser(bytes32 user) internal view returns(uint){\n        for(uint i = 0; i < activeUsers.length; i++){\n            if(activeUsers[i] == user){\n                return i;\n            }\n        }\n        return uint(-1);\n    }\n\n    modifier carExists(string memory noPlate) {\n        require(bytes(carDetails[noPlate].brand).length > 0,\"That car does not exist in the chain\");\n        _;\n    }\n\n    function editUserInfo(bytes32 userId, UserInfo memory info) public {\n        userInfoRecords[userId] = info;\n    }\n\n    function getUserInfo(bytes32 userId) public view returns(UserInfo memory) {\n        return userInfoRecords[userId];\n    }\n\n    function editCarDetails(bytes32 userId, string memory noPlate, CarInfo memory carInfo) public{\n        carDetails[noPlate] = carInfo;\n        int index = getCarIndex(userId,noPlate);\n        if(index < 0){\n            userCars[userId].push(noPlate);\n        }\n        else{\n            userCars[userId][uint(index)] = noPlate;\n        }\n    }\n\n    function getCarIndex(bytes32 userId, string memory noPlate) internal view returns (int){\n        for(uint128 i = 0; i < userCars[userId].length; i++) {\n            if(encode(userCars[userId][i]) == encode(noPlate)) return i;\n        }\n        return -1;\n    }\n\n    function getCarPlates(bytes32 userId) public view returns (string[] memory) {\n        return userCars[userId];\n    }\n\n    function getCars(bytes32 userId) public view returns(CarInfo[] memory){\n        CarInfo[] memory cars = new CarInfo[](userCars[userId].length);\n        for(uint i = 0; i < userCars[userId].length;i++) {\n            cars[i] = carDetails[userCars[userId][i]];\n        }\n        return cars;\n    }\n\n    function getCarDetails(string memory noPlate) public view returns(CarInfo memory) {\n        return carDetails[noPlate];\n    }\n\n    function insertRecord(bytes32 dealerId, bytes32 id, string memory noPlate,\n     string[] memory services, string[] memory subservices, string memory comment, uint timeStamp)\n        public verified(dealerId) {\n        require(subservices.length <= services.length,\"Number of subservices does not match service length\");\n        if(getCarIndex(id,noPlate) < 0){\n            userCars[id].push(noPlate);\n        }\n        records[noPlate].push(RecordInternal(dealerId,services,subservices,comment,timeStamp));\n        if(getIndexOfUser(id) == uint(-1)){\n            activeUsers.push(id);\n        }\n    }\n\n    function getRecords(string memory noPlate) public view returns (RecordInternal[] memory) {\n        return records[noPlate];\n    }\n\n}\n",
  "sourcePath": "/home/brandon/Documents/_Important/Uni/Blockchain/Final project/contracts/UserContract.sol",
  "compiler": {
    "name": "solc",
    "version": "0.5.12+commit.7709ece9.Emscripten.clang"
  },
  "schemaVersion": "3.0.19",
  "updatedAt": "2019-11-29T18:54:50.705Z",
  "networkType": "ethereum",
  "devdoc": {
    "methods": {}
  },
  "userdoc": {
    "methods": {}
  }
}