{
  "contractName": "UserContract",
  "abi": [
    {
      "anonymous": false,
      "inputs": [
        {
          "components": [
            {
              "internalType": "string",
              "name": "dealerName",
              "type": "string"
            },
            {
              "internalType": "string",
              "name": "firstName",
              "type": "string"
            },
            {
              "internalType": "string",
              "name": "lastName",
              "type": "string"
            },
            {
              "internalType": "string",
              "name": "addr",
              "type": "string"
            },
            {
              "internalType": "string",
              "name": "location",
              "type": "string"
            },
            {
              "internalType": "string",
              "name": "phoneNo",
              "type": "string"
            },
            {
              "internalType": "string",
              "name": "bestSeller",
              "type": "string"
            },
            {
              "internalType": "string",
              "name": "promotion",
              "type": "string"
            },
            {
              "internalType": "string",
              "name": "otherServices",
              "type": "string"
            },
            {
              "internalType": "string[]",
              "name": "availableServices",
              "type": "string[]"
            },
            {
              "internalType": "string[][]",
              "name": "availableSubServices",
              "type": "string[][]"
            }
          ],
          "indexed": false,
          "internalType": "struct DealerContract.DealerInfo",
          "name": "info",
          "type": "tuple"
        },
        {
          "indexed": false,
          "internalType": "bytes32",
          "name": "id",
          "type": "bytes32"
        }
      ],
      "name": "CreateDealerApplication",
      "type": "event"
    },
    {
      "constant": false,
      "inputs": [
        {
          "internalType": "bytes32",
          "name": "dealerId",
          "type": "bytes32"
        },
        {
          "internalType": "bytes32",
          "name": "adr",
          "type": "bytes32"
        }
      ],
      "name": "addDealerEmployee",
      "outputs": [],
      "payable": false,
      "stateMutability": "nonpayable",
      "type": "function"
    },
    {
      "constant": false,
      "inputs": [
        {
          "internalType": "string",
          "name": "serviceName",
          "type": "string"
        }
      ],
      "name": "addService",
      "outputs": [],
      "payable": false,
      "stateMutability": "nonpayable",
      "type": "function"
    },
    {
      "constant": false,
      "inputs": [
        {
          "internalType": "string",
          "name": "serviceName",
          "type": "string"
        },
        {
          "internalType": "string",
          "name": "subServiceName",
          "type": "string"
        }
      ],
      "name": "addSubService",
      "outputs": [],
      "payable": false,
      "stateMutability": "nonpayable",
      "type": "function"
    },
    {
      "constant": false,
      "inputs": [
        {
          "internalType": "bytes32",
          "name": "adr",
          "type": "bytes32"
        }
      ],
      "name": "approveApplication",
      "outputs": [],
      "payable": false,
      "stateMutability": "nonpayable",
      "type": "function"
    },
    {
      "constant": false,
      "inputs": [
        {
          "components": [
            {
              "internalType": "string",
              "name": "dealerName",
              "type": "string"
            },
            {
              "internalType": "string",
              "name": "firstName",
              "type": "string"
            },
            {
              "internalType": "string",
              "name": "lastName",
              "type": "string"
            },
            {
              "internalType": "string",
              "name": "addr",
              "type": "string"
            },
            {
              "internalType": "string",
              "name": "location",
              "type": "string"
            },
            {
              "internalType": "string",
              "name": "phoneNo",
              "type": "string"
            },
            {
              "internalType": "string",
              "name": "bestSeller",
              "type": "string"
            },
            {
              "internalType": "string",
              "name": "promotion",
              "type": "string"
            },
            {
              "internalType": "string",
              "name": "otherServices",
              "type": "string"
            },
            {
              "internalType": "string[]",
              "name": "availableServices",
              "type": "string[]"
            },
            {
              "internalType": "string[][]",
              "name": "availableSubServices",
              "type": "string[][]"
            }
          ],
          "internalType": "struct DealerContract.DealerInfo",
          "name": "info",
          "type": "tuple"
        },
        {
          "internalType": "bytes32",
          "name": "id",
          "type": "bytes32"
        }
      ],
      "name": "createDealerApplication",
      "outputs": [],
      "payable": false,
      "stateMutability": "nonpayable",
      "type": "function"
    },
    {
      "constant": false,
      "inputs": [
        {
          "internalType": "string",
          "name": "serviceName",
          "type": "string"
        }
      ],
      "name": "deleteService",
      "outputs": [],
      "payable": false,
      "stateMutability": "nonpayable",
      "type": "function"
    },
    {
      "constant": false,
      "inputs": [
        {
          "internalType": "string",
          "name": "serviceName",
          "type": "string"
        },
        {
          "internalType": "string",
          "name": "subServiceName",
          "type": "string"
        }
      ],
      "name": "deleteSubService",
      "outputs": [],
      "payable": false,
      "stateMutability": "nonpayable",
      "type": "function"
    },
    {
      "constant": false,
      "inputs": [
        {
          "components": [
            {
              "internalType": "string",
              "name": "dealerName",
              "type": "string"
            },
            {
              "internalType": "string",
              "name": "firstName",
              "type": "string"
            },
            {
              "internalType": "string",
              "name": "lastName",
              "type": "string"
            },
            {
              "internalType": "string",
              "name": "addr",
              "type": "string"
            },
            {
              "internalType": "string",
              "name": "location",
              "type": "string"
            },
            {
              "internalType": "string",
              "name": "phoneNo",
              "type": "string"
            },
            {
              "internalType": "string",
              "name": "bestSeller",
              "type": "string"
            },
            {
              "internalType": "string",
              "name": "promotion",
              "type": "string"
            },
            {
              "internalType": "string",
              "name": "otherServices",
              "type": "string"
            },
            {
              "internalType": "string[]",
              "name": "availableServices",
              "type": "string[]"
            },
            {
              "internalType": "string[][]",
              "name": "availableSubServices",
              "type": "string[][]"
            }
          ],
          "internalType": "struct DealerContract.DealerInfo",
          "name": "info",
          "type": "tuple"
        },
        {
          "internalType": "bytes32",
          "name": "id",
          "type": "bytes32"
        }
      ],
      "name": "editDealerInfo",
      "outputs": [],
      "payable": false,
      "stateMutability": "nonpayable",
      "type": "function"
    },
    {
      "constant": false,
      "inputs": [
        {
          "internalType": "string",
          "name": "oldName",
          "type": "string"
        },
        {
          "internalType": "string",
          "name": "newName",
          "type": "string"
        }
      ],
      "name": "editServiceName",
      "outputs": [],
      "payable": false,
      "stateMutability": "nonpayable",
      "type": "function"
    },
    {
      "constant": false,
      "inputs": [
        {
          "internalType": "string",
          "name": "serviceName",
          "type": "string"
        },
        {
          "internalType": "string",
          "name": "oldName",
          "type": "string"
        },
        {
          "internalType": "string",
          "name": "newName",
          "type": "string"
        }
      ],
      "name": "editSubServiceName",
      "outputs": [],
      "payable": false,
      "stateMutability": "nonpayable",
      "type": "function"
    },
    {
      "constant": true,
      "inputs": [],
      "name": "getAllDealerApplications",
      "outputs": [
        {
          "internalType": "bytes32[]",
          "name": "",
          "type": "bytes32[]"
        }
      ],
      "payable": false,
      "stateMutability": "view",
      "type": "function"
    },
    {
      "constant": true,
      "inputs": [
        {
          "internalType": "bytes32",
          "name": "id",
          "type": "bytes32"
        }
      ],
      "name": "getDealerInfo",
      "outputs": [
        {
          "components": [
            {
              "internalType": "string",
              "name": "dealerName",
              "type": "string"
            },
            {
              "internalType": "string",
              "name": "firstName",
              "type": "string"
            },
            {
              "internalType": "string",
              "name": "lastName",
              "type": "string"
            },
            {
              "internalType": "string",
              "name": "addr",
              "type": "string"
            },
            {
              "internalType": "string",
              "name": "location",
              "type": "string"
            },
            {
              "internalType": "string",
              "name": "phoneNo",
              "type": "string"
            },
            {
              "internalType": "string",
              "name": "bestSeller",
              "type": "string"
            },
            {
              "internalType": "string",
              "name": "promotion",
              "type": "string"
            },
            {
              "internalType": "string",
              "name": "otherServices",
              "type": "string"
            },
            {
              "internalType": "string[]",
              "name": "availableServices",
              "type": "string[]"
            },
            {
              "internalType": "string[][]",
              "name": "availableSubServices",
              "type": "string[][]"
            }
          ],
          "internalType": "struct DealerContract.DealerInfo",
          "name": "",
          "type": "tuple"
        }
      ],
      "payable": false,
      "stateMutability": "view",
      "type": "function"
    },
    {
      "constant": true,
      "inputs": [
        {
          "internalType": "string",
          "name": "id",
          "type": "string"
        }
      ],
      "name": "getHash",
      "outputs": [
        {
          "internalType": "bytes32",
          "name": "",
          "type": "bytes32"
        }
      ],
      "payable": false,
      "stateMutability": "pure",
      "type": "function"
    },
    {
      "constant": true,
      "inputs": [],
      "name": "getServices",
      "outputs": [
        {
          "internalType": "string[]",
          "name": "",
          "type": "string[]"
        }
      ],
      "payable": false,
      "stateMutability": "view",
      "type": "function"
    },
    {
      "constant": true,
      "inputs": [
        {
          "internalType": "string",
          "name": "serviceName",
          "type": "string"
        }
      ],
      "name": "getSubServices",
      "outputs": [
        {
          "internalType": "string[]",
          "name": "",
          "type": "string[]"
        }
      ],
      "payable": false,
      "stateMutability": "view",
      "type": "function"
    },
    {
      "constant": true,
      "inputs": [
        {
          "internalType": "bytes32",
          "name": "adr",
          "type": "bytes32"
        }
      ],
      "name": "isVerified",
      "outputs": [
        {
          "internalType": "bool",
          "name": "",
          "type": "bool"
        }
      ],
      "payable": false,
      "stateMutability": "view",
      "type": "function"
    },
    {
      "constant": true,
      "inputs": [],
      "name": "owner",
      "outputs": [
        {
          "internalType": "address",
          "name": "",
          "type": "address"
        }
      ],
      "payable": false,
      "stateMutability": "view",
      "type": "function"
    },
    {
      "constant": false,
      "inputs": [
        {
          "internalType": "bytes32",
          "name": "dealershipId",
          "type": "bytes32"
        },
        {
          "internalType": "bytes32",
          "name": "otherId",
          "type": "bytes32"
        }
      ],
      "name": "transferDealershipOwner",
      "outputs": [],
      "payable": false,
      "stateMutability": "nonpayable",
      "type": "function"
    },
    {
      "constant": false,
      "inputs": [
        {
          "internalType": "address",
          "name": "newOwner",
          "type": "address"
        }
      ],
      "name": "transferOwner",
      "outputs": [],
      "payable": false,
      "stateMutability": "nonpayable",
      "type": "function"
    },
    {
      "constant": false,
      "inputs": [
        {
          "internalType": "bytes32",
          "name": "userId",
          "type": "bytes32"
        },
        {
          "components": [
            {
              "internalType": "string",
              "name": "firstName",
              "type": "string"
            },
            {
              "internalType": "string",
              "name": "lastName",
              "type": "string"
            },
            {
              "internalType": "string",
              "name": "adr",
              "type": "string"
            },
            {
              "internalType": "string",
              "name": "phNo",
              "type": "string"
            },
            {
              "internalType": "string",
              "name": "email",
              "type": "string"
            }
          ],
          "internalType": "struct UserContract.UserInfo",
          "name": "info",
          "type": "tuple"
        }
      ],
      "name": "editUserInfo",
      "outputs": [],
      "payable": false,
      "stateMutability": "nonpayable",
      "type": "function"
    },
    {
      "constant": true,
      "inputs": [
        {
          "internalType": "bytes32",
          "name": "userId",
          "type": "bytes32"
        }
      ],
      "name": "getUserInfo",
      "outputs": [
        {
          "components": [
            {
              "internalType": "string",
              "name": "firstName",
              "type": "string"
            },
            {
              "internalType": "string",
              "name": "lastName",
              "type": "string"
            },
            {
              "internalType": "string",
              "name": "adr",
              "type": "string"
            },
            {
              "internalType": "string",
              "name": "phNo",
              "type": "string"
            },
            {
              "internalType": "string",
              "name": "email",
              "type": "string"
            }
          ],
          "internalType": "struct UserContract.UserInfo",
          "name": "",
          "type": "tuple"
        }
      ],
      "payable": false,
      "stateMutability": "view",
      "type": "function"
    },
    {
      "constant": false,
      "inputs": [
        {
          "internalType": "bytes32",
          "name": "userId",
          "type": "bytes32"
        },
        {
          "internalType": "string",
          "name": "noPlate",
          "type": "string"
        },
        {
          "components": [
            {
              "internalType": "string",
              "name": "brand",
              "type": "string"
            },
            {
              "internalType": "string",
              "name": "model",
              "type": "string"
            },
            {
              "internalType": "string",
              "name": "year",
              "type": "string"
            }
          ],
          "internalType": "struct UserContract.CarInfo",
          "name": "carInfo",
          "type": "tuple"
        }
      ],
      "name": "editCarDetails",
      "outputs": [],
      "payable": false,
      "stateMutability": "nonpayable",
      "type": "function"
    },
    {
      "constant": true,
      "inputs": [
        {
          "internalType": "bytes32",
          "name": "userId",
          "type": "bytes32"
        }
      ],
      "name": "getCarPlates",
      "outputs": [
        {
          "internalType": "string[]",
          "name": "",
          "type": "string[]"
        }
      ],
      "payable": false,
      "stateMutability": "view",
      "type": "function"
    },
    {
      "constant": true,
      "inputs": [
        {
          "internalType": "bytes32",
          "name": "userId",
          "type": "bytes32"
        }
      ],
      "name": "getCars",
      "outputs": [
        {
          "components": [
            {
              "internalType": "string",
              "name": "brand",
              "type": "string"
            },
            {
              "internalType": "string",
              "name": "model",
              "type": "string"
            },
            {
              "internalType": "string",
              "name": "year",
              "type": "string"
            }
          ],
          "internalType": "struct UserContract.CarInfo[]",
          "name": "",
          "type": "tuple[]"
        }
      ],
      "payable": false,
      "stateMutability": "view",
      "type": "function"
    },
    {
      "constant": false,
      "inputs": [
        {
          "internalType": "bytes32",
          "name": "dealerId",
          "type": "bytes32"
        },
        {
          "internalType": "bytes32",
          "name": "id",
          "type": "bytes32"
        },
        {
          "internalType": "string",
          "name": "noPlate",
          "type": "string"
        },
        {
          "internalType": "string[]",
          "name": "services",
          "type": "string[]"
        },
        {
          "internalType": "string[]",
          "name": "subservices",
          "type": "string[]"
        },
        {
          "internalType": "string",
          "name": "comment",
          "type": "string"
        },
        {
          "internalType": "uint256",
          "name": "timeStamp",
          "type": "uint256"
        }
      ],
      "name": "insertRecord",
      "outputs": [],
      "payable": false,
      "stateMutability": "nonpayable",
      "type": "function"
    },
    {
      "constant": true,
      "inputs": [
        {
          "internalType": "string",
          "name": "noPlate",
          "type": "string"
        }
      ],
      "name": "getRecords",
      "outputs": [
        {
          "components": [
            {
              "internalType": "string[]",
              "name": "services",
              "type": "string[]"
            },
            {
              "internalType": "string[]",
              "name": "subservices",
              "type": "string[]"
            },
            {
              "internalType": "string",
              "name": "comment",
              "type": "string"
            },
            {
              "internalType": "uint256",
              "name": "timeStamp",
              "type": "uint256"
            }
          ],
          "internalType": "struct UserContract.RecordInternal[]",
          "name": "",
          "type": "tuple[]"
        }
      ],
      "payable": false,
      "stateMutability": "view",
      "type": "function"
    }
  ],
  "bytecode": "0x60806040526006805461fe0061ff0019909116179055600080546001600160a01b03191633179055614077806100366000396000f3fe608060405234801561001057600080fd5b506004361061018e5760003560e01c80637d17f13c116100de5780638ee2421411610097578063c181b27311610071578063c181b2731461037a578063c4e91d171461039a578063c9b54a58146103ad578063e445268c146103cd5761018e565b80638ee24214146103345780638f2b514414610347578063adff8b0f1461035a5761018e565b80637d17f13c146102a45780637e41667f146102c457806382d7afbd146102d957806386e80b71146102ec57806388fcd1941461030c5780638da5cb5b1461031f5761018e565b8063369bfce41161014b57806350fb95e31161012557806350fb95e3146102565780635b6beeb9146102695780636fd7d2b514610289578063754178511461029c5761018e565b8063369bfce414610207578063431a65fc1461021a5780634fb2e45d146102435761018e565b806307681038146101935780630ad5be91146101a85780630eb7bc8f146101bb5780631a4c85be146101ce5780631b8f47fe146101e15780632d4afc7b146101f4575b600080fd5b6101a66101a13660046133ef565b6103e0565b005b6101a66101b636600461311d565b6105dd565b6101a66101c936600461330b565b61072a565b6101a66101dc3660046132d7565b6107b5565b6101a66101ef3660046130a7565b610866565b6101a66102023660046133ef565b6108f7565b6101a661021536600461330b565b610a6c565b61022d6102283660046132d7565b610b06565b60405161023a9190613dcc565b60405180910390f35b6101a6610251366004613081565b610bfd565b6101a661026436600461330b565b610c49565b61027c6102773660046132d7565b610d2c565b60405161023a9190613e0d565b6101a6610297366004613368565b610da1565b61022d610e43565b6102b76102b23660046130a7565b610f98565b60405161023a9190613eeb565b6102cc6116f2565b60405161023a9190613dbb565b6101a66102e73660046130e3565b611775565b6102ff6102fa3660046132d7565b611871565b60405161023a9190613dee565b6101a661031a3660046132d7565b611b2f565b610327611c3d565b60405161023a9190613dad565b6101a6610342366004613215565b611c4c565b61022d6103553660046130a7565b611d53565b61036d6103683660046130a7565b611e33565b60405161023a9190613f1c565b61038d6103883660046130a7565b612145565b60405161023a9190613dff565b6101a66103a8366004613290565b612172565b6103c06103bb3660046130a7565b612204565b60405161023a9190613ddd565b6101a66103db3660046130e3565b6124a6565b60008181526001602052604090205460ff16156104185760405162461bcd60e51b815260040161040f90613eab565b60405180910390fd5b600081815260046020908152604090912083518051859361043d92849291019061285b565b506020828101518051610456926001850192019061285b565b506040820151805161047291600284019160209091019061285b565b506060820151805161048e91600384019160209091019061285b565b50608082015180516104aa91600484019160209091019061285b565b5060a082015180516104c691600584019160209091019061285b565b5060c082015180516104e291600684019160209091019061285b565b5060e082015180516104fe91600784019160209091019061285b565b50610100820151805161051b91600884019160209091019061285b565b5061012082015180516105389160098401916020909101906128d9565b50610140820151805161055591600a840191602090910190612932565b50905050600061056482612531565b12156105a057600580546001810182556000919091527f036b6384b5eca791c62761152d0c79bb0604c104a5fb6f4eb0703f3154bb3db0018190555b7f42ab459ad3144922283159073eea05ed3ff810ab23fc94bbad43d99b9332dbb282826040516105d1929190613efc565b60405180910390a15050565b866105e781612145565b6106035760405162461bcd60e51b815260040161040f90613edb565b8451845111156106255760405162461bcd60e51b815260040161040f90613e6b565b60006106318888612577565b121561066e576000878152600b602090815260408220805460018101808355918452928290208951919361066b93910191908a019061285b565b50505b60098660405161067e9190613d95565b90815260408051918290036020908101832060808401835288845283820188905291830186905260608301859052815460018101808455600093845292829020845180519495946004909302909101926106dd928492909101906128d9565b5060208281015180516106f692600185019201906128d9565b506040820151805161071291600284019160209091019061285b565b50606082015181600301555050505050505050505050565b6000546001600160a01b031633146107545760405162461bcd60e51b815260040161040f90613e7b565b8161075e8161268c565b61077a5760405162461bcd60e51b815260040161040f90613e9b565b8160076000610788866126ad565b60ff1660ff16815260200190815260200160002090805190602001906107af92919061285b565b50505050565b6000546001600160a01b031633146107df5760405162461bcd60e51b815260040161040f90613e7b565b806107e98161268c565b6108055760405162461bcd60e51b815260040161040f90613e9b565b6040518060200160405280600081525060076000610822856126ad565b60ff1660ff168152602001908152602001600020908051906020019061084992919061285b565b50506006805460ff19811660ff9182166000190190911617905550565b6000546001600160a01b031633146108905760405162461bcd60e51b815260040161040f90613e7b565b600061089b82612531565b905060008112156108be5760405162461bcd60e51b815260040161040f90613e4b565b6000828152600160208190526040909120805460ff1916909117905560058054829081106108e857fe5b60009182526020822001555050565b600081815260016020526040902054819060ff166109275760405162461bcd60e51b815260040161040f90613e2b565b600082815260046020908152604090912084518051869361094c92849291019061285b565b506020828101518051610965926001850192019061285b565b506040820151805161098191600284019160209091019061285b565b506060820151805161099d91600384019160209091019061285b565b50608082015180516109b991600484019160209091019061285b565b5060a082015180516109d591600584019160209091019061285b565b5060c082015180516109f191600684019160209091019061285b565b5060e08201518051610a0d91600784019160209091019061285b565b506101008201518051610a2a91600884019160209091019061285b565b506101208201518051610a479160098401916020909101906128d9565b506101408201518051610a6491600a840191602090910190612932565b505050505050565b6000546001600160a01b03163314610a965760405162461bcd60e51b815260040161040f90613e7b565b8181610aa28282612797565b610abe5760405162461bcd60e51b815260040161040f90613e8b565b600884604051610ace9190613d95565b9081526020016040518091039020610ae685856127ad565b81548110610af057fe5b9060005260206000200160006107af919061298b565b6060600882604051610b189190613d95565b9081526020016040518091039020805480602002602001604051908101604052809291908181526020016000905b82821015610bf15760008481526020908190208301805460408051601f6002600019610100600187161502019094169390930492830185900485028101850190915281815292830182828015610bdd5780601f10610bb257610100808354040283529160200191610bdd565b820191906000526020600020905b815481529060010190602001808311610bc057829003601f168201915b505050505081526020019060010190610b46565b5050505090505b919050565b6000546001600160a01b03163314610c275760405162461bcd60e51b815260040161040f90613e7b565b600080546001600160a01b0319166001600160a01b0392909216919091179055565b8160ff600882604051610c5c9190613d95565b9081526040519081900360200190205410610c895760405162461bcd60e51b815260040161040f90613e5b565b8282610c958282612797565b15610cb25760405162461bcd60e51b815260040161040f90613e3b565b6000546001600160a01b03163314610cdc5760405162461bcd60e51b815260040161040f90613e7b565b600885604051610cec9190613d95565b9081526040516020918190038201902080546001810180835560009283529183902087519293610d2393919092019188019061285b565b50505050505050565b6000600282604051602001610d419190613d95565b60408051601f1981840301815290829052610d5b91613d95565b602060405180830381855afa158015610d78573d6000803e3d6000fd5b5050506040513d601f19601f82011682018060405250610d9b91908101906130c5565b92915050565b8282610dad8282612797565b610dc95760405162461bcd60e51b815260040161040f90613e8b565b6000546001600160a01b03163314610df35760405162461bcd60e51b815260040161040f90613e7b565b82600886604051610e049190613d95565b9081526020016040518091039020610e1c87876127ad565b81548110610e2657fe5b906000526020600020019080519060200190610a6492919061285b565b6006546040805160ff909216808352602080820284010190915260609182918015610e8257816020015b6060815260200190600190039081610e6d5790505b5090506000805b60065460ff61010090910481169082161015610f8f5760ff81166000908152600760205260409020546002600019610100600184161502019091160415610f875760ff811660009081526007602090815260409182902080548351601f600260001961010060018616150201909316929092049182018490048402810184019094528084529091830182828015610f615780601f10610f3657610100808354040283529160200191610f61565b820191906000526020600020905b815481529060010190602001808311610f4457829003601f168201915b5050505050838380600101945060ff1681518110610f7b57fe5b60200260200101819052505b600101610e89565b50909150505b90565b610fa06129d2565b6000828152600460209081526040918290208251815460026001821615610100026000190190911604601f8101849004909302810161018090810190945261016081018381529093919284928491908401828280156110405780601f1061101557610100808354040283529160200191611040565b820191906000526020600020905b81548152906001019060200180831161102357829003601f168201915b50505050508152602001600182018054600181600116156101000203166002900480601f0160208091040260200160405190810160405280929190818152602001828054600181600116156101000203166002900480156110e25780601f106110b7576101008083540402835291602001916110e2565b820191906000526020600020905b8154815290600101906020018083116110c557829003601f168201915b5050509183525050600282810180546040805160206001841615610100026000190190931694909404601f810183900483028501830190915280845293810193908301828280156111745780601f1061114957610100808354040283529160200191611174565b820191906000526020600020905b81548152906001019060200180831161115757829003601f168201915b505050918352505060038201805460408051602060026001851615610100026000190190941693909304601f81018490048402820184019092528181529382019392918301828280156112085780601f106111dd57610100808354040283529160200191611208565b820191906000526020600020905b8154815290600101906020018083116111eb57829003601f168201915b505050918352505060048201805460408051602060026001851615610100026000190190941693909304601f810184900484028201840190925281815293820193929183018282801561129c5780601f106112715761010080835404028352916020019161129c565b820191906000526020600020905b81548152906001019060200180831161127f57829003601f168201915b505050918352505060058201805460408051602060026001851615610100026000190190941693909304601f81018490048402820184019092528181529382019392918301828280156113305780601f1061130557610100808354040283529160200191611330565b820191906000526020600020905b81548152906001019060200180831161131357829003601f168201915b505050918352505060068201805460408051602060026001851615610100026000190190941693909304601f81018490048402820184019092528181529382019392918301828280156113c45780601f10611399576101008083540402835291602001916113c4565b820191906000526020600020905b8154815290600101906020018083116113a757829003601f168201915b505050918352505060078201805460408051602060026001851615610100026000190190941693909304601f81018490048402820184019092528181529382019392918301828280156114585780601f1061142d57610100808354040283529160200191611458565b820191906000526020600020905b81548152906001019060200180831161143b57829003601f168201915b505050918352505060088201805460408051602060026001851615610100026000190190941693909304601f81018490048402820184019092528181529382019392918301828280156114ec5780601f106114c1576101008083540402835291602001916114ec565b820191906000526020600020905b8154815290600101906020018083116114cf57829003601f168201915b5050505050815260200160098201805480602002602001604051908101604052809291908181526020016000905b828210156115c55760008481526020908190208301805460408051601f60026000196101006001871615020190941693909304928301859004850281018501909152818152928301828280156115b15780601f10611586576101008083540402835291602001916115b1565b820191906000526020600020905b81548152906001019060200180831161159457829003601f168201915b50505050508152602001906001019061151a565b505050508152602001600a8201805480602002602001604051908101604052809291908181526020016000905b828210156116e457838290600052602060002001805480602002602001604051908101604052809291908181526020016000905b828210156116d15760008481526020908190208301805460408051601f60026000196101006001871615020190941693909304928301859004850281018501909152818152928301828280156116bd5780601f10611692576101008083540402835291602001916116bd565b820191906000526020600020905b8154815290600101906020018083116116a057829003601f168201915b505050505081526020019060010190611626565b50505050815260200190600101906115f2565b505050915250909392505050565b6000546060906001600160a01b0316331461171f5760405162461bcd60e51b815260040161040f90613e7b565b600580548060200260200160405190810160405280929190818152602001828054801561176b57602002820191906000526020600020905b815481526020019060010190808311611757575b5050505050905090565b600082815260016020526040902054829060ff166117a55760405162461bcd60e51b815260040161040f90613e2b565b6000828152600160208181526040808420805460ff19908116909417905586845280842080549093169092558483526003815281832083905585835260029052808220848352912081546117f99290612a2c565b50600083815260026020526040812061181191612a6c565b60005b6000838152600260205260409020548110156107af57826003600060026000878152602001908152602001600020848154811061184d57fe5b60009182526020808320909101548352820192909252604001902055600101611814565b60606009826040516118839190613d95565b9081526020016040518091039020805480602002602001604051908101604052809291908181526020016000905b82821015610bf1578382906000526020600020906004020160405180608001604052908160008201805480602002602001604051908101604052809291908181526020016000905b828210156119a45760008481526020908190208301805460408051601f60026000196101006001871615020190941693909304928301859004850281018501909152818152928301828280156119905780601f1061196557610100808354040283529160200191611990565b820191906000526020600020905b81548152906001019060200180831161197357829003601f168201915b5050505050815260200190600101906118f9565b50505050815260200160018201805480602002602001604051908101604052809291908181526020016000905b82821015611a7c5760008481526020908190208301805460408051601f6002600019610100600187161502019094169390930492830185900485028101850190915281815292830182828015611a685780601f10611a3d57610100808354040283529160200191611a68565b820191906000526020600020905b815481529060010190602001808311611a4b57829003601f168201915b5050505050815260200190600101906119d1565b50505090825250600282810180546040805160206001841615610100026000190190931694909404601f81018390048302850183019091528084529381019390830182828015611b0d5780601f10611ae257610100808354040283529160200191611b0d565b820191906000526020600020905b815481529060010190602001808311611af057829003601f168201915b50505050508152602001600382015481525050815260200190600101906118b1565b6000546001600160a01b03163314611b595760405162461bcd60e51b815260040161040f90613e7b565b80611b638161268c565b15611b805760405162461bcd60e51b815260040161040f90613ebb565b60065460ff6101008204811691161115611bac5760405162461bcd60e51b815260040161040f90613ecb565b60005b60065460ff61010090910481169082161015611c375760ff811660009081526007602052604090205460026000196101006001841615020190911604611c2f5760ff811660009081526007602090815260409091208451611c129286019061285b565b50506006805460ff8082166001011660ff19909116179055611c39565b600101611baf565b505b5050565b6000546001600160a01b031681565b80600c83604051611c5d9190613d95565b90815260200160405180910390206000820151816000019080519060200190611c8792919061285b565b506020828101518051611ca0926001850192019061285b565b5060408201518051611cbc91600284019160209091019061285b565b509050506000611ccc8484612577565b90506000811215611d12576000848152600b6020908152604082208054600181018083559184529282902086519193611d0b939101919087019061285b565b50506107af565b6000848152600b60205260409020805484919083908110611d2f57fe5b906000526020600020019080519060200190611d4c92919061285b565b5050505050565b6060600b6000838152602001908152602001600020805480602002602001604051908101604052809291908181526020016000905b82821015610bf15760008481526020908190208301805460408051601f6002600019610100600187161502019094169390930492830185900485028101850190915281815292830182828015611e1f5780601f10611df457610100808354040283529160200191611e1f565b820191906000526020600020905b815481529060010190602001808311611e0257829003601f168201915b505050505081526020019060010190611d88565b611e3b612a8a565b6000828152600a60209081526040918290208251815460026001821615610100026000190190911604601f8101849004909302810160c090810190945260a08101838152909391928492849190840182828015611ed95780601f10611eae57610100808354040283529160200191611ed9565b820191906000526020600020905b815481529060010190602001808311611ebc57829003601f168201915b50505050508152602001600182018054600181600116156101000203166002900480601f016020809104026020016040519081016040528092919081815260200182805460018160011615610100020316600290048015611f7b5780601f10611f5057610100808354040283529160200191611f7b565b820191906000526020600020905b815481529060010190602001808311611f5e57829003601f168201915b5050509183525050600282810180546040805160206001841615610100026000190190931694909404601f8101839004830285018301909152808452938101939083018282801561200d5780601f10611fe25761010080835404028352916020019161200d565b820191906000526020600020905b815481529060010190602001808311611ff057829003601f168201915b505050918352505060038201805460408051602060026001851615610100026000190190941693909304601f81018490048402820184019092528181529382019392918301828280156120a15780601f10612076576101008083540402835291602001916120a1565b820191906000526020600020905b81548152906001019060200180831161208457829003601f168201915b505050918352505060048201805460408051602060026001851615610100026000190190941693909304601f81018490048402820184019092528181529382019392918301828280156121355780601f1061210a57610100808354040283529160200191612135565b820191906000526020600020905b81548152906001019060200180831161211857829003601f168201915b5050505050815250509050919050565b60008181526001602052604081205460ff1680610d9b575050600090815260036020526040902054151590565b6000828152600a6020908152604090912082518051849361219792849291019061285b565b5060208281015180516121b0926001850192019061285b565b50604082015180516121cc91600284019160209091019061285b565b50606082015180516121e891600384019160209091019061285b565b5060808201518051611d4c91600484019160209091019061285b565b606080600b60008481526020019081526020016000208054905060405190808252806020026020018201604052801561225757816020015b612244612ab9565b81526020019060019003908161223c5790505b50905060005b6000848152600b602052604090205481101561249f576000848152600b602052604090208054600c91908390811061229157fe5b906000526020600020016040516122a89190613da1565b9081526040805160209281900383018120805460026001821615610100026000190190911604601f810185900490940282016080908101909352606082018481529193909284929184918401828280156123435780601f1061231857610100808354040283529160200191612343565b820191906000526020600020905b81548152906001019060200180831161232657829003601f168201915b50505050508152602001600182018054600181600116156101000203166002900480601f0160208091040260200160405190810160405280929190818152602001828054600181600116156101000203166002900480156123e55780601f106123ba576101008083540402835291602001916123e5565b820191906000526020600020905b8154815290600101906020018083116123c857829003601f168201915b5050509183525050600282810180546040805160206001841615610100026000190190931694909404601f810183900483028501830190915280845293810193908301828280156124775780601f1061244c57610100808354040283529160200191612477565b820191906000526020600020905b81548152906001019060200180831161245a57829003601f168201915b50505050508152505082828151811061248c57fe5b602090810291909101015260010161225d565b5092915050565b600082815260016020526040902054829060ff166124d65760405162461bcd60e51b815260040161040f90613e2b565b600082815260036020526040902054156125025760405162461bcd60e51b815260040161040f90613e1b565b506000828152600260209081526040808320805460018101825590845282842001849055928252600390522055565b6000805b60055481101561256d57826005828154811061254d57fe5b90600052602060002001541415612565579050610bf8565b600101612535565b5060001992915050565b6000805b6000848152600b60205260409020546001600160801b0382161015612681576125a38361282b565b6000858152600b60205260409020805461266391906001600160801b0385169081106125cb57fe5b600091825260209182902001805460408051601f60026000196101006001871615020190941693909304928301859004850281018501909152818152928301828280156126595780601f1061262e57610100808354040283529160200191612659565b820191906000526020600020905b81548152906001019060200180831161263c57829003601f168201915b505050505061282b565b1415612679576001600160801b03169050610d9b565b60010161257b565b506000199392505050565b600654600090610100900460ff166126a3836126ad565b60ff161092915050565b6000806126b98361282b565b905060005b60065460ff6101009091048116908216101561278d5760ff81166000908152600760205260409020546002600019610100600184161502019091160415801590612777575060ff81166000908152600760209081526040918290208054835160026001831615610100026000190190921691909104601f81018490048402820184019094528381528593612775939192918301828280156126595780601f1061262e57610100808354040283529160200191612659565b145b15612785579150610bf89050565b6001016126be565b5060ff9392505050565b600060ff6127a584846127ad565b109392505050565b6000805b6008846040516127c19190613d95565b9081526040519081900360200190205460ff8216101561278d576127e48361282b565b6128136008866040516127f79190613d95565b90815260200160405180910390208360ff16815481106125cb57fe5b14156128235760ff169050610d9b565b6001016127b1565b60008160405160200161283e9190613d95565b604051602081830303815290604052805190602001209050919050565b828054600181600116156101000203166002900490600052602060002090601f016020900481019282601f1061289c57805160ff19168380011785556128c9565b828001600101855582156128c9579182015b828111156128c95782518255916020019190600101906128ae565b506128d5929150612ada565b5090565b828054828255906000526020600020908101928215612926579160200282015b82811115612926578251805161291691849160209091019061285b565b50916020019190600101906128f9565b506128d5929150612af4565b82805482825590600052602060002090810192821561297f579160200282015b8281111561297f578251805161296f9184916020909101906128d9565b5091602001919060010190612952565b506128d5929150612b17565b50805460018160011615610100020316600290046000825580601f106129b157506129cf565b601f0160209004906000526020600020908101906129cf9190612ada565b50565b60405180610160016040528060608152602001606081526020016060815260200160608152602001606081526020016060815260200160608152602001606081526020016060815260200160608152602001606081525090565b8280548282559060005260206000209081019282156128c95760005260206000209182015b828111156128c9578254825591600101919060010190612a51565b50805460008255906000526020600020908101906129cf9190612ada565b6040518060a0016040528060608152602001606081526020016060815260200160608152602001606081525090565b60405180606001604052806060815260200160608152602001606081525090565b610f9591905b808211156128d55760008155600101612ae0565b610f9591905b808211156128d5576000612b0e828261298b565b50600101612afa565b610f9591905b808211156128d5576000612b318282612b3a565b50600101612b1d565b50805460008255906000526020600020908101906129cf9190612af4565b8035610d9b81614017565b600082601f830112612b7457600080fd5b8135612b87612b8282613f53565b613f2d565b81815260209384019390925082018360005b83811015612bc55781358601612baf8882612bcf565b8452506020928301929190910190600101612b99565b5050505092915050565b600082601f830112612be057600080fd5b8135612bee612b8282613f53565b81815260209384019390925082018360005b83811015612bc55781358601612c168882612c9f565b8452506020928301929190910190600101612c00565b600082601f830112612c3d57600080fd5b8135612c4b612b8282613f53565b81815260209384019390925082018360005b83811015612bc55781358601612c738882612c9f565b8452506020928301929190910190600101612c5d565b8035610d9b8161402b565b8051610d9b8161402b565b600082601f830112612cb057600080fd5b8135612cbe612b8282613f73565b91508082526020830160208301858383011115612cda57600080fd5b612ce5838284613fd5565b50505092915050565b600060608284031215612d0057600080fd5b612d0a6060613f2d565b905081356001600160401b03811115612d2257600080fd5b612d2e84828501612c9f565b82525060208201356001600160401b03811115612d4a57600080fd5b612d5684828501612c9f565b60208301525060408201356001600160401b03811115612d7557600080fd5b612d8184828501612c9f565b60408301525092915050565b60006101608284031215612da057600080fd5b612dab610160613f2d565b905081356001600160401b03811115612dc357600080fd5b612dcf84828501612c9f565b82525060208201356001600160401b03811115612deb57600080fd5b612df784828501612c9f565b60208301525060408201356001600160401b03811115612e1657600080fd5b612e2284828501612c9f565b60408301525060608201356001600160401b03811115612e4157600080fd5b612e4d84828501612c9f565b60608301525060808201356001600160401b03811115612e6c57600080fd5b612e7884828501612c9f565b60808301525060a08201356001600160401b03811115612e9757600080fd5b612ea384828501612c9f565b60a08301525060c08201356001600160401b03811115612ec257600080fd5b612ece84828501612c9f565b60c08301525060e08201356001600160401b03811115612eed57600080fd5b612ef984828501612c9f565b60e0830152506101008201356001600160401b03811115612f1957600080fd5b612f2584828501612c9f565b610100830152506101208201356001600160401b03811115612f4657600080fd5b612f5284828501612bcf565b610120830152506101408201356001600160401b03811115612f7357600080fd5b612f7f84828501612b63565b6101408301525092915050565b600060a08284031215612f9e57600080fd5b612fa860a0613f2d565b905081356001600160401b03811115612fc057600080fd5b612fcc84828501612c9f565b82525060208201356001600160401b03811115612fe857600080fd5b612ff484828501612c9f565b60208301525060408201356001600160401b0381111561301357600080fd5b61301f84828501612c9f565b60408301525060608201356001600160401b0381111561303e57600080fd5b61304a84828501612c9f565b60608301525060808201356001600160401b0381111561306957600080fd5b61307584828501612c9f565b60808301525092915050565b60006020828403121561309357600080fd5b600061309f8484612b58565b949350505050565b6000602082840312156130b957600080fd5b600061309f8484612c89565b6000602082840312156130d757600080fd5b600061309f8484612c94565b600080604083850312156130f657600080fd5b60006131028585612c89565b925050602061311385828601612c89565b9150509250929050565b600080600080600080600060e0888a03121561313857600080fd5b60006131448a8a612c89565b97505060206131558a828b01612c89565b96505060408801356001600160401b0381111561317157600080fd5b61317d8a828b01612c9f565b95505060608801356001600160401b0381111561319957600080fd5b6131a58a828b01612c2c565b94505060808801356001600160401b038111156131c157600080fd5b6131cd8a828b01612c2c565b93505060a08801356001600160401b038111156131e957600080fd5b6131f58a828b01612c9f565b92505060c06132068a828b01612c89565b91505092959891949750929550565b60008060006060848603121561322a57600080fd5b60006132368686612c89565b93505060208401356001600160401b0381111561325257600080fd5b61325e86828701612c9f565b92505060408401356001600160401b0381111561327a57600080fd5b61328686828701612cee565b9150509250925092565b600080604083850312156132a357600080fd5b60006132af8585612c89565b92505060208301356001600160401b038111156132cb57600080fd5b61311385828601612f8c565b6000602082840312156132e957600080fd5b81356001600160401b038111156132ff57600080fd5b61309f84828501612c9f565b6000806040838503121561331e57600080fd5b82356001600160401b0381111561333457600080fd5b61334085828601612c9f565b92505060208301356001600160401b0381111561335c57600080fd5b61311385828601612c9f565b60008060006060848603121561337d57600080fd5b83356001600160401b0381111561339357600080fd5b61339f86828701612c9f565b93505060208401356001600160401b038111156133bb57600080fd5b6133c786828701612c9f565b92505060408401356001600160401b038111156133e357600080fd5b61328686828701612c9f565b6000806040838503121561340257600080fd5b82356001600160401b0381111561341857600080fd5b61310285828601612d8d565b600061343083836135a6565b9392505050565b600061344383836136d2565b505060200190565b6000613430838361370a565b60006134308383613b34565b60006134308383613cac565b61347881613fb9565b82525050565b600061348982613fac565b6134938185613fb0565b9350836020820285016134a585613f9a565b8060005b858110156134df57848403895281516134c28582613424565b94506134cd83613f9a565b60209a909a01999250506001016134a9565b5091979650505050505050565b60006134f782613fac565b6135018185613fb0565b935061350c83613f9a565b8060005b8381101561353a5781516135248882613437565b975061352f83613f9a565b925050600101613510565b509495945050505050565b600061355082613fac565b61355a8185613fb0565b93508360208202850161356c85613f9a565b8060005b858110156134df5784840389528151613589858261344b565b945061359483613f9a565b60209a909a0199925050600101613570565b60006135b182613fac565b6135bb8185613fb0565b9350836020820285016135cd85613f9a565b8060005b858110156134df57848403895281516135ea858261344b565b94506135f583613f9a565b60209a909a01999250506001016135d1565b600061361282613fac565b61361c8185613fb0565b93508360208202850161362e85613f9a565b8060005b858110156134df578484038952815161364b8582613457565b945061365683613f9a565b60209a909a0199925050600101613632565b600061367382613fac565b61367d8185613fb0565b93508360208202850161368f85613f9a565b8060005b858110156134df57848403895281516136ac8582613463565b94506136b783613f9a565b60209a909a0199925050600101613693565b61347881613fc4565b61347881610f95565b60006136e682613fac565b6136f08185610bf8565b9350613700818560208601613fe1565b9290920192915050565b600061371582613fac565b61371f8185613fb0565b935061372f818560208601613fe1565b6137388161400d565b9093019392505050565b60008154600181166000811461375f5760018114613782576137c1565b607f60028304166137708187610bf8565b60ff19841681529550850192506137c1565b600282046137908187610bf8565b955061379b85613fa0565b60005b828110156137ba5781548882015260019091019060200161379e565b5050850192505b505092915050565b60006137d6602183613fb0565b7f5468617420656d706c6f79656520616c726561647920776f726b7320746865728152606560f81b602082015260400192915050565b6000613819602983613fb0565b7f596f75206d7573742062652061206465616c657273686970206f776e657220748152686f20646f207468697360b81b602082015260400192915050565b6000613864601e83613fb0565b7f54686174207375627365727669636520616c7265616479206578697374730000815260200192915050565b600061389d602183613fb0565b7f4e6f206170706c69636174696f6e2065786973747320666f72207468617420698152601960fa1b602082015260400192915050565b60006138e0602183613fb0565b7f4d6178696d756d207375627365727669636520616d6f756e74207265616368658152601960fa1b602082015260400192915050565b6000613923603383613fb0565b7f4e756d626572206f6620737562736572766963657320646f6573206e6f74206d8152720c2e8c6d040e6cae4ecd2c6ca40d8cadccee8d606b1b602082015260400192915050565b6000613978601583613fb0565b742cb7ba9030b932903737ba103a34329037bbb732b960591b815260200192915050565b60006139a9602c83613fb0565b7f54686174207375627365727669636520646f65736e7420657869737420696e2081526b1d1a1a5cc818dbdb9d195e1d60a21b602082015260400192915050565b60006139f7601b83613fb0565b7f54686174207365727669636520646f6573206e6f742065786973740000000000815260200192915050565b6000613a30602283613fb0565b7f54686174206164647265737320697320616c7265616479207265676973746572815261195960f21b602082015260400192915050565b6000613a74601b83613fb0565b7f54686174207365727669636520616c7265616479206578697374730000000000815260200192915050565b6000613aad602883613fb0565b7f54686572652061726520746865206d6178696d756d206e756d626572206f6620815267736572766963657360c01b602082015260400192915050565b6000613af7602883613fb0565b7f596f75206d7573742062652061207665726966696564206465616c657220746f81526720646f207468697360c01b602082015260400192915050565b8051606080845260009190840190613b4c828261370a565b91505060208301518482036020860152613b66828261370a565b91505060408301518482036040860152613b80828261370a565b95945050505050565b805161016080845260009190840190613ba2828261370a565b91505060208301518482036020860152613bbc828261370a565b91505060408301518482036040860152613bd6828261370a565b91505060608301518482036060860152613bf0828261370a565b91505060808301518482036080860152613c0a828261370a565b91505060a083015184820360a0860152613c24828261370a565b91505060c083015184820360c0860152613c3e828261370a565b91505060e083015184820360e0860152613c58828261370a565b915050610100830151848203610100860152613c74828261370a565b915050610120830151848203610120860152613c9082826135a6565b915050610140830151848203610140860152613b80828261347e565b8051608080845260009190840190613cc482826135a6565b91505060208301518482036020860152613cde82826135a6565b91505060408301518482036040860152613cf8828261370a565b9150506060830151613d0d60608601826136d2565b509392505050565b805160a080845260009190840190613d2d828261370a565b91505060208301518482036020860152613d47828261370a565b91505060408301518482036040860152613d61828261370a565b91505060608301518482036060860152613d7b828261370a565b91505060808301518482036080860152613b80828261370a565b600061343082846136db565b60006134308284613742565b60208101610d9b828461346f565b6020808252810161343081846134ec565b602080825281016134308184613545565b602080825281016134308184613607565b602080825281016134308184613668565b60208101610d9b82846136c9565b60208101610d9b82846136d2565b60208082528101610d9b816137c9565b60208082528101610d9b8161380c565b60208082528101610d9b81613857565b60208082528101610d9b81613890565b60208082528101610d9b816138d3565b60208082528101610d9b81613916565b60208082528101610d9b8161396b565b60208082528101610d9b8161399c565b60208082528101610d9b816139ea565b60208082528101610d9b81613a23565b60208082528101610d9b81613a67565b60208082528101610d9b81613aa0565b60208082528101610d9b81613aea565b602080825281016134308184613b89565b60408082528101613f0d8185613b89565b905061343060208301846136d2565b602080825281016134308184613d15565b6040518181016001600160401b0381118282101715613f4b57600080fd5b604052919050565b60006001600160401b03821115613f6957600080fd5b5060209081020190565b60006001600160401b03821115613f8957600080fd5b506020601f91909101601f19160190565b60200190565b60009081526020902090565b5190565b90815260200190565b6000610d9b82613fc9565b151590565b6001600160a01b031690565b82818337506000910152565b60005b83811015613ffc578181015183820152602001613fe4565b838111156107af5750506000910152565b601f01601f191690565b61402081613fb9565b81146129cf57600080fd5b61402081610f9556fea365627a7a723158209d6b6450e542837a0c7820c6fdaf54bd280ae0824bfe0c2dbdbea89b22ac7aed6c6578706572696d656e74616cf564736f6c634300050c0040",
  "source": "pragma solidity ^0.5.11;\npragma experimental ABIEncoderV2;\n\nimport \"./ServiceHandler.sol\";\n\ncontract UserContract is ServiceHandler {\n\n    struct RecordInternal {\n        string[] services;\n        string[] subservices;\n        string comment;\n        uint timeStamp;\n    }\n    struct UserInfo {\n        string firstName;\n        string lastName;\n        string adr;\n        string phNo;\n        string email;\n    }\n    struct CarInfo{\n        string brand;\n        string model;\n        string year;\n    }\n\n    //------------------------------------------------------------_Records_---------------------------------------------\n\n    mapping(string => RecordInternal[]) private records;\n    mapping(bytes32 => UserInfo) private userInfoRecords;\n    mapping(bytes32 => string[]) private userCars;\n    mapping(string => CarInfo) private carDetails;\n\n    modifier carExists(string memory noPlate) {\n        require(bytes(carDetails[noPlate].brand).length > 0,\"That car does not exist in the chain\");\n        _;\n    }\n\n    function editUserInfo(bytes32 userId, UserInfo memory info) public {\n        userInfoRecords[userId] = info;\n    }\n\n    function getUserInfo(bytes32 userId) public view returns(UserInfo memory) {\n        return userInfoRecords[userId];\n    }\n\n    function editCarDetails(bytes32 userId, string memory noPlate, CarInfo memory carInfo) public{\n        carDetails[noPlate] = carInfo;\n        int index = getCarIndex(userId,noPlate);\n        if(index < 0){\n            userCars[userId].push(noPlate);\n        }\n        else{\n            userCars[userId][uint(index)] = noPlate;\n        }\n    }\n\n    function getCarIndex(bytes32 userId, string memory noPlate) internal view returns (int){\n        for(uint128 i = 0; i < userCars[userId].length; i++) {\n            if(encode(userCars[userId][i]) == encode(noPlate)) return i;\n        }\n        return -1;\n    }\n\n    function getCarPlates(bytes32 userId) public view returns (string[] memory) {\n        return userCars[userId];\n    }\n\n    function getCars(bytes32 userId) public view returns(CarInfo[] memory){\n        CarInfo[] memory cars = new CarInfo[](userCars[userId].length);\n        for(uint i = 0; i < userCars[userId].length;i++) {\n            cars[i] = carDetails[userCars[userId][i]];\n        }\n        return cars;\n    }\n\n    function insertRecord(bytes32 dealerId, bytes32 id, string memory noPlate,\n     string[] memory services, string[] memory subservices, string memory comment, uint timeStamp)\n        public verified(dealerId) {\n        require(subservices.length <= services.length,\"Number of subservices does not match service length\");\n        if(getCarIndex(id,noPlate) < 0){\n            userCars[id].push(noPlate);\n        }\n        records[noPlate].push(RecordInternal(services,subservices,comment,timeStamp));\n    }\n\n    function getRecords(string memory noPlate) public view returns (RecordInternal[] memory) {\n        return records[noPlate];\n    }\n\n}\n",
  "sourcePath": "/Users/natwit/repos/blockchain-project-2019/contracts/UserContract.sol",
  "compiler": {
    "name": "solc",
    "version": "0.5.12+commit.7709ece9.Emscripten.clang"
  },
  "schemaVersion": "3.0.19",
  "updatedAt": "2019-11-28T14:39:10.478Z",
  "networkType": "ethereum",
  "devdoc": {
    "methods": {}
  },
  "userdoc": {
    "methods": {}
  }
}