{
  "contractName": "UserContract",
  "abi": [
    {
      "anonymous": false,
      "inputs": [
        {
          "components": [
            {
              "internalType": "string",
              "name": "dealerName",
              "type": "string"
            },
            {
              "internalType": "string",
              "name": "firstName",
              "type": "string"
            },
            {
              "internalType": "string",
              "name": "lastName",
              "type": "string"
            },
            {
              "internalType": "string",
              "name": "addr",
              "type": "string"
            },
            {
              "internalType": "string",
              "name": "location",
              "type": "string"
            },
            {
              "internalType": "string",
              "name": "phoneNo",
              "type": "string"
            },
            {
              "internalType": "string",
              "name": "bestSeller",
              "type": "string"
            },
            {
              "internalType": "string",
              "name": "promotion",
              "type": "string"
            },
            {
              "internalType": "string",
              "name": "otherServices",
              "type": "string"
            },
            {
              "internalType": "string[]",
              "name": "availableServices",
              "type": "string[]"
            },
            {
              "internalType": "string[][]",
              "name": "availableSubServices",
              "type": "string[][]"
            }
          ],
          "indexed": false,
          "internalType": "struct DealerContract.DealerInfo",
          "name": "info",
          "type": "tuple"
        },
        {
          "indexed": false,
          "internalType": "bytes32",
          "name": "id",
          "type": "bytes32"
        }
      ],
      "name": "CreateDealerApplication",
      "type": "event"
    },
    {
      "constant": false,
      "inputs": [
        {
          "internalType": "bytes32",
          "name": "dealerId",
          "type": "bytes32"
        },
        {
          "internalType": "bytes32",
          "name": "adr",
          "type": "bytes32"
        }
      ],
      "name": "addDealerEmployee",
      "outputs": [],
      "payable": false,
      "stateMutability": "nonpayable",
      "type": "function"
    },
    {
      "constant": false,
      "inputs": [
        {
          "internalType": "string",
          "name": "serviceName",
          "type": "string"
        }
      ],
      "name": "addService",
      "outputs": [],
      "payable": false,
      "stateMutability": "nonpayable",
      "type": "function"
    },
    {
      "constant": false,
      "inputs": [
        {
          "internalType": "string",
          "name": "serviceName",
          "type": "string"
        },
        {
          "internalType": "string",
          "name": "subServiceName",
          "type": "string"
        }
      ],
      "name": "addSubService",
      "outputs": [],
      "payable": false,
      "stateMutability": "nonpayable",
      "type": "function"
    },
    {
      "constant": false,
      "inputs": [
        {
          "internalType": "bytes32",
          "name": "adr",
          "type": "bytes32"
        }
      ],
      "name": "approveApplication",
      "outputs": [],
      "payable": false,
      "stateMutability": "nonpayable",
      "type": "function"
    },
    {
      "constant": false,
      "inputs": [
        {
          "components": [
            {
              "internalType": "string",
              "name": "dealerName",
              "type": "string"
            },
            {
              "internalType": "string",
              "name": "firstName",
              "type": "string"
            },
            {
              "internalType": "string",
              "name": "lastName",
              "type": "string"
            },
            {
              "internalType": "string",
              "name": "addr",
              "type": "string"
            },
            {
              "internalType": "string",
              "name": "location",
              "type": "string"
            },
            {
              "internalType": "string",
              "name": "phoneNo",
              "type": "string"
            },
            {
              "internalType": "string",
              "name": "bestSeller",
              "type": "string"
            },
            {
              "internalType": "string",
              "name": "promotion",
              "type": "string"
            },
            {
              "internalType": "string",
              "name": "otherServices",
              "type": "string"
            },
            {
              "internalType": "string[]",
              "name": "availableServices",
              "type": "string[]"
            },
            {
              "internalType": "string[][]",
              "name": "availableSubServices",
              "type": "string[][]"
            }
          ],
          "internalType": "struct DealerContract.DealerInfo",
          "name": "info",
          "type": "tuple"
        },
        {
          "internalType": "bytes32",
          "name": "id",
          "type": "bytes32"
        }
      ],
      "name": "createDealerApplication",
      "outputs": [],
      "payable": false,
      "stateMutability": "nonpayable",
      "type": "function"
    },
    {
      "constant": false,
      "inputs": [
        {
          "internalType": "string",
          "name": "serviceName",
          "type": "string"
        }
      ],
      "name": "deleteService",
      "outputs": [],
      "payable": false,
      "stateMutability": "nonpayable",
      "type": "function"
    },
    {
      "constant": false,
      "inputs": [
        {
          "internalType": "string",
          "name": "serviceName",
          "type": "string"
        },
        {
          "internalType": "string",
          "name": "subServiceName",
          "type": "string"
        }
      ],
      "name": "deleteSubService",
      "outputs": [],
      "payable": false,
      "stateMutability": "nonpayable",
      "type": "function"
    },
    {
      "constant": false,
      "inputs": [
        {
          "components": [
            {
              "internalType": "string",
              "name": "dealerName",
              "type": "string"
            },
            {
              "internalType": "string",
              "name": "firstName",
              "type": "string"
            },
            {
              "internalType": "string",
              "name": "lastName",
              "type": "string"
            },
            {
              "internalType": "string",
              "name": "addr",
              "type": "string"
            },
            {
              "internalType": "string",
              "name": "location",
              "type": "string"
            },
            {
              "internalType": "string",
              "name": "phoneNo",
              "type": "string"
            },
            {
              "internalType": "string",
              "name": "bestSeller",
              "type": "string"
            },
            {
              "internalType": "string",
              "name": "promotion",
              "type": "string"
            },
            {
              "internalType": "string",
              "name": "otherServices",
              "type": "string"
            },
            {
              "internalType": "string[]",
              "name": "availableServices",
              "type": "string[]"
            },
            {
              "internalType": "string[][]",
              "name": "availableSubServices",
              "type": "string[][]"
            }
          ],
          "internalType": "struct DealerContract.DealerInfo",
          "name": "info",
          "type": "tuple"
        },
        {
          "internalType": "bytes32",
          "name": "id",
          "type": "bytes32"
        }
      ],
      "name": "editDealerInfo",
      "outputs": [],
      "payable": false,
      "stateMutability": "nonpayable",
      "type": "function"
    },
    {
      "constant": false,
      "inputs": [
        {
          "internalType": "string",
          "name": "oldName",
          "type": "string"
        },
        {
          "internalType": "string",
          "name": "newName",
          "type": "string"
        }
      ],
      "name": "editServiceName",
      "outputs": [],
      "payable": false,
      "stateMutability": "nonpayable",
      "type": "function"
    },
    {
      "constant": false,
      "inputs": [
        {
          "internalType": "string",
          "name": "serviceName",
          "type": "string"
        },
        {
          "internalType": "string",
          "name": "oldName",
          "type": "string"
        },
        {
          "internalType": "string",
          "name": "newName",
          "type": "string"
        }
      ],
      "name": "editSubServiceName",
      "outputs": [],
      "payable": false,
      "stateMutability": "nonpayable",
      "type": "function"
    },
    {
      "constant": true,
      "inputs": [],
      "name": "getAllDealerApplications",
      "outputs": [
        {
          "internalType": "bytes32[]",
          "name": "",
          "type": "bytes32[]"
        }
      ],
      "payable": false,
      "stateMutability": "view",
      "type": "function"
    },
    {
      "constant": true,
      "inputs": [
        {
          "internalType": "bytes32",
          "name": "id",
          "type": "bytes32"
        }
      ],
      "name": "getDealerInfo",
      "outputs": [
        {
          "components": [
            {
              "internalType": "string",
              "name": "dealerName",
              "type": "string"
            },
            {
              "internalType": "string",
              "name": "firstName",
              "type": "string"
            },
            {
              "internalType": "string",
              "name": "lastName",
              "type": "string"
            },
            {
              "internalType": "string",
              "name": "addr",
              "type": "string"
            },
            {
              "internalType": "string",
              "name": "location",
              "type": "string"
            },
            {
              "internalType": "string",
              "name": "phoneNo",
              "type": "string"
            },
            {
              "internalType": "string",
              "name": "bestSeller",
              "type": "string"
            },
            {
              "internalType": "string",
              "name": "promotion",
              "type": "string"
            },
            {
              "internalType": "string",
              "name": "otherServices",
              "type": "string"
            },
            {
              "internalType": "string[]",
              "name": "availableServices",
              "type": "string[]"
            },
            {
              "internalType": "string[][]",
              "name": "availableSubServices",
              "type": "string[][]"
            }
          ],
          "internalType": "struct DealerContract.DealerInfo",
          "name": "",
          "type": "tuple"
        }
      ],
      "payable": false,
      "stateMutability": "view",
      "type": "function"
    },
    {
      "constant": true,
      "inputs": [
        {
          "internalType": "string",
          "name": "id",
          "type": "string"
        }
      ],
      "name": "getHash",
      "outputs": [
        {
          "internalType": "bytes32",
          "name": "",
          "type": "bytes32"
        }
      ],
      "payable": false,
      "stateMutability": "pure",
      "type": "function"
    },
    {
      "constant": true,
      "inputs": [],
      "name": "getServices",
      "outputs": [
        {
          "internalType": "string[]",
          "name": "",
          "type": "string[]"
        }
      ],
      "payable": false,
      "stateMutability": "view",
      "type": "function"
    },
    {
      "constant": true,
      "inputs": [
        {
          "internalType": "string",
          "name": "serviceName",
          "type": "string"
        }
      ],
      "name": "getSubServices",
      "outputs": [
        {
          "internalType": "string[]",
          "name": "",
          "type": "string[]"
        }
      ],
      "payable": false,
      "stateMutability": "view",
      "type": "function"
    },
    {
      "constant": true,
      "inputs": [
        {
          "internalType": "bytes32",
          "name": "adr",
          "type": "bytes32"
        }
      ],
      "name": "isVerified",
      "outputs": [
        {
          "internalType": "bool",
          "name": "",
          "type": "bool"
        }
      ],
      "payable": false,
      "stateMutability": "view",
      "type": "function"
    },
    {
      "constant": true,
      "inputs": [],
      "name": "owner",
      "outputs": [
        {
          "internalType": "address",
          "name": "",
          "type": "address"
        }
      ],
      "payable": false,
      "stateMutability": "view",
      "type": "function"
    },
    {
      "constant": false,
      "inputs": [
        {
          "internalType": "bytes32",
          "name": "dealershipId",
          "type": "bytes32"
        },
        {
          "internalType": "bytes32",
          "name": "otherId",
          "type": "bytes32"
        }
      ],
      "name": "transferDealershipOwner",
      "outputs": [],
      "payable": false,
      "stateMutability": "nonpayable",
      "type": "function"
    },
    {
      "constant": false,
      "inputs": [
        {
          "internalType": "address",
          "name": "newOwner",
          "type": "address"
        }
      ],
      "name": "transferOwner",
      "outputs": [],
      "payable": false,
      "stateMutability": "nonpayable",
      "type": "function"
    },
    {
      "constant": false,
      "inputs": [
        {
          "internalType": "bytes32",
          "name": "userId",
          "type": "bytes32"
        },
        {
          "components": [
            {
              "internalType": "string",
              "name": "firstName",
              "type": "string"
            },
            {
              "internalType": "string",
              "name": "lastName",
              "type": "string"
            },
            {
              "internalType": "string",
              "name": "adr",
              "type": "string"
            },
            {
              "internalType": "string",
              "name": "phNo",
              "type": "string"
            },
            {
              "internalType": "string",
              "name": "email",
              "type": "string"
            }
          ],
          "internalType": "struct UserContract.UserInfo",
          "name": "info",
          "type": "tuple"
        }
      ],
      "name": "editUserInfo",
      "outputs": [],
      "payable": false,
      "stateMutability": "nonpayable",
      "type": "function"
    },
    {
      "constant": true,
      "inputs": [
        {
          "internalType": "bytes32",
          "name": "userId",
          "type": "bytes32"
        }
      ],
      "name": "getUserInfo",
      "outputs": [
        {
          "components": [
            {
              "internalType": "string",
              "name": "firstName",
              "type": "string"
            },
            {
              "internalType": "string",
              "name": "lastName",
              "type": "string"
            },
            {
              "internalType": "string",
              "name": "adr",
              "type": "string"
            },
            {
              "internalType": "string",
              "name": "phNo",
              "type": "string"
            },
            {
              "internalType": "string",
              "name": "email",
              "type": "string"
            }
          ],
          "internalType": "struct UserContract.UserInfo",
          "name": "",
          "type": "tuple"
        }
      ],
      "payable": false,
      "stateMutability": "view",
      "type": "function"
    },
    {
      "constant": false,
      "inputs": [
        {
          "internalType": "bytes32",
          "name": "userId",
          "type": "bytes32"
        },
        {
          "internalType": "string",
          "name": "noPlate",
          "type": "string"
        },
        {
          "components": [
            {
              "internalType": "string",
              "name": "brand",
              "type": "string"
            },
            {
              "internalType": "string",
              "name": "model",
              "type": "string"
            },
            {
              "internalType": "string",
              "name": "year",
              "type": "string"
            }
          ],
          "internalType": "struct UserContract.CarInfo",
          "name": "carInfo",
          "type": "tuple"
        }
      ],
      "name": "editCarDetails",
      "outputs": [],
      "payable": false,
      "stateMutability": "nonpayable",
      "type": "function"
    },
    {
      "constant": true,
      "inputs": [
        {
          "internalType": "bytes32",
          "name": "userId",
          "type": "bytes32"
        }
      ],
      "name": "getCars",
      "outputs": [
        {
          "components": [
            {
              "internalType": "string",
              "name": "brand",
              "type": "string"
            },
            {
              "internalType": "string",
              "name": "model",
              "type": "string"
            },
            {
              "internalType": "string",
              "name": "year",
              "type": "string"
            }
          ],
          "internalType": "struct UserContract.CarInfo[]",
          "name": "",
          "type": "tuple[]"
        }
      ],
      "payable": false,
      "stateMutability": "view",
      "type": "function"
    },
    {
      "constant": false,
      "inputs": [
        {
          "internalType": "bytes32",
          "name": "dealerId",
          "type": "bytes32"
        },
        {
          "internalType": "bytes32",
          "name": "id",
          "type": "bytes32"
        },
        {
          "internalType": "string",
          "name": "noPlate",
          "type": "string"
        },
        {
          "internalType": "string[]",
          "name": "services",
          "type": "string[]"
        },
        {
          "internalType": "string[]",
          "name": "subservices",
          "type": "string[]"
        },
        {
          "internalType": "string",
          "name": "comment",
          "type": "string"
        },
        {
          "internalType": "uint256",
          "name": "timeStamp",
          "type": "uint256"
        }
      ],
      "name": "insertRecord",
      "outputs": [],
      "payable": false,
      "stateMutability": "nonpayable",
      "type": "function"
    },
    {
      "constant": true,
      "inputs": [
        {
          "internalType": "string",
          "name": "noPlate",
          "type": "string"
        }
      ],
      "name": "getRecords",
      "outputs": [
        {
          "components": [
            {
              "internalType": "string[]",
              "name": "services",
              "type": "string[]"
            },
            {
              "internalType": "string[]",
              "name": "subservices",
              "type": "string[]"
            },
            {
              "internalType": "string",
              "name": "comment",
              "type": "string"
            },
            {
              "internalType": "uint256",
              "name": "timeStamp",
              "type": "uint256"
            }
          ],
          "internalType": "struct UserContract.RecordInternal[]",
          "name": "",
          "type": "tuple[]"
        }
      ],
      "payable": false,
      "stateMutability": "view",
      "type": "function"
    }
  ],
  "bytecode": "0x60806040526006805461fe0061ff0019909116179055600080546001600160a01b03191633179055613f57806100366000396000f3fe608060405234801561001057600080fd5b50600436106101735760003560e01c806375417851116100de5780638da5cb5b11610097578063c181b27311610071578063c181b2731461034c578063c4e91d171461036c578063c9b54a581461037f578063e445268c1461039f57610173565b80638da5cb5b146103045780638ee2421414610319578063adff8b0f1461032c57610173565b806375417851146102815780637d17f13c146102895780637e41667f146102a957806382d7afbd146102be57806386e80b71146102d157806388fcd194146102f157610173565b8063369bfce411610130578063369bfce4146101ec578063431a65fc146101ff5780634fb2e45d1461022857806350fb95e31461023b5780635b6beeb91461024e5780636fd7d2b51461026e57610173565b806307681038146101785780630ad5be911461018d5780630eb7bc8f146101a05780631a4c85be146101b35780631b8f47fe146101c65780632d4afc7b146101d9575b600080fd5b61018b6101863660046132cf565b6103b2565b005b61018b61019b366004612ffd565b61059d565b61018b6101ae3660046131eb565b6106ea565b61018b6101c13660046131b7565b610775565b61018b6101d4366004612f87565b610826565b61018b6101e73660046132cf565b6108b7565b61018b6101fa3660046131eb565b610a2c565b61021261020d3660046131b7565b610ac6565b60405161021f9190613cac565b60405180910390f35b61018b610236366004612f61565b610bbd565b61018b6102493660046131eb565b610c09565b61026161025c3660046131b7565b610cec565b60405161021f9190613ced565b61018b61027c366004613248565b610d61565b610212610e03565b61029c610297366004612f87565b610f58565b60405161021f9190613dcb565b6102b16116b2565b60405161021f9190613c9b565b61018b6102cc366004612fc3565b611735565b6102e46102df3660046131b7565b611831565b60405161021f9190613cce565b61018b6102ff3660046131b7565b611aef565b61030c611bfd565b60405161021f9190613c8d565b61018b6103273660046130f5565b611c0c565b61033f61033a366004612f87565b611d13565b60405161021f9190613dfc565b61035f61035a366004612f87565b612025565b60405161021f9190613cdf565b61018b61037a366004613170565b612052565b61039261038d366004612f87565b6120e4565b60405161021f9190613cbd565b61018b6103ad366004612fc3565b612386565b60008181526001602052604090205460ff16156103ea5760405162461bcd60e51b81526004016103e190613d8b565b60405180910390fd5b600081815260046020908152604090912083518051859361040f92849291019061273b565b506020828101518051610428926001850192019061273b565b506040820151805161044491600284019160209091019061273b565b506060820151805161046091600384019160209091019061273b565b506080820151805161047c91600484019160209091019061273b565b5060a0820151805161049891600584019160209091019061273b565b5060c082015180516104b491600684019160209091019061273b565b5060e082015180516104d091600784019160209091019061273b565b5061010082015180516104ed91600884019160209091019061273b565b50610120820151805161050a9160098401916020909101906127b9565b50610140820151805161052791600a840191602090910190612812565b5050600580546001810182556000919091527f036b6384b5eca791c62761152d0c79bb0604c104a5fb6f4eb0703f3154bb3db001829055506040517f42ab459ad3144922283159073eea05ed3ff810ab23fc94bbad43d99b9332dbb2906105919084908490613ddc565b60405180910390a15050565b866105a781612025565b6105c35760405162461bcd60e51b81526004016103e190613dbb565b8451845111156105e55760405162461bcd60e51b81526004016103e190613d4b565b60006105f18888612411565b121561062e576000878152600b602090815260408220805460018101808355918452928290208951919361062b93910191908a019061273b565b50505b60098660405161063e9190613c75565b908152604080519182900360209081018320608084018352888452838201889052918301869052606083018590528154600181018084556000938452928290208451805194959460049093029091019261069d928492909101906127b9565b5060208281015180516106b692600185019201906127b9565b50604082015180516106d291600284019160209091019061273b565b50606082015181600301555050505050505050505050565b6000546001600160a01b031633146107145760405162461bcd60e51b81526004016103e190613d5b565b8161071e81612526565b61073a5760405162461bcd60e51b81526004016103e190613d7b565b816007600061074886612547565b60ff1660ff168152602001908152602001600020908051906020019061076f92919061273b565b50505050565b6000546001600160a01b0316331461079f5760405162461bcd60e51b81526004016103e190613d5b565b806107a981612526565b6107c55760405162461bcd60e51b81526004016103e190613d7b565b60405180602001604052806000815250600760006107e285612547565b60ff1660ff168152602001908152602001600020908051906020019061080992919061273b565b50506006805460ff19811660ff9182166000190190911617905550565b6000546001600160a01b031633146108505760405162461bcd60e51b81526004016103e190613d5b565b600061085b82612631565b9050600081121561087e5760405162461bcd60e51b81526004016103e190613d2b565b6000828152600160208190526040909120805460ff1916909117905560058054829081106108a857fe5b60009182526020822001555050565b600081815260016020526040902054819060ff166108e75760405162461bcd60e51b81526004016103e190613d0b565b600082815260046020908152604090912084518051869361090c92849291019061273b565b506020828101518051610925926001850192019061273b565b506040820151805161094191600284019160209091019061273b565b506060820151805161095d91600384019160209091019061273b565b506080820151805161097991600484019160209091019061273b565b5060a0820151805161099591600584019160209091019061273b565b5060c082015180516109b191600684019160209091019061273b565b5060e082015180516109cd91600784019160209091019061273b565b5061010082015180516109ea91600884019160209091019061273b565b506101208201518051610a079160098401916020909101906127b9565b506101408201518051610a2491600a840191602090910190612812565b505050505050565b6000546001600160a01b03163314610a565760405162461bcd60e51b81526004016103e190613d5b565b8181610a628282612677565b610a7e5760405162461bcd60e51b81526004016103e190613d6b565b600884604051610a8e9190613c75565b9081526020016040518091039020610aa6858561268d565b81548110610ab057fe5b90600052602060002001600061076f919061286b565b6060600882604051610ad89190613c75565b9081526020016040518091039020805480602002602001604051908101604052809291908181526020016000905b82821015610bb15760008481526020908190208301805460408051601f6002600019610100600187161502019094169390930492830185900485028101850190915281815292830182828015610b9d5780601f10610b7257610100808354040283529160200191610b9d565b820191906000526020600020905b815481529060010190602001808311610b8057829003601f168201915b505050505081526020019060010190610b06565b5050505090505b919050565b6000546001600160a01b03163314610be75760405162461bcd60e51b81526004016103e190613d5b565b600080546001600160a01b0319166001600160a01b0392909216919091179055565b8160ff600882604051610c1c9190613c75565b9081526040519081900360200190205410610c495760405162461bcd60e51b81526004016103e190613d3b565b8282610c558282612677565b15610c725760405162461bcd60e51b81526004016103e190613d1b565b6000546001600160a01b03163314610c9c5760405162461bcd60e51b81526004016103e190613d5b565b600885604051610cac9190613c75565b9081526040516020918190038201902080546001810180835560009283529183902087519293610ce393919092019188019061273b565b50505050505050565b6000600282604051602001610d019190613c75565b60408051601f1981840301815290829052610d1b91613c75565b602060405180830381855afa158015610d38573d6000803e3d6000fd5b5050506040513d601f19601f82011682018060405250610d5b9190810190612fa5565b92915050565b8282610d6d8282612677565b610d895760405162461bcd60e51b81526004016103e190613d6b565b6000546001600160a01b03163314610db35760405162461bcd60e51b81526004016103e190613d5b565b82600886604051610dc49190613c75565b9081526020016040518091039020610ddc878761268d565b81548110610de657fe5b906000526020600020019080519060200190610a2492919061273b565b6006546040805160ff909216808352602080820284010190915260609182918015610e4257816020015b6060815260200190600190039081610e2d5790505b5090506000805b60065460ff61010090910481169082161015610f4f5760ff81166000908152600760205260409020546002600019610100600184161502019091160415610f475760ff811660009081526007602090815260409182902080548351601f600260001961010060018616150201909316929092049182018490048402810184019094528084529091830182828015610f215780601f10610ef657610100808354040283529160200191610f21565b820191906000526020600020905b815481529060010190602001808311610f0457829003601f168201915b5050505050838380600101945060ff1681518110610f3b57fe5b60200260200101819052505b600101610e49565b50909150505b90565b610f606128b2565b6000828152600460209081526040918290208251815460026001821615610100026000190190911604601f8101849004909302810161018090810190945261016081018381529093919284928491908401828280156110005780601f10610fd557610100808354040283529160200191611000565b820191906000526020600020905b815481529060010190602001808311610fe357829003601f168201915b50505050508152602001600182018054600181600116156101000203166002900480601f0160208091040260200160405190810160405280929190818152602001828054600181600116156101000203166002900480156110a25780601f10611077576101008083540402835291602001916110a2565b820191906000526020600020905b81548152906001019060200180831161108557829003601f168201915b5050509183525050600282810180546040805160206001841615610100026000190190931694909404601f810183900483028501830190915280845293810193908301828280156111345780601f1061110957610100808354040283529160200191611134565b820191906000526020600020905b81548152906001019060200180831161111757829003601f168201915b505050918352505060038201805460408051602060026001851615610100026000190190941693909304601f81018490048402820184019092528181529382019392918301828280156111c85780601f1061119d576101008083540402835291602001916111c8565b820191906000526020600020905b8154815290600101906020018083116111ab57829003601f168201915b505050918352505060048201805460408051602060026001851615610100026000190190941693909304601f810184900484028201840190925281815293820193929183018282801561125c5780601f106112315761010080835404028352916020019161125c565b820191906000526020600020905b81548152906001019060200180831161123f57829003601f168201915b505050918352505060058201805460408051602060026001851615610100026000190190941693909304601f81018490048402820184019092528181529382019392918301828280156112f05780601f106112c5576101008083540402835291602001916112f0565b820191906000526020600020905b8154815290600101906020018083116112d357829003601f168201915b505050918352505060068201805460408051602060026001851615610100026000190190941693909304601f81018490048402820184019092528181529382019392918301828280156113845780601f1061135957610100808354040283529160200191611384565b820191906000526020600020905b81548152906001019060200180831161136757829003601f168201915b505050918352505060078201805460408051602060026001851615610100026000190190941693909304601f81018490048402820184019092528181529382019392918301828280156114185780601f106113ed57610100808354040283529160200191611418565b820191906000526020600020905b8154815290600101906020018083116113fb57829003601f168201915b505050918352505060088201805460408051602060026001851615610100026000190190941693909304601f81018490048402820184019092528181529382019392918301828280156114ac5780601f10611481576101008083540402835291602001916114ac565b820191906000526020600020905b81548152906001019060200180831161148f57829003601f168201915b5050505050815260200160098201805480602002602001604051908101604052809291908181526020016000905b828210156115855760008481526020908190208301805460408051601f60026000196101006001871615020190941693909304928301859004850281018501909152818152928301828280156115715780601f1061154657610100808354040283529160200191611571565b820191906000526020600020905b81548152906001019060200180831161155457829003601f168201915b5050505050815260200190600101906114da565b505050508152602001600a8201805480602002602001604051908101604052809291908181526020016000905b828210156116a457838290600052602060002001805480602002602001604051908101604052809291908181526020016000905b828210156116915760008481526020908190208301805460408051601f600260001961010060018716150201909416939093049283018590048502810185019091528181529283018282801561167d5780601f106116525761010080835404028352916020019161167d565b820191906000526020600020905b81548152906001019060200180831161166057829003601f168201915b5050505050815260200190600101906115e6565b50505050815260200190600101906115b2565b505050915250909392505050565b6000546060906001600160a01b031633146116df5760405162461bcd60e51b81526004016103e190613d5b565b600580548060200260200160405190810160405280929190818152602001828054801561172b57602002820191906000526020600020905b815481526020019060010190808311611717575b5050505050905090565b600082815260016020526040902054829060ff166117655760405162461bcd60e51b81526004016103e190613d0b565b6000828152600160208181526040808420805460ff19908116909417905586845280842080549093169092558483526003815281832083905585835260029052808220848352912081546117b9929061290c565b5060008381526002602052604081206117d19161294c565b60005b60008381526002602052604090205481101561076f57826003600060026000878152602001908152602001600020848154811061180d57fe5b600091825260208083209091015483528201929092526040019020556001016117d4565b60606009826040516118439190613c75565b9081526020016040518091039020805480602002602001604051908101604052809291908181526020016000905b82821015610bb1578382906000526020600020906004020160405180608001604052908160008201805480602002602001604051908101604052809291908181526020016000905b828210156119645760008481526020908190208301805460408051601f60026000196101006001871615020190941693909304928301859004850281018501909152818152928301828280156119505780601f1061192557610100808354040283529160200191611950565b820191906000526020600020905b81548152906001019060200180831161193357829003601f168201915b5050505050815260200190600101906118b9565b50505050815260200160018201805480602002602001604051908101604052809291908181526020016000905b82821015611a3c5760008481526020908190208301805460408051601f6002600019610100600187161502019094169390930492830185900485028101850190915281815292830182828015611a285780601f106119fd57610100808354040283529160200191611a28565b820191906000526020600020905b815481529060010190602001808311611a0b57829003601f168201915b505050505081526020019060010190611991565b50505090825250600282810180546040805160206001841615610100026000190190931694909404601f81018390048302850183019091528084529381019390830182828015611acd5780601f10611aa257610100808354040283529160200191611acd565b820191906000526020600020905b815481529060010190602001808311611ab057829003601f168201915b5050505050815260200160038201548152505081526020019060010190611871565b6000546001600160a01b03163314611b195760405162461bcd60e51b81526004016103e190613d5b565b80611b2381612526565b15611b405760405162461bcd60e51b81526004016103e190613d9b565b60065460ff6101008204811691161115611b6c5760405162461bcd60e51b81526004016103e190613dab565b60005b60065460ff61010090910481169082161015611bf75760ff811660009081526007602052604090205460026000196101006001841615020190911604611bef5760ff811660009081526007602090815260409091208451611bd29286019061273b565b50506006805460ff8082166001011660ff19909116179055611bf9565b600101611b6f565b505b5050565b6000546001600160a01b031681565b80600c83604051611c1d9190613c75565b90815260200160405180910390206000820151816000019080519060200190611c4792919061273b565b506020828101518051611c60926001850192019061273b565b5060408201518051611c7c91600284019160209091019061273b565b509050506000611c8c8484612411565b90506000811215611cd2576000848152600b6020908152604082208054600181018083559184529282902086519193611ccb939101919087019061273b565b505061076f565b6000848152600b60205260409020805484919083908110611cef57fe5b906000526020600020019080519060200190611d0c92919061273b565b5050505050565b611d1b61296a565b6000828152600a60209081526040918290208251815460026001821615610100026000190190911604601f8101849004909302810160c090810190945260a08101838152909391928492849190840182828015611db95780601f10611d8e57610100808354040283529160200191611db9565b820191906000526020600020905b815481529060010190602001808311611d9c57829003601f168201915b50505050508152602001600182018054600181600116156101000203166002900480601f016020809104026020016040519081016040528092919081815260200182805460018160011615610100020316600290048015611e5b5780601f10611e3057610100808354040283529160200191611e5b565b820191906000526020600020905b815481529060010190602001808311611e3e57829003601f168201915b5050509183525050600282810180546040805160206001841615610100026000190190931694909404601f81018390048302850183019091528084529381019390830182828015611eed5780601f10611ec257610100808354040283529160200191611eed565b820191906000526020600020905b815481529060010190602001808311611ed057829003601f168201915b505050918352505060038201805460408051602060026001851615610100026000190190941693909304601f8101849004840282018401909252818152938201939291830182828015611f815780601f10611f5657610100808354040283529160200191611f81565b820191906000526020600020905b815481529060010190602001808311611f6457829003601f168201915b505050918352505060048201805460408051602060026001851615610100026000190190941693909304601f81018490048402820184019092528181529382019392918301828280156120155780601f10611fea57610100808354040283529160200191612015565b820191906000526020600020905b815481529060010190602001808311611ff857829003601f168201915b5050505050815250509050919050565b60008181526001602052604081205460ff1680610d5b575050600090815260036020526040902054151590565b6000828152600a6020908152604090912082518051849361207792849291019061273b565b506020828101518051612090926001850192019061273b565b50604082015180516120ac91600284019160209091019061273b565b50606082015180516120c891600384019160209091019061273b565b5060808201518051611d0c91600484019160209091019061273b565b606080600b60008481526020019081526020016000208054905060405190808252806020026020018201604052801561213757816020015b612124612999565b81526020019060019003908161211c5790505b50905060005b6000848152600b602052604090205481101561237f576000848152600b602052604090208054600c91908390811061217157fe5b906000526020600020016040516121889190613c81565b9081526040805160209281900383018120805460026001821615610100026000190190911604601f810185900490940282016080908101909352606082018481529193909284929184918401828280156122235780601f106121f857610100808354040283529160200191612223565b820191906000526020600020905b81548152906001019060200180831161220657829003601f168201915b50505050508152602001600182018054600181600116156101000203166002900480601f0160208091040260200160405190810160405280929190818152602001828054600181600116156101000203166002900480156122c55780601f1061229a576101008083540402835291602001916122c5565b820191906000526020600020905b8154815290600101906020018083116122a857829003601f168201915b5050509183525050600282810180546040805160206001841615610100026000190190931694909404601f810183900483028501830190915280845293810193908301828280156123575780601f1061232c57610100808354040283529160200191612357565b820191906000526020600020905b81548152906001019060200180831161233a57829003601f168201915b50505050508152505082828151811061236c57fe5b602090810291909101015260010161213d565b5092915050565b600082815260016020526040902054829060ff166123b65760405162461bcd60e51b81526004016103e190613d0b565b600082815260036020526040902054156123e25760405162461bcd60e51b81526004016103e190613cfb565b506000828152600260209081526040808320805460018101825590845282842001849055928252600390522055565b6000805b6000848152600b60205260409020546001600160801b038216101561251b5761243d8361270b565b6000858152600b6020526040902080546124fd91906001600160801b03851690811061246557fe5b600091825260209182902001805460408051601f60026000196101006001871615020190941693909304928301859004850281018501909152818152928301828280156124f35780601f106124c8576101008083540402835291602001916124f3565b820191906000526020600020905b8154815290600101906020018083116124d657829003601f168201915b505050505061270b565b1415612513576001600160801b03169050610d5b565b600101612415565b506000199392505050565b600654600090610100900460ff1661253d83612547565b60ff161092915050565b6000806125538361270b565b905060005b60065460ff610100909104811690821610156126275760ff81166000908152600760205260409020546002600019610100600184161502019091160415801590612611575060ff81166000908152600760209081526040918290208054835160026001831615610100026000190190921691909104601f8101849004840282018401909452838152859361260f939192918301828280156124f35780601f106124c8576101008083540402835291602001916124f3565b145b1561261f579150610bb89050565b600101612558565b5060ff9392505050565b6000805b60055481101561266d57826005828154811061264d57fe5b90600052602060002001541415612665579050610bb8565b600101612635565b5060001992915050565b600060ff612685848461268d565b109392505050565b6000805b6008846040516126a19190613c75565b9081526040519081900360200190205460ff82161015612627576126c48361270b565b6126f36008866040516126d79190613c75565b90815260200160405180910390208360ff168154811061246557fe5b14156127035760ff169050610d5b565b600101612691565b60008160405160200161271e9190613c75565b604051602081830303815290604052805190602001209050919050565b828054600181600116156101000203166002900490600052602060002090601f016020900481019282601f1061277c57805160ff19168380011785556127a9565b828001600101855582156127a9579182015b828111156127a957825182559160200191906001019061278e565b506127b59291506129ba565b5090565b828054828255906000526020600020908101928215612806579160200282015b8281111561280657825180516127f691849160209091019061273b565b50916020019190600101906127d9565b506127b59291506129d4565b82805482825590600052602060002090810192821561285f579160200282015b8281111561285f578251805161284f9184916020909101906127b9565b5091602001919060010190612832565b506127b59291506129f7565b50805460018160011615610100020316600290046000825580601f1061289157506128af565b601f0160209004906000526020600020908101906128af91906129ba565b50565b60405180610160016040528060608152602001606081526020016060815260200160608152602001606081526020016060815260200160608152602001606081526020016060815260200160608152602001606081525090565b8280548282559060005260206000209081019282156127a95760005260206000209182015b828111156127a9578254825591600101919060010190612931565b50805460008255906000526020600020908101906128af91906129ba565b6040518060a0016040528060608152602001606081526020016060815260200160608152602001606081525090565b60405180606001604052806060815260200160608152602001606081525090565b610f5591905b808211156127b557600081556001016129c0565b610f5591905b808211156127b55760006129ee828261286b565b506001016129da565b610f5591905b808211156127b5576000612a118282612a1a565b506001016129fd565b50805460008255906000526020600020908101906128af91906129d4565b8035610d5b81613ef7565b600082601f830112612a5457600080fd5b8135612a67612a6282613e33565b613e0d565b81815260209384019390925082018360005b83811015612aa55781358601612a8f8882612aaf565b8452506020928301929190910190600101612a79565b5050505092915050565b600082601f830112612ac057600080fd5b8135612ace612a6282613e33565b81815260209384019390925082018360005b83811015612aa55781358601612af68882612b7f565b8452506020928301929190910190600101612ae0565b600082601f830112612b1d57600080fd5b8135612b2b612a6282613e33565b81815260209384019390925082018360005b83811015612aa55781358601612b538882612b7f565b8452506020928301929190910190600101612b3d565b8035610d5b81613f0b565b8051610d5b81613f0b565b600082601f830112612b9057600080fd5b8135612b9e612a6282613e53565b91508082526020830160208301858383011115612bba57600080fd5b612bc5838284613eb5565b50505092915050565b600060608284031215612be057600080fd5b612bea6060613e0d565b905081356001600160401b03811115612c0257600080fd5b612c0e84828501612b7f565b82525060208201356001600160401b03811115612c2a57600080fd5b612c3684828501612b7f565b60208301525060408201356001600160401b03811115612c5557600080fd5b612c6184828501612b7f565b60408301525092915050565b60006101608284031215612c8057600080fd5b612c8b610160613e0d565b905081356001600160401b03811115612ca357600080fd5b612caf84828501612b7f565b82525060208201356001600160401b03811115612ccb57600080fd5b612cd784828501612b7f565b60208301525060408201356001600160401b03811115612cf657600080fd5b612d0284828501612b7f565b60408301525060608201356001600160401b03811115612d2157600080fd5b612d2d84828501612b7f565b60608301525060808201356001600160401b03811115612d4c57600080fd5b612d5884828501612b7f565b60808301525060a08201356001600160401b03811115612d7757600080fd5b612d8384828501612b7f565b60a08301525060c08201356001600160401b03811115612da257600080fd5b612dae84828501612b7f565b60c08301525060e08201356001600160401b03811115612dcd57600080fd5b612dd984828501612b7f565b60e0830152506101008201356001600160401b03811115612df957600080fd5b612e0584828501612b7f565b610100830152506101208201356001600160401b03811115612e2657600080fd5b612e3284828501612aaf565b610120830152506101408201356001600160401b03811115612e5357600080fd5b612e5f84828501612a43565b6101408301525092915050565b600060a08284031215612e7e57600080fd5b612e8860a0613e0d565b905081356001600160401b03811115612ea057600080fd5b612eac84828501612b7f565b82525060208201356001600160401b03811115612ec857600080fd5b612ed484828501612b7f565b60208301525060408201356001600160401b03811115612ef357600080fd5b612eff84828501612b7f565b60408301525060608201356001600160401b03811115612f1e57600080fd5b612f2a84828501612b7f565b60608301525060808201356001600160401b03811115612f4957600080fd5b612f5584828501612b7f565b60808301525092915050565b600060208284031215612f7357600080fd5b6000612f7f8484612a38565b949350505050565b600060208284031215612f9957600080fd5b6000612f7f8484612b69565b600060208284031215612fb757600080fd5b6000612f7f8484612b74565b60008060408385031215612fd657600080fd5b6000612fe28585612b69565b9250506020612ff385828601612b69565b9150509250929050565b600080600080600080600060e0888a03121561301857600080fd5b60006130248a8a612b69565b97505060206130358a828b01612b69565b96505060408801356001600160401b0381111561305157600080fd5b61305d8a828b01612b7f565b95505060608801356001600160401b0381111561307957600080fd5b6130858a828b01612b0c565b94505060808801356001600160401b038111156130a157600080fd5b6130ad8a828b01612b0c565b93505060a08801356001600160401b038111156130c957600080fd5b6130d58a828b01612b7f565b92505060c06130e68a828b01612b69565b91505092959891949750929550565b60008060006060848603121561310a57600080fd5b60006131168686612b69565b93505060208401356001600160401b0381111561313257600080fd5b61313e86828701612b7f565b92505060408401356001600160401b0381111561315a57600080fd5b61316686828701612bce565b9150509250925092565b6000806040838503121561318357600080fd5b600061318f8585612b69565b92505060208301356001600160401b038111156131ab57600080fd5b612ff385828601612e6c565b6000602082840312156131c957600080fd5b81356001600160401b038111156131df57600080fd5b612f7f84828501612b7f565b600080604083850312156131fe57600080fd5b82356001600160401b0381111561321457600080fd5b61322085828601612b7f565b92505060208301356001600160401b0381111561323c57600080fd5b612ff385828601612b7f565b60008060006060848603121561325d57600080fd5b83356001600160401b0381111561327357600080fd5b61327f86828701612b7f565b93505060208401356001600160401b0381111561329b57600080fd5b6132a786828701612b7f565b92505060408401356001600160401b038111156132c357600080fd5b61316686828701612b7f565b600080604083850312156132e257600080fd5b82356001600160401b038111156132f857600080fd5b612fe285828601612c6d565b60006133108383613486565b9392505050565b600061332383836135b2565b505060200190565b600061331083836135ea565b60006133108383613a14565b60006133108383613b8c565b61335881613e99565b82525050565b600061336982613e8c565b6133738185613e90565b93508360208202850161338585613e7a565b8060005b858110156133bf57848403895281516133a28582613304565b94506133ad83613e7a565b60209a909a0199925050600101613389565b5091979650505050505050565b60006133d782613e8c565b6133e18185613e90565b93506133ec83613e7a565b8060005b8381101561341a5781516134048882613317565b975061340f83613e7a565b9250506001016133f0565b509495945050505050565b600061343082613e8c565b61343a8185613e90565b93508360208202850161344c85613e7a565b8060005b858110156133bf5784840389528151613469858261332b565b945061347483613e7a565b60209a909a0199925050600101613450565b600061349182613e8c565b61349b8185613e90565b9350836020820285016134ad85613e7a565b8060005b858110156133bf57848403895281516134ca858261332b565b94506134d583613e7a565b60209a909a01999250506001016134b1565b60006134f282613e8c565b6134fc8185613e90565b93508360208202850161350e85613e7a565b8060005b858110156133bf578484038952815161352b8582613337565b945061353683613e7a565b60209a909a0199925050600101613512565b600061355382613e8c565b61355d8185613e90565b93508360208202850161356f85613e7a565b8060005b858110156133bf578484038952815161358c8582613343565b945061359783613e7a565b60209a909a0199925050600101613573565b61335881613ea4565b61335881610f55565b60006135c682613e8c565b6135d08185610bb8565b93506135e0818560208601613ec1565b9290920192915050565b60006135f582613e8c565b6135ff8185613e90565b935061360f818560208601613ec1565b61361881613eed565b9093019392505050565b60008154600181166000811461363f5760018114613662576136a1565b607f60028304166136508187610bb8565b60ff19841681529550850192506136a1565b600282046136708187610bb8565b955061367b85613e80565b60005b8281101561369a5781548882015260019091019060200161367e565b5050850192505b505092915050565b60006136b6602183613e90565b7f5468617420656d706c6f79656520616c726561647920776f726b7320746865728152606560f81b602082015260400192915050565b60006136f9602983613e90565b7f596f75206d7573742062652061206465616c657273686970206f776e657220748152686f20646f207468697360b81b602082015260400192915050565b6000613744601e83613e90565b7f54686174207375627365727669636520616c7265616479206578697374730000815260200192915050565b600061377d602183613e90565b7f4e6f206170706c69636174696f6e2065786973747320666f72207468617420698152601960fa1b602082015260400192915050565b60006137c0602183613e90565b7f4d6178696d756d207375627365727669636520616d6f756e74207265616368658152601960fa1b602082015260400192915050565b6000613803603383613e90565b7f4e756d626572206f6620737562736572766963657320646f6573206e6f74206d8152720c2e8c6d040e6cae4ecd2c6ca40d8cadccee8d606b1b602082015260400192915050565b6000613858601583613e90565b742cb7ba9030b932903737ba103a34329037bbb732b960591b815260200192915050565b6000613889602c83613e90565b7f54686174207375627365727669636520646f65736e7420657869737420696e2081526b1d1a1a5cc818dbdb9d195e1d60a21b602082015260400192915050565b60006138d7601b83613e90565b7f54686174207365727669636520646f6573206e6f742065786973740000000000815260200192915050565b6000613910602283613e90565b7f54686174206164647265737320697320616c7265616479207265676973746572815261195960f21b602082015260400192915050565b6000613954601b83613e90565b7f54686174207365727669636520616c7265616479206578697374730000000000815260200192915050565b600061398d602883613e90565b7f54686572652061726520746865206d6178696d756d206e756d626572206f6620815267736572766963657360c01b602082015260400192915050565b60006139d7602883613e90565b7f596f75206d7573742062652061207665726966696564206465616c657220746f81526720646f207468697360c01b602082015260400192915050565b8051606080845260009190840190613a2c82826135ea565b91505060208301518482036020860152613a4682826135ea565b91505060408301518482036040860152613a6082826135ea565b95945050505050565b805161016080845260009190840190613a8282826135ea565b91505060208301518482036020860152613a9c82826135ea565b91505060408301518482036040860152613ab682826135ea565b91505060608301518482036060860152613ad082826135ea565b91505060808301518482036080860152613aea82826135ea565b91505060a083015184820360a0860152613b0482826135ea565b91505060c083015184820360c0860152613b1e82826135ea565b91505060e083015184820360e0860152613b3882826135ea565b915050610100830151848203610100860152613b5482826135ea565b915050610120830151848203610120860152613b708282613486565b915050610140830151848203610140860152613a60828261335e565b8051608080845260009190840190613ba48282613486565b91505060208301518482036020860152613bbe8282613486565b91505060408301518482036040860152613bd882826135ea565b9150506060830151613bed60608601826135b2565b509392505050565b805160a080845260009190840190613c0d82826135ea565b91505060208301518482036020860152613c2782826135ea565b91505060408301518482036040860152613c4182826135ea565b91505060608301518482036060860152613c5b82826135ea565b91505060808301518482036080860152613a6082826135ea565b600061331082846135bb565b60006133108284613622565b60208101610d5b828461334f565b6020808252810161331081846133cc565b602080825281016133108184613425565b6020808252810161331081846134e7565b602080825281016133108184613548565b60208101610d5b82846135a9565b60208101610d5b82846135b2565b60208082528101610d5b816136a9565b60208082528101610d5b816136ec565b60208082528101610d5b81613737565b60208082528101610d5b81613770565b60208082528101610d5b816137b3565b60208082528101610d5b816137f6565b60208082528101610d5b8161384b565b60208082528101610d5b8161387c565b60208082528101610d5b816138ca565b60208082528101610d5b81613903565b60208082528101610d5b81613947565b60208082528101610d5b81613980565b60208082528101610d5b816139ca565b602080825281016133108184613a69565b60408082528101613ded8185613a69565b905061331060208301846135b2565b602080825281016133108184613bf5565b6040518181016001600160401b0381118282101715613e2b57600080fd5b604052919050565b60006001600160401b03821115613e4957600080fd5b5060209081020190565b60006001600160401b03821115613e6957600080fd5b506020601f91909101601f19160190565b60200190565b60009081526020902090565b5190565b90815260200190565b6000610d5b82613ea9565b151590565b6001600160a01b031690565b82818337506000910152565b60005b83811015613edc578181015183820152602001613ec4565b8381111561076f5750506000910152565b601f01601f191690565b613f0081613e99565b81146128af57600080fd5b613f0081610f5556fea365627a7a7231582095870004839720e854d1cfcdb0a0b2a6eee582712cb2edcac51a0be8953e8d3d6c6578706572696d656e74616cf564736f6c634300050c0040",
  "source": "pragma solidity ^0.5.11;\npragma experimental ABIEncoderV2;\n\nimport \"./ServiceHandler.sol\";\n\ncontract UserContract is ServiceHandler {\n\n    struct RecordInternal {\n        string[] services;\n        string[] subservices;\n        string comment;\n        uint timeStamp;\n    }\n    struct UserInfo {\n        string firstName;\n        string lastName;\n        string adr;\n        string phNo;\n        string email;\n    }\n    struct CarInfo{\n        string brand;\n        string model;\n        string year;\n    }\n\n    //------------------------------------------------------------_Records_---------------------------------------------\n\n    mapping(string => RecordInternal[]) private records;\n    mapping(bytes32 => UserInfo) private userInfoRecords;\n    mapping(bytes32 => string[]) private userCars;\n    mapping(string => CarInfo) private carDetails;\n\n    modifier carExists(string memory noPlate) {\n        require(bytes(carDetails[noPlate].brand).length > 0,\"That car does not exist in the chain\");\n        _;\n    }\n\n    function editUserInfo(bytes32 userId, UserInfo memory info) public {\n        userInfoRecords[userId] = info;\n    }\n\n    function getUserInfo(bytes32 userId) public view returns(UserInfo memory) {\n        return userInfoRecords[userId];\n    }\n\n    function editCarDetails(bytes32 userId, string memory noPlate, CarInfo memory carInfo) public{\n        carDetails[noPlate] = carInfo;\n        int index = getCarIndex(userId,noPlate);\n        if(index < 0){\n            userCars[userId].push(noPlate);\n        }\n        else{\n            userCars[userId][uint(index)] = noPlate;\n        }\n    }\n\n    function getCarIndex(bytes32 userId, string memory noPlate) internal view returns (int){\n        for(uint128 i = 0; i < userCars[userId].length; i++) {\n            if(encode(userCars[userId][i]) == encode(noPlate)) return i;\n        }\n        return -1;\n    }\n\n    function getCars(bytes32 userId) public view returns(CarInfo[] memory){\n        CarInfo[] memory cars = new CarInfo[](userCars[userId].length);\n        for(uint i = 0; i < userCars[userId].length;i++) {\n            cars[i] = carDetails[userCars[userId][i]];\n        }\n        return cars;\n    }\n\n    function insertRecord(bytes32 dealerId, bytes32 id, string memory noPlate,\n     string[] memory services, string[] memory subservices, string memory comment, uint timeStamp)\n        public verified(dealerId) {\n        require(subservices.length <= services.length,\"Number of subservices does not match service length\");\n        if(getCarIndex(id,noPlate) < 0){\n            userCars[id].push(noPlate);\n        }\n        records[noPlate].push(RecordInternal(services,subservices,comment,timeStamp));\n    }\n\n    //TODO Change records to be car specific and not user specific\n\n    function getRecords(string memory noPlate) public view returns (RecordInternal[] memory) {\n        return records[noPlate];\n    }\n\n}\n",
  "sourcePath": "/home/brandon/Documents/_Important/Uni/Blockchain/Final project/contracts/UserContract.sol",
  "compiler": {
    "name": "solc",
    "version": "0.5.12+commit.7709ece9.Emscripten.clang"
  },
  "schemaVersion": "3.0.19",
  "updatedAt": "2019-11-26T15:26:26.226Z",
  "devdoc": {
    "methods": {}
  },
  "userdoc": {
    "methods": {}
  }
}