{
  "contractName": "UserContract",
  "abi": [
    {
      "anonymous": false,
      "inputs": [
        {
          "components": [
            {
              "internalType": "string",
              "name": "dealerName",
              "type": "string"
            },
            {
              "internalType": "string",
              "name": "firstName",
              "type": "string"
            },
            {
              "internalType": "string",
              "name": "lastName",
              "type": "string"
            },
            {
              "internalType": "string",
              "name": "addr",
              "type": "string"
            },
            {
              "internalType": "string[2]",
              "name": "location",
              "type": "string[2]"
            },
            {
              "internalType": "string",
              "name": "phoneNo",
              "type": "string"
            },
            {
              "internalType": "string",
              "name": "bestSeller",
              "type": "string"
            },
            {
              "internalType": "string",
              "name": "promotion",
              "type": "string"
            },
            {
              "internalType": "string",
              "name": "otherServices",
              "type": "string"
            },
            {
              "internalType": "string[]",
              "name": "availableServices",
              "type": "string[]"
            },
            {
              "internalType": "string[][]",
              "name": "availableSubServices",
              "type": "string[][]"
            }
          ],
          "indexed": false,
          "internalType": "struct DealerContract.DealerInfo",
          "name": "info",
          "type": "tuple"
        },
        {
          "indexed": false,
          "internalType": "bytes32",
          "name": "id",
          "type": "bytes32"
        }
      ],
      "name": "CreateDealerApplication",
      "type": "event"
    },
    {
      "constant": false,
      "inputs": [
        {
          "internalType": "bytes32",
          "name": "dealerId",
          "type": "bytes32"
        },
        {
          "internalType": "bytes32",
          "name": "adr",
          "type": "bytes32"
        }
      ],
      "name": "addDealerEmployee",
      "outputs": [],
      "payable": false,
      "stateMutability": "nonpayable",
      "type": "function"
    },
    {
      "constant": false,
      "inputs": [
        {
          "internalType": "string",
          "name": "serviceName",
          "type": "string"
        }
      ],
      "name": "addService",
      "outputs": [],
      "payable": false,
      "stateMutability": "nonpayable",
      "type": "function"
    },
    {
      "constant": false,
      "inputs": [
        {
          "internalType": "string",
          "name": "serviceName",
          "type": "string"
        },
        {
          "internalType": "string",
          "name": "subServiceName",
          "type": "string"
        }
      ],
      "name": "addSubService",
      "outputs": [],
      "payable": false,
      "stateMutability": "nonpayable",
      "type": "function"
    },
    {
      "constant": false,
      "inputs": [
        {
          "internalType": "bytes32",
          "name": "adr",
          "type": "bytes32"
        }
      ],
      "name": "approveApplication",
      "outputs": [],
      "payable": false,
      "stateMutability": "nonpayable",
      "type": "function"
    },
    {
      "constant": false,
      "inputs": [
        {
          "components": [
            {
              "internalType": "string",
              "name": "dealerName",
              "type": "string"
            },
            {
              "internalType": "string",
              "name": "firstName",
              "type": "string"
            },
            {
              "internalType": "string",
              "name": "lastName",
              "type": "string"
            },
            {
              "internalType": "string",
              "name": "addr",
              "type": "string"
            },
            {
              "internalType": "string[2]",
              "name": "location",
              "type": "string[2]"
            },
            {
              "internalType": "string",
              "name": "phoneNo",
              "type": "string"
            },
            {
              "internalType": "string",
              "name": "bestSeller",
              "type": "string"
            },
            {
              "internalType": "string",
              "name": "promotion",
              "type": "string"
            },
            {
              "internalType": "string",
              "name": "otherServices",
              "type": "string"
            },
            {
              "internalType": "string[]",
              "name": "availableServices",
              "type": "string[]"
            },
            {
              "internalType": "string[][]",
              "name": "availableSubServices",
              "type": "string[][]"
            }
          ],
          "internalType": "struct DealerContract.DealerInfo",
          "name": "info",
          "type": "tuple"
        },
        {
          "internalType": "bytes32",
          "name": "id",
          "type": "bytes32"
        }
      ],
      "name": "createDealerApplication",
      "outputs": [],
      "payable": false,
      "stateMutability": "nonpayable",
      "type": "function"
    },
    {
      "constant": false,
      "inputs": [
        {
          "internalType": "string",
          "name": "serviceName",
          "type": "string"
        }
      ],
      "name": "deleteService",
      "outputs": [],
      "payable": false,
      "stateMutability": "nonpayable",
      "type": "function"
    },
    {
      "constant": false,
      "inputs": [
        {
          "internalType": "string",
          "name": "serviceName",
          "type": "string"
        },
        {
          "internalType": "string",
          "name": "subServiceName",
          "type": "string"
        }
      ],
      "name": "deleteSubService",
      "outputs": [],
      "payable": false,
      "stateMutability": "nonpayable",
      "type": "function"
    },
    {
      "constant": false,
      "inputs": [
        {
          "components": [
            {
              "internalType": "string",
              "name": "dealerName",
              "type": "string"
            },
            {
              "internalType": "string",
              "name": "firstName",
              "type": "string"
            },
            {
              "internalType": "string",
              "name": "lastName",
              "type": "string"
            },
            {
              "internalType": "string",
              "name": "addr",
              "type": "string"
            },
            {
              "internalType": "string[2]",
              "name": "location",
              "type": "string[2]"
            },
            {
              "internalType": "string",
              "name": "phoneNo",
              "type": "string"
            },
            {
              "internalType": "string",
              "name": "bestSeller",
              "type": "string"
            },
            {
              "internalType": "string",
              "name": "promotion",
              "type": "string"
            },
            {
              "internalType": "string",
              "name": "otherServices",
              "type": "string"
            },
            {
              "internalType": "string[]",
              "name": "availableServices",
              "type": "string[]"
            },
            {
              "internalType": "string[][]",
              "name": "availableSubServices",
              "type": "string[][]"
            }
          ],
          "internalType": "struct DealerContract.DealerInfo",
          "name": "info",
          "type": "tuple"
        },
        {
          "internalType": "bytes32",
          "name": "id",
          "type": "bytes32"
        }
      ],
      "name": "editDealerInfo",
      "outputs": [],
      "payable": false,
      "stateMutability": "nonpayable",
      "type": "function"
    },
    {
      "constant": false,
      "inputs": [
        {
          "internalType": "string",
          "name": "oldName",
          "type": "string"
        },
        {
          "internalType": "string",
          "name": "newName",
          "type": "string"
        }
      ],
      "name": "editServiceName",
      "outputs": [],
      "payable": false,
      "stateMutability": "nonpayable",
      "type": "function"
    },
    {
      "constant": false,
      "inputs": [
        {
          "internalType": "string",
          "name": "serviceName",
          "type": "string"
        },
        {
          "internalType": "string",
          "name": "oldName",
          "type": "string"
        },
        {
          "internalType": "string",
          "name": "newName",
          "type": "string"
        }
      ],
      "name": "editSubServiceName",
      "outputs": [],
      "payable": false,
      "stateMutability": "nonpayable",
      "type": "function"
    },
    {
      "constant": true,
      "inputs": [],
      "name": "getAllDealerApplications",
      "outputs": [
        {
          "internalType": "bytes32[]",
          "name": "",
          "type": "bytes32[]"
        }
      ],
      "payable": false,
      "stateMutability": "view",
      "type": "function"
    },
    {
      "constant": true,
      "inputs": [
        {
          "internalType": "bytes32",
          "name": "id",
          "type": "bytes32"
        }
      ],
      "name": "getDealerInfo",
      "outputs": [
        {
          "components": [
            {
              "internalType": "string",
              "name": "dealerName",
              "type": "string"
            },
            {
              "internalType": "string",
              "name": "firstName",
              "type": "string"
            },
            {
              "internalType": "string",
              "name": "lastName",
              "type": "string"
            },
            {
              "internalType": "string",
              "name": "addr",
              "type": "string"
            },
            {
              "internalType": "string[2]",
              "name": "location",
              "type": "string[2]"
            },
            {
              "internalType": "string",
              "name": "phoneNo",
              "type": "string"
            },
            {
              "internalType": "string",
              "name": "bestSeller",
              "type": "string"
            },
            {
              "internalType": "string",
              "name": "promotion",
              "type": "string"
            },
            {
              "internalType": "string",
              "name": "otherServices",
              "type": "string"
            },
            {
              "internalType": "string[]",
              "name": "availableServices",
              "type": "string[]"
            },
            {
              "internalType": "string[][]",
              "name": "availableSubServices",
              "type": "string[][]"
            }
          ],
          "internalType": "struct DealerContract.DealerInfo",
          "name": "",
          "type": "tuple"
        }
      ],
      "payable": false,
      "stateMutability": "view",
      "type": "function"
    },
    {
      "constant": true,
      "inputs": [
        {
          "internalType": "string",
          "name": "id",
          "type": "string"
        }
      ],
      "name": "getHash",
      "outputs": [
        {
          "internalType": "bytes32",
          "name": "",
          "type": "bytes32"
        }
      ],
      "payable": false,
      "stateMutability": "pure",
      "type": "function"
    },
    {
      "constant": true,
      "inputs": [],
      "name": "getServices",
      "outputs": [
        {
          "internalType": "string[]",
          "name": "",
          "type": "string[]"
        }
      ],
      "payable": false,
      "stateMutability": "view",
      "type": "function"
    },
    {
      "constant": true,
      "inputs": [
        {
          "internalType": "string",
          "name": "serviceName",
          "type": "string"
        }
      ],
      "name": "getSubServices",
      "outputs": [
        {
          "internalType": "string[]",
          "name": "",
          "type": "string[]"
        }
      ],
      "payable": false,
      "stateMutability": "view",
      "type": "function"
    },
    {
      "constant": true,
      "inputs": [
        {
          "internalType": "bytes32",
          "name": "adr",
          "type": "bytes32"
        }
      ],
      "name": "isVerified",
      "outputs": [
        {
          "internalType": "bool",
          "name": "",
          "type": "bool"
        }
      ],
      "payable": false,
      "stateMutability": "view",
      "type": "function"
    },
    {
      "constant": true,
      "inputs": [],
      "name": "owner",
      "outputs": [
        {
          "internalType": "address",
          "name": "",
          "type": "address"
        }
      ],
      "payable": false,
      "stateMutability": "view",
      "type": "function"
    },
    {
      "constant": false,
      "inputs": [
        {
          "internalType": "bytes32",
          "name": "dealershipId",
          "type": "bytes32"
        },
        {
          "internalType": "bytes32",
          "name": "otherId",
          "type": "bytes32"
        }
      ],
      "name": "transferDealershipOwner",
      "outputs": [],
      "payable": false,
      "stateMutability": "nonpayable",
      "type": "function"
    },
    {
      "constant": false,
      "inputs": [
        {
          "internalType": "address",
          "name": "newOwner",
          "type": "address"
        }
      ],
      "name": "transferOwner",
      "outputs": [],
      "payable": false,
      "stateMutability": "nonpayable",
      "type": "function"
    },
    {
      "constant": true,
      "inputs": [],
      "name": "getAllUsers",
      "outputs": [
        {
          "internalType": "bytes32[]",
          "name": "",
          "type": "bytes32[]"
        }
      ],
      "payable": false,
      "stateMutability": "view",
      "type": "function"
    },
    {
      "constant": false,
      "inputs": [
        {
          "internalType": "bytes32",
          "name": "userId",
          "type": "bytes32"
        },
        {
          "components": [
            {
              "internalType": "string",
              "name": "firstName",
              "type": "string"
            },
            {
              "internalType": "string",
              "name": "lastName",
              "type": "string"
            },
            {
              "internalType": "string",
              "name": "adr",
              "type": "string"
            },
            {
              "internalType": "string",
              "name": "phNo",
              "type": "string"
            },
            {
              "internalType": "string",
              "name": "email",
              "type": "string"
            }
          ],
          "internalType": "struct UserContract.UserInfo",
          "name": "info",
          "type": "tuple"
        }
      ],
      "name": "editUserInfo",
      "outputs": [],
      "payable": false,
      "stateMutability": "nonpayable",
      "type": "function"
    },
    {
      "constant": true,
      "inputs": [
        {
          "internalType": "bytes32",
          "name": "userId",
          "type": "bytes32"
        }
      ],
      "name": "getUserInfo",
      "outputs": [
        {
          "components": [
            {
              "internalType": "string",
              "name": "firstName",
              "type": "string"
            },
            {
              "internalType": "string",
              "name": "lastName",
              "type": "string"
            },
            {
              "internalType": "string",
              "name": "adr",
              "type": "string"
            },
            {
              "internalType": "string",
              "name": "phNo",
              "type": "string"
            },
            {
              "internalType": "string",
              "name": "email",
              "type": "string"
            }
          ],
          "internalType": "struct UserContract.UserInfo",
          "name": "",
          "type": "tuple"
        }
      ],
      "payable": false,
      "stateMutability": "view",
      "type": "function"
    },
    {
      "constant": false,
      "inputs": [
        {
          "internalType": "bytes32",
          "name": "userId",
          "type": "bytes32"
        },
        {
          "internalType": "string",
          "name": "noPlate",
          "type": "string"
        },
        {
          "components": [
            {
              "internalType": "string",
              "name": "brand",
              "type": "string"
            },
            {
              "internalType": "string",
              "name": "model",
              "type": "string"
            },
            {
              "internalType": "string",
              "name": "year",
              "type": "string"
            }
          ],
          "internalType": "struct UserContract.CarInfo",
          "name": "carInfo",
          "type": "tuple"
        }
      ],
      "name": "editCarDetails",
      "outputs": [],
      "payable": false,
      "stateMutability": "nonpayable",
      "type": "function"
    },
    {
      "constant": true,
      "inputs": [
        {
          "internalType": "bytes32",
          "name": "userId",
          "type": "bytes32"
        }
      ],
      "name": "getCarPlates",
      "outputs": [
        {
          "internalType": "string[]",
          "name": "",
          "type": "string[]"
        }
      ],
      "payable": false,
      "stateMutability": "view",
      "type": "function"
    },
    {
      "constant": true,
      "inputs": [
        {
          "internalType": "bytes32",
          "name": "userId",
          "type": "bytes32"
        }
      ],
      "name": "getCars",
      "outputs": [
        {
          "components": [
            {
              "internalType": "string",
              "name": "brand",
              "type": "string"
            },
            {
              "internalType": "string",
              "name": "model",
              "type": "string"
            },
            {
              "internalType": "string",
              "name": "year",
              "type": "string"
            }
          ],
          "internalType": "struct UserContract.CarInfo[]",
          "name": "",
          "type": "tuple[]"
        }
      ],
      "payable": false,
      "stateMutability": "view",
      "type": "function"
    },
    {
      "constant": true,
      "inputs": [
        {
          "internalType": "string",
          "name": "noPlate",
          "type": "string"
        }
      ],
      "name": "getCarDetails",
      "outputs": [
        {
          "components": [
            {
              "internalType": "string",
              "name": "brand",
              "type": "string"
            },
            {
              "internalType": "string",
              "name": "model",
              "type": "string"
            },
            {
              "internalType": "string",
              "name": "year",
              "type": "string"
            }
          ],
          "internalType": "struct UserContract.CarInfo",
          "name": "",
          "type": "tuple"
        }
      ],
      "payable": false,
      "stateMutability": "view",
      "type": "function"
    },
    {
      "constant": false,
      "inputs": [
        {
          "internalType": "bytes32",
          "name": "dealerId",
          "type": "bytes32"
        },
        {
          "internalType": "bytes32",
          "name": "id",
          "type": "bytes32"
        },
        {
          "internalType": "string",
          "name": "noPlate",
          "type": "string"
        },
        {
          "internalType": "string[]",
          "name": "services",
          "type": "string[]"
        },
        {
          "internalType": "string[]",
          "name": "subservices",
          "type": "string[]"
        },
        {
          "internalType": "string",
          "name": "comment",
          "type": "string"
        },
        {
          "internalType": "uint256",
          "name": "timeStamp",
          "type": "uint256"
        }
      ],
      "name": "insertRecord",
      "outputs": [],
      "payable": false,
      "stateMutability": "nonpayable",
      "type": "function"
    },
    {
      "constant": true,
      "inputs": [
        {
          "internalType": "string",
          "name": "noPlate",
          "type": "string"
        }
      ],
      "name": "getRecords",
      "outputs": [
        {
          "components": [
            {
              "internalType": "bytes32",
              "name": "dealerId",
              "type": "bytes32"
            },
            {
              "internalType": "string[]",
              "name": "services",
              "type": "string[]"
            },
            {
              "internalType": "string[]",
              "name": "subservices",
              "type": "string[]"
            },
            {
              "internalType": "string",
              "name": "comment",
              "type": "string"
            },
            {
              "internalType": "uint256",
              "name": "timeStamp",
              "type": "uint256"
            }
          ],
          "internalType": "struct UserContract.RecordInternal[]",
          "name": "",
          "type": "tuple[]"
        }
      ],
      "payable": false,
      "stateMutability": "view",
      "type": "function"
    }
  ],
  "bytecode": "0x60806040526006805461fe0061ff0019909116179055600080546001600160a01b0319163317905561453e806100366000396000f3fe608060405234801561001057600080fd5b50600436106101c45760003560e01c80637e41667f116100f9578063adff8b0f11610097578063c9b54a5811610071578063c9b54a58146103e3578063d872acac14610403578063e2842d7914610423578063e445268c1461042b576101c4565b8063adff8b0f14610390578063c181b273146103b0578063c4e91d17146103d0576101c4565b806388fcd194116100d357806388fcd194146103425780638da5cb5b146103555780638ee242141461036a5780638f2b51441461037d576101c4565b80637e41667f146102fa57806382d7afbd1461030f57806386e80b7114610322576101c4565b80634fb2e45d116101665780636fd7d2b5116101405780636fd7d2b5146102ac578063752326c1146102bf57806375417851146102d25780637d17f13c146102da576101c4565b80634fb2e45d1461026657806350fb95e3146102795780635b6beeb91461028c576101c4565b80631a4c85be116101a25780631a4c85be146102045780631b8f47fe14610217578063369bfce41461022a578063431a65fc1461023d576101c4565b80630ad5be91146101c95780630eb7bc8f146101de5780631118127a146101f1575b600080fd5b6101dc6101d736600461353b565b61043e565b005b6101dc6101ec366004613729565b6105ec565b6101dc6101ff36600461380d565b610677565b6101dc6102123660046136f5565b610865565b6101dc6102253660046134c5565b610916565b6101dc610238366004613729565b6109a7565b61025061024b3660046136f5565b610a41565b60405161025d919061425f565b60405180910390f35b6101dc61027436600461349f565b610b38565b6101dc610287366004613729565b610b84565b61029f61029a3660046136f5565b610c67565b60405161025d91906142a0565b6101dc6102ba366004613786565b610cdc565b6101dc6102cd36600461380d565b610d86565b610250610eed565b6102ed6102e83660046134c5565b611042565b60405161025d919061438f565b6103026117cc565b60405161025d919061424e565b6101dc61031d366004613501565b61184f565b6103356103303660046136f5565b61194b565b60405161025d9190614281565b6101dc6103503660046136f5565b611c15565b61035d611d23565b60405161025d9190614240565b6101dc610378366004613633565b611d32565b61025061038b3660046134c5565b611e39565b6103a361039e3660046134c5565b611f19565b60405161025d91906143c0565b6103c36103be3660046134c5565b61222b565b60405161025d9190614292565b6101dc6103de3660046136ae565b612258565b6103f66103f13660046134c5565b6122ea565b60405161025d9190614270565b6104166104113660046136f5565b61258c565b60405161025d919061437e565b610302612748565b6101dc610439366004613501565b6127c9565b866104488161222b565b61046d5760405162461bcd60e51b81526004016104649061436e565b60405180910390fd5b84518451111561048f5760405162461bcd60e51b8152600401610464906142fe565b600061049b8888612854565b12156104d8576000878152600b60209081526040822080546001810180835591845292829020895191936104d593910191908a0190612bba565b50505b6009866040516104e89190614228565b90815260408051918290036020908101832060a0840183528b845283820189815292840188905260608401879052608084018690528054600181810180845560009384529284902086516005909302019182559351805192959491936105549392850192910190612c38565b5060408201518051610570916002840191602090910190612c38565b506060820151805161058c916003840191602090910190612bba565b50608082015181600401555050506000196105a688612969565b14156105e257600d80546001810182556000919091527fd7b6990105719101dabeb77144f2a3385c8033acd3af97e9423a695e81ad1eb5018790555b5050505050505050565b6000546001600160a01b031633146106165760405162461bcd60e51b81526004016104649061430e565b81610620816129af565b61063c5760405162461bcd60e51b81526004016104649061432e565b816007600061064a866129d0565b60ff1660ff1681526020019081526020016000209080519060200190610671929190612bba565b50505050565b60008181526001602052604090205460ff16156106a65760405162461bcd60e51b81526004016104649061433e565b60008181526004602090815260409091208351805185936106cb928492910190612bba565b5060208281015180516106e49260018501920190612bba565b5060408201518051610700916002840191602090910190612bba565b506060820151805161071c916003840191602090910190612bba565b5060808201516107329060048301906002612c91565b5060a0820151805161074e916006840191602090910190612bba565b5060c0820151805161076a916007840191602090910190612bba565b5060e08201518051610786916008840191602090910190612bba565b5061010082015180516107a3916009840191602090910190612bba565b5061012082015180516107c091600a840191602090910190612c38565b5061014082015180516107dd91600b840191602090910190612cd1565b5090505060006107ec82612aba565b121561082857600580546001810182556000919091527f036b6384b5eca791c62761152d0c79bb0604c104a5fb6f4eb0703f3154bb3db0018190555b7fbcb28ce223d1d07df7ff015302f0aee0306ad6362ede3db7aa3c6d40a651f00882826040516108599291906143a0565b60405180910390a15050565b6000546001600160a01b0316331461088f5760405162461bcd60e51b81526004016104649061430e565b80610899816129af565b6108b55760405162461bcd60e51b81526004016104649061432e565b60405180602001604052806000815250600760006108d2856129d0565b60ff1660ff16815260200190815260200160002090805190602001906108f9929190612bba565b50506006805460ff19811660ff9182166000190190911617905550565b6000546001600160a01b031633146109405760405162461bcd60e51b81526004016104649061430e565b600061094b82612aba565b9050600081121561096e5760405162461bcd60e51b8152600401610464906142de565b6000828152600160208190526040909120805460ff19169091179055600580548290811061099857fe5b60009182526020822001555050565b6000546001600160a01b031633146109d15760405162461bcd60e51b81526004016104649061430e565b81816109dd8282612af6565b6109f95760405162461bcd60e51b81526004016104649061431e565b600884604051610a099190614228565b9081526020016040518091039020610a218585612b0c565b81548110610a2b57fe5b9060005260206000200160006106719190612d2a565b6060600882604051610a539190614228565b9081526020016040518091039020805480602002602001604051908101604052809291908181526020016000905b82821015610b2c5760008481526020908190208301805460408051601f6002600019610100600187161502019094169390930492830185900485028101850190915281815292830182828015610b185780601f10610aed57610100808354040283529160200191610b18565b820191906000526020600020905b815481529060010190602001808311610afb57829003601f168201915b505050505081526020019060010190610a81565b5050505090505b919050565b6000546001600160a01b03163314610b625760405162461bcd60e51b81526004016104649061430e565b600080546001600160a01b0319166001600160a01b0392909216919091179055565b8160ff600882604051610b979190614228565b9081526040519081900360200190205410610bc45760405162461bcd60e51b8152600401610464906142ee565b8282610bd08282612af6565b15610bed5760405162461bcd60e51b8152600401610464906142ce565b6000546001600160a01b03163314610c175760405162461bcd60e51b81526004016104649061430e565b600885604051610c279190614228565b9081526040516020918190038201902080546001810180835560009283529183902087519293610c5e939190920191880190612bba565b50505050505050565b6000600282604051602001610c7c9190614228565b60408051601f1981840301815290829052610c9691614228565b602060405180830381855afa158015610cb3573d6000803e3d6000fd5b5050506040513d601f19601f82011682018060405250610cd691908101906134e3565b92915050565b8282610ce88282612af6565b610d045760405162461bcd60e51b81526004016104649061431e565b6000546001600160a01b03163314610d2e5760405162461bcd60e51b81526004016104649061430e565b82600886604051610d3f9190614228565b9081526020016040518091039020610d578787612b0c565b81548110610d6157fe5b906000526020600020019080519060200190610d7e929190612bba565b505050505050565b600081815260016020526040902054819060ff16610db65760405162461bcd60e51b8152600401610464906142be565b6000828152600460209081526040909120845180518693610ddb928492910190612bba565b506020828101518051610df49260018501920190612bba565b5060408201518051610e10916002840191602090910190612bba565b5060608201518051610e2c916003840191602090910190612bba565b506080820151610e429060048301906002612c91565b5060a08201518051610e5e916006840191602090910190612bba565b5060c08201518051610e7a916007840191602090910190612bba565b5060e08201518051610e96916008840191602090910190612bba565b506101008201518051610eb3916009840191602090910190612bba565b506101208201518051610ed091600a840191602090910190612c38565b506101408201518051610d7e91600b840191602090910190612cd1565b6006546040805160ff909216808352602080820284010190915260609182918015610f2c57816020015b6060815260200190600190039081610f175790505b5090506000805b60065460ff610100909104811690821610156110395760ff811660009081526007602052604090205460026000196101006001841615020190911604156110315760ff811660009081526007602090815260409182902080548351601f60026000196101006001861615020190931692909204918201849004840281018401909452808452909183018282801561100b5780601f10610fe05761010080835404028352916020019161100b565b820191906000526020600020905b815481529060010190602001808311610fee57829003601f168201915b5050505050838380600101945060ff168151811061102557fe5b60200260200101819052505b600101610f33565b50909150505b90565b61104a612d71565b6000828152600460209081526040918290208251815460026001821615610100026000190190911604601f8101849004909302810161018090810190945261016081018381529093919284928491908401828280156110ea5780601f106110bf576101008083540402835291602001916110ea565b820191906000526020600020905b8154815290600101906020018083116110cd57829003601f168201915b50505050508152602001600182018054600181600116156101000203166002900480601f01602080910402602001604051908101604052809291908181526020018280546001816001161561010002031660029004801561118c5780601f106111615761010080835404028352916020019161118c565b820191906000526020600020905b81548152906001019060200180831161116f57829003601f168201915b5050509183525050600282810180546040805160206001841615610100026000190190931694909404601f8101839004830285018301909152808452938101939083018282801561121e5780601f106111f35761010080835404028352916020019161121e565b820191906000526020600020905b81548152906001019060200180831161120157829003601f168201915b505050918352505060038201805460408051602060026001851615610100026000190190941693909304601f81018490048402820184019092528181529382019392918301828280156112b25780601f10611287576101008083540402835291602001916112b2565b820191906000526020600020905b81548152906001019060200180831161129557829003601f168201915b5050509183525050604080518082019091526020909101906004830160026000835b8282101561137757838201805460408051602060026001851615610100026000190190941693909304601f810184900484028201840190925281815292918301828280156113635780601f1061133857610100808354040283529160200191611363565b820191906000526020600020905b81548152906001019060200180831161134657829003601f168201915b5050505050815260200190600101906112d4565b5050509082525060068201805460408051602060026001851615610100026000190190941693909304601f810184900484028201840190925281815293820193929183018282801561140a5780601f106113df5761010080835404028352916020019161140a565b820191906000526020600020905b8154815290600101906020018083116113ed57829003601f168201915b505050918352505060078201805460408051602060026001851615610100026000190190941693909304601f810184900484028201840190925281815293820193929183018282801561149e5780601f106114735761010080835404028352916020019161149e565b820191906000526020600020905b81548152906001019060200180831161148157829003601f168201915b505050918352505060088201805460408051602060026001851615610100026000190190941693909304601f81018490048402820184019092528181529382019392918301828280156115325780601f1061150757610100808354040283529160200191611532565b820191906000526020600020905b81548152906001019060200180831161151557829003601f168201915b505050918352505060098201805460408051602060026001851615610100026000190190941693909304601f81018490048402820184019092528181529382019392918301828280156115c65780601f1061159b576101008083540402835291602001916115c6565b820191906000526020600020905b8154815290600101906020018083116115a957829003601f168201915b50505050508152602001600a8201805480602002602001604051908101604052809291908181526020016000905b8282101561169f5760008481526020908190208301805460408051601f600260001961010060018716150201909416939093049283018590048502810185019091528181529283018282801561168b5780601f106116605761010080835404028352916020019161168b565b820191906000526020600020905b81548152906001019060200180831161166e57829003601f168201915b5050505050815260200190600101906115f4565b505050508152602001600b8201805480602002602001604051908101604052809291908181526020016000905b828210156117be57838290600052602060002001805480602002602001604051908101604052809291908181526020016000905b828210156117ab5760008481526020908190208301805460408051601f60026000196101006001871615020190941693909304928301859004850281018501909152818152928301828280156117975780601f1061176c57610100808354040283529160200191611797565b820191906000526020600020905b81548152906001019060200180831161177a57829003601f168201915b505050505081526020019060010190611700565b50505050815260200190600101906116cc565b505050915250909392505050565b6000546060906001600160a01b031633146117f95760405162461bcd60e51b81526004016104649061430e565b600580548060200260200160405190810160405280929190818152602001828054801561184557602002820191906000526020600020905b815481526020019060010190808311611831575b5050505050905090565b600082815260016020526040902054829060ff1661187f5760405162461bcd60e51b8152600401610464906142be565b6000828152600160208181526040808420805460ff19908116909417905586845280842080549093169092558483526003815281832083905585835260029052808220848352912081546118d39290612dd1565b5060008381526002602052604081206118eb91612e11565b60005b60008381526002602052604090205481101561067157826003600060026000878152602001908152602001600020848154811061192757fe5b600091825260208083209091015483528201929092526040019020556001016118ee565b606060098260405161195d9190614228565b9081526020016040518091039020805480602002602001604051908101604052809291908181526020016000905b82821015610b2c57838290600052602060002090600502016040518060a00160405290816000820154815260200160018201805480602002602001604051908101604052809291908181526020016000905b82821015611a885760008481526020908190208301805460408051601f6002600019610100600187161502019094169390930492830185900485028101850190915281815292830182828015611a745780601f10611a4957610100808354040283529160200191611a74565b820191906000526020600020905b815481529060010190602001808311611a5757829003601f168201915b5050505050815260200190600101906119dd565b50505050815260200160028201805480602002602001604051908101604052809291908181526020016000905b82821015611b605760008481526020908190208301805460408051601f6002600019610100600187161502019094169390930492830185900485028101850190915281815292830182828015611b4c5780601f10611b2157610100808354040283529160200191611b4c565b820191906000526020600020905b815481529060010190602001808311611b2f57829003601f168201915b505050505081526020019060010190611ab5565b5050509082525060038201805460408051602060026001851615610100026000190190941693909304601f8101849004840282018401909252818152938201939291830182828015611bf35780601f10611bc857610100808354040283529160200191611bf3565b820191906000526020600020905b815481529060010190602001808311611bd657829003601f168201915b505050505081526020016004820154815250508152602001906001019061198b565b6000546001600160a01b03163314611c3f5760405162461bcd60e51b81526004016104649061430e565b80611c49816129af565b15611c665760405162461bcd60e51b81526004016104649061434e565b60065460ff6101008204811691161115611c925760405162461bcd60e51b81526004016104649061435e565b60005b60065460ff61010090910481169082161015611d1d5760ff811660009081526007602052604090205460026000196101006001841615020190911604611d155760ff811660009081526007602090815260409091208451611cf892860190612bba565b50506006805460ff8082166001011660ff19909116179055611d1f565b600101611c95565b505b5050565b6000546001600160a01b031681565b80600c83604051611d439190614228565b90815260200160405180910390206000820151816000019080519060200190611d6d929190612bba565b506020828101518051611d869260018501920190612bba565b5060408201518051611da2916002840191602090910190612bba565b509050506000611db28484612854565b90506000811215611df8576000848152600b6020908152604082208054600181018083559184529282902086519193611df19391019190870190612bba565b5050610671565b6000848152600b60205260409020805484919083908110611e1557fe5b906000526020600020019080519060200190611e32929190612bba565b5050505050565b6060600b6000838152602001908152602001600020805480602002602001604051908101604052809291908181526020016000905b82821015610b2c5760008481526020908190208301805460408051601f6002600019610100600187161502019094169390930492830185900485028101850190915281815292830182828015611f055780601f10611eda57610100808354040283529160200191611f05565b820191906000526020600020905b815481529060010190602001808311611ee857829003601f168201915b505050505081526020019060010190611e6e565b611f21612e2f565b6000828152600a60209081526040918290208251815460026001821615610100026000190190911604601f8101849004909302810160c090810190945260a08101838152909391928492849190840182828015611fbf5780601f10611f9457610100808354040283529160200191611fbf565b820191906000526020600020905b815481529060010190602001808311611fa257829003601f168201915b50505050508152602001600182018054600181600116156101000203166002900480601f0160208091040260200160405190810160405280929190818152602001828054600181600116156101000203166002900480156120615780601f1061203657610100808354040283529160200191612061565b820191906000526020600020905b81548152906001019060200180831161204457829003601f168201915b5050509183525050600282810180546040805160206001841615610100026000190190931694909404601f810183900483028501830190915280845293810193908301828280156120f35780601f106120c8576101008083540402835291602001916120f3565b820191906000526020600020905b8154815290600101906020018083116120d657829003601f168201915b505050918352505060038201805460408051602060026001851615610100026000190190941693909304601f81018490048402820184019092528181529382019392918301828280156121875780601f1061215c57610100808354040283529160200191612187565b820191906000526020600020905b81548152906001019060200180831161216a57829003601f168201915b505050918352505060048201805460408051602060026001851615610100026000190190941693909304601f810184900484028201840190925281815293820193929183018282801561221b5780601f106121f05761010080835404028352916020019161221b565b820191906000526020600020905b8154815290600101906020018083116121fe57829003601f168201915b5050505050815250509050919050565b60008181526001602052604081205460ff1680610cd6575050600090815260036020526040902054151590565b6000828152600a6020908152604090912082518051849361227d928492910190612bba565b5060208281015180516122969260018501920190612bba565b50604082015180516122b2916002840191602090910190612bba565b50606082015180516122ce916003840191602090910190612bba565b5060808201518051611e32916004840191602090910190612bba565b606080600b60008481526020019081526020016000208054905060405190808252806020026020018201604052801561233d57816020015b61232a612e5e565b8152602001906001900390816123225790505b50905060005b6000848152600b6020526040902054811015612585576000848152600b602052604090208054600c91908390811061237757fe5b9060005260206000200160405161238e9190614234565b9081526040805160209281900383018120805460026001821615610100026000190190911604601f810185900490940282016080908101909352606082018481529193909284929184918401828280156124295780601f106123fe57610100808354040283529160200191612429565b820191906000526020600020905b81548152906001019060200180831161240c57829003601f168201915b50505050508152602001600182018054600181600116156101000203166002900480601f0160208091040260200160405190810160405280929190818152602001828054600181600116156101000203166002900480156124cb5780601f106124a0576101008083540402835291602001916124cb565b820191906000526020600020905b8154815290600101906020018083116124ae57829003601f168201915b5050509183525050600282810180546040805160206001841615610100026000190190931694909404601f8101839004830285018301909152808452938101939083018282801561255d5780601f106125325761010080835404028352916020019161255d565b820191906000526020600020905b81548152906001019060200180831161254057829003601f168201915b50505050508152505082828151811061257257fe5b6020908102919091010152600101612343565b5092915050565b612594612e5e565b600c826040516125a49190614228565b9081526040805160209281900383018120805460026001821615610100026000190190911604601f8101859004909402820160809081019093526060820184815291939092849291849184018282801561263f5780601f106126145761010080835404028352916020019161263f565b820191906000526020600020905b81548152906001019060200180831161262257829003601f168201915b50505050508152602001600182018054600181600116156101000203166002900480601f0160208091040260200160405190810160405280929190818152602001828054600181600116156101000203166002900480156126e15780601f106126b6576101008083540402835291602001916126e1565b820191906000526020600020905b8154815290600101906020018083116126c457829003601f168201915b5050509183525050600282810180546040805160206001841615610100026000190190931694909404601f8101839004830285018301909152808452938101939083018282801561221b5780601f106121f05761010080835404028352916020019161221b565b6000546060906001600160a01b031633146127755760405162461bcd60e51b81526004016104649061430e565b600d8054806020026020016040519081016040528092919081815260200182805480156118455760200282019190600052602060002090815481526020019060010190808311611831575050505050905090565b600082815260016020526040902054829060ff166127f95760405162461bcd60e51b8152600401610464906142be565b600082815260036020526040902054156128255760405162461bcd60e51b8152600401610464906142ae565b506000828152600260209081526040808320805460018101825590845282842001849055928252600390522055565b6000805b6000848152600b60205260409020546001600160801b038216101561295e5761288083612b8a565b6000858152600b60205260409020805461294091906001600160801b0385169081106128a857fe5b600091825260209182902001805460408051601f60026000196101006001871615020190941693909304928301859004850281018501909152818152928301828280156129365780601f1061290b57610100808354040283529160200191612936565b820191906000526020600020905b81548152906001019060200180831161291957829003601f168201915b5050505050612b8a565b1415612956576001600160801b03169050610cd6565b600101612858565b506000199392505050565b6000805b600d548110156129a55782600d828154811061298557fe5b9060005260206000200154141561299d579050610b33565b60010161296d565b5060001992915050565b600654600090610100900460ff166129c6836129d0565b60ff161092915050565b6000806129dc83612b8a565b905060005b60065460ff61010090910481169082161015612ab05760ff81166000908152600760205260409020546002600019610100600184161502019091160415801590612a9a575060ff81166000908152600760209081526040918290208054835160026001831615610100026000190190921691909104601f81018490048402820184019094528381528593612a98939192918301828280156129365780601f1061290b57610100808354040283529160200191612936565b145b15612aa8579150610b339050565b6001016129e1565b5060ff9392505050565b6000805b6005548110156129a5578260058281548110612ad657fe5b90600052602060002001541415612aee579050610b33565b600101612abe565b600060ff612b048484612b0c565b109392505050565b6000805b600884604051612b209190614228565b9081526040519081900360200190205460ff82161015612ab057612b4383612b8a565b612b72600886604051612b569190614228565b90815260200160405180910390208360ff16815481106128a857fe5b1415612b825760ff169050610cd6565b600101612b10565b600081604051602001612b9d9190614228565b604051602081830303815290604052805190602001209050919050565b828054600181600116156101000203166002900490600052602060002090601f016020900481019282601f10612bfb57805160ff1916838001178555612c28565b82800160010185558215612c28579182015b82811115612c28578251825591602001919060010190612c0d565b50612c34929150612e7f565b5090565b828054828255906000526020600020908101928215612c85579160200282015b82811115612c855782518051612c75918491602090910190612bba565b5091602001919060010190612c58565b50612c34929150612e99565b8260028101928215612c85579160200282015b82811115612c855782518051612cc1918491602090910190612bba565b5091602001919060010190612ca4565b828054828255906000526020600020908101928215612d1e579160200282015b82811115612d1e5782518051612d0e918491602090910190612c38565b5091602001919060010190612cf1565b50612c34929150612ebc565b50805460018160011615610100020316600290046000825580601f10612d505750612d6e565b601f016020900490600052602060002090810190612d6e9190612e7f565b50565b60405180610160016040528060608152602001606081526020016060815260200160608152602001612da1612edf565b81526020016060815260200160608152602001606081526020016060815260200160608152602001606081525090565b828054828255906000526020600020908101928215612c285760005260206000209182015b82811115612c28578254825591600101919060010190612df6565b5080546000825590600052602060002090810190612d6e9190612e7f565b6040518060a0016040528060608152602001606081526020016060815260200160608152602001606081525090565b60405180606001604052806060815260200160608152602001606081525090565b61103f91905b80821115612c345760008155600101612e85565b61103f91905b80821115612c34576000612eb38282612d2a565b50600101612e9f565b61103f91905b80821115612c34576000612ed68282612f06565b50600101612ec2565b60405180604001604052806002905b6060815260200190600190039081612eee5790505090565b5080546000825590600052602060002090810190612d6e9190612e99565b8035610cd6816144de565b600082601f830112612f4057600080fd5b8135612f53612f4e826143f7565b6143d1565b81815260209384019390925082018360005b83811015612f915781358601612f7b8882612fed565b8452506020928301929190910190600101612f65565b5050505092915050565b600082601f830112612fac57600080fd5b6002612fba612f4e82614417565b9150818360005b83811015612f915781358601612fd788826130bd565b8452506020928301929190910190600101612fc1565b600082601f830112612ffe57600080fd5b813561300c612f4e826143f7565b81815260209384019390925082018360005b83811015612f91578135860161303488826130bd565b845250602092830192919091019060010161301e565b600082601f83011261305b57600080fd5b8135613069612f4e826143f7565b81815260209384019390925082018360005b83811015612f91578135860161309188826130bd565b845250602092830192919091019060010161307b565b8035610cd6816144f2565b8051610cd6816144f2565b600082601f8301126130ce57600080fd5b81356130dc612f4e82614434565b915080825260208301602083018583830111156130f857600080fd5b61310383828461449c565b50505092915050565b60006060828403121561311e57600080fd5b61312860606143d1565b905081356001600160401b0381111561314057600080fd5b61314c848285016130bd565b82525060208201356001600160401b0381111561316857600080fd5b613174848285016130bd565b60208301525060408201356001600160401b0381111561319357600080fd5b61319f848285016130bd565b60408301525092915050565b600061016082840312156131be57600080fd5b6131c96101606143d1565b905081356001600160401b038111156131e157600080fd5b6131ed848285016130bd565b82525060208201356001600160401b0381111561320957600080fd5b613215848285016130bd565b60208301525060408201356001600160401b0381111561323457600080fd5b613240848285016130bd565b60408301525060608201356001600160401b0381111561325f57600080fd5b61326b848285016130bd565b60608301525060808201356001600160401b0381111561328a57600080fd5b61329684828501612f9b565b60808301525060a08201356001600160401b038111156132b557600080fd5b6132c1848285016130bd565b60a08301525060c08201356001600160401b038111156132e057600080fd5b6132ec848285016130bd565b60c08301525060e08201356001600160401b0381111561330b57600080fd5b613317848285016130bd565b60e0830152506101008201356001600160401b0381111561333757600080fd5b613343848285016130bd565b610100830152506101208201356001600160401b0381111561336457600080fd5b61337084828501612fed565b610120830152506101408201356001600160401b0381111561339157600080fd5b61339d84828501612f2f565b6101408301525092915050565b600060a082840312156133bc57600080fd5b6133c660a06143d1565b905081356001600160401b038111156133de57600080fd5b6133ea848285016130bd565b82525060208201356001600160401b0381111561340657600080fd5b613412848285016130bd565b60208301525060408201356001600160401b0381111561343157600080fd5b61343d848285016130bd565b60408301525060608201356001600160401b0381111561345c57600080fd5b613468848285016130bd565b60608301525060808201356001600160401b0381111561348757600080fd5b613493848285016130bd565b60808301525092915050565b6000602082840312156134b157600080fd5b60006134bd8484612f24565b949350505050565b6000602082840312156134d757600080fd5b60006134bd84846130a7565b6000602082840312156134f557600080fd5b60006134bd84846130b2565b6000806040838503121561351457600080fd5b600061352085856130a7565b9250506020613531858286016130a7565b9150509250929050565b600080600080600080600060e0888a03121561355657600080fd5b60006135628a8a6130a7565b97505060206135738a828b016130a7565b96505060408801356001600160401b0381111561358f57600080fd5b61359b8a828b016130bd565b95505060608801356001600160401b038111156135b757600080fd5b6135c38a828b0161304a565b94505060808801356001600160401b038111156135df57600080fd5b6135eb8a828b0161304a565b93505060a08801356001600160401b0381111561360757600080fd5b6136138a828b016130bd565b92505060c06136248a828b016130a7565b91505092959891949750929550565b60008060006060848603121561364857600080fd5b600061365486866130a7565b93505060208401356001600160401b0381111561367057600080fd5b61367c868287016130bd565b92505060408401356001600160401b0381111561369857600080fd5b6136a48682870161310c565b9150509250925092565b600080604083850312156136c157600080fd5b60006136cd85856130a7565b92505060208301356001600160401b038111156136e957600080fd5b613531858286016133aa565b60006020828403121561370757600080fd5b81356001600160401b0381111561371d57600080fd5b6134bd848285016130bd565b6000806040838503121561373c57600080fd5b82356001600160401b0381111561375257600080fd5b61375e858286016130bd565b92505060208301356001600160401b0381111561377a57600080fd5b613531858286016130bd565b60008060006060848603121561379b57600080fd5b83356001600160401b038111156137b157600080fd5b6137bd868287016130bd565b93505060208401356001600160401b038111156137d957600080fd5b6137e5868287016130bd565b92505060408401356001600160401b0381111561380157600080fd5b6136a4868287016130bd565b6000806040838503121561382057600080fd5b82356001600160401b0381111561383657600080fd5b613520858286016131ab565b600061384e8383613a25565b9392505050565b60006138618383613b51565b505060200190565b600061384e8383613b89565b600061384e8383613fb3565b600061384e838361412b565b61389681614480565b82525050565b60006138a78261446d565b6138b18185614477565b9350836020820285016138c38561445b565b8060005b858110156138fd57848403895281516138e08582613842565b94506138eb8361445b565b60209a909a01999250506001016138c7565b5091979650505050505050565b60006139158261446d565b61391f8185614477565b935061392a8361445b565b8060005b838110156139585781516139428882613855565b975061394d8361445b565b92505060010161392e565b509495945050505050565b600061396e82614471565b6139788185610b33565b93508360208202850161398a8561103f565b8060005b858110156138fd57848403895281516139a78582613869565b94506139b28361445b565b60209a909a019992505060010161398e565b60006139cf8261446d565b6139d98185614477565b9350836020820285016139eb8561445b565b8060005b858110156138fd5784840389528151613a088582613869565b9450613a138361445b565b60209a909a01999250506001016139ef565b6000613a308261446d565b613a3a8185614477565b935083602082028501613a4c8561445b565b8060005b858110156138fd5784840389528151613a698582613869565b9450613a748361445b565b60209a909a0199925050600101613a50565b6000613a918261446d565b613a9b8185614477565b935083602082028501613aad8561445b565b8060005b858110156138fd5784840389528151613aca8582613875565b9450613ad58361445b565b60209a909a0199925050600101613ab1565b6000613af28261446d565b613afc8185614477565b935083602082028501613b0e8561445b565b8060005b858110156138fd5784840389528151613b2b8582613881565b9450613b368361445b565b60209a909a0199925050600101613b12565b6138968161448b565b6138968161103f565b6000613b658261446d565b613b6f8185610b33565b9350613b7f8185602086016144a8565b9290920192915050565b6000613b948261446d565b613b9e8185614477565b9350613bae8185602086016144a8565b613bb7816144d4565b9093019392505050565b600081546001811660008114613bde5760018114613c0157613c40565b607f6002830416613bef8187610b33565b60ff1984168152955085019250613c40565b60028204613c0f8187610b33565b9550613c1a85614461565b60005b82811015613c3957815488820152600190910190602001613c1d565b5050850192505b505092915050565b6000613c55602183614477565b7f5468617420656d706c6f79656520616c726561647920776f726b7320746865728152606560f81b602082015260400192915050565b6000613c98602983614477565b7f596f75206d7573742062652061206465616c657273686970206f776e657220748152686f20646f207468697360b81b602082015260400192915050565b6000613ce3601e83614477565b7f54686174207375627365727669636520616c7265616479206578697374730000815260200192915050565b6000613d1c602183614477565b7f4e6f206170706c69636174696f6e2065786973747320666f72207468617420698152601960fa1b602082015260400192915050565b6000613d5f602183614477565b7f4d6178696d756d207375627365727669636520616d6f756e74207265616368658152601960fa1b602082015260400192915050565b6000613da2603383614477565b7f4e756d626572206f6620737562736572766963657320646f6573206e6f74206d8152720c2e8c6d040e6cae4ecd2c6ca40d8cadccee8d606b1b602082015260400192915050565b6000613df7601583614477565b742cb7ba9030b932903737ba103a34329037bbb732b960591b815260200192915050565b6000613e28602c83614477565b7f54686174207375627365727669636520646f65736e7420657869737420696e2081526b1d1a1a5cc818dbdb9d195e1d60a21b602082015260400192915050565b6000613e76601b83614477565b7f54686174207365727669636520646f6573206e6f742065786973740000000000815260200192915050565b6000613eaf602283614477565b7f54686174206164647265737320697320616c7265616479207265676973746572815261195960f21b602082015260400192915050565b6000613ef3601b83614477565b7f54686174207365727669636520616c7265616479206578697374730000000000815260200192915050565b6000613f2c602883614477565b7f54686572652061726520746865206d6178696d756d206e756d626572206f6620815267736572766963657360c01b602082015260400192915050565b6000613f76602883614477565b7f596f75206d7573742062652061207665726966696564206465616c657220746f81526720646f207468697360c01b602082015260400192915050565b8051606080845260009190840190613fcb8282613b89565b91505060208301518482036020860152613fe58282613b89565b91505060408301518482036040860152613fff8282613b89565b95945050505050565b8051610160808452600091908401906140218282613b89565b9150506020830151848203602086015261403b8282613b89565b915050604083015184820360408601526140558282613b89565b9150506060830151848203606086015261406f8282613b89565b915050608083015184820360808601526140898282613963565b91505060a083015184820360a08601526140a38282613b89565b91505060c083015184820360c08601526140bd8282613b89565b91505060e083015184820360e08601526140d78282613b89565b9150506101008301518482036101008601526140f38282613b89565b91505061012083015184820361012086015261410f8282613a25565b915050610140830151848203610140860152613fff828261389c565b805160009060a084019061413f8582613b51565b50602083015184820360208601526141578282613a25565b915050604083015184820360408601526141718282613a25565b9150506060830151848203606086015261418b8282613b89565b91505060808301516141a06080860182613b51565b509392505050565b805160a0808452600091908401906141c08282613b89565b915050602083015184820360208601526141da8282613b89565b915050604083015184820360408601526141f48282613b89565b9150506060830151848203606086015261420e8282613b89565b91505060808301518482036080860152613fff8282613b89565b600061384e8284613b5a565b600061384e8284613bc1565b60208101610cd6828461388d565b6020808252810161384e818461390a565b6020808252810161384e81846139c4565b6020808252810161384e8184613a86565b6020808252810161384e8184613ae7565b60208101610cd68284613b48565b60208101610cd68284613b51565b60208082528101610cd681613c48565b60208082528101610cd681613c8b565b60208082528101610cd681613cd6565b60208082528101610cd681613d0f565b60208082528101610cd681613d52565b60208082528101610cd681613d95565b60208082528101610cd681613dea565b60208082528101610cd681613e1b565b60208082528101610cd681613e69565b60208082528101610cd681613ea2565b60208082528101610cd681613ee6565b60208082528101610cd681613f1f565b60208082528101610cd681613f69565b6020808252810161384e8184613fb3565b6020808252810161384e8184614008565b604080825281016143b18185614008565b905061384e6020830184613b51565b6020808252810161384e81846141a8565b6040518181016001600160401b03811182821017156143ef57600080fd5b604052919050565b60006001600160401b0382111561440d57600080fd5b5060209081020190565b60006001600160401b0382111561442d57600080fd5b5060200290565b60006001600160401b0382111561444a57600080fd5b506020601f91909101601f19160190565b60200190565b60009081526020902090565b5190565b50600290565b90815260200190565b6000610cd682614490565b151590565b6001600160a01b031690565b82818337506000910152565b60005b838110156144c35781810151838201526020016144ab565b838111156106715750506000910152565b601f01601f191690565b6144e781614480565b8114612d6e57600080fd5b6144e78161103f56fea365627a7a723158202018231bb80e00b02d0a26adc92f3bf7f016e5cb5fd7f736ccb5dac9a0cb61396c6578706572696d656e74616cf564736f6c634300050c0040",
  "source": "pragma solidity ^0.5.11;\npragma experimental ABIEncoderV2;\n\nimport \"./ServiceHandler.sol\";\n\ncontract UserContract is ServiceHandler {\n\n    struct RecordInternal {\n        bytes32 dealerId;\n        string[] services;\n        string[] subservices;\n        string comment;\n        uint timeStamp;\n    }\n    struct UserInfo {\n        string firstName;\n        string lastName;\n        string adr;\n        string phNo;\n        string email;\n    }\n    struct CarInfo{\n        string brand;\n        string model;\n        string year;\n    }\n\n    //------------------------------------------------------------_Records_---------------------------------------------\n\n    mapping(string => RecordInternal[]) private records;\n    mapping(bytes32 => UserInfo) private userInfoRecords;\n    mapping(bytes32 => string[]) private userCars;\n    mapping(string => CarInfo) private carDetails;\n\n    bytes32[] activeUsers;\n\n    function getAllUsers() public view ownerOnly returns(bytes32[] memory){\n        return activeUsers;\n    }\n\n    function getIndexOfUser(bytes32 user) internal view returns(uint){\n        for(uint i = 0; i < activeUsers.length; i++){\n            if(activeUsers[i] == user){\n                return i;\n            }\n        }\n        return uint(-1);\n    }\n\n    modifier carExists(string memory noPlate) {\n        require(bytes(carDetails[noPlate].brand).length > 0,\"That car does not exist in the chain\");\n        _;\n    }\n\n    function editUserInfo(bytes32 userId, UserInfo memory info) public {\n        userInfoRecords[userId] = info;\n    }\n\n    function getUserInfo(bytes32 userId) public view returns(UserInfo memory) {\n        return userInfoRecords[userId];\n    }\n\n    function editCarDetails(bytes32 userId, string memory noPlate, CarInfo memory carInfo) public{\n        carDetails[noPlate] = carInfo;\n        int index = getCarIndex(userId,noPlate);\n        if(index < 0){\n            userCars[userId].push(noPlate);\n        }\n        else{\n            userCars[userId][uint(index)] = noPlate;\n        }\n    }\n\n    function getCarIndex(bytes32 userId, string memory noPlate) internal view returns (int){\n        for(uint128 i = 0; i < userCars[userId].length; i++) {\n            if(encode(userCars[userId][i]) == encode(noPlate)) return i;\n        }\n        return -1;\n    }\n\n    function getCarPlates(bytes32 userId) public view returns (string[] memory) {\n        return userCars[userId];\n    }\n\n    function getCars(bytes32 userId) public view returns(CarInfo[] memory){\n        CarInfo[] memory cars = new CarInfo[](userCars[userId].length);\n        for(uint i = 0; i < userCars[userId].length;i++) {\n            cars[i] = carDetails[userCars[userId][i]];\n        }\n        return cars;\n    }\n\n    function getCarDetails(string memory noPlate) public view returns(CarInfo memory) {\n        return carDetails[noPlate];\n    }\n\n    function insertRecord(bytes32 dealerId, bytes32 id, string memory noPlate,\n     string[] memory services, string[] memory subservices, string memory comment, uint timeStamp)\n        public verified(dealerId) {\n        require(subservices.length <= services.length,\"Number of subservices does not match service length\");\n        if(getCarIndex(id,noPlate) < 0){\n            userCars[id].push(noPlate);\n        }\n        records[noPlate].push(RecordInternal(dealerId,services,subservices,comment,timeStamp));\n        if(getIndexOfUser(id) == uint(-1)){\n            activeUsers.push(id);\n        }\n    }\n\n    function getRecords(string memory noPlate) public view returns (RecordInternal[] memory) {\n        return records[noPlate];\n    }\n\n}\n",
  "sourcePath": "/home/brandon/Documents/_Important/Uni/Blockchain/Final project/contracts/UserContract.sol",
  "compiler": {
    "name": "solc",
    "version": "0.5.12+commit.7709ece9.Emscripten.clang"
  },
  "schemaVersion": "3.0.19",
  "updatedAt": "2019-11-29T16:13:50.852Z",
  "networkType": "ethereum",
  "devdoc": {
    "methods": {}
  },
  "userdoc": {
    "methods": {}
  }
}