{
  "contractName": "UserContract",
  "abi": [
    {
      "constant": false,
      "inputs": [
        {
          "internalType": "bytes32",
          "name": "dealerId",
          "type": "bytes32"
        },
        {
          "internalType": "bytes32",
          "name": "adr",
          "type": "bytes32"
        }
      ],
      "name": "addDealerEmployee",
      "outputs": [],
      "payable": false,
      "stateMutability": "nonpayable",
      "type": "function"
    },
    {
      "constant": false,
      "inputs": [
        {
          "internalType": "string",
          "name": "serviceName",
          "type": "string"
        }
      ],
      "name": "addService",
      "outputs": [],
      "payable": false,
      "stateMutability": "nonpayable",
      "type": "function"
    },
    {
      "constant": false,
      "inputs": [
        {
          "internalType": "string",
          "name": "serviceName",
          "type": "string"
        },
        {
          "internalType": "string",
          "name": "subServiceName",
          "type": "string"
        }
      ],
      "name": "addSubService",
      "outputs": [],
      "payable": false,
      "stateMutability": "nonpayable",
      "type": "function"
    },
    {
      "constant": false,
      "inputs": [
        {
          "internalType": "bytes32",
          "name": "adr",
          "type": "bytes32"
        }
      ],
      "name": "approveApplication",
      "outputs": [],
      "payable": false,
      "stateMutability": "nonpayable",
      "type": "function"
    },
    {
      "constant": false,
      "inputs": [
        {
          "components": [
            {
              "internalType": "string",
              "name": "dealerName",
              "type": "string"
            },
            {
              "internalType": "string",
              "name": "addr",
              "type": "string"
            },
            {
              "internalType": "string",
              "name": "location",
              "type": "string"
            },
            {
              "internalType": "string",
              "name": "phoneNo",
              "type": "string"
            },
            {
              "internalType": "string[]",
              "name": "availableServices",
              "type": "string[]"
            },
            {
              "internalType": "string[][]",
              "name": "availableSubServices",
              "type": "string[][]"
            }
          ],
          "internalType": "struct DealerContract.DealerInfo",
          "name": "info",
          "type": "tuple"
        },
        {
          "internalType": "bytes32",
          "name": "id",
          "type": "bytes32"
        }
      ],
      "name": "createDealerApplication",
      "outputs": [],
      "payable": false,
      "stateMutability": "nonpayable",
      "type": "function"
    },
    {
      "constant": false,
      "inputs": [
        {
          "internalType": "string",
          "name": "serviceName",
          "type": "string"
        }
      ],
      "name": "deleteService",
      "outputs": [],
      "payable": false,
      "stateMutability": "nonpayable",
      "type": "function"
    },
    {
      "constant": false,
      "inputs": [
        {
          "internalType": "string",
          "name": "serviceName",
          "type": "string"
        },
        {
          "internalType": "string",
          "name": "subServiceName",
          "type": "string"
        }
      ],
      "name": "deleteSubService",
      "outputs": [],
      "payable": false,
      "stateMutability": "nonpayable",
      "type": "function"
    },
    {
      "constant": false,
      "inputs": [
        {
          "components": [
            {
              "internalType": "string",
              "name": "dealerName",
              "type": "string"
            },
            {
              "internalType": "string",
              "name": "addr",
              "type": "string"
            },
            {
              "internalType": "string",
              "name": "location",
              "type": "string"
            },
            {
              "internalType": "string",
              "name": "phoneNo",
              "type": "string"
            },
            {
              "internalType": "string[]",
              "name": "availableServices",
              "type": "string[]"
            },
            {
              "internalType": "string[][]",
              "name": "availableSubServices",
              "type": "string[][]"
            }
          ],
          "internalType": "struct DealerContract.DealerInfo",
          "name": "info",
          "type": "tuple"
        },
        {
          "internalType": "bytes32",
          "name": "id",
          "type": "bytes32"
        }
      ],
      "name": "editDealerInfo",
      "outputs": [],
      "payable": false,
      "stateMutability": "nonpayable",
      "type": "function"
    },
    {
      "constant": false,
      "inputs": [
        {
          "internalType": "string",
          "name": "oldName",
          "type": "string"
        },
        {
          "internalType": "string",
          "name": "newName",
          "type": "string"
        }
      ],
      "name": "editServiceName",
      "outputs": [],
      "payable": false,
      "stateMutability": "nonpayable",
      "type": "function"
    },
    {
      "constant": false,
      "inputs": [
        {
          "internalType": "string",
          "name": "serviceName",
          "type": "string"
        },
        {
          "internalType": "string",
          "name": "oldName",
          "type": "string"
        },
        {
          "internalType": "string",
          "name": "newName",
          "type": "string"
        }
      ],
      "name": "editSubServiceName",
      "outputs": [],
      "payable": false,
      "stateMutability": "nonpayable",
      "type": "function"
    },
    {
      "constant": true,
      "inputs": [],
      "name": "getAllDealerApplications",
      "outputs": [
        {
          "internalType": "bytes32[]",
          "name": "",
          "type": "bytes32[]"
        }
      ],
      "payable": false,
      "stateMutability": "view",
      "type": "function"
    },
    {
      "constant": true,
      "inputs": [
        {
          "internalType": "bytes32",
          "name": "id",
          "type": "bytes32"
        }
      ],
      "name": "getDealerInfo",
      "outputs": [
        {
          "components": [
            {
              "internalType": "string",
              "name": "dealerName",
              "type": "string"
            },
            {
              "internalType": "string",
              "name": "addr",
              "type": "string"
            },
            {
              "internalType": "string",
              "name": "location",
              "type": "string"
            },
            {
              "internalType": "string",
              "name": "phoneNo",
              "type": "string"
            },
            {
              "internalType": "string[]",
              "name": "availableServices",
              "type": "string[]"
            },
            {
              "internalType": "string[][]",
              "name": "availableSubServices",
              "type": "string[][]"
            }
          ],
          "internalType": "struct DealerContract.DealerInfo",
          "name": "",
          "type": "tuple"
        }
      ],
      "payable": false,
      "stateMutability": "view",
      "type": "function"
    },
    {
      "constant": true,
      "inputs": [
        {
          "internalType": "string",
          "name": "id",
          "type": "string"
        }
      ],
      "name": "getHash",
      "outputs": [
        {
          "internalType": "bytes32",
          "name": "",
          "type": "bytes32"
        }
      ],
      "payable": false,
      "stateMutability": "pure",
      "type": "function"
    },
    {
      "constant": true,
      "inputs": [],
      "name": "getServices",
      "outputs": [
        {
          "internalType": "string[]",
          "name": "",
          "type": "string[]"
        }
      ],
      "payable": false,
      "stateMutability": "view",
      "type": "function"
    },
    {
      "constant": true,
      "inputs": [
        {
          "internalType": "string",
          "name": "serviceName",
          "type": "string"
        }
      ],
      "name": "getSubServices",
      "outputs": [
        {
          "internalType": "string[]",
          "name": "",
          "type": "string[]"
        }
      ],
      "payable": false,
      "stateMutability": "view",
      "type": "function"
    },
    {
      "constant": true,
      "inputs": [
        {
          "internalType": "bytes32",
          "name": "adr",
          "type": "bytes32"
        }
      ],
      "name": "isVerified",
      "outputs": [
        {
          "internalType": "bool",
          "name": "",
          "type": "bool"
        }
      ],
      "payable": false,
      "stateMutability": "view",
      "type": "function"
    },
    {
      "constant": false,
      "inputs": [
        {
          "internalType": "bytes32",
          "name": "dealershipId",
          "type": "bytes32"
        },
        {
          "internalType": "bytes32",
          "name": "otherId",
          "type": "bytes32"
        }
      ],
      "name": "transferDealershipOwner",
      "outputs": [],
      "payable": false,
      "stateMutability": "nonpayable",
      "type": "function"
    },
    {
      "constant": false,
      "inputs": [
        {
          "internalType": "address",
          "name": "newOwner",
          "type": "address"
        }
      ],
      "name": "transferOwner",
      "outputs": [],
      "payable": false,
      "stateMutability": "nonpayable",
      "type": "function"
    },
    {
      "constant": false,
      "inputs": [
        {
          "internalType": "bytes32",
          "name": "userId",
          "type": "bytes32"
        },
        {
          "components": [
            {
              "internalType": "string",
              "name": "firstName",
              "type": "string"
            },
            {
              "internalType": "string",
              "name": "lastName",
              "type": "string"
            },
            {
              "internalType": "string",
              "name": "adr",
              "type": "string"
            },
            {
              "internalType": "string",
              "name": "phNo",
              "type": "string"
            },
            {
              "internalType": "string",
              "name": "email",
              "type": "string"
            }
          ],
          "internalType": "struct UserContract.UserInfo",
          "name": "info",
          "type": "tuple"
        }
      ],
      "name": "editUserInfo",
      "outputs": [],
      "payable": false,
      "stateMutability": "nonpayable",
      "type": "function"
    },
    {
      "constant": true,
      "inputs": [
        {
          "internalType": "bytes32",
          "name": "userId",
          "type": "bytes32"
        }
      ],
      "name": "getUserInfo",
      "outputs": [
        {
          "components": [
            {
              "internalType": "string",
              "name": "firstName",
              "type": "string"
            },
            {
              "internalType": "string",
              "name": "lastName",
              "type": "string"
            },
            {
              "internalType": "string",
              "name": "adr",
              "type": "string"
            },
            {
              "internalType": "string",
              "name": "phNo",
              "type": "string"
            },
            {
              "internalType": "string",
              "name": "email",
              "type": "string"
            }
          ],
          "internalType": "struct UserContract.UserInfo",
          "name": "",
          "type": "tuple"
        }
      ],
      "payable": false,
      "stateMutability": "view",
      "type": "function"
    },
    {
      "constant": false,
      "inputs": [
        {
          "internalType": "bytes32",
          "name": "userId",
          "type": "bytes32"
        },
        {
          "internalType": "string",
          "name": "noPlate",
          "type": "string"
        },
        {
          "components": [
            {
              "internalType": "string",
              "name": "brand",
              "type": "string"
            },
            {
              "internalType": "string",
              "name": "model",
              "type": "string"
            },
            {
              "internalType": "string",
              "name": "year",
              "type": "string"
            }
          ],
          "internalType": "struct UserContract.CarInfo",
          "name": "carInfo",
          "type": "tuple"
        }
      ],
      "name": "editCarDetails",
      "outputs": [],
      "payable": false,
      "stateMutability": "nonpayable",
      "type": "function"
    },
    {
      "constant": true,
      "inputs": [
        {
          "internalType": "bytes32",
          "name": "userId",
          "type": "bytes32"
        }
      ],
      "name": "getCars",
      "outputs": [
        {
          "components": [
            {
              "internalType": "string",
              "name": "brand",
              "type": "string"
            },
            {
              "internalType": "string",
              "name": "model",
              "type": "string"
            },
            {
              "internalType": "string",
              "name": "year",
              "type": "string"
            }
          ],
          "internalType": "struct UserContract.CarInfo[]",
          "name": "",
          "type": "tuple[]"
        }
      ],
      "payable": false,
      "stateMutability": "view",
      "type": "function"
    },
    {
      "constant": false,
      "inputs": [
        {
          "internalType": "bytes32",
          "name": "dealerId",
          "type": "bytes32"
        },
        {
          "internalType": "bytes32",
          "name": "id",
          "type": "bytes32"
        },
        {
          "internalType": "string",
          "name": "noPlate",
          "type": "string"
        },
        {
          "internalType": "string[]",
          "name": "services",
          "type": "string[]"
        },
        {
          "internalType": "string[][]",
          "name": "subservices",
          "type": "string[][]"
        },
        {
          "internalType": "string",
          "name": "comment",
          "type": "string"
        }
      ],
      "name": "insertRecord",
      "outputs": [],
      "payable": false,
      "stateMutability": "nonpayable",
      "type": "function"
    },
    {
      "constant": true,
      "inputs": [
        {
          "internalType": "bytes32",
          "name": "id",
          "type": "bytes32"
        },
        {
          "internalType": "string",
          "name": "noPlate",
          "type": "string"
        }
      ],
      "name": "getRecords",
      "outputs": [
        {
          "components": [
            {
              "internalType": "string[]",
              "name": "services",
              "type": "string[]"
            },
            {
              "internalType": "string[][]",
              "name": "subservices",
              "type": "string[][]"
            },
            {
              "internalType": "string",
              "name": "comment",
              "type": "string"
            }
          ],
          "internalType": "struct UserContract.RecordInternal[]",
          "name": "",
          "type": "tuple[]"
        }
      ],
      "payable": false,
      "stateMutability": "view",
      "type": "function"
    }
  ],
  "bytecode": "0x608060405260fe600660016101000a81548160ff021916908360ff160217905550336000806101000a81548173ffffffffffffffffffffffffffffffffffffffff021916908373ffffffffffffffffffffffffffffffffffffffff160217905550614e288061006f6000396000f3fe608060405234801561001057600080fd5b50600436106101585760003560e01c806382d7afbd116100c3578063adff8b0f1161007c578063adff8b0f146103a9578063ba2ab17d146103d9578063c181b273146103f5578063c4e91d1714610425578063c9b54a5814610441578063e445268c1461047157610158565b806382d7afbd146102ed57806388fcd194146103095780638ee242141461032557806390f3d74414610341578063988aa4e71461035d578063a6157bec1461038d57610158565b806350fb95e31161011557806350fb95e3146102195780635b6beeb9146102355780636fd7d2b51461026557806375417851146102815780637d17f13c1461029f5780637e41667f146102cf57610158565b80630eb7bc8f1461015d5780631a4c85be146101795780631b8f47fe14610195578063369bfce4146101b1578063431a65fc146101cd5780634fb2e45d146101fd575b600080fd5b61017760048036036101729190810190613b00565b61048d565b005b610193600480360361018e9190810190613abf565b6105a0565b005b6101af60048036036101aa9190810190613821565b6106f4565b005b6101cb60048036036101c69190810190613b00565b61081e565b005b6101e760048036036101e29190810190613abf565b610946565b6040516101f491906147b3565b60405180910390f35b610217600480360361021291908101906137f8565b610a4d565b005b610233600480360361022e9190810190613b00565b610b1f565b005b61024f600480360361024a9190810190613abf565b610cc1565b60405161025c9190614834565b60405180910390f35b61027f600480360361027a9190810190613b6c565b610d39565b005b610289610e6b565b60405161029691906147b3565b60405180910390f35b6102b960048036036102b49190810190613821565b610ffe565b6040516102c691906149ef565b60405180910390f35b6102d76114cc565b6040516102e49190614791565b60405180910390f35b61030760048036036103029190810190613873565b6115b3565b005b610323600480360361031e9190810190613abf565b611751565b005b61033f600480360361033a91908101906139ec565b611962565b005b61035b60048036036103569190810190613c03565b611a8b565b005b61037760048036036103729190810190613998565b611bb6565b60405161038491906147f7565b60405180910390f35b6103a760048036036103a291908101906138af565b611ee4565b005b6103c360048036036103be9190810190613821565b61202e565b6040516103d09190614a11565b60405180910390f35b6103f360048036036103ee9190810190613c03565b612385565b005b61040f600480360361040a9190810190613821565b6124db565b60405161041c9190614819565b60405180910390f35b61043f600480360361043a9190810190613a6b565b612526565b005b61045b60048036036104569190810190613821565b6125d2565b60405161046891906147d5565b60405180910390f35b61048b60048036036104869190810190613873565b6128b0565b005b6000809054906101000a900473ffffffffffffffffffffffffffffffffffffffff1673ffffffffffffffffffffffffffffffffffffffff163373ffffffffffffffffffffffffffffffffffffffff161461051c576040517f08c379a00000000000000000000000000000000000000000000000000000000081526004016105139061490f565b60405180910390fd5b81610526816129c3565b610565576040517f08c379a000000000000000000000000000000000000000000000000000000000815260040161055c9061494f565b60405180910390fd5b8160076000610573866129ec565b60ff1660ff168152602001908152602001600020908051906020019061059a929190612ea9565b50505050565b6000809054906101000a900473ffffffffffffffffffffffffffffffffffffffff1673ffffffffffffffffffffffffffffffffffffffff163373ffffffffffffffffffffffffffffffffffffffff161461062f576040517f08c379a00000000000000000000000000000000000000000000000000000000081526004016106269061490f565b60405180910390fd5b80610639816129c3565b610678576040517f08c379a000000000000000000000000000000000000000000000000000000000815260040161066f9061494f565b60405180910390fd5b6040518060200160405280600081525060076000610695856129ec565b60ff1660ff16815260200190815260200160002090805190602001906106bc929190612ea9565b506006600081819054906101000a900460ff16809291906001900391906101000a81548160ff021916908360ff160217905550505050565b6000809054906101000a900473ffffffffffffffffffffffffffffffffffffffff1673ffffffffffffffffffffffffffffffffffffffff163373ffffffffffffffffffffffffffffffffffffffff1614610783576040517f08c379a000000000000000000000000000000000000000000000000000000000815260040161077a9061490f565b60405180910390fd5b600061078e82612b3a565b905060008112156107d4576040517f08c379a00000000000000000000000000000000000000000000000000000000081526004016107cb906148af565b60405180910390fd5b600180600084815260200190815260200160002060006101000a81548160ff0219169083151502179055506005818154811061080c57fe5b90600052602060002001600090555050565b6000809054906101000a900473ffffffffffffffffffffffffffffffffffffffff1673ffffffffffffffffffffffffffffffffffffffff163373ffffffffffffffffffffffffffffffffffffffff16146108ad576040517f08c379a00000000000000000000000000000000000000000000000000000000081526004016108a49061490f565b60405180910390fd5b81816108b98282612bae565b6108f8576040517f08c379a00000000000000000000000000000000000000000000000000000000081526004016108ef9061492f565b60405180910390fd5b6008846040516109089190614763565b90815260200160405180910390206109208585612bc5565b8154811061092a57fe5b9060005260206000200160006109409190612f29565b50505050565b60606008826040516109589190614763565b9081526020016040518091039020805480602002602001604051908101604052809291908181526020016000905b82821015610a42578382906000526020600020018054600181600116156101000203166002900480601f016020809104026020016040519081016040528092919081815260200182805460018160011615610100020316600290048015610a2e5780601f10610a0357610100808354040283529160200191610a2e565b820191906000526020600020905b815481529060010190602001808311610a1157829003601f168201915b505050505081526020019060010190610986565b505050509050919050565b6000809054906101000a900473ffffffffffffffffffffffffffffffffffffffff1673ffffffffffffffffffffffffffffffffffffffff163373ffffffffffffffffffffffffffffffffffffffff1614610adc576040517f08c379a0000000000000000000000000000000000000000000000000000000008152600401610ad39061490f565b60405180910390fd5b806000806101000a81548173ffffffffffffffffffffffffffffffffffffffff021916908373ffffffffffffffffffffffffffffffffffffffff16021790555050565b8160ff600882604051610b329190614763565b90815260200160405180910390208054905010610b84576040517f08c379a0000000000000000000000000000000000000000000000000000000008152600401610b7b906148cf565b60405180910390fd5b8282610b908282612bae565b15610bd0576040517f08c379a0000000000000000000000000000000000000000000000000000000008152600401610bc79061488f565b60405180910390fd5b6000809054906101000a900473ffffffffffffffffffffffffffffffffffffffff1673ffffffffffffffffffffffffffffffffffffffff163373ffffffffffffffffffffffffffffffffffffffff1614610c5f576040517f08c379a0000000000000000000000000000000000000000000000000000000008152600401610c569061490f565b60405180910390fd5b600885604051610c6f9190614763565b9081526020016040518091039020849080600181540180825580915050906001820390600052602060002001600090919290919091509080519060200190610cb8929190612ea9565b50505050505050565b6000600282604051602001610cd69190614763565b604051602081830303815290604052604051610cf2919061474c565b602060405180830381855afa158015610d0f573d6000803e3d6000fd5b5050506040513d601f19601f82011682018060405250610d32919081019061384a565b9050919050565b8282610d458282612bae565b610d84576040517f08c379a0000000000000000000000000000000000000000000000000000000008152600401610d7b9061492f565b60405180910390fd5b6000809054906101000a900473ffffffffffffffffffffffffffffffffffffffff1673ffffffffffffffffffffffffffffffffffffffff163373ffffffffffffffffffffffffffffffffffffffff1614610e13576040517f08c379a0000000000000000000000000000000000000000000000000000000008152600401610e0a9061490f565b60405180910390fd5b82600886604051610e249190614763565b9081526020016040518091039020610e3c8787612bc5565b81548110610e4657fe5b906000526020600020019080519060200190610e63929190612ea9565b505050505050565b606080600660009054906101000a900460ff1660ff16604051908082528060200260200182016040528015610eb457816020015b6060815260200190600190039081610e9f5790505b509050600080905060008090505b600660019054906101000a900460ff1660ff168160ff161015610ff5576000600760008360ff1660ff1681526020019081526020016000208054600181600116156101000203166002900490501115610fe857600760008260ff1660ff1681526020019081526020016000208054600181600116156101000203166002900480601f016020809104026020016040519081016040528092919081815260200182805460018160011615610100020316600290048015610fc25780601f10610f9757610100808354040283529160200191610fc2565b820191906000526020600020905b815481529060010190602001808311610fa557829003601f168201915b5050505050838380600101945060ff1681518110610fdc57fe5b60200260200101819052505b8080600101915050610ec2565b50819250505090565b611006612f71565b600460008381526020019081526020016000206040518060c0016040529081600082018054600181600116156101000203166002900480601f0160208091040260200160405190810160405280929190818152602001828054600181600116156101000203166002900480156110bd5780601f10611092576101008083540402835291602001916110bd565b820191906000526020600020905b8154815290600101906020018083116110a057829003601f168201915b50505050508152602001600182018054600181600116156101000203166002900480601f01602080910402602001604051908101604052809291908181526020018280546001816001161561010002031660029004801561115f5780601f106111345761010080835404028352916020019161115f565b820191906000526020600020905b81548152906001019060200180831161114257829003601f168201915b50505050508152602001600282018054600181600116156101000203166002900480601f0160208091040260200160405190810160405280929190818152602001828054600181600116156101000203166002900480156112015780601f106111d657610100808354040283529160200191611201565b820191906000526020600020905b8154815290600101906020018083116111e457829003601f168201915b50505050508152602001600382018054600181600116156101000203166002900480601f0160208091040260200160405190810160405280929190818152602001828054600181600116156101000203166002900480156112a35780601f10611278576101008083540402835291602001916112a3565b820191906000526020600020905b81548152906001019060200180831161128657829003601f168201915b5050505050815260200160048201805480602002602001604051908101604052809291908181526020016000905b8282101561138d578382906000526020600020018054600181600116156101000203166002900480601f0160208091040260200160405190810160405280929190818152602001828054600181600116156101000203166002900480156113795780601f1061134e57610100808354040283529160200191611379565b820191906000526020600020905b81548152906001019060200180831161135c57829003601f168201915b5050505050815260200190600101906112d1565b50505050815260200160058201805480602002602001604051908101604052809291908181526020016000905b828210156114bd57838290600052602060002001805480602002602001604051908101604052809291908181526020016000905b828210156114aa578382906000526020600020018054600181600116156101000203166002900480601f0160208091040260200160405190810160405280929190818152602001828054600181600116156101000203166002900480156114965780601f1061146b57610100808354040283529160200191611496565b820191906000526020600020905b81548152906001019060200180831161147957829003601f168201915b5050505050815260200190600101906113ee565b50505050815260200190600101906113ba565b50505050815250509050919050565b60606000809054906101000a900473ffffffffffffffffffffffffffffffffffffffff1673ffffffffffffffffffffffffffffffffffffffff163373ffffffffffffffffffffffffffffffffffffffff161461155d576040517f08c379a00000000000000000000000000000000000000000000000000000000081526004016115549061490f565b60405180910390fd5b60058054806020026020016040519081016040528092919081815260200182805480156115a957602002820191906000526020600020905b815481526020019060010190808311611595575b5050505050905090565b816001600082815260200190815260200160002060009054906101000a900460ff16611614576040517f08c379a000000000000000000000000000000000000000000000000000000000815260040161160b9061486f565b60405180910390fd5b600180600084815260200190815260200160002060006101000a81548160ff02191690831515021790555060006001600085815260200190815260200160002060006101000a81548160ff0219169083151502179055506000801b600360008481526020019081526020016000208190555060026000848152602001908152602001600020600260008481526020019081526020016000209080546116ba929190612fa7565b506002600084815260200190815260200160002060006116da9190612ff9565b60008090505b600260008481526020019081526020016000208054905081101561174b57826003600060026000878152602001908152602001600020848154811061172157fe5b906000526020600020015481526020019081526020016000208190555080806001019150506116e0565b50505050565b6000809054906101000a900473ffffffffffffffffffffffffffffffffffffffff1673ffffffffffffffffffffffffffffffffffffffff163373ffffffffffffffffffffffffffffffffffffffff16146117e0576040517f08c379a00000000000000000000000000000000000000000000000000000000081526004016117d79061490f565b60405180910390fd5b806117ea816129c3565b1561182a576040517f08c379a00000000000000000000000000000000000000000000000000000000081526004016118219061498f565b60405180910390fd5b600660019054906101000a900460ff1660ff16600660009054906101000a900460ff1660ff161115611891576040517f08c379a0000000000000000000000000000000000000000000000000000000008152600401611888906149af565b60405180910390fd5b60008090505b600660019054906101000a900460ff1660ff168160ff16101561195c576000600760008360ff1660ff1681526020019081526020016000208054600181600116156101000203166002900490501161194f5782600760008360ff1660ff1681526020019081526020016000209080519060200190611916929190612ea9565b506006600081819054906101000a900460ff168092919060010191906101000a81548160ff021916908360ff160217905550505061195e565b8080600101915050611897565b505b5050565b80600c836040516119739190614763565b9081526020016040518091039020600082015181600001908051906020019061199d92919061301a565b5060208201518160010190805190602001906119ba92919061301a565b5060408201518160020190805190602001906119d792919061301a565b5090505060006119e78484612d04565b90506000811215611a4757600b6000858152602001908152602001600020839080600181540180825580915050906001820390600052602060002001600090919290919091509080519060200190611a40929190612ea9565b5050611a85565b82600b60008681526020019081526020016000208281548110611a6657fe5b906000526020600020019080519060200190611a83929190612ea9565b505b50505050565b806001600082815260200190815260200160002060009054906101000a900460ff16611aec576040517f08c379a0000000000000000000000000000000000000000000000000000000008152600401611ae39061486f565b60405180910390fd5b82600460008481526020019081526020016000206000820151816000019080519060200190611b1c92919061301a565b506020820151816001019080519060200190611b3992919061301a565b506040820151816002019080519060200190611b5692919061301a565b506060820151816003019080519060200190611b7392919061301a565b506080820151816004019080519060200190611b9092919061309a565b5060a0820151816005019080519060200190611bad9291906130fa565b50905050505050565b606060096000848152602001908152602001600020805480602002602001604051908101604052809291908181526020016000905b82821015611ed8578382906000526020600020906003020160405180606001604052908160008201805480602002602001604051908101604052809291908181526020016000905b82821015611cef578382906000526020600020018054600181600116156101000203166002900480601f016020809104026020016040519081016040528092919081815260200182805460018160011615610100020316600290048015611cdb5780601f10611cb057610100808354040283529160200191611cdb565b820191906000526020600020905b815481529060010190602001808311611cbe57829003601f168201915b505050505081526020019060010190611c33565b50505050815260200160018201805480602002602001604051908101604052809291908181526020016000905b82821015611e1f57838290600052602060002001805480602002602001604051908101604052809291908181526020016000905b82821015611e0c578382906000526020600020018054600181600116156101000203166002900480601f016020809104026020016040519081016040528092919081815260200182805460018160011615610100020316600290048015611df85780601f10611dcd57610100808354040283529160200191611df8565b820191906000526020600020905b815481529060010190602001808311611ddb57829003601f168201915b505050505081526020019060010190611d50565b5050505081526020019060010190611d1c565b505050508152602001600282018054600181600116156101000203166002900480601f016020809104026020016040519081016040528092919081815260200182805460018160011615610100020316600290048015611ec05780601f10611e9557610100808354040283529160200191611ec0565b820191906000526020600020905b815481529060010190602001808311611ea357829003601f168201915b50505050508152505081526020019060010190611beb565b50505050905092915050565b85611eee816124db565b611f2d576040517f08c379a0000000000000000000000000000000000000000000000000000000008152600401611f24906149cf565b60405180910390fd5b835183511115611f72576040517f08c379a0000000000000000000000000000000000000000000000000000000008152600401611f69906148ef565b60405180910390fd5b60096000878152602001908152602001600020604051806060016040528086815260200185815260200184815250908060018154018082558091505090600182039060005260206000209060030201600090919290919091506000820151816000019080519060200190611fe792919061309a565b5060208201518160010190805190602001906120049291906130fa565b50604082015181600201908051906020019061202192919061301a565b5050505050505050505050565b61203661315a565b600a60008381526020019081526020016000206040518060a0016040529081600082018054600181600116156101000203166002900480601f0160208091040260200160405190810160405280929190818152602001828054600181600116156101000203166002900480156120ed5780601f106120c2576101008083540402835291602001916120ed565b820191906000526020600020905b8154815290600101906020018083116120d057829003601f168201915b50505050508152602001600182018054600181600116156101000203166002900480601f01602080910402602001604051908101604052809291908181526020018280546001816001161561010002031660029004801561218f5780601f106121645761010080835404028352916020019161218f565b820191906000526020600020905b81548152906001019060200180831161217257829003601f168201915b50505050508152602001600282018054600181600116156101000203166002900480601f0160208091040260200160405190810160405280929190818152602001828054600181600116156101000203166002900480156122315780601f1061220657610100808354040283529160200191612231565b820191906000526020600020905b81548152906001019060200180831161221457829003601f168201915b50505050508152602001600382018054600181600116156101000203166002900480601f0160208091040260200160405190810160405280929190818152602001828054600181600116156101000203166002900480156122d35780601f106122a8576101008083540402835291602001916122d3565b820191906000526020600020905b8154815290600101906020018083116122b657829003601f168201915b50505050508152602001600482018054600181600116156101000203166002900480601f0160208091040260200160405190810160405280929190818152602001828054600181600116156101000203166002900480156123755780601f1061234a57610100808354040283529160200191612375565b820191906000526020600020905b81548152906001019060200180831161235857829003601f168201915b5050505050815250509050919050565b6001600082815260200190815260200160002060009054906101000a900460ff16156123e6576040517f08c379a00000000000000000000000000000000000000000000000000000000081526004016123dd9061496f565b60405180910390fd5b8160046000838152602001908152602001600020600082015181600001908051906020019061241692919061301a565b50602082015181600101908051906020019061243392919061301a565b50604082015181600201908051906020019061245092919061301a565b50606082015181600301908051906020019061246d92919061301a565b50608082015181600401908051906020019061248a92919061309a565b5060a08201518160050190805190602001906124a79291906130fa565b5090505060058190806001815401808255809150509060018203906000526020600020016000909192909190915055505050565b60006001600083815260200190815260200160002060009054906101000a900460ff168061251f57506000801b600360008481526020019081526020016000205414155b9050919050565b80600a6000848152602001908152602001600020600082015181600001908051906020019061255692919061301a565b50602082015181600101908051906020019061257392919061301a565b50604082015181600201908051906020019061259092919061301a565b5060608201518160030190805190602001906125ad92919061301a565b5060808201518160040190805190602001906125ca92919061301a565b509050505050565b606080600b60008481526020019081526020016000208054905060405190808252806020026020018201604052801561262557816020015b612612613189565b81526020019060019003908161260a5790505b50905060008090505b600b6000858152602001908152602001600020805490508110156128a657600c600b6000868152602001908152602001600020828154811061266c57fe5b90600052602060002001604051612683919061477a565b9081526020016040518091039020604051806060016040529081600082018054600181600116156101000203166002900480601f0160208091040260200160405190810160405280929190818152602001828054600181600116156101000203166002900480156127355780601f1061270a57610100808354040283529160200191612735565b820191906000526020600020905b81548152906001019060200180831161271857829003601f168201915b50505050508152602001600182018054600181600116156101000203166002900480601f0160208091040260200160405190810160405280929190818152602001828054600181600116156101000203166002900480156127d75780601f106127ac576101008083540402835291602001916127d7565b820191906000526020600020905b8154815290600101906020018083116127ba57829003601f168201915b50505050508152602001600282018054600181600116156101000203166002900480601f0160208091040260200160405190810160405280929190818152602001828054600181600116156101000203166002900480156128795780601f1061284e57610100808354040283529160200191612879565b820191906000526020600020905b81548152906001019060200180831161285c57829003601f168201915b50505050508152505082828151811061288e57fe5b6020026020010181905250808060010191505061262e565b5080915050919050565b816001600082815260200190815260200160002060009054906101000a900460ff16612911576040517f08c379a00000000000000000000000000000000000000000000000000000000081526004016129089061486f565b60405180910390fd5b6000801b600360008481526020019081526020016000205414612969576040517f08c379a00000000000000000000000000000000000000000000000000000000081526004016129609061484f565b60405180910390fd5b60026000848152602001908152602001600020829080600181540180825580915050906001820390600052602060002001600090919290919091505550826003600084815260200190815260200160002081905550505050565b6000600660019054906101000a900460ff1660ff166129e1836129ec565b60ff16109050919050565b6000806129f883612e79565b905060008090505b600660019054906101000a900460ff1660ff168160ff161015612b2e576000600760008360ff1660ff168152602001908152602001600020805460018160011615610100020316600290049050118015612b12575081612b10600760008460ff1660ff1681526020019081526020016000208054600181600116156101000203166002900480601f016020809104026020016040519081016040528092919081815260200182805460018160011615610100020316600290048015612b065780601f10612adb57610100808354040283529160200191612b06565b820191906000526020600020905b815481529060010190602001808311612ae957829003601f168201915b5050505050612e79565b145b15612b21578092505050612b35565b8080600101915050612a00565b5060ff9150505b919050565b600080600090505b600580549050811015612b84578260058281548110612b5d57fe5b90600052602060002001541415612b775780915050612ba9565b8080600101915050612b42565b507fffffffffffffffffffffffffffffffffffffffffffffffffffffffffffffffff90505b919050565b600060ff612bbc8484612bc5565b10905092915050565b600080600090505b600884604051612bdd9190614763565b9081526020016040518091039020805490508160ff161015612cf857612c0283612e79565b612cd9600886604051612c159190614763565b90815260200160405180910390208360ff1681548110612c3157fe5b906000526020600020018054600181600116156101000203166002900480601f016020809104026020016040519081016040528092919081815260200182805460018160011615610100020316600290048015612ccf5780601f10612ca457610100808354040283529160200191612ccf565b820191906000526020600020905b815481529060010190602001808311612cb257829003601f168201915b5050505050612e79565b1415612ceb578060ff16915050612cfe565b8080600101915050612bcd565b5060ff90505b92915050565b600080600090505b600b600085815260200190815260200160002080549050816fffffffffffffffffffffffffffffffff161015612e4e57612d4583612e79565b612e20600b6000878152602001908152602001600020836fffffffffffffffffffffffffffffffff1681548110612d7857fe5b906000526020600020018054600181600116156101000203166002900480601f016020809104026020016040519081016040528092919081815260200182805460018160011615610100020316600290048015612e165780601f10612deb57610100808354040283529160200191612e16565b820191906000526020600020905b815481529060010190602001808311612df957829003601f168201915b5050505050612e79565b1415612e4157806fffffffffffffffffffffffffffffffff16915050612e73565b8080600101915050612d0c565b507fffffffffffffffffffffffffffffffffffffffffffffffffffffffffffffffff90505b92915050565b600081604051602001612e8c9190614763565b604051602081830303815290604052805190602001209050919050565b828054600181600116156101000203166002900490600052602060002090601f016020900481019282601f10612eea57805160ff1916838001178555612f18565b82800160010185558215612f18579182015b82811115612f17578251825591602001919060010190612efc565b5b509050612f2591906131aa565b5090565b50805460018160011615610100020316600290046000825580601f10612f4f5750612f6e565b601f016020900490600052602060002090810190612f6d91906131aa565b5b50565b6040518060c001604052806060815260200160608152602001606081526020016060815260200160608152602001606081525090565b828054828255906000526020600020908101928215612fe85760005260206000209182015b82811115612fe7578254825591600101919060010190612fcc565b5b509050612ff591906131cf565b5090565b508054600082559060005260206000209081019061301791906131cf565b50565b828054600181600116156101000203166002900490600052602060002090601f016020900481019282601f1061305b57805160ff1916838001178555613089565b82800160010185558215613089579182015b8281111561308857825182559160200191906001019061306d565b5b50905061309691906131aa565b5090565b8280548282559060005260206000209081019282156130e9579160200282015b828111156130e85782518290805190602001906130d892919061301a565b50916020019190600101906130ba565b5b5090506130f691906131f4565b5090565b828054828255906000526020600020908101928215613149579160200282015b8281111561314857825182908051906020019061313892919061309a565b509160200191906001019061311a565b5b5090506131569190613220565b5090565b6040518060a0016040528060608152602001606081526020016060815260200160608152602001606081525090565b60405180606001604052806060815260200160608152602001606081525090565b6131cc91905b808211156131c85760008160009055506001016131b0565b5090565b90565b6131f191905b808211156131ed5760008160009055506001016131d5565b5090565b90565b61321d91905b8082111561321957600081816132109190612f29565b506001016131fa565b5090565b90565b61324991905b80821115613245576000818161323c919061324c565b50600101613226565b5090565b90565b508054600082559060005260206000209081019061326a91906131f4565b50565b60008135905061327c81614db7565b92915050565b600082601f83011261329357600080fd5b81356132a66132a182614a60565b614a33565b9150818183526020840193506020810190508360005b838110156132ec57813586016132d2888261336a565b8452602084019350602083019250506001810190506132bc565b5050505092915050565b600082601f83011261330757600080fd5b813561331a61331582614a88565b614a33565b9150818183526020840193506020810190508360005b838110156133605781358601613346888261336a565b845260208401935060208301925050600181019050613330565b5050505092915050565b600082601f83011261337b57600080fd5b813561338e61338982614ab0565b614a33565b9150818183526020840193506020810190508360005b838110156133d457813586016133ba888261347c565b8452602084019350602083019250506001810190506133a4565b5050505092915050565b600082601f8301126133ef57600080fd5b81356134026133fd82614ad8565b614a33565b9150818183526020840193506020810190508360005b83811015613448578135860161342e888261347c565b845260208401935060208301925050600181019050613418565b5050505092915050565b60008135905061346181614dce565b92915050565b60008151905061347681614dce565b92915050565b600082601f83011261348d57600080fd5b81356134a061349b82614b00565b614a33565b915080825260208301602083018583830111156134bc57600080fd5b6134c7838284614d64565b50505092915050565b600082601f8301126134e157600080fd5b81356134f46134ef82614b2c565b614a33565b9150808252602083016020830185838301111561351057600080fd5b61351b838284614d64565b50505092915050565b60006060828403121561353657600080fd5b6135406060614a33565b9050600082013567ffffffffffffffff81111561355c57600080fd5b6135688482850161347c565b600083015250602082013567ffffffffffffffff81111561358857600080fd5b6135948482850161347c565b602083015250604082013567ffffffffffffffff8111156135b457600080fd5b6135c08482850161347c565b60408301525092915050565b600060c082840312156135de57600080fd5b6135e860c0614a33565b9050600082013567ffffffffffffffff81111561360457600080fd5b6136108482850161347c565b600083015250602082013567ffffffffffffffff81111561363057600080fd5b61363c8482850161347c565b602083015250604082013567ffffffffffffffff81111561365c57600080fd5b6136688482850161347c565b604083015250606082013567ffffffffffffffff81111561368857600080fd5b6136948482850161347c565b606083015250608082013567ffffffffffffffff8111156136b457600080fd5b6136c08482850161336a565b60808301525060a082013567ffffffffffffffff8111156136e057600080fd5b6136ec84828501613282565b60a08301525092915050565b600060a0828403121561370a57600080fd5b61371460a0614a33565b9050600082013567ffffffffffffffff81111561373057600080fd5b61373c8482850161347c565b600083015250602082013567ffffffffffffffff81111561375c57600080fd5b6137688482850161347c565b602083015250604082013567ffffffffffffffff81111561378857600080fd5b6137948482850161347c565b604083015250606082013567ffffffffffffffff8111156137b457600080fd5b6137c08482850161347c565b606083015250608082013567ffffffffffffffff8111156137e057600080fd5b6137ec8482850161347c565b60808301525092915050565b60006020828403121561380a57600080fd5b60006138188482850161326d565b91505092915050565b60006020828403121561383357600080fd5b600061384184828501613452565b91505092915050565b60006020828403121561385c57600080fd5b600061386a84828501613467565b91505092915050565b6000806040838503121561388657600080fd5b600061389485828601613452565b92505060206138a585828601613452565b9150509250929050565b60008060008060008060c087890312156138c857600080fd5b60006138d689828a01613452565b96505060206138e789828a01613452565b955050604087013567ffffffffffffffff81111561390457600080fd5b61391089828a016134d0565b945050606087013567ffffffffffffffff81111561392d57600080fd5b61393989828a016133de565b935050608087013567ffffffffffffffff81111561395657600080fd5b61396289828a016132f6565b92505060a087013567ffffffffffffffff81111561397f57600080fd5b61398b89828a016134d0565b9150509295509295509295565b600080604083850312156139ab57600080fd5b60006139b985828601613452565b925050602083013567ffffffffffffffff8111156139d657600080fd5b6139e2858286016134d0565b9150509250929050565b600080600060608486031215613a0157600080fd5b6000613a0f86828701613452565b935050602084013567ffffffffffffffff811115613a2c57600080fd5b613a38868287016134d0565b925050604084013567ffffffffffffffff811115613a5557600080fd5b613a6186828701613524565b9150509250925092565b60008060408385031215613a7e57600080fd5b6000613a8c85828601613452565b925050602083013567ffffffffffffffff811115613aa957600080fd5b613ab5858286016136f8565b9150509250929050565b600060208284031215613ad157600080fd5b600082013567ffffffffffffffff811115613aeb57600080fd5b613af7848285016134d0565b91505092915050565b60008060408385031215613b1357600080fd5b600083013567ffffffffffffffff811115613b2d57600080fd5b613b39858286016134d0565b925050602083013567ffffffffffffffff811115613b5657600080fd5b613b62858286016134d0565b9150509250929050565b600080600060608486031215613b8157600080fd5b600084013567ffffffffffffffff811115613b9b57600080fd5b613ba7868287016134d0565b935050602084013567ffffffffffffffff811115613bc457600080fd5b613bd0868287016134d0565b925050604084013567ffffffffffffffff811115613bed57600080fd5b613bf9868287016134d0565b9150509250925092565b60008060408385031215613c1657600080fd5b600083013567ffffffffffffffff811115613c3057600080fd5b613c3c858286016135cc565b9250506020613c4d85828601613452565b9150509250929050565b6000613c638383613e07565b905092915050565b6000613c778383613f75565b60208301905092915050565b6000613c8f8383613ff5565b905092915050565b6000613ca38383614552565b905092915050565b6000613cb7838361465c565b905092915050565b6000613cca82614bcd565b613cd48185614c7e565b935083602082028501613ce685614b58565b8060005b85811015613d225784840389528151613d038582613c57565b9450613d0e83614c30565b925060208a01995050600181019050613cea565b50829750879550505050505092915050565b6000613d3f82614bd8565b613d498185614c8f565b9350613d5483614b68565b8060005b83811015613d85578151613d6c8882613c6b565b9750613d7783614c3d565b925050600181019050613d58565b5085935050505092915050565b6000613d9d82614bee565b613da78185614cb1565b935083602082028501613db985614b88565b8060005b85811015613df55784840389528151613dd68582613c83565b9450613de183614c57565b925060208a01995050600181019050613dbd565b50829750879550505050505092915050565b6000613e1282614be3565b613e1c8185614ca0565b935083602082028501613e2e85614b78565b8060005b85811015613e6a5784840389528151613e4b8582613c83565b9450613e5683614c4a565b925060208a01995050600181019050613e32565b50829750879550505050505092915050565b6000613e8782614bf9565b613e918185614cc2565b935083602082028501613ea385614b98565b8060005b85811015613edf5784840389528151613ec08582613c97565b9450613ecb83614c64565b925060208a01995050600181019050613ea7565b50829750879550505050505092915050565b6000613efc82614c04565b613f068185614cd3565b935083602082028501613f1885614ba8565b8060005b85811015613f545784840389528151613f358582613cab565b9450613f4083614c71565b925060208a01995050600181019050613f1c565b50829750879550505050505092915050565b613f6f81614d2e565b82525050565b613f7e81614d3a565b82525050565b613f8d81614d3a565b82525050565b6000613f9e82614c0f565b613fa88185614ce4565b9350613fb8818560208601614d73565b80840191505092915050565b6000613fcf82614c25565b613fd98185614d11565b9350613fe9818560208601614d73565b80840191505092915050565b600061400082614c1a565b61400a8185614cef565b935061401a818560208601614d73565b61402381614da6565b840191505092915050565b60008154600181166000811461404b5760018114614070576140b4565b607f600283041661405c8187614d11565b955060ff19831686528086019350506140b4565b6002820461407e8187614d11565b955061408985614bb8565b60005b828110156140ab5781548189015260018201915060208101905061408c565b82880195505050505b505092915050565b60006140c9602183614d00565b91507f5468617420656d706c6f79656520616c726561647920776f726b73207468657260008301527f65000000000000000000000000000000000000000000000000000000000000006020830152604082019050919050565b600061412f602983614d00565b91507f596f75206d7573742062652061206465616c657273686970206f776e6572207460008301527f6f20646f207468697300000000000000000000000000000000000000000000006020830152604082019050919050565b6000614195601e83614d00565b91507f54686174207375627365727669636520616c72656164792065786973747300006000830152602082019050919050565b60006141d5602183614d00565b91507f4e6f206170706c69636174696f6e2065786973747320666f722074686174206960008301527f64000000000000000000000000000000000000000000000000000000000000006020830152604082019050919050565b600061423b602183614d00565b91507f4d6178696d756d207375627365727669636520616d6f756e742072656163686560008301527f64000000000000000000000000000000000000000000000000000000000000006020830152604082019050919050565b60006142a1603383614d00565b91507f4e756d626572206f6620737562736572766963657320646f6573206e6f74206d60008301527f617463682073657276696365206c656e677468000000000000000000000000006020830152604082019050919050565b6000614307601583614d00565b91507f596f7520617265206e6f7420746865206f776e657200000000000000000000006000830152602082019050919050565b6000614347602c83614d00565b91507f54686174207375627365727669636520646f65736e7420657869737420696e2060008301527f7468697320636f6e7465787400000000000000000000000000000000000000006020830152604082019050919050565b60006143ad601b83614d00565b91507f54686174207365727669636520646f6573206e6f7420657869737400000000006000830152602082019050919050565b60006143ed602283614d00565b91507f54686174206164647265737320697320616c726561647920726567697374657260008301527f65640000000000000000000000000000000000000000000000000000000000006020830152604082019050919050565b6000614453601b83614d00565b91507f54686174207365727669636520616c72656164792065786973747300000000006000830152602082019050919050565b6000614493602883614d00565b91507f54686572652061726520746865206d6178696d756d206e756d626572206f662060008301527f73657276696365730000000000000000000000000000000000000000000000006020830152604082019050919050565b60006144f9602883614d00565b91507f596f75206d7573742062652061207665726966696564206465616c657220746f60008301527f20646f20746869730000000000000000000000000000000000000000000000006020830152604082019050919050565b6000606083016000830151848203600086015261456f8282613ff5565b915050602083015184820360208601526145898282613ff5565b915050604083015184820360408601526145a38282613ff5565b9150508091505092915050565b600060c08301600083015184820360008601526145cd8282613ff5565b915050602083015184820360208601526145e78282613ff5565b915050604083015184820360408601526146018282613ff5565b9150506060830151848203606086015261461b8282613ff5565b915050608083015184820360808601526146358282613e07565b91505060a083015184820360a086015261464f8282613cbf565b9150508091505092915050565b600060608301600083015184820360008601526146798282613e07565b915050602083015184820360208601526146938282613cbf565b915050604083015184820360408601526146ad8282613ff5565b9150508091505092915050565b600060a08301600083015184820360008601526146d78282613ff5565b915050602083015184820360208601526146f18282613ff5565b9150506040830151848203604086015261470b8282613ff5565b915050606083015184820360608601526147258282613ff5565b9150506080830151848203608086015261473f8282613ff5565b9150508091505092915050565b60006147588284613f93565b915081905092915050565b600061476f8284613fc4565b915081905092915050565b6000614786828461402e565b915081905092915050565b600060208201905081810360008301526147ab8184613d34565b905092915050565b600060208201905081810360008301526147cd8184613d92565b905092915050565b600060208201905081810360008301526147ef8184613e7c565b905092915050565b600060208201905081810360008301526148118184613ef1565b905092915050565b600060208201905061482e6000830184613f66565b92915050565b60006020820190506148496000830184613f84565b92915050565b60006020820190508181036000830152614868816140bc565b9050919050565b6000602082019050818103600083015261488881614122565b9050919050565b600060208201905081810360008301526148a881614188565b9050919050565b600060208201905081810360008301526148c8816141c8565b9050919050565b600060208201905081810360008301526148e88161422e565b9050919050565b6000602082019050818103600083015261490881614294565b9050919050565b60006020820190508181036000830152614928816142fa565b9050919050565b600060208201905081810360008301526149488161433a565b9050919050565b60006020820190508181036000830152614968816143a0565b9050919050565b60006020820190508181036000830152614988816143e0565b9050919050565b600060208201905081810360008301526149a881614446565b9050919050565b600060208201905081810360008301526149c881614486565b9050919050565b600060208201905081810360008301526149e8816144ec565b9050919050565b60006020820190508181036000830152614a0981846145b0565b905092915050565b60006020820190508181036000830152614a2b81846146ba565b905092915050565b6000604051905081810181811067ffffffffffffffff82111715614a5657600080fd5b8060405250919050565b600067ffffffffffffffff821115614a7757600080fd5b602082029050602081019050919050565b600067ffffffffffffffff821115614a9f57600080fd5b602082029050602081019050919050565b600067ffffffffffffffff821115614ac757600080fd5b602082029050602081019050919050565b600067ffffffffffffffff821115614aef57600080fd5b602082029050602081019050919050565b600067ffffffffffffffff821115614b1757600080fd5b601f19601f8301169050602081019050919050565b600067ffffffffffffffff821115614b4357600080fd5b601f19601f8301169050602081019050919050565b6000819050602082019050919050565b6000819050602082019050919050565b6000819050602082019050919050565b6000819050602082019050919050565b6000819050602082019050919050565b6000819050602082019050919050565b60008190508160005260206000209050919050565b600081519050919050565b600081519050919050565b600081519050919050565b600081519050919050565b600081519050919050565b600081519050919050565b600081519050919050565b600081519050919050565b600081519050919050565b6000602082019050919050565b6000602082019050919050565b6000602082019050919050565b6000602082019050919050565b6000602082019050919050565b6000602082019050919050565b600082825260208201905092915050565b600082825260208201905092915050565b600082825260208201905092915050565b600082825260208201905092915050565b600082825260208201905092915050565b600082825260208201905092915050565b600081905092915050565b600082825260208201905092915050565b600082825260208201905092915050565b600081905092915050565b6000614d2782614d44565b9050919050565b60008115159050919050565b6000819050919050565b600073ffffffffffffffffffffffffffffffffffffffff82169050919050565b82818337600083830152505050565b60005b83811015614d91578082015181840152602081019050614d76565b83811115614da0576000848401525b50505050565b6000601f19601f8301169050919050565b614dc081614d1c565b8114614dcb57600080fd5b50565b614dd781614d3a565b8114614de257600080fd5b5056fea365627a7a723158208147014966116789b552440ce8f25274a3b247744abb7ae40fd031793dd0db2b6c6578706572696d656e74616cf564736f6c634300050c0040",
  "source": "pragma solidity ^0.5.11;\npragma experimental ABIEncoderV2;\n\nimport \"./ServiceHandler.sol\";\n\ncontract UserContract is ServiceHandler {\n\n    struct RecordInternal {\n        string[] services;\n        string[][] subservices;\n        string comment;\n    }\n    struct UserInfo {\n        string firstName;\n        string lastName;\n        string adr;\n        string phNo;\n        string email;\n    }\n    struct CarInfo{\n        string brand;\n        string model;\n        string year;\n    }\n\n    //------------------------------------------------------------_Records_---------------------------------------------\n\n    mapping(bytes32 => RecordInternal[]) private userRecords;\n    mapping(bytes32 => UserInfo) private userInfoRecords;\n    mapping(bytes32 => string[]) private userCars;\n    mapping(string => CarInfo) private carDetails;\n\n    function editUserInfo(bytes32 userId, UserInfo memory info) public {\n        userInfoRecords[userId] = info;\n    }\n\n    function getUserInfo(bytes32 userId) public view returns(UserInfo memory) {\n        return userInfoRecords[userId];\n    }\n\n    function editCarDetails(bytes32 userId, string memory noPlate, CarInfo memory carInfo) public{\n        carDetails[noPlate] = carInfo;\n        int index = getCarIndex(userId,noPlate);\n        if(index < 0){\n            userCars[userId].push(noPlate);\n        }\n        else{\n            userCars[userId][uint(index)] = noPlate;\n        }\n    }\n\n    function getCarIndex(bytes32 userId, string memory noPlate) internal view returns (int){\n        for(uint128 i = 0; i < userCars[userId].length; i++){\n            if(encode(userCars[userId][i]) == encode(noPlate)) return i;\n        }\n        return -1;\n    }\n\n    function getCars(bytes32 userId) public view returns(CarInfo[] memory){\n        CarInfo[] memory cars = new CarInfo[](userCars[userId].length);\n        for(uint i = 0; i < userCars[userId].length;i++) {\n            cars[i] = carDetails[userCars[userId][i]];\n        }\n        return cars;\n    }\n\n    function insertRecord(bytes32 dealerId, bytes32 id, string memory noPlate, string[] memory services, string[][] memory subservices,string memory comment) public verified(dealerId){\n        require(subservices.length <= services.length,\"Number of subservices does not match service length\");\n        userRecords[id].push(RecordInternal(services,subservices,comment));\n    }\n\n    //TODO Change records to be car specific and not user specific\n\n    function getRecords(bytes32 id, string memory noPlate) public view returns (RecordInternal[] memory){\n        return userRecords[id];\n    }\n\n}\n",
  "sourcePath": "/Users/mapring/Documents/school/blockchain/blockchain-project-2019/contracts/UserContract.sol",
  "compiler": {
    "name": "solc",
    "version": "0.5.12+commit.7709ece9.Emscripten.clang"
  },
  "schemaVersion": "3.0.19",
  "updatedAt": "2019-11-21T13:02:13.684Z",
  "networkType": "ethereum",
  "devdoc": {
    "methods": {}
  },
  "userdoc": {
    "methods": {}
  }
}