{
  "contractName": "UserContract",
  "abi": [
    {
      "anonymous": false,
      "inputs": [
        {
          "components": [
            {
              "internalType": "string",
              "name": "dealerName",
              "type": "string"
            },
            {
              "internalType": "string",
              "name": "firstName",
              "type": "string"
            },
            {
              "internalType": "string",
              "name": "lastName",
              "type": "string"
            },
            {
              "internalType": "string",
              "name": "addr",
              "type": "string"
            },
            {
              "internalType": "string[2]",
              "name": "location",
              "type": "string[2]"
            },
            {
              "internalType": "string",
              "name": "phoneNo",
              "type": "string"
            },
            {
              "internalType": "string",
              "name": "bestSeller",
              "type": "string"
            },
            {
              "internalType": "string",
              "name": "promotion",
              "type": "string"
            },
            {
              "internalType": "string",
              "name": "otherServices",
              "type": "string"
            },
            {
              "internalType": "string[]",
              "name": "availableServices",
              "type": "string[]"
            },
            {
              "internalType": "string[][]",
              "name": "availableSubServices",
              "type": "string[][]"
            }
          ],
          "indexed": false,
          "internalType": "struct DealerContract.DealerInfo",
          "name": "info",
          "type": "tuple"
        },
        {
          "indexed": false,
          "internalType": "bytes32",
          "name": "id",
          "type": "bytes32"
        }
      ],
      "name": "CreateDealerApplication",
      "type": "event"
    },
    {
      "constant": false,
      "inputs": [
        {
          "internalType": "bytes32",
          "name": "dealerId",
          "type": "bytes32"
        },
        {
          "internalType": "bytes32",
          "name": "adr",
          "type": "bytes32"
        }
      ],
      "name": "addDealerEmployee",
      "outputs": [],
      "payable": false,
      "stateMutability": "nonpayable",
      "type": "function"
    },
    {
      "constant": false,
      "inputs": [
        {
          "internalType": "string",
          "name": "serviceName",
          "type": "string"
        }
      ],
      "name": "addService",
      "outputs": [],
      "payable": false,
      "stateMutability": "nonpayable",
      "type": "function"
    },
    {
      "constant": false,
      "inputs": [
        {
          "internalType": "string",
          "name": "serviceName",
          "type": "string"
        },
        {
          "internalType": "string",
          "name": "subServiceName",
          "type": "string"
        }
      ],
      "name": "addSubService",
      "outputs": [],
      "payable": false,
      "stateMutability": "nonpayable",
      "type": "function"
    },
    {
      "constant": false,
      "inputs": [
        {
          "internalType": "bytes32",
          "name": "adr",
          "type": "bytes32"
        }
      ],
      "name": "approveApplication",
      "outputs": [],
      "payable": false,
      "stateMutability": "nonpayable",
      "type": "function"
    },
    {
      "constant": false,
      "inputs": [
        {
          "components": [
            {
              "internalType": "string",
              "name": "dealerName",
              "type": "string"
            },
            {
              "internalType": "string",
              "name": "firstName",
              "type": "string"
            },
            {
              "internalType": "string",
              "name": "lastName",
              "type": "string"
            },
            {
              "internalType": "string",
              "name": "addr",
              "type": "string"
            },
            {
              "internalType": "string[2]",
              "name": "location",
              "type": "string[2]"
            },
            {
              "internalType": "string",
              "name": "phoneNo",
              "type": "string"
            },
            {
              "internalType": "string",
              "name": "bestSeller",
              "type": "string"
            },
            {
              "internalType": "string",
              "name": "promotion",
              "type": "string"
            },
            {
              "internalType": "string",
              "name": "otherServices",
              "type": "string"
            },
            {
              "internalType": "string[]",
              "name": "availableServices",
              "type": "string[]"
            },
            {
              "internalType": "string[][]",
              "name": "availableSubServices",
              "type": "string[][]"
            }
          ],
          "internalType": "struct DealerContract.DealerInfo",
          "name": "info",
          "type": "tuple"
        },
        {
          "internalType": "bytes32",
          "name": "id",
          "type": "bytes32"
        }
      ],
      "name": "createDealerApplication",
      "outputs": [],
      "payable": false,
      "stateMutability": "nonpayable",
      "type": "function"
    },
    {
      "constant": false,
      "inputs": [
        {
          "internalType": "string",
          "name": "serviceName",
          "type": "string"
        }
      ],
      "name": "deleteService",
      "outputs": [],
      "payable": false,
      "stateMutability": "nonpayable",
      "type": "function"
    },
    {
      "constant": false,
      "inputs": [
        {
          "internalType": "string",
          "name": "serviceName",
          "type": "string"
        },
        {
          "internalType": "string",
          "name": "subServiceName",
          "type": "string"
        }
      ],
      "name": "deleteSubService",
      "outputs": [],
      "payable": false,
      "stateMutability": "nonpayable",
      "type": "function"
    },
    {
      "constant": false,
      "inputs": [
        {
          "components": [
            {
              "internalType": "string",
              "name": "dealerName",
              "type": "string"
            },
            {
              "internalType": "string",
              "name": "firstName",
              "type": "string"
            },
            {
              "internalType": "string",
              "name": "lastName",
              "type": "string"
            },
            {
              "internalType": "string",
              "name": "addr",
              "type": "string"
            },
            {
              "internalType": "string[2]",
              "name": "location",
              "type": "string[2]"
            },
            {
              "internalType": "string",
              "name": "phoneNo",
              "type": "string"
            },
            {
              "internalType": "string",
              "name": "bestSeller",
              "type": "string"
            },
            {
              "internalType": "string",
              "name": "promotion",
              "type": "string"
            },
            {
              "internalType": "string",
              "name": "otherServices",
              "type": "string"
            },
            {
              "internalType": "string[]",
              "name": "availableServices",
              "type": "string[]"
            },
            {
              "internalType": "string[][]",
              "name": "availableSubServices",
              "type": "string[][]"
            }
          ],
          "internalType": "struct DealerContract.DealerInfo",
          "name": "info",
          "type": "tuple"
        },
        {
          "internalType": "bytes32",
          "name": "id",
          "type": "bytes32"
        }
      ],
      "name": "editDealerInfo",
      "outputs": [],
      "payable": false,
      "stateMutability": "nonpayable",
      "type": "function"
    },
    {
      "constant": false,
      "inputs": [
        {
          "internalType": "string",
          "name": "oldName",
          "type": "string"
        },
        {
          "internalType": "string",
          "name": "newName",
          "type": "string"
        }
      ],
      "name": "editServiceName",
      "outputs": [],
      "payable": false,
      "stateMutability": "nonpayable",
      "type": "function"
    },
    {
      "constant": false,
      "inputs": [
        {
          "internalType": "string",
          "name": "serviceName",
          "type": "string"
        },
        {
          "internalType": "string",
          "name": "oldName",
          "type": "string"
        },
        {
          "internalType": "string",
          "name": "newName",
          "type": "string"
        }
      ],
      "name": "editSubServiceName",
      "outputs": [],
      "payable": false,
      "stateMutability": "nonpayable",
      "type": "function"
    },
    {
      "constant": true,
      "inputs": [],
      "name": "getAllDealerApplications",
      "outputs": [
        {
          "internalType": "bytes32[]",
          "name": "",
          "type": "bytes32[]"
        }
      ],
      "payable": false,
      "stateMutability": "view",
      "type": "function"
    },
    {
      "constant": true,
      "inputs": [
        {
          "internalType": "bytes32",
          "name": "id",
          "type": "bytes32"
        }
      ],
      "name": "getDealerInfo",
      "outputs": [
        {
          "components": [
            {
              "internalType": "string",
              "name": "dealerName",
              "type": "string"
            },
            {
              "internalType": "string",
              "name": "firstName",
              "type": "string"
            },
            {
              "internalType": "string",
              "name": "lastName",
              "type": "string"
            },
            {
              "internalType": "string",
              "name": "addr",
              "type": "string"
            },
            {
              "internalType": "string[2]",
              "name": "location",
              "type": "string[2]"
            },
            {
              "internalType": "string",
              "name": "phoneNo",
              "type": "string"
            },
            {
              "internalType": "string",
              "name": "bestSeller",
              "type": "string"
            },
            {
              "internalType": "string",
              "name": "promotion",
              "type": "string"
            },
            {
              "internalType": "string",
              "name": "otherServices",
              "type": "string"
            },
            {
              "internalType": "string[]",
              "name": "availableServices",
              "type": "string[]"
            },
            {
              "internalType": "string[][]",
              "name": "availableSubServices",
              "type": "string[][]"
            }
          ],
          "internalType": "struct DealerContract.DealerInfo",
          "name": "",
          "type": "tuple"
        }
      ],
      "payable": false,
      "stateMutability": "view",
      "type": "function"
    },
    {
      "constant": true,
      "inputs": [
        {
          "internalType": "string",
          "name": "id",
          "type": "string"
        }
      ],
      "name": "getHash",
      "outputs": [
        {
          "internalType": "bytes32",
          "name": "",
          "type": "bytes32"
        }
      ],
      "payable": false,
      "stateMutability": "pure",
      "type": "function"
    },
    {
      "constant": true,
      "inputs": [],
      "name": "getServices",
      "outputs": [
        {
          "internalType": "string[]",
          "name": "",
          "type": "string[]"
        }
      ],
      "payable": false,
      "stateMutability": "view",
      "type": "function"
    },
    {
      "constant": true,
      "inputs": [
        {
          "internalType": "string",
          "name": "serviceName",
          "type": "string"
        }
      ],
      "name": "getSubServices",
      "outputs": [
        {
          "internalType": "string[]",
          "name": "",
          "type": "string[]"
        }
      ],
      "payable": false,
      "stateMutability": "view",
      "type": "function"
    },
    {
      "constant": true,
      "inputs": [
        {
          "internalType": "bytes32",
          "name": "adr",
          "type": "bytes32"
        }
      ],
      "name": "isVerified",
      "outputs": [
        {
          "internalType": "bool",
          "name": "",
          "type": "bool"
        }
      ],
      "payable": false,
      "stateMutability": "view",
      "type": "function"
    },
    {
      "constant": true,
      "inputs": [],
      "name": "owner",
      "outputs": [
        {
          "internalType": "address",
          "name": "",
          "type": "address"
        }
      ],
      "payable": false,
      "stateMutability": "view",
      "type": "function"
    },
    {
      "constant": false,
      "inputs": [
        {
          "internalType": "bytes32",
          "name": "dealershipId",
          "type": "bytes32"
        },
        {
          "internalType": "bytes32",
          "name": "otherId",
          "type": "bytes32"
        }
      ],
      "name": "transferDealershipOwner",
      "outputs": [],
      "payable": false,
      "stateMutability": "nonpayable",
      "type": "function"
    },
    {
      "constant": false,
      "inputs": [
        {
          "internalType": "address",
          "name": "newOwner",
          "type": "address"
        }
      ],
      "name": "transferOwner",
      "outputs": [],
      "payable": false,
      "stateMutability": "nonpayable",
      "type": "function"
    },
    {
      "constant": false,
      "inputs": [
        {
          "internalType": "bytes32",
          "name": "userId",
          "type": "bytes32"
        },
        {
          "components": [
            {
              "internalType": "string",
              "name": "firstName",
              "type": "string"
            },
            {
              "internalType": "string",
              "name": "lastName",
              "type": "string"
            },
            {
              "internalType": "string",
              "name": "adr",
              "type": "string"
            },
            {
              "internalType": "string",
              "name": "phNo",
              "type": "string"
            },
            {
              "internalType": "string",
              "name": "email",
              "type": "string"
            }
          ],
          "internalType": "struct UserContract.UserInfo",
          "name": "info",
          "type": "tuple"
        }
      ],
      "name": "editUserInfo",
      "outputs": [],
      "payable": false,
      "stateMutability": "nonpayable",
      "type": "function"
    },
    {
      "constant": true,
      "inputs": [
        {
          "internalType": "bytes32",
          "name": "userId",
          "type": "bytes32"
        }
      ],
      "name": "getUserInfo",
      "outputs": [
        {
          "components": [
            {
              "internalType": "string",
              "name": "firstName",
              "type": "string"
            },
            {
              "internalType": "string",
              "name": "lastName",
              "type": "string"
            },
            {
              "internalType": "string",
              "name": "adr",
              "type": "string"
            },
            {
              "internalType": "string",
              "name": "phNo",
              "type": "string"
            },
            {
              "internalType": "string",
              "name": "email",
              "type": "string"
            }
          ],
          "internalType": "struct UserContract.UserInfo",
          "name": "",
          "type": "tuple"
        }
      ],
      "payable": false,
      "stateMutability": "view",
      "type": "function"
    },
    {
      "constant": false,
      "inputs": [
        {
          "internalType": "bytes32",
          "name": "userId",
          "type": "bytes32"
        },
        {
          "internalType": "string",
          "name": "noPlate",
          "type": "string"
        },
        {
          "components": [
            {
              "internalType": "string",
              "name": "brand",
              "type": "string"
            },
            {
              "internalType": "string",
              "name": "model",
              "type": "string"
            },
            {
              "internalType": "string",
              "name": "year",
              "type": "string"
            }
          ],
          "internalType": "struct UserContract.CarInfo",
          "name": "carInfo",
          "type": "tuple"
        }
      ],
      "name": "editCarDetails",
      "outputs": [],
      "payable": false,
      "stateMutability": "nonpayable",
      "type": "function"
    },
    {
      "constant": true,
      "inputs": [
        {
          "internalType": "bytes32",
          "name": "userId",
          "type": "bytes32"
        }
      ],
      "name": "getCarPlates",
      "outputs": [
        {
          "internalType": "string[]",
          "name": "",
          "type": "string[]"
        }
      ],
      "payable": false,
      "stateMutability": "view",
      "type": "function"
    },
    {
      "constant": true,
      "inputs": [
        {
          "internalType": "bytes32",
          "name": "userId",
          "type": "bytes32"
        }
      ],
      "name": "getCars",
      "outputs": [
        {
          "components": [
            {
              "internalType": "string",
              "name": "brand",
              "type": "string"
            },
            {
              "internalType": "string",
              "name": "model",
              "type": "string"
            },
            {
              "internalType": "string",
              "name": "year",
              "type": "string"
            }
          ],
          "internalType": "struct UserContract.CarInfo[]",
          "name": "",
          "type": "tuple[]"
        }
      ],
      "payable": false,
      "stateMutability": "view",
      "type": "function"
    },
    {
      "constant": true,
      "inputs": [
        {
          "internalType": "string",
          "name": "noPlate",
          "type": "string"
        }
      ],
      "name": "getCarDetails",
      "outputs": [
        {
          "components": [
            {
              "internalType": "string",
              "name": "brand",
              "type": "string"
            },
            {
              "internalType": "string",
              "name": "model",
              "type": "string"
            },
            {
              "internalType": "string",
              "name": "year",
              "type": "string"
            }
          ],
          "internalType": "struct UserContract.CarInfo",
          "name": "",
          "type": "tuple"
        }
      ],
      "payable": false,
      "stateMutability": "view",
      "type": "function"
    },
    {
      "constant": false,
      "inputs": [
        {
          "internalType": "bytes32",
          "name": "dealerId",
          "type": "bytes32"
        },
        {
          "internalType": "bytes32",
          "name": "id",
          "type": "bytes32"
        },
        {
          "internalType": "string",
          "name": "noPlate",
          "type": "string"
        },
        {
          "internalType": "string[]",
          "name": "services",
          "type": "string[]"
        },
        {
          "internalType": "string[]",
          "name": "subservices",
          "type": "string[]"
        },
        {
          "internalType": "string",
          "name": "comment",
          "type": "string"
        },
        {
          "internalType": "uint256",
          "name": "timeStamp",
          "type": "uint256"
        }
      ],
      "name": "insertRecord",
      "outputs": [],
      "payable": false,
      "stateMutability": "nonpayable",
      "type": "function"
    },
    {
      "constant": true,
      "inputs": [
        {
          "internalType": "string",
          "name": "noPlate",
          "type": "string"
        }
      ],
      "name": "getRecords",
      "outputs": [
        {
          "components": [
            {
              "internalType": "string[]",
              "name": "services",
              "type": "string[]"
            },
            {
              "internalType": "string[]",
              "name": "subservices",
              "type": "string[]"
            },
            {
              "internalType": "string",
              "name": "comment",
              "type": "string"
            },
            {
              "internalType": "uint256",
              "name": "timeStamp",
              "type": "uint256"
            }
          ],
          "internalType": "struct UserContract.RecordInternal[]",
          "name": "",
          "type": "tuple[]"
        }
      ],
      "payable": false,
      "stateMutability": "view",
      "type": "function"
    }
  ],
  "bytecode": "0x60806040526006805461fe0061ff0019909116179055600080546001600160a01b031916331790556143e6806100366000396000f3fe608060405234801561001057600080fd5b50600436106101a95760003560e01c80637d17f13c116100f95780638f2b514411610097578063c4e91d1711610071578063c4e91d17146103b5578063c9b54a58146103c8578063d872acac146103e8578063e445268c14610408576101a9565b80638f2b514414610362578063adff8b0f14610375578063c181b27314610395576101a9565b806386e80b71116100d357806386e80b711461030757806388fcd194146103275780638da5cb5b1461033a5780638ee242141461034f576101a9565b80637d17f13c146102bf5780637e41667f146102df57806382d7afbd146102f4576101a9565b8063431a65fc116101665780635b6beeb9116101405780635b6beeb9146102715780636fd7d2b514610291578063752326c1146102a457806375417851146102b7576101a9565b8063431a65fc146102225780634fb2e45d1461024b57806350fb95e31461025e576101a9565b80630ad5be91146101ae5780630eb7bc8f146101c35780631118127a146101d65780631a4c85be146101e95780631b8f47fe146101fc578063369bfce41461020f575b600080fd5b6101c16101bc3660046133f7565b61041b565b005b6101c16101d13660046135e5565b610571565b6101c16101e43660046136c9565b6105fc565b6101c16101f73660046135b1565b6107ea565b6101c161020a366004613381565b61089b565b6101c161021d3660046135e5565b61092c565b6102356102303660046135b1565b6109c6565b6040516102429190614107565b60405180910390f35b6101c161025936600461335b565b610abd565b6101c161026c3660046135e5565b610b09565b61028461027f3660046135b1565b610bec565b6040516102429190614148565b6101c161029f366004613642565b610c61565b6101c16102b23660046136c9565b610d0b565b610235610e72565b6102d26102cd366004613381565b610fc7565b6040516102429190614237565b6102e7611751565b60405161024291906140f6565b6101c16103023660046133bd565b6117d4565b61031a6103153660046135b1565b6118d0565b6040516102429190614129565b6101c16103353660046135b1565b611b8e565b610342611c9c565b60405161024291906140e8565b6101c161035d3660046134ef565b611cab565b610235610370366004613381565b611db2565b610388610383366004613381565b611e92565b6040516102429190614268565b6103a86103a3366004613381565b6121a4565b604051610242919061413a565b6101c16103c336600461356a565b6121d1565b6103db6103d6366004613381565b612263565b6040516102429190614118565b6103fb6103f63660046135b1565b612505565b6040516102429190614226565b6101c16104163660046133bd565b6126c1565b86610425816121a4565b61044a5760405162461bcd60e51b815260040161044190614216565b60405180910390fd5b84518451111561046c5760405162461bcd60e51b8152600401610441906141a6565b6000610478888861274c565b12156104b5576000878152600b60209081526040822080546001810180835591845292829020895191936104b293910191908a0190612a76565b50505b6009866040516104c591906140d0565b908152604080519182900360209081018320608084018352888452838201889052918301869052606083018590528154600181018084556000938452928290208451805194959460049093029091019261052492849290910190612af4565b50602082810151805161053d9260018501920190612af4565b5060408201518051610559916002840191602090910190612a76565b50606082015181600301555050505050505050505050565b6000546001600160a01b0316331461059b5760405162461bcd60e51b8152600401610441906141b6565b816105a581612861565b6105c15760405162461bcd60e51b8152600401610441906141d6565b81600760006105cf86612882565b60ff1660ff16815260200190815260200160002090805190602001906105f6929190612a76565b50505050565b60008181526001602052604090205460ff161561062b5760405162461bcd60e51b8152600401610441906141e6565b6000818152600460209081526040909120835180518593610650928492910190612a76565b5060208281015180516106699260018501920190612a76565b5060408201518051610685916002840191602090910190612a76565b50606082015180516106a1916003840191602090910190612a76565b5060808201516106b79060048301906002612b4d565b5060a082015180516106d3916006840191602090910190612a76565b5060c082015180516106ef916007840191602090910190612a76565b5060e0820151805161070b916008840191602090910190612a76565b506101008201518051610728916009840191602090910190612a76565b50610120820151805161074591600a840191602090910190612af4565b50610140820151805161076291600b840191602090910190612b8d565b5090505060006107718261296c565b12156107ad57600580546001810182556000919091527f036b6384b5eca791c62761152d0c79bb0604c104a5fb6f4eb0703f3154bb3db0018190555b7fbcb28ce223d1d07df7ff015302f0aee0306ad6362ede3db7aa3c6d40a651f00882826040516107de929190614248565b60405180910390a15050565b6000546001600160a01b031633146108145760405162461bcd60e51b8152600401610441906141b6565b8061081e81612861565b61083a5760405162461bcd60e51b8152600401610441906141d6565b604051806020016040528060008152506007600061085785612882565b60ff1660ff168152602001908152602001600020908051906020019061087e929190612a76565b50506006805460ff19811660ff9182166000190190911617905550565b6000546001600160a01b031633146108c55760405162461bcd60e51b8152600401610441906141b6565b60006108d08261296c565b905060008112156108f35760405162461bcd60e51b815260040161044190614186565b6000828152600160208190526040909120805460ff19169091179055600580548290811061091d57fe5b60009182526020822001555050565b6000546001600160a01b031633146109565760405162461bcd60e51b8152600401610441906141b6565b818161096282826129b2565b61097e5760405162461bcd60e51b8152600401610441906141c6565b60088460405161098e91906140d0565b90815260200160405180910390206109a685856129c8565b815481106109b057fe5b9060005260206000200160006105f69190612be6565b60606008826040516109d891906140d0565b9081526020016040518091039020805480602002602001604051908101604052809291908181526020016000905b82821015610ab15760008481526020908190208301805460408051601f6002600019610100600187161502019094169390930492830185900485028101850190915281815292830182828015610a9d5780601f10610a7257610100808354040283529160200191610a9d565b820191906000526020600020905b815481529060010190602001808311610a8057829003601f168201915b505050505081526020019060010190610a06565b5050505090505b919050565b6000546001600160a01b03163314610ae75760405162461bcd60e51b8152600401610441906141b6565b600080546001600160a01b0319166001600160a01b0392909216919091179055565b8160ff600882604051610b1c91906140d0565b9081526040519081900360200190205410610b495760405162461bcd60e51b815260040161044190614196565b8282610b5582826129b2565b15610b725760405162461bcd60e51b815260040161044190614176565b6000546001600160a01b03163314610b9c5760405162461bcd60e51b8152600401610441906141b6565b600885604051610bac91906140d0565b9081526040516020918190038201902080546001810180835560009283529183902087519293610be3939190920191880190612a76565b50505050505050565b6000600282604051602001610c0191906140d0565b60408051601f1981840301815290829052610c1b916140d0565b602060405180830381855afa158015610c38573d6000803e3d6000fd5b5050506040513d601f19601f82011682018060405250610c5b919081019061339f565b92915050565b8282610c6d82826129b2565b610c895760405162461bcd60e51b8152600401610441906141c6565b6000546001600160a01b03163314610cb35760405162461bcd60e51b8152600401610441906141b6565b82600886604051610cc491906140d0565b9081526020016040518091039020610cdc87876129c8565b81548110610ce657fe5b906000526020600020019080519060200190610d03929190612a76565b505050505050565b600081815260016020526040902054819060ff16610d3b5760405162461bcd60e51b815260040161044190614166565b6000828152600460209081526040909120845180518693610d60928492910190612a76565b506020828101518051610d799260018501920190612a76565b5060408201518051610d95916002840191602090910190612a76565b5060608201518051610db1916003840191602090910190612a76565b506080820151610dc79060048301906002612b4d565b5060a08201518051610de3916006840191602090910190612a76565b5060c08201518051610dff916007840191602090910190612a76565b5060e08201518051610e1b916008840191602090910190612a76565b506101008201518051610e38916009840191602090910190612a76565b506101208201518051610e5591600a840191602090910190612af4565b506101408201518051610d0391600b840191602090910190612b8d565b6006546040805160ff909216808352602080820284010190915260609182918015610eb157816020015b6060815260200190600190039081610e9c5790505b5090506000805b60065460ff61010090910481169082161015610fbe5760ff81166000908152600760205260409020546002600019610100600184161502019091160415610fb65760ff811660009081526007602090815260409182902080548351601f600260001961010060018616150201909316929092049182018490048402810184019094528084529091830182828015610f905780601f10610f6557610100808354040283529160200191610f90565b820191906000526020600020905b815481529060010190602001808311610f7357829003601f168201915b5050505050838380600101945060ff1681518110610faa57fe5b60200260200101819052505b600101610eb8565b50909150505b90565b610fcf612c2d565b6000828152600460209081526040918290208251815460026001821615610100026000190190911604601f81018490049093028101610180908101909452610160810183815290939192849284919084018282801561106f5780601f106110445761010080835404028352916020019161106f565b820191906000526020600020905b81548152906001019060200180831161105257829003601f168201915b50505050508152602001600182018054600181600116156101000203166002900480601f0160208091040260200160405190810160405280929190818152602001828054600181600116156101000203166002900480156111115780601f106110e657610100808354040283529160200191611111565b820191906000526020600020905b8154815290600101906020018083116110f457829003601f168201915b5050509183525050600282810180546040805160206001841615610100026000190190931694909404601f810183900483028501830190915280845293810193908301828280156111a35780601f10611178576101008083540402835291602001916111a3565b820191906000526020600020905b81548152906001019060200180831161118657829003601f168201915b505050918352505060038201805460408051602060026001851615610100026000190190941693909304601f81018490048402820184019092528181529382019392918301828280156112375780601f1061120c57610100808354040283529160200191611237565b820191906000526020600020905b81548152906001019060200180831161121a57829003601f168201915b5050509183525050604080518082019091526020909101906004830160026000835b828210156112fc57838201805460408051602060026001851615610100026000190190941693909304601f810184900484028201840190925281815292918301828280156112e85780601f106112bd576101008083540402835291602001916112e8565b820191906000526020600020905b8154815290600101906020018083116112cb57829003601f168201915b505050505081526020019060010190611259565b5050509082525060068201805460408051602060026001851615610100026000190190941693909304601f810184900484028201840190925281815293820193929183018282801561138f5780601f106113645761010080835404028352916020019161138f565b820191906000526020600020905b81548152906001019060200180831161137257829003601f168201915b505050918352505060078201805460408051602060026001851615610100026000190190941693909304601f81018490048402820184019092528181529382019392918301828280156114235780601f106113f857610100808354040283529160200191611423565b820191906000526020600020905b81548152906001019060200180831161140657829003601f168201915b505050918352505060088201805460408051602060026001851615610100026000190190941693909304601f81018490048402820184019092528181529382019392918301828280156114b75780601f1061148c576101008083540402835291602001916114b7565b820191906000526020600020905b81548152906001019060200180831161149a57829003601f168201915b505050918352505060098201805460408051602060026001851615610100026000190190941693909304601f810184900484028201840190925281815293820193929183018282801561154b5780601f106115205761010080835404028352916020019161154b565b820191906000526020600020905b81548152906001019060200180831161152e57829003601f168201915b50505050508152602001600a8201805480602002602001604051908101604052809291908181526020016000905b828210156116245760008481526020908190208301805460408051601f60026000196101006001871615020190941693909304928301859004850281018501909152818152928301828280156116105780601f106115e557610100808354040283529160200191611610565b820191906000526020600020905b8154815290600101906020018083116115f357829003601f168201915b505050505081526020019060010190611579565b505050508152602001600b8201805480602002602001604051908101604052809291908181526020016000905b8282101561174357838290600052602060002001805480602002602001604051908101604052809291908181526020016000905b828210156117305760008481526020908190208301805460408051601f600260001961010060018716150201909416939093049283018590048502810185019091528181529283018282801561171c5780601f106116f15761010080835404028352916020019161171c565b820191906000526020600020905b8154815290600101906020018083116116ff57829003601f168201915b505050505081526020019060010190611685565b5050505081526020019060010190611651565b505050915250909392505050565b6000546060906001600160a01b0316331461177e5760405162461bcd60e51b8152600401610441906141b6565b60058054806020026020016040519081016040528092919081815260200182805480156117ca57602002820191906000526020600020905b8154815260200190600101908083116117b6575b5050505050905090565b600082815260016020526040902054829060ff166118045760405162461bcd60e51b815260040161044190614166565b6000828152600160208181526040808420805460ff19908116909417905586845280842080549093169092558483526003815281832083905585835260029052808220848352912081546118589290612c8d565b50600083815260026020526040812061187091612ccd565b60005b6000838152600260205260409020548110156105f65782600360006002600087815260200190815260200160002084815481106118ac57fe5b60009182526020808320909101548352820192909252604001902055600101611873565b60606009826040516118e291906140d0565b9081526020016040518091039020805480602002602001604051908101604052809291908181526020016000905b82821015610ab1578382906000526020600020906004020160405180608001604052908160008201805480602002602001604051908101604052809291908181526020016000905b82821015611a035760008481526020908190208301805460408051601f60026000196101006001871615020190941693909304928301859004850281018501909152818152928301828280156119ef5780601f106119c4576101008083540402835291602001916119ef565b820191906000526020600020905b8154815290600101906020018083116119d257829003601f168201915b505050505081526020019060010190611958565b50505050815260200160018201805480602002602001604051908101604052809291908181526020016000905b82821015611adb5760008481526020908190208301805460408051601f6002600019610100600187161502019094169390930492830185900485028101850190915281815292830182828015611ac75780601f10611a9c57610100808354040283529160200191611ac7565b820191906000526020600020905b815481529060010190602001808311611aaa57829003601f168201915b505050505081526020019060010190611a30565b50505090825250600282810180546040805160206001841615610100026000190190931694909404601f81018390048302850183019091528084529381019390830182828015611b6c5780601f10611b4157610100808354040283529160200191611b6c565b820191906000526020600020905b815481529060010190602001808311611b4f57829003601f168201915b5050505050815260200160038201548152505081526020019060010190611910565b6000546001600160a01b03163314611bb85760405162461bcd60e51b8152600401610441906141b6565b80611bc281612861565b15611bdf5760405162461bcd60e51b8152600401610441906141f6565b60065460ff6101008204811691161115611c0b5760405162461bcd60e51b815260040161044190614206565b60005b60065460ff61010090910481169082161015611c965760ff811660009081526007602052604090205460026000196101006001841615020190911604611c8e5760ff811660009081526007602090815260409091208451611c7192860190612a76565b50506006805460ff8082166001011660ff19909116179055611c98565b600101611c0e565b505b5050565b6000546001600160a01b031681565b80600c83604051611cbc91906140d0565b90815260200160405180910390206000820151816000019080519060200190611ce6929190612a76565b506020828101518051611cff9260018501920190612a76565b5060408201518051611d1b916002840191602090910190612a76565b509050506000611d2b848461274c565b90506000811215611d71576000848152600b6020908152604082208054600181018083559184529282902086519193611d6a9391019190870190612a76565b50506105f6565b6000848152600b60205260409020805484919083908110611d8e57fe5b906000526020600020019080519060200190611dab929190612a76565b5050505050565b6060600b6000838152602001908152602001600020805480602002602001604051908101604052809291908181526020016000905b82821015610ab15760008481526020908190208301805460408051601f6002600019610100600187161502019094169390930492830185900485028101850190915281815292830182828015611e7e5780601f10611e5357610100808354040283529160200191611e7e565b820191906000526020600020905b815481529060010190602001808311611e6157829003601f168201915b505050505081526020019060010190611de7565b611e9a612ceb565b6000828152600a60209081526040918290208251815460026001821615610100026000190190911604601f8101849004909302810160c090810190945260a08101838152909391928492849190840182828015611f385780601f10611f0d57610100808354040283529160200191611f38565b820191906000526020600020905b815481529060010190602001808311611f1b57829003601f168201915b50505050508152602001600182018054600181600116156101000203166002900480601f016020809104026020016040519081016040528092919081815260200182805460018160011615610100020316600290048015611fda5780601f10611faf57610100808354040283529160200191611fda565b820191906000526020600020905b815481529060010190602001808311611fbd57829003601f168201915b5050509183525050600282810180546040805160206001841615610100026000190190931694909404601f8101839004830285018301909152808452938101939083018282801561206c5780601f106120415761010080835404028352916020019161206c565b820191906000526020600020905b81548152906001019060200180831161204f57829003601f168201915b505050918352505060038201805460408051602060026001851615610100026000190190941693909304601f81018490048402820184019092528181529382019392918301828280156121005780601f106120d557610100808354040283529160200191612100565b820191906000526020600020905b8154815290600101906020018083116120e357829003601f168201915b505050918352505060048201805460408051602060026001851615610100026000190190941693909304601f81018490048402820184019092528181529382019392918301828280156121945780601f1061216957610100808354040283529160200191612194565b820191906000526020600020905b81548152906001019060200180831161217757829003601f168201915b5050505050815250509050919050565b60008181526001602052604081205460ff1680610c5b575050600090815260036020526040902054151590565b6000828152600a602090815260409091208251805184936121f6928492910190612a76565b50602082810151805161220f9260018501920190612a76565b506040820151805161222b916002840191602090910190612a76565b5060608201518051612247916003840191602090910190612a76565b5060808201518051611dab916004840191602090910190612a76565b606080600b6000848152602001908152602001600020805490506040519080825280602002602001820160405280156122b657816020015b6122a3612d1a565b81526020019060019003908161229b5790505b50905060005b6000848152600b60205260409020548110156124fe576000848152600b602052604090208054600c9190839081106122f057fe5b9060005260206000200160405161230791906140dc565b9081526040805160209281900383018120805460026001821615610100026000190190911604601f810185900490940282016080908101909352606082018481529193909284929184918401828280156123a25780601f10612377576101008083540402835291602001916123a2565b820191906000526020600020905b81548152906001019060200180831161238557829003601f168201915b50505050508152602001600182018054600181600116156101000203166002900480601f0160208091040260200160405190810160405280929190818152602001828054600181600116156101000203166002900480156124445780601f1061241957610100808354040283529160200191612444565b820191906000526020600020905b81548152906001019060200180831161242757829003601f168201915b5050509183525050600282810180546040805160206001841615610100026000190190931694909404601f810183900483028501830190915280845293810193908301828280156124d65780601f106124ab576101008083540402835291602001916124d6565b820191906000526020600020905b8154815290600101906020018083116124b957829003601f168201915b5050505050815250508282815181106124eb57fe5b60209081029190910101526001016122bc565b5092915050565b61250d612d1a565b600c8260405161251d91906140d0565b9081526040805160209281900383018120805460026001821615610100026000190190911604601f810185900490940282016080908101909352606082018481529193909284929184918401828280156125b85780601f1061258d576101008083540402835291602001916125b8565b820191906000526020600020905b81548152906001019060200180831161259b57829003601f168201915b50505050508152602001600182018054600181600116156101000203166002900480601f01602080910402602001604051908101604052809291908181526020018280546001816001161561010002031660029004801561265a5780601f1061262f5761010080835404028352916020019161265a565b820191906000526020600020905b81548152906001019060200180831161263d57829003601f168201915b5050509183525050600282810180546040805160206001841615610100026000190190931694909404601f810183900483028501830190915280845293810193908301828280156121945780601f1061216957610100808354040283529160200191612194565b600082815260016020526040902054829060ff166126f15760405162461bcd60e51b815260040161044190614166565b6000828152600360205260409020541561271d5760405162461bcd60e51b815260040161044190614156565b506000828152600260209081526040808320805460018101825590845282842001849055928252600390522055565b6000805b6000848152600b60205260409020546001600160801b03821610156128565761277883612a46565b6000858152600b60205260409020805461283891906001600160801b0385169081106127a057fe5b600091825260209182902001805460408051601f600260001961010060018716150201909416939093049283018590048502810185019091528181529283018282801561282e5780601f106128035761010080835404028352916020019161282e565b820191906000526020600020905b81548152906001019060200180831161281157829003601f168201915b5050505050612a46565b141561284e576001600160801b03169050610c5b565b600101612750565b506000199392505050565b600654600090610100900460ff1661287883612882565b60ff161092915050565b60008061288e83612a46565b905060005b60065460ff610100909104811690821610156129625760ff8116600090815260076020526040902054600260001961010060018416150201909116041580159061294c575060ff81166000908152600760209081526040918290208054835160026001831615610100026000190190921691909104601f8101849004840282018401909452838152859361294a9391929183018282801561282e5780601f106128035761010080835404028352916020019161282e565b145b1561295a579150610ab89050565b600101612893565b5060ff9392505050565b6000805b6005548110156129a857826005828154811061298857fe5b906000526020600020015414156129a0579050610ab8565b600101612970565b5060001992915050565b600060ff6129c084846129c8565b109392505050565b6000805b6008846040516129dc91906140d0565b9081526040519081900360200190205460ff82161015612962576129ff83612a46565b612a2e600886604051612a1291906140d0565b90815260200160405180910390208360ff16815481106127a057fe5b1415612a3e5760ff169050610c5b565b6001016129cc565b600081604051602001612a5991906140d0565b604051602081830303815290604052805190602001209050919050565b828054600181600116156101000203166002900490600052602060002090601f016020900481019282601f10612ab757805160ff1916838001178555612ae4565b82800160010185558215612ae4579182015b82811115612ae4578251825591602001919060010190612ac9565b50612af0929150612d3b565b5090565b828054828255906000526020600020908101928215612b41579160200282015b82811115612b415782518051612b31918491602090910190612a76565b5091602001919060010190612b14565b50612af0929150612d55565b8260028101928215612b41579160200282015b82811115612b415782518051612b7d918491602090910190612a76565b5091602001919060010190612b60565b828054828255906000526020600020908101928215612bda579160200282015b82811115612bda5782518051612bca918491602090910190612af4565b5091602001919060010190612bad565b50612af0929150612d78565b50805460018160011615610100020316600290046000825580601f10612c0c5750612c2a565b601f016020900490600052602060002090810190612c2a9190612d3b565b50565b60405180610160016040528060608152602001606081526020016060815260200160608152602001612c5d612d9b565b81526020016060815260200160608152602001606081526020016060815260200160608152602001606081525090565b828054828255906000526020600020908101928215612ae45760005260206000209182015b82811115612ae4578254825591600101919060010190612cb2565b5080546000825590600052602060002090810190612c2a9190612d3b565b6040518060a0016040528060608152602001606081526020016060815260200160608152602001606081525090565b60405180606001604052806060815260200160608152602001606081525090565b610fc491905b80821115612af05760008155600101612d41565b610fc491905b80821115612af0576000612d6f8282612be6565b50600101612d5b565b610fc491905b80821115612af0576000612d928282612dc2565b50600101612d7e565b60405180604001604052806002905b6060815260200190600190039081612daa5790505090565b5080546000825590600052602060002090810190612c2a9190612d55565b8035610c5b81614386565b600082601f830112612dfc57600080fd5b8135612e0f612e0a8261429f565b614279565b81815260209384019390925082018360005b83811015612e4d5781358601612e378882612ea9565b8452506020928301929190910190600101612e21565b5050505092915050565b600082601f830112612e6857600080fd5b6002612e76612e0a826142bf565b9150818360005b83811015612e4d5781358601612e938882612f79565b8452506020928301929190910190600101612e7d565b600082601f830112612eba57600080fd5b8135612ec8612e0a8261429f565b81815260209384019390925082018360005b83811015612e4d5781358601612ef08882612f79565b8452506020928301929190910190600101612eda565b600082601f830112612f1757600080fd5b8135612f25612e0a8261429f565b81815260209384019390925082018360005b83811015612e4d5781358601612f4d8882612f79565b8452506020928301929190910190600101612f37565b8035610c5b8161439a565b8051610c5b8161439a565b600082601f830112612f8a57600080fd5b8135612f98612e0a826142dc565b91508082526020830160208301858383011115612fb457600080fd5b612fbf838284614344565b50505092915050565b600060608284031215612fda57600080fd5b612fe46060614279565b905081356001600160401b03811115612ffc57600080fd5b61300884828501612f79565b82525060208201356001600160401b0381111561302457600080fd5b61303084828501612f79565b60208301525060408201356001600160401b0381111561304f57600080fd5b61305b84828501612f79565b60408301525092915050565b6000610160828403121561307a57600080fd5b613085610160614279565b905081356001600160401b0381111561309d57600080fd5b6130a984828501612f79565b82525060208201356001600160401b038111156130c557600080fd5b6130d184828501612f79565b60208301525060408201356001600160401b038111156130f057600080fd5b6130fc84828501612f79565b60408301525060608201356001600160401b0381111561311b57600080fd5b61312784828501612f79565b60608301525060808201356001600160401b0381111561314657600080fd5b61315284828501612e57565b60808301525060a08201356001600160401b0381111561317157600080fd5b61317d84828501612f79565b60a08301525060c08201356001600160401b0381111561319c57600080fd5b6131a884828501612f79565b60c08301525060e08201356001600160401b038111156131c757600080fd5b6131d384828501612f79565b60e0830152506101008201356001600160401b038111156131f357600080fd5b6131ff84828501612f79565b610100830152506101208201356001600160401b0381111561322057600080fd5b61322c84828501612ea9565b610120830152506101408201356001600160401b0381111561324d57600080fd5b61325984828501612deb565b6101408301525092915050565b600060a0828403121561327857600080fd5b61328260a0614279565b905081356001600160401b0381111561329a57600080fd5b6132a684828501612f79565b82525060208201356001600160401b038111156132c257600080fd5b6132ce84828501612f79565b60208301525060408201356001600160401b038111156132ed57600080fd5b6132f984828501612f79565b60408301525060608201356001600160401b0381111561331857600080fd5b61332484828501612f79565b60608301525060808201356001600160401b0381111561334357600080fd5b61334f84828501612f79565b60808301525092915050565b60006020828403121561336d57600080fd5b60006133798484612de0565b949350505050565b60006020828403121561339357600080fd5b60006133798484612f63565b6000602082840312156133b157600080fd5b60006133798484612f6e565b600080604083850312156133d057600080fd5b60006133dc8585612f63565b92505060206133ed85828601612f63565b9150509250929050565b600080600080600080600060e0888a03121561341257600080fd5b600061341e8a8a612f63565b975050602061342f8a828b01612f63565b96505060408801356001600160401b0381111561344b57600080fd5b6134578a828b01612f79565b95505060608801356001600160401b0381111561347357600080fd5b61347f8a828b01612f06565b94505060808801356001600160401b0381111561349b57600080fd5b6134a78a828b01612f06565b93505060a08801356001600160401b038111156134c357600080fd5b6134cf8a828b01612f79565b92505060c06134e08a828b01612f63565b91505092959891949750929550565b60008060006060848603121561350457600080fd5b60006135108686612f63565b93505060208401356001600160401b0381111561352c57600080fd5b61353886828701612f79565b92505060408401356001600160401b0381111561355457600080fd5b61356086828701612fc8565b9150509250925092565b6000806040838503121561357d57600080fd5b60006135898585612f63565b92505060208301356001600160401b038111156135a557600080fd5b6133ed85828601613266565b6000602082840312156135c357600080fd5b81356001600160401b038111156135d957600080fd5b61337984828501612f79565b600080604083850312156135f857600080fd5b82356001600160401b0381111561360e57600080fd5b61361a85828601612f79565b92505060208301356001600160401b0381111561363657600080fd5b6133ed85828601612f79565b60008060006060848603121561365757600080fd5b83356001600160401b0381111561366d57600080fd5b61367986828701612f79565b93505060208401356001600160401b0381111561369557600080fd5b6136a186828701612f79565b92505060408401356001600160401b038111156136bd57600080fd5b61356086828701612f79565b600080604083850312156136dc57600080fd5b82356001600160401b038111156136f257600080fd5b6133dc85828601613067565b600061370a83836138e1565b9392505050565b600061371d8383613a0d565b505060200190565b600061370a8383613a45565b600061370a8383613e6f565b600061370a8383613fe7565b61375281614328565b82525050565b600061376382614315565b61376d818561431f565b93508360208202850161377f85614303565b8060005b858110156137b9578484038952815161379c85826136fe565b94506137a783614303565b60209a909a0199925050600101613783565b5091979650505050505050565b60006137d182614315565b6137db818561431f565b93506137e683614303565b8060005b838110156138145781516137fe8882613711565b975061380983614303565b9250506001016137ea565b509495945050505050565b600061382a82614319565b6138348185610ab8565b93508360208202850161384685610fc4565b8060005b858110156137b957848403895281516138638582613725565b945061386e83614303565b60209a909a019992505060010161384a565b600061388b82614315565b613895818561431f565b9350836020820285016138a785614303565b8060005b858110156137b957848403895281516138c48582613725565b94506138cf83614303565b60209a909a01999250506001016138ab565b60006138ec82614315565b6138f6818561431f565b93508360208202850161390885614303565b8060005b858110156137b957848403895281516139258582613725565b945061393083614303565b60209a909a019992505060010161390c565b600061394d82614315565b613957818561431f565b93508360208202850161396985614303565b8060005b858110156137b957848403895281516139868582613731565b945061399183614303565b60209a909a019992505060010161396d565b60006139ae82614315565b6139b8818561431f565b9350836020820285016139ca85614303565b8060005b858110156137b957848403895281516139e7858261373d565b94506139f283614303565b60209a909a01999250506001016139ce565b61375281614333565b61375281610fc4565b6000613a2182614315565b613a2b8185610ab8565b9350613a3b818560208601614350565b9290920192915050565b6000613a5082614315565b613a5a818561431f565b9350613a6a818560208601614350565b613a738161437c565b9093019392505050565b600081546001811660008114613a9a5760018114613abd57613afc565b607f6002830416613aab8187610ab8565b60ff1984168152955085019250613afc565b60028204613acb8187610ab8565b9550613ad685614309565b60005b82811015613af557815488820152600190910190602001613ad9565b5050850192505b505092915050565b6000613b1160218361431f565b7f5468617420656d706c6f79656520616c726561647920776f726b7320746865728152606560f81b602082015260400192915050565b6000613b5460298361431f565b7f596f75206d7573742062652061206465616c657273686970206f776e657220748152686f20646f207468697360b81b602082015260400192915050565b6000613b9f601e8361431f565b7f54686174207375627365727669636520616c7265616479206578697374730000815260200192915050565b6000613bd860218361431f565b7f4e6f206170706c69636174696f6e2065786973747320666f72207468617420698152601960fa1b602082015260400192915050565b6000613c1b60218361431f565b7f4d6178696d756d207375627365727669636520616d6f756e74207265616368658152601960fa1b602082015260400192915050565b6000613c5e60338361431f565b7f4e756d626572206f6620737562736572766963657320646f6573206e6f74206d8152720c2e8c6d040e6cae4ecd2c6ca40d8cadccee8d606b1b602082015260400192915050565b6000613cb360158361431f565b742cb7ba9030b932903737ba103a34329037bbb732b960591b815260200192915050565b6000613ce4602c8361431f565b7f54686174207375627365727669636520646f65736e7420657869737420696e2081526b1d1a1a5cc818dbdb9d195e1d60a21b602082015260400192915050565b6000613d32601b8361431f565b7f54686174207365727669636520646f6573206e6f742065786973740000000000815260200192915050565b6000613d6b60228361431f565b7f54686174206164647265737320697320616c7265616479207265676973746572815261195960f21b602082015260400192915050565b6000613daf601b8361431f565b7f54686174207365727669636520616c7265616479206578697374730000000000815260200192915050565b6000613de860288361431f565b7f54686572652061726520746865206d6178696d756d206e756d626572206f6620815267736572766963657360c01b602082015260400192915050565b6000613e3260288361431f565b7f596f75206d7573742062652061207665726966696564206465616c657220746f81526720646f207468697360c01b602082015260400192915050565b8051606080845260009190840190613e878282613a45565b91505060208301518482036020860152613ea18282613a45565b91505060408301518482036040860152613ebb8282613a45565b95945050505050565b805161016080845260009190840190613edd8282613a45565b91505060208301518482036020860152613ef78282613a45565b91505060408301518482036040860152613f118282613a45565b91505060608301518482036060860152613f2b8282613a45565b91505060808301518482036080860152613f45828261381f565b91505060a083015184820360a0860152613f5f8282613a45565b91505060c083015184820360c0860152613f798282613a45565b91505060e083015184820360e0860152613f938282613a45565b915050610100830151848203610100860152613faf8282613a45565b915050610120830151848203610120860152613fcb82826138e1565b915050610140830151848203610140860152613ebb8282613758565b8051608080845260009190840190613fff82826138e1565b9150506020830151848203602086015261401982826138e1565b915050604083015184820360408601526140338282613a45565b91505060608301516140486060860182613a0d565b509392505050565b805160a0808452600091908401906140688282613a45565b915050602083015184820360208601526140828282613a45565b9150506040830151848203604086015261409c8282613a45565b915050606083015184820360608601526140b68282613a45565b91505060808301518482036080860152613ebb8282613a45565b600061370a8284613a16565b600061370a8284613a7d565b60208101610c5b8284613749565b6020808252810161370a81846137c6565b6020808252810161370a8184613880565b6020808252810161370a8184613942565b6020808252810161370a81846139a3565b60208101610c5b8284613a04565b60208101610c5b8284613a0d565b60208082528101610c5b81613b04565b60208082528101610c5b81613b47565b60208082528101610c5b81613b92565b60208082528101610c5b81613bcb565b60208082528101610c5b81613c0e565b60208082528101610c5b81613c51565b60208082528101610c5b81613ca6565b60208082528101610c5b81613cd7565b60208082528101610c5b81613d25565b60208082528101610c5b81613d5e565b60208082528101610c5b81613da2565b60208082528101610c5b81613ddb565b60208082528101610c5b81613e25565b6020808252810161370a8184613e6f565b6020808252810161370a8184613ec4565b604080825281016142598185613ec4565b905061370a6020830184613a0d565b6020808252810161370a8184614050565b6040518181016001600160401b038111828210171561429757600080fd5b604052919050565b60006001600160401b038211156142b557600080fd5b5060209081020190565b60006001600160401b038211156142d557600080fd5b5060200290565b60006001600160401b038211156142f257600080fd5b506020601f91909101601f19160190565b60200190565b60009081526020902090565b5190565b50600290565b90815260200190565b6000610c5b82614338565b151590565b6001600160a01b031690565b82818337506000910152565b60005b8381101561436b578181015183820152602001614353565b838111156105f65750506000910152565b601f01601f191690565b61438f81614328565b8114612c2a57600080fd5b61438f81610fc456fea365627a7a72315820bce06195ec66b8553ac6a4424ff227119ab9b1b46dec62e312089e13148066066c6578706572696d656e74616cf564736f6c634300050c0040",
  "source": "pragma solidity ^0.5.11;\npragma experimental ABIEncoderV2;\n\nimport \"./ServiceHandler.sol\";\n\ncontract UserContract is ServiceHandler {\n\n    struct RecordInternal {\n        string[] services;\n        string[] subservices;\n        string comment;\n        uint timeStamp;\n    }\n    struct UserInfo {\n        string firstName;\n        string lastName;\n        string adr;\n        string phNo;\n        string email;\n    }\n    struct CarInfo{\n        string brand;\n        string model;\n        string year;\n    }\n\n    //------------------------------------------------------------_Records_---------------------------------------------\n\n    mapping(string => RecordInternal[]) private records;\n    mapping(bytes32 => UserInfo) private userInfoRecords;\n    mapping(bytes32 => string[]) private userCars;\n    mapping(string => CarInfo) private carDetails;\n\n    modifier carExists(string memory noPlate) {\n        require(bytes(carDetails[noPlate].brand).length > 0,\"That car does not exist in the chain\");\n        _;\n    }\n\n    function editUserInfo(bytes32 userId, UserInfo memory info) public {\n        userInfoRecords[userId] = info;\n    }\n\n    function getUserInfo(bytes32 userId) public view returns(UserInfo memory) {\n        return userInfoRecords[userId];\n    }\n\n    function editCarDetails(bytes32 userId, string memory noPlate, CarInfo memory carInfo) public{\n        carDetails[noPlate] = carInfo;\n        int index = getCarIndex(userId,noPlate);\n        if(index < 0){\n            userCars[userId].push(noPlate);\n        }\n        else{\n            userCars[userId][uint(index)] = noPlate;\n        }\n    }\n\n    function getCarIndex(bytes32 userId, string memory noPlate) internal view returns (int){\n        for(uint128 i = 0; i < userCars[userId].length; i++) {\n            if(encode(userCars[userId][i]) == encode(noPlate)) return i;\n        }\n        return -1;\n    }\n\n    function getCarPlates(bytes32 userId) public view returns (string[] memory) {\n        return userCars[userId];\n    }\n\n    function getCars(bytes32 userId) public view returns(CarInfo[] memory){\n        CarInfo[] memory cars = new CarInfo[](userCars[userId].length);\n        for(uint i = 0; i < userCars[userId].length;i++) {\n            cars[i] = carDetails[userCars[userId][i]];\n        }\n        return cars;\n    }\n\n    function getCarDetails(string memory noPlate) public view returns(CarInfo memory) {\n        return carDetails[noPlate];\n    }\n\n    function insertRecord(bytes32 dealerId, bytes32 id, string memory noPlate,\n     string[] memory services, string[] memory subservices, string memory comment, uint timeStamp)\n        public verified(dealerId) {\n        require(subservices.length <= services.length,\"Number of subservices does not match service length\");\n        if(getCarIndex(id,noPlate) < 0){\n            userCars[id].push(noPlate);\n        }\n        records[noPlate].push(RecordInternal(services,subservices,comment,timeStamp));\n    }\n\n    function getRecords(string memory noPlate) public view returns (RecordInternal[] memory) {\n        return records[noPlate];\n    }\n\n}\n",
  "sourcePath": "/home/brandon/Documents/_Important/Uni/Blockchain/Final project/contracts/UserContract.sol",
  "compiler": {
    "name": "solc",
    "version": "0.5.12+commit.7709ece9.Emscripten.clang"
  },
  "schemaVersion": "3.0.19",
  "updatedAt": "2019-11-29T07:38:04.188Z",
  "networkType": "ethereum",
  "devdoc": {
    "methods": {}
  },
  "userdoc": {
    "methods": {}
  }
}