{
  "contractName": "UserContract",
  "abi": [
    {
      "anonymous": false,
      "inputs": [
        {
          "components": [
            {
              "internalType": "string",
              "name": "dealerName",
              "type": "string"
            },
            {
              "internalType": "string",
              "name": "firstName",
              "type": "string"
            },
            {
              "internalType": "string",
              "name": "lastName",
              "type": "string"
            },
            {
              "internalType": "string",
              "name": "addr",
              "type": "string"
            },
            {
              "internalType": "string[2]",
              "name": "location",
              "type": "string[2]"
            },
            {
              "internalType": "string",
              "name": "phoneNo",
              "type": "string"
            },
            {
              "internalType": "string",
              "name": "bestSeller",
              "type": "string"
            },
            {
              "internalType": "string",
              "name": "promotion",
              "type": "string"
            },
            {
              "internalType": "string",
              "name": "otherServices",
              "type": "string"
            },
            {
              "internalType": "string[]",
              "name": "availableServices",
              "type": "string[]"
            },
            {
              "internalType": "string[][]",
              "name": "availableSubServices",
              "type": "string[][]"
            }
          ],
          "indexed": false,
          "internalType": "struct DealerContract.DealerInfo",
          "name": "info",
          "type": "tuple"
        },
        {
          "indexed": false,
          "internalType": "bytes32",
          "name": "id",
          "type": "bytes32"
        }
      ],
      "name": "CreateDealerApplication",
      "type": "event"
    },
    {
      "constant": false,
      "inputs": [
        {
          "internalType": "bytes32",
          "name": "dealerId",
          "type": "bytes32"
        },
        {
          "internalType": "bytes32",
          "name": "adr",
          "type": "bytes32"
        }
      ],
      "name": "addDealerEmployee",
      "outputs": [],
      "payable": false,
      "stateMutability": "nonpayable",
      "type": "function"
    },
    {
      "constant": false,
      "inputs": [
        {
          "internalType": "string",
          "name": "serviceName",
          "type": "string"
        }
      ],
      "name": "addService",
      "outputs": [],
      "payable": false,
      "stateMutability": "nonpayable",
      "type": "function"
    },
    {
      "constant": false,
      "inputs": [
        {
          "internalType": "string",
          "name": "serviceName",
          "type": "string"
        },
        {
          "internalType": "string",
          "name": "subServiceName",
          "type": "string"
        }
      ],
      "name": "addSubService",
      "outputs": [],
      "payable": false,
      "stateMutability": "nonpayable",
      "type": "function"
    },
    {
      "constant": false,
      "inputs": [
        {
          "internalType": "bytes32",
          "name": "adr",
          "type": "bytes32"
        }
      ],
      "name": "approveApplication",
      "outputs": [],
      "payable": false,
      "stateMutability": "nonpayable",
      "type": "function"
    },
    {
      "constant": false,
      "inputs": [
        {
          "components": [
            {
              "internalType": "string",
              "name": "dealerName",
              "type": "string"
            },
            {
              "internalType": "string",
              "name": "firstName",
              "type": "string"
            },
            {
              "internalType": "string",
              "name": "lastName",
              "type": "string"
            },
            {
              "internalType": "string",
              "name": "addr",
              "type": "string"
            },
            {
              "internalType": "string[2]",
              "name": "location",
              "type": "string[2]"
            },
            {
              "internalType": "string",
              "name": "phoneNo",
              "type": "string"
            },
            {
              "internalType": "string",
              "name": "bestSeller",
              "type": "string"
            },
            {
              "internalType": "string",
              "name": "promotion",
              "type": "string"
            },
            {
              "internalType": "string",
              "name": "otherServices",
              "type": "string"
            },
            {
              "internalType": "string[]",
              "name": "availableServices",
              "type": "string[]"
            },
            {
              "internalType": "string[][]",
              "name": "availableSubServices",
              "type": "string[][]"
            }
          ],
          "internalType": "struct DealerContract.DealerInfo",
          "name": "info",
          "type": "tuple"
        },
        {
          "internalType": "bytes32",
          "name": "id",
          "type": "bytes32"
        }
      ],
      "name": "createDealerApplication",
      "outputs": [],
      "payable": false,
      "stateMutability": "nonpayable",
      "type": "function"
    },
    {
      "constant": false,
      "inputs": [
        {
          "internalType": "string",
          "name": "serviceName",
          "type": "string"
        }
      ],
      "name": "deleteService",
      "outputs": [],
      "payable": false,
      "stateMutability": "nonpayable",
      "type": "function"
    },
    {
      "constant": false,
      "inputs": [
        {
          "internalType": "string",
          "name": "serviceName",
          "type": "string"
        },
        {
          "internalType": "string",
          "name": "subServiceName",
          "type": "string"
        }
      ],
      "name": "deleteSubService",
      "outputs": [],
      "payable": false,
      "stateMutability": "nonpayable",
      "type": "function"
    },
    {
      "constant": false,
      "inputs": [
        {
          "components": [
            {
              "internalType": "string",
              "name": "dealerName",
              "type": "string"
            },
            {
              "internalType": "string",
              "name": "firstName",
              "type": "string"
            },
            {
              "internalType": "string",
              "name": "lastName",
              "type": "string"
            },
            {
              "internalType": "string",
              "name": "addr",
              "type": "string"
            },
            {
              "internalType": "string[2]",
              "name": "location",
              "type": "string[2]"
            },
            {
              "internalType": "string",
              "name": "phoneNo",
              "type": "string"
            },
            {
              "internalType": "string",
              "name": "bestSeller",
              "type": "string"
            },
            {
              "internalType": "string",
              "name": "promotion",
              "type": "string"
            },
            {
              "internalType": "string",
              "name": "otherServices",
              "type": "string"
            },
            {
              "internalType": "string[]",
              "name": "availableServices",
              "type": "string[]"
            },
            {
              "internalType": "string[][]",
              "name": "availableSubServices",
              "type": "string[][]"
            }
          ],
          "internalType": "struct DealerContract.DealerInfo",
          "name": "info",
          "type": "tuple"
        },
        {
          "internalType": "bytes32",
          "name": "id",
          "type": "bytes32"
        }
      ],
      "name": "editDealerInfo",
      "outputs": [],
      "payable": false,
      "stateMutability": "nonpayable",
      "type": "function"
    },
    {
      "constant": false,
      "inputs": [
        {
          "internalType": "string",
          "name": "oldName",
          "type": "string"
        },
        {
          "internalType": "string",
          "name": "newName",
          "type": "string"
        }
      ],
      "name": "editServiceName",
      "outputs": [],
      "payable": false,
      "stateMutability": "nonpayable",
      "type": "function"
    },
    {
      "constant": false,
      "inputs": [
        {
          "internalType": "string",
          "name": "serviceName",
          "type": "string"
        },
        {
          "internalType": "string",
          "name": "oldName",
          "type": "string"
        },
        {
          "internalType": "string",
          "name": "newName",
          "type": "string"
        }
      ],
      "name": "editSubServiceName",
      "outputs": [],
      "payable": false,
      "stateMutability": "nonpayable",
      "type": "function"
    },
    {
      "constant": true,
      "inputs": [],
      "name": "getAllDealerApplications",
      "outputs": [
        {
          "internalType": "bytes32[]",
          "name": "",
          "type": "bytes32[]"
        }
      ],
      "payable": false,
      "stateMutability": "view",
      "type": "function"
    },
    {
      "constant": true,
      "inputs": [
        {
          "internalType": "bytes32",
          "name": "id",
          "type": "bytes32"
        }
      ],
      "name": "getDealerInfo",
      "outputs": [
        {
          "components": [
            {
              "internalType": "string",
              "name": "dealerName",
              "type": "string"
            },
            {
              "internalType": "string",
              "name": "firstName",
              "type": "string"
            },
            {
              "internalType": "string",
              "name": "lastName",
              "type": "string"
            },
            {
              "internalType": "string",
              "name": "addr",
              "type": "string"
            },
            {
              "internalType": "string[2]",
              "name": "location",
              "type": "string[2]"
            },
            {
              "internalType": "string",
              "name": "phoneNo",
              "type": "string"
            },
            {
              "internalType": "string",
              "name": "bestSeller",
              "type": "string"
            },
            {
              "internalType": "string",
              "name": "promotion",
              "type": "string"
            },
            {
              "internalType": "string",
              "name": "otherServices",
              "type": "string"
            },
            {
              "internalType": "string[]",
              "name": "availableServices",
              "type": "string[]"
            },
            {
              "internalType": "string[][]",
              "name": "availableSubServices",
              "type": "string[][]"
            }
          ],
          "internalType": "struct DealerContract.DealerInfo",
          "name": "",
          "type": "tuple"
        }
      ],
      "payable": false,
      "stateMutability": "view",
      "type": "function"
    },
    {
      "constant": true,
      "inputs": [
        {
          "internalType": "string",
          "name": "id",
          "type": "string"
        }
      ],
      "name": "getHash",
      "outputs": [
        {
          "internalType": "bytes32",
          "name": "",
          "type": "bytes32"
        }
      ],
      "payable": false,
      "stateMutability": "pure",
      "type": "function"
    },
    {
      "constant": true,
      "inputs": [],
      "name": "getServices",
      "outputs": [
        {
          "internalType": "string[]",
          "name": "",
          "type": "string[]"
        }
      ],
      "payable": false,
      "stateMutability": "view",
      "type": "function"
    },
    {
      "constant": true,
      "inputs": [
        {
          "internalType": "string",
          "name": "serviceName",
          "type": "string"
        }
      ],
      "name": "getSubServices",
      "outputs": [
        {
          "internalType": "string[]",
          "name": "",
          "type": "string[]"
        }
      ],
      "payable": false,
      "stateMutability": "view",
      "type": "function"
    },
    {
      "constant": true,
      "inputs": [
        {
          "internalType": "bytes32",
          "name": "adr",
          "type": "bytes32"
        }
      ],
      "name": "isVerified",
      "outputs": [
        {
          "internalType": "bool",
          "name": "",
          "type": "bool"
        }
      ],
      "payable": false,
      "stateMutability": "view",
      "type": "function"
    },
    {
      "constant": true,
      "inputs": [],
      "name": "owner",
      "outputs": [
        {
          "internalType": "address",
          "name": "",
          "type": "address"
        }
      ],
      "payable": false,
      "stateMutability": "view",
      "type": "function"
    },
    {
      "constant": false,
      "inputs": [
        {
          "internalType": "bytes32",
          "name": "dealershipId",
          "type": "bytes32"
        },
        {
          "internalType": "bytes32",
          "name": "otherId",
          "type": "bytes32"
        }
      ],
      "name": "transferDealershipOwner",
      "outputs": [],
      "payable": false,
      "stateMutability": "nonpayable",
      "type": "function"
    },
    {
      "constant": false,
      "inputs": [
        {
          "internalType": "address",
          "name": "newOwner",
          "type": "address"
        }
      ],
      "name": "transferOwner",
      "outputs": [],
      "payable": false,
      "stateMutability": "nonpayable",
      "type": "function"
    },
    {
      "constant": false,
      "inputs": [
        {
          "internalType": "bytes32",
          "name": "userId",
          "type": "bytes32"
        },
        {
          "components": [
            {
              "internalType": "string",
              "name": "firstName",
              "type": "string"
            },
            {
              "internalType": "string",
              "name": "lastName",
              "type": "string"
            },
            {
              "internalType": "string",
              "name": "adr",
              "type": "string"
            },
            {
              "internalType": "string",
              "name": "phNo",
              "type": "string"
            },
            {
              "internalType": "string",
              "name": "email",
              "type": "string"
            }
          ],
          "internalType": "struct UserContract.UserInfo",
          "name": "info",
          "type": "tuple"
        }
      ],
      "name": "editUserInfo",
      "outputs": [],
      "payable": false,
      "stateMutability": "nonpayable",
      "type": "function"
    },
    {
      "constant": true,
      "inputs": [
        {
          "internalType": "bytes32",
          "name": "userId",
          "type": "bytes32"
        }
      ],
      "name": "getUserInfo",
      "outputs": [
        {
          "components": [
            {
              "internalType": "string",
              "name": "firstName",
              "type": "string"
            },
            {
              "internalType": "string",
              "name": "lastName",
              "type": "string"
            },
            {
              "internalType": "string",
              "name": "adr",
              "type": "string"
            },
            {
              "internalType": "string",
              "name": "phNo",
              "type": "string"
            },
            {
              "internalType": "string",
              "name": "email",
              "type": "string"
            }
          ],
          "internalType": "struct UserContract.UserInfo",
          "name": "",
          "type": "tuple"
        }
      ],
      "payable": false,
      "stateMutability": "view",
      "type": "function"
    },
    {
      "constant": false,
      "inputs": [
        {
          "internalType": "bytes32",
          "name": "userId",
          "type": "bytes32"
        },
        {
          "internalType": "string",
          "name": "noPlate",
          "type": "string"
        },
        {
          "components": [
            {
              "internalType": "string",
              "name": "brand",
              "type": "string"
            },
            {
              "internalType": "string",
              "name": "model",
              "type": "string"
            },
            {
              "internalType": "string",
              "name": "year",
              "type": "string"
            }
          ],
          "internalType": "struct UserContract.CarInfo",
          "name": "carInfo",
          "type": "tuple"
        }
      ],
      "name": "editCarDetails",
      "outputs": [],
      "payable": false,
      "stateMutability": "nonpayable",
      "type": "function"
    },
    {
      "constant": true,
      "inputs": [
        {
          "internalType": "bytes32",
          "name": "userId",
          "type": "bytes32"
        }
      ],
      "name": "getCarPlates",
      "outputs": [
        {
          "internalType": "string[]",
          "name": "",
          "type": "string[]"
        }
      ],
      "payable": false,
      "stateMutability": "view",
      "type": "function"
    },
    {
      "constant": true,
      "inputs": [
        {
          "internalType": "bytes32",
          "name": "userId",
          "type": "bytes32"
        }
      ],
      "name": "getCars",
      "outputs": [
        {
          "components": [
            {
              "internalType": "string",
              "name": "brand",
              "type": "string"
            },
            {
              "internalType": "string",
              "name": "model",
              "type": "string"
            },
            {
              "internalType": "string",
              "name": "year",
              "type": "string"
            }
          ],
          "internalType": "struct UserContract.CarInfo[]",
          "name": "",
          "type": "tuple[]"
        }
      ],
      "payable": false,
      "stateMutability": "view",
      "type": "function"
    },
    {
      "constant": true,
      "inputs": [
        {
          "internalType": "string",
          "name": "noPlate",
          "type": "string"
        }
      ],
      "name": "getCarDetails",
      "outputs": [
        {
          "components": [
            {
              "internalType": "string",
              "name": "brand",
              "type": "string"
            },
            {
              "internalType": "string",
              "name": "model",
              "type": "string"
            },
            {
              "internalType": "string",
              "name": "year",
              "type": "string"
            }
          ],
          "internalType": "struct UserContract.CarInfo",
          "name": "",
          "type": "tuple"
        }
      ],
      "payable": false,
      "stateMutability": "view",
      "type": "function"
    },
    {
      "constant": false,
      "inputs": [
        {
          "internalType": "bytes32",
          "name": "dealerId",
          "type": "bytes32"
        },
        {
          "internalType": "bytes32",
          "name": "id",
          "type": "bytes32"
        },
        {
          "internalType": "string",
          "name": "noPlate",
          "type": "string"
        },
        {
          "internalType": "string[]",
          "name": "services",
          "type": "string[]"
        },
        {
          "internalType": "string[]",
          "name": "subservices",
          "type": "string[]"
        },
        {
          "internalType": "string",
          "name": "comment",
          "type": "string"
        },
        {
          "internalType": "uint256",
          "name": "timeStamp",
          "type": "uint256"
        }
      ],
      "name": "insertRecord",
      "outputs": [],
      "payable": false,
      "stateMutability": "nonpayable",
      "type": "function"
    },
    {
      "constant": true,
      "inputs": [
        {
          "internalType": "string",
          "name": "noPlate",
          "type": "string"
        }
      ],
      "name": "getRecords",
      "outputs": [
        {
          "components": [
            {
              "internalType": "bytes32",
              "name": "dealerId",
              "type": "bytes32"
            },
            {
              "internalType": "string[]",
              "name": "services",
              "type": "string[]"
            },
            {
              "internalType": "string[]",
              "name": "subservices",
              "type": "string[]"
            },
            {
              "internalType": "string",
              "name": "comment",
              "type": "string"
            },
            {
              "internalType": "uint256",
              "name": "timeStamp",
              "type": "uint256"
            }
          ],
          "internalType": "struct UserContract.RecordInternal[]",
          "name": "",
          "type": "tuple[]"
        }
      ],
      "payable": false,
      "stateMutability": "view",
      "type": "function"
    }
  ],
  "bytecode": "0x60806040526006805461fe0061ff0019909116179055600080546001600160a01b03191633179055614416806100366000396000f3fe608060405234801561001057600080fd5b50600436106101a95760003560e01c80637d17f13c116100f95780638f2b514411610097578063c4e91d1711610071578063c4e91d17146103b5578063c9b54a58146103c8578063d872acac146103e8578063e445268c14610408576101a9565b80638f2b514414610362578063adff8b0f14610375578063c181b27314610395576101a9565b806386e80b71116100d357806386e80b711461030757806388fcd194146103275780638da5cb5b1461033a5780638ee242141461034f576101a9565b80637d17f13c146102bf5780637e41667f146102df57806382d7afbd146102f4576101a9565b8063431a65fc116101665780635b6beeb9116101405780635b6beeb9146102715780636fd7d2b514610291578063752326c1146102a457806375417851146102b7576101a9565b8063431a65fc146102225780634fb2e45d1461024b57806350fb95e31461025e576101a9565b80630ad5be91146101ae5780630eb7bc8f146101c35780631118127a146101d65780631a4c85be146101e95780631b8f47fe146101fc578063369bfce41461020f575b600080fd5b6101c16101bc366004613413565b61041b565b005b6101c16101d1366004613601565b610581565b6101c16101e43660046136e5565b61060c565b6101c16101f73660046135cd565b6107fa565b6101c161020a36600461339d565b6108ab565b6101c161021d366004613601565b61093c565b6102356102303660046135cd565b6109d6565b6040516102429190614137565b60405180910390f35b6101c1610259366004613377565b610acd565b6101c161026c366004613601565b610b19565b61028461027f3660046135cd565b610bfc565b6040516102429190614178565b6101c161029f36600461365e565b610c71565b6101c16102b23660046136e5565b610d1b565b610235610e82565b6102d26102cd36600461339d565b610fd7565b6040516102429190614267565b6102e7611761565b6040516102429190614126565b6101c16103023660046133d9565b6117e4565b61031a6103153660046135cd565b6118e0565b6040516102429190614159565b6101c16103353660046135cd565b611baa565b610342611cb8565b6040516102429190614118565b6101c161035d36600461350b565b611cc7565b61023561037036600461339d565b611dce565b61038861038336600461339d565b611eae565b6040516102429190614298565b6103a86103a336600461339d565b6121c0565b604051610242919061416a565b6101c16103c3366004613586565b6121ed565b6103db6103d636600461339d565b61227f565b6040516102429190614148565b6103fb6103f63660046135cd565b612521565b6040516102429190614256565b6101c16104163660046133d9565b6126dd565b86610425816121c0565b61044a5760405162461bcd60e51b815260040161044190614246565b60405180910390fd5b84518451111561046c5760405162461bcd60e51b8152600401610441906141d6565b60006104788888612768565b12156104b5576000878152600b60209081526040822080546001810180835591845292829020895191936104b293910191908a0190612a92565b50505b6009866040516104c59190614100565b90815260408051918290036020908101832060a0840183528b845283820189815292840188905260608401879052608084018690528054600181810180845560009384529284902086516005909302019182559351805192959491936105319392850192910190612b10565b506040820151805161054d916002840191602090910190612b10565b5060608201518051610569916003840191602090910190612a92565b50608082015181600401555050505050505050505050565b6000546001600160a01b031633146105ab5760405162461bcd60e51b8152600401610441906141e6565b816105b58161287d565b6105d15760405162461bcd60e51b815260040161044190614206565b81600760006105df8661289e565b60ff1660ff1681526020019081526020016000209080519060200190610606929190612a92565b50505050565b60008181526001602052604090205460ff161561063b5760405162461bcd60e51b815260040161044190614216565b6000818152600460209081526040909120835180518593610660928492910190612a92565b5060208281015180516106799260018501920190612a92565b5060408201518051610695916002840191602090910190612a92565b50606082015180516106b1916003840191602090910190612a92565b5060808201516106c79060048301906002612b69565b5060a082015180516106e3916006840191602090910190612a92565b5060c082015180516106ff916007840191602090910190612a92565b5060e0820151805161071b916008840191602090910190612a92565b506101008201518051610738916009840191602090910190612a92565b50610120820151805161075591600a840191602090910190612b10565b50610140820151805161077291600b840191602090910190612ba9565b50905050600061078182612988565b12156107bd57600580546001810182556000919091527f036b6384b5eca791c62761152d0c79bb0604c104a5fb6f4eb0703f3154bb3db0018190555b7fbcb28ce223d1d07df7ff015302f0aee0306ad6362ede3db7aa3c6d40a651f00882826040516107ee929190614278565b60405180910390a15050565b6000546001600160a01b031633146108245760405162461bcd60e51b8152600401610441906141e6565b8061082e8161287d565b61084a5760405162461bcd60e51b815260040161044190614206565b60405180602001604052806000815250600760006108678561289e565b60ff1660ff168152602001908152602001600020908051906020019061088e929190612a92565b50506006805460ff19811660ff9182166000190190911617905550565b6000546001600160a01b031633146108d55760405162461bcd60e51b8152600401610441906141e6565b60006108e082612988565b905060008112156109035760405162461bcd60e51b8152600401610441906141b6565b6000828152600160208190526040909120805460ff19169091179055600580548290811061092d57fe5b60009182526020822001555050565b6000546001600160a01b031633146109665760405162461bcd60e51b8152600401610441906141e6565b818161097282826129ce565b61098e5760405162461bcd60e51b8152600401610441906141f6565b60088460405161099e9190614100565b90815260200160405180910390206109b685856129e4565b815481106109c057fe5b9060005260206000200160006106069190612c02565b60606008826040516109e89190614100565b9081526020016040518091039020805480602002602001604051908101604052809291908181526020016000905b82821015610ac15760008481526020908190208301805460408051601f6002600019610100600187161502019094169390930492830185900485028101850190915281815292830182828015610aad5780601f10610a8257610100808354040283529160200191610aad565b820191906000526020600020905b815481529060010190602001808311610a9057829003601f168201915b505050505081526020019060010190610a16565b5050505090505b919050565b6000546001600160a01b03163314610af75760405162461bcd60e51b8152600401610441906141e6565b600080546001600160a01b0319166001600160a01b0392909216919091179055565b8160ff600882604051610b2c9190614100565b9081526040519081900360200190205410610b595760405162461bcd60e51b8152600401610441906141c6565b8282610b6582826129ce565b15610b825760405162461bcd60e51b8152600401610441906141a6565b6000546001600160a01b03163314610bac5760405162461bcd60e51b8152600401610441906141e6565b600885604051610bbc9190614100565b9081526040516020918190038201902080546001810180835560009283529183902087519293610bf3939190920191880190612a92565b50505050505050565b6000600282604051602001610c119190614100565b60408051601f1981840301815290829052610c2b91614100565b602060405180830381855afa158015610c48573d6000803e3d6000fd5b5050506040513d601f19601f82011682018060405250610c6b91908101906133bb565b92915050565b8282610c7d82826129ce565b610c995760405162461bcd60e51b8152600401610441906141f6565b6000546001600160a01b03163314610cc35760405162461bcd60e51b8152600401610441906141e6565b82600886604051610cd49190614100565b9081526020016040518091039020610cec87876129e4565b81548110610cf657fe5b906000526020600020019080519060200190610d13929190612a92565b505050505050565b600081815260016020526040902054819060ff16610d4b5760405162461bcd60e51b815260040161044190614196565b6000828152600460209081526040909120845180518693610d70928492910190612a92565b506020828101518051610d899260018501920190612a92565b5060408201518051610da5916002840191602090910190612a92565b5060608201518051610dc1916003840191602090910190612a92565b506080820151610dd79060048301906002612b69565b5060a08201518051610df3916006840191602090910190612a92565b5060c08201518051610e0f916007840191602090910190612a92565b5060e08201518051610e2b916008840191602090910190612a92565b506101008201518051610e48916009840191602090910190612a92565b506101208201518051610e6591600a840191602090910190612b10565b506101408201518051610d1391600b840191602090910190612ba9565b6006546040805160ff909216808352602080820284010190915260609182918015610ec157816020015b6060815260200190600190039081610eac5790505b5090506000805b60065460ff61010090910481169082161015610fce5760ff81166000908152600760205260409020546002600019610100600184161502019091160415610fc65760ff811660009081526007602090815260409182902080548351601f600260001961010060018616150201909316929092049182018490048402810184019094528084529091830182828015610fa05780601f10610f7557610100808354040283529160200191610fa0565b820191906000526020600020905b815481529060010190602001808311610f8357829003601f168201915b5050505050838380600101945060ff1681518110610fba57fe5b60200260200101819052505b600101610ec8565b50909150505b90565b610fdf612c49565b6000828152600460209081526040918290208251815460026001821615610100026000190190911604601f81018490049093028101610180908101909452610160810183815290939192849284919084018282801561107f5780601f106110545761010080835404028352916020019161107f565b820191906000526020600020905b81548152906001019060200180831161106257829003601f168201915b50505050508152602001600182018054600181600116156101000203166002900480601f0160208091040260200160405190810160405280929190818152602001828054600181600116156101000203166002900480156111215780601f106110f657610100808354040283529160200191611121565b820191906000526020600020905b81548152906001019060200180831161110457829003601f168201915b5050509183525050600282810180546040805160206001841615610100026000190190931694909404601f810183900483028501830190915280845293810193908301828280156111b35780601f10611188576101008083540402835291602001916111b3565b820191906000526020600020905b81548152906001019060200180831161119657829003601f168201915b505050918352505060038201805460408051602060026001851615610100026000190190941693909304601f81018490048402820184019092528181529382019392918301828280156112475780601f1061121c57610100808354040283529160200191611247565b820191906000526020600020905b81548152906001019060200180831161122a57829003601f168201915b5050509183525050604080518082019091526020909101906004830160026000835b8282101561130c57838201805460408051602060026001851615610100026000190190941693909304601f810184900484028201840190925281815292918301828280156112f85780601f106112cd576101008083540402835291602001916112f8565b820191906000526020600020905b8154815290600101906020018083116112db57829003601f168201915b505050505081526020019060010190611269565b5050509082525060068201805460408051602060026001851615610100026000190190941693909304601f810184900484028201840190925281815293820193929183018282801561139f5780601f106113745761010080835404028352916020019161139f565b820191906000526020600020905b81548152906001019060200180831161138257829003601f168201915b505050918352505060078201805460408051602060026001851615610100026000190190941693909304601f81018490048402820184019092528181529382019392918301828280156114335780601f1061140857610100808354040283529160200191611433565b820191906000526020600020905b81548152906001019060200180831161141657829003601f168201915b505050918352505060088201805460408051602060026001851615610100026000190190941693909304601f81018490048402820184019092528181529382019392918301828280156114c75780601f1061149c576101008083540402835291602001916114c7565b820191906000526020600020905b8154815290600101906020018083116114aa57829003601f168201915b505050918352505060098201805460408051602060026001851615610100026000190190941693909304601f810184900484028201840190925281815293820193929183018282801561155b5780601f106115305761010080835404028352916020019161155b565b820191906000526020600020905b81548152906001019060200180831161153e57829003601f168201915b50505050508152602001600a8201805480602002602001604051908101604052809291908181526020016000905b828210156116345760008481526020908190208301805460408051601f60026000196101006001871615020190941693909304928301859004850281018501909152818152928301828280156116205780601f106115f557610100808354040283529160200191611620565b820191906000526020600020905b81548152906001019060200180831161160357829003601f168201915b505050505081526020019060010190611589565b505050508152602001600b8201805480602002602001604051908101604052809291908181526020016000905b8282101561175357838290600052602060002001805480602002602001604051908101604052809291908181526020016000905b828210156117405760008481526020908190208301805460408051601f600260001961010060018716150201909416939093049283018590048502810185019091528181529283018282801561172c5780601f106117015761010080835404028352916020019161172c565b820191906000526020600020905b81548152906001019060200180831161170f57829003601f168201915b505050505081526020019060010190611695565b5050505081526020019060010190611661565b505050915250909392505050565b6000546060906001600160a01b0316331461178e5760405162461bcd60e51b8152600401610441906141e6565b60058054806020026020016040519081016040528092919081815260200182805480156117da57602002820191906000526020600020905b8154815260200190600101908083116117c6575b5050505050905090565b600082815260016020526040902054829060ff166118145760405162461bcd60e51b815260040161044190614196565b6000828152600160208181526040808420805460ff19908116909417905586845280842080549093169092558483526003815281832083905585835260029052808220848352912081546118689290612ca9565b50600083815260026020526040812061188091612ce9565b60005b6000838152600260205260409020548110156106065782600360006002600087815260200190815260200160002084815481106118bc57fe5b60009182526020808320909101548352820192909252604001902055600101611883565b60606009826040516118f29190614100565b9081526020016040518091039020805480602002602001604051908101604052809291908181526020016000905b82821015610ac157838290600052602060002090600502016040518060a00160405290816000820154815260200160018201805480602002602001604051908101604052809291908181526020016000905b82821015611a1d5760008481526020908190208301805460408051601f6002600019610100600187161502019094169390930492830185900485028101850190915281815292830182828015611a095780601f106119de57610100808354040283529160200191611a09565b820191906000526020600020905b8154815290600101906020018083116119ec57829003601f168201915b505050505081526020019060010190611972565b50505050815260200160028201805480602002602001604051908101604052809291908181526020016000905b82821015611af55760008481526020908190208301805460408051601f6002600019610100600187161502019094169390930492830185900485028101850190915281815292830182828015611ae15780601f10611ab657610100808354040283529160200191611ae1565b820191906000526020600020905b815481529060010190602001808311611ac457829003601f168201915b505050505081526020019060010190611a4a565b5050509082525060038201805460408051602060026001851615610100026000190190941693909304601f8101849004840282018401909252818152938201939291830182828015611b885780601f10611b5d57610100808354040283529160200191611b88565b820191906000526020600020905b815481529060010190602001808311611b6b57829003601f168201915b5050505050815260200160048201548152505081526020019060010190611920565b6000546001600160a01b03163314611bd45760405162461bcd60e51b8152600401610441906141e6565b80611bde8161287d565b15611bfb5760405162461bcd60e51b815260040161044190614226565b60065460ff6101008204811691161115611c275760405162461bcd60e51b815260040161044190614236565b60005b60065460ff61010090910481169082161015611cb25760ff811660009081526007602052604090205460026000196101006001841615020190911604611caa5760ff811660009081526007602090815260409091208451611c8d92860190612a92565b50506006805460ff8082166001011660ff19909116179055611cb4565b600101611c2a565b505b5050565b6000546001600160a01b031681565b80600c83604051611cd89190614100565b90815260200160405180910390206000820151816000019080519060200190611d02929190612a92565b506020828101518051611d1b9260018501920190612a92565b5060408201518051611d37916002840191602090910190612a92565b509050506000611d478484612768565b90506000811215611d8d576000848152600b6020908152604082208054600181018083559184529282902086519193611d869391019190870190612a92565b5050610606565b6000848152600b60205260409020805484919083908110611daa57fe5b906000526020600020019080519060200190611dc7929190612a92565b5050505050565b6060600b6000838152602001908152602001600020805480602002602001604051908101604052809291908181526020016000905b82821015610ac15760008481526020908190208301805460408051601f6002600019610100600187161502019094169390930492830185900485028101850190915281815292830182828015611e9a5780601f10611e6f57610100808354040283529160200191611e9a565b820191906000526020600020905b815481529060010190602001808311611e7d57829003601f168201915b505050505081526020019060010190611e03565b611eb6612d07565b6000828152600a60209081526040918290208251815460026001821615610100026000190190911604601f8101849004909302810160c090810190945260a08101838152909391928492849190840182828015611f545780601f10611f2957610100808354040283529160200191611f54565b820191906000526020600020905b815481529060010190602001808311611f3757829003601f168201915b50505050508152602001600182018054600181600116156101000203166002900480601f016020809104026020016040519081016040528092919081815260200182805460018160011615610100020316600290048015611ff65780601f10611fcb57610100808354040283529160200191611ff6565b820191906000526020600020905b815481529060010190602001808311611fd957829003601f168201915b5050509183525050600282810180546040805160206001841615610100026000190190931694909404601f810183900483028501830190915280845293810193908301828280156120885780601f1061205d57610100808354040283529160200191612088565b820191906000526020600020905b81548152906001019060200180831161206b57829003601f168201915b505050918352505060038201805460408051602060026001851615610100026000190190941693909304601f810184900484028201840190925281815293820193929183018282801561211c5780601f106120f15761010080835404028352916020019161211c565b820191906000526020600020905b8154815290600101906020018083116120ff57829003601f168201915b505050918352505060048201805460408051602060026001851615610100026000190190941693909304601f81018490048402820184019092528181529382019392918301828280156121b05780601f10612185576101008083540402835291602001916121b0565b820191906000526020600020905b81548152906001019060200180831161219357829003601f168201915b5050505050815250509050919050565b60008181526001602052604081205460ff1680610c6b575050600090815260036020526040902054151590565b6000828152600a60209081526040909120825180518493612212928492910190612a92565b50602082810151805161222b9260018501920190612a92565b5060408201518051612247916002840191602090910190612a92565b5060608201518051612263916003840191602090910190612a92565b5060808201518051611dc7916004840191602090910190612a92565b606080600b6000848152602001908152602001600020805490506040519080825280602002602001820160405280156122d257816020015b6122bf612d36565b8152602001906001900390816122b75790505b50905060005b6000848152600b602052604090205481101561251a576000848152600b602052604090208054600c91908390811061230c57fe5b90600052602060002001604051612323919061410c565b9081526040805160209281900383018120805460026001821615610100026000190190911604601f810185900490940282016080908101909352606082018481529193909284929184918401828280156123be5780601f10612393576101008083540402835291602001916123be565b820191906000526020600020905b8154815290600101906020018083116123a157829003601f168201915b50505050508152602001600182018054600181600116156101000203166002900480601f0160208091040260200160405190810160405280929190818152602001828054600181600116156101000203166002900480156124605780601f1061243557610100808354040283529160200191612460565b820191906000526020600020905b81548152906001019060200180831161244357829003601f168201915b5050509183525050600282810180546040805160206001841615610100026000190190931694909404601f810183900483028501830190915280845293810193908301828280156124f25780601f106124c7576101008083540402835291602001916124f2565b820191906000526020600020905b8154815290600101906020018083116124d557829003601f168201915b50505050508152505082828151811061250757fe5b60209081029190910101526001016122d8565b5092915050565b612529612d36565b600c826040516125399190614100565b9081526040805160209281900383018120805460026001821615610100026000190190911604601f810185900490940282016080908101909352606082018481529193909284929184918401828280156125d45780601f106125a9576101008083540402835291602001916125d4565b820191906000526020600020905b8154815290600101906020018083116125b757829003601f168201915b50505050508152602001600182018054600181600116156101000203166002900480601f0160208091040260200160405190810160405280929190818152602001828054600181600116156101000203166002900480156126765780601f1061264b57610100808354040283529160200191612676565b820191906000526020600020905b81548152906001019060200180831161265957829003601f168201915b5050509183525050600282810180546040805160206001841615610100026000190190931694909404601f810183900483028501830190915280845293810193908301828280156121b05780601f10612185576101008083540402835291602001916121b0565b600082815260016020526040902054829060ff1661270d5760405162461bcd60e51b815260040161044190614196565b600082815260036020526040902054156127395760405162461bcd60e51b815260040161044190614186565b506000828152600260209081526040808320805460018101825590845282842001849055928252600390522055565b6000805b6000848152600b60205260409020546001600160801b03821610156128725761279483612a62565b6000858152600b60205260409020805461285491906001600160801b0385169081106127bc57fe5b600091825260209182902001805460408051601f600260001961010060018716150201909416939093049283018590048502810185019091528181529283018282801561284a5780601f1061281f5761010080835404028352916020019161284a565b820191906000526020600020905b81548152906001019060200180831161282d57829003601f168201915b5050505050612a62565b141561286a576001600160801b03169050610c6b565b60010161276c565b506000199392505050565b600654600090610100900460ff166128948361289e565b60ff161092915050565b6000806128aa83612a62565b905060005b60065460ff6101009091048116908216101561297e5760ff81166000908152600760205260409020546002600019610100600184161502019091160415801590612968575060ff81166000908152600760209081526040918290208054835160026001831615610100026000190190921691909104601f810184900484028201840190945283815285936129669391929183018282801561284a5780601f1061281f5761010080835404028352916020019161284a565b145b15612976579150610ac89050565b6001016128af565b5060ff9392505050565b6000805b6005548110156129c45782600582815481106129a457fe5b906000526020600020015414156129bc579050610ac8565b60010161298c565b5060001992915050565b600060ff6129dc84846129e4565b109392505050565b6000805b6008846040516129f89190614100565b9081526040519081900360200190205460ff8216101561297e57612a1b83612a62565b612a4a600886604051612a2e9190614100565b90815260200160405180910390208360ff16815481106127bc57fe5b1415612a5a5760ff169050610c6b565b6001016129e8565b600081604051602001612a759190614100565b604051602081830303815290604052805190602001209050919050565b828054600181600116156101000203166002900490600052602060002090601f016020900481019282601f10612ad357805160ff1916838001178555612b00565b82800160010185558215612b00579182015b82811115612b00578251825591602001919060010190612ae5565b50612b0c929150612d57565b5090565b828054828255906000526020600020908101928215612b5d579160200282015b82811115612b5d5782518051612b4d918491602090910190612a92565b5091602001919060010190612b30565b50612b0c929150612d71565b8260028101928215612b5d579160200282015b82811115612b5d5782518051612b99918491602090910190612a92565b5091602001919060010190612b7c565b828054828255906000526020600020908101928215612bf6579160200282015b82811115612bf65782518051612be6918491602090910190612b10565b5091602001919060010190612bc9565b50612b0c929150612d94565b50805460018160011615610100020316600290046000825580601f10612c285750612c46565b601f016020900490600052602060002090810190612c469190612d57565b50565b60405180610160016040528060608152602001606081526020016060815260200160608152602001612c79612db7565b81526020016060815260200160608152602001606081526020016060815260200160608152602001606081525090565b828054828255906000526020600020908101928215612b005760005260206000209182015b82811115612b00578254825591600101919060010190612cce565b5080546000825590600052602060002090810190612c469190612d57565b6040518060a0016040528060608152602001606081526020016060815260200160608152602001606081525090565b60405180606001604052806060815260200160608152602001606081525090565b610fd491905b80821115612b0c5760008155600101612d5d565b610fd491905b80821115612b0c576000612d8b8282612c02565b50600101612d77565b610fd491905b80821115612b0c576000612dae8282612dde565b50600101612d9a565b60405180604001604052806002905b6060815260200190600190039081612dc65790505090565b5080546000825590600052602060002090810190612c469190612d71565b8035610c6b816143b6565b600082601f830112612e1857600080fd5b8135612e2b612e26826142cf565b6142a9565b81815260209384019390925082018360005b83811015612e695781358601612e538882612ec5565b8452506020928301929190910190600101612e3d565b5050505092915050565b600082601f830112612e8457600080fd5b6002612e92612e26826142ef565b9150818360005b83811015612e695781358601612eaf8882612f95565b8452506020928301929190910190600101612e99565b600082601f830112612ed657600080fd5b8135612ee4612e26826142cf565b81815260209384019390925082018360005b83811015612e695781358601612f0c8882612f95565b8452506020928301929190910190600101612ef6565b600082601f830112612f3357600080fd5b8135612f41612e26826142cf565b81815260209384019390925082018360005b83811015612e695781358601612f698882612f95565b8452506020928301929190910190600101612f53565b8035610c6b816143ca565b8051610c6b816143ca565b600082601f830112612fa657600080fd5b8135612fb4612e268261430c565b91508082526020830160208301858383011115612fd057600080fd5b612fdb838284614374565b50505092915050565b600060608284031215612ff657600080fd5b61300060606142a9565b905081356001600160401b0381111561301857600080fd5b61302484828501612f95565b82525060208201356001600160401b0381111561304057600080fd5b61304c84828501612f95565b60208301525060408201356001600160401b0381111561306b57600080fd5b61307784828501612f95565b60408301525092915050565b6000610160828403121561309657600080fd5b6130a16101606142a9565b905081356001600160401b038111156130b957600080fd5b6130c584828501612f95565b82525060208201356001600160401b038111156130e157600080fd5b6130ed84828501612f95565b60208301525060408201356001600160401b0381111561310c57600080fd5b61311884828501612f95565b60408301525060608201356001600160401b0381111561313757600080fd5b61314384828501612f95565b60608301525060808201356001600160401b0381111561316257600080fd5b61316e84828501612e73565b60808301525060a08201356001600160401b0381111561318d57600080fd5b61319984828501612f95565b60a08301525060c08201356001600160401b038111156131b857600080fd5b6131c484828501612f95565b60c08301525060e08201356001600160401b038111156131e357600080fd5b6131ef84828501612f95565b60e0830152506101008201356001600160401b0381111561320f57600080fd5b61321b84828501612f95565b610100830152506101208201356001600160401b0381111561323c57600080fd5b61324884828501612ec5565b610120830152506101408201356001600160401b0381111561326957600080fd5b61327584828501612e07565b6101408301525092915050565b600060a0828403121561329457600080fd5b61329e60a06142a9565b905081356001600160401b038111156132b657600080fd5b6132c284828501612f95565b82525060208201356001600160401b038111156132de57600080fd5b6132ea84828501612f95565b60208301525060408201356001600160401b0381111561330957600080fd5b61331584828501612f95565b60408301525060608201356001600160401b0381111561333457600080fd5b61334084828501612f95565b60608301525060808201356001600160401b0381111561335f57600080fd5b61336b84828501612f95565b60808301525092915050565b60006020828403121561338957600080fd5b60006133958484612dfc565b949350505050565b6000602082840312156133af57600080fd5b60006133958484612f7f565b6000602082840312156133cd57600080fd5b60006133958484612f8a565b600080604083850312156133ec57600080fd5b60006133f88585612f7f565b925050602061340985828601612f7f565b9150509250929050565b600080600080600080600060e0888a03121561342e57600080fd5b600061343a8a8a612f7f565b975050602061344b8a828b01612f7f565b96505060408801356001600160401b0381111561346757600080fd5b6134738a828b01612f95565b95505060608801356001600160401b0381111561348f57600080fd5b61349b8a828b01612f22565b94505060808801356001600160401b038111156134b757600080fd5b6134c38a828b01612f22565b93505060a08801356001600160401b038111156134df57600080fd5b6134eb8a828b01612f95565b92505060c06134fc8a828b01612f7f565b91505092959891949750929550565b60008060006060848603121561352057600080fd5b600061352c8686612f7f565b93505060208401356001600160401b0381111561354857600080fd5b61355486828701612f95565b92505060408401356001600160401b0381111561357057600080fd5b61357c86828701612fe4565b9150509250925092565b6000806040838503121561359957600080fd5b60006135a58585612f7f565b92505060208301356001600160401b038111156135c157600080fd5b61340985828601613282565b6000602082840312156135df57600080fd5b81356001600160401b038111156135f557600080fd5b61339584828501612f95565b6000806040838503121561361457600080fd5b82356001600160401b0381111561362a57600080fd5b61363685828601612f95565b92505060208301356001600160401b0381111561365257600080fd5b61340985828601612f95565b60008060006060848603121561367357600080fd5b83356001600160401b0381111561368957600080fd5b61369586828701612f95565b93505060208401356001600160401b038111156136b157600080fd5b6136bd86828701612f95565b92505060408401356001600160401b038111156136d957600080fd5b61357c86828701612f95565b600080604083850312156136f857600080fd5b82356001600160401b0381111561370e57600080fd5b6133f885828601613083565b600061372683836138fd565b9392505050565b60006137398383613a29565b505060200190565b60006137268383613a61565b60006137268383613e8b565b60006137268383614003565b61376e81614358565b82525050565b600061377f82614345565b613789818561434f565b93508360208202850161379b85614333565b8060005b858110156137d557848403895281516137b8858261371a565b94506137c383614333565b60209a909a019992505060010161379f565b5091979650505050505050565b60006137ed82614345565b6137f7818561434f565b935061380283614333565b8060005b8381101561383057815161381a888261372d565b975061382583614333565b925050600101613806565b509495945050505050565b600061384682614349565b6138508185610ac8565b93508360208202850161386285610fd4565b8060005b858110156137d5578484038952815161387f8582613741565b945061388a83614333565b60209a909a0199925050600101613866565b60006138a782614345565b6138b1818561434f565b9350836020820285016138c385614333565b8060005b858110156137d557848403895281516138e08582613741565b94506138eb83614333565b60209a909a01999250506001016138c7565b600061390882614345565b613912818561434f565b93508360208202850161392485614333565b8060005b858110156137d557848403895281516139418582613741565b945061394c83614333565b60209a909a0199925050600101613928565b600061396982614345565b613973818561434f565b93508360208202850161398585614333565b8060005b858110156137d557848403895281516139a2858261374d565b94506139ad83614333565b60209a909a0199925050600101613989565b60006139ca82614345565b6139d4818561434f565b9350836020820285016139e685614333565b8060005b858110156137d55784840389528151613a038582613759565b9450613a0e83614333565b60209a909a01999250506001016139ea565b61376e81614363565b61376e81610fd4565b6000613a3d82614345565b613a478185610ac8565b9350613a57818560208601614380565b9290920192915050565b6000613a6c82614345565b613a76818561434f565b9350613a86818560208601614380565b613a8f816143ac565b9093019392505050565b600081546001811660008114613ab65760018114613ad957613b18565b607f6002830416613ac78187610ac8565b60ff1984168152955085019250613b18565b60028204613ae78187610ac8565b9550613af285614339565b60005b82811015613b1157815488820152600190910190602001613af5565b5050850192505b505092915050565b6000613b2d60218361434f565b7f5468617420656d706c6f79656520616c726561647920776f726b7320746865728152606560f81b602082015260400192915050565b6000613b7060298361434f565b7f596f75206d7573742062652061206465616c657273686970206f776e657220748152686f20646f207468697360b81b602082015260400192915050565b6000613bbb601e8361434f565b7f54686174207375627365727669636520616c7265616479206578697374730000815260200192915050565b6000613bf460218361434f565b7f4e6f206170706c69636174696f6e2065786973747320666f72207468617420698152601960fa1b602082015260400192915050565b6000613c3760218361434f565b7f4d6178696d756d207375627365727669636520616d6f756e74207265616368658152601960fa1b602082015260400192915050565b6000613c7a60338361434f565b7f4e756d626572206f6620737562736572766963657320646f6573206e6f74206d8152720c2e8c6d040e6cae4ecd2c6ca40d8cadccee8d606b1b602082015260400192915050565b6000613ccf60158361434f565b742cb7ba9030b932903737ba103a34329037bbb732b960591b815260200192915050565b6000613d00602c8361434f565b7f54686174207375627365727669636520646f65736e7420657869737420696e2081526b1d1a1a5cc818dbdb9d195e1d60a21b602082015260400192915050565b6000613d4e601b8361434f565b7f54686174207365727669636520646f6573206e6f742065786973740000000000815260200192915050565b6000613d8760228361434f565b7f54686174206164647265737320697320616c7265616479207265676973746572815261195960f21b602082015260400192915050565b6000613dcb601b8361434f565b7f54686174207365727669636520616c7265616479206578697374730000000000815260200192915050565b6000613e0460288361434f565b7f54686572652061726520746865206d6178696d756d206e756d626572206f6620815267736572766963657360c01b602082015260400192915050565b6000613e4e60288361434f565b7f596f75206d7573742062652061207665726966696564206465616c657220746f81526720646f207468697360c01b602082015260400192915050565b8051606080845260009190840190613ea38282613a61565b91505060208301518482036020860152613ebd8282613a61565b91505060408301518482036040860152613ed78282613a61565b95945050505050565b805161016080845260009190840190613ef98282613a61565b91505060208301518482036020860152613f138282613a61565b91505060408301518482036040860152613f2d8282613a61565b91505060608301518482036060860152613f478282613a61565b91505060808301518482036080860152613f61828261383b565b91505060a083015184820360a0860152613f7b8282613a61565b91505060c083015184820360c0860152613f958282613a61565b91505060e083015184820360e0860152613faf8282613a61565b915050610100830151848203610100860152613fcb8282613a61565b915050610120830151848203610120860152613fe782826138fd565b915050610140830151848203610140860152613ed78282613774565b805160009060a08401906140178582613a29565b506020830151848203602086015261402f82826138fd565b9150506040830151848203604086015261404982826138fd565b915050606083015184820360608601526140638282613a61565b91505060808301516140786080860182613a29565b509392505050565b805160a0808452600091908401906140988282613a61565b915050602083015184820360208601526140b28282613a61565b915050604083015184820360408601526140cc8282613a61565b915050606083015184820360608601526140e68282613a61565b91505060808301518482036080860152613ed78282613a61565b60006137268284613a32565b60006137268284613a99565b60208101610c6b8284613765565b6020808252810161372681846137e2565b60208082528101613726818461389c565b60208082528101613726818461395e565b6020808252810161372681846139bf565b60208101610c6b8284613a20565b60208101610c6b8284613a29565b60208082528101610c6b81613b20565b60208082528101610c6b81613b63565b60208082528101610c6b81613bae565b60208082528101610c6b81613be7565b60208082528101610c6b81613c2a565b60208082528101610c6b81613c6d565b60208082528101610c6b81613cc2565b60208082528101610c6b81613cf3565b60208082528101610c6b81613d41565b60208082528101610c6b81613d7a565b60208082528101610c6b81613dbe565b60208082528101610c6b81613df7565b60208082528101610c6b81613e41565b602080825281016137268184613e8b565b602080825281016137268184613ee0565b604080825281016142898185613ee0565b90506137266020830184613a29565b602080825281016137268184614080565b6040518181016001600160401b03811182821017156142c757600080fd5b604052919050565b60006001600160401b038211156142e557600080fd5b5060209081020190565b60006001600160401b0382111561430557600080fd5b5060200290565b60006001600160401b0382111561432257600080fd5b506020601f91909101601f19160190565b60200190565b60009081526020902090565b5190565b50600290565b90815260200190565b6000610c6b82614368565b151590565b6001600160a01b031690565b82818337506000910152565b60005b8381101561439b578181015183820152602001614383565b838111156106065750506000910152565b601f01601f191690565b6143bf81614358565b8114612c4657600080fd5b6143bf81610fd456fea365627a7a7231582014b81e13760a39ca91522769fdeeccd2b511740df28b4234951a46fe445324b36c6578706572696d656e74616cf564736f6c634300050c0040",
  "source": "pragma solidity ^0.5.11;\npragma experimental ABIEncoderV2;\n\nimport \"./ServiceHandler.sol\";\n\ncontract UserContract is ServiceHandler {\n\n    struct RecordInternal {\n        bytes32 dealerId;\n        string[] services;\n        string[] subservices;\n        string comment;\n        uint timeStamp;\n    }\n    struct UserInfo {\n        string firstName;\n        string lastName;\n        string adr;\n        string phNo;\n        string email;\n    }\n    struct CarInfo{\n        string brand;\n        string model;\n        string year;\n    }\n\n    //------------------------------------------------------------_Records_---------------------------------------------\n\n    mapping(string => RecordInternal[]) private records;\n    mapping(bytes32 => UserInfo) private userInfoRecords;\n    mapping(bytes32 => string[]) private userCars;\n    mapping(string => CarInfo) private carDetails;\n\n    modifier carExists(string memory noPlate) {\n        require(bytes(carDetails[noPlate].brand).length > 0,\"That car does not exist in the chain\");\n        _;\n    }\n\n    function editUserInfo(bytes32 userId, UserInfo memory info) public {\n        userInfoRecords[userId] = info;\n    }\n\n    function getUserInfo(bytes32 userId) public view returns(UserInfo memory) {\n        return userInfoRecords[userId];\n    }\n\n    function editCarDetails(bytes32 userId, string memory noPlate, CarInfo memory carInfo) public{\n        carDetails[noPlate] = carInfo;\n        int index = getCarIndex(userId,noPlate);\n        if(index < 0){\n            userCars[userId].push(noPlate);\n        }\n        else{\n            userCars[userId][uint(index)] = noPlate;\n        }\n    }\n\n    function getCarIndex(bytes32 userId, string memory noPlate) internal view returns (int){\n        for(uint128 i = 0; i < userCars[userId].length; i++) {\n            if(encode(userCars[userId][i]) == encode(noPlate)) return i;\n        }\n        return -1;\n    }\n\n    function getCarPlates(bytes32 userId) public view returns (string[] memory) {\n        return userCars[userId];\n    }\n\n    function getCars(bytes32 userId) public view returns(CarInfo[] memory){\n        CarInfo[] memory cars = new CarInfo[](userCars[userId].length);\n        for(uint i = 0; i < userCars[userId].length;i++) {\n            cars[i] = carDetails[userCars[userId][i]];\n        }\n        return cars;\n    }\n\n    function getCarDetails(string memory noPlate) public view returns(CarInfo memory) {\n        return carDetails[noPlate];\n    }\n\n    function insertRecord(bytes32 dealerId, bytes32 id, string memory noPlate,\n     string[] memory services, string[] memory subservices, string memory comment, uint timeStamp)\n        public verified(dealerId) {\n        require(subservices.length <= services.length,\"Number of subservices does not match service length\");\n        if(getCarIndex(id,noPlate) < 0){\n            userCars[id].push(noPlate);\n        }\n        records[noPlate].push(RecordInternal(dealerId,services,subservices,comment,timeStamp));\n    }\n\n    function getRecords(string memory noPlate) public view returns (RecordInternal[] memory) {\n        return records[noPlate];\n    }\n\n}\n",
  "sourcePath": "/home/brandon/Documents/_Important/Uni/Blockchain/Final project/contracts/UserContract.sol",
  "compiler": {
    "name": "solc",
    "version": "0.5.12+commit.7709ece9.Emscripten.clang"
  },
  "schemaVersion": "3.0.19",
  "updatedAt": "2019-11-29T14:07:21.200Z",
  "networkType": "ethereum",
  "devdoc": {
    "methods": {}
  },
  "userdoc": {
    "methods": {}
  }
}